{"contracts/V1(Current)/AssetHubVault.sol":{"AssetHubVault":{"abi":[{"inputs":[],"stateMutability":"nonpayable","type":"constructor"},{"inputs":[],"name":"AmountMismatch","type":"error"},{"inputs":[],"name":"AmountZero","type":"error"},{"inputs":[],"name":"AssetMismatch","type":"error"},{"inputs":[],"name":"ChainIdMismatch","type":"error"},{"inputs":[],"name":"ChainNotSupported","type":"error"},{"inputs":[],"name":"ExecutorNotAuthorized","type":"error"},{"inputs":[],"name":"InsufficientBalance","type":"error"},{"inputs":[],"name":"InvalidRange","type":"error"},{"inputs":[],"name":"NotAdmin","type":"error"},{"inputs":[],"name":"NotEmergency","type":"error"},{"inputs":[],"name":"NotOperator","type":"error"},{"inputs":[],"name":"Paused","type":"error"},{"inputs":[],"name":"PositionNotActive","type":"error"},{"inputs":[],"name":"ReentrancyGuardReentrantCall","type":"error"},{"inputs":[],"name":"UnauthorizedXcmCall","type":"error"},{"inputs":[],"name":"XcmPrecompileNotSet","type":"error"},{"inputs":[],"name":"ZeroAddress","type":"error"},{"anonymous":false,"inputs":[{"indexed":true,"internalType":"uint32","name":"chainId","type":"uint32"},{"indexed":false,"internalType":"bytes","name":"xcmDestination","type":"bytes"},{"indexed":false,"internalType":"address","name":"executor","type":"address"}],"name":"ChainAdded","type":"event"},{"anonymous":false,"inputs":[{"indexed":true,"internalType":"uint32","name":"chainId","type":"uint32"}],"name":"ChainRemoved","type":"event"},{"anonymous":false,"inputs":[{"indexed":true,"internalType":"address","name":"user","type":"address"},{"indexed":false,"internalType":"uint256","name":"amount","type":"uint256"}],"name":"Deposit","type":"event"},{"anonymous":false,"inputs":[{"indexed":true,"internalType":"uint32","name":"chainId","type":"uint32"},{"indexed":false,"internalType":"address","name":"executor","type":"address"}],"name":"ExecutorUpdated","type":"event"},{"anonymous":false,"inputs":[{"indexed":true,"internalType":"bytes32","name":"positionId","type":"bytes32"},{"indexed":true,"internalType":"address","name":"user","type":"address"},{"indexed":false,"internalType":"uint32","name":"chainId","type":"uint32"},{"indexed":false,"internalType":"address","name":"poolId","type":"address"},{"indexed":false,"internalType":"uint256","name":"amount","type":"uint256"}],"name":"InvestmentInitiated","type":"event"},{"anonymous":false,"inputs":[{"indexed":true,"internalType":"bytes32","name":"positionId","type":"bytes32"},{"indexed":true,"internalType":"address","name":"user","type":"address"},{"indexed":false,"internalType":"uint256","name":"receivedAmount","type":"uint256"},{"indexed":false,"internalType":"uint256","name":"expectedAmount","type":"uint256"}],"name":"LiquidationSettled","type":"event"},{"anonymous":false,"inputs":[{"indexed":true,"internalType":"bytes32","name":"positionId","type":"bytes32"},{"indexed":true,"internalType":"uint32","name":"chainId","type":"uint32"},{"indexed":false,"internalType":"bytes32","name":"remotePositionId","type":"bytes32"},{"indexed":false,"internalType":"uint128","name":"liquidity","type":"uint128"}],"name":"PositionExecutionConfirmed","type":"event"},{"anonymous":false,"inputs":[{"indexed":true,"internalType":"bytes32","name":"positionId","type":"bytes32"},{"indexed":true,"internalType":"address","name":"user","type":"address"},{"indexed":false,"internalType":"uint256","name":"finalAmount","type":"uint256"}],"name":"PositionLiquidated","type":"event"},{"anonymous":false,"inputs":[{"indexed":true,"internalType":"address","name":"user","type":"address"},{"indexed":false,"internalType":"uint256","name":"amount","type":"uint256"}],"name":"Withdrawal","type":"event"},{"anonymous":false,"inputs":[{"indexed":true,"internalType":"bytes32","name":"messageHash","type":"bytes32"},{"indexed":false,"internalType":"bytes","name":"destination","type":"bytes"},{"indexed":false,"internalType":"bytes","name":"message","type":"bytes"}],"name":"XCMMessageSent","type":"event"},{"anonymous":false,"inputs":[{"indexed":true,"internalType":"address","name":"precompile","type":"address"}],"name":"XcmPrecompileSet","type":"event"},{"anonymous":false,"inputs":[{"indexed":true,"internalType":"bytes32","name":"messageHash","type":"bytes32"},{"indexed":false,"internalType":"bytes","name":"destination","type":"bytes"},{"indexed":false,"internalType":"bool","name":"success","type":"bool"},{"indexed":false,"internalType":"bytes","name":"errorData","type":"bytes"}],"name":"XcmSendAttempt","type":"event"},{"inputs":[],"name":"XCM_PRECOMPILE","outputs":[{"internalType":"address","name":"","type":"address"}],"stateMutability":"view","type":"function"},{"inputs":[{"internalType":"uint32","name":"chainId","type":"uint32"},{"internalType":"bytes","name":"xcmDestination","type":"bytes"},{"internalType":"string","name":"chainName","type":"string"},{"internalType":"address","name":"executor","type":"address"}],"name":"addChain","outputs":[],"stateMutability":"nonpayable","type":"function"},{"inputs":[],"name":"admin","outputs":[{"internalType":"address","name":"","type":"address"}],"stateMutability":"view","type":"function"},{"inputs":[{"internalType":"uint32","name":"","type":"uint32"}],"name":"chainExecutors","outputs":[{"internalType":"address","name":"","type":"address"}],"stateMutability":"view","type":"function"},{"inputs":[{"internalType":"bytes32","name":"positionId","type":"bytes32"},{"internalType":"bytes32","name":"remotePositionId","type":"bytes32"},{"internalType":"uint128","name":"liquidity","type":"uint128"}],"name":"confirmExecution","outputs":[],"stateMutability":"nonpayable","type":"function"},{"inputs":[],"name":"deposit","outputs":[],"stateMutability":"payable","type":"function"},{"inputs":[{"internalType":"address","name":"user","type":"address"},{"internalType":"uint32","name":"chainId","type":"uint32"},{"internalType":"address","name":"poolId","type":"address"},{"internalType":"address","name":"baseAsset","type":"address"},{"internalType":"uint256","name":"amount","type":"uint256"},{"internalType":"int24","name":"lowerRangePercent","type":"int24"},{"internalType":"int24","name":"upperRangePercent","type":"int24"},{"internalType":"bytes","name":"destination","type":"bytes"},{"internalType":"bytes","name":"preBuiltXcmMessage","type":"bytes"}],"name":"dispatchInvestment","outputs":[],"stateMutability":"nonpayable","type":"function"},{"inputs":[],"name":"emergency","outputs":[{"internalType":"address","name":"","type":"address"}],"stateMutability":"view","type":"function"},{"inputs":[{"internalType":"uint32","name":"chainId","type":"uint32"},{"internalType":"bytes32","name":"positionId","type":"bytes32"}],"name":"emergencyLiquidatePosition","outputs":[],"stateMutability":"payable","type":"function"},{"inputs":[],"name":"freezeXcmPrecompile","outputs":[],"stateMutability":"nonpayable","type":"function"},{"inputs":[{"internalType":"uint32","name":"chainId","type":"uint32"}],"name":"getChainConfig","outputs":[{"components":[{"internalType":"bool","name":"supported","type":"bool"},{"internalType":"bytes","name":"xcmDestination","type":"bytes"},{"internalType":"string","name":"chainName","type":"string"},{"internalType":"uint64","name":"timestamp","type":"uint64"}],"internalType":"struct AssetHubVault.ChainConfig","name":"","type":"tuple"}],"stateMutability":"view","type":"function"},{"inputs":[{"internalType":"bytes32","name":"positionId","type":"bytes32"}],"name":"getPosition","outputs":[{"components":[{"internalType":"address","name":"user","type":"address"},{"internalType":"address","name":"poolId","type":"address"},{"internalType":"address","name":"baseAsset","type":"address"},{"internalType":"uint32","name":"chainId","type":"uint32"},{"internalType":"int24","name":"lowerRangePercent","type":"int24"},{"internalType":"int24","name":"upperRangePercent","type":"int24"},{"internalType":"uint64","name":"timestamp","type":"uint64"},{"internalType":"enum AssetHubVault.PositionStatus","name":"status","type":"uint8"},{"internalType":"uint256","name":"amount","type":"uint256"},{"internalType":"bytes32","name":"remotePositionId","type":"bytes32"}],"internalType":"struct AssetHubVault.Position","name":"","type":"tuple"}],"stateMutability":"view","type":"function"},{"inputs":[{"internalType":"address","name":"user","type":"address"}],"name":"getUserBalance","outputs":[{"internalType":"uint256","name":"","type":"uint256"}],"stateMutability":"view","type":"function"},{"inputs":[{"internalType":"address","name":"user","type":"address"}],"name":"getUserPositions","outputs":[{"components":[{"internalType":"address","name":"user","type":"address"},{"internalType":"address","name":"poolId","type":"address"},{"internalType":"address","name":"baseAsset","type":"address"},{"internalType":"uint32","name":"chainId","type":"uint32"},{"internalType":"int24","name":"lowerRangePercent","type":"int24"},{"internalType":"int24","name":"upperRangePercent","type":"int24"},{"internalType":"uint64","name":"timestamp","type":"uint64"},{"internalType":"enum AssetHubVault.PositionStatus","name":"status","type":"uint8"},{"internalType":"uint256","name":"amount","type":"uint256"},{"internalType":"bytes32","name":"remotePositionId","type":"bytes32"}],"internalType":"struct AssetHubVault.Position[]","name":"","type":"tuple[]"}],"stateMutability":"view","type":"function"},{"inputs":[{"internalType":"uint32","name":"chainId","type":"uint32"}],"name":"isChainSupported","outputs":[{"internalType":"bool","name":"","type":"bool"}],"stateMutability":"view","type":"function"},{"inputs":[{"internalType":"address","name":"user","type":"address"},{"internalType":"bytes32","name":"positionId","type":"bytes32"}],"name":"isPositionActive","outputs":[{"internalType":"bool","name":"","type":"bool"}],"stateMutability":"view","type":"function"},{"inputs":[],"name":"operator","outputs":[{"internalType":"address","name":"","type":"address"}],"stateMutability":"view","type":"function"},{"inputs":[],"name":"pause","outputs":[],"stateMutability":"nonpayable","type":"function"},{"inputs":[],"name":"paused","outputs":[{"internalType":"bool","name":"","type":"bool"}],"stateMutability":"view","type":"function"},{"inputs":[{"internalType":"bytes32","name":"","type":"bytes32"}],"name":"positions","outputs":[{"internalType":"address","name":"user","type":"address"},{"internalType":"address","name":"poolId","type":"address"},{"internalType":"address","name":"baseAsset","type":"address"},{"internalType":"uint32","name":"chainId","type":"uint32"},{"internalType":"int24","name":"lowerRangePercent","type":"int24"},{"internalType":"int24","name":"upperRangePercent","type":"int24"},{"internalType":"uint64","name":"timestamp","type":"uint64"},{"internalType":"enum AssetHubVault.PositionStatus","name":"status","type":"uint8"},{"internalType":"uint256","name":"amount","type":"uint256"},{"internalType":"bytes32","name":"remotePositionId","type":"bytes32"}],"stateMutability":"view","type":"function"},{"inputs":[{"internalType":"uint32","name":"chainId","type":"uint32"}],"name":"removeChain","outputs":[],"stateMutability":"nonpayable","type":"function"},{"inputs":[{"internalType":"address","name":"account","type":"address"}],"name":"setEmergency","outputs":[],"stateMutability":"nonpayable","type":"function"},{"inputs":[{"internalType":"address","name":"account","type":"address"}],"name":"setOperator","outputs":[],"stateMutability":"nonpayable","type":"function"},{"inputs":[{"internalType":"bool","name":"_testMode","type":"bool"}],"name":"setTestMode","outputs":[],"stateMutability":"nonpayable","type":"function"},{"inputs":[{"internalType":"address","name":"precompile","type":"address"}],"name":"setXcmPrecompile","outputs":[],"stateMutability":"nonpayable","type":"function"},{"inputs":[{"internalType":"bytes32","name":"positionId","type":"bytes32"},{"internalType":"uint256","name":"receivedAmount","type":"uint256"}],"name":"settleLiquidation","outputs":[],"stateMutability":"nonpayable","type":"function"},{"inputs":[{"internalType":"uint32","name":"","type":"uint32"}],"name":"supportedChains","outputs":[{"internalType":"bool","name":"supported","type":"bool"},{"internalType":"bytes","name":"xcmDestination","type":"bytes"},{"internalType":"string","name":"chainName","type":"string"},{"internalType":"uint64","name":"timestamp","type":"uint64"}],"stateMutability":"view","type":"function"},{"inputs":[],"name":"testMode","outputs":[{"internalType":"bool","name":"","type":"bool"}],"stateMutability":"view","type":"function"},{"inputs":[{"internalType":"address","name":"newAdmin","type":"address"}],"name":"transferAdmin","outputs":[],"stateMutability":"nonpayable","type":"function"},{"inputs":[],"name":"unpause","outputs":[],"stateMutability":"nonpayable","type":"function"},{"inputs":[{"internalType":"uint32","name":"chainId","type":"uint32"},{"internalType":"address","name":"executor","type":"address"}],"name":"updateChainExecutor","outputs":[],"stateMutability":"nonpayable","type":"function"},{"inputs":[{"internalType":"address","name":"","type":"address"}],"name":"userBalances","outputs":[{"internalType":"uint256","name":"","type":"uint256"}],"stateMutability":"view","type":"function"},{"inputs":[{"internalType":"address","name":"","type":"address"},{"internalType":"uint256","name":"","type":"uint256"}],"name":"userPositions","outputs":[{"internalType":"bytes32","name":"","type":"bytes32"}],"stateMutability":"view","type":"function"},{"inputs":[{"internalType":"uint256","name":"amount","type":"uint256"}],"name":"withdraw","outputs":[],"stateMutability":"nonpayable","type":"function"},{"inputs":[],"name":"xcmPrecompileFrozen","outputs":[{"internalType":"bool","name":"","type":"bool"}],"stateMutability":"view","type":"function"},{"stateMutability":"payable","type":"receive"}],"evm":{"bytecode":{"linkReferences":{},"object":"608080604052346063576001600081905580546001600160a01b031990811633908117909255600280549091168217905560038054600980546001600160a81b03199081169091551660ff60a01b1990921691909117905561237190816100698239f35b600080fdfe608080604052600436101561001d575b50361561001b57600080fd5b005b600090813560e01c908163077120cc14611df1575080630d77be6914611d495780631928b3cb14611c6f5780631ff1292f14611c1e578063248514dd14611b8d57806326224c64146114ce57806328e6bdbe14611a065780632a6bc2dd1461185c5780632e1a7d4d1461176f5780632fefe440146116e95780633f4ba83a146116b657806343d6ca9c1461150757806347734892146114ce578063514ea4bf1461140d57806355a2d64d146112bc578063570ca735146112935780635c975abb1461126d5780635dad35ca146111b35780635e1b4d991461115c57806375829def146110ef5780638456cb59146110b65780639a270acd1461102d5780639b2c59e614611007578063a20b9b7714610f22578063b3ab15fb14610ed1578063b80fe2f914610ab7578063caa6fea414610a8e578063caffc49c14610932578063cbaa349e146108f8578063cd9ea342146108d2578063d0e30db01461085d578063dd67d25a1461027f578063e98eaaac14610241578063eb02a115146101d25763f851a4400361000f57346101cf57806003193601126101cf576001546040516001600160a01b039091168152602090f35b80fd5b50346101cf5760203660031901126101cf576101ec611e2e565b6001546001600160a01b03163303610232576001600160a01b03168015610223576001600160601b0360a01b600354161760035580f35b63d92e233d60e01b8252600482fd5b637bfa4b9f60e01b8252600482fd5b50346101cf5760203660031901126101cf5760209063ffffffff610263611e16565b16815260088252604060018060a01b0391205416604051908152f35b50346101cf576101203660031901126101cf5761029a611e2e565b906024359163ffffffff8316808403610859576044356001600160a01b03811690818103610855576102ca611e44565b916084359360a435948560020b8096036107a55760c435928360020b8094036108515760e4356001600160401b03811161084d5761030c9036906004016120cf565b969097610104356001600160401b0381116108495761032f9036906004016120cf565b600254919d909b916001600160a01b0316330361083a5760ff60035460a01c1661082b576001600160a01b03821698891561081c57861561080d57888412156107fe576009546001600160a01b0316156107ef5760ff60408f8a81526007602052205416156107e0578660408f8c815260046020522054106107d157604051606093841b6bffffffffffffffffffffffff199081166020830190815260e09490941b6001600160e01b031916603483015291841b8216603882015285841b909116604c82015242838201529182528c9161040a608082611f9b565b5190209687926040519461041d86611f4e565b8a86526020860191878352604087019160018060a01b0316825260608701938a85526080880191825260a0880190815260c08801946001600160401b034216865260e089019487865260406101008b01988d8a526101208c019a818c5281526005602052209960018060a01b039060018060a01b03905116166001600160601b0360a01b8b5416178a5560018060a01b0390511660018a019060018060a01b03166001600160601b0360a01b825416179055600289019360018060a01b039060018060a01b03905116166001600160601b0360a01b85541617845551918354905160c01b62ffffff60c01b16915160d81b62ffffff60d81b169263ffffffff60a01b9060a01b169069ffffffffffffffffffff60a01b191617171790556001600160401b038060038701935116166001600160401b03198354161782555160038110156107bd5790600593929160ff60401b82549160401b169060ff60401b191617905551600484015551910155848952600660205260408920805490600160401b8210156107a957916105dc827f9a5b32500137d63609212582c47c2e2486052dab88567f1fbd0637be4f2652a096946001606097950181556120a1565b81549060031b9088821b91600019901b1916179055868b52600460205260408b206106088382546121c0565b905560405192835260208301526040820152a36009549460ff8660a81c161561062f578480f35b61063a368583612252565b6020815191012093859660609060018060a01b0316803b156107a557604051637f0a3bf960e01b8152908890829081838161067b898b8d8f600486016122ef565b03925af19081610761575b50958097989261072894927f2d28a5a2ca6843ac7811dcf16bc72dcea83863fbb74f472becc28dc57a76827a981560001461073457507f2ba5ade46917c616c9af26a3ce5e85c0dc38796c39d42e9a9b2d930e02c49248906106e66121fe565b935b6106f96040519283928a8c856122ef565b0390a26107136040519586956060875260608701916122ce565b91151560208501528382036040850152612060565b0390a280388080808480f35b9293507f2ba5ade46917c616c9af26a3ce5e85c0dc38796c39d42e9a9b2d930e02c49248906001946106e8565b926107289492896107978a9b7f2d28a5a2ca6843ac7811dcf16bc72dcea83863fbb74f472becc28dc57a76827a9b959d97611f9b565b995092945092989096610686565b8780fd5b634e487b7160e01b8b52604160045260248bfd5b634e487b7160e01b8e52602160045260248efd5b631e9acf1760e31b8e5260048efd5b63f21c9f0760e01b8e5260048efd5b6395b60d6160e01b8e5260048efd5b63561ce9bb60e01b8e5260048efd5b6365e52d5160e11b8e5260048efd5b63d92e233d60e01b8e5260048efd5b6313d0ff5960e31b8d5260048dfd5b631f0853c160e21b8d5260048dfd5b8b80fd5b8980fd5b8880fd5b8480fd5b8280fd5b50806003193601126101cf57610871612319565b34156108c35733815260046020526040812061088e34825461222e565b90556040513481527fe1fffcc4923d04b559f4d29a8bfc6cda04eb5b0d3c460751c2402c5c5cc9109c60203392a26001815580f35b6365e52d5160e11b8152600490fd5b50346101cf57806003193601126101cf57602060ff60095460a81c166040519015158152f35b50346101cf5760203660031901126101cf5760ff604060209263ffffffff61091e611e16565b168152600784522054166040519015158152f35b5060403660031901126101cf57610947611e16565b60035460243591906001600160a01b03163303610a7f5781835260056020526040832090600382019060ff825460401c166003811015610a6b57600214610a265763ffffffff80600285015460a01c16911603610a1757805460ff60401b1916600160411b179055346109ed575b60018060a01b03905416907f385faac62e36e04554cd60315fc6716eaf7fc15bba95b3790f4b351dfa10bad86020604051348152a380f35b80546001600160a01b031683526004602052604083208054610a1090349061222e565b90556109b5565b63a179f8c960e01b8452600484fd5b60405162461bcd60e51b815260206004820152601b60248201527f506f736974696f6e20616c7265616479206c69717569646174656400000000006044820152606490fd5b634e487b7160e01b86526021600452602486fd5b6303ca9f4d60e11b8352600483fd5b50346101cf57806003193601126101cf576003546040516001600160a01b039091168152602090f35b50346101cf5760803660031901126101cf57610ad1611e16565b906024356001600160401b038111610ecd57610af19036906004016120cf565b92906044356001600160401b038111610ec957610b129036906004016120cf565b949092610b1d611e44565b6001549091906001600160a01b03163303610eba5763ffffffff1693848652600760205260ff604087205416610e75578215610e3057610b8160405191610b6383611f80565b60018352610b72368688612252565b9860208401998a523691612252565b966040820197885260608201906001600160401b03421682528688526007602052604088209251151560ff801985541691161783556001830190518051906001600160401b038211610e1c57610be182610bdb8554611f14565b85612289565b602090601f8311600114610db957610c1192918b9183610d09575b50508160011b916000199060031b1c19161790565b90555b6002820197519788516001600160401b038111610da557610c3f81610c398454611f14565b84612289565b6020601f8211600114610d145792600392610c9f836001600160401b03969487958e9f7fed959e830f99a1c8cc3bd5f59d1530c3a0a7e009ee2a0589f702741ddb83ec709e9f92610d095750508160011b916000199060031b1c19161790565b90555b5116920191166001600160401b031982541617905560018060a01b031680610ce8575b610cdc6040519384936040855260408501916122ce565b9060208301520390a280f35b84865260086020526040862080546001600160a01b03191682179055610cc5565b015190503880610bfc565b828a52808a209a601f1983168b5b818110610d8d5750837fed959e830f99a1c8cc3bd5f59d1530c3a0a7e009ee2a0589f702741ddb83ec709b9c9d6001600160401b03979460039794899760019510610d75575b505050811b019055610ca2565b015160001983891b60f8161c19169055388080610d68565b838301518e556001909d019c60209384019301610d22565b634e487b7160e01b89526041600452602489fd5b838b52818b209190601f1984168c5b818110610e045750908460019594939210610deb575b505050811b019055610c14565b015160001960f88460031b161c19169055388080610dde565b92936020600181928786015181550195019301610dc8565b634e487b7160e01b8a52604160045260248afd5b60405162461bcd60e51b815260206004820152601760248201527f496e76616c69642058434d2064657374696e6174696f6e0000000000000000006044820152606490fd5b60405162461bcd60e51b815260206004820152601760248201527f436861696e20616c726561647920737570706f727465640000000000000000006044820152606490fd5b637bfa4b9f60e01b8652600486fd5b8380fd5b5080fd5b50346101cf5760203660031901126101cf57610eeb611e2e565b6001546001600160a01b03163303610232576001600160a01b03168015610223576001600160601b0360a01b600254161760025580f35b50346101cf5760203660031901126101cf5760409063ffffffff610f44611e16565b8260608551610f5281611f80565b82815281602082015281878201520152168152600760205220604051610f7781611f80565b60ff82541615158152610f8c60018301611fbc565b91602082019283526001600160401b03610ffb816003610fae60028601611fbc565b94604087019586520154169260608501938452610fe8604051968796602088525115156020880152516080604088015260a0870190612060565b9051858203601f19016060870152612060565b91511660808301520390f35b50346101cf57806003193601126101cf57602060ff60095460a01c166040519015158152f35b50346101cf57806003193601126101cf576001546001600160a01b031633036110a75760095460ff8160a01c166110715760ff60a01b1916600160a01b1760095580f35b60405162461bcd60e51b815260206004820152600e60248201526d30b63932b0b23c90333937bd32b760911b6044820152606490fd5b637bfa4b9f60e01b8152600490fd5b50346101cf57806003193601126101cf576001546001600160a01b031633036110a7576003805460ff60a01b1916600160a01b17905580f35b50346101cf5760203660031901126101cf57611109611e2e565b600154906001600160a01b038216330361114d576001600160a01b031690811561113e576001600160a01b0319161760015580f35b63d92e233d60e01b8352600483fd5b637bfa4b9f60e01b8352600483fd5b50346101cf5760403660031901126101cf57611176611e2e565b6001600160a01b03168152600660205260408120805460243592908310156101cf5760206111a484846120a1565b90549060031b1c604051908152f35b50346101cf5760203660031901126101cf576111cd611e2e565b6001546001600160a01b03163303610232576009549060ff8260a01c16611230576001600160a01b03166001600160a01b03199190911681176009557f92107fcd833d21c9342d998ceb020ac5d7aaa95136a24b3f7e7a17522b26d0e48280a280f35b60405162461bcd60e51b81526020600482015260156024820152743c31b690383932b1b7b6b834b63290333937bd32b760591b6044820152606490fd5b50346101cf57806003193601126101cf57602060ff60035460a01c166040519015158152f35b50346101cf57806003193601126101cf576002546040516001600160a01b039091168152602090f35b50346101cf5760203660031901126101cf576112d6611e16565b6001546001600160a01b031633036102325763ffffffff16808252600760205261130660ff6040842054166120fc565b80825260076020528160036040822082815582600182016113278154611f14565b806113cb575b50506002820161133d8154611f14565b80611389575b505050015580825260086020526040822080546001600160a01b03191690557f79df5d328757ca456e42d3dc087c02eedd4cf61d984a6aa526cfac31f1542dcd8280a280f35b601f811160011461139f5750555b823880611343565b818352602083206113bb91601f0160051c81019060010161223b565b8082528160208120915555611397565b601f81116001146113e15750555b82388061132d565b818352602083206113fd91601f0160051c81019060010161223b565b80825281602081209155556113d9565b50346101cf5760203660031901126101cf57604061014091600435815260056020522060018060a01b038154169060018060a01b03600182015416906114c060028201546003830154906005600485015494015494604051968752602087015260018060a01b038116604087015263ffffffff8160a01c1660608701528060c01c60020b608087015260d81c60020b60a08601526001600160401b03811660c086015260ff60e086019160401c16611e5a565b610100830152610120820152f35b50346101cf5760203660031901126101cf576020906040906001600160a01b036114f6611e2e565b168152600483522054604051908152f35b50346101cf5760403660031901126101cf5760025460243590600435906001600160a01b031633036116a75761153b612319565b811561169857808352600560205260408320916003830160ff815460401c166003811015610a6b5760010361165d5781471061161857805460ff60401b1916600160411b17905582546001600160a01b031684526004602052604080852080547fa8bc750a5af603b81d1d73928261812951e56844201c36805845c3ea53e0657c9391906115ca90839061222e565b9055600460018060a01b038654169586867f385faac62e36e04554cd60315fc6716eaf7fc15bba95b3790f4b351dfa10bad860208751878152a3015482519182526020820152a36001815580f35b60405162461bcd60e51b815260206004820152601d60248201527f496e73756666696369656e7420636f6e74726163742062616c616e63650000006044820152606490fd5b60405162461bcd60e51b8152602060048201526013602482015272506f736974696f6e206e6f742061637469766560681b6044820152606490fd5b6365e52d5160e11b8352600483fd5b631f0853c160e21b8352600483fd5b50346101cf57806003193601126101cf576001546001600160a01b031633036110a7576003805460ff60a01b1916905580f35b50346101cf5760403660031901126101cf57611703611e2e565b602435825260056020526040822080546001600160a01b039283169216919091149081611738575b6020826040519015158152f35b60ff91506003015460401c1690600382101561175b57506001602091143861172b565b634e487b7160e01b81526021600452602490fd5b50346101cf5760203660031901126101cf5760043561178c612319565b801561184d5733825260046020528060408320541061183e573382526004602052604082206117bc8282546121c0565b90558180808084335af16117ce6121fe565b5015611807576040519081527f7fcf532c15f0a6db0bd6d0e038bea71d30d808c7d98cb3bf7268a95bf5081b6560203392a26001815580f35b60405162461bcd60e51b815260206004820152600f60248201526e1514905394d1915497d19052531151608a1b6044820152606490fd5b631e9acf1760e31b8252600482fd5b6365e52d5160e11b8252600482fd5b50346101cf5760203660031901126101cf576001600160a01b0361187e611e2e565b168152600660205260408120805461189581612195565b916118a36040519384611f9b565b818352601f196118b283612195565b01845b8181106119ef575050835b828110611919578385604051918291602083016020845282518091526020604085019301915b8181106118f4575050500390f35b9193509160206101408261190b6001948851611e7d565b0194019101918493926118e6565b80611926600192846120a1565b90549060031b1c865260056020526040862060056040519161194783611f4e565b848060a01b038154168352848060a01b03858201541660208401526002810154858060a01b038116604085015263ffffffff8160a01c1660608501528060c01c60020b608085015260d81c60020b60a08401526119c060ff60038301546001600160401b03811660c087015260401c1660e08501612189565b600481015461010084015201546101208201526119dd82876121ac565b526119e881866121ac565b50016118c0565b6020906119fa61213e565b828288010152016118b5565b50346101cf5760603660031901126101cf5760043560243590604435916fffffffffffffffffffffffffffffffff8316809303610ec9576002546001600160a01b03163303611b7e57611a57612319565b818452600560205260408420600381019060ff825460401c166003811015611b6a57611b2e5760028101805460a01c63ffffffff168752600860205260408720549092906001600160a01b0316151580611b19575b611b0a576040928460057f47ba39d87df8b4c2663f9d298c92cc07750ad1b1f035a7e9e761028a995c1cee969463ffffffff94600160401b60ff60401b1982541617905501555460a01c169482519182526020820152a36001815580f35b6362f7429560e11b8752600487fd5b506002546001600160a01b0316331415611aac565b60405162461bcd60e51b8152602060048201526014602482015273506f736974696f6e206e6f742070656e64696e6760601b6044820152606490fd5b634e487b7160e01b87526021600452602487fd5b631f0853c160e21b8452600484fd5b50346101cf5760203660031901126101cf5760409063ffffffff611baf611e16565b16815260076020522060ff815416611bc960018301611fbc565b91611c146001600160401b036003611be360028501611fbc565b9301541691611c0660405195869515158652608060208701526080860190612060565b908482036040860152612060565b9060608301520390f35b50346101cf5760203660031901126101cf57600435801515809103610ecd576001546001600160a01b03163303610232576009805460ff60a81b191660a89290921b60ff60a81b1691909117905580f35b50346101cf5760203660031901126101cf57604061014091611c8f61213e565b506004358152600560205220600560405191611caa83611f4e565b60018060a01b03815416835260018060a01b036001820154166020840152600281015460018060a01b038116604085015263ffffffff8160a01c1660608501528060c01c60020b608085015260d81c60020b60a0840152611d2760ff60038301546001600160401b03811660c087015260401c1660e08501612189565b60048101546101008401520154610120820152611d476040518092611e7d565bf35b50346101cf5760403660031901126101cf57611d63611e16565b6024356001600160a01b0381169190829003610859576001546001600160a01b0316330361114d57602063ffffffff7fc0648d71480d56e212d7221a29783f9dc7d62231867ed5159f5d1bdb1459b99992169283855260078252611dcd60ff6040872054166120fc565b83855260088252604080862080546001600160a01b0319168317905551908152a280f35b905034610ecd5781600319360112610ecd576009546001600160a01b03168152602090f35b6004359063ffffffff82168203611e2957565b600080fd5b600435906001600160a01b0382168203611e2957565b606435906001600160a01b0382168203611e2957565b906003821015611e675752565b634e487b7160e01b600052602160045260246000fd5b610120809160018060a01b03815116845260018060a01b03602082015116602085015260018060a01b03604082015116604085015263ffffffff6060820151166060850152608081015160020b608085015260a081015160020b60a08501526001600160401b0360c08201511660c0850152611f0160e082015160e0860190611e5a565b6101008101516101008501520151910152565b90600182811c92168015611f44575b6020831014611f2e57565b634e487b7160e01b600052602260045260246000fd5b91607f1691611f23565b61014081019081106001600160401b03821117611f6a57604052565b634e487b7160e01b600052604160045260246000fd5b608081019081106001600160401b03821117611f6a57604052565b90601f801991011681019081106001600160401b03821117611f6a57604052565b9060405191826000825492611fd084611f14565b808452936001811690811561203e5750600114611ff7575b50611ff592500383611f9b565b565b90506000929192526020600020906000915b818310612022575050906020611ff59282010138611fe8565b6020919350806001915483858901015201910190918492612009565b905060209250611ff594915060ff191682840152151560051b82010138611fe8565b919082519283825260005b84811061208c575050826000602080949584010152601f8019910116010190565b8060208092840101518282860101520161206b565b80548210156120b95760005260206000200190600090565b634e487b7160e01b600052603260045260246000fd5b9181601f84011215611e29578235916001600160401b038311611e295760208381860195010111611e2957565b1561210357565b60405162461bcd60e51b815260206004820152601360248201527210da185a5b881b9bdd081cdd5c1c1bdc9d1959606a1b6044820152606490fd5b6040519061214b82611f4e565b6000610120838281528260208201528260408201528260608201528260808201528260a08201528260c08201528260e0820152826101008201520152565b6003821015611e675752565b6001600160401b038111611f6a5760051b60200190565b80518210156120b95760209160051b010190565b919082039182116121cd57565b634e487b7160e01b600052601160045260246000fd5b6001600160401b038111611f6a57601f01601f191660200190565b3d15612229573d9061220f826121e3565b9161221d6040519384611f9b565b82523d6000602084013e565b606090565b919082018092116121cd57565b818110612246575050565b6000815560010161223b565b92919261225e826121e3565b9161226c6040519384611f9b565b829481845281830111611e29578281602093846000960137010152565b9190601f811161229857505050565b611ff5926000526020600020906020601f840160051c830193106122c4575b601f0160051c019061223b565b90915081906122b7565b908060209392818452848401376000828201840152601f01601f1916010190565b92906123089061231695936040865260408601916122ce565b9260208185039101526122ce565b90565b60026000541461232a576002600055565b633ee5aeb560e01b60005260046000fdfea264697066735822122096e961d1586f570b9c78aa3845e8e2978abeb4418701bf5b3571efe9292ef11364736f6c634300081c0033","opcodes":"PUSH1 0x80 DUP1 PUSH1 0x40 MSTORE CALLVALUE PUSH1 0x63 JUMPI PUSH1 0x1 PUSH1 0x0 DUP2 SWAP1 SSTORE DUP1 SLOAD PUSH1 0x1 PUSH1 0x1 PUSH1 0xA0 SHL SUB NOT SWAP1 DUP2 AND CALLER SWAP1 DUP2 OR SWAP1 SWAP3 SSTORE PUSH1 0x2 DUP1 SLOAD SWAP1 SWAP2 AND DUP3 OR SWAP1 SSTORE PUSH1 0x3 DUP1 SLOAD PUSH1 0x9 DUP1 SLOAD PUSH1 0x1 PUSH1 0x1 PUSH1 0xA8 SHL SUB NOT SWAP1 DUP2 AND SWAP1 SWAP2 SSTORE AND PUSH1 0xFF PUSH1 0xA0 SHL NOT SWAP1 SWAP3 AND SWAP2 SWAP1 SWAP2 OR SWAP1 SSTORE PUSH2 0x2371 SWAP1 DUP2 PUSH2 0x69 DUP3 CODECOPY RETURN JUMPDEST PUSH1 0x0 DUP1 REVERT INVALID PUSH1 0x80 DUP1 PUSH1 0x40 MSTORE PUSH1 0x4 CALLDATASIZE LT ISZERO PUSH2 0x1D JUMPI JUMPDEST POP CALLDATASIZE ISZERO PUSH2 0x1B JUMPI PUSH1 0x0 DUP1 REVERT JUMPDEST STOP JUMPDEST PUSH1 0x0 SWAP1 DUP2 CALLDATALOAD PUSH1 0xE0 SHR SWAP1 DUP2 PUSH4 0x77120CC EQ PUSH2 0x1DF1 JUMPI POP DUP1 PUSH4 0xD77BE69 EQ PUSH2 0x1D49 JUMPI DUP1 PUSH4 0x1928B3CB EQ PUSH2 0x1C6F JUMPI DUP1 PUSH4 0x1FF1292F EQ PUSH2 0x1C1E JUMPI DUP1 PUSH4 0x248514DD EQ PUSH2 0x1B8D JUMPI DUP1 PUSH4 0x26224C64 EQ PUSH2 0x14CE JUMPI DUP1 PUSH4 0x28E6BDBE EQ PUSH2 0x1A06 JUMPI DUP1 PUSH4 0x2A6BC2DD EQ PUSH2 0x185C JUMPI DUP1 PUSH4 0x2E1A7D4D EQ PUSH2 0x176F JUMPI DUP1 PUSH4 0x2FEFE440 EQ PUSH2 0x16E9 JUMPI DUP1 PUSH4 0x3F4BA83A EQ PUSH2 0x16B6 JUMPI DUP1 PUSH4 0x43D6CA9C EQ PUSH2 0x1507 JUMPI DUP1 PUSH4 0x47734892 EQ PUSH2 0x14CE JUMPI DUP1 PUSH4 0x514EA4BF EQ PUSH2 0x140D JUMPI DUP1 PUSH4 0x55A2D64D EQ PUSH2 0x12BC JUMPI DUP1 PUSH4 0x570CA735 EQ PUSH2 0x1293 JUMPI DUP1 PUSH4 0x5C975ABB EQ PUSH2 0x126D JUMPI DUP1 PUSH4 0x5DAD35CA EQ PUSH2 0x11B3 JUMPI DUP1 PUSH4 0x5E1B4D99 EQ PUSH2 0x115C JUMPI DUP1 PUSH4 0x75829DEF EQ PUSH2 0x10EF JUMPI DUP1 PUSH4 0x8456CB59 EQ PUSH2 0x10B6 JUMPI DUP1 PUSH4 0x9A270ACD EQ PUSH2 0x102D JUMPI DUP1 PUSH4 0x9B2C59E6 EQ PUSH2 0x1007 JUMPI DUP1 PUSH4 0xA20B9B77 EQ PUSH2 0xF22 JUMPI DUP1 PUSH4 0xB3AB15FB EQ PUSH2 0xED1 JUMPI DUP1 PUSH4 0xB80FE2F9 EQ PUSH2 0xAB7 JUMPI DUP1 PUSH4 0xCAA6FEA4 EQ PUSH2 0xA8E JUMPI DUP1 PUSH4 0xCAFFC49C EQ PUSH2 0x932 JUMPI DUP1 PUSH4 0xCBAA349E EQ PUSH2 0x8F8 JUMPI DUP1 PUSH4 0xCD9EA342 EQ PUSH2 0x8D2 JUMPI DUP1 PUSH4 0xD0E30DB0 EQ PUSH2 0x85D JUMPI DUP1 PUSH4 0xDD67D25A EQ PUSH2 0x27F JUMPI DUP1 PUSH4 0xE98EAAAC EQ PUSH2 0x241 JUMPI DUP1 PUSH4 0xEB02A115 EQ PUSH2 0x1D2 JUMPI PUSH4 0xF851A440 SUB PUSH2 0xF JUMPI CALLVALUE PUSH2 0x1CF JUMPI DUP1 PUSH1 0x3 NOT CALLDATASIZE ADD SLT PUSH2 0x1CF JUMPI PUSH1 0x1 SLOAD PUSH1 0x40 MLOAD PUSH1 0x1 PUSH1 0x1 PUSH1 0xA0 SHL SUB SWAP1 SWAP2 AND DUP2 MSTORE PUSH1 0x20 SWAP1 RETURN JUMPDEST DUP1 REVERT JUMPDEST POP CALLVALUE PUSH2 0x1CF JUMPI PUSH1 0x20 CALLDATASIZE PUSH1 0x3 NOT ADD SLT PUSH2 0x1CF JUMPI PUSH2 0x1EC PUSH2 0x1E2E JUMP JUMPDEST PUSH1 0x1 SLOAD PUSH1 0x1 PUSH1 0x1 PUSH1 0xA0 SHL SUB AND CALLER SUB PUSH2 0x232 JUMPI PUSH1 0x1 PUSH1 0x1 PUSH1 0xA0 SHL SUB AND DUP1 ISZERO PUSH2 0x223 JUMPI PUSH1 0x1 PUSH1 0x1 PUSH1 0x60 SHL SUB PUSH1 0xA0 SHL PUSH1 0x3 SLOAD AND OR PUSH1 0x3 SSTORE DUP1 RETURN JUMPDEST PUSH4 0xD92E233D PUSH1 0xE0 SHL DUP3 MSTORE PUSH1 0x4 DUP3 REVERT JUMPDEST PUSH4 0x7BFA4B9F PUSH1 0xE0 SHL DUP3 MSTORE PUSH1 0x4 DUP3 REVERT JUMPDEST POP CALLVALUE PUSH2 0x1CF JUMPI PUSH1 0x20 CALLDATASIZE PUSH1 0x3 NOT ADD SLT PUSH2 0x1CF JUMPI PUSH1 0x20 SWAP1 PUSH4 0xFFFFFFFF PUSH2 0x263 PUSH2 0x1E16 JUMP JUMPDEST AND DUP2 MSTORE PUSH1 0x8 DUP3 MSTORE PUSH1 0x40 PUSH1 0x1 DUP1 PUSH1 0xA0 SHL SUB SWAP2 KECCAK256 SLOAD AND PUSH1 0x40 MLOAD SWAP1 DUP2 MSTORE RETURN JUMPDEST POP CALLVALUE PUSH2 0x1CF JUMPI PUSH2 0x120 CALLDATASIZE PUSH1 0x3 NOT ADD SLT PUSH2 0x1CF JUMPI PUSH2 0x29A PUSH2 0x1E2E JUMP JUMPDEST SWAP1 PUSH1 0x24 CALLDATALOAD SWAP2 PUSH4 0xFFFFFFFF DUP4 AND DUP1 DUP5 SUB PUSH2 0x859 JUMPI PUSH1 0x44 CALLDATALOAD PUSH1 0x1 PUSH1 0x1 PUSH1 0xA0 SHL SUB DUP2 AND SWAP1 DUP2 DUP2 SUB PUSH2 0x855 JUMPI PUSH2 0x2CA PUSH2 0x1E44 JUMP JUMPDEST SWAP2 PUSH1 0x84 CALLDATALOAD SWAP4 PUSH1 0xA4 CALLDATALOAD SWAP5 DUP6 PUSH1 0x2 SIGNEXTEND DUP1 SWAP7 SUB PUSH2 0x7A5 JUMPI PUSH1 0xC4 CALLDATALOAD SWAP3 DUP4 PUSH1 0x2 SIGNEXTEND DUP1 SWAP5 SUB PUSH2 0x851 JUMPI PUSH1 0xE4 CALLDATALOAD PUSH1 0x1 PUSH1 0x1 PUSH1 0x40 SHL SUB DUP2 GT PUSH2 0x84D JUMPI PUSH2 0x30C SWAP1 CALLDATASIZE SWAP1 PUSH1 0x4 ADD PUSH2 0x20CF JUMP JUMPDEST SWAP7 SWAP1 SWAP8 PUSH2 0x104 CALLDATALOAD PUSH1 0x1 PUSH1 0x1 PUSH1 0x40 SHL SUB DUP2 GT PUSH2 0x849 JUMPI PUSH2 0x32F SWAP1 CALLDATASIZE SWAP1 PUSH1 0x4 ADD PUSH2 0x20CF JUMP JUMPDEST PUSH1 0x2 SLOAD SWAP2 SWAP14 SWAP1 SWAP12 SWAP2 PUSH1 0x1 PUSH1 0x1 PUSH1 0xA0 SHL SUB AND CALLER SUB PUSH2 0x83A JUMPI PUSH1 0xFF PUSH1 0x3 SLOAD PUSH1 0xA0 SHR AND PUSH2 0x82B JUMPI PUSH1 0x1 PUSH1 0x1 PUSH1 0xA0 SHL SUB DUP3 AND SWAP9 DUP10 ISZERO PUSH2 0x81C JUMPI DUP7 ISZERO PUSH2 0x80D JUMPI DUP9 DUP5 SLT ISZERO PUSH2 0x7FE JUMPI PUSH1 0x9 SLOAD PUSH1 0x1 PUSH1 0x1 PUSH1 0xA0 SHL SUB AND ISZERO PUSH2 0x7EF JUMPI PUSH1 0xFF PUSH1 0x40 DUP16 DUP11 DUP2 MSTORE PUSH1 0x7 PUSH1 0x20 MSTORE KECCAK256 SLOAD AND ISZERO PUSH2 0x7E0 JUMPI DUP7 PUSH1 0x40 DUP16 DUP13 DUP2 MSTORE PUSH1 0x4 PUSH1 0x20 MSTORE KECCAK256 SLOAD LT PUSH2 0x7D1 JUMPI PUSH1 0x40 MLOAD PUSH1 0x60 SWAP4 DUP5 SHL PUSH12 0xFFFFFFFFFFFFFFFFFFFFFFFF NOT SWAP1 DUP2 AND PUSH1 0x20 DUP4 ADD SWAP1 DUP2 MSTORE PUSH1 0xE0 SWAP5 SWAP1 SWAP5 SHL PUSH1 0x1 PUSH1 0x1 PUSH1 0xE0 SHL SUB NOT AND PUSH1 0x34 DUP4 ADD MSTORE SWAP2 DUP5 SHL DUP3 AND PUSH1 0x38 DUP3 ADD MSTORE DUP6 DUP5 SHL SWAP1 SWAP2 AND PUSH1 0x4C DUP3 ADD MSTORE TIMESTAMP DUP4 DUP3 ADD MSTORE SWAP2 DUP3 MSTORE DUP13 SWAP2 PUSH2 0x40A PUSH1 0x80 DUP3 PUSH2 0x1F9B JUMP JUMPDEST MLOAD SWAP1 KECCAK256 SWAP7 DUP8 SWAP3 PUSH1 0x40 MLOAD SWAP5 PUSH2 0x41D DUP7 PUSH2 0x1F4E JUMP JUMPDEST DUP11 DUP7 MSTORE PUSH1 0x20 DUP7 ADD SWAP2 DUP8 DUP4 MSTORE PUSH1 0x40 DUP8 ADD SWAP2 PUSH1 0x1 DUP1 PUSH1 0xA0 SHL SUB AND DUP3 MSTORE PUSH1 0x60 DUP8 ADD SWAP4 DUP11 DUP6 MSTORE PUSH1 0x80 DUP9 ADD SWAP2 DUP3 MSTORE PUSH1 0xA0 DUP9 ADD SWAP1 DUP2 MSTORE PUSH1 0xC0 DUP9 ADD SWAP5 PUSH1 0x1 PUSH1 0x1 PUSH1 0x40 SHL SUB TIMESTAMP AND DUP7 MSTORE PUSH1 0xE0 DUP10 ADD SWAP5 DUP8 DUP7 MSTORE PUSH1 0x40 PUSH2 0x100 DUP12 ADD SWAP9 DUP14 DUP11 MSTORE PUSH2 0x120 DUP13 ADD SWAP11 DUP2 DUP13 MSTORE DUP2 MSTORE PUSH1 0x5 PUSH1 0x20 MSTORE KECCAK256 SWAP10 PUSH1 0x1 DUP1 PUSH1 0xA0 SHL SUB SWAP1 PUSH1 0x1 DUP1 PUSH1 0xA0 SHL SUB SWAP1 MLOAD AND AND PUSH1 0x1 PUSH1 0x1 PUSH1 0x60 SHL SUB PUSH1 0xA0 SHL DUP12 SLOAD AND OR DUP11 SSTORE PUSH1 0x1 DUP1 PUSH1 0xA0 SHL SUB SWAP1 MLOAD AND PUSH1 0x1 DUP11 ADD SWAP1 PUSH1 0x1 DUP1 PUSH1 0xA0 SHL SUB AND PUSH1 0x1 PUSH1 0x1 PUSH1 0x60 SHL SUB PUSH1 0xA0 SHL DUP3 SLOAD AND OR SWAP1 SSTORE PUSH1 0x2 DUP10 ADD SWAP4 PUSH1 0x1 DUP1 PUSH1 0xA0 SHL SUB SWAP1 PUSH1 0x1 DUP1 PUSH1 0xA0 SHL SUB SWAP1 MLOAD AND AND PUSH1 0x1 PUSH1 0x1 PUSH1 0x60 SHL SUB PUSH1 0xA0 SHL DUP6 SLOAD AND OR DUP5 SSTORE MLOAD SWAP2 DUP4 SLOAD SWAP1 MLOAD PUSH1 0xC0 SHL PUSH3 0xFFFFFF PUSH1 0xC0 SHL AND SWAP2 MLOAD PUSH1 0xD8 SHL PUSH3 0xFFFFFF PUSH1 0xD8 SHL AND SWAP3 PUSH4 0xFFFFFFFF PUSH1 0xA0 SHL SWAP1 PUSH1 0xA0 SHL AND SWAP1 PUSH10 0xFFFFFFFFFFFFFFFFFFFF PUSH1 0xA0 SHL NOT AND OR OR OR SWAP1 SSTORE PUSH1 0x1 PUSH1 0x1 PUSH1 0x40 SHL SUB DUP1 PUSH1 0x3 DUP8 ADD SWAP4 MLOAD AND AND PUSH1 0x1 PUSH1 0x1 PUSH1 0x40 SHL SUB NOT DUP4 SLOAD AND OR DUP3 SSTORE MLOAD PUSH1 0x3 DUP2 LT ISZERO PUSH2 0x7BD JUMPI SWAP1 PUSH1 0x5 SWAP4 SWAP3 SWAP2 PUSH1 0xFF PUSH1 0x40 SHL DUP3 SLOAD SWAP2 PUSH1 0x40 SHL AND SWAP1 PUSH1 0xFF PUSH1 0x40 SHL NOT AND OR SWAP1 SSTORE MLOAD PUSH1 0x4 DUP5 ADD SSTORE MLOAD SWAP2 ADD SSTORE DUP5 DUP10 MSTORE PUSH1 0x6 PUSH1 0x20 MSTORE PUSH1 0x40 DUP10 KECCAK256 DUP1 SLOAD SWAP1 PUSH1 0x1 PUSH1 0x40 SHL DUP3 LT ISZERO PUSH2 0x7A9 JUMPI SWAP2 PUSH2 0x5DC DUP3 PUSH32 0x9A5B32500137D63609212582C47C2E2486052DAB88567F1FBD0637BE4F2652A0 SWAP7 SWAP5 PUSH1 0x1 PUSH1 0x60 SWAP8 SWAP6 ADD DUP2 SSTORE PUSH2 0x20A1 JUMP JUMPDEST DUP2 SLOAD SWAP1 PUSH1 0x3 SHL SWAP1 DUP9 DUP3 SHL SWAP2 PUSH1 0x0 NOT SWAP1 SHL NOT AND OR SWAP1 SSTORE DUP7 DUP12 MSTORE PUSH1 0x4 PUSH1 0x20 MSTORE PUSH1 0x40 DUP12 KECCAK256 PUSH2 0x608 DUP4 DUP3 SLOAD PUSH2 0x21C0 JUMP JUMPDEST SWAP1 SSTORE PUSH1 0x40 MLOAD SWAP3 DUP4 MSTORE PUSH1 0x20 DUP4 ADD MSTORE PUSH1 0x40 DUP3 ADD MSTORE LOG3 PUSH1 0x9 SLOAD SWAP5 PUSH1 0xFF DUP7 PUSH1 0xA8 SHR AND ISZERO PUSH2 0x62F JUMPI DUP5 DUP1 RETURN JUMPDEST PUSH2 0x63A CALLDATASIZE DUP6 DUP4 PUSH2 0x2252 JUMP JUMPDEST PUSH1 0x20 DUP2 MLOAD SWAP2 ADD KECCAK256 SWAP4 DUP6 SWAP7 PUSH1 0x60 SWAP1 PUSH1 0x1 DUP1 PUSH1 0xA0 SHL SUB AND DUP1 EXTCODESIZE ISZERO PUSH2 0x7A5 JUMPI PUSH1 0x40 MLOAD PUSH4 0x7F0A3BF9 PUSH1 0xE0 SHL DUP2 MSTORE SWAP1 DUP9 SWAP1 DUP3 SWAP1 DUP2 DUP4 DUP2 PUSH2 0x67B DUP10 DUP12 DUP14 DUP16 PUSH1 0x4 DUP7 ADD PUSH2 0x22EF JUMP JUMPDEST SUB SWAP3 GAS CALL SWAP1 DUP2 PUSH2 0x761 JUMPI JUMPDEST POP SWAP6 DUP1 SWAP8 SWAP9 SWAP3 PUSH2 0x728 SWAP5 SWAP3 PUSH32 0x2D28A5A2CA6843AC7811DCF16BC72DCEA83863FBB74F472BECC28DC57A76827A SWAP9 ISZERO PUSH1 0x0 EQ PUSH2 0x734 JUMPI POP PUSH32 0x2BA5ADE46917C616C9AF26A3CE5E85C0DC38796C39D42E9A9B2D930E02C49248 SWAP1 PUSH2 0x6E6 PUSH2 0x21FE JUMP JUMPDEST SWAP4 JUMPDEST PUSH2 0x6F9 PUSH1 0x40 MLOAD SWAP3 DUP4 SWAP3 DUP11 DUP13 DUP6 PUSH2 0x22EF JUMP JUMPDEST SUB SWAP1 LOG2 PUSH2 0x713 PUSH1 0x40 MLOAD SWAP6 DUP7 SWAP6 PUSH1 0x60 DUP8 MSTORE PUSH1 0x60 DUP8 ADD SWAP2 PUSH2 0x22CE JUMP JUMPDEST SWAP2 ISZERO ISZERO PUSH1 0x20 DUP6 ADD MSTORE DUP4 DUP3 SUB PUSH1 0x40 DUP6 ADD MSTORE PUSH2 0x2060 JUMP JUMPDEST SUB SWAP1 LOG2 DUP1 CODESIZE DUP1 DUP1 DUP1 DUP5 DUP1 RETURN JUMPDEST SWAP3 SWAP4 POP PUSH32 0x2BA5ADE46917C616C9AF26A3CE5E85C0DC38796C39D42E9A9B2D930E02C49248 SWAP1 PUSH1 0x1 SWAP5 PUSH2 0x6E8 JUMP JUMPDEST SWAP3 PUSH2 0x728 SWAP5 SWAP3 DUP10 PUSH2 0x797 DUP11 SWAP12 PUSH32 0x2D28A5A2CA6843AC7811DCF16BC72DCEA83863FBB74F472BECC28DC57A76827A SWAP12 SWAP6 SWAP14 SWAP8 PUSH2 0x1F9B JUMP JUMPDEST SWAP10 POP SWAP3 SWAP5 POP SWAP3 SWAP9 SWAP1 SWAP7 PUSH2 0x686 JUMP JUMPDEST DUP8 DUP1 REVERT JUMPDEST PUSH4 0x4E487B71 PUSH1 0xE0 SHL DUP12 MSTORE PUSH1 0x41 PUSH1 0x4 MSTORE PUSH1 0x24 DUP12 REVERT JUMPDEST PUSH4 0x4E487B71 PUSH1 0xE0 SHL DUP15 MSTORE PUSH1 0x21 PUSH1 0x4 MSTORE PUSH1 0x24 DUP15 REVERT JUMPDEST PUSH4 0x1E9ACF17 PUSH1 0xE3 SHL DUP15 MSTORE PUSH1 0x4 DUP15 REVERT JUMPDEST PUSH4 0xF21C9F07 PUSH1 0xE0 SHL DUP15 MSTORE PUSH1 0x4 DUP15 REVERT JUMPDEST PUSH4 0x95B60D61 PUSH1 0xE0 SHL DUP15 MSTORE PUSH1 0x4 DUP15 REVERT JUMPDEST PUSH4 0x561CE9BB PUSH1 0xE0 SHL DUP15 MSTORE PUSH1 0x4 DUP15 REVERT JUMPDEST PUSH4 0x65E52D51 PUSH1 0xE1 SHL DUP15 MSTORE PUSH1 0x4 DUP15 REVERT JUMPDEST PUSH4 0xD92E233D PUSH1 0xE0 SHL DUP15 MSTORE PUSH1 0x4 DUP15 REVERT JUMPDEST PUSH4 0x13D0FF59 PUSH1 0xE3 SHL DUP14 MSTORE PUSH1 0x4 DUP14 REVERT JUMPDEST PUSH4 0x1F0853C1 PUSH1 0xE2 SHL DUP14 MSTORE PUSH1 0x4 DUP14 REVERT JUMPDEST DUP12 DUP1 REVERT JUMPDEST DUP10 DUP1 REVERT JUMPDEST DUP9 DUP1 REVERT JUMPDEST DUP5 DUP1 REVERT JUMPDEST DUP3 DUP1 REVERT JUMPDEST POP DUP1 PUSH1 0x3 NOT CALLDATASIZE ADD SLT PUSH2 0x1CF JUMPI PUSH2 0x871 PUSH2 0x2319 JUMP JUMPDEST CALLVALUE ISZERO PUSH2 0x8C3 JUMPI CALLER DUP2 MSTORE PUSH1 0x4 PUSH1 0x20 MSTORE PUSH1 0x40 DUP2 KECCAK256 PUSH2 0x88E CALLVALUE DUP3 SLOAD PUSH2 0x222E JUMP JUMPDEST SWAP1 SSTORE PUSH1 0x40 MLOAD CALLVALUE DUP2 MSTORE PUSH32 0xE1FFFCC4923D04B559F4D29A8BFC6CDA04EB5B0D3C460751C2402C5C5CC9109C PUSH1 0x20 CALLER SWAP3 LOG2 PUSH1 0x1 DUP2 SSTORE DUP1 RETURN JUMPDEST PUSH4 0x65E52D51 PUSH1 0xE1 SHL DUP2 MSTORE PUSH1 0x4 SWAP1 REVERT JUMPDEST POP CALLVALUE PUSH2 0x1CF JUMPI DUP1 PUSH1 0x3 NOT CALLDATASIZE ADD SLT PUSH2 0x1CF JUMPI PUSH1 0x20 PUSH1 0xFF PUSH1 0x9 SLOAD PUSH1 0xA8 SHR AND PUSH1 0x40 MLOAD SWAP1 ISZERO ISZERO DUP2 MSTORE RETURN JUMPDEST POP CALLVALUE PUSH2 0x1CF JUMPI PUSH1 0x20 CALLDATASIZE PUSH1 0x3 NOT ADD SLT PUSH2 0x1CF JUMPI PUSH1 0xFF PUSH1 0x40 PUSH1 0x20 SWAP3 PUSH4 0xFFFFFFFF PUSH2 0x91E PUSH2 0x1E16 JUMP JUMPDEST AND DUP2 MSTORE PUSH1 0x7 DUP5 MSTORE KECCAK256 SLOAD AND PUSH1 0x40 MLOAD SWAP1 ISZERO ISZERO DUP2 MSTORE RETURN JUMPDEST POP PUSH1 0x40 CALLDATASIZE PUSH1 0x3 NOT ADD SLT PUSH2 0x1CF JUMPI PUSH2 0x947 PUSH2 0x1E16 JUMP JUMPDEST PUSH1 0x3 SLOAD PUSH1 0x24 CALLDATALOAD SWAP2 SWAP1 PUSH1 0x1 PUSH1 0x1 PUSH1 0xA0 SHL SUB AND CALLER SUB PUSH2 0xA7F JUMPI DUP2 DUP4 MSTORE PUSH1 0x5 PUSH1 0x20 MSTORE PUSH1 0x40 DUP4 KECCAK256 SWAP1 PUSH1 0x3 DUP3 ADD SWAP1 PUSH1 0xFF DUP3 SLOAD PUSH1 0x40 SHR AND PUSH1 0x3 DUP2 LT ISZERO PUSH2 0xA6B JUMPI PUSH1 0x2 EQ PUSH2 0xA26 JUMPI PUSH4 0xFFFFFFFF DUP1 PUSH1 0x2 DUP6 ADD SLOAD PUSH1 0xA0 SHR AND SWAP2 AND SUB PUSH2 0xA17 JUMPI DUP1 SLOAD PUSH1 0xFF PUSH1 0x40 SHL NOT AND PUSH1 0x1 PUSH1 0x41 SHL OR SWAP1 SSTORE CALLVALUE PUSH2 0x9ED JUMPI JUMPDEST PUSH1 0x1 DUP1 PUSH1 0xA0 SHL SUB SWAP1 SLOAD AND SWAP1 PUSH32 0x385FAAC62E36E04554CD60315FC6716EAF7FC15BBA95B3790F4B351DFA10BAD8 PUSH1 0x20 PUSH1 0x40 MLOAD CALLVALUE DUP2 MSTORE LOG3 DUP1 RETURN JUMPDEST DUP1 SLOAD PUSH1 0x1 PUSH1 0x1 PUSH1 0xA0 SHL SUB AND DUP4 MSTORE PUSH1 0x4 PUSH1 0x20 MSTORE PUSH1 0x40 DUP4 KECCAK256 DUP1 SLOAD PUSH2 0xA10 SWAP1 CALLVALUE SWAP1 PUSH2 0x222E JUMP JUMPDEST SWAP1 SSTORE PUSH2 0x9B5 JUMP JUMPDEST PUSH4 0xA179F8C9 PUSH1 0xE0 SHL DUP5 MSTORE PUSH1 0x4 DUP5 REVERT JUMPDEST PUSH1 0x40 MLOAD PUSH3 0x461BCD PUSH1 0xE5 SHL DUP2 MSTORE PUSH1 0x20 PUSH1 0x4 DUP3 ADD MSTORE PUSH1 0x1B PUSH1 0x24 DUP3 ADD MSTORE PUSH32 0x506F736974696F6E20616C7265616479206C6971756964617465640000000000 PUSH1 0x44 DUP3 ADD MSTORE PUSH1 0x64 SWAP1 REVERT JUMPDEST PUSH4 0x4E487B71 PUSH1 0xE0 SHL DUP7 MSTORE PUSH1 0x21 PUSH1 0x4 MSTORE PUSH1 0x24 DUP7 REVERT JUMPDEST PUSH4 0x3CA9F4D PUSH1 0xE1 SHL DUP4 MSTORE PUSH1 0x4 DUP4 REVERT JUMPDEST POP CALLVALUE PUSH2 0x1CF JUMPI DUP1 PUSH1 0x3 NOT CALLDATASIZE ADD SLT PUSH2 0x1CF JUMPI PUSH1 0x3 SLOAD PUSH1 0x40 MLOAD PUSH1 0x1 PUSH1 0x1 PUSH1 0xA0 SHL SUB SWAP1 SWAP2 AND DUP2 MSTORE PUSH1 0x20 SWAP1 RETURN JUMPDEST POP CALLVALUE PUSH2 0x1CF JUMPI PUSH1 0x80 CALLDATASIZE PUSH1 0x3 NOT ADD SLT PUSH2 0x1CF JUMPI PUSH2 0xAD1 PUSH2 0x1E16 JUMP JUMPDEST SWAP1 PUSH1 0x24 CALLDATALOAD PUSH1 0x1 PUSH1 0x1 PUSH1 0x40 SHL SUB DUP2 GT PUSH2 0xECD JUMPI PUSH2 0xAF1 SWAP1 CALLDATASIZE SWAP1 PUSH1 0x4 ADD PUSH2 0x20CF JUMP JUMPDEST SWAP3 SWAP1 PUSH1 0x44 CALLDATALOAD PUSH1 0x1 PUSH1 0x1 PUSH1 0x40 SHL SUB DUP2 GT PUSH2 0xEC9 JUMPI PUSH2 0xB12 SWAP1 CALLDATASIZE SWAP1 PUSH1 0x4 ADD PUSH2 0x20CF JUMP JUMPDEST SWAP5 SWAP1 SWAP3 PUSH2 0xB1D PUSH2 0x1E44 JUMP JUMPDEST PUSH1 0x1 SLOAD SWAP1 SWAP2 SWAP1 PUSH1 0x1 PUSH1 0x1 PUSH1 0xA0 SHL SUB AND CALLER SUB PUSH2 0xEBA JUMPI PUSH4 0xFFFFFFFF AND SWAP4 DUP5 DUP7 MSTORE PUSH1 0x7 PUSH1 0x20 MSTORE PUSH1 0xFF PUSH1 0x40 DUP8 KECCAK256 SLOAD AND PUSH2 0xE75 JUMPI DUP3 ISZERO PUSH2 0xE30 JUMPI PUSH2 0xB81 PUSH1 0x40 MLOAD SWAP2 PUSH2 0xB63 DUP4 PUSH2 0x1F80 JUMP JUMPDEST PUSH1 0x1 DUP4 MSTORE PUSH2 0xB72 CALLDATASIZE DUP7 DUP9 PUSH2 0x2252 JUMP JUMPDEST SWAP9 PUSH1 0x20 DUP5 ADD SWAP10 DUP11 MSTORE CALLDATASIZE SWAP2 PUSH2 0x2252 JUMP JUMPDEST SWAP7 PUSH1 0x40 DUP3 ADD SWAP8 DUP9 MSTORE PUSH1 0x60 DUP3 ADD SWAP1 PUSH1 0x1 PUSH1 0x1 PUSH1 0x40 SHL SUB TIMESTAMP AND DUP3 MSTORE DUP7 DUP9 MSTORE PUSH1 0x7 PUSH1 0x20 MSTORE PUSH1 0x40 DUP9 KECCAK256 SWAP3 MLOAD ISZERO ISZERO PUSH1 0xFF DUP1 NOT DUP6 SLOAD AND SWAP2 AND OR DUP4 SSTORE PUSH1 0x1 DUP4 ADD SWAP1 MLOAD DUP1 MLOAD SWAP1 PUSH1 0x1 PUSH1 0x1 PUSH1 0x40 SHL SUB DUP3 GT PUSH2 0xE1C JUMPI PUSH2 0xBE1 DUP3 PUSH2 0xBDB DUP6 SLOAD PUSH2 0x1F14 JUMP JUMPDEST DUP6 PUSH2 0x2289 JUMP JUMPDEST PUSH1 0x20 SWAP1 PUSH1 0x1F DUP4 GT PUSH1 0x1 EQ PUSH2 0xDB9 JUMPI PUSH2 0xC11 SWAP3 SWAP2 DUP12 SWAP2 DUP4 PUSH2 0xD09 JUMPI JUMPDEST POP POP DUP2 PUSH1 0x1 SHL SWAP2 PUSH1 0x0 NOT SWAP1 PUSH1 0x3 SHL SHR NOT AND OR SWAP1 JUMP JUMPDEST SWAP1 SSTORE JUMPDEST PUSH1 0x2 DUP3 ADD SWAP8 MLOAD SWAP8 DUP9 MLOAD PUSH1 0x1 PUSH1 0x1 PUSH1 0x40 SHL SUB DUP2 GT PUSH2 0xDA5 JUMPI PUSH2 0xC3F DUP2 PUSH2 0xC39 DUP5 SLOAD PUSH2 0x1F14 JUMP JUMPDEST DUP5 PUSH2 0x2289 JUMP JUMPDEST PUSH1 0x20 PUSH1 0x1F DUP3 GT PUSH1 0x1 EQ PUSH2 0xD14 JUMPI SWAP3 PUSH1 0x3 SWAP3 PUSH2 0xC9F DUP4 PUSH1 0x1 PUSH1 0x1 PUSH1 0x40 SHL SUB SWAP7 SWAP5 DUP8 SWAP6 DUP15 SWAP16 PUSH32 0xED959E830F99A1C8CC3BD5F59D1530C3A0A7E009EE2A0589F702741DDB83EC70 SWAP15 SWAP16 SWAP3 PUSH2 0xD09 JUMPI POP POP DUP2 PUSH1 0x1 SHL SWAP2 PUSH1 0x0 NOT SWAP1 PUSH1 0x3 SHL SHR NOT AND OR SWAP1 JUMP JUMPDEST SWAP1 SSTORE JUMPDEST MLOAD AND SWAP3 ADD SWAP2 AND PUSH1 0x1 PUSH1 0x1 PUSH1 0x40 SHL SUB NOT DUP3 SLOAD AND OR SWAP1 SSTORE PUSH1 0x1 DUP1 PUSH1 0xA0 SHL SUB AND DUP1 PUSH2 0xCE8 JUMPI JUMPDEST PUSH2 0xCDC PUSH1 0x40 MLOAD SWAP4 DUP5 SWAP4 PUSH1 0x40 DUP6 MSTORE PUSH1 0x40 DUP6 ADD SWAP2 PUSH2 0x22CE JUMP JUMPDEST SWAP1 PUSH1 0x20 DUP4 ADD MSTORE SUB SWAP1 LOG2 DUP1 RETURN JUMPDEST DUP5 DUP7 MSTORE PUSH1 0x8 PUSH1 0x20 MSTORE PUSH1 0x40 DUP7 KECCAK256 DUP1 SLOAD PUSH1 0x1 PUSH1 0x1 PUSH1 0xA0 SHL SUB NOT AND DUP3 OR SWAP1 SSTORE PUSH2 0xCC5 JUMP JUMPDEST ADD MLOAD SWAP1 POP CODESIZE DUP1 PUSH2 0xBFC JUMP JUMPDEST DUP3 DUP11 MSTORE DUP1 DUP11 KECCAK256 SWAP11 PUSH1 0x1F NOT DUP4 AND DUP12 JUMPDEST DUP2 DUP2 LT PUSH2 0xD8D JUMPI POP DUP4 PUSH32 0xED959E830F99A1C8CC3BD5F59D1530C3A0A7E009EE2A0589F702741DDB83EC70 SWAP12 SWAP13 SWAP14 PUSH1 0x1 PUSH1 0x1 PUSH1 0x40 SHL SUB SWAP8 SWAP5 PUSH1 0x3 SWAP8 SWAP5 DUP10 SWAP8 PUSH1 0x1 SWAP6 LT PUSH2 0xD75 JUMPI JUMPDEST POP POP POP DUP2 SHL ADD SWAP1 SSTORE PUSH2 0xCA2 JUMP JUMPDEST ADD MLOAD PUSH1 0x0 NOT DUP4 DUP10 SHL PUSH1 0xF8 AND SHR NOT AND SWAP1 SSTORE CODESIZE DUP1 DUP1 PUSH2 0xD68 JUMP JUMPDEST DUP4 DUP4 ADD MLOAD DUP15 SSTORE PUSH1 0x1 SWAP1 SWAP14 ADD SWAP13 PUSH1 0x20 SWAP4 DUP5 ADD SWAP4 ADD PUSH2 0xD22 JUMP JUMPDEST PUSH4 0x4E487B71 PUSH1 0xE0 SHL DUP10 MSTORE PUSH1 0x41 PUSH1 0x4 MSTORE PUSH1 0x24 DUP10 REVERT JUMPDEST DUP4 DUP12 MSTORE DUP2 DUP12 KECCAK256 SWAP2 SWAP1 PUSH1 0x1F NOT DUP5 AND DUP13 JUMPDEST DUP2 DUP2 LT PUSH2 0xE04 JUMPI POP SWAP1 DUP5 PUSH1 0x1 SWAP6 SWAP5 SWAP4 SWAP3 LT PUSH2 0xDEB JUMPI JUMPDEST POP POP POP DUP2 SHL ADD SWAP1 SSTORE PUSH2 0xC14 JUMP JUMPDEST ADD MLOAD PUSH1 0x0 NOT PUSH1 0xF8 DUP5 PUSH1 0x3 SHL AND SHR NOT AND SWAP1 SSTORE CODESIZE DUP1 DUP1 PUSH2 0xDDE JUMP JUMPDEST SWAP3 SWAP4 PUSH1 0x20 PUSH1 0x1 DUP2 SWAP3 DUP8 DUP7 ADD MLOAD DUP2 SSTORE ADD SWAP6 ADD SWAP4 ADD PUSH2 0xDC8 JUMP JUMPDEST PUSH4 0x4E487B71 PUSH1 0xE0 SHL DUP11 MSTORE PUSH1 0x41 PUSH1 0x4 MSTORE PUSH1 0x24 DUP11 REVERT JUMPDEST PUSH1 0x40 MLOAD PUSH3 0x461BCD PUSH1 0xE5 SHL DUP2 MSTORE PUSH1 0x20 PUSH1 0x4 DUP3 ADD MSTORE PUSH1 0x17 PUSH1 0x24 DUP3 ADD MSTORE PUSH32 0x496E76616C69642058434D2064657374696E6174696F6E000000000000000000 PUSH1 0x44 DUP3 ADD MSTORE PUSH1 0x64 SWAP1 REVERT JUMPDEST PUSH1 0x40 MLOAD PUSH3 0x461BCD PUSH1 0xE5 SHL DUP2 MSTORE PUSH1 0x20 PUSH1 0x4 DUP3 ADD MSTORE PUSH1 0x17 PUSH1 0x24 DUP3 ADD MSTORE PUSH32 0x436861696E20616C726561647920737570706F72746564000000000000000000 PUSH1 0x44 DUP3 ADD MSTORE PUSH1 0x64 SWAP1 REVERT JUMPDEST PUSH4 0x7BFA4B9F PUSH1 0xE0 SHL DUP7 MSTORE PUSH1 0x4 DUP7 REVERT JUMPDEST DUP4 DUP1 REVERT JUMPDEST POP DUP1 REVERT JUMPDEST POP CALLVALUE PUSH2 0x1CF JUMPI PUSH1 0x20 CALLDATASIZE PUSH1 0x3 NOT ADD SLT PUSH2 0x1CF JUMPI PUSH2 0xEEB PUSH2 0x1E2E JUMP JUMPDEST PUSH1 0x1 SLOAD PUSH1 0x1 PUSH1 0x1 PUSH1 0xA0 SHL SUB AND CALLER SUB PUSH2 0x232 JUMPI PUSH1 0x1 PUSH1 0x1 PUSH1 0xA0 SHL SUB AND DUP1 ISZERO PUSH2 0x223 JUMPI PUSH1 0x1 PUSH1 0x1 PUSH1 0x60 SHL SUB PUSH1 0xA0 SHL PUSH1 0x2 SLOAD AND OR PUSH1 0x2 SSTORE DUP1 RETURN JUMPDEST POP CALLVALUE PUSH2 0x1CF JUMPI PUSH1 0x20 CALLDATASIZE PUSH1 0x3 NOT ADD SLT PUSH2 0x1CF JUMPI PUSH1 0x40 SWAP1 PUSH4 0xFFFFFFFF PUSH2 0xF44 PUSH2 0x1E16 JUMP JUMPDEST DUP3 PUSH1 0x60 DUP6 MLOAD PUSH2 0xF52 DUP2 PUSH2 0x1F80 JUMP JUMPDEST DUP3 DUP2 MSTORE DUP2 PUSH1 0x20 DUP3 ADD MSTORE DUP2 DUP8 DUP3 ADD MSTORE ADD MSTORE AND DUP2 MSTORE PUSH1 0x7 PUSH1 0x20 MSTORE KECCAK256 PUSH1 0x40 MLOAD PUSH2 0xF77 DUP2 PUSH2 0x1F80 JUMP JUMPDEST PUSH1 0xFF DUP3 SLOAD AND ISZERO ISZERO DUP2 MSTORE PUSH2 0xF8C PUSH1 0x1 DUP4 ADD PUSH2 0x1FBC JUMP JUMPDEST SWAP2 PUSH1 0x20 DUP3 ADD SWAP3 DUP4 MSTORE PUSH1 0x1 PUSH1 0x1 PUSH1 0x40 SHL SUB PUSH2 0xFFB DUP2 PUSH1 0x3 PUSH2 0xFAE PUSH1 0x2 DUP7 ADD PUSH2 0x1FBC JUMP JUMPDEST SWAP5 PUSH1 0x40 DUP8 ADD SWAP6 DUP7 MSTORE ADD SLOAD AND SWAP3 PUSH1 0x60 DUP6 ADD SWAP4 DUP5 MSTORE PUSH2 0xFE8 PUSH1 0x40 MLOAD SWAP7 DUP8 SWAP7 PUSH1 0x20 DUP9 MSTORE MLOAD ISZERO ISZERO PUSH1 0x20 DUP9 ADD MSTORE MLOAD PUSH1 0x80 PUSH1 0x40 DUP9 ADD MSTORE PUSH1 0xA0 DUP8 ADD SWAP1 PUSH2 0x2060 JUMP JUMPDEST SWAP1 MLOAD DUP6 DUP3 SUB PUSH1 0x1F NOT ADD PUSH1 0x60 DUP8 ADD MSTORE PUSH2 0x2060 JUMP JUMPDEST SWAP2 MLOAD AND PUSH1 0x80 DUP4 ADD MSTORE SUB SWAP1 RETURN JUMPDEST POP CALLVALUE PUSH2 0x1CF JUMPI DUP1 PUSH1 0x3 NOT CALLDATASIZE ADD SLT PUSH2 0x1CF JUMPI PUSH1 0x20 PUSH1 0xFF PUSH1 0x9 SLOAD PUSH1 0xA0 SHR AND PUSH1 0x40 MLOAD SWAP1 ISZERO ISZERO DUP2 MSTORE RETURN JUMPDEST POP CALLVALUE PUSH2 0x1CF JUMPI DUP1 PUSH1 0x3 NOT CALLDATASIZE ADD SLT PUSH2 0x1CF JUMPI PUSH1 0x1 SLOAD PUSH1 0x1 PUSH1 0x1 PUSH1 0xA0 SHL SUB AND CALLER SUB PUSH2 0x10A7 JUMPI PUSH1 0x9 SLOAD PUSH1 0xFF DUP2 PUSH1 0xA0 SHR AND PUSH2 0x1071 JUMPI PUSH1 0xFF PUSH1 0xA0 SHL NOT AND PUSH1 0x1 PUSH1 0xA0 SHL OR PUSH1 0x9 SSTORE DUP1 RETURN JUMPDEST PUSH1 0x40 MLOAD PUSH3 0x461BCD PUSH1 0xE5 SHL DUP2 MSTORE PUSH1 0x20 PUSH1 0x4 DUP3 ADD MSTORE PUSH1 0xE PUSH1 0x24 DUP3 ADD MSTORE PUSH14 0x30B63932B0B23C90333937BD32B7 PUSH1 0x91 SHL PUSH1 0x44 DUP3 ADD MSTORE PUSH1 0x64 SWAP1 REVERT JUMPDEST PUSH4 0x7BFA4B9F PUSH1 0xE0 SHL DUP2 MSTORE PUSH1 0x4 SWAP1 REVERT JUMPDEST POP CALLVALUE PUSH2 0x1CF JUMPI DUP1 PUSH1 0x3 NOT CALLDATASIZE ADD SLT PUSH2 0x1CF JUMPI PUSH1 0x1 SLOAD PUSH1 0x1 PUSH1 0x1 PUSH1 0xA0 SHL SUB AND CALLER SUB PUSH2 0x10A7 JUMPI PUSH1 0x3 DUP1 SLOAD PUSH1 0xFF PUSH1 0xA0 SHL NOT AND PUSH1 0x1 PUSH1 0xA0 SHL OR SWAP1 SSTORE DUP1 RETURN JUMPDEST POP CALLVALUE PUSH2 0x1CF JUMPI PUSH1 0x20 CALLDATASIZE PUSH1 0x3 NOT ADD SLT PUSH2 0x1CF JUMPI PUSH2 0x1109 PUSH2 0x1E2E JUMP JUMPDEST PUSH1 0x1 SLOAD SWAP1 PUSH1 0x1 PUSH1 0x1 PUSH1 0xA0 SHL SUB DUP3 AND CALLER SUB PUSH2 0x114D JUMPI PUSH1 0x1 PUSH1 0x1 PUSH1 0xA0 SHL SUB AND SWAP1 DUP2 ISZERO PUSH2 0x113E JUMPI PUSH1 0x1 PUSH1 0x1 PUSH1 0xA0 SHL SUB NOT AND OR PUSH1 0x1 SSTORE DUP1 RETURN JUMPDEST PUSH4 0xD92E233D PUSH1 0xE0 SHL DUP4 MSTORE PUSH1 0x4 DUP4 REVERT JUMPDEST PUSH4 0x7BFA4B9F PUSH1 0xE0 SHL DUP4 MSTORE PUSH1 0x4 DUP4 REVERT JUMPDEST POP CALLVALUE PUSH2 0x1CF JUMPI PUSH1 0x40 CALLDATASIZE PUSH1 0x3 NOT ADD SLT PUSH2 0x1CF JUMPI PUSH2 0x1176 PUSH2 0x1E2E JUMP JUMPDEST PUSH1 0x1 PUSH1 0x1 PUSH1 0xA0 SHL SUB AND DUP2 MSTORE PUSH1 0x6 PUSH1 0x20 MSTORE PUSH1 0x40 DUP2 KECCAK256 DUP1 SLOAD PUSH1 0x24 CALLDATALOAD SWAP3 SWAP1 DUP4 LT ISZERO PUSH2 0x1CF JUMPI PUSH1 0x20 PUSH2 0x11A4 DUP5 DUP5 PUSH2 0x20A1 JUMP JUMPDEST SWAP1 SLOAD SWAP1 PUSH1 0x3 SHL SHR PUSH1 0x40 MLOAD SWAP1 DUP2 MSTORE RETURN JUMPDEST POP CALLVALUE PUSH2 0x1CF JUMPI PUSH1 0x20 CALLDATASIZE PUSH1 0x3 NOT ADD SLT PUSH2 0x1CF JUMPI PUSH2 0x11CD PUSH2 0x1E2E JUMP JUMPDEST PUSH1 0x1 SLOAD PUSH1 0x1 PUSH1 0x1 PUSH1 0xA0 SHL SUB AND CALLER SUB PUSH2 0x232 JUMPI PUSH1 0x9 SLOAD SWAP1 PUSH1 0xFF DUP3 PUSH1 0xA0 SHR AND PUSH2 0x1230 JUMPI PUSH1 0x1 PUSH1 0x1 PUSH1 0xA0 SHL SUB AND PUSH1 0x1 PUSH1 0x1 PUSH1 0xA0 SHL SUB NOT SWAP2 SWAP1 SWAP2 AND DUP2 OR PUSH1 0x9 SSTORE PUSH32 0x92107FCD833D21C9342D998CEB020AC5D7AAA95136A24B3F7E7A17522B26D0E4 DUP3 DUP1 LOG2 DUP1 RETURN JUMPDEST PUSH1 0x40 MLOAD PUSH3 0x461BCD PUSH1 0xE5 SHL DUP2 MSTORE PUSH1 0x20 PUSH1 0x4 DUP3 ADD MSTORE PUSH1 0x15 PUSH1 0x24 DUP3 ADD MSTORE PUSH21 0x3C31B690383932B1B7B6B834B63290333937BD32B7 PUSH1 0x59 SHL PUSH1 0x44 DUP3 ADD MSTORE PUSH1 0x64 SWAP1 REVERT JUMPDEST POP CALLVALUE PUSH2 0x1CF JUMPI DUP1 PUSH1 0x3 NOT CALLDATASIZE ADD SLT PUSH2 0x1CF JUMPI PUSH1 0x20 PUSH1 0xFF PUSH1 0x3 SLOAD PUSH1 0xA0 SHR AND PUSH1 0x40 MLOAD SWAP1 ISZERO ISZERO DUP2 MSTORE RETURN JUMPDEST POP CALLVALUE PUSH2 0x1CF JUMPI DUP1 PUSH1 0x3 NOT CALLDATASIZE ADD SLT PUSH2 0x1CF JUMPI PUSH1 0x2 SLOAD PUSH1 0x40 MLOAD PUSH1 0x1 PUSH1 0x1 PUSH1 0xA0 SHL SUB SWAP1 SWAP2 AND DUP2 MSTORE PUSH1 0x20 SWAP1 RETURN JUMPDEST POP CALLVALUE PUSH2 0x1CF JUMPI PUSH1 0x20 CALLDATASIZE PUSH1 0x3 NOT ADD SLT PUSH2 0x1CF JUMPI PUSH2 0x12D6 PUSH2 0x1E16 JUMP JUMPDEST PUSH1 0x1 SLOAD PUSH1 0x1 PUSH1 0x1 PUSH1 0xA0 SHL SUB AND CALLER SUB PUSH2 0x232 JUMPI PUSH4 0xFFFFFFFF AND DUP1 DUP3 MSTORE PUSH1 0x7 PUSH1 0x20 MSTORE PUSH2 0x1306 PUSH1 0xFF PUSH1 0x40 DUP5 KECCAK256 SLOAD AND PUSH2 0x20FC JUMP JUMPDEST DUP1 DUP3 MSTORE PUSH1 0x7 PUSH1 0x20 MSTORE DUP2 PUSH1 0x3 PUSH1 0x40 DUP3 KECCAK256 DUP3 DUP2 SSTORE DUP3 PUSH1 0x1 DUP3 ADD PUSH2 0x1327 DUP2 SLOAD PUSH2 0x1F14 JUMP JUMPDEST DUP1 PUSH2 0x13CB JUMPI JUMPDEST POP POP PUSH1 0x2 DUP3 ADD PUSH2 0x133D DUP2 SLOAD PUSH2 0x1F14 JUMP JUMPDEST DUP1 PUSH2 0x1389 JUMPI JUMPDEST POP POP POP ADD SSTORE DUP1 DUP3 MSTORE PUSH1 0x8 PUSH1 0x20 MSTORE PUSH1 0x40 DUP3 KECCAK256 DUP1 SLOAD PUSH1 0x1 PUSH1 0x1 PUSH1 0xA0 SHL SUB NOT AND SWAP1 SSTORE PUSH32 0x79DF5D328757CA456E42D3DC087C02EEDD4CF61D984A6AA526CFAC31F1542DCD DUP3 DUP1 LOG2 DUP1 RETURN JUMPDEST PUSH1 0x1F DUP2 GT PUSH1 0x1 EQ PUSH2 0x139F JUMPI POP SSTORE JUMPDEST DUP3 CODESIZE DUP1 PUSH2 0x1343 JUMP JUMPDEST DUP2 DUP4 MSTORE PUSH1 0x20 DUP4 KECCAK256 PUSH2 0x13BB SWAP2 PUSH1 0x1F ADD PUSH1 0x5 SHR DUP2 ADD SWAP1 PUSH1 0x1 ADD PUSH2 0x223B JUMP JUMPDEST DUP1 DUP3 MSTORE DUP2 PUSH1 0x20 DUP2 KECCAK256 SWAP2 SSTORE SSTORE PUSH2 0x1397 JUMP JUMPDEST PUSH1 0x1F DUP2 GT PUSH1 0x1 EQ PUSH2 0x13E1 JUMPI POP SSTORE JUMPDEST DUP3 CODESIZE DUP1 PUSH2 0x132D JUMP JUMPDEST DUP2 DUP4 MSTORE PUSH1 0x20 DUP4 KECCAK256 PUSH2 0x13FD SWAP2 PUSH1 0x1F ADD PUSH1 0x5 SHR DUP2 ADD SWAP1 PUSH1 0x1 ADD PUSH2 0x223B JUMP JUMPDEST DUP1 DUP3 MSTORE DUP2 PUSH1 0x20 DUP2 KECCAK256 SWAP2 SSTORE SSTORE PUSH2 0x13D9 JUMP JUMPDEST POP CALLVALUE PUSH2 0x1CF JUMPI PUSH1 0x20 CALLDATASIZE PUSH1 0x3 NOT ADD SLT PUSH2 0x1CF JUMPI PUSH1 0x40 PUSH2 0x140 SWAP2 PUSH1 0x4 CALLDATALOAD DUP2 MSTORE PUSH1 0x5 PUSH1 0x20 MSTORE KECCAK256 PUSH1 0x1 DUP1 PUSH1 0xA0 SHL SUB DUP2 SLOAD AND SWAP1 PUSH1 0x1 DUP1 PUSH1 0xA0 SHL SUB PUSH1 0x1 DUP3 ADD SLOAD AND SWAP1 PUSH2 0x14C0 PUSH1 0x2 DUP3 ADD SLOAD PUSH1 0x3 DUP4 ADD SLOAD SWAP1 PUSH1 0x5 PUSH1 0x4 DUP6 ADD SLOAD SWAP5 ADD SLOAD SWAP5 PUSH1 0x40 MLOAD SWAP7 DUP8 MSTORE PUSH1 0x20 DUP8 ADD MSTORE PUSH1 0x1 DUP1 PUSH1 0xA0 SHL SUB DUP2 AND PUSH1 0x40 DUP8 ADD MSTORE PUSH4 0xFFFFFFFF DUP2 PUSH1 0xA0 SHR AND PUSH1 0x60 DUP8 ADD MSTORE DUP1 PUSH1 0xC0 SHR PUSH1 0x2 SIGNEXTEND PUSH1 0x80 DUP8 ADD MSTORE PUSH1 0xD8 SHR PUSH1 0x2 SIGNEXTEND PUSH1 0xA0 DUP7 ADD MSTORE PUSH1 0x1 PUSH1 0x1 PUSH1 0x40 SHL SUB DUP2 AND PUSH1 0xC0 DUP7 ADD MSTORE PUSH1 0xFF PUSH1 0xE0 DUP7 ADD SWAP2 PUSH1 0x40 SHR AND PUSH2 0x1E5A JUMP JUMPDEST PUSH2 0x100 DUP4 ADD MSTORE PUSH2 0x120 DUP3 ADD MSTORE RETURN JUMPDEST POP CALLVALUE PUSH2 0x1CF JUMPI PUSH1 0x20 CALLDATASIZE PUSH1 0x3 NOT ADD SLT PUSH2 0x1CF JUMPI PUSH1 0x20 SWAP1 PUSH1 0x40 SWAP1 PUSH1 0x1 PUSH1 0x1 PUSH1 0xA0 SHL SUB PUSH2 0x14F6 PUSH2 0x1E2E JUMP JUMPDEST AND DUP2 MSTORE PUSH1 0x4 DUP4 MSTORE KECCAK256 SLOAD PUSH1 0x40 MLOAD SWAP1 DUP2 MSTORE RETURN JUMPDEST POP CALLVALUE PUSH2 0x1CF JUMPI PUSH1 0x40 CALLDATASIZE PUSH1 0x3 NOT ADD SLT PUSH2 0x1CF JUMPI PUSH1 0x2 SLOAD PUSH1 0x24 CALLDATALOAD SWAP1 PUSH1 0x4 CALLDATALOAD SWAP1 PUSH1 0x1 PUSH1 0x1 PUSH1 0xA0 SHL SUB AND CALLER SUB PUSH2 0x16A7 JUMPI PUSH2 0x153B PUSH2 0x2319 JUMP JUMPDEST DUP2 ISZERO PUSH2 0x1698 JUMPI DUP1 DUP4 MSTORE PUSH1 0x5 PUSH1 0x20 MSTORE PUSH1 0x40 DUP4 KECCAK256 SWAP2 PUSH1 0x3 DUP4 ADD PUSH1 0xFF DUP2 SLOAD PUSH1 0x40 SHR AND PUSH1 0x3 DUP2 LT ISZERO PUSH2 0xA6B JUMPI PUSH1 0x1 SUB PUSH2 0x165D JUMPI DUP2 SELFBALANCE LT PUSH2 0x1618 JUMPI DUP1 SLOAD PUSH1 0xFF PUSH1 0x40 SHL NOT AND PUSH1 0x1 PUSH1 0x41 SHL OR SWAP1 SSTORE DUP3 SLOAD PUSH1 0x1 PUSH1 0x1 PUSH1 0xA0 SHL SUB AND DUP5 MSTORE PUSH1 0x4 PUSH1 0x20 MSTORE PUSH1 0x40 DUP1 DUP6 KECCAK256 DUP1 SLOAD PUSH32 0xA8BC750A5AF603B81D1D73928261812951E56844201C36805845C3EA53E0657C SWAP4 SWAP2 SWAP1 PUSH2 0x15CA SWAP1 DUP4 SWAP1 PUSH2 0x222E JUMP JUMPDEST SWAP1 SSTORE PUSH1 0x4 PUSH1 0x1 DUP1 PUSH1 0xA0 SHL SUB DUP7 SLOAD AND SWAP6 DUP7 DUP7 PUSH32 0x385FAAC62E36E04554CD60315FC6716EAF7FC15BBA95B3790F4B351DFA10BAD8 PUSH1 0x20 DUP8 MLOAD DUP8 DUP2 MSTORE LOG3 ADD SLOAD DUP3 MLOAD SWAP2 DUP3 MSTORE PUSH1 0x20 DUP3 ADD MSTORE LOG3 PUSH1 0x1 DUP2 SSTORE DUP1 RETURN JUMPDEST PUSH1 0x40 MLOAD PUSH3 0x461BCD PUSH1 0xE5 SHL DUP2 MSTORE PUSH1 0x20 PUSH1 0x4 DUP3 ADD MSTORE PUSH1 0x1D PUSH1 0x24 DUP3 ADD MSTORE PUSH32 0x496E73756666696369656E7420636F6E74726163742062616C616E6365000000 PUSH1 0x44 DUP3 ADD MSTORE PUSH1 0x64 SWAP1 REVERT JUMPDEST PUSH1 0x40 MLOAD PUSH3 0x461BCD PUSH1 0xE5 SHL DUP2 MSTORE PUSH1 0x20 PUSH1 0x4 DUP3 ADD MSTORE PUSH1 0x13 PUSH1 0x24 DUP3 ADD MSTORE PUSH19 0x506F736974696F6E206E6F7420616374697665 PUSH1 0x68 SHL PUSH1 0x44 DUP3 ADD MSTORE PUSH1 0x64 SWAP1 REVERT JUMPDEST PUSH4 0x65E52D51 PUSH1 0xE1 SHL DUP4 MSTORE PUSH1 0x4 DUP4 REVERT JUMPDEST PUSH4 0x1F0853C1 PUSH1 0xE2 SHL DUP4 MSTORE PUSH1 0x4 DUP4 REVERT JUMPDEST POP CALLVALUE PUSH2 0x1CF JUMPI DUP1 PUSH1 0x3 NOT CALLDATASIZE ADD SLT PUSH2 0x1CF JUMPI PUSH1 0x1 SLOAD PUSH1 0x1 PUSH1 0x1 PUSH1 0xA0 SHL SUB AND CALLER SUB PUSH2 0x10A7 JUMPI PUSH1 0x3 DUP1 SLOAD PUSH1 0xFF PUSH1 0xA0 SHL NOT AND SWAP1 SSTORE DUP1 RETURN JUMPDEST POP CALLVALUE PUSH2 0x1CF JUMPI PUSH1 0x40 CALLDATASIZE PUSH1 0x3 NOT ADD SLT PUSH2 0x1CF JUMPI PUSH2 0x1703 PUSH2 0x1E2E JUMP JUMPDEST PUSH1 0x24 CALLDATALOAD DUP3 MSTORE PUSH1 0x5 PUSH1 0x20 MSTORE PUSH1 0x40 DUP3 KECCAK256 DUP1 SLOAD PUSH1 0x1 PUSH1 0x1 PUSH1 0xA0 SHL SUB SWAP3 DUP4 AND SWAP3 AND SWAP2 SWAP1 SWAP2 EQ SWAP1 DUP2 PUSH2 0x1738 JUMPI JUMPDEST PUSH1 0x20 DUP3 PUSH1 0x40 MLOAD SWAP1 ISZERO ISZERO DUP2 MSTORE RETURN JUMPDEST PUSH1 0xFF SWAP2 POP PUSH1 0x3 ADD SLOAD PUSH1 0x40 SHR AND SWAP1 PUSH1 0x3 DUP3 LT ISZERO PUSH2 0x175B JUMPI POP PUSH1 0x1 PUSH1 0x20 SWAP2 EQ CODESIZE PUSH2 0x172B JUMP JUMPDEST PUSH4 0x4E487B71 PUSH1 0xE0 SHL DUP2 MSTORE PUSH1 0x21 PUSH1 0x4 MSTORE PUSH1 0x24 SWAP1 REVERT JUMPDEST POP CALLVALUE PUSH2 0x1CF JUMPI PUSH1 0x20 CALLDATASIZE PUSH1 0x3 NOT ADD SLT PUSH2 0x1CF JUMPI PUSH1 0x4 CALLDATALOAD PUSH2 0x178C PUSH2 0x2319 JUMP JUMPDEST DUP1 ISZERO PUSH2 0x184D JUMPI CALLER DUP3 MSTORE PUSH1 0x4 PUSH1 0x20 MSTORE DUP1 PUSH1 0x40 DUP4 KECCAK256 SLOAD LT PUSH2 0x183E JUMPI CALLER DUP3 MSTORE PUSH1 0x4 PUSH1 0x20 MSTORE PUSH1 0x40 DUP3 KECCAK256 PUSH2 0x17BC DUP3 DUP3 SLOAD PUSH2 0x21C0 JUMP JUMPDEST SWAP1 SSTORE DUP2 DUP1 DUP1 DUP1 DUP5 CALLER GAS CALL PUSH2 0x17CE PUSH2 0x21FE JUMP JUMPDEST POP ISZERO PUSH2 0x1807 JUMPI PUSH1 0x40 MLOAD SWAP1 DUP2 MSTORE PUSH32 0x7FCF532C15F0A6DB0BD6D0E038BEA71D30D808C7D98CB3BF7268A95BF5081B65 PUSH1 0x20 CALLER SWAP3 LOG2 PUSH1 0x1 DUP2 SSTORE DUP1 RETURN JUMPDEST PUSH1 0x40 MLOAD PUSH3 0x461BCD PUSH1 0xE5 SHL DUP2 MSTORE PUSH1 0x20 PUSH1 0x4 DUP3 ADD MSTORE PUSH1 0xF PUSH1 0x24 DUP3 ADD MSTORE PUSH15 0x1514905394D1915497D19052531151 PUSH1 0x8A SHL PUSH1 0x44 DUP3 ADD MSTORE PUSH1 0x64 SWAP1 REVERT JUMPDEST PUSH4 0x1E9ACF17 PUSH1 0xE3 SHL DUP3 MSTORE PUSH1 0x4 DUP3 REVERT JUMPDEST PUSH4 0x65E52D51 PUSH1 0xE1 SHL DUP3 MSTORE PUSH1 0x4 DUP3 REVERT JUMPDEST POP CALLVALUE PUSH2 0x1CF JUMPI PUSH1 0x20 CALLDATASIZE PUSH1 0x3 NOT ADD SLT PUSH2 0x1CF JUMPI PUSH1 0x1 PUSH1 0x1 PUSH1 0xA0 SHL SUB PUSH2 0x187E PUSH2 0x1E2E JUMP JUMPDEST AND DUP2 MSTORE PUSH1 0x6 PUSH1 0x20 MSTORE PUSH1 0x40 DUP2 KECCAK256 DUP1 SLOAD PUSH2 0x1895 DUP2 PUSH2 0x2195 JUMP JUMPDEST SWAP2 PUSH2 0x18A3 PUSH1 0x40 MLOAD SWAP4 DUP5 PUSH2 0x1F9B JUMP JUMPDEST DUP2 DUP4 MSTORE PUSH1 0x1F NOT PUSH2 0x18B2 DUP4 PUSH2 0x2195 JUMP JUMPDEST ADD DUP5 JUMPDEST DUP2 DUP2 LT PUSH2 0x19EF JUMPI POP POP DUP4 JUMPDEST DUP3 DUP2 LT PUSH2 0x1919 JUMPI DUP4 DUP6 PUSH1 0x40 MLOAD SWAP2 DUP3 SWAP2 PUSH1 0x20 DUP4 ADD PUSH1 0x20 DUP5 MSTORE DUP3 MLOAD DUP1 SWAP2 MSTORE PUSH1 0x20 PUSH1 0x40 DUP6 ADD SWAP4 ADD SWAP2 JUMPDEST DUP2 DUP2 LT PUSH2 0x18F4 JUMPI POP POP POP SUB SWAP1 RETURN JUMPDEST SWAP2 SWAP4 POP SWAP2 PUSH1 0x20 PUSH2 0x140 DUP3 PUSH2 0x190B PUSH1 0x1 SWAP5 DUP9 MLOAD PUSH2 0x1E7D JUMP JUMPDEST ADD SWAP5 ADD SWAP2 ADD SWAP2 DUP5 SWAP4 SWAP3 PUSH2 0x18E6 JUMP JUMPDEST DUP1 PUSH2 0x1926 PUSH1 0x1 SWAP3 DUP5 PUSH2 0x20A1 JUMP JUMPDEST SWAP1 SLOAD SWAP1 PUSH1 0x3 SHL SHR DUP7 MSTORE PUSH1 0x5 PUSH1 0x20 MSTORE PUSH1 0x40 DUP7 KECCAK256 PUSH1 0x5 PUSH1 0x40 MLOAD SWAP2 PUSH2 0x1947 DUP4 PUSH2 0x1F4E JUMP JUMPDEST DUP5 DUP1 PUSH1 0xA0 SHL SUB DUP2 SLOAD AND DUP4 MSTORE DUP5 DUP1 PUSH1 0xA0 SHL SUB DUP6 DUP3 ADD SLOAD AND PUSH1 0x20 DUP5 ADD MSTORE PUSH1 0x2 DUP2 ADD SLOAD DUP6 DUP1 PUSH1 0xA0 SHL SUB DUP2 AND PUSH1 0x40 DUP6 ADD MSTORE PUSH4 0xFFFFFFFF DUP2 PUSH1 0xA0 SHR AND PUSH1 0x60 DUP6 ADD MSTORE DUP1 PUSH1 0xC0 SHR PUSH1 0x2 SIGNEXTEND PUSH1 0x80 DUP6 ADD MSTORE PUSH1 0xD8 SHR PUSH1 0x2 SIGNEXTEND PUSH1 0xA0 DUP5 ADD MSTORE PUSH2 0x19C0 PUSH1 0xFF PUSH1 0x3 DUP4 ADD SLOAD PUSH1 0x1 PUSH1 0x1 PUSH1 0x40 SHL SUB DUP2 AND PUSH1 0xC0 DUP8 ADD MSTORE PUSH1 0x40 SHR AND PUSH1 0xE0 DUP6 ADD PUSH2 0x2189 JUMP JUMPDEST PUSH1 0x4 DUP2 ADD SLOAD PUSH2 0x100 DUP5 ADD MSTORE ADD SLOAD PUSH2 0x120 DUP3 ADD MSTORE PUSH2 0x19DD DUP3 DUP8 PUSH2 0x21AC JUMP JUMPDEST MSTORE PUSH2 0x19E8 DUP2 DUP7 PUSH2 0x21AC JUMP JUMPDEST POP ADD PUSH2 0x18C0 JUMP JUMPDEST PUSH1 0x20 SWAP1 PUSH2 0x19FA PUSH2 0x213E JUMP JUMPDEST DUP3 DUP3 DUP9 ADD ADD MSTORE ADD PUSH2 0x18B5 JUMP JUMPDEST POP CALLVALUE PUSH2 0x1CF JUMPI PUSH1 0x60 CALLDATASIZE PUSH1 0x3 NOT ADD SLT PUSH2 0x1CF JUMPI PUSH1 0x4 CALLDATALOAD PUSH1 0x24 CALLDATALOAD SWAP1 PUSH1 0x44 CALLDATALOAD SWAP2 PUSH16 0xFFFFFFFFFFFFFFFFFFFFFFFFFFFFFFFF DUP4 AND DUP1 SWAP4 SUB PUSH2 0xEC9 JUMPI PUSH1 0x2 SLOAD PUSH1 0x1 PUSH1 0x1 PUSH1 0xA0 SHL SUB AND CALLER SUB PUSH2 0x1B7E JUMPI PUSH2 0x1A57 PUSH2 0x2319 JUMP JUMPDEST DUP2 DUP5 MSTORE PUSH1 0x5 PUSH1 0x20 MSTORE PUSH1 0x40 DUP5 KECCAK256 PUSH1 0x3 DUP2 ADD SWAP1 PUSH1 0xFF DUP3 SLOAD PUSH1 0x40 SHR AND PUSH1 0x3 DUP2 LT ISZERO PUSH2 0x1B6A JUMPI PUSH2 0x1B2E JUMPI PUSH1 0x2 DUP2 ADD DUP1 SLOAD PUSH1 0xA0 SHR PUSH4 0xFFFFFFFF AND DUP8 MSTORE PUSH1 0x8 PUSH1 0x20 MSTORE PUSH1 0x40 DUP8 KECCAK256 SLOAD SWAP1 SWAP3 SWAP1 PUSH1 0x1 PUSH1 0x1 PUSH1 0xA0 SHL SUB AND ISZERO ISZERO DUP1 PUSH2 0x1B19 JUMPI JUMPDEST PUSH2 0x1B0A JUMPI PUSH1 0x40 SWAP3 DUP5 PUSH1 0x5 PUSH32 0x47BA39D87DF8B4C2663F9D298C92CC07750AD1B1F035A7E9E761028A995C1CEE SWAP7 SWAP5 PUSH4 0xFFFFFFFF SWAP5 PUSH1 0x1 PUSH1 0x40 SHL PUSH1 0xFF PUSH1 0x40 SHL NOT DUP3 SLOAD AND OR SWAP1 SSTORE ADD SSTORE SLOAD PUSH1 0xA0 SHR AND SWAP5 DUP3 MLOAD SWAP2 DUP3 MSTORE PUSH1 0x20 DUP3 ADD MSTORE LOG3 PUSH1 0x1 DUP2 SSTORE DUP1 RETURN JUMPDEST PUSH4 0x62F74295 PUSH1 0xE1 SHL DUP8 MSTORE PUSH1 0x4 DUP8 REVERT JUMPDEST POP PUSH1 0x2 SLOAD PUSH1 0x1 PUSH1 0x1 PUSH1 0xA0 SHL SUB AND CALLER EQ ISZERO PUSH2 0x1AAC JUMP JUMPDEST PUSH1 0x40 MLOAD PUSH3 0x461BCD PUSH1 0xE5 SHL DUP2 MSTORE PUSH1 0x20 PUSH1 0x4 DUP3 ADD MSTORE PUSH1 0x14 PUSH1 0x24 DUP3 ADD MSTORE PUSH20 0x506F736974696F6E206E6F742070656E64696E67 PUSH1 0x60 SHL PUSH1 0x44 DUP3 ADD MSTORE PUSH1 0x64 SWAP1 REVERT JUMPDEST PUSH4 0x4E487B71 PUSH1 0xE0 SHL DUP8 MSTORE PUSH1 0x21 PUSH1 0x4 MSTORE PUSH1 0x24 DUP8 REVERT JUMPDEST PUSH4 0x1F0853C1 PUSH1 0xE2 SHL DUP5 MSTORE PUSH1 0x4 DUP5 REVERT JUMPDEST POP CALLVALUE PUSH2 0x1CF JUMPI PUSH1 0x20 CALLDATASIZE PUSH1 0x3 NOT ADD SLT PUSH2 0x1CF JUMPI PUSH1 0x40 SWAP1 PUSH4 0xFFFFFFFF PUSH2 0x1BAF PUSH2 0x1E16 JUMP JUMPDEST AND DUP2 MSTORE PUSH1 0x7 PUSH1 0x20 MSTORE KECCAK256 PUSH1 0xFF DUP2 SLOAD AND PUSH2 0x1BC9 PUSH1 0x1 DUP4 ADD PUSH2 0x1FBC JUMP JUMPDEST SWAP2 PUSH2 0x1C14 PUSH1 0x1 PUSH1 0x1 PUSH1 0x40 SHL SUB PUSH1 0x3 PUSH2 0x1BE3 PUSH1 0x2 DUP6 ADD PUSH2 0x1FBC JUMP JUMPDEST SWAP4 ADD SLOAD AND SWAP2 PUSH2 0x1C06 PUSH1 0x40 MLOAD SWAP6 DUP7 SWAP6 ISZERO ISZERO DUP7 MSTORE PUSH1 0x80 PUSH1 0x20 DUP8 ADD MSTORE PUSH1 0x80 DUP7 ADD SWAP1 PUSH2 0x2060 JUMP JUMPDEST SWAP1 DUP5 DUP3 SUB PUSH1 0x40 DUP7 ADD MSTORE PUSH2 0x2060 JUMP JUMPDEST SWAP1 PUSH1 0x60 DUP4 ADD MSTORE SUB SWAP1 RETURN JUMPDEST POP CALLVALUE PUSH2 0x1CF JUMPI PUSH1 0x20 CALLDATASIZE PUSH1 0x3 NOT ADD SLT PUSH2 0x1CF JUMPI PUSH1 0x4 CALLDATALOAD DUP1 ISZERO ISZERO DUP1 SWAP2 SUB PUSH2 0xECD JUMPI PUSH1 0x1 SLOAD PUSH1 0x1 PUSH1 0x1 PUSH1 0xA0 SHL SUB AND CALLER SUB PUSH2 0x232 JUMPI PUSH1 0x9 DUP1 SLOAD PUSH1 0xFF PUSH1 0xA8 SHL NOT AND PUSH1 0xA8 SWAP3 SWAP1 SWAP3 SHL PUSH1 0xFF PUSH1 0xA8 SHL AND SWAP2 SWAP1 SWAP2 OR SWAP1 SSTORE DUP1 RETURN JUMPDEST POP CALLVALUE PUSH2 0x1CF JUMPI PUSH1 0x20 CALLDATASIZE PUSH1 0x3 NOT ADD SLT PUSH2 0x1CF JUMPI PUSH1 0x40 PUSH2 0x140 SWAP2 PUSH2 0x1C8F PUSH2 0x213E JUMP JUMPDEST POP PUSH1 0x4 CALLDATALOAD DUP2 MSTORE PUSH1 0x5 PUSH1 0x20 MSTORE KECCAK256 PUSH1 0x5 PUSH1 0x40 MLOAD SWAP2 PUSH2 0x1CAA DUP4 PUSH2 0x1F4E JUMP JUMPDEST PUSH1 0x1 DUP1 PUSH1 0xA0 SHL SUB DUP2 SLOAD AND DUP4 MSTORE PUSH1 0x1 DUP1 PUSH1 0xA0 SHL SUB PUSH1 0x1 DUP3 ADD SLOAD AND PUSH1 0x20 DUP5 ADD MSTORE PUSH1 0x2 DUP2 ADD SLOAD PUSH1 0x1 DUP1 PUSH1 0xA0 SHL SUB DUP2 AND PUSH1 0x40 DUP6 ADD MSTORE PUSH4 0xFFFFFFFF DUP2 PUSH1 0xA0 SHR AND PUSH1 0x60 DUP6 ADD MSTORE DUP1 PUSH1 0xC0 SHR PUSH1 0x2 SIGNEXTEND PUSH1 0x80 DUP6 ADD MSTORE PUSH1 0xD8 SHR PUSH1 0x2 SIGNEXTEND PUSH1 0xA0 DUP5 ADD MSTORE PUSH2 0x1D27 PUSH1 0xFF PUSH1 0x3 DUP4 ADD SLOAD PUSH1 0x1 PUSH1 0x1 PUSH1 0x40 SHL SUB DUP2 AND PUSH1 0xC0 DUP8 ADD MSTORE PUSH1 0x40 SHR AND PUSH1 0xE0 DUP6 ADD PUSH2 0x2189 JUMP JUMPDEST PUSH1 0x4 DUP2 ADD SLOAD PUSH2 0x100 DUP5 ADD MSTORE ADD SLOAD PUSH2 0x120 DUP3 ADD MSTORE PUSH2 0x1D47 PUSH1 0x40 MLOAD DUP1 SWAP3 PUSH2 0x1E7D JUMP JUMPDEST RETURN JUMPDEST POP CALLVALUE PUSH2 0x1CF JUMPI PUSH1 0x40 CALLDATASIZE PUSH1 0x3 NOT ADD SLT PUSH2 0x1CF JUMPI PUSH2 0x1D63 PUSH2 0x1E16 JUMP JUMPDEST PUSH1 0x24 CALLDATALOAD PUSH1 0x1 PUSH1 0x1 PUSH1 0xA0 SHL SUB DUP2 AND SWAP2 SWAP1 DUP3 SWAP1 SUB PUSH2 0x859 JUMPI PUSH1 0x1 SLOAD PUSH1 0x1 PUSH1 0x1 PUSH1 0xA0 SHL SUB AND CALLER SUB PUSH2 0x114D JUMPI PUSH1 0x20 PUSH4 0xFFFFFFFF PUSH32 0xC0648D71480D56E212D7221A29783F9DC7D62231867ED5159F5D1BDB1459B999 SWAP3 AND SWAP3 DUP4 DUP6 MSTORE PUSH1 0x7 DUP3 MSTORE PUSH2 0x1DCD PUSH1 0xFF PUSH1 0x40 DUP8 KECCAK256 SLOAD AND PUSH2 0x20FC JUMP JUMPDEST DUP4 DUP6 MSTORE PUSH1 0x8 DUP3 MSTORE PUSH1 0x40 DUP1 DUP7 KECCAK256 DUP1 SLOAD PUSH1 0x1 PUSH1 0x1 PUSH1 0xA0 SHL SUB NOT AND DUP4 OR SWAP1 SSTORE MLOAD SWAP1 DUP2 MSTORE LOG2 DUP1 RETURN JUMPDEST SWAP1 POP CALLVALUE PUSH2 0xECD JUMPI DUP2 PUSH1 0x3 NOT CALLDATASIZE ADD SLT PUSH2 0xECD JUMPI PUSH1 0x9 SLOAD PUSH1 0x1 PUSH1 0x1 PUSH1 0xA0 SHL SUB AND DUP2 MSTORE PUSH1 0x20 SWAP1 RETURN JUMPDEST PUSH1 0x4 CALLDATALOAD SWAP1 PUSH4 0xFFFFFFFF DUP3 AND DUP3 SUB PUSH2 0x1E29 JUMPI JUMP JUMPDEST PUSH1 0x0 DUP1 REVERT JUMPDEST PUSH1 0x4 CALLDATALOAD SWAP1 PUSH1 0x1 PUSH1 0x1 PUSH1 0xA0 SHL SUB DUP3 AND DUP3 SUB PUSH2 0x1E29 JUMPI JUMP JUMPDEST PUSH1 0x64 CALLDATALOAD SWAP1 PUSH1 0x1 PUSH1 0x1 PUSH1 0xA0 SHL SUB DUP3 AND DUP3 SUB PUSH2 0x1E29 JUMPI JUMP JUMPDEST SWAP1 PUSH1 0x3 DUP3 LT ISZERO PUSH2 0x1E67 JUMPI MSTORE JUMP JUMPDEST PUSH4 0x4E487B71 PUSH1 0xE0 SHL PUSH1 0x0 MSTORE PUSH1 0x21 PUSH1 0x4 MSTORE PUSH1 0x24 PUSH1 0x0 REVERT JUMPDEST PUSH2 0x120 DUP1 SWAP2 PUSH1 0x1 DUP1 PUSH1 0xA0 SHL SUB DUP2 MLOAD AND DUP5 MSTORE PUSH1 0x1 DUP1 PUSH1 0xA0 SHL SUB PUSH1 0x20 DUP3 ADD MLOAD AND PUSH1 0x20 DUP6 ADD MSTORE PUSH1 0x1 DUP1 PUSH1 0xA0 SHL SUB PUSH1 0x40 DUP3 ADD MLOAD AND PUSH1 0x40 DUP6 ADD MSTORE PUSH4 0xFFFFFFFF PUSH1 0x60 DUP3 ADD MLOAD AND PUSH1 0x60 DUP6 ADD MSTORE PUSH1 0x80 DUP2 ADD MLOAD PUSH1 0x2 SIGNEXTEND PUSH1 0x80 DUP6 ADD MSTORE PUSH1 0xA0 DUP2 ADD MLOAD PUSH1 0x2 SIGNEXTEND PUSH1 0xA0 DUP6 ADD MSTORE PUSH1 0x1 PUSH1 0x1 PUSH1 0x40 SHL SUB PUSH1 0xC0 DUP3 ADD MLOAD AND PUSH1 0xC0 DUP6 ADD MSTORE PUSH2 0x1F01 PUSH1 0xE0 DUP3 ADD MLOAD PUSH1 0xE0 DUP7 ADD SWAP1 PUSH2 0x1E5A JUMP JUMPDEST PUSH2 0x100 DUP2 ADD MLOAD PUSH2 0x100 DUP6 ADD MSTORE ADD MLOAD SWAP2 ADD MSTORE JUMP JUMPDEST SWAP1 PUSH1 0x1 DUP3 DUP2 SHR SWAP3 AND DUP1 ISZERO PUSH2 0x1F44 JUMPI JUMPDEST PUSH1 0x20 DUP4 LT EQ PUSH2 0x1F2E JUMPI JUMP JUMPDEST PUSH4 0x4E487B71 PUSH1 0xE0 SHL PUSH1 0x0 MSTORE PUSH1 0x22 PUSH1 0x4 MSTORE PUSH1 0x24 PUSH1 0x0 REVERT JUMPDEST SWAP2 PUSH1 0x7F AND SWAP2 PUSH2 0x1F23 JUMP JUMPDEST PUSH2 0x140 DUP2 ADD SWAP1 DUP2 LT PUSH1 0x1 PUSH1 0x1 PUSH1 0x40 SHL SUB DUP3 GT OR PUSH2 0x1F6A JUMPI PUSH1 0x40 MSTORE JUMP JUMPDEST PUSH4 0x4E487B71 PUSH1 0xE0 SHL PUSH1 0x0 MSTORE PUSH1 0x41 PUSH1 0x4 MSTORE PUSH1 0x24 PUSH1 0x0 REVERT JUMPDEST PUSH1 0x80 DUP2 ADD SWAP1 DUP2 LT PUSH1 0x1 PUSH1 0x1 PUSH1 0x40 SHL SUB DUP3 GT OR PUSH2 0x1F6A JUMPI PUSH1 0x40 MSTORE JUMP JUMPDEST SWAP1 PUSH1 0x1F DUP1 NOT SWAP2 ADD AND DUP2 ADD SWAP1 DUP2 LT PUSH1 0x1 PUSH1 0x1 PUSH1 0x40 SHL SUB DUP3 GT OR PUSH2 0x1F6A JUMPI PUSH1 0x40 MSTORE JUMP JUMPDEST SWAP1 PUSH1 0x40 MLOAD SWAP2 DUP3 PUSH1 0x0 DUP3 SLOAD SWAP3 PUSH2 0x1FD0 DUP5 PUSH2 0x1F14 JUMP JUMPDEST DUP1 DUP5 MSTORE SWAP4 PUSH1 0x1 DUP2 AND SWAP1 DUP2 ISZERO PUSH2 0x203E JUMPI POP PUSH1 0x1 EQ PUSH2 0x1FF7 JUMPI JUMPDEST POP PUSH2 0x1FF5 SWAP3 POP SUB DUP4 PUSH2 0x1F9B JUMP JUMPDEST JUMP JUMPDEST SWAP1 POP PUSH1 0x0 SWAP3 SWAP2 SWAP3 MSTORE PUSH1 0x20 PUSH1 0x0 KECCAK256 SWAP1 PUSH1 0x0 SWAP2 JUMPDEST DUP2 DUP4 LT PUSH2 0x2022 JUMPI POP POP SWAP1 PUSH1 0x20 PUSH2 0x1FF5 SWAP3 DUP3 ADD ADD CODESIZE PUSH2 0x1FE8 JUMP JUMPDEST PUSH1 0x20 SWAP2 SWAP4 POP DUP1 PUSH1 0x1 SWAP2 SLOAD DUP4 DUP6 DUP10 ADD ADD MSTORE ADD SWAP2 ADD SWAP1 SWAP2 DUP5 SWAP3 PUSH2 0x2009 JUMP JUMPDEST SWAP1 POP PUSH1 0x20 SWAP3 POP PUSH2 0x1FF5 SWAP5 SWAP2 POP PUSH1 0xFF NOT AND DUP3 DUP5 ADD MSTORE ISZERO ISZERO PUSH1 0x5 SHL DUP3 ADD ADD CODESIZE PUSH2 0x1FE8 JUMP JUMPDEST SWAP2 SWAP1 DUP3 MLOAD SWAP3 DUP4 DUP3 MSTORE PUSH1 0x0 JUMPDEST DUP5 DUP2 LT PUSH2 0x208C JUMPI POP POP DUP3 PUSH1 0x0 PUSH1 0x20 DUP1 SWAP5 SWAP6 DUP5 ADD ADD MSTORE PUSH1 0x1F DUP1 NOT SWAP2 ADD AND ADD ADD SWAP1 JUMP JUMPDEST DUP1 PUSH1 0x20 DUP1 SWAP3 DUP5 ADD ADD MLOAD DUP3 DUP3 DUP7 ADD ADD MSTORE ADD PUSH2 0x206B JUMP JUMPDEST DUP1 SLOAD DUP3 LT ISZERO PUSH2 0x20B9 JUMPI PUSH1 0x0 MSTORE PUSH1 0x20 PUSH1 0x0 KECCAK256 ADD SWAP1 PUSH1 0x0 SWAP1 JUMP JUMPDEST PUSH4 0x4E487B71 PUSH1 0xE0 SHL PUSH1 0x0 MSTORE PUSH1 0x32 PUSH1 0x4 MSTORE PUSH1 0x24 PUSH1 0x0 REVERT JUMPDEST SWAP2 DUP2 PUSH1 0x1F DUP5 ADD SLT ISZERO PUSH2 0x1E29 JUMPI DUP3 CALLDATALOAD SWAP2 PUSH1 0x1 PUSH1 0x1 PUSH1 0x40 SHL SUB DUP4 GT PUSH2 0x1E29 JUMPI PUSH1 0x20 DUP4 DUP2 DUP7 ADD SWAP6 ADD ADD GT PUSH2 0x1E29 JUMPI JUMP JUMPDEST ISZERO PUSH2 0x2103 JUMPI JUMP JUMPDEST PUSH1 0x40 MLOAD PUSH3 0x461BCD PUSH1 0xE5 SHL DUP2 MSTORE PUSH1 0x20 PUSH1 0x4 DUP3 ADD MSTORE PUSH1 0x13 PUSH1 0x24 DUP3 ADD MSTORE PUSH19 0x10DA185A5B881B9BDD081CDD5C1C1BDC9D1959 PUSH1 0x6A SHL PUSH1 0x44 DUP3 ADD MSTORE PUSH1 0x64 SWAP1 REVERT JUMPDEST PUSH1 0x40 MLOAD SWAP1 PUSH2 0x214B DUP3 PUSH2 0x1F4E JUMP JUMPDEST PUSH1 0x0 PUSH2 0x120 DUP4 DUP3 DUP2 MSTORE DUP3 PUSH1 0x20 DUP3 ADD MSTORE DUP3 PUSH1 0x40 DUP3 ADD MSTORE DUP3 PUSH1 0x60 DUP3 ADD MSTORE DUP3 PUSH1 0x80 DUP3 ADD MSTORE DUP3 PUSH1 0xA0 DUP3 ADD MSTORE DUP3 PUSH1 0xC0 DUP3 ADD MSTORE DUP3 PUSH1 0xE0 DUP3 ADD MSTORE DUP3 PUSH2 0x100 DUP3 ADD MSTORE ADD MSTORE JUMP JUMPDEST PUSH1 0x3 DUP3 LT ISZERO PUSH2 0x1E67 JUMPI MSTORE JUMP JUMPDEST PUSH1 0x1 PUSH1 0x1 PUSH1 0x40 SHL SUB DUP2 GT PUSH2 0x1F6A JUMPI PUSH1 0x5 SHL PUSH1 0x20 ADD SWAP1 JUMP JUMPDEST DUP1 MLOAD DUP3 LT ISZERO PUSH2 0x20B9 JUMPI PUSH1 0x20 SWAP2 PUSH1 0x5 SHL ADD ADD SWAP1 JUMP JUMPDEST SWAP2 SWAP1 DUP3 SUB SWAP2 DUP3 GT PUSH2 0x21CD JUMPI JUMP JUMPDEST PUSH4 0x4E487B71 PUSH1 0xE0 SHL PUSH1 0x0 MSTORE PUSH1 0x11 PUSH1 0x4 MSTORE PUSH1 0x24 PUSH1 0x0 REVERT JUMPDEST PUSH1 0x1 PUSH1 0x1 PUSH1 0x40 SHL SUB DUP2 GT PUSH2 0x1F6A JUMPI PUSH1 0x1F ADD PUSH1 0x1F NOT AND PUSH1 0x20 ADD SWAP1 JUMP JUMPDEST RETURNDATASIZE ISZERO PUSH2 0x2229 JUMPI RETURNDATASIZE SWAP1 PUSH2 0x220F DUP3 PUSH2 0x21E3 JUMP JUMPDEST SWAP2 PUSH2 0x221D PUSH1 0x40 MLOAD SWAP4 DUP5 PUSH2 0x1F9B JUMP JUMPDEST DUP3 MSTORE RETURNDATASIZE PUSH1 0x0 PUSH1 0x20 DUP5 ADD RETURNDATACOPY JUMP JUMPDEST PUSH1 0x60 SWAP1 JUMP JUMPDEST SWAP2 SWAP1 DUP3 ADD DUP1 SWAP3 GT PUSH2 0x21CD JUMPI JUMP JUMPDEST DUP2 DUP2 LT PUSH2 0x2246 JUMPI POP POP JUMP JUMPDEST PUSH1 0x0 DUP2 SSTORE PUSH1 0x1 ADD PUSH2 0x223B JUMP JUMPDEST SWAP3 SWAP2 SWAP3 PUSH2 0x225E DUP3 PUSH2 0x21E3 JUMP JUMPDEST SWAP2 PUSH2 0x226C PUSH1 0x40 MLOAD SWAP4 DUP5 PUSH2 0x1F9B JUMP JUMPDEST DUP3 SWAP5 DUP2 DUP5 MSTORE DUP2 DUP4 ADD GT PUSH2 0x1E29 JUMPI DUP3 DUP2 PUSH1 0x20 SWAP4 DUP5 PUSH1 0x0 SWAP7 ADD CALLDATACOPY ADD ADD MSTORE JUMP JUMPDEST SWAP2 SWAP1 PUSH1 0x1F DUP2 GT PUSH2 0x2298 JUMPI POP POP POP JUMP JUMPDEST PUSH2 0x1FF5 SWAP3 PUSH1 0x0 MSTORE PUSH1 0x20 PUSH1 0x0 KECCAK256 SWAP1 PUSH1 0x20 PUSH1 0x1F DUP5 ADD PUSH1 0x5 SHR DUP4 ADD SWAP4 LT PUSH2 0x22C4 JUMPI JUMPDEST PUSH1 0x1F ADD PUSH1 0x5 SHR ADD SWAP1 PUSH2 0x223B JUMP JUMPDEST SWAP1 SWAP2 POP DUP2 SWAP1 PUSH2 0x22B7 JUMP JUMPDEST SWAP1 DUP1 PUSH1 0x20 SWAP4 SWAP3 DUP2 DUP5 MSTORE DUP5 DUP5 ADD CALLDATACOPY PUSH1 0x0 DUP3 DUP3 ADD DUP5 ADD MSTORE PUSH1 0x1F ADD PUSH1 0x1F NOT AND ADD ADD SWAP1 JUMP JUMPDEST SWAP3 SWAP1 PUSH2 0x2308 SWAP1 PUSH2 0x2316 SWAP6 SWAP4 PUSH1 0x40 DUP7 MSTORE PUSH1 0x40 DUP7 ADD SWAP2 PUSH2 0x22CE JUMP JUMPDEST SWAP3 PUSH1 0x20 DUP2 DUP6 SUB SWAP2 ADD MSTORE PUSH2 0x22CE JUMP JUMPDEST SWAP1 JUMP JUMPDEST PUSH1 0x2 PUSH1 0x0 SLOAD EQ PUSH2 0x232A JUMPI PUSH1 0x2 PUSH1 0x0 SSTORE JUMP JUMPDEST PUSH4 0x3EE5AEB5 PUSH1 0xE0 SHL PUSH1 0x0 MSTORE PUSH1 0x4 PUSH1 0x0 REVERT INVALID LOG2 PUSH5 0x6970667358 0x22 SLT KECCAK256 SWAP7 0xE9 PUSH2 0xD158 PUSH16 0x570B9C78AA3845E8E2978ABEB4418701 0xBF JUMPDEST CALLDATALOAD PUSH18 0xEFE9292EF11364736F6C634300081C003300 "},"methodIdentifiers":{"XCM_PRECOMPILE()":"077120cc","addChain(uint32,bytes,string,address)":"b80fe2f9","admin()":"f851a440","chainExecutors(uint32)":"e98eaaac","confirmExecution(bytes32,bytes32,uint128)":"28e6bdbe","deposit()":"d0e30db0","dispatchInvestment(address,uint32,address,address,uint256,int24,int24,bytes,bytes)":"dd67d25a","emergency()":"caa6fea4","emergencyLiquidatePosition(uint32,bytes32)":"caffc49c","freezeXcmPrecompile()":"9a270acd","getChainConfig(uint32)":"a20b9b77","getPosition(bytes32)":"1928b3cb","getUserBalance(address)":"47734892","getUserPositions(address)":"2a6bc2dd","isChainSupported(uint32)":"cbaa349e","isPositionActive(address,bytes32)":"2fefe440","operator()":"570ca735","pause()":"8456cb59","paused()":"5c975abb","positions(bytes32)":"514ea4bf","removeChain(uint32)":"55a2d64d","setEmergency(address)":"eb02a115","setOperator(address)":"b3ab15fb","setTestMode(bool)":"1ff1292f","setXcmPrecompile(address)":"5dad35ca","settleLiquidation(bytes32,uint256)":"43d6ca9c","supportedChains(uint32)":"248514dd","testMode()":"cd9ea342","transferAdmin(address)":"75829def","unpause()":"3f4ba83a","updateChainExecutor(uint32,address)":"0d77be69","userBalances(address)":"26224c64","userPositions(address,uint256)":"5e1b4d99","withdraw(uint256)":"2e1a7d4d","xcmPrecompileFrozen()":"9b2c59e6"}}}}}