{"contracts/V1(Current)/AssetHubVault.sol":{"AssetHubVault":{"abi":[{"inputs":[],"stateMutability":"nonpayable","type":"constructor"},{"inputs":[],"name":"AmountMismatch","type":"error"},{"inputs":[],"name":"AmountZero","type":"error"},{"inputs":[],"name":"AssetMismatch","type":"error"},{"inputs":[],"name":"ChainIdMismatch","type":"error"},{"inputs":[],"name":"InsufficientBalance","type":"error"},{"inputs":[],"name":"InvalidRange","type":"error"},{"inputs":[],"name":"NotAdmin","type":"error"},{"inputs":[],"name":"NotEmergency","type":"error"},{"inputs":[],"name":"NotOperator","type":"error"},{"inputs":[],"name":"Paused","type":"error"},{"inputs":[],"name":"PositionNotActive","type":"error"},{"inputs":[],"name":"ReentrancyGuardReentrantCall","type":"error"},{"inputs":[],"name":"UnauthorizedXcmCall","type":"error"},{"inputs":[],"name":"XcmPrecompileNotSet","type":"error"},{"inputs":[],"name":"ZeroAddress","type":"error"},{"anonymous":false,"inputs":[{"indexed":true,"internalType":"address","name":"user","type":"address"},{"indexed":false,"internalType":"uint256","name":"amount","type":"uint256"}],"name":"Deposit","type":"event"},{"anonymous":false,"inputs":[{"indexed":true,"internalType":"bytes32","name":"positionId","type":"bytes32"},{"indexed":true,"internalType":"address","name":"user","type":"address"},{"indexed":false,"internalType":"uint32","name":"chainId","type":"uint32"},{"indexed":false,"internalType":"address","name":"poolId","type":"address"},{"indexed":false,"internalType":"uint256","name":"amount","type":"uint256"}],"name":"InvestmentInitiated","type":"event"},{"anonymous":false,"inputs":[{"indexed":true,"internalType":"bytes32","name":"positionId","type":"bytes32"},{"indexed":true,"internalType":"address","name":"user","type":"address"},{"indexed":false,"internalType":"uint256","name":"receivedAmount","type":"uint256"},{"indexed":false,"internalType":"uint256","name":"expectedAmount","type":"uint256"}],"name":"LiquidationSettled","type":"event"},{"anonymous":false,"inputs":[{"indexed":true,"internalType":"bytes32","name":"positionId","type":"bytes32"},{"indexed":true,"internalType":"address","name":"user","type":"address"},{"indexed":false,"internalType":"uint256","name":"finalAmount","type":"uint256"}],"name":"PositionLiquidated","type":"event"},{"anonymous":false,"inputs":[{"indexed":true,"internalType":"address","name":"user","type":"address"},{"indexed":false,"internalType":"uint256","name":"amount","type":"uint256"}],"name":"Withdrawal","type":"event"},{"anonymous":false,"inputs":[{"indexed":true,"internalType":"bytes32","name":"messageHash","type":"bytes32"},{"indexed":false,"internalType":"bytes","name":"destination","type":"bytes"},{"indexed":false,"internalType":"bytes","name":"message","type":"bytes"}],"name":"XCMMessageSent","type":"event"},{"anonymous":false,"inputs":[{"indexed":true,"internalType":"address","name":"precompile","type":"address"}],"name":"XcmPrecompileSet","type":"event"},{"anonymous":false,"inputs":[{"indexed":true,"internalType":"bytes32","name":"messageHash","type":"bytes32"},{"indexed":false,"internalType":"bytes","name":"destination","type":"bytes"},{"indexed":false,"internalType":"bool","name":"success","type":"bool"},{"indexed":false,"internalType":"bytes","name":"errorData","type":"bytes"}],"name":"XcmSendAttempt","type":"event"},{"inputs":[],"name":"XCM_PRECOMPILE","outputs":[{"internalType":"address","name":"","type":"address"}],"stateMutability":"view","type":"function"},{"inputs":[],"name":"admin","outputs":[{"internalType":"address","name":"","type":"address"}],"stateMutability":"view","type":"function"},{"inputs":[],"name":"deposit","outputs":[],"stateMutability":"payable","type":"function"},{"inputs":[{"internalType":"address","name":"user","type":"address"},{"internalType":"uint32","name":"chainId","type":"uint32"},{"internalType":"address","name":"poolId","type":"address"},{"internalType":"address","name":"baseAsset","type":"address"},{"internalType":"uint256","name":"amount","type":"uint256"},{"internalType":"int24","name":"lowerRangePercent","type":"int24"},{"internalType":"int24","name":"upperRangePercent","type":"int24"},{"internalType":"bytes","name":"destination","type":"bytes"},{"internalType":"bytes","name":"preBuiltXcmMessage","type":"bytes"}],"name":"dispatchInvestment","outputs":[],"stateMutability":"nonpayable","type":"function"},{"inputs":[],"name":"emergency","outputs":[{"internalType":"address","name":"","type":"address"}],"stateMutability":"view","type":"function"},{"inputs":[{"internalType":"uint32","name":"chainId","type":"uint32"},{"internalType":"bytes32","name":"positionId","type":"bytes32"}],"name":"emergencyLiquidatePosition","outputs":[],"stateMutability":"nonpayable","type":"function"},{"inputs":[],"name":"freezeXcmPrecompile","outputs":[],"stateMutability":"nonpayable","type":"function"},{"inputs":[{"internalType":"bytes32","name":"positionId","type":"bytes32"}],"name":"getPosition","outputs":[{"components":[{"internalType":"address","name":"user","type":"address"},{"internalType":"address","name":"poolId","type":"address"},{"internalType":"address","name":"baseAsset","type":"address"},{"internalType":"uint32","name":"chainId","type":"uint32"},{"internalType":"int24","name":"lowerRangePercent","type":"int24"},{"internalType":"int24","name":"upperRangePercent","type":"int24"},{"internalType":"uint64","name":"timestamp","type":"uint64"},{"internalType":"bool","name":"active","type":"bool"},{"internalType":"uint256","name":"amount","type":"uint256"}],"internalType":"struct AssetHubVault.Position","name":"","type":"tuple"}],"stateMutability":"view","type":"function"},{"inputs":[{"internalType":"address","name":"user","type":"address"}],"name":"getUserBalance","outputs":[{"internalType":"uint256","name":"","type":"uint256"}],"stateMutability":"view","type":"function"},{"inputs":[{"internalType":"address","name":"user","type":"address"}],"name":"getUserPositions","outputs":[{"components":[{"internalType":"address","name":"user","type":"address"},{"internalType":"address","name":"poolId","type":"address"},{"internalType":"address","name":"baseAsset","type":"address"},{"internalType":"uint32","name":"chainId","type":"uint32"},{"internalType":"int24","name":"lowerRangePercent","type":"int24"},{"internalType":"int24","name":"upperRangePercent","type":"int24"},{"internalType":"uint64","name":"timestamp","type":"uint64"},{"internalType":"bool","name":"active","type":"bool"},{"internalType":"uint256","name":"amount","type":"uint256"}],"internalType":"struct AssetHubVault.Position[]","name":"","type":"tuple[]"}],"stateMutability":"view","type":"function"},{"inputs":[{"internalType":"address","name":"user","type":"address"},{"internalType":"bytes32","name":"positionId","type":"bytes32"}],"name":"isPositionActive","outputs":[{"internalType":"bool","name":"","type":"bool"}],"stateMutability":"view","type":"function"},{"inputs":[],"name":"operator","outputs":[{"internalType":"address","name":"","type":"address"}],"stateMutability":"view","type":"function"},{"inputs":[],"name":"pause","outputs":[],"stateMutability":"nonpayable","type":"function"},{"inputs":[],"name":"paused","outputs":[{"internalType":"bool","name":"","type":"bool"}],"stateMutability":"view","type":"function"},{"inputs":[{"internalType":"bytes32","name":"","type":"bytes32"}],"name":"positions","outputs":[{"internalType":"address","name":"user","type":"address"},{"internalType":"address","name":"poolId","type":"address"},{"internalType":"address","name":"baseAsset","type":"address"},{"internalType":"uint32","name":"chainId","type":"uint32"},{"internalType":"int24","name":"lowerRangePercent","type":"int24"},{"internalType":"int24","name":"upperRangePercent","type":"int24"},{"internalType":"uint64","name":"timestamp","type":"uint64"},{"internalType":"bool","name":"active","type":"bool"},{"internalType":"uint256","name":"amount","type":"uint256"}],"stateMutability":"view","type":"function"},{"inputs":[{"internalType":"address","name":"account","type":"address"}],"name":"setEmergency","outputs":[],"stateMutability":"nonpayable","type":"function"},{"inputs":[{"internalType":"address","name":"account","type":"address"}],"name":"setOperator","outputs":[],"stateMutability":"nonpayable","type":"function"},{"inputs":[{"internalType":"bool","name":"_testMode","type":"bool"}],"name":"setTestMode","outputs":[],"stateMutability":"nonpayable","type":"function"},{"inputs":[{"internalType":"address","name":"precompile","type":"address"}],"name":"setXcmPrecompile","outputs":[],"stateMutability":"nonpayable","type":"function"},{"inputs":[{"internalType":"bytes32","name":"positionId","type":"bytes32"}],"name":"settleLiquidation","outputs":[],"stateMutability":"payable","type":"function"},{"inputs":[],"name":"testMode","outputs":[{"internalType":"bool","name":"","type":"bool"}],"stateMutability":"view","type":"function"},{"inputs":[{"internalType":"address","name":"newAdmin","type":"address"}],"name":"transferAdmin","outputs":[],"stateMutability":"nonpayable","type":"function"},{"inputs":[],"name":"unpause","outputs":[],"stateMutability":"nonpayable","type":"function"},{"inputs":[{"internalType":"address","name":"","type":"address"}],"name":"userBalances","outputs":[{"internalType":"uint256","name":"","type":"uint256"}],"stateMutability":"view","type":"function"},{"inputs":[{"internalType":"address","name":"","type":"address"},{"internalType":"uint256","name":"","type":"uint256"}],"name":"userPositions","outputs":[{"internalType":"bytes32","name":"","type":"bytes32"}],"stateMutability":"view","type":"function"},{"inputs":[{"internalType":"uint256","name":"amount","type":"uint256"}],"name":"withdraw","outputs":[],"stateMutability":"nonpayable","type":"function"},{"inputs":[],"name":"xcmPrecompileFrozen","outputs":[{"internalType":"bool","name":"","type":"bool"}],"stateMutability":"view","type":"function"}],"evm":{"bytecode":{"linkReferences":{},"object":"608080604052346063576001600081905580546001600160a01b031990811633908117909255600280549091168217905560038054600780546001600160a81b03199081169091551660ff60a01b1990921691909117905561157f90816100698239f35b600080fdfe608080604052600436101561001357600080fd5b600090813560e01c908163077120cc1461127f575080631928b3cb146111b55780631ff1292f1461116457806326224c6414610e1f5780632a6bc2dd14610fca5780632e1a7d4d14610eec5780632fefe44014610e8b5780633f4ba83a14610e585780634773489214610e1f578063514ea4bf14610d70578063570ca73514610d475780635c975abb14610d215780635dad35ca14610c675780635e1b4d9914610c1057806375829def14610ba35780638456cb5914610b6a5780639a270acd14610ae15780639b2c59e614610abb578063b3ab15fb14610a6a578063c4aa43d91461094a578063caa6fea414610921578063caffc49c14610841578063cd9ea3421461081b578063d0e30db0146107a6578063dd67d25a146101e4578063eb02a115146101755763f851a4401461014a57600080fd5b346101725780600319360112610172576001546040516001600160a01b039091168152602090f35b80fd5b50346101725760203660031901126101725761018f611329565b6001546001600160a01b031633036101d5576001600160a01b031680156101c6576001600160601b0360a01b600354161760035580f35b63d92e233d60e01b8252600482fd5b637bfa4b9f60e01b8252600482fd5b503461017257610120366003190112610172576101ff611329565b60243563ffffffff8116908181036107a2576044356001600160a01b038116929083810361079e57606435916001600160a01b038316908184036107085760843560a435968760020b80980361079a5760c4358060020b8091036107965760e4356001600160401b0381116107925761027c903690600401611372565b99909a610104356001600160401b03811161078e5761029f903690600401611372565b600254909b919a906001600160a01b0316330361077f5760ff60035460a01c16610770576001600160a01b038316998a156107605787156107505785851215610740576007546001600160a01b031615610730578f6040818d8b9352600460205220541061072057604051606094851b6bffffffffffffffffffffffff199081166020830190815260e09590951b6001600160e01b031916603483015291851b8216603882015291841b16604c820152428382015291825260049286928f929061036a6080826113d1565b5190209889916040519661037d8861139f565b8c8852602088018981526040890193845260608901908c825260808a0193845260a08a01928352604060c08b01976001600160401b034216895260e08c0197600189526101008d019a8b5281526005602052209960018060a01b039060018060a01b03905116166001600160601b0360a01b8b5416178a5560018060a01b0390511660018a019060018060a01b03166001600160601b0360a01b825416179055600289019360018060a01b039060018060a01b03905116166001600160601b0360a01b85541617845551918354905160c01b62ffffff60c01b16915160d81b62ffffff60d81b169263ffffffff60a01b9060a01b169069ffffffffffffffffffff60a01b191617171790556001600160401b03600386019251166001600160401b031983541617825551151560ff60401b82549160401b169060ff60401b191617905551910155848a52600660205260408a208054906801000000000000000082101561070c579161051a827f9a5b32500137d63609212582c47c2e2486052dab88567f1fbd0637be4f2652a09694600160609795018155611344565b81549060031b9088821b91600019901b1916179055868c52600460205260408c20610546838254611461565b905560405192835260208301526040820152a36007549060ff8260a81c161561056d578580f35b61057683611484565b61058360405191826113d1565b8381526020810190368584011161070857848383378085016020018890525190209486926060906001600160a01b031684813b1561017257604051637f0a3bf960e01b81529182908183816105de8c8b8f8c600486016114fd565b03925af190816106f2575b508791906106c257507f2ba5ade46917c616c9af26a3ce5e85c0dc38796c39d42e9a9b2d930e02c4924861064993949561062161149f565b955b6106346040519283928b88856114fd565b0390a2604051946060865260608601916114dc565b91151560208401528282036040840152805190818352855b8281106106ad57505082828287602080957f2d28a5a2ca6843ac7811dcf16bc72dcea83863fbb74f472becc28dc57a76827a9897010152601f801991011601030190a238808080808580f35b80602080928401015182828701015201610661565b93507f2ba5ade46917c616c9af26a3ce5e85c0dc38796c39d42e9a9b2d930e02c492486106499395600196610623565b98610700818a94939b6113d1565b9890916105e9565b8780fd5b634e487b7160e01b8c52604160045260248cfd5b50631e9acf1760e31b8f5260048ffd5b506395b60d6160e01b8f5260048ffd5b5063561ce9bb60e01b8f5260048ffd5b506365e52d5160e11b8f5260048ffd5b5063d92e233d60e01b8f5260048ffd5b6313d0ff5960e31b8f5260048ffd5b631f0853c160e21b8f5260048ffd5b8d80fd5b8b80fd5b8a80fd5b8980fd5b8580fd5b8380fd5b5080600319360112610172576107ba611527565b341561080c573381526004602052604081206107d73482546114cf565b90556040513481527fe1fffcc4923d04b559f4d29a8bfc6cda04eb5b0d3c460751c2402c5c5cc9109c60203392a26001815580f35b6365e52d5160e11b8152600490fd5b5034610172578060031936011261017257602060ff60075460a81c166040519015158152f35b50346101725760403660031901126101725760043563ffffffff811680910361091d5760035460243591906001600160a01b0316330361090e5781835260056020526040832090600382019081549060ff8260401c16156108ff5763ffffffff600285015460a01c16036108f05760ff60401b1916905560018060a01b03905416907f385faac62e36e04554cd60315fc6716eaf7fc15bba95b3790f4b351dfa10bad86020604051858152a380f35b63a179f8c960e01b8552600485fd5b63a8a168bf60e01b8652600486fd5b6303ca9f4d60e11b8352600483fd5b5080fd5b50346101725780600319360112610172576003546040516001600160a01b039091168152602090f35b50602036600319011261017257600254600435906001600160a01b03163303610a5b57610975611527565b3415610a4c578082526005602052604082209060038201805460ff8160401c1615610a3d5768ff00000000000000001916905581546001600160a01b0316835260046020526040832080546109cb9034906114cf565b90557fa8bc750a5af603b81d1d73928261812951e56844201c36805845c3ea53e0657c6040600460018060a01b038554169485857f385faac62e36e04554cd60315fc6716eaf7fc15bba95b3790f4b351dfa10bad860208651348152a301548151903482526020820152a36001815580f35b63a8a168bf60e01b8552600485fd5b6365e52d5160e11b8252600482fd5b631f0853c160e21b8252600482fd5b503461017257602036600319011261017257610a84611329565b6001546001600160a01b031633036101d5576001600160a01b031680156101c6576001600160601b0360a01b600254161760025580f35b5034610172578060031936011261017257602060ff60075460a01c166040519015158152f35b50346101725780600319360112610172576001546001600160a01b03163303610b5b5760075460ff8160a01c16610b255760ff60a01b1916600160a01b1760075580f35b60405162461bcd60e51b815260206004820152600e60248201526d30b63932b0b23c90333937bd32b760911b6044820152606490fd5b637bfa4b9f60e01b8152600490fd5b50346101725780600319360112610172576001546001600160a01b03163303610b5b576003805460ff60a01b1916600160a01b17905580f35b503461017257602036600319011261017257610bbd611329565b600154906001600160a01b0382163303610c01576001600160a01b0316908115610bf2576001600160a01b0319161760015580f35b63d92e233d60e01b8352600483fd5b637bfa4b9f60e01b8352600483fd5b503461017257604036600319011261017257610c2a611329565b6001600160a01b0316815260066020526040812080546024359290831015610172576020610c588484611344565b90549060031b1c604051908152f35b503461017257602036600319011261017257610c81611329565b6001546001600160a01b031633036101d5576007549060ff8260a01c16610ce4576001600160a01b03166001600160a01b03199190911681176007557f92107fcd833d21c9342d998ceb020ac5d7aaa95136a24b3f7e7a17522b26d0e48280a280f35b60405162461bcd60e51b81526020600482015260156024820152743c31b690383932b1b7b6b834b63290333937bd32b760591b6044820152606490fd5b5034610172578060031936011261017257602060ff60035460a01c166040519015158152f35b50346101725780600319360112610172576002546040516001600160a01b039091168152602090f35b503461017257602036600319011261017257604061012091600435815260056020522060018060a01b038154169060ff60018060a01b036001830154169160028101546004600383015492015493604051958652602086015260018060a01b038116604086015263ffffffff8160a01c1660608601528060c01c60020b608086015260d81c60020b60a08501526001600160401b03811660c085015260401c16151560e0830152610100820152f35b5034610172576020366003190112610172576020906040906001600160a01b03610e47611329565b168152600483522054604051908152f35b50346101725780600319360112610172576001546001600160a01b03163303610b5b576003805460ff60a01b1916905580f35b5034610172576040366003190112610172576020906040610eaa611329565b602435835260058452912080546001600160a01b039283169216919091149081610eda575b506040519015158152f35b60ff91506003015460401c1638610ecf565b503461017257602036600319011261017257600435610f09611527565b8015610a4c57338252600460205280604083205410610fbb57338252600460205260408220610f39828254611461565b90558180808084335af1610f4b61149f565b5015610f84576040519081527f7fcf532c15f0a6db0bd6d0e038bea71d30d808c7d98cb3bf7268a95bf5081b6560203392a26001815580f35b60405162461bcd60e51b815260206004820152600f60248201526e1514905394d1915497d19052531151608a1b6044820152606490fd5b631e9acf1760e31b8252600482fd5b5034610172576020366003190112610172576001600160a01b03610fec611329565b168152600660205260408120805461100381611436565b9161101160405193846113d1565b818352601f1961102083611436565b01845b81811061114d575050835b828110611087578385604051918291602083016020845282518091526020604085019301915b818110611062575050500390f35b9193509160206101208261107960019488516112a4565b019401910191849392611054565b8061109460019284611344565b90549060031b1c86526005602052604086206004604051916110b58361139f565b848060a01b038154168352848060a01b03858201541660208401526002810154858060a01b038116604085015263ffffffff8160a01c1660608501528060c01c60020b608085015260d81c60020b60a084015260ff60038201546001600160401b03811660c086015260401c16151560e0840152015461010082015261113b828761144d565b52611146818661144d565b500161102e565b6020906111586113f2565b82828801015201611023565b50346101725760203660031901126101725760043580151580910361091d576001546001600160a01b031633036101d5576007805460ff60a81b191660a89290921b60ff60a81b1691909117905580f35b5034610172576020366003190112610172576040610120916111d56113f2565b5060043581526005602052206004604051916111f08361139f565b60018060a01b03815416835260018060a01b036001820154166020840152600281015460018060a01b038116604085015263ffffffff8160a01c1660608501528060c01c60020b608085015260d81c60020b60a084015260ff60038201546001600160401b03811660c086015260401c16151560e0840152015461010082015261127d60405180926112a4565bf35b90503461091d578160031936011261091d576007546001600160a01b03168152602090f35b610100809160018060a01b03815116845260018060a01b03602082015116602085015260018060a01b03604082015116604085015263ffffffff6060820151166060850152608081015160020b608085015260a081015160020b60a08501526001600160401b0360c08201511660c085015260e0810151151560e08501520151910152565b600435906001600160a01b038216820361133f57565b600080fd5b805482101561135c5760005260206000200190600090565b634e487b7160e01b600052603260045260246000fd5b9181601f8401121561133f578235916001600160401b03831161133f576020838186019501011161133f57565b61012081019081106001600160401b038211176113bb57604052565b634e487b7160e01b600052604160045260246000fd5b90601f801991011681019081106001600160401b038211176113bb57604052565b604051906113ff8261139f565b6000610100838281528260208201528260408201528260608201528260808201528260a08201528260c08201528260e08201520152565b6001600160401b0381116113bb5760051b60200190565b805182101561135c5760209160051b010190565b9190820391821161146e57565b634e487b7160e01b600052601160045260246000fd5b6001600160401b0381116113bb57601f01601f191660200190565b3d156114ca573d906114b082611484565b916114be60405193846113d1565b82523d6000602084013e565b606090565b9190820180921161146e57565b908060209392818452848401376000828201840152601f01601f1916010190565b92906115169061152495936040865260408601916114dc565b9260208185039101526114dc565b90565b600260005414611538576002600055565b633ee5aeb560e01b60005260046000fdfea2646970667358221220a1647f05ebcdeaa76b6918b1e85ce73cf3f6c81d0a7f31c87af35dfe8d1696b764736f6c634300081c0033","opcodes":"PUSH1 0x80 DUP1 PUSH1 0x40 MSTORE CALLVALUE PUSH1 0x63 JUMPI PUSH1 0x1 PUSH1 0x0 DUP2 SWAP1 SSTORE DUP1 SLOAD PUSH1 0x1 PUSH1 0x1 PUSH1 0xA0 SHL SUB NOT SWAP1 DUP2 AND CALLER SWAP1 DUP2 OR SWAP1 SWAP3 SSTORE PUSH1 0x2 DUP1 SLOAD SWAP1 SWAP2 AND DUP3 OR SWAP1 SSTORE PUSH1 0x3 DUP1 SLOAD PUSH1 0x7 DUP1 SLOAD PUSH1 0x1 PUSH1 0x1 PUSH1 0xA8 SHL SUB NOT SWAP1 DUP2 AND SWAP1 SWAP2 SSTORE AND PUSH1 0xFF PUSH1 0xA0 SHL NOT SWAP1 SWAP3 AND SWAP2 SWAP1 SWAP2 OR SWAP1 SSTORE PUSH2 0x157F SWAP1 DUP2 PUSH2 0x69 DUP3 CODECOPY RETURN JUMPDEST PUSH1 0x0 DUP1 REVERT INVALID PUSH1 0x80 DUP1 PUSH1 0x40 MSTORE PUSH1 0x4 CALLDATASIZE LT ISZERO PUSH2 0x13 JUMPI PUSH1 0x0 DUP1 REVERT JUMPDEST PUSH1 0x0 SWAP1 DUP2 CALLDATALOAD PUSH1 0xE0 SHR SWAP1 DUP2 PUSH4 0x77120CC EQ PUSH2 0x127F JUMPI POP DUP1 PUSH4 0x1928B3CB EQ PUSH2 0x11B5 JUMPI DUP1 PUSH4 0x1FF1292F EQ PUSH2 0x1164 JUMPI DUP1 PUSH4 0x26224C64 EQ PUSH2 0xE1F JUMPI DUP1 PUSH4 0x2A6BC2DD EQ PUSH2 0xFCA JUMPI DUP1 PUSH4 0x2E1A7D4D EQ PUSH2 0xEEC JUMPI DUP1 PUSH4 0x2FEFE440 EQ PUSH2 0xE8B JUMPI DUP1 PUSH4 0x3F4BA83A EQ PUSH2 0xE58 JUMPI DUP1 PUSH4 0x47734892 EQ PUSH2 0xE1F JUMPI DUP1 PUSH4 0x514EA4BF EQ PUSH2 0xD70 JUMPI DUP1 PUSH4 0x570CA735 EQ PUSH2 0xD47 JUMPI DUP1 PUSH4 0x5C975ABB EQ PUSH2 0xD21 JUMPI DUP1 PUSH4 0x5DAD35CA EQ PUSH2 0xC67 JUMPI DUP1 PUSH4 0x5E1B4D99 EQ PUSH2 0xC10 JUMPI DUP1 PUSH4 0x75829DEF EQ PUSH2 0xBA3 JUMPI DUP1 PUSH4 0x8456CB59 EQ PUSH2 0xB6A JUMPI DUP1 PUSH4 0x9A270ACD EQ PUSH2 0xAE1 JUMPI DUP1 PUSH4 0x9B2C59E6 EQ PUSH2 0xABB JUMPI DUP1 PUSH4 0xB3AB15FB EQ PUSH2 0xA6A JUMPI DUP1 PUSH4 0xC4AA43D9 EQ PUSH2 0x94A JUMPI DUP1 PUSH4 0xCAA6FEA4 EQ PUSH2 0x921 JUMPI DUP1 PUSH4 0xCAFFC49C EQ PUSH2 0x841 JUMPI DUP1 PUSH4 0xCD9EA342 EQ PUSH2 0x81B JUMPI DUP1 PUSH4 0xD0E30DB0 EQ PUSH2 0x7A6 JUMPI DUP1 PUSH4 0xDD67D25A EQ PUSH2 0x1E4 JUMPI DUP1 PUSH4 0xEB02A115 EQ PUSH2 0x175 JUMPI PUSH4 0xF851A440 EQ PUSH2 0x14A JUMPI PUSH1 0x0 DUP1 REVERT JUMPDEST CALLVALUE PUSH2 0x172 JUMPI DUP1 PUSH1 0x3 NOT CALLDATASIZE ADD SLT PUSH2 0x172 JUMPI PUSH1 0x1 SLOAD PUSH1 0x40 MLOAD PUSH1 0x1 PUSH1 0x1 PUSH1 0xA0 SHL SUB SWAP1 SWAP2 AND DUP2 MSTORE PUSH1 0x20 SWAP1 RETURN JUMPDEST DUP1 REVERT JUMPDEST POP CALLVALUE PUSH2 0x172 JUMPI PUSH1 0x20 CALLDATASIZE PUSH1 0x3 NOT ADD SLT PUSH2 0x172 JUMPI PUSH2 0x18F PUSH2 0x1329 JUMP JUMPDEST PUSH1 0x1 SLOAD PUSH1 0x1 PUSH1 0x1 PUSH1 0xA0 SHL SUB AND CALLER SUB PUSH2 0x1D5 JUMPI PUSH1 0x1 PUSH1 0x1 PUSH1 0xA0 SHL SUB AND DUP1 ISZERO PUSH2 0x1C6 JUMPI PUSH1 0x1 PUSH1 0x1 PUSH1 0x60 SHL SUB PUSH1 0xA0 SHL PUSH1 0x3 SLOAD AND OR PUSH1 0x3 SSTORE DUP1 RETURN JUMPDEST PUSH4 0xD92E233D PUSH1 0xE0 SHL DUP3 MSTORE PUSH1 0x4 DUP3 REVERT JUMPDEST PUSH4 0x7BFA4B9F PUSH1 0xE0 SHL DUP3 MSTORE PUSH1 0x4 DUP3 REVERT JUMPDEST POP CALLVALUE PUSH2 0x172 JUMPI PUSH2 0x120 CALLDATASIZE PUSH1 0x3 NOT ADD SLT PUSH2 0x172 JUMPI PUSH2 0x1FF PUSH2 0x1329 JUMP JUMPDEST PUSH1 0x24 CALLDATALOAD PUSH4 0xFFFFFFFF DUP2 AND SWAP1 DUP2 DUP2 SUB PUSH2 0x7A2 JUMPI PUSH1 0x44 CALLDATALOAD PUSH1 0x1 PUSH1 0x1 PUSH1 0xA0 SHL SUB DUP2 AND SWAP3 SWAP1 DUP4 DUP2 SUB PUSH2 0x79E JUMPI PUSH1 0x64 CALLDATALOAD SWAP2 PUSH1 0x1 PUSH1 0x1 PUSH1 0xA0 SHL SUB DUP4 AND SWAP1 DUP2 DUP5 SUB PUSH2 0x708 JUMPI PUSH1 0x84 CALLDATALOAD PUSH1 0xA4 CALLDATALOAD SWAP7 DUP8 PUSH1 0x2 SIGNEXTEND DUP1 SWAP9 SUB PUSH2 0x79A JUMPI PUSH1 0xC4 CALLDATALOAD DUP1 PUSH1 0x2 SIGNEXTEND DUP1 SWAP2 SUB PUSH2 0x796 JUMPI PUSH1 0xE4 CALLDATALOAD PUSH1 0x1 PUSH1 0x1 PUSH1 0x40 SHL SUB DUP2 GT PUSH2 0x792 JUMPI PUSH2 0x27C SWAP1 CALLDATASIZE SWAP1 PUSH1 0x4 ADD PUSH2 0x1372 JUMP JUMPDEST SWAP10 SWAP1 SWAP11 PUSH2 0x104 CALLDATALOAD PUSH1 0x1 PUSH1 0x1 PUSH1 0x40 SHL SUB DUP2 GT PUSH2 0x78E JUMPI PUSH2 0x29F SWAP1 CALLDATASIZE SWAP1 PUSH1 0x4 ADD PUSH2 0x1372 JUMP JUMPDEST PUSH1 0x2 SLOAD SWAP1 SWAP12 SWAP2 SWAP11 SWAP1 PUSH1 0x1 PUSH1 0x1 PUSH1 0xA0 SHL SUB AND CALLER SUB PUSH2 0x77F JUMPI PUSH1 0xFF PUSH1 0x3 SLOAD PUSH1 0xA0 SHR AND PUSH2 0x770 JUMPI PUSH1 0x1 PUSH1 0x1 PUSH1 0xA0 SHL SUB DUP4 AND SWAP10 DUP11 ISZERO PUSH2 0x760 JUMPI DUP8 ISZERO PUSH2 0x750 JUMPI DUP6 DUP6 SLT ISZERO PUSH2 0x740 JUMPI PUSH1 0x7 SLOAD PUSH1 0x1 PUSH1 0x1 PUSH1 0xA0 SHL SUB AND ISZERO PUSH2 0x730 JUMPI DUP16 PUSH1 0x40 DUP2 DUP14 DUP12 SWAP4 MSTORE PUSH1 0x4 PUSH1 0x20 MSTORE KECCAK256 SLOAD LT PUSH2 0x720 JUMPI PUSH1 0x40 MLOAD PUSH1 0x60 SWAP5 DUP6 SHL PUSH12 0xFFFFFFFFFFFFFFFFFFFFFFFF NOT SWAP1 DUP2 AND PUSH1 0x20 DUP4 ADD SWAP1 DUP2 MSTORE PUSH1 0xE0 SWAP6 SWAP1 SWAP6 SHL PUSH1 0x1 PUSH1 0x1 PUSH1 0xE0 SHL SUB NOT AND PUSH1 0x34 DUP4 ADD MSTORE SWAP2 DUP6 SHL DUP3 AND PUSH1 0x38 DUP3 ADD MSTORE SWAP2 DUP5 SHL AND PUSH1 0x4C DUP3 ADD MSTORE TIMESTAMP DUP4 DUP3 ADD MSTORE SWAP2 DUP3 MSTORE PUSH1 0x4 SWAP3 DUP7 SWAP3 DUP16 SWAP3 SWAP1 PUSH2 0x36A PUSH1 0x80 DUP3 PUSH2 0x13D1 JUMP JUMPDEST MLOAD SWAP1 KECCAK256 SWAP9 DUP10 SWAP2 PUSH1 0x40 MLOAD SWAP7 PUSH2 0x37D DUP9 PUSH2 0x139F JUMP JUMPDEST DUP13 DUP9 MSTORE PUSH1 0x20 DUP9 ADD DUP10 DUP2 MSTORE PUSH1 0x40 DUP10 ADD SWAP4 DUP5 MSTORE PUSH1 0x60 DUP10 ADD SWAP1 DUP13 DUP3 MSTORE PUSH1 0x80 DUP11 ADD SWAP4 DUP5 MSTORE PUSH1 0xA0 DUP11 ADD SWAP3 DUP4 MSTORE PUSH1 0x40 PUSH1 0xC0 DUP12 ADD SWAP8 PUSH1 0x1 PUSH1 0x1 PUSH1 0x40 SHL SUB TIMESTAMP AND DUP10 MSTORE PUSH1 0xE0 DUP13 ADD SWAP8 PUSH1 0x1 DUP10 MSTORE PUSH2 0x100 DUP14 ADD SWAP11 DUP12 MSTORE DUP2 MSTORE PUSH1 0x5 PUSH1 0x20 MSTORE KECCAK256 SWAP10 PUSH1 0x1 DUP1 PUSH1 0xA0 SHL SUB SWAP1 PUSH1 0x1 DUP1 PUSH1 0xA0 SHL SUB SWAP1 MLOAD AND AND PUSH1 0x1 PUSH1 0x1 PUSH1 0x60 SHL SUB PUSH1 0xA0 SHL DUP12 SLOAD AND OR DUP11 SSTORE PUSH1 0x1 DUP1 PUSH1 0xA0 SHL SUB SWAP1 MLOAD AND PUSH1 0x1 DUP11 ADD SWAP1 PUSH1 0x1 DUP1 PUSH1 0xA0 SHL SUB AND PUSH1 0x1 PUSH1 0x1 PUSH1 0x60 SHL SUB PUSH1 0xA0 SHL DUP3 SLOAD AND OR SWAP1 SSTORE PUSH1 0x2 DUP10 ADD SWAP4 PUSH1 0x1 DUP1 PUSH1 0xA0 SHL SUB SWAP1 PUSH1 0x1 DUP1 PUSH1 0xA0 SHL SUB SWAP1 MLOAD AND AND PUSH1 0x1 PUSH1 0x1 PUSH1 0x60 SHL SUB PUSH1 0xA0 SHL DUP6 SLOAD AND OR DUP5 SSTORE MLOAD SWAP2 DUP4 SLOAD SWAP1 MLOAD PUSH1 0xC0 SHL PUSH3 0xFFFFFF PUSH1 0xC0 SHL AND SWAP2 MLOAD PUSH1 0xD8 SHL PUSH3 0xFFFFFF PUSH1 0xD8 SHL AND SWAP3 PUSH4 0xFFFFFFFF PUSH1 0xA0 SHL SWAP1 PUSH1 0xA0 SHL AND SWAP1 PUSH10 0xFFFFFFFFFFFFFFFFFFFF PUSH1 0xA0 SHL NOT AND OR OR OR SWAP1 SSTORE PUSH1 0x1 PUSH1 0x1 PUSH1 0x40 SHL SUB PUSH1 0x3 DUP7 ADD SWAP3 MLOAD AND PUSH1 0x1 PUSH1 0x1 PUSH1 0x40 SHL SUB NOT DUP4 SLOAD AND OR DUP3 SSTORE MLOAD ISZERO ISZERO PUSH1 0xFF PUSH1 0x40 SHL DUP3 SLOAD SWAP2 PUSH1 0x40 SHL AND SWAP1 PUSH1 0xFF PUSH1 0x40 SHL NOT AND OR SWAP1 SSTORE MLOAD SWAP2 ADD SSTORE DUP5 DUP11 MSTORE PUSH1 0x6 PUSH1 0x20 MSTORE PUSH1 0x40 DUP11 KECCAK256 DUP1 SLOAD SWAP1 PUSH9 0x10000000000000000 DUP3 LT ISZERO PUSH2 0x70C JUMPI SWAP2 PUSH2 0x51A DUP3 PUSH32 0x9A5B32500137D63609212582C47C2E2486052DAB88567F1FBD0637BE4F2652A0 SWAP7 SWAP5 PUSH1 0x1 PUSH1 0x60 SWAP8 SWAP6 ADD DUP2 SSTORE PUSH2 0x1344 JUMP JUMPDEST DUP2 SLOAD SWAP1 PUSH1 0x3 SHL SWAP1 DUP9 DUP3 SHL SWAP2 PUSH1 0x0 NOT SWAP1 SHL NOT AND OR SWAP1 SSTORE DUP7 DUP13 MSTORE PUSH1 0x4 PUSH1 0x20 MSTORE PUSH1 0x40 DUP13 KECCAK256 PUSH2 0x546 DUP4 DUP3 SLOAD PUSH2 0x1461 JUMP JUMPDEST SWAP1 SSTORE PUSH1 0x40 MLOAD SWAP3 DUP4 MSTORE PUSH1 0x20 DUP4 ADD MSTORE PUSH1 0x40 DUP3 ADD MSTORE LOG3 PUSH1 0x7 SLOAD SWAP1 PUSH1 0xFF DUP3 PUSH1 0xA8 SHR AND ISZERO PUSH2 0x56D JUMPI DUP6 DUP1 RETURN JUMPDEST PUSH2 0x576 DUP4 PUSH2 0x1484 JUMP JUMPDEST PUSH2 0x583 PUSH1 0x40 MLOAD SWAP2 DUP3 PUSH2 0x13D1 JUMP JUMPDEST DUP4 DUP2 MSTORE PUSH1 0x20 DUP2 ADD SWAP1 CALLDATASIZE DUP6 DUP5 ADD GT PUSH2 0x708 JUMPI DUP5 DUP4 DUP4 CALLDATACOPY DUP1 DUP6 ADD PUSH1 0x20 ADD DUP9 SWAP1 MSTORE MLOAD SWAP1 KECCAK256 SWAP5 DUP7 SWAP3 PUSH1 0x60 SWAP1 PUSH1 0x1 PUSH1 0x1 PUSH1 0xA0 SHL SUB AND DUP5 DUP2 EXTCODESIZE ISZERO PUSH2 0x172 JUMPI PUSH1 0x40 MLOAD PUSH4 0x7F0A3BF9 PUSH1 0xE0 SHL DUP2 MSTORE SWAP2 DUP3 SWAP1 DUP2 DUP4 DUP2 PUSH2 0x5DE DUP13 DUP12 DUP16 DUP13 PUSH1 0x4 DUP7 ADD PUSH2 0x14FD JUMP JUMPDEST SUB SWAP3 GAS CALL SWAP1 DUP2 PUSH2 0x6F2 JUMPI JUMPDEST POP DUP8 SWAP2 SWAP1 PUSH2 0x6C2 JUMPI POP PUSH32 0x2BA5ADE46917C616C9AF26A3CE5E85C0DC38796C39D42E9A9B2D930E02C49248 PUSH2 0x649 SWAP4 SWAP5 SWAP6 PUSH2 0x621 PUSH2 0x149F JUMP JUMPDEST SWAP6 JUMPDEST PUSH2 0x634 PUSH1 0x40 MLOAD SWAP3 DUP4 SWAP3 DUP12 DUP9 DUP6 PUSH2 0x14FD JUMP JUMPDEST SUB SWAP1 LOG2 PUSH1 0x40 MLOAD SWAP5 PUSH1 0x60 DUP7 MSTORE PUSH1 0x60 DUP7 ADD SWAP2 PUSH2 0x14DC JUMP JUMPDEST SWAP2 ISZERO ISZERO PUSH1 0x20 DUP5 ADD MSTORE DUP3 DUP3 SUB PUSH1 0x40 DUP5 ADD MSTORE DUP1 MLOAD SWAP1 DUP2 DUP4 MSTORE DUP6 JUMPDEST DUP3 DUP2 LT PUSH2 0x6AD JUMPI POP POP DUP3 DUP3 DUP3 DUP8 PUSH1 0x20 DUP1 SWAP6 PUSH32 0x2D28A5A2CA6843AC7811DCF16BC72DCEA83863FBB74F472BECC28DC57A76827A SWAP9 SWAP8 ADD ADD MSTORE PUSH1 0x1F DUP1 NOT SWAP2 ADD AND ADD SUB ADD SWAP1 LOG2 CODESIZE DUP1 DUP1 DUP1 DUP1 DUP6 DUP1 RETURN JUMPDEST DUP1 PUSH1 0x20 DUP1 SWAP3 DUP5 ADD ADD MLOAD DUP3 DUP3 DUP8 ADD ADD MSTORE ADD PUSH2 0x661 JUMP JUMPDEST SWAP4 POP PUSH32 0x2BA5ADE46917C616C9AF26A3CE5E85C0DC38796C39D42E9A9B2D930E02C49248 PUSH2 0x649 SWAP4 SWAP6 PUSH1 0x1 SWAP7 PUSH2 0x623 JUMP JUMPDEST SWAP9 PUSH2 0x700 DUP2 DUP11 SWAP5 SWAP4 SWAP12 PUSH2 0x13D1 JUMP JUMPDEST SWAP9 SWAP1 SWAP2 PUSH2 0x5E9 JUMP JUMPDEST DUP8 DUP1 REVERT JUMPDEST PUSH4 0x4E487B71 PUSH1 0xE0 SHL DUP13 MSTORE PUSH1 0x41 PUSH1 0x4 MSTORE PUSH1 0x24 DUP13 REVERT JUMPDEST POP PUSH4 0x1E9ACF17 PUSH1 0xE3 SHL DUP16 MSTORE PUSH1 0x4 DUP16 REVERT JUMPDEST POP PUSH4 0x95B60D61 PUSH1 0xE0 SHL DUP16 MSTORE PUSH1 0x4 DUP16 REVERT JUMPDEST POP PUSH4 0x561CE9BB PUSH1 0xE0 SHL DUP16 MSTORE PUSH1 0x4 DUP16 REVERT JUMPDEST POP PUSH4 0x65E52D51 PUSH1 0xE1 SHL DUP16 MSTORE PUSH1 0x4 DUP16 REVERT JUMPDEST POP PUSH4 0xD92E233D PUSH1 0xE0 SHL DUP16 MSTORE PUSH1 0x4 DUP16 REVERT JUMPDEST PUSH4 0x13D0FF59 PUSH1 0xE3 SHL DUP16 MSTORE PUSH1 0x4 DUP16 REVERT JUMPDEST PUSH4 0x1F0853C1 PUSH1 0xE2 SHL DUP16 MSTORE PUSH1 0x4 DUP16 REVERT JUMPDEST DUP14 DUP1 REVERT JUMPDEST DUP12 DUP1 REVERT JUMPDEST DUP11 DUP1 REVERT JUMPDEST DUP10 DUP1 REVERT JUMPDEST DUP6 DUP1 REVERT JUMPDEST DUP4 DUP1 REVERT JUMPDEST POP DUP1 PUSH1 0x3 NOT CALLDATASIZE ADD SLT PUSH2 0x172 JUMPI PUSH2 0x7BA PUSH2 0x1527 JUMP JUMPDEST CALLVALUE ISZERO PUSH2 0x80C JUMPI CALLER DUP2 MSTORE PUSH1 0x4 PUSH1 0x20 MSTORE PUSH1 0x40 DUP2 KECCAK256 PUSH2 0x7D7 CALLVALUE DUP3 SLOAD PUSH2 0x14CF JUMP JUMPDEST SWAP1 SSTORE PUSH1 0x40 MLOAD CALLVALUE DUP2 MSTORE PUSH32 0xE1FFFCC4923D04B559F4D29A8BFC6CDA04EB5B0D3C460751C2402C5C5CC9109C PUSH1 0x20 CALLER SWAP3 LOG2 PUSH1 0x1 DUP2 SSTORE DUP1 RETURN JUMPDEST PUSH4 0x65E52D51 PUSH1 0xE1 SHL DUP2 MSTORE PUSH1 0x4 SWAP1 REVERT JUMPDEST POP CALLVALUE PUSH2 0x172 JUMPI DUP1 PUSH1 0x3 NOT CALLDATASIZE ADD SLT PUSH2 0x172 JUMPI PUSH1 0x20 PUSH1 0xFF PUSH1 0x7 SLOAD PUSH1 0xA8 SHR AND PUSH1 0x40 MLOAD SWAP1 ISZERO ISZERO DUP2 MSTORE RETURN JUMPDEST POP CALLVALUE PUSH2 0x172 JUMPI PUSH1 0x40 CALLDATASIZE PUSH1 0x3 NOT ADD SLT PUSH2 0x172 JUMPI PUSH1 0x4 CALLDATALOAD PUSH4 0xFFFFFFFF DUP2 AND DUP1 SWAP2 SUB PUSH2 0x91D JUMPI PUSH1 0x3 SLOAD PUSH1 0x24 CALLDATALOAD SWAP2 SWAP1 PUSH1 0x1 PUSH1 0x1 PUSH1 0xA0 SHL SUB AND CALLER SUB PUSH2 0x90E JUMPI DUP2 DUP4 MSTORE PUSH1 0x5 PUSH1 0x20 MSTORE PUSH1 0x40 DUP4 KECCAK256 SWAP1 PUSH1 0x3 DUP3 ADD SWAP1 DUP2 SLOAD SWAP1 PUSH1 0xFF DUP3 PUSH1 0x40 SHR AND ISZERO PUSH2 0x8FF JUMPI PUSH4 0xFFFFFFFF PUSH1 0x2 DUP6 ADD SLOAD PUSH1 0xA0 SHR AND SUB PUSH2 0x8F0 JUMPI PUSH1 0xFF PUSH1 0x40 SHL NOT AND SWAP1 SSTORE PUSH1 0x1 DUP1 PUSH1 0xA0 SHL SUB SWAP1 SLOAD AND SWAP1 PUSH32 0x385FAAC62E36E04554CD60315FC6716EAF7FC15BBA95B3790F4B351DFA10BAD8 PUSH1 0x20 PUSH1 0x40 MLOAD DUP6 DUP2 MSTORE LOG3 DUP1 RETURN JUMPDEST PUSH4 0xA179F8C9 PUSH1 0xE0 SHL DUP6 MSTORE PUSH1 0x4 DUP6 REVERT JUMPDEST PUSH4 0xA8A168BF PUSH1 0xE0 SHL DUP7 MSTORE PUSH1 0x4 DUP7 REVERT JUMPDEST PUSH4 0x3CA9F4D PUSH1 0xE1 SHL DUP4 MSTORE PUSH1 0x4 DUP4 REVERT JUMPDEST POP DUP1 REVERT JUMPDEST POP CALLVALUE PUSH2 0x172 JUMPI DUP1 PUSH1 0x3 NOT CALLDATASIZE ADD SLT PUSH2 0x172 JUMPI PUSH1 0x3 SLOAD PUSH1 0x40 MLOAD PUSH1 0x1 PUSH1 0x1 PUSH1 0xA0 SHL SUB SWAP1 SWAP2 AND DUP2 MSTORE PUSH1 0x20 SWAP1 RETURN JUMPDEST POP PUSH1 0x20 CALLDATASIZE PUSH1 0x3 NOT ADD SLT PUSH2 0x172 JUMPI PUSH1 0x2 SLOAD PUSH1 0x4 CALLDATALOAD SWAP1 PUSH1 0x1 PUSH1 0x1 PUSH1 0xA0 SHL SUB AND CALLER SUB PUSH2 0xA5B JUMPI PUSH2 0x975 PUSH2 0x1527 JUMP JUMPDEST CALLVALUE ISZERO PUSH2 0xA4C JUMPI DUP1 DUP3 MSTORE PUSH1 0x5 PUSH1 0x20 MSTORE PUSH1 0x40 DUP3 KECCAK256 SWAP1 PUSH1 0x3 DUP3 ADD DUP1 SLOAD PUSH1 0xFF DUP2 PUSH1 0x40 SHR AND ISZERO PUSH2 0xA3D JUMPI PUSH9 0xFF0000000000000000 NOT AND SWAP1 SSTORE DUP2 SLOAD PUSH1 0x1 PUSH1 0x1 PUSH1 0xA0 SHL SUB AND DUP4 MSTORE PUSH1 0x4 PUSH1 0x20 MSTORE PUSH1 0x40 DUP4 KECCAK256 DUP1 SLOAD PUSH2 0x9CB SWAP1 CALLVALUE SWAP1 PUSH2 0x14CF JUMP JUMPDEST SWAP1 SSTORE PUSH32 0xA8BC750A5AF603B81D1D73928261812951E56844201C36805845C3EA53E0657C PUSH1 0x40 PUSH1 0x4 PUSH1 0x1 DUP1 PUSH1 0xA0 SHL SUB DUP6 SLOAD AND SWAP5 DUP6 DUP6 PUSH32 0x385FAAC62E36E04554CD60315FC6716EAF7FC15BBA95B3790F4B351DFA10BAD8 PUSH1 0x20 DUP7 MLOAD CALLVALUE DUP2 MSTORE LOG3 ADD SLOAD DUP2 MLOAD SWAP1 CALLVALUE DUP3 MSTORE PUSH1 0x20 DUP3 ADD MSTORE LOG3 PUSH1 0x1 DUP2 SSTORE DUP1 RETURN JUMPDEST PUSH4 0xA8A168BF PUSH1 0xE0 SHL DUP6 MSTORE PUSH1 0x4 DUP6 REVERT JUMPDEST PUSH4 0x65E52D51 PUSH1 0xE1 SHL DUP3 MSTORE PUSH1 0x4 DUP3 REVERT JUMPDEST PUSH4 0x1F0853C1 PUSH1 0xE2 SHL DUP3 MSTORE PUSH1 0x4 DUP3 REVERT JUMPDEST POP CALLVALUE PUSH2 0x172 JUMPI PUSH1 0x20 CALLDATASIZE PUSH1 0x3 NOT ADD SLT PUSH2 0x172 JUMPI PUSH2 0xA84 PUSH2 0x1329 JUMP JUMPDEST PUSH1 0x1 SLOAD PUSH1 0x1 PUSH1 0x1 PUSH1 0xA0 SHL SUB AND CALLER SUB PUSH2 0x1D5 JUMPI PUSH1 0x1 PUSH1 0x1 PUSH1 0xA0 SHL SUB AND DUP1 ISZERO PUSH2 0x1C6 JUMPI PUSH1 0x1 PUSH1 0x1 PUSH1 0x60 SHL SUB PUSH1 0xA0 SHL PUSH1 0x2 SLOAD AND OR PUSH1 0x2 SSTORE DUP1 RETURN JUMPDEST POP CALLVALUE PUSH2 0x172 JUMPI DUP1 PUSH1 0x3 NOT CALLDATASIZE ADD SLT PUSH2 0x172 JUMPI PUSH1 0x20 PUSH1 0xFF PUSH1 0x7 SLOAD PUSH1 0xA0 SHR AND PUSH1 0x40 MLOAD SWAP1 ISZERO ISZERO DUP2 MSTORE RETURN JUMPDEST POP CALLVALUE PUSH2 0x172 JUMPI DUP1 PUSH1 0x3 NOT CALLDATASIZE ADD SLT PUSH2 0x172 JUMPI PUSH1 0x1 SLOAD PUSH1 0x1 PUSH1 0x1 PUSH1 0xA0 SHL SUB AND CALLER SUB PUSH2 0xB5B JUMPI PUSH1 0x7 SLOAD PUSH1 0xFF DUP2 PUSH1 0xA0 SHR AND PUSH2 0xB25 JUMPI PUSH1 0xFF PUSH1 0xA0 SHL NOT AND PUSH1 0x1 PUSH1 0xA0 SHL OR PUSH1 0x7 SSTORE DUP1 RETURN JUMPDEST PUSH1 0x40 MLOAD PUSH3 0x461BCD PUSH1 0xE5 SHL DUP2 MSTORE PUSH1 0x20 PUSH1 0x4 DUP3 ADD MSTORE PUSH1 0xE PUSH1 0x24 DUP3 ADD MSTORE PUSH14 0x30B63932B0B23C90333937BD32B7 PUSH1 0x91 SHL PUSH1 0x44 DUP3 ADD MSTORE PUSH1 0x64 SWAP1 REVERT JUMPDEST PUSH4 0x7BFA4B9F PUSH1 0xE0 SHL DUP2 MSTORE PUSH1 0x4 SWAP1 REVERT JUMPDEST POP CALLVALUE PUSH2 0x172 JUMPI DUP1 PUSH1 0x3 NOT CALLDATASIZE ADD SLT PUSH2 0x172 JUMPI PUSH1 0x1 SLOAD PUSH1 0x1 PUSH1 0x1 PUSH1 0xA0 SHL SUB AND CALLER SUB PUSH2 0xB5B JUMPI PUSH1 0x3 DUP1 SLOAD PUSH1 0xFF PUSH1 0xA0 SHL NOT AND PUSH1 0x1 PUSH1 0xA0 SHL OR SWAP1 SSTORE DUP1 RETURN JUMPDEST POP CALLVALUE PUSH2 0x172 JUMPI PUSH1 0x20 CALLDATASIZE PUSH1 0x3 NOT ADD SLT PUSH2 0x172 JUMPI PUSH2 0xBBD PUSH2 0x1329 JUMP JUMPDEST PUSH1 0x1 SLOAD SWAP1 PUSH1 0x1 PUSH1 0x1 PUSH1 0xA0 SHL SUB DUP3 AND CALLER SUB PUSH2 0xC01 JUMPI PUSH1 0x1 PUSH1 0x1 PUSH1 0xA0 SHL SUB AND SWAP1 DUP2 ISZERO PUSH2 0xBF2 JUMPI PUSH1 0x1 PUSH1 0x1 PUSH1 0xA0 SHL SUB NOT AND OR PUSH1 0x1 SSTORE DUP1 RETURN JUMPDEST PUSH4 0xD92E233D PUSH1 0xE0 SHL DUP4 MSTORE PUSH1 0x4 DUP4 REVERT JUMPDEST PUSH4 0x7BFA4B9F PUSH1 0xE0 SHL DUP4 MSTORE PUSH1 0x4 DUP4 REVERT JUMPDEST POP CALLVALUE PUSH2 0x172 JUMPI PUSH1 0x40 CALLDATASIZE PUSH1 0x3 NOT ADD SLT PUSH2 0x172 JUMPI PUSH2 0xC2A PUSH2 0x1329 JUMP JUMPDEST PUSH1 0x1 PUSH1 0x1 PUSH1 0xA0 SHL SUB AND DUP2 MSTORE PUSH1 0x6 PUSH1 0x20 MSTORE PUSH1 0x40 DUP2 KECCAK256 DUP1 SLOAD PUSH1 0x24 CALLDATALOAD SWAP3 SWAP1 DUP4 LT ISZERO PUSH2 0x172 JUMPI PUSH1 0x20 PUSH2 0xC58 DUP5 DUP5 PUSH2 0x1344 JUMP JUMPDEST SWAP1 SLOAD SWAP1 PUSH1 0x3 SHL SHR PUSH1 0x40 MLOAD SWAP1 DUP2 MSTORE RETURN JUMPDEST POP CALLVALUE PUSH2 0x172 JUMPI PUSH1 0x20 CALLDATASIZE PUSH1 0x3 NOT ADD SLT PUSH2 0x172 JUMPI PUSH2 0xC81 PUSH2 0x1329 JUMP JUMPDEST PUSH1 0x1 SLOAD PUSH1 0x1 PUSH1 0x1 PUSH1 0xA0 SHL SUB AND CALLER SUB PUSH2 0x1D5 JUMPI PUSH1 0x7 SLOAD SWAP1 PUSH1 0xFF DUP3 PUSH1 0xA0 SHR AND PUSH2 0xCE4 JUMPI PUSH1 0x1 PUSH1 0x1 PUSH1 0xA0 SHL SUB AND PUSH1 0x1 PUSH1 0x1 PUSH1 0xA0 SHL SUB NOT SWAP2 SWAP1 SWAP2 AND DUP2 OR PUSH1 0x7 SSTORE PUSH32 0x92107FCD833D21C9342D998CEB020AC5D7AAA95136A24B3F7E7A17522B26D0E4 DUP3 DUP1 LOG2 DUP1 RETURN JUMPDEST PUSH1 0x40 MLOAD PUSH3 0x461BCD PUSH1 0xE5 SHL DUP2 MSTORE PUSH1 0x20 PUSH1 0x4 DUP3 ADD MSTORE PUSH1 0x15 PUSH1 0x24 DUP3 ADD MSTORE PUSH21 0x3C31B690383932B1B7B6B834B63290333937BD32B7 PUSH1 0x59 SHL PUSH1 0x44 DUP3 ADD MSTORE PUSH1 0x64 SWAP1 REVERT JUMPDEST POP CALLVALUE PUSH2 0x172 JUMPI DUP1 PUSH1 0x3 NOT CALLDATASIZE ADD SLT PUSH2 0x172 JUMPI PUSH1 0x20 PUSH1 0xFF PUSH1 0x3 SLOAD PUSH1 0xA0 SHR AND PUSH1 0x40 MLOAD SWAP1 ISZERO ISZERO DUP2 MSTORE RETURN JUMPDEST POP CALLVALUE PUSH2 0x172 JUMPI DUP1 PUSH1 0x3 NOT CALLDATASIZE ADD SLT PUSH2 0x172 JUMPI PUSH1 0x2 SLOAD PUSH1 0x40 MLOAD PUSH1 0x1 PUSH1 0x1 PUSH1 0xA0 SHL SUB SWAP1 SWAP2 AND DUP2 MSTORE PUSH1 0x20 SWAP1 RETURN JUMPDEST POP CALLVALUE PUSH2 0x172 JUMPI PUSH1 0x20 CALLDATASIZE PUSH1 0x3 NOT ADD SLT PUSH2 0x172 JUMPI PUSH1 0x40 PUSH2 0x120 SWAP2 PUSH1 0x4 CALLDATALOAD DUP2 MSTORE PUSH1 0x5 PUSH1 0x20 MSTORE KECCAK256 PUSH1 0x1 DUP1 PUSH1 0xA0 SHL SUB DUP2 SLOAD AND SWAP1 PUSH1 0xFF PUSH1 0x1 DUP1 PUSH1 0xA0 SHL SUB PUSH1 0x1 DUP4 ADD SLOAD AND SWAP2 PUSH1 0x2 DUP2 ADD SLOAD PUSH1 0x4 PUSH1 0x3 DUP4 ADD SLOAD SWAP3 ADD SLOAD SWAP4 PUSH1 0x40 MLOAD SWAP6 DUP7 MSTORE PUSH1 0x20 DUP7 ADD MSTORE PUSH1 0x1 DUP1 PUSH1 0xA0 SHL SUB DUP2 AND PUSH1 0x40 DUP7 ADD MSTORE PUSH4 0xFFFFFFFF DUP2 PUSH1 0xA0 SHR AND PUSH1 0x60 DUP7 ADD MSTORE DUP1 PUSH1 0xC0 SHR PUSH1 0x2 SIGNEXTEND PUSH1 0x80 DUP7 ADD MSTORE PUSH1 0xD8 SHR PUSH1 0x2 SIGNEXTEND PUSH1 0xA0 DUP6 ADD MSTORE PUSH1 0x1 PUSH1 0x1 PUSH1 0x40 SHL SUB DUP2 AND PUSH1 0xC0 DUP6 ADD MSTORE PUSH1 0x40 SHR AND ISZERO ISZERO PUSH1 0xE0 DUP4 ADD MSTORE PUSH2 0x100 DUP3 ADD MSTORE RETURN JUMPDEST POP CALLVALUE PUSH2 0x172 JUMPI PUSH1 0x20 CALLDATASIZE PUSH1 0x3 NOT ADD SLT PUSH2 0x172 JUMPI PUSH1 0x20 SWAP1 PUSH1 0x40 SWAP1 PUSH1 0x1 PUSH1 0x1 PUSH1 0xA0 SHL SUB PUSH2 0xE47 PUSH2 0x1329 JUMP JUMPDEST AND DUP2 MSTORE PUSH1 0x4 DUP4 MSTORE KECCAK256 SLOAD PUSH1 0x40 MLOAD SWAP1 DUP2 MSTORE RETURN JUMPDEST POP CALLVALUE PUSH2 0x172 JUMPI DUP1 PUSH1 0x3 NOT CALLDATASIZE ADD SLT PUSH2 0x172 JUMPI PUSH1 0x1 SLOAD PUSH1 0x1 PUSH1 0x1 PUSH1 0xA0 SHL SUB AND CALLER SUB PUSH2 0xB5B JUMPI PUSH1 0x3 DUP1 SLOAD PUSH1 0xFF PUSH1 0xA0 SHL NOT AND SWAP1 SSTORE DUP1 RETURN JUMPDEST POP CALLVALUE PUSH2 0x172 JUMPI PUSH1 0x40 CALLDATASIZE PUSH1 0x3 NOT ADD SLT PUSH2 0x172 JUMPI PUSH1 0x20 SWAP1 PUSH1 0x40 PUSH2 0xEAA PUSH2 0x1329 JUMP JUMPDEST PUSH1 0x24 CALLDATALOAD DUP4 MSTORE PUSH1 0x5 DUP5 MSTORE SWAP2 KECCAK256 DUP1 SLOAD PUSH1 0x1 PUSH1 0x1 PUSH1 0xA0 SHL SUB SWAP3 DUP4 AND SWAP3 AND SWAP2 SWAP1 SWAP2 EQ SWAP1 DUP2 PUSH2 0xEDA JUMPI JUMPDEST POP PUSH1 0x40 MLOAD SWAP1 ISZERO ISZERO DUP2 MSTORE RETURN JUMPDEST PUSH1 0xFF SWAP2 POP PUSH1 0x3 ADD SLOAD PUSH1 0x40 SHR AND CODESIZE PUSH2 0xECF JUMP JUMPDEST POP CALLVALUE PUSH2 0x172 JUMPI PUSH1 0x20 CALLDATASIZE PUSH1 0x3 NOT ADD SLT PUSH2 0x172 JUMPI PUSH1 0x4 CALLDATALOAD PUSH2 0xF09 PUSH2 0x1527 JUMP JUMPDEST DUP1 ISZERO PUSH2 0xA4C JUMPI CALLER DUP3 MSTORE PUSH1 0x4 PUSH1 0x20 MSTORE DUP1 PUSH1 0x40 DUP4 KECCAK256 SLOAD LT PUSH2 0xFBB JUMPI CALLER DUP3 MSTORE PUSH1 0x4 PUSH1 0x20 MSTORE PUSH1 0x40 DUP3 KECCAK256 PUSH2 0xF39 DUP3 DUP3 SLOAD PUSH2 0x1461 JUMP JUMPDEST SWAP1 SSTORE DUP2 DUP1 DUP1 DUP1 DUP5 CALLER GAS CALL PUSH2 0xF4B PUSH2 0x149F JUMP JUMPDEST POP ISZERO PUSH2 0xF84 JUMPI PUSH1 0x40 MLOAD SWAP1 DUP2 MSTORE PUSH32 0x7FCF532C15F0A6DB0BD6D0E038BEA71D30D808C7D98CB3BF7268A95BF5081B65 PUSH1 0x20 CALLER SWAP3 LOG2 PUSH1 0x1 DUP2 SSTORE DUP1 RETURN JUMPDEST PUSH1 0x40 MLOAD PUSH3 0x461BCD PUSH1 0xE5 SHL DUP2 MSTORE PUSH1 0x20 PUSH1 0x4 DUP3 ADD MSTORE PUSH1 0xF PUSH1 0x24 DUP3 ADD MSTORE PUSH15 0x1514905394D1915497D19052531151 PUSH1 0x8A SHL PUSH1 0x44 DUP3 ADD MSTORE PUSH1 0x64 SWAP1 REVERT JUMPDEST PUSH4 0x1E9ACF17 PUSH1 0xE3 SHL DUP3 MSTORE PUSH1 0x4 DUP3 REVERT JUMPDEST POP CALLVALUE PUSH2 0x172 JUMPI PUSH1 0x20 CALLDATASIZE PUSH1 0x3 NOT ADD SLT PUSH2 0x172 JUMPI PUSH1 0x1 PUSH1 0x1 PUSH1 0xA0 SHL SUB PUSH2 0xFEC PUSH2 0x1329 JUMP JUMPDEST AND DUP2 MSTORE PUSH1 0x6 PUSH1 0x20 MSTORE PUSH1 0x40 DUP2 KECCAK256 DUP1 SLOAD PUSH2 0x1003 DUP2 PUSH2 0x1436 JUMP JUMPDEST SWAP2 PUSH2 0x1011 PUSH1 0x40 MLOAD SWAP4 DUP5 PUSH2 0x13D1 JUMP JUMPDEST DUP2 DUP4 MSTORE PUSH1 0x1F NOT PUSH2 0x1020 DUP4 PUSH2 0x1436 JUMP JUMPDEST ADD DUP5 JUMPDEST DUP2 DUP2 LT PUSH2 0x114D JUMPI POP POP DUP4 JUMPDEST DUP3 DUP2 LT PUSH2 0x1087 JUMPI DUP4 DUP6 PUSH1 0x40 MLOAD SWAP2 DUP3 SWAP2 PUSH1 0x20 DUP4 ADD PUSH1 0x20 DUP5 MSTORE DUP3 MLOAD DUP1 SWAP2 MSTORE PUSH1 0x20 PUSH1 0x40 DUP6 ADD SWAP4 ADD SWAP2 JUMPDEST DUP2 DUP2 LT PUSH2 0x1062 JUMPI POP POP POP SUB SWAP1 RETURN JUMPDEST SWAP2 SWAP4 POP SWAP2 PUSH1 0x20 PUSH2 0x120 DUP3 PUSH2 0x1079 PUSH1 0x1 SWAP5 DUP9 MLOAD PUSH2 0x12A4 JUMP JUMPDEST ADD SWAP5 ADD SWAP2 ADD SWAP2 DUP5 SWAP4 SWAP3 PUSH2 0x1054 JUMP JUMPDEST DUP1 PUSH2 0x1094 PUSH1 0x1 SWAP3 DUP5 PUSH2 0x1344 JUMP JUMPDEST SWAP1 SLOAD SWAP1 PUSH1 0x3 SHL SHR DUP7 MSTORE PUSH1 0x5 PUSH1 0x20 MSTORE PUSH1 0x40 DUP7 KECCAK256 PUSH1 0x4 PUSH1 0x40 MLOAD SWAP2 PUSH2 0x10B5 DUP4 PUSH2 0x139F JUMP JUMPDEST DUP5 DUP1 PUSH1 0xA0 SHL SUB DUP2 SLOAD AND DUP4 MSTORE DUP5 DUP1 PUSH1 0xA0 SHL SUB DUP6 DUP3 ADD SLOAD AND PUSH1 0x20 DUP5 ADD MSTORE PUSH1 0x2 DUP2 ADD SLOAD DUP6 DUP1 PUSH1 0xA0 SHL SUB DUP2 AND PUSH1 0x40 DUP6 ADD MSTORE PUSH4 0xFFFFFFFF DUP2 PUSH1 0xA0 SHR AND PUSH1 0x60 DUP6 ADD MSTORE DUP1 PUSH1 0xC0 SHR PUSH1 0x2 SIGNEXTEND PUSH1 0x80 DUP6 ADD MSTORE PUSH1 0xD8 SHR PUSH1 0x2 SIGNEXTEND PUSH1 0xA0 DUP5 ADD MSTORE PUSH1 0xFF PUSH1 0x3 DUP3 ADD SLOAD PUSH1 0x1 PUSH1 0x1 PUSH1 0x40 SHL SUB DUP2 AND PUSH1 0xC0 DUP7 ADD MSTORE PUSH1 0x40 SHR AND ISZERO ISZERO PUSH1 0xE0 DUP5 ADD MSTORE ADD SLOAD PUSH2 0x100 DUP3 ADD MSTORE PUSH2 0x113B DUP3 DUP8 PUSH2 0x144D JUMP JUMPDEST MSTORE PUSH2 0x1146 DUP2 DUP7 PUSH2 0x144D JUMP JUMPDEST POP ADD PUSH2 0x102E JUMP JUMPDEST PUSH1 0x20 SWAP1 PUSH2 0x1158 PUSH2 0x13F2 JUMP JUMPDEST DUP3 DUP3 DUP9 ADD ADD MSTORE ADD PUSH2 0x1023 JUMP JUMPDEST POP CALLVALUE PUSH2 0x172 JUMPI PUSH1 0x20 CALLDATASIZE PUSH1 0x3 NOT ADD SLT PUSH2 0x172 JUMPI PUSH1 0x4 CALLDATALOAD DUP1 ISZERO ISZERO DUP1 SWAP2 SUB PUSH2 0x91D JUMPI PUSH1 0x1 SLOAD PUSH1 0x1 PUSH1 0x1 PUSH1 0xA0 SHL SUB AND CALLER SUB PUSH2 0x1D5 JUMPI PUSH1 0x7 DUP1 SLOAD PUSH1 0xFF PUSH1 0xA8 SHL NOT AND PUSH1 0xA8 SWAP3 SWAP1 SWAP3 SHL PUSH1 0xFF PUSH1 0xA8 SHL AND SWAP2 SWAP1 SWAP2 OR SWAP1 SSTORE DUP1 RETURN JUMPDEST POP CALLVALUE PUSH2 0x172 JUMPI PUSH1 0x20 CALLDATASIZE PUSH1 0x3 NOT ADD SLT PUSH2 0x172 JUMPI PUSH1 0x40 PUSH2 0x120 SWAP2 PUSH2 0x11D5 PUSH2 0x13F2 JUMP JUMPDEST POP PUSH1 0x4 CALLDATALOAD DUP2 MSTORE PUSH1 0x5 PUSH1 0x20 MSTORE KECCAK256 PUSH1 0x4 PUSH1 0x40 MLOAD SWAP2 PUSH2 0x11F0 DUP4 PUSH2 0x139F JUMP JUMPDEST PUSH1 0x1 DUP1 PUSH1 0xA0 SHL SUB DUP2 SLOAD AND DUP4 MSTORE PUSH1 0x1 DUP1 PUSH1 0xA0 SHL SUB PUSH1 0x1 DUP3 ADD SLOAD AND PUSH1 0x20 DUP5 ADD MSTORE PUSH1 0x2 DUP2 ADD SLOAD PUSH1 0x1 DUP1 PUSH1 0xA0 SHL SUB DUP2 AND PUSH1 0x40 DUP6 ADD MSTORE PUSH4 0xFFFFFFFF DUP2 PUSH1 0xA0 SHR AND PUSH1 0x60 DUP6 ADD MSTORE DUP1 PUSH1 0xC0 SHR PUSH1 0x2 SIGNEXTEND PUSH1 0x80 DUP6 ADD MSTORE PUSH1 0xD8 SHR PUSH1 0x2 SIGNEXTEND PUSH1 0xA0 DUP5 ADD MSTORE PUSH1 0xFF PUSH1 0x3 DUP3 ADD SLOAD PUSH1 0x1 PUSH1 0x1 PUSH1 0x40 SHL SUB DUP2 AND PUSH1 0xC0 DUP7 ADD MSTORE PUSH1 0x40 SHR AND ISZERO ISZERO PUSH1 0xE0 DUP5 ADD MSTORE ADD SLOAD PUSH2 0x100 DUP3 ADD MSTORE PUSH2 0x127D PUSH1 0x40 MLOAD DUP1 SWAP3 PUSH2 0x12A4 JUMP JUMPDEST RETURN JUMPDEST SWAP1 POP CALLVALUE PUSH2 0x91D JUMPI DUP2 PUSH1 0x3 NOT CALLDATASIZE ADD SLT PUSH2 0x91D JUMPI PUSH1 0x7 SLOAD PUSH1 0x1 PUSH1 0x1 PUSH1 0xA0 SHL SUB AND DUP2 MSTORE PUSH1 0x20 SWAP1 RETURN JUMPDEST PUSH2 0x100 DUP1 SWAP2 PUSH1 0x1 DUP1 PUSH1 0xA0 SHL SUB DUP2 MLOAD AND DUP5 MSTORE PUSH1 0x1 DUP1 PUSH1 0xA0 SHL SUB PUSH1 0x20 DUP3 ADD MLOAD AND PUSH1 0x20 DUP6 ADD MSTORE PUSH1 0x1 DUP1 PUSH1 0xA0 SHL SUB PUSH1 0x40 DUP3 ADD MLOAD AND PUSH1 0x40 DUP6 ADD MSTORE PUSH4 0xFFFFFFFF PUSH1 0x60 DUP3 ADD MLOAD AND PUSH1 0x60 DUP6 ADD MSTORE PUSH1 0x80 DUP2 ADD MLOAD PUSH1 0x2 SIGNEXTEND PUSH1 0x80 DUP6 ADD MSTORE PUSH1 0xA0 DUP2 ADD MLOAD PUSH1 0x2 SIGNEXTEND PUSH1 0xA0 DUP6 ADD MSTORE PUSH1 0x1 PUSH1 0x1 PUSH1 0x40 SHL SUB PUSH1 0xC0 DUP3 ADD MLOAD AND PUSH1 0xC0 DUP6 ADD MSTORE PUSH1 0xE0 DUP2 ADD MLOAD ISZERO ISZERO PUSH1 0xE0 DUP6 ADD MSTORE ADD MLOAD SWAP2 ADD MSTORE JUMP JUMPDEST PUSH1 0x4 CALLDATALOAD SWAP1 PUSH1 0x1 PUSH1 0x1 PUSH1 0xA0 SHL SUB DUP3 AND DUP3 SUB PUSH2 0x133F JUMPI JUMP JUMPDEST PUSH1 0x0 DUP1 REVERT JUMPDEST DUP1 SLOAD DUP3 LT ISZERO PUSH2 0x135C JUMPI PUSH1 0x0 MSTORE PUSH1 0x20 PUSH1 0x0 KECCAK256 ADD SWAP1 PUSH1 0x0 SWAP1 JUMP JUMPDEST PUSH4 0x4E487B71 PUSH1 0xE0 SHL PUSH1 0x0 MSTORE PUSH1 0x32 PUSH1 0x4 MSTORE PUSH1 0x24 PUSH1 0x0 REVERT JUMPDEST SWAP2 DUP2 PUSH1 0x1F DUP5 ADD SLT ISZERO PUSH2 0x133F JUMPI DUP3 CALLDATALOAD SWAP2 PUSH1 0x1 PUSH1 0x1 PUSH1 0x40 SHL SUB DUP4 GT PUSH2 0x133F JUMPI PUSH1 0x20 DUP4 DUP2 DUP7 ADD SWAP6 ADD ADD GT PUSH2 0x133F JUMPI JUMP JUMPDEST PUSH2 0x120 DUP2 ADD SWAP1 DUP2 LT PUSH1 0x1 PUSH1 0x1 PUSH1 0x40 SHL SUB DUP3 GT OR PUSH2 0x13BB JUMPI PUSH1 0x40 MSTORE JUMP JUMPDEST PUSH4 0x4E487B71 PUSH1 0xE0 SHL PUSH1 0x0 MSTORE PUSH1 0x41 PUSH1 0x4 MSTORE PUSH1 0x24 PUSH1 0x0 REVERT JUMPDEST SWAP1 PUSH1 0x1F DUP1 NOT SWAP2 ADD AND DUP2 ADD SWAP1 DUP2 LT PUSH1 0x1 PUSH1 0x1 PUSH1 0x40 SHL SUB DUP3 GT OR PUSH2 0x13BB JUMPI PUSH1 0x40 MSTORE JUMP JUMPDEST PUSH1 0x40 MLOAD SWAP1 PUSH2 0x13FF DUP3 PUSH2 0x139F JUMP JUMPDEST PUSH1 0x0 PUSH2 0x100 DUP4 DUP3 DUP2 MSTORE DUP3 PUSH1 0x20 DUP3 ADD MSTORE DUP3 PUSH1 0x40 DUP3 ADD MSTORE DUP3 PUSH1 0x60 DUP3 ADD MSTORE DUP3 PUSH1 0x80 DUP3 ADD MSTORE DUP3 PUSH1 0xA0 DUP3 ADD MSTORE DUP3 PUSH1 0xC0 DUP3 ADD MSTORE DUP3 PUSH1 0xE0 DUP3 ADD MSTORE ADD MSTORE JUMP JUMPDEST PUSH1 0x1 PUSH1 0x1 PUSH1 0x40 SHL SUB DUP2 GT PUSH2 0x13BB JUMPI PUSH1 0x5 SHL PUSH1 0x20 ADD SWAP1 JUMP JUMPDEST DUP1 MLOAD DUP3 LT ISZERO PUSH2 0x135C JUMPI PUSH1 0x20 SWAP2 PUSH1 0x5 SHL ADD ADD SWAP1 JUMP JUMPDEST SWAP2 SWAP1 DUP3 SUB SWAP2 DUP3 GT PUSH2 0x146E JUMPI JUMP JUMPDEST PUSH4 0x4E487B71 PUSH1 0xE0 SHL PUSH1 0x0 MSTORE PUSH1 0x11 PUSH1 0x4 MSTORE PUSH1 0x24 PUSH1 0x0 REVERT JUMPDEST PUSH1 0x1 PUSH1 0x1 PUSH1 0x40 SHL SUB DUP2 GT PUSH2 0x13BB JUMPI PUSH1 0x1F ADD PUSH1 0x1F NOT AND PUSH1 0x20 ADD SWAP1 JUMP JUMPDEST RETURNDATASIZE ISZERO PUSH2 0x14CA JUMPI RETURNDATASIZE SWAP1 PUSH2 0x14B0 DUP3 PUSH2 0x1484 JUMP JUMPDEST SWAP2 PUSH2 0x14BE PUSH1 0x40 MLOAD SWAP4 DUP5 PUSH2 0x13D1 JUMP JUMPDEST DUP3 MSTORE RETURNDATASIZE PUSH1 0x0 PUSH1 0x20 DUP5 ADD RETURNDATACOPY JUMP JUMPDEST PUSH1 0x60 SWAP1 JUMP JUMPDEST SWAP2 SWAP1 DUP3 ADD DUP1 SWAP3 GT PUSH2 0x146E JUMPI JUMP JUMPDEST SWAP1 DUP1 PUSH1 0x20 SWAP4 SWAP3 DUP2 DUP5 MSTORE DUP5 DUP5 ADD CALLDATACOPY PUSH1 0x0 DUP3 DUP3 ADD DUP5 ADD MSTORE PUSH1 0x1F ADD PUSH1 0x1F NOT AND ADD ADD SWAP1 JUMP JUMPDEST SWAP3 SWAP1 PUSH2 0x1516 SWAP1 PUSH2 0x1524 SWAP6 SWAP4 PUSH1 0x40 DUP7 MSTORE PUSH1 0x40 DUP7 ADD SWAP2 PUSH2 0x14DC JUMP JUMPDEST SWAP3 PUSH1 0x20 DUP2 DUP6 SUB SWAP2 ADD MSTORE PUSH2 0x14DC JUMP JUMPDEST SWAP1 JUMP JUMPDEST PUSH1 0x2 PUSH1 0x0 SLOAD EQ PUSH2 0x1538 JUMPI PUSH1 0x2 PUSH1 0x0 SSTORE JUMP JUMPDEST PUSH4 0x3EE5AEB5 PUSH1 0xE0 SHL PUSH1 0x0 MSTORE PUSH1 0x4 PUSH1 0x0 REVERT INVALID LOG2 PUSH5 0x6970667358 0x22 SLT KECCAK256 LOG1 PUSH5 0x7F05EBCDEA 0xA7 PUSH12 0x6918B1E85CE73CF3F6C81D0A PUSH32 0x31C87AF35DFE8D1696B764736F6C634300081C00330000000000000000000000 "},"methodIdentifiers":{"XCM_PRECOMPILE()":"077120cc","admin()":"f851a440","deposit()":"d0e30db0","dispatchInvestment(address,uint32,address,address,uint256,int24,int24,bytes,bytes)":"dd67d25a","emergency()":"caa6fea4","emergencyLiquidatePosition(uint32,bytes32)":"caffc49c","freezeXcmPrecompile()":"9a270acd","getPosition(bytes32)":"1928b3cb","getUserBalance(address)":"47734892","getUserPositions(address)":"2a6bc2dd","isPositionActive(address,bytes32)":"2fefe440","operator()":"570ca735","pause()":"8456cb59","paused()":"5c975abb","positions(bytes32)":"514ea4bf","setEmergency(address)":"eb02a115","setOperator(address)":"b3ab15fb","setTestMode(bool)":"1ff1292f","setXcmPrecompile(address)":"5dad35ca","settleLiquidation(bytes32)":"c4aa43d9","testMode()":"cd9ea342","transferAdmin(address)":"75829def","unpause()":"3f4ba83a","userBalances(address)":"26224c64","userPositions(address,uint256)":"5e1b4d99","withdraw(uint256)":"2e1a7d4d","xcmPrecompileFrozen()":"9b2c59e6"}}}}}