{"contracts/V1(Current)/AssetHubVault.sol":{"AssetHubVault":{"abi":[{"inputs":[],"stateMutability":"nonpayable","type":"constructor"},{"inputs":[],"name":"AmountMismatch","type":"error"},{"inputs":[],"name":"AmountZero","type":"error"},{"inputs":[],"name":"AssetMismatch","type":"error"},{"inputs":[],"name":"ChainIdMismatch","type":"error"},{"inputs":[],"name":"ChainNotSupported","type":"error"},{"inputs":[],"name":"ExecutorNotAuthorized","type":"error"},{"inputs":[],"name":"InsufficientBalance","type":"error"},{"inputs":[],"name":"InvalidRange","type":"error"},{"inputs":[],"name":"NotAdmin","type":"error"},{"inputs":[],"name":"NotEmergency","type":"error"},{"inputs":[],"name":"NotOperator","type":"error"},{"inputs":[],"name":"Paused","type":"error"},{"inputs":[],"name":"PositionNotActive","type":"error"},{"inputs":[],"name":"ReentrancyGuardReentrantCall","type":"error"},{"inputs":[],"name":"UnauthorizedXcmCall","type":"error"},{"inputs":[],"name":"XcmPrecompileNotSet","type":"error"},{"inputs":[],"name":"ZeroAddress","type":"error"},{"anonymous":false,"inputs":[{"indexed":true,"internalType":"uint32","name":"chainId","type":"uint32"},{"indexed":false,"internalType":"bytes","name":"xcmDestination","type":"bytes"},{"indexed":false,"internalType":"address","name":"executor","type":"address"}],"name":"ChainAdded","type":"event"},{"anonymous":false,"inputs":[{"indexed":true,"internalType":"uint32","name":"chainId","type":"uint32"}],"name":"ChainRemoved","type":"event"},{"anonymous":false,"inputs":[{"indexed":true,"internalType":"address","name":"user","type":"address"},{"indexed":false,"internalType":"uint256","name":"amount","type":"uint256"}],"name":"Deposit","type":"event"},{"anonymous":false,"inputs":[{"indexed":true,"internalType":"uint32","name":"chainId","type":"uint32"},{"indexed":false,"internalType":"address","name":"executor","type":"address"}],"name":"ExecutorUpdated","type":"event"},{"anonymous":false,"inputs":[{"indexed":true,"internalType":"bytes32","name":"positionId","type":"bytes32"},{"indexed":true,"internalType":"address","name":"user","type":"address"},{"indexed":false,"internalType":"uint32","name":"chainId","type":"uint32"},{"indexed":false,"internalType":"address","name":"poolId","type":"address"},{"indexed":false,"internalType":"uint256","name":"amount","type":"uint256"}],"name":"InvestmentInitiated","type":"event"},{"anonymous":false,"inputs":[{"indexed":true,"internalType":"bytes32","name":"positionId","type":"bytes32"},{"indexed":true,"internalType":"address","name":"user","type":"address"},{"indexed":false,"internalType":"uint256","name":"receivedAmount","type":"uint256"},{"indexed":false,"internalType":"uint256","name":"expectedAmount","type":"uint256"}],"name":"LiquidationSettled","type":"event"},{"anonymous":false,"inputs":[{"indexed":true,"internalType":"bytes32","name":"positionId","type":"bytes32"},{"indexed":true,"internalType":"uint32","name":"chainId","type":"uint32"},{"indexed":false,"internalType":"bytes32","name":"remotePositionId","type":"bytes32"},{"indexed":false,"internalType":"uint128","name":"liquidity","type":"uint128"}],"name":"PositionExecutionConfirmed","type":"event"},{"anonymous":false,"inputs":[{"indexed":true,"internalType":"bytes32","name":"positionId","type":"bytes32"},{"indexed":true,"internalType":"address","name":"user","type":"address"},{"indexed":false,"internalType":"uint256","name":"finalAmount","type":"uint256"}],"name":"PositionLiquidated","type":"event"},{"anonymous":false,"inputs":[{"indexed":true,"internalType":"address","name":"user","type":"address"},{"indexed":false,"internalType":"uint256","name":"amount","type":"uint256"}],"name":"Withdrawal","type":"event"},{"anonymous":false,"inputs":[{"indexed":true,"internalType":"bytes32","name":"messageHash","type":"bytes32"},{"indexed":false,"internalType":"bytes","name":"destination","type":"bytes"},{"indexed":false,"internalType":"bytes","name":"message","type":"bytes"}],"name":"XCMMessageSent","type":"event"},{"anonymous":false,"inputs":[{"indexed":true,"internalType":"address","name":"precompile","type":"address"}],"name":"XcmPrecompileSet","type":"event"},{"anonymous":false,"inputs":[{"indexed":true,"internalType":"bytes32","name":"messageHash","type":"bytes32"},{"indexed":false,"internalType":"bytes","name":"destination","type":"bytes"},{"indexed":false,"internalType":"bool","name":"success","type":"bool"},{"indexed":false,"internalType":"bytes","name":"errorData","type":"bytes"}],"name":"XcmSendAttempt","type":"event"},{"inputs":[],"name":"XCM_PRECOMPILE","outputs":[{"internalType":"address","name":"","type":"address"}],"stateMutability":"view","type":"function"},{"inputs":[{"internalType":"uint32","name":"chainId","type":"uint32"},{"internalType":"bytes","name":"xcmDestination","type":"bytes"},{"internalType":"string","name":"chainName","type":"string"},{"internalType":"address","name":"executor","type":"address"}],"name":"addChain","outputs":[],"stateMutability":"nonpayable","type":"function"},{"inputs":[],"name":"admin","outputs":[{"internalType":"address","name":"","type":"address"}],"stateMutability":"view","type":"function"},{"inputs":[{"internalType":"uint32","name":"","type":"uint32"}],"name":"chainExecutors","outputs":[{"internalType":"address","name":"","type":"address"}],"stateMutability":"view","type":"function"},{"inputs":[{"internalType":"bytes32","name":"positionId","type":"bytes32"},{"internalType":"bytes32","name":"remotePositionId","type":"bytes32"},{"internalType":"uint128","name":"liquidity","type":"uint128"}],"name":"confirmExecution","outputs":[],"stateMutability":"nonpayable","type":"function"},{"inputs":[],"name":"deposit","outputs":[],"stateMutability":"payable","type":"function"},{"inputs":[{"internalType":"address","name":"user","type":"address"},{"internalType":"uint32","name":"chainId","type":"uint32"},{"internalType":"address","name":"poolId","type":"address"},{"internalType":"address","name":"baseAsset","type":"address"},{"internalType":"uint256","name":"amount","type":"uint256"},{"internalType":"int24","name":"lowerRangePercent","type":"int24"},{"internalType":"int24","name":"upperRangePercent","type":"int24"},{"internalType":"bytes","name":"destination","type":"bytes"},{"internalType":"bytes","name":"preBuiltXcmMessage","type":"bytes"}],"name":"dispatchInvestment","outputs":[],"stateMutability":"nonpayable","type":"function"},{"inputs":[],"name":"emergency","outputs":[{"internalType":"address","name":"","type":"address"}],"stateMutability":"view","type":"function"},{"inputs":[{"internalType":"uint32","name":"chainId","type":"uint32"},{"internalType":"bytes32","name":"positionId","type":"bytes32"}],"name":"emergencyLiquidatePosition","outputs":[],"stateMutability":"payable","type":"function"},{"inputs":[],"name":"freezeXcmPrecompile","outputs":[],"stateMutability":"nonpayable","type":"function"},{"inputs":[{"internalType":"uint32","name":"chainId","type":"uint32"}],"name":"getChainConfig","outputs":[{"components":[{"internalType":"bool","name":"supported","type":"bool"},{"internalType":"bytes","name":"xcmDestination","type":"bytes"},{"internalType":"string","name":"chainName","type":"string"},{"internalType":"uint64","name":"timestamp","type":"uint64"}],"internalType":"struct AssetHubVault.ChainConfig","name":"","type":"tuple"}],"stateMutability":"view","type":"function"},{"inputs":[{"internalType":"bytes32","name":"positionId","type":"bytes32"}],"name":"getPosition","outputs":[{"components":[{"internalType":"address","name":"user","type":"address"},{"internalType":"address","name":"poolId","type":"address"},{"internalType":"address","name":"baseAsset","type":"address"},{"internalType":"uint32","name":"chainId","type":"uint32"},{"internalType":"int24","name":"lowerRangePercent","type":"int24"},{"internalType":"int24","name":"upperRangePercent","type":"int24"},{"internalType":"uint64","name":"timestamp","type":"uint64"},{"internalType":"enum AssetHubVault.PositionStatus","name":"status","type":"uint8"},{"internalType":"uint256","name":"amount","type":"uint256"},{"internalType":"bytes32","name":"remotePositionId","type":"bytes32"}],"internalType":"struct AssetHubVault.Position","name":"","type":"tuple"}],"stateMutability":"view","type":"function"},{"inputs":[{"internalType":"address","name":"user","type":"address"}],"name":"getUserBalance","outputs":[{"internalType":"uint256","name":"","type":"uint256"}],"stateMutability":"view","type":"function"},{"inputs":[{"internalType":"address","name":"user","type":"address"}],"name":"getUserPositionCount","outputs":[{"internalType":"uint256","name":"count","type":"uint256"}],"stateMutability":"view","type":"function"},{"inputs":[{"internalType":"address","name":"user","type":"address"},{"internalType":"uint256","name":"start","type":"uint256"},{"internalType":"uint256","name":"count","type":"uint256"}],"name":"getUserPositionIds","outputs":[{"internalType":"bytes32[]","name":"positionIds","type":"bytes32[]"}],"stateMutability":"view","type":"function"},{"inputs":[{"internalType":"address","name":"user","type":"address"}],"name":"getUserPositionStats","outputs":[{"internalType":"uint256","name":"total","type":"uint256"},{"internalType":"uint256","name":"pending","type":"uint256"},{"internalType":"uint256","name":"active","type":"uint256"},{"internalType":"uint256","name":"liquidated","type":"uint256"}],"stateMutability":"view","type":"function"},{"inputs":[{"internalType":"address","name":"user","type":"address"}],"name":"getUserPositions","outputs":[{"components":[{"internalType":"address","name":"user","type":"address"},{"internalType":"address","name":"poolId","type":"address"},{"internalType":"address","name":"baseAsset","type":"address"},{"internalType":"uint32","name":"chainId","type":"uint32"},{"internalType":"int24","name":"lowerRangePercent","type":"int24"},{"internalType":"int24","name":"upperRangePercent","type":"int24"},{"internalType":"uint64","name":"timestamp","type":"uint64"},{"internalType":"enum AssetHubVault.PositionStatus","name":"status","type":"uint8"},{"internalType":"uint256","name":"amount","type":"uint256"},{"internalType":"bytes32","name":"remotePositionId","type":"bytes32"}],"internalType":"struct AssetHubVault.Position[]","name":"list","type":"tuple[]"}],"stateMutability":"view","type":"function"},{"inputs":[{"internalType":"address","name":"user","type":"address"},{"internalType":"enum AssetHubVault.PositionStatus","name":"status","type":"uint8"},{"internalType":"uint256","name":"maxResults","type":"uint256"}],"name":"getUserPositionsByStatus","outputs":[{"components":[{"internalType":"address","name":"user","type":"address"},{"internalType":"address","name":"poolId","type":"address"},{"internalType":"address","name":"baseAsset","type":"address"},{"internalType":"uint32","name":"chainId","type":"uint32"},{"internalType":"int24","name":"lowerRangePercent","type":"int24"},{"internalType":"int24","name":"upperRangePercent","type":"int24"},{"internalType":"uint64","name":"timestamp","type":"uint64"},{"internalType":"enum AssetHubVault.PositionStatus","name":"status","type":"uint8"},{"internalType":"uint256","name":"amount","type":"uint256"},{"internalType":"bytes32","name":"remotePositionId","type":"bytes32"}],"internalType":"struct AssetHubVault.Position[]","name":"list","type":"tuple[]"}],"stateMutability":"view","type":"function"},{"inputs":[{"internalType":"address","name":"user","type":"address"},{"internalType":"uint256","name":"start","type":"uint256"},{"internalType":"uint256","name":"count","type":"uint256"}],"name":"getUserPositionsPage","outputs":[{"components":[{"internalType":"address","name":"user","type":"address"},{"internalType":"address","name":"poolId","type":"address"},{"internalType":"address","name":"baseAsset","type":"address"},{"internalType":"uint32","name":"chainId","type":"uint32"},{"internalType":"int24","name":"lowerRangePercent","type":"int24"},{"internalType":"int24","name":"upperRangePercent","type":"int24"},{"internalType":"uint64","name":"timestamp","type":"uint64"},{"internalType":"enum AssetHubVault.PositionStatus","name":"status","type":"uint8"},{"internalType":"uint256","name":"amount","type":"uint256"},{"internalType":"bytes32","name":"remotePositionId","type":"bytes32"}],"internalType":"struct AssetHubVault.Position[]","name":"list","type":"tuple[]"}],"stateMutability":"view","type":"function"},{"inputs":[{"internalType":"uint32","name":"chainId","type":"uint32"}],"name":"isChainSupported","outputs":[{"internalType":"bool","name":"","type":"bool"}],"stateMutability":"view","type":"function"},{"inputs":[{"internalType":"address","name":"user","type":"address"},{"internalType":"bytes32","name":"positionId","type":"bytes32"}],"name":"isPositionActive","outputs":[{"internalType":"bool","name":"","type":"bool"}],"stateMutability":"view","type":"function"},{"inputs":[],"name":"operator","outputs":[{"internalType":"address","name":"","type":"address"}],"stateMutability":"view","type":"function"},{"inputs":[],"name":"pause","outputs":[],"stateMutability":"nonpayable","type":"function"},{"inputs":[],"name":"paused","outputs":[{"internalType":"bool","name":"","type":"bool"}],"stateMutability":"view","type":"function"},{"inputs":[{"internalType":"bytes32","name":"","type":"bytes32"}],"name":"positions","outputs":[{"internalType":"address","name":"user","type":"address"},{"internalType":"address","name":"poolId","type":"address"},{"internalType":"address","name":"baseAsset","type":"address"},{"internalType":"uint32","name":"chainId","type":"uint32"},{"internalType":"int24","name":"lowerRangePercent","type":"int24"},{"internalType":"int24","name":"upperRangePercent","type":"int24"},{"internalType":"uint64","name":"timestamp","type":"uint64"},{"internalType":"enum AssetHubVault.PositionStatus","name":"status","type":"uint8"},{"internalType":"uint256","name":"amount","type":"uint256"},{"internalType":"bytes32","name":"remotePositionId","type":"bytes32"}],"stateMutability":"view","type":"function"},{"inputs":[{"internalType":"uint32","name":"chainId","type":"uint32"}],"name":"removeChain","outputs":[],"stateMutability":"nonpayable","type":"function"},{"inputs":[{"internalType":"address","name":"account","type":"address"}],"name":"setEmergency","outputs":[],"stateMutability":"nonpayable","type":"function"},{"inputs":[{"internalType":"address","name":"account","type":"address"}],"name":"setOperator","outputs":[],"stateMutability":"nonpayable","type":"function"},{"inputs":[{"internalType":"bool","name":"_testMode","type":"bool"}],"name":"setTestMode","outputs":[],"stateMutability":"nonpayable","type":"function"},{"inputs":[{"internalType":"address","name":"precompile","type":"address"}],"name":"setXcmPrecompile","outputs":[],"stateMutability":"nonpayable","type":"function"},{"inputs":[{"internalType":"bytes32","name":"positionId","type":"bytes32"},{"internalType":"uint256","name":"receivedAmount","type":"uint256"}],"name":"settleLiquidation","outputs":[],"stateMutability":"nonpayable","type":"function"},{"inputs":[{"internalType":"uint32","name":"","type":"uint32"}],"name":"supportedChains","outputs":[{"internalType":"bool","name":"supported","type":"bool"},{"internalType":"bytes","name":"xcmDestination","type":"bytes"},{"internalType":"string","name":"chainName","type":"string"},{"internalType":"uint64","name":"timestamp","type":"uint64"}],"stateMutability":"view","type":"function"},{"inputs":[],"name":"testMode","outputs":[{"internalType":"bool","name":"","type":"bool"}],"stateMutability":"view","type":"function"},{"inputs":[{"internalType":"address","name":"newAdmin","type":"address"}],"name":"transferAdmin","outputs":[],"stateMutability":"nonpayable","type":"function"},{"inputs":[],"name":"unpause","outputs":[],"stateMutability":"nonpayable","type":"function"},{"inputs":[{"internalType":"uint32","name":"chainId","type":"uint32"},{"internalType":"address","name":"executor","type":"address"}],"name":"updateChainExecutor","outputs":[],"stateMutability":"nonpayable","type":"function"},{"inputs":[{"internalType":"address","name":"","type":"address"}],"name":"userBalances","outputs":[{"internalType":"uint256","name":"","type":"uint256"}],"stateMutability":"view","type":"function"},{"inputs":[{"internalType":"address","name":"","type":"address"},{"internalType":"uint256","name":"","type":"uint256"}],"name":"userPositions","outputs":[{"internalType":"bytes32","name":"","type":"bytes32"}],"stateMutability":"view","type":"function"},{"inputs":[{"internalType":"uint256","name":"amount","type":"uint256"}],"name":"withdraw","outputs":[],"stateMutability":"nonpayable","type":"function"},{"inputs":[],"name":"xcmPrecompileFrozen","outputs":[{"internalType":"bool","name":"","type":"bool"}],"stateMutability":"view","type":"function"},{"stateMutability":"payable","type":"receive"}],"evm":{"bytecode":{"linkReferences":{},"object":"60808060405234606c576001600081905580546001600160a01b031990811633908117909255600280549091168217905560038054600980546001600160a81b031990921660ff60a01b19909416939093179091556001600160b01b0319169055612a5190816100728239f35b600080fdfe608080604052600436101561001d575b50361561001b57600080fd5b005b600090813560e01c908163077120cc146121be575080630d77be69146121165780631928b3cb1461203c5780631ff1292f14611feb578063248514dd14611f5a57806326224c641461168f57806328e6bdbe14611dd35780632a6bc2dd14611caa5780632e1a7d4d14611bbd5780632fefe44014611b3757806331e8a7ef14611afe578063374aca59146118aa5780633f4ba83a1461187757806343d6ca9c146116c8578063477348921461168f578063514ea4bf146115ce57806355a2d64d1461147d578063570ca735146114545780635c975abb1461142e5780635dad35ca146113745780635e1b4d991461131d57806375829def146112b05780638456cb59146112775780639a270acd146111ee5780639b2c59e6146111c8578063a20b9b77146110e3578063b3ab15fb14611092578063b80fe2f914610c78578063caa6fea414610c4f578063caffc49c14610af3578063cbaa349e14610ab9578063cd9ea34214610a93578063d0e30db014610a1e578063d4b39ebb146109c1578063dd67d25a146103e3578063e006a7aa146103b8578063e4584c07146102b6578063e98eaaac14610278578063eb02a115146102095763f851a4400361000f57346102065780600319360112610206576001546040516001600160a01b039091168152602090f35b80fd5b5034610206576020366003190112610206576102236121fb565b6001546001600160a01b03163303610269576001600160a01b0316801561025a576001600160601b0360a01b600354161760035580f35b63d92e233d60e01b8252600482fd5b637bfa4b9f60e01b8252600482fd5b50346102065760203660031901126102065760209063ffffffff61029a6121e3565b16815260088252604060018060a01b0391205416604051908152f35b5034610206576020366003190112610206576102d06121fb565b6001600160a01b0316815260066020526040812080549082908190819081905b85821061031457505060809450604051938452602084015260408301526060820152f35b909161032083836124b3565b90549060031b1c8752600560205260ff600360408920015460401c1660038110156103a4578061035f57506103566001916126ba565b925b01906102f0565b929390926001810361037d57506103776001916126ba565b93610358565b909390600214610390575b600190610358565b9361039c6001916126ba565b949050610388565b634e487b7160e01b88526021600452602488fd5b5034610206576103df6103d36103cd3661250e565b91612881565b6040519182918261246e565b0390f35b503461020657610120366003190112610206576103fe6121fb565b906024359163ffffffff83168084036109bd576044356001600160a01b038116908181036109b95761042e612211565b916084359360a435948560020b8096036109095760c435928360020b8094036109b55760e4356001600160401b0381116109b1576104709036906004016124e1565b969097610104356001600160401b0381116109ad576104939036906004016124e1565b600254919d909b916001600160a01b0316330361099e5760ff60035460a01c1661098f576001600160a01b0382169889156109805786156109715788841215610962576009546001600160a01b0316156109535760ff60408f8a8152600760205220541615610944578660408f8c8152600460205220541061093557604051606093841b6bffffffffffffffffffffffff199081166020830190815260e09490941b6001600160e01b031916603483015291841b8216603882015285841b909116604c82015242838201529182528c9161056e608082612368565b519020968792604051946105818661231b565b8a86526020860191878352604087019160018060a01b0316825260608701938a85526080880191825260a0880190815260c08801946001600160401b034216865260e089019487865260406101008b01988d8a526101208c019a818c5281526005602052209960018060a01b039060018060a01b03905116166001600160601b0360a01b8b5416178a5560018060a01b0390511660018a019060018060a01b03166001600160601b0360a01b825416179055600289019360018060a01b039060018060a01b03905116166001600160601b0360a01b85541617845551918354905160c01b62ffffff60c01b16915160d81b62ffffff60d81b169263ffffffff60a01b9060a01b169069ffffffffffffffffffff60a01b191617171790556001600160401b038060038701935116166001600160401b03198354161782555160038110156109215790600593929160ff60401b82549160401b169060ff60401b191617905551600484015551910155848952600660205260408920805490600160401b82101561090d5791610740827f9a5b32500137d63609212582c47c2e2486052dab88567f1fbd0637be4f2652a096946001606097950181556124b3565b81549060031b9088821b91600019901b1916179055868b52600460205260408b2061076c83825461264c565b905560405192835260208301526040820152a36009549460ff8660a81c1615610793578480f35b61079e3685836126ed565b6020815191012093859660609060018060a01b0316803b1561090957604051637f0a3bf960e01b815290889082908183816107df898b8d8f60048601612857565b03925af190816108c5575b50958097989261088c94927f2d28a5a2ca6843ac7811dcf16bc72dcea83863fbb74f472becc28dc57a76827a981560001461089857507f2ba5ade46917c616c9af26a3ce5e85c0dc38796c39d42e9a9b2d930e02c492489061084a61268a565b935b61085d6040519283928a8c85612857565b0390a2610877604051958695606087526060870191612769565b9115156020850152838203604085015261242d565b0390a280388080808480f35b9293507f2ba5ade46917c616c9af26a3ce5e85c0dc38796c39d42e9a9b2d930e02c492489060019461084c565b9261088c9492896108fb8a9b7f2d28a5a2ca6843ac7811dcf16bc72dcea83863fbb74f472becc28dc57a76827a9b959d97612368565b9950929450929890966107ea565b8780fd5b634e487b7160e01b8b52604160045260248bfd5b634e487b7160e01b8e52602160045260248efd5b631e9acf1760e31b8e5260048efd5b63f21c9f0760e01b8e5260048efd5b6395b60d6160e01b8e5260048efd5b63561ce9bb60e01b8e5260048efd5b6365e52d5160e11b8e5260048efd5b63d92e233d60e01b8e5260048efd5b6313d0ff5960e31b8d5260048dfd5b631f0853c160e21b8d5260048dfd5b8b80fd5b8980fd5b8880fd5b8480fd5b8280fd5b5034610206576109d96109d33661250e565b9161278a565b90604051918291602083016020845282518091526020604085019301915b818110610a05575050500390f35b82518452859450602093840193909201916001016109f7565b508060031936011261020657610a326129f9565b3415610a8457338152600460205260408120610a4f3482546126c9565b90556040513481527fe1fffcc4923d04b559f4d29a8bfc6cda04eb5b0d3c460751c2402c5c5cc9109c60203392a26001815580f35b6365e52d5160e11b8152600490fd5b5034610206578060031936011261020657602060ff60095460a81c166040519015158152f35b50346102065760203660031901126102065760ff604060209263ffffffff610adf6121e3565b168152600784522054166040519015158152f35b50604036600319011261020657610b086121e3565b60035460243591906001600160a01b03163303610c405781835260056020526040832090600382019060ff825460401c166003811015610c2c57600214610be75763ffffffff80600285015460a01c16911603610bd857805460ff60401b1916600160411b17905534610bae575b60018060a01b03905416907f385faac62e36e04554cd60315fc6716eaf7fc15bba95b3790f4b351dfa10bad86020604051348152a380f35b80546001600160a01b031683526004602052604083208054610bd19034906126c9565b9055610b76565b63a179f8c960e01b8452600484fd5b60405162461bcd60e51b815260206004820152601b60248201527f506f736974696f6e20616c7265616479206c69717569646174656400000000006044820152606490fd5b634e487b7160e01b86526021600452602486fd5b6303ca9f4d60e11b8352600483fd5b50346102065780600319360112610206576003546040516001600160a01b039091168152602090f35b503461020657608036600319011261020657610c926121e3565b906024356001600160401b03811161108e57610cb29036906004016124e1565b92906044356001600160401b03811161108a57610cd39036906004016124e1565b949092610cde612211565b6001549091906001600160a01b0316330361107b5763ffffffff1693848652600760205260ff604087205416611036578215610ff157610d4260405191610d248361234d565b60018352610d333686886126ed565b9860208401998a5236916126ed565b966040820197885260608201906001600160401b03421682528688526007602052604088209251151560ff801985541691161783556001830190518051906001600160401b038211610fdd57610da282610d9c85546122e1565b85612724565b602090601f8311600114610f7a57610dd292918b9183610eca575b50508160011b916000199060031b1c19161790565b90555b6002820197519788516001600160401b038111610f6657610e0081610dfa84546122e1565b84612724565b6020601f8211600114610ed55792600392610e60836001600160401b03969487958e9f7fed959e830f99a1c8cc3bd5f59d1530c3a0a7e009ee2a0589f702741ddb83ec709e9f92610eca5750508160011b916000199060031b1c19161790565b90555b5116920191166001600160401b031982541617905560018060a01b031680610ea9575b610e9d604051938493604085526040850191612769565b9060208301520390a280f35b84865260086020526040862080546001600160a01b03191682179055610e86565b015190503880610dbd565b828a52808a209a601f1983168b5b818110610f4e5750837fed959e830f99a1c8cc3bd5f59d1530c3a0a7e009ee2a0589f702741ddb83ec709b9c9d6001600160401b03979460039794899760019510610f36575b505050811b019055610e63565b015160001983891b60f8161c19169055388080610f29565b838301518e556001909d019c60209384019301610ee3565b634e487b7160e01b89526041600452602489fd5b838b52818b209190601f1984168c5b818110610fc55750908460019594939210610fac575b505050811b019055610dd5565b015160001960f88460031b161c19169055388080610f9f565b92936020600181928786015181550195019301610f89565b634e487b7160e01b8a52604160045260248afd5b60405162461bcd60e51b815260206004820152601760248201527f496e76616c69642058434d2064657374696e6174696f6e0000000000000000006044820152606490fd5b60405162461bcd60e51b815260206004820152601760248201527f436861696e20616c726561647920737570706f727465640000000000000000006044820152606490fd5b637bfa4b9f60e01b8652600486fd5b8380fd5b5080fd5b5034610206576020366003190112610206576110ac6121fb565b6001546001600160a01b03163303610269576001600160a01b0316801561025a576001600160601b0360a01b600254161760025580f35b50346102065760203660031901126102065760409063ffffffff6111056121e3565b82606085516111138161234d565b828152816020820152818782015201521681526007602052206040516111388161234d565b60ff8254161515815261114d60018301612389565b91602082019283526001600160401b036111bc81600361116f60028601612389565b946040870195865201541692606085019384526111a9604051968796602088525115156020880152516080604088015260a087019061242d565b9051858203601f1901606087015261242d565b91511660808301520390f35b5034610206578060031936011261020657602060ff60095460a01c166040519015158152f35b50346102065780600319360112610206576001546001600160a01b031633036112685760095460ff8160a01c166112325760ff60a01b1916600160a01b1760095580f35b60405162461bcd60e51b815260206004820152600e60248201526d30b63932b0b23c90333937bd32b760911b6044820152606490fd5b637bfa4b9f60e01b8152600490fd5b50346102065780600319360112610206576001546001600160a01b03163303611268576003805460ff60a01b1916600160a01b17905580f35b5034610206576020366003190112610206576112ca6121fb565b600154906001600160a01b038216330361130e576001600160a01b03169081156112ff576001600160a01b0319161760015580f35b63d92e233d60e01b8352600483fd5b637bfa4b9f60e01b8352600483fd5b5034610206576040366003190112610206576113376121fb565b6001600160a01b031681526006602052604081208054602435929083101561020657602061136584846124b3565b90549060031b1c604051908152f35b50346102065760203660031901126102065761138e6121fb565b6001546001600160a01b03163303610269576009549060ff8260a01c166113f1576001600160a01b03166001600160a01b03199190911681176009557f92107fcd833d21c9342d998ceb020ac5d7aaa95136a24b3f7e7a17522b26d0e48280a280f35b60405162461bcd60e51b81526020600482015260156024820152743c31b690383932b1b7b6b834b63290333937bd32b760591b6044820152606490fd5b5034610206578060031936011261020657602060ff60035460a01c166040519015158152f35b50346102065780600319360112610206576002546040516001600160a01b039091168152602090f35b5034610206576020366003190112610206576114976121e3565b6001546001600160a01b031633036102695763ffffffff1680825260076020526114c760ff604084205416612538565b80825260076020528160036040822082815582600182016114e881546122e1565b8061158c575b5050600282016114fe81546122e1565b8061154a575b505050015580825260086020526040822080546001600160a01b03191690557f79df5d328757ca456e42d3dc087c02eedd4cf61d984a6aa526cfac31f1542dcd8280a280f35b601f81116001146115605750555b823880611504565b8183526020832061157c91601f0160051c8101906001016126d6565b8082528160208120915555611558565b601f81116001146115a25750555b8238806114ee565b818352602083206115be91601f0160051c8101906001016126d6565b808252816020812091555561159a565b503461020657602036600319011261020657604061014091600435815260056020522060018060a01b038154169060018060a01b036001820154169061168160028201546003830154906005600485015494015494604051968752602087015260018060a01b038116604087015263ffffffff8160a01c1660608701528060c01c60020b608087015260d81c60020b60a08601526001600160401b03811660c086015260ff60e086019160401c16612227565b610100830152610120820152f35b5034610206576020366003190112610206576020906040906001600160a01b036116b76121fb565b168152600483522054604051908152f35b50346102065760403660031901126102065760025460243590600435906001600160a01b03163303611868576116fc6129f9565b811561185957808352600560205260408320916003830160ff815460401c166003811015610c2c5760010361181e578147106117d957805460ff60401b1916600160411b17905582546001600160a01b031684526004602052604080852080547fa8bc750a5af603b81d1d73928261812951e56844201c36805845c3ea53e0657c93919061178b9083906126c9565b9055600460018060a01b038654169586867f385faac62e36e04554cd60315fc6716eaf7fc15bba95b3790f4b351dfa10bad860208751878152a3015482519182526020820152a36001815580f35b60405162461bcd60e51b815260206004820152601d60248201527f496e73756666696369656e7420636f6e74726163742062616c616e63650000006044820152606490fd5b60405162461bcd60e51b8152602060048201526013602482015272506f736974696f6e206e6f742061637469766560681b6044820152606490fd5b6365e52d5160e11b8352600483fd5b631f0853c160e21b8352600483fd5b50346102065780600319360112610206576001546001600160a01b03163303611268576003805460ff60a01b1916905580f35b5034610206576060366003190112610206576118c46121fb565b6024356003811015908161108a576044359260018060a01b03168452600660205260408420918492858154905b81811080611aed575b156119725761190981846124b3565b90549060031b1c885260056020528360ff600360408b20015460401c169061195e57600381101561195e578514611949575b611944906126ba565b6118f1565b94611956611944916126ba565b95905061193b565b634e487b7160e01b89526021600452602489fd5b5094509161197f846125e8565b918694875b87811080611ae4575b15611ad65761199c81876124b3565b90549060031b1c895260056020528260ff600360408c20015460401c1690611ac2576003811015611ac25784146119dc575b6119d7906126ba565b611984565b95611aba6119d7916119ee89896124b3565b90549060031b1c8b52600560205260408b20600560405191611a0f8361231b565b60018060a01b03815416835260018060a01b036001820154166020840152600281015460018060a01b038116604085015263ffffffff8160a01c1660608501528060c01c60020b608085015260d81c60020b60a0840152611a8c60ff60038301546001600160401b03811660c087015260401c1660e085016125c5565b60048101546101008401520154610120820152611aa98289612638565b52611ab48188612638565b506126ba565b9690506119ce565b634e487b7160e01b8a52602160045260248afd5b604051806103df878261246e565b5081871061198d565b508615806118fa57508686106118fa565b5034610206576020366003190112610206576020906040906001600160a01b03611b266121fb565b168152600683522054604051908152f35b503461020657604036600319011261020657611b516121fb565b602435825260056020526040822080546001600160a01b039283169216919091149081611b86575b6020826040519015158152f35b60ff91506003015460401c16906003821015611ba9575060016020911438611b79565b634e487b7160e01b81526021600452602490fd5b503461020657602036600319011261020657600435611bda6129f9565b8015611c9b57338252600460205280604083205410611c8c57338252600460205260408220611c0a82825461264c565b90558180808084335af1611c1c61268a565b5015611c55576040519081527f7fcf532c15f0a6db0bd6d0e038bea71d30d808c7d98cb3bf7268a95bf5081b6560203392a26001815580f35b60405162461bcd60e51b815260206004820152600f60248201526e1514905394d1915497d19052531151608a1b6044820152606490fd5b631e9acf1760e31b8252600482fd5b6365e52d5160e11b8252600482fd5b5034610206576020366003190112610206576001600160a01b03611ccc6121fb565b16815260066020526040812090815490611ce5826125e8565b92815b838110611cfd57604051806103df878261246e565b80611d0a600192846124b3565b90549060031b1c8452600560205260408420600560405191611d2b8361231b565b848060a01b038154168352848060a01b03858201541660208401526002810154858060a01b038116604085015263ffffffff8160a01c1660608501528060c01c60020b608085015260d81c60020b60a0840152611da460ff60038301546001600160401b03811660c087015260401c1660e085016125c5565b60048101546101008401520154610120820152611dc18288612638565b52611dcc8187612638565b5001611ce8565b50346102065760603660031901126102065760043560243590604435916fffffffffffffffffffffffffffffffff831680930361108a576002546001600160a01b03163303611f4b57611e246129f9565b818452600560205260408420600381019060ff825460401c166003811015611f3757611efb5760028101805460a01c63ffffffff168752600860205260408720549092906001600160a01b0316151580611ee6575b611ed7576040928460057f47ba39d87df8b4c2663f9d298c92cc07750ad1b1f035a7e9e761028a995c1cee969463ffffffff94600160401b60ff60401b1982541617905501555460a01c169482519182526020820152a36001815580f35b6362f7429560e11b8752600487fd5b506002546001600160a01b0316331415611e79565b60405162461bcd60e51b8152602060048201526014602482015273506f736974696f6e206e6f742070656e64696e6760601b6044820152606490fd5b634e487b7160e01b87526021600452602487fd5b631f0853c160e21b8452600484fd5b50346102065760203660031901126102065760409063ffffffff611f7c6121e3565b16815260076020522060ff815416611f9660018301612389565b91611fe16001600160401b036003611fb060028501612389565b9301541691611fd36040519586951515865260806020870152608086019061242d565b90848203604086015261242d565b9060608301520390f35b50346102065760203660031901126102065760043580151580910361108e576001546001600160a01b03163303610269576009805460ff60a81b191660a89290921b60ff60a81b1691909117905580f35b50346102065760203660031901126102065760406101409161205c61257a565b5060043581526005602052206005604051916120778361231b565b60018060a01b03815416835260018060a01b036001820154166020840152600281015460018060a01b038116604085015263ffffffff8160a01c1660608501528060c01c60020b608085015260d81c60020b60a08401526120f460ff60038301546001600160401b03811660c087015260401c1660e085016125c5565b60048101546101008401520154610120820152612114604051809261224a565bf35b5034610206576040366003190112610206576121306121e3565b6024356001600160a01b03811691908290036109bd576001546001600160a01b0316330361130e57602063ffffffff7fc0648d71480d56e212d7221a29783f9dc7d62231867ed5159f5d1bdb1459b9999216928385526007825261219a60ff604087205416612538565b83855260088252604080862080546001600160a01b0319168317905551908152a280f35b90503461108e578160031936011261108e576009546001600160a01b03168152602090f35b6004359063ffffffff821682036121f657565b600080fd5b600435906001600160a01b03821682036121f657565b606435906001600160a01b03821682036121f657565b9060038210156122345752565b634e487b7160e01b600052602160045260246000fd5b610120809160018060a01b03815116845260018060a01b03602082015116602085015260018060a01b03604082015116604085015263ffffffff6060820151166060850152608081015160020b608085015260a081015160020b60a08501526001600160401b0360c08201511660c08501526122ce60e082015160e0860190612227565b6101008101516101008501520151910152565b90600182811c92168015612311575b60208310146122fb57565b634e487b7160e01b600052602260045260246000fd5b91607f16916122f0565b61014081019081106001600160401b0382111761233757604052565b634e487b7160e01b600052604160045260246000fd5b608081019081106001600160401b0382111761233757604052565b90601f801991011681019081106001600160401b0382111761233757604052565b906040519182600082549261239d846122e1565b808452936001811690811561240b57506001146123c4575b506123c292500383612368565b565b90506000929192526020600020906000915b8183106123ef5750509060206123c292820101386123b5565b60209193508060019154838589010152019101909184926123d6565b9050602092506123c294915060ff191682840152151560051b820101386123b5565b919082519283825260005b848110612459575050826000602080949584010152601f8019910116010190565b80602080928401015182828601015201612438565b602060408183019282815284518094520192019060005b8181106124925750505090565b9091926020610140826124a8600194885161224a565b019401929101612485565b80548210156124cb5760005260206000200190600090565b634e487b7160e01b600052603260045260246000fd5b9181601f840112156121f6578235916001600160401b0383116121f657602083818601950101116121f657565b60609060031901126121f6576004356001600160a01b03811681036121f657906024359060443590565b1561253f57565b60405162461bcd60e51b815260206004820152601360248201527210da185a5b881b9bdd081cdd5c1c1bdc9d1959606a1b6044820152606490fd5b604051906125878261231b565b6000610120838281528260208201528260408201528260608201528260808201528260a08201528260c08201528260e0820152826101008201520152565b60038210156122345752565b6001600160401b0381116123375760051b60200190565b906125f2826125d1565b6125ff6040519182612368565b8281528092612610601f19916125d1565b019060005b82811061262157505050565b60209061262c61257a565b82828501015201612615565b80518210156124cb5760209160051b010190565b9190820391821161265957565b634e487b7160e01b600052601160045260246000fd5b6001600160401b03811161233757601f01601f191660200190565b3d156126b5573d9061269b8261266f565b916126a96040519384612368565b82523d6000602084013e565b606090565b60001981146126595760010190565b9190820180921161265957565b8181106126e1575050565b600081556001016126d6565b9291926126f98261266f565b916127076040519384612368565b8294818452818301116121f6578281602093846000960137010152565b9190601f811161273357505050565b6123c2926000526020600020906020601f840160051c8301931061275f575b601f0160051c01906126d6565b9091508190612752565b908060209392818452848401376000828201840152601f01601f1916010190565b6001600160a01b031660009081526006602052604090208054919290918084101561283957836127b99161264c565b90818111156128315750905b6127ce826125d1565b926127dc6040519485612368565b828452601f196127eb846125d1565b0136602086013760005b838110612803575050505090565b80612819612813600193856126c9565b856124b3565b90549060031b1c61282a8288612638565b52016127f5565b9050906127c5565b5050505060405161284b602082612368565b60008152600036813790565b92906128709061287e9593604086526040860191612769565b926020818503910152612769565b90565b6001600160a01b03166000908152600660205260409020805491929091808410156129ba57836128b09161264c565b90818111156129b25750905b6128c5826125e8565b9260005b8381106128d7575050505090565b806128e7612813600193856126c9565b90549060031b1c6000526005602052604060002060056040519161290a8361231b565b848060a01b038154168352848060a01b03858201541660208401526002810154858060a01b038116604085015263ffffffff8160a01c1660608501528060c01c60020b608085015260d81c60020b60a084015261298360ff60038301546001600160401b03811660c087015260401c1660e085016125c5565b600481015461010084015201546101208201526129a08288612638565b526129ab8187612638565b50016128c9565b9050906128bc565b50506040519150600090506129d0602083612368565b81526000805b8181106129e257505090565b6020906129ed61257a565b828286010152016129d6565b600260005414612a0a576002600055565b633ee5aeb560e01b60005260046000fdfea2646970667358221220d45e4bd87fbd485125e4f92d3cbe8b2ac75684ed0112e87e670bc7b1d5a9f8ae64736f6c634300081c0033","opcodes":"PUSH1 0x80 DUP1 PUSH1 0x40 MSTORE CALLVALUE PUSH1 0x6C JUMPI PUSH1 0x1 PUSH1 0x0 DUP2 SWAP1 SSTORE DUP1 SLOAD PUSH1 0x1 PUSH1 0x1 PUSH1 0xA0 SHL SUB NOT SWAP1 DUP2 AND CALLER SWAP1 DUP2 OR SWAP1 SWAP3 SSTORE PUSH1 0x2 DUP1 SLOAD SWAP1 SWAP2 AND DUP3 OR SWAP1 SSTORE PUSH1 0x3 DUP1 SLOAD PUSH1 0x9 DUP1 SLOAD PUSH1 0x1 PUSH1 0x1 PUSH1 0xA8 SHL SUB NOT SWAP1 SWAP3 AND PUSH1 0xFF PUSH1 0xA0 SHL NOT SWAP1 SWAP5 AND SWAP4 SWAP1 SWAP4 OR SWAP1 SWAP2 SSTORE PUSH1 0x1 PUSH1 0x1 PUSH1 0xB0 SHL SUB NOT AND SWAP1 SSTORE PUSH2 0x2A51 SWAP1 DUP2 PUSH2 0x72 DUP3 CODECOPY RETURN JUMPDEST PUSH1 0x0 DUP1 REVERT INVALID PUSH1 0x80 DUP1 PUSH1 0x40 MSTORE PUSH1 0x4 CALLDATASIZE LT ISZERO PUSH2 0x1D JUMPI JUMPDEST POP CALLDATASIZE ISZERO PUSH2 0x1B JUMPI PUSH1 0x0 DUP1 REVERT JUMPDEST STOP JUMPDEST PUSH1 0x0 SWAP1 DUP2 CALLDATALOAD PUSH1 0xE0 SHR SWAP1 DUP2 PUSH4 0x77120CC EQ PUSH2 0x21BE JUMPI POP DUP1 PUSH4 0xD77BE69 EQ PUSH2 0x2116 JUMPI DUP1 PUSH4 0x1928B3CB EQ PUSH2 0x203C JUMPI DUP1 PUSH4 0x1FF1292F EQ PUSH2 0x1FEB JUMPI DUP1 PUSH4 0x248514DD EQ PUSH2 0x1F5A JUMPI DUP1 PUSH4 0x26224C64 EQ PUSH2 0x168F JUMPI DUP1 PUSH4 0x28E6BDBE EQ PUSH2 0x1DD3 JUMPI DUP1 PUSH4 0x2A6BC2DD EQ PUSH2 0x1CAA JUMPI DUP1 PUSH4 0x2E1A7D4D EQ PUSH2 0x1BBD JUMPI DUP1 PUSH4 0x2FEFE440 EQ PUSH2 0x1B37 JUMPI DUP1 PUSH4 0x31E8A7EF EQ PUSH2 0x1AFE JUMPI DUP1 PUSH4 0x374ACA59 EQ PUSH2 0x18AA JUMPI DUP1 PUSH4 0x3F4BA83A EQ PUSH2 0x1877 JUMPI DUP1 PUSH4 0x43D6CA9C EQ PUSH2 0x16C8 JUMPI DUP1 PUSH4 0x47734892 EQ PUSH2 0x168F JUMPI DUP1 PUSH4 0x514EA4BF EQ PUSH2 0x15CE JUMPI DUP1 PUSH4 0x55A2D64D EQ PUSH2 0x147D JUMPI DUP1 PUSH4 0x570CA735 EQ PUSH2 0x1454 JUMPI DUP1 PUSH4 0x5C975ABB EQ PUSH2 0x142E JUMPI DUP1 PUSH4 0x5DAD35CA EQ PUSH2 0x1374 JUMPI DUP1 PUSH4 0x5E1B4D99 EQ PUSH2 0x131D JUMPI DUP1 PUSH4 0x75829DEF EQ PUSH2 0x12B0 JUMPI DUP1 PUSH4 0x8456CB59 EQ PUSH2 0x1277 JUMPI DUP1 PUSH4 0x9A270ACD EQ PUSH2 0x11EE JUMPI DUP1 PUSH4 0x9B2C59E6 EQ PUSH2 0x11C8 JUMPI DUP1 PUSH4 0xA20B9B77 EQ PUSH2 0x10E3 JUMPI DUP1 PUSH4 0xB3AB15FB EQ PUSH2 0x1092 JUMPI DUP1 PUSH4 0xB80FE2F9 EQ PUSH2 0xC78 JUMPI DUP1 PUSH4 0xCAA6FEA4 EQ PUSH2 0xC4F JUMPI DUP1 PUSH4 0xCAFFC49C EQ PUSH2 0xAF3 JUMPI DUP1 PUSH4 0xCBAA349E EQ PUSH2 0xAB9 JUMPI DUP1 PUSH4 0xCD9EA342 EQ PUSH2 0xA93 JUMPI DUP1 PUSH4 0xD0E30DB0 EQ PUSH2 0xA1E JUMPI DUP1 PUSH4 0xD4B39EBB EQ PUSH2 0x9C1 JUMPI DUP1 PUSH4 0xDD67D25A EQ PUSH2 0x3E3 JUMPI DUP1 PUSH4 0xE006A7AA EQ PUSH2 0x3B8 JUMPI DUP1 PUSH4 0xE4584C07 EQ PUSH2 0x2B6 JUMPI DUP1 PUSH4 0xE98EAAAC EQ PUSH2 0x278 JUMPI DUP1 PUSH4 0xEB02A115 EQ PUSH2 0x209 JUMPI PUSH4 0xF851A440 SUB PUSH2 0xF JUMPI CALLVALUE PUSH2 0x206 JUMPI DUP1 PUSH1 0x3 NOT CALLDATASIZE ADD SLT PUSH2 0x206 JUMPI PUSH1 0x1 SLOAD PUSH1 0x40 MLOAD PUSH1 0x1 PUSH1 0x1 PUSH1 0xA0 SHL SUB SWAP1 SWAP2 AND DUP2 MSTORE PUSH1 0x20 SWAP1 RETURN JUMPDEST DUP1 REVERT JUMPDEST POP CALLVALUE PUSH2 0x206 JUMPI PUSH1 0x20 CALLDATASIZE PUSH1 0x3 NOT ADD SLT PUSH2 0x206 JUMPI PUSH2 0x223 PUSH2 0x21FB JUMP JUMPDEST PUSH1 0x1 SLOAD PUSH1 0x1 PUSH1 0x1 PUSH1 0xA0 SHL SUB AND CALLER SUB PUSH2 0x269 JUMPI PUSH1 0x1 PUSH1 0x1 PUSH1 0xA0 SHL SUB AND DUP1 ISZERO PUSH2 0x25A JUMPI PUSH1 0x1 PUSH1 0x1 PUSH1 0x60 SHL SUB PUSH1 0xA0 SHL PUSH1 0x3 SLOAD AND OR PUSH1 0x3 SSTORE DUP1 RETURN JUMPDEST PUSH4 0xD92E233D PUSH1 0xE0 SHL DUP3 MSTORE PUSH1 0x4 DUP3 REVERT JUMPDEST PUSH4 0x7BFA4B9F PUSH1 0xE0 SHL DUP3 MSTORE PUSH1 0x4 DUP3 REVERT JUMPDEST POP CALLVALUE PUSH2 0x206 JUMPI PUSH1 0x20 CALLDATASIZE PUSH1 0x3 NOT ADD SLT PUSH2 0x206 JUMPI PUSH1 0x20 SWAP1 PUSH4 0xFFFFFFFF PUSH2 0x29A PUSH2 0x21E3 JUMP JUMPDEST AND DUP2 MSTORE PUSH1 0x8 DUP3 MSTORE PUSH1 0x40 PUSH1 0x1 DUP1 PUSH1 0xA0 SHL SUB SWAP2 KECCAK256 SLOAD AND PUSH1 0x40 MLOAD SWAP1 DUP2 MSTORE RETURN JUMPDEST POP CALLVALUE PUSH2 0x206 JUMPI PUSH1 0x20 CALLDATASIZE PUSH1 0x3 NOT ADD SLT PUSH2 0x206 JUMPI PUSH2 0x2D0 PUSH2 0x21FB JUMP JUMPDEST PUSH1 0x1 PUSH1 0x1 PUSH1 0xA0 SHL SUB AND DUP2 MSTORE PUSH1 0x6 PUSH1 0x20 MSTORE PUSH1 0x40 DUP2 KECCAK256 DUP1 SLOAD SWAP1 DUP3 SWAP1 DUP2 SWAP1 DUP2 SWAP1 DUP2 SWAP1 JUMPDEST DUP6 DUP3 LT PUSH2 0x314 JUMPI POP POP PUSH1 0x80 SWAP5 POP PUSH1 0x40 MLOAD SWAP4 DUP5 MSTORE PUSH1 0x20 DUP5 ADD MSTORE PUSH1 0x40 DUP4 ADD MSTORE PUSH1 0x60 DUP3 ADD MSTORE RETURN JUMPDEST SWAP1 SWAP2 PUSH2 0x320 DUP4 DUP4 PUSH2 0x24B3 JUMP JUMPDEST SWAP1 SLOAD SWAP1 PUSH1 0x3 SHL SHR DUP8 MSTORE PUSH1 0x5 PUSH1 0x20 MSTORE PUSH1 0xFF PUSH1 0x3 PUSH1 0x40 DUP10 KECCAK256 ADD SLOAD PUSH1 0x40 SHR AND PUSH1 0x3 DUP2 LT ISZERO PUSH2 0x3A4 JUMPI DUP1 PUSH2 0x35F JUMPI POP PUSH2 0x356 PUSH1 0x1 SWAP2 PUSH2 0x26BA JUMP JUMPDEST SWAP3 JUMPDEST ADD SWAP1 PUSH2 0x2F0 JUMP JUMPDEST SWAP3 SWAP4 SWAP1 SWAP3 PUSH1 0x1 DUP2 SUB PUSH2 0x37D JUMPI POP PUSH2 0x377 PUSH1 0x1 SWAP2 PUSH2 0x26BA JUMP JUMPDEST SWAP4 PUSH2 0x358 JUMP JUMPDEST SWAP1 SWAP4 SWAP1 PUSH1 0x2 EQ PUSH2 0x390 JUMPI JUMPDEST PUSH1 0x1 SWAP1 PUSH2 0x358 JUMP JUMPDEST SWAP4 PUSH2 0x39C PUSH1 0x1 SWAP2 PUSH2 0x26BA JUMP JUMPDEST SWAP5 SWAP1 POP PUSH2 0x388 JUMP JUMPDEST PUSH4 0x4E487B71 PUSH1 0xE0 SHL DUP9 MSTORE PUSH1 0x21 PUSH1 0x4 MSTORE PUSH1 0x24 DUP9 REVERT JUMPDEST POP CALLVALUE PUSH2 0x206 JUMPI PUSH2 0x3DF PUSH2 0x3D3 PUSH2 0x3CD CALLDATASIZE PUSH2 0x250E JUMP JUMPDEST SWAP2 PUSH2 0x2881 JUMP JUMPDEST PUSH1 0x40 MLOAD SWAP2 DUP3 SWAP2 DUP3 PUSH2 0x246E JUMP JUMPDEST SUB SWAP1 RETURN JUMPDEST POP CALLVALUE PUSH2 0x206 JUMPI PUSH2 0x120 CALLDATASIZE PUSH1 0x3 NOT ADD SLT PUSH2 0x206 JUMPI PUSH2 0x3FE PUSH2 0x21FB JUMP JUMPDEST SWAP1 PUSH1 0x24 CALLDATALOAD SWAP2 PUSH4 0xFFFFFFFF DUP4 AND DUP1 DUP5 SUB PUSH2 0x9BD JUMPI PUSH1 0x44 CALLDATALOAD PUSH1 0x1 PUSH1 0x1 PUSH1 0xA0 SHL SUB DUP2 AND SWAP1 DUP2 DUP2 SUB PUSH2 0x9B9 JUMPI PUSH2 0x42E PUSH2 0x2211 JUMP JUMPDEST SWAP2 PUSH1 0x84 CALLDATALOAD SWAP4 PUSH1 0xA4 CALLDATALOAD SWAP5 DUP6 PUSH1 0x2 SIGNEXTEND DUP1 SWAP7 SUB PUSH2 0x909 JUMPI PUSH1 0xC4 CALLDATALOAD SWAP3 DUP4 PUSH1 0x2 SIGNEXTEND DUP1 SWAP5 SUB PUSH2 0x9B5 JUMPI PUSH1 0xE4 CALLDATALOAD PUSH1 0x1 PUSH1 0x1 PUSH1 0x40 SHL SUB DUP2 GT PUSH2 0x9B1 JUMPI PUSH2 0x470 SWAP1 CALLDATASIZE SWAP1 PUSH1 0x4 ADD PUSH2 0x24E1 JUMP JUMPDEST SWAP7 SWAP1 SWAP8 PUSH2 0x104 CALLDATALOAD PUSH1 0x1 PUSH1 0x1 PUSH1 0x40 SHL SUB DUP2 GT PUSH2 0x9AD JUMPI PUSH2 0x493 SWAP1 CALLDATASIZE SWAP1 PUSH1 0x4 ADD PUSH2 0x24E1 JUMP JUMPDEST PUSH1 0x2 SLOAD SWAP2 SWAP14 SWAP1 SWAP12 SWAP2 PUSH1 0x1 PUSH1 0x1 PUSH1 0xA0 SHL SUB AND CALLER SUB PUSH2 0x99E JUMPI PUSH1 0xFF PUSH1 0x3 SLOAD PUSH1 0xA0 SHR AND PUSH2 0x98F JUMPI PUSH1 0x1 PUSH1 0x1 PUSH1 0xA0 SHL SUB DUP3 AND SWAP9 DUP10 ISZERO PUSH2 0x980 JUMPI DUP7 ISZERO PUSH2 0x971 JUMPI DUP9 DUP5 SLT ISZERO PUSH2 0x962 JUMPI PUSH1 0x9 SLOAD PUSH1 0x1 PUSH1 0x1 PUSH1 0xA0 SHL SUB AND ISZERO PUSH2 0x953 JUMPI PUSH1 0xFF PUSH1 0x40 DUP16 DUP11 DUP2 MSTORE PUSH1 0x7 PUSH1 0x20 MSTORE KECCAK256 SLOAD AND ISZERO PUSH2 0x944 JUMPI DUP7 PUSH1 0x40 DUP16 DUP13 DUP2 MSTORE PUSH1 0x4 PUSH1 0x20 MSTORE KECCAK256 SLOAD LT PUSH2 0x935 JUMPI PUSH1 0x40 MLOAD PUSH1 0x60 SWAP4 DUP5 SHL PUSH12 0xFFFFFFFFFFFFFFFFFFFFFFFF NOT SWAP1 DUP2 AND PUSH1 0x20 DUP4 ADD SWAP1 DUP2 MSTORE PUSH1 0xE0 SWAP5 SWAP1 SWAP5 SHL PUSH1 0x1 PUSH1 0x1 PUSH1 0xE0 SHL SUB NOT AND PUSH1 0x34 DUP4 ADD MSTORE SWAP2 DUP5 SHL DUP3 AND PUSH1 0x38 DUP3 ADD MSTORE DUP6 DUP5 SHL SWAP1 SWAP2 AND PUSH1 0x4C DUP3 ADD MSTORE TIMESTAMP DUP4 DUP3 ADD MSTORE SWAP2 DUP3 MSTORE DUP13 SWAP2 PUSH2 0x56E PUSH1 0x80 DUP3 PUSH2 0x2368 JUMP JUMPDEST MLOAD SWAP1 KECCAK256 SWAP7 DUP8 SWAP3 PUSH1 0x40 MLOAD SWAP5 PUSH2 0x581 DUP7 PUSH2 0x231B JUMP JUMPDEST DUP11 DUP7 MSTORE PUSH1 0x20 DUP7 ADD SWAP2 DUP8 DUP4 MSTORE PUSH1 0x40 DUP8 ADD SWAP2 PUSH1 0x1 DUP1 PUSH1 0xA0 SHL SUB AND DUP3 MSTORE PUSH1 0x60 DUP8 ADD SWAP4 DUP11 DUP6 MSTORE PUSH1 0x80 DUP9 ADD SWAP2 DUP3 MSTORE PUSH1 0xA0 DUP9 ADD SWAP1 DUP2 MSTORE PUSH1 0xC0 DUP9 ADD SWAP5 PUSH1 0x1 PUSH1 0x1 PUSH1 0x40 SHL SUB TIMESTAMP AND DUP7 MSTORE PUSH1 0xE0 DUP10 ADD SWAP5 DUP8 DUP7 MSTORE PUSH1 0x40 PUSH2 0x100 DUP12 ADD SWAP9 DUP14 DUP11 MSTORE PUSH2 0x120 DUP13 ADD SWAP11 DUP2 DUP13 MSTORE DUP2 MSTORE PUSH1 0x5 PUSH1 0x20 MSTORE KECCAK256 SWAP10 PUSH1 0x1 DUP1 PUSH1 0xA0 SHL SUB SWAP1 PUSH1 0x1 DUP1 PUSH1 0xA0 SHL SUB SWAP1 MLOAD AND AND PUSH1 0x1 PUSH1 0x1 PUSH1 0x60 SHL SUB PUSH1 0xA0 SHL DUP12 SLOAD AND OR DUP11 SSTORE PUSH1 0x1 DUP1 PUSH1 0xA0 SHL SUB SWAP1 MLOAD AND PUSH1 0x1 DUP11 ADD SWAP1 PUSH1 0x1 DUP1 PUSH1 0xA0 SHL SUB AND PUSH1 0x1 PUSH1 0x1 PUSH1 0x60 SHL SUB PUSH1 0xA0 SHL DUP3 SLOAD AND OR SWAP1 SSTORE PUSH1 0x2 DUP10 ADD SWAP4 PUSH1 0x1 DUP1 PUSH1 0xA0 SHL SUB SWAP1 PUSH1 0x1 DUP1 PUSH1 0xA0 SHL SUB SWAP1 MLOAD AND AND PUSH1 0x1 PUSH1 0x1 PUSH1 0x60 SHL SUB PUSH1 0xA0 SHL DUP6 SLOAD AND OR DUP5 SSTORE MLOAD SWAP2 DUP4 SLOAD SWAP1 MLOAD PUSH1 0xC0 SHL PUSH3 0xFFFFFF PUSH1 0xC0 SHL AND SWAP2 MLOAD PUSH1 0xD8 SHL PUSH3 0xFFFFFF PUSH1 0xD8 SHL AND SWAP3 PUSH4 0xFFFFFFFF PUSH1 0xA0 SHL SWAP1 PUSH1 0xA0 SHL AND SWAP1 PUSH10 0xFFFFFFFFFFFFFFFFFFFF PUSH1 0xA0 SHL NOT AND OR OR OR SWAP1 SSTORE PUSH1 0x1 PUSH1 0x1 PUSH1 0x40 SHL SUB DUP1 PUSH1 0x3 DUP8 ADD SWAP4 MLOAD AND AND PUSH1 0x1 PUSH1 0x1 PUSH1 0x40 SHL SUB NOT DUP4 SLOAD AND OR DUP3 SSTORE MLOAD PUSH1 0x3 DUP2 LT ISZERO PUSH2 0x921 JUMPI SWAP1 PUSH1 0x5 SWAP4 SWAP3 SWAP2 PUSH1 0xFF PUSH1 0x40 SHL DUP3 SLOAD SWAP2 PUSH1 0x40 SHL AND SWAP1 PUSH1 0xFF PUSH1 0x40 SHL NOT AND OR SWAP1 SSTORE MLOAD PUSH1 0x4 DUP5 ADD SSTORE MLOAD SWAP2 ADD SSTORE DUP5 DUP10 MSTORE PUSH1 0x6 PUSH1 0x20 MSTORE PUSH1 0x40 DUP10 KECCAK256 DUP1 SLOAD SWAP1 PUSH1 0x1 PUSH1 0x40 SHL DUP3 LT ISZERO PUSH2 0x90D JUMPI SWAP2 PUSH2 0x740 DUP3 PUSH32 0x9A5B32500137D63609212582C47C2E2486052DAB88567F1FBD0637BE4F2652A0 SWAP7 SWAP5 PUSH1 0x1 PUSH1 0x60 SWAP8 SWAP6 ADD DUP2 SSTORE PUSH2 0x24B3 JUMP JUMPDEST DUP2 SLOAD SWAP1 PUSH1 0x3 SHL SWAP1 DUP9 DUP3 SHL SWAP2 PUSH1 0x0 NOT SWAP1 SHL NOT AND OR SWAP1 SSTORE DUP7 DUP12 MSTORE PUSH1 0x4 PUSH1 0x20 MSTORE PUSH1 0x40 DUP12 KECCAK256 PUSH2 0x76C DUP4 DUP3 SLOAD PUSH2 0x264C JUMP JUMPDEST SWAP1 SSTORE PUSH1 0x40 MLOAD SWAP3 DUP4 MSTORE PUSH1 0x20 DUP4 ADD MSTORE PUSH1 0x40 DUP3 ADD MSTORE LOG3 PUSH1 0x9 SLOAD SWAP5 PUSH1 0xFF DUP7 PUSH1 0xA8 SHR AND ISZERO PUSH2 0x793 JUMPI DUP5 DUP1 RETURN JUMPDEST PUSH2 0x79E CALLDATASIZE DUP6 DUP4 PUSH2 0x26ED JUMP JUMPDEST PUSH1 0x20 DUP2 MLOAD SWAP2 ADD KECCAK256 SWAP4 DUP6 SWAP7 PUSH1 0x60 SWAP1 PUSH1 0x1 DUP1 PUSH1 0xA0 SHL SUB AND DUP1 EXTCODESIZE ISZERO PUSH2 0x909 JUMPI PUSH1 0x40 MLOAD PUSH4 0x7F0A3BF9 PUSH1 0xE0 SHL DUP2 MSTORE SWAP1 DUP9 SWAP1 DUP3 SWAP1 DUP2 DUP4 DUP2 PUSH2 0x7DF DUP10 DUP12 DUP14 DUP16 PUSH1 0x4 DUP7 ADD PUSH2 0x2857 JUMP JUMPDEST SUB SWAP3 GAS CALL SWAP1 DUP2 PUSH2 0x8C5 JUMPI JUMPDEST POP SWAP6 DUP1 SWAP8 SWAP9 SWAP3 PUSH2 0x88C SWAP5 SWAP3 PUSH32 0x2D28A5A2CA6843AC7811DCF16BC72DCEA83863FBB74F472BECC28DC57A76827A SWAP9 ISZERO PUSH1 0x0 EQ PUSH2 0x898 JUMPI POP PUSH32 0x2BA5ADE46917C616C9AF26A3CE5E85C0DC38796C39D42E9A9B2D930E02C49248 SWAP1 PUSH2 0x84A PUSH2 0x268A JUMP JUMPDEST SWAP4 JUMPDEST PUSH2 0x85D PUSH1 0x40 MLOAD SWAP3 DUP4 SWAP3 DUP11 DUP13 DUP6 PUSH2 0x2857 JUMP JUMPDEST SUB SWAP1 LOG2 PUSH2 0x877 PUSH1 0x40 MLOAD SWAP6 DUP7 SWAP6 PUSH1 0x60 DUP8 MSTORE PUSH1 0x60 DUP8 ADD SWAP2 PUSH2 0x2769 JUMP JUMPDEST SWAP2 ISZERO ISZERO PUSH1 0x20 DUP6 ADD MSTORE DUP4 DUP3 SUB PUSH1 0x40 DUP6 ADD MSTORE PUSH2 0x242D JUMP JUMPDEST SUB SWAP1 LOG2 DUP1 CODESIZE DUP1 DUP1 DUP1 DUP5 DUP1 RETURN JUMPDEST SWAP3 SWAP4 POP PUSH32 0x2BA5ADE46917C616C9AF26A3CE5E85C0DC38796C39D42E9A9B2D930E02C49248 SWAP1 PUSH1 0x1 SWAP5 PUSH2 0x84C JUMP JUMPDEST SWAP3 PUSH2 0x88C SWAP5 SWAP3 DUP10 PUSH2 0x8FB DUP11 SWAP12 PUSH32 0x2D28A5A2CA6843AC7811DCF16BC72DCEA83863FBB74F472BECC28DC57A76827A SWAP12 SWAP6 SWAP14 SWAP8 PUSH2 0x2368 JUMP JUMPDEST SWAP10 POP SWAP3 SWAP5 POP SWAP3 SWAP9 SWAP1 SWAP7 PUSH2 0x7EA JUMP JUMPDEST DUP8 DUP1 REVERT JUMPDEST PUSH4 0x4E487B71 PUSH1 0xE0 SHL DUP12 MSTORE PUSH1 0x41 PUSH1 0x4 MSTORE PUSH1 0x24 DUP12 REVERT JUMPDEST PUSH4 0x4E487B71 PUSH1 0xE0 SHL DUP15 MSTORE PUSH1 0x21 PUSH1 0x4 MSTORE PUSH1 0x24 DUP15 REVERT JUMPDEST PUSH4 0x1E9ACF17 PUSH1 0xE3 SHL DUP15 MSTORE PUSH1 0x4 DUP15 REVERT JUMPDEST PUSH4 0xF21C9F07 PUSH1 0xE0 SHL DUP15 MSTORE PUSH1 0x4 DUP15 REVERT JUMPDEST PUSH4 0x95B60D61 PUSH1 0xE0 SHL DUP15 MSTORE PUSH1 0x4 DUP15 REVERT JUMPDEST PUSH4 0x561CE9BB PUSH1 0xE0 SHL DUP15 MSTORE PUSH1 0x4 DUP15 REVERT JUMPDEST PUSH4 0x65E52D51 PUSH1 0xE1 SHL DUP15 MSTORE PUSH1 0x4 DUP15 REVERT JUMPDEST PUSH4 0xD92E233D PUSH1 0xE0 SHL DUP15 MSTORE PUSH1 0x4 DUP15 REVERT JUMPDEST PUSH4 0x13D0FF59 PUSH1 0xE3 SHL DUP14 MSTORE PUSH1 0x4 DUP14 REVERT JUMPDEST PUSH4 0x1F0853C1 PUSH1 0xE2 SHL DUP14 MSTORE PUSH1 0x4 DUP14 REVERT JUMPDEST DUP12 DUP1 REVERT JUMPDEST DUP10 DUP1 REVERT JUMPDEST DUP9 DUP1 REVERT JUMPDEST DUP5 DUP1 REVERT JUMPDEST DUP3 DUP1 REVERT JUMPDEST POP CALLVALUE PUSH2 0x206 JUMPI PUSH2 0x9D9 PUSH2 0x9D3 CALLDATASIZE PUSH2 0x250E JUMP JUMPDEST SWAP2 PUSH2 0x278A JUMP JUMPDEST SWAP1 PUSH1 0x40 MLOAD SWAP2 DUP3 SWAP2 PUSH1 0x20 DUP4 ADD PUSH1 0x20 DUP5 MSTORE DUP3 MLOAD DUP1 SWAP2 MSTORE PUSH1 0x20 PUSH1 0x40 DUP6 ADD SWAP4 ADD SWAP2 JUMPDEST DUP2 DUP2 LT PUSH2 0xA05 JUMPI POP POP POP SUB SWAP1 RETURN JUMPDEST DUP3 MLOAD DUP5 MSTORE DUP6 SWAP5 POP PUSH1 0x20 SWAP4 DUP5 ADD SWAP4 SWAP1 SWAP3 ADD SWAP2 PUSH1 0x1 ADD PUSH2 0x9F7 JUMP JUMPDEST POP DUP1 PUSH1 0x3 NOT CALLDATASIZE ADD SLT PUSH2 0x206 JUMPI PUSH2 0xA32 PUSH2 0x29F9 JUMP JUMPDEST CALLVALUE ISZERO PUSH2 0xA84 JUMPI CALLER DUP2 MSTORE PUSH1 0x4 PUSH1 0x20 MSTORE PUSH1 0x40 DUP2 KECCAK256 PUSH2 0xA4F CALLVALUE DUP3 SLOAD PUSH2 0x26C9 JUMP JUMPDEST SWAP1 SSTORE PUSH1 0x40 MLOAD CALLVALUE DUP2 MSTORE PUSH32 0xE1FFFCC4923D04B559F4D29A8BFC6CDA04EB5B0D3C460751C2402C5C5CC9109C PUSH1 0x20 CALLER SWAP3 LOG2 PUSH1 0x1 DUP2 SSTORE DUP1 RETURN JUMPDEST PUSH4 0x65E52D51 PUSH1 0xE1 SHL DUP2 MSTORE PUSH1 0x4 SWAP1 REVERT JUMPDEST POP CALLVALUE PUSH2 0x206 JUMPI DUP1 PUSH1 0x3 NOT CALLDATASIZE ADD SLT PUSH2 0x206 JUMPI PUSH1 0x20 PUSH1 0xFF PUSH1 0x9 SLOAD PUSH1 0xA8 SHR AND PUSH1 0x40 MLOAD SWAP1 ISZERO ISZERO DUP2 MSTORE RETURN JUMPDEST POP CALLVALUE PUSH2 0x206 JUMPI PUSH1 0x20 CALLDATASIZE PUSH1 0x3 NOT ADD SLT PUSH2 0x206 JUMPI PUSH1 0xFF PUSH1 0x40 PUSH1 0x20 SWAP3 PUSH4 0xFFFFFFFF PUSH2 0xADF PUSH2 0x21E3 JUMP JUMPDEST AND DUP2 MSTORE PUSH1 0x7 DUP5 MSTORE KECCAK256 SLOAD AND PUSH1 0x40 MLOAD SWAP1 ISZERO ISZERO DUP2 MSTORE RETURN JUMPDEST POP PUSH1 0x40 CALLDATASIZE PUSH1 0x3 NOT ADD SLT PUSH2 0x206 JUMPI PUSH2 0xB08 PUSH2 0x21E3 JUMP JUMPDEST PUSH1 0x3 SLOAD PUSH1 0x24 CALLDATALOAD SWAP2 SWAP1 PUSH1 0x1 PUSH1 0x1 PUSH1 0xA0 SHL SUB AND CALLER SUB PUSH2 0xC40 JUMPI DUP2 DUP4 MSTORE PUSH1 0x5 PUSH1 0x20 MSTORE PUSH1 0x40 DUP4 KECCAK256 SWAP1 PUSH1 0x3 DUP3 ADD SWAP1 PUSH1 0xFF DUP3 SLOAD PUSH1 0x40 SHR AND PUSH1 0x3 DUP2 LT ISZERO PUSH2 0xC2C JUMPI PUSH1 0x2 EQ PUSH2 0xBE7 JUMPI PUSH4 0xFFFFFFFF DUP1 PUSH1 0x2 DUP6 ADD SLOAD PUSH1 0xA0 SHR AND SWAP2 AND SUB PUSH2 0xBD8 JUMPI DUP1 SLOAD PUSH1 0xFF PUSH1 0x40 SHL NOT AND PUSH1 0x1 PUSH1 0x41 SHL OR SWAP1 SSTORE CALLVALUE PUSH2 0xBAE JUMPI JUMPDEST PUSH1 0x1 DUP1 PUSH1 0xA0 SHL SUB SWAP1 SLOAD AND SWAP1 PUSH32 0x385FAAC62E36E04554CD60315FC6716EAF7FC15BBA95B3790F4B351DFA10BAD8 PUSH1 0x20 PUSH1 0x40 MLOAD CALLVALUE DUP2 MSTORE LOG3 DUP1 RETURN JUMPDEST DUP1 SLOAD PUSH1 0x1 PUSH1 0x1 PUSH1 0xA0 SHL SUB AND DUP4 MSTORE PUSH1 0x4 PUSH1 0x20 MSTORE PUSH1 0x40 DUP4 KECCAK256 DUP1 SLOAD PUSH2 0xBD1 SWAP1 CALLVALUE SWAP1 PUSH2 0x26C9 JUMP JUMPDEST SWAP1 SSTORE PUSH2 0xB76 JUMP JUMPDEST PUSH4 0xA179F8C9 PUSH1 0xE0 SHL DUP5 MSTORE PUSH1 0x4 DUP5 REVERT JUMPDEST PUSH1 0x40 MLOAD PUSH3 0x461BCD PUSH1 0xE5 SHL DUP2 MSTORE PUSH1 0x20 PUSH1 0x4 DUP3 ADD MSTORE PUSH1 0x1B PUSH1 0x24 DUP3 ADD MSTORE PUSH32 0x506F736974696F6E20616C7265616479206C6971756964617465640000000000 PUSH1 0x44 DUP3 ADD MSTORE PUSH1 0x64 SWAP1 REVERT JUMPDEST PUSH4 0x4E487B71 PUSH1 0xE0 SHL DUP7 MSTORE PUSH1 0x21 PUSH1 0x4 MSTORE PUSH1 0x24 DUP7 REVERT JUMPDEST PUSH4 0x3CA9F4D PUSH1 0xE1 SHL DUP4 MSTORE PUSH1 0x4 DUP4 REVERT JUMPDEST POP CALLVALUE PUSH2 0x206 JUMPI DUP1 PUSH1 0x3 NOT CALLDATASIZE ADD SLT PUSH2 0x206 JUMPI PUSH1 0x3 SLOAD PUSH1 0x40 MLOAD PUSH1 0x1 PUSH1 0x1 PUSH1 0xA0 SHL SUB SWAP1 SWAP2 AND DUP2 MSTORE PUSH1 0x20 SWAP1 RETURN JUMPDEST POP CALLVALUE PUSH2 0x206 JUMPI PUSH1 0x80 CALLDATASIZE PUSH1 0x3 NOT ADD SLT PUSH2 0x206 JUMPI PUSH2 0xC92 PUSH2 0x21E3 JUMP JUMPDEST SWAP1 PUSH1 0x24 CALLDATALOAD PUSH1 0x1 PUSH1 0x1 PUSH1 0x40 SHL SUB DUP2 GT PUSH2 0x108E JUMPI PUSH2 0xCB2 SWAP1 CALLDATASIZE SWAP1 PUSH1 0x4 ADD PUSH2 0x24E1 JUMP JUMPDEST SWAP3 SWAP1 PUSH1 0x44 CALLDATALOAD PUSH1 0x1 PUSH1 0x1 PUSH1 0x40 SHL SUB DUP2 GT PUSH2 0x108A JUMPI PUSH2 0xCD3 SWAP1 CALLDATASIZE SWAP1 PUSH1 0x4 ADD PUSH2 0x24E1 JUMP JUMPDEST SWAP5 SWAP1 SWAP3 PUSH2 0xCDE PUSH2 0x2211 JUMP JUMPDEST PUSH1 0x1 SLOAD SWAP1 SWAP2 SWAP1 PUSH1 0x1 PUSH1 0x1 PUSH1 0xA0 SHL SUB AND CALLER SUB PUSH2 0x107B JUMPI PUSH4 0xFFFFFFFF AND SWAP4 DUP5 DUP7 MSTORE PUSH1 0x7 PUSH1 0x20 MSTORE PUSH1 0xFF PUSH1 0x40 DUP8 KECCAK256 SLOAD AND PUSH2 0x1036 JUMPI DUP3 ISZERO PUSH2 0xFF1 JUMPI PUSH2 0xD42 PUSH1 0x40 MLOAD SWAP2 PUSH2 0xD24 DUP4 PUSH2 0x234D JUMP JUMPDEST PUSH1 0x1 DUP4 MSTORE PUSH2 0xD33 CALLDATASIZE DUP7 DUP9 PUSH2 0x26ED JUMP JUMPDEST SWAP9 PUSH1 0x20 DUP5 ADD SWAP10 DUP11 MSTORE CALLDATASIZE SWAP2 PUSH2 0x26ED JUMP JUMPDEST SWAP7 PUSH1 0x40 DUP3 ADD SWAP8 DUP9 MSTORE PUSH1 0x60 DUP3 ADD SWAP1 PUSH1 0x1 PUSH1 0x1 PUSH1 0x40 SHL SUB TIMESTAMP AND DUP3 MSTORE DUP7 DUP9 MSTORE PUSH1 0x7 PUSH1 0x20 MSTORE PUSH1 0x40 DUP9 KECCAK256 SWAP3 MLOAD ISZERO ISZERO PUSH1 0xFF DUP1 NOT DUP6 SLOAD AND SWAP2 AND OR DUP4 SSTORE PUSH1 0x1 DUP4 ADD SWAP1 MLOAD DUP1 MLOAD SWAP1 PUSH1 0x1 PUSH1 0x1 PUSH1 0x40 SHL SUB DUP3 GT PUSH2 0xFDD JUMPI PUSH2 0xDA2 DUP3 PUSH2 0xD9C DUP6 SLOAD PUSH2 0x22E1 JUMP JUMPDEST DUP6 PUSH2 0x2724 JUMP JUMPDEST PUSH1 0x20 SWAP1 PUSH1 0x1F DUP4 GT PUSH1 0x1 EQ PUSH2 0xF7A JUMPI PUSH2 0xDD2 SWAP3 SWAP2 DUP12 SWAP2 DUP4 PUSH2 0xECA JUMPI JUMPDEST POP POP DUP2 PUSH1 0x1 SHL SWAP2 PUSH1 0x0 NOT SWAP1 PUSH1 0x3 SHL SHR NOT AND OR SWAP1 JUMP JUMPDEST SWAP1 SSTORE JUMPDEST PUSH1 0x2 DUP3 ADD SWAP8 MLOAD SWAP8 DUP9 MLOAD PUSH1 0x1 PUSH1 0x1 PUSH1 0x40 SHL SUB DUP2 GT PUSH2 0xF66 JUMPI PUSH2 0xE00 DUP2 PUSH2 0xDFA DUP5 SLOAD PUSH2 0x22E1 JUMP JUMPDEST DUP5 PUSH2 0x2724 JUMP JUMPDEST PUSH1 0x20 PUSH1 0x1F DUP3 GT PUSH1 0x1 EQ PUSH2 0xED5 JUMPI SWAP3 PUSH1 0x3 SWAP3 PUSH2 0xE60 DUP4 PUSH1 0x1 PUSH1 0x1 PUSH1 0x40 SHL SUB SWAP7 SWAP5 DUP8 SWAP6 DUP15 SWAP16 PUSH32 0xED959E830F99A1C8CC3BD5F59D1530C3A0A7E009EE2A0589F702741DDB83EC70 SWAP15 SWAP16 SWAP3 PUSH2 0xECA JUMPI POP POP DUP2 PUSH1 0x1 SHL SWAP2 PUSH1 0x0 NOT SWAP1 PUSH1 0x3 SHL SHR NOT AND OR SWAP1 JUMP JUMPDEST SWAP1 SSTORE JUMPDEST MLOAD AND SWAP3 ADD SWAP2 AND PUSH1 0x1 PUSH1 0x1 PUSH1 0x40 SHL SUB NOT DUP3 SLOAD AND OR SWAP1 SSTORE PUSH1 0x1 DUP1 PUSH1 0xA0 SHL SUB AND DUP1 PUSH2 0xEA9 JUMPI JUMPDEST PUSH2 0xE9D PUSH1 0x40 MLOAD SWAP4 DUP5 SWAP4 PUSH1 0x40 DUP6 MSTORE PUSH1 0x40 DUP6 ADD SWAP2 PUSH2 0x2769 JUMP JUMPDEST SWAP1 PUSH1 0x20 DUP4 ADD MSTORE SUB SWAP1 LOG2 DUP1 RETURN JUMPDEST DUP5 DUP7 MSTORE PUSH1 0x8 PUSH1 0x20 MSTORE PUSH1 0x40 DUP7 KECCAK256 DUP1 SLOAD PUSH1 0x1 PUSH1 0x1 PUSH1 0xA0 SHL SUB NOT AND DUP3 OR SWAP1 SSTORE PUSH2 0xE86 JUMP JUMPDEST ADD MLOAD SWAP1 POP CODESIZE DUP1 PUSH2 0xDBD JUMP JUMPDEST DUP3 DUP11 MSTORE DUP1 DUP11 KECCAK256 SWAP11 PUSH1 0x1F NOT DUP4 AND DUP12 JUMPDEST DUP2 DUP2 LT PUSH2 0xF4E JUMPI POP DUP4 PUSH32 0xED959E830F99A1C8CC3BD5F59D1530C3A0A7E009EE2A0589F702741DDB83EC70 SWAP12 SWAP13 SWAP14 PUSH1 0x1 PUSH1 0x1 PUSH1 0x40 SHL SUB SWAP8 SWAP5 PUSH1 0x3 SWAP8 SWAP5 DUP10 SWAP8 PUSH1 0x1 SWAP6 LT PUSH2 0xF36 JUMPI JUMPDEST POP POP POP DUP2 SHL ADD SWAP1 SSTORE PUSH2 0xE63 JUMP JUMPDEST ADD MLOAD PUSH1 0x0 NOT DUP4 DUP10 SHL PUSH1 0xF8 AND SHR NOT AND SWAP1 SSTORE CODESIZE DUP1 DUP1 PUSH2 0xF29 JUMP JUMPDEST DUP4 DUP4 ADD MLOAD DUP15 SSTORE PUSH1 0x1 SWAP1 SWAP14 ADD SWAP13 PUSH1 0x20 SWAP4 DUP5 ADD SWAP4 ADD PUSH2 0xEE3 JUMP JUMPDEST PUSH4 0x4E487B71 PUSH1 0xE0 SHL DUP10 MSTORE PUSH1 0x41 PUSH1 0x4 MSTORE PUSH1 0x24 DUP10 REVERT JUMPDEST DUP4 DUP12 MSTORE DUP2 DUP12 KECCAK256 SWAP2 SWAP1 PUSH1 0x1F NOT DUP5 AND DUP13 JUMPDEST DUP2 DUP2 LT PUSH2 0xFC5 JUMPI POP SWAP1 DUP5 PUSH1 0x1 SWAP6 SWAP5 SWAP4 SWAP3 LT PUSH2 0xFAC JUMPI JUMPDEST POP POP POP DUP2 SHL ADD SWAP1 SSTORE PUSH2 0xDD5 JUMP JUMPDEST ADD MLOAD PUSH1 0x0 NOT PUSH1 0xF8 DUP5 PUSH1 0x3 SHL AND SHR NOT AND SWAP1 SSTORE CODESIZE DUP1 DUP1 PUSH2 0xF9F JUMP JUMPDEST SWAP3 SWAP4 PUSH1 0x20 PUSH1 0x1 DUP2 SWAP3 DUP8 DUP7 ADD MLOAD DUP2 SSTORE ADD SWAP6 ADD SWAP4 ADD PUSH2 0xF89 JUMP JUMPDEST PUSH4 0x4E487B71 PUSH1 0xE0 SHL DUP11 MSTORE PUSH1 0x41 PUSH1 0x4 MSTORE PUSH1 0x24 DUP11 REVERT JUMPDEST PUSH1 0x40 MLOAD PUSH3 0x461BCD PUSH1 0xE5 SHL DUP2 MSTORE PUSH1 0x20 PUSH1 0x4 DUP3 ADD MSTORE PUSH1 0x17 PUSH1 0x24 DUP3 ADD MSTORE PUSH32 0x496E76616C69642058434D2064657374696E6174696F6E000000000000000000 PUSH1 0x44 DUP3 ADD MSTORE PUSH1 0x64 SWAP1 REVERT JUMPDEST PUSH1 0x40 MLOAD PUSH3 0x461BCD PUSH1 0xE5 SHL DUP2 MSTORE PUSH1 0x20 PUSH1 0x4 DUP3 ADD MSTORE PUSH1 0x17 PUSH1 0x24 DUP3 ADD MSTORE PUSH32 0x436861696E20616C726561647920737570706F72746564000000000000000000 PUSH1 0x44 DUP3 ADD MSTORE PUSH1 0x64 SWAP1 REVERT JUMPDEST PUSH4 0x7BFA4B9F PUSH1 0xE0 SHL DUP7 MSTORE PUSH1 0x4 DUP7 REVERT JUMPDEST DUP4 DUP1 REVERT JUMPDEST POP DUP1 REVERT JUMPDEST POP CALLVALUE PUSH2 0x206 JUMPI PUSH1 0x20 CALLDATASIZE PUSH1 0x3 NOT ADD SLT PUSH2 0x206 JUMPI PUSH2 0x10AC PUSH2 0x21FB JUMP JUMPDEST PUSH1 0x1 SLOAD PUSH1 0x1 PUSH1 0x1 PUSH1 0xA0 SHL SUB AND CALLER SUB PUSH2 0x269 JUMPI PUSH1 0x1 PUSH1 0x1 PUSH1 0xA0 SHL SUB AND DUP1 ISZERO PUSH2 0x25A JUMPI PUSH1 0x1 PUSH1 0x1 PUSH1 0x60 SHL SUB PUSH1 0xA0 SHL PUSH1 0x2 SLOAD AND OR PUSH1 0x2 SSTORE DUP1 RETURN JUMPDEST POP CALLVALUE PUSH2 0x206 JUMPI PUSH1 0x20 CALLDATASIZE PUSH1 0x3 NOT ADD SLT PUSH2 0x206 JUMPI PUSH1 0x40 SWAP1 PUSH4 0xFFFFFFFF PUSH2 0x1105 PUSH2 0x21E3 JUMP JUMPDEST DUP3 PUSH1 0x60 DUP6 MLOAD PUSH2 0x1113 DUP2 PUSH2 0x234D JUMP JUMPDEST DUP3 DUP2 MSTORE DUP2 PUSH1 0x20 DUP3 ADD MSTORE DUP2 DUP8 DUP3 ADD MSTORE ADD MSTORE AND DUP2 MSTORE PUSH1 0x7 PUSH1 0x20 MSTORE KECCAK256 PUSH1 0x40 MLOAD PUSH2 0x1138 DUP2 PUSH2 0x234D JUMP JUMPDEST PUSH1 0xFF DUP3 SLOAD AND ISZERO ISZERO DUP2 MSTORE PUSH2 0x114D PUSH1 0x1 DUP4 ADD PUSH2 0x2389 JUMP JUMPDEST SWAP2 PUSH1 0x20 DUP3 ADD SWAP3 DUP4 MSTORE PUSH1 0x1 PUSH1 0x1 PUSH1 0x40 SHL SUB PUSH2 0x11BC DUP2 PUSH1 0x3 PUSH2 0x116F PUSH1 0x2 DUP7 ADD PUSH2 0x2389 JUMP JUMPDEST SWAP5 PUSH1 0x40 DUP8 ADD SWAP6 DUP7 MSTORE ADD SLOAD AND SWAP3 PUSH1 0x60 DUP6 ADD SWAP4 DUP5 MSTORE PUSH2 0x11A9 PUSH1 0x40 MLOAD SWAP7 DUP8 SWAP7 PUSH1 0x20 DUP9 MSTORE MLOAD ISZERO ISZERO PUSH1 0x20 DUP9 ADD MSTORE MLOAD PUSH1 0x80 PUSH1 0x40 DUP9 ADD MSTORE PUSH1 0xA0 DUP8 ADD SWAP1 PUSH2 0x242D JUMP JUMPDEST SWAP1 MLOAD DUP6 DUP3 SUB PUSH1 0x1F NOT ADD PUSH1 0x60 DUP8 ADD MSTORE PUSH2 0x242D JUMP JUMPDEST SWAP2 MLOAD AND PUSH1 0x80 DUP4 ADD MSTORE SUB SWAP1 RETURN JUMPDEST POP CALLVALUE PUSH2 0x206 JUMPI DUP1 PUSH1 0x3 NOT CALLDATASIZE ADD SLT PUSH2 0x206 JUMPI PUSH1 0x20 PUSH1 0xFF PUSH1 0x9 SLOAD PUSH1 0xA0 SHR AND PUSH1 0x40 MLOAD SWAP1 ISZERO ISZERO DUP2 MSTORE RETURN JUMPDEST POP CALLVALUE PUSH2 0x206 JUMPI DUP1 PUSH1 0x3 NOT CALLDATASIZE ADD SLT PUSH2 0x206 JUMPI PUSH1 0x1 SLOAD PUSH1 0x1 PUSH1 0x1 PUSH1 0xA0 SHL SUB AND CALLER SUB PUSH2 0x1268 JUMPI PUSH1 0x9 SLOAD PUSH1 0xFF DUP2 PUSH1 0xA0 SHR AND PUSH2 0x1232 JUMPI PUSH1 0xFF PUSH1 0xA0 SHL NOT AND PUSH1 0x1 PUSH1 0xA0 SHL OR PUSH1 0x9 SSTORE DUP1 RETURN JUMPDEST PUSH1 0x40 MLOAD PUSH3 0x461BCD PUSH1 0xE5 SHL DUP2 MSTORE PUSH1 0x20 PUSH1 0x4 DUP3 ADD MSTORE PUSH1 0xE PUSH1 0x24 DUP3 ADD MSTORE PUSH14 0x30B63932B0B23C90333937BD32B7 PUSH1 0x91 SHL PUSH1 0x44 DUP3 ADD MSTORE PUSH1 0x64 SWAP1 REVERT JUMPDEST PUSH4 0x7BFA4B9F PUSH1 0xE0 SHL DUP2 MSTORE PUSH1 0x4 SWAP1 REVERT JUMPDEST POP CALLVALUE PUSH2 0x206 JUMPI DUP1 PUSH1 0x3 NOT CALLDATASIZE ADD SLT PUSH2 0x206 JUMPI PUSH1 0x1 SLOAD PUSH1 0x1 PUSH1 0x1 PUSH1 0xA0 SHL SUB AND CALLER SUB PUSH2 0x1268 JUMPI PUSH1 0x3 DUP1 SLOAD PUSH1 0xFF PUSH1 0xA0 SHL NOT AND PUSH1 0x1 PUSH1 0xA0 SHL OR SWAP1 SSTORE DUP1 RETURN JUMPDEST POP CALLVALUE PUSH2 0x206 JUMPI PUSH1 0x20 CALLDATASIZE PUSH1 0x3 NOT ADD SLT PUSH2 0x206 JUMPI PUSH2 0x12CA PUSH2 0x21FB JUMP JUMPDEST PUSH1 0x1 SLOAD SWAP1 PUSH1 0x1 PUSH1 0x1 PUSH1 0xA0 SHL SUB DUP3 AND CALLER SUB PUSH2 0x130E JUMPI PUSH1 0x1 PUSH1 0x1 PUSH1 0xA0 SHL SUB AND SWAP1 DUP2 ISZERO PUSH2 0x12FF JUMPI PUSH1 0x1 PUSH1 0x1 PUSH1 0xA0 SHL SUB NOT AND OR PUSH1 0x1 SSTORE DUP1 RETURN JUMPDEST PUSH4 0xD92E233D PUSH1 0xE0 SHL DUP4 MSTORE PUSH1 0x4 DUP4 REVERT JUMPDEST PUSH4 0x7BFA4B9F PUSH1 0xE0 SHL DUP4 MSTORE PUSH1 0x4 DUP4 REVERT JUMPDEST POP CALLVALUE PUSH2 0x206 JUMPI PUSH1 0x40 CALLDATASIZE PUSH1 0x3 NOT ADD SLT PUSH2 0x206 JUMPI PUSH2 0x1337 PUSH2 0x21FB JUMP JUMPDEST PUSH1 0x1 PUSH1 0x1 PUSH1 0xA0 SHL SUB AND DUP2 MSTORE PUSH1 0x6 PUSH1 0x20 MSTORE PUSH1 0x40 DUP2 KECCAK256 DUP1 SLOAD PUSH1 0x24 CALLDATALOAD SWAP3 SWAP1 DUP4 LT ISZERO PUSH2 0x206 JUMPI PUSH1 0x20 PUSH2 0x1365 DUP5 DUP5 PUSH2 0x24B3 JUMP JUMPDEST SWAP1 SLOAD SWAP1 PUSH1 0x3 SHL SHR PUSH1 0x40 MLOAD SWAP1 DUP2 MSTORE RETURN JUMPDEST POP CALLVALUE PUSH2 0x206 JUMPI PUSH1 0x20 CALLDATASIZE PUSH1 0x3 NOT ADD SLT PUSH2 0x206 JUMPI PUSH2 0x138E PUSH2 0x21FB JUMP JUMPDEST PUSH1 0x1 SLOAD PUSH1 0x1 PUSH1 0x1 PUSH1 0xA0 SHL SUB AND CALLER SUB PUSH2 0x269 JUMPI PUSH1 0x9 SLOAD SWAP1 PUSH1 0xFF DUP3 PUSH1 0xA0 SHR AND PUSH2 0x13F1 JUMPI PUSH1 0x1 PUSH1 0x1 PUSH1 0xA0 SHL SUB AND PUSH1 0x1 PUSH1 0x1 PUSH1 0xA0 SHL SUB NOT SWAP2 SWAP1 SWAP2 AND DUP2 OR PUSH1 0x9 SSTORE PUSH32 0x92107FCD833D21C9342D998CEB020AC5D7AAA95136A24B3F7E7A17522B26D0E4 DUP3 DUP1 LOG2 DUP1 RETURN JUMPDEST PUSH1 0x40 MLOAD PUSH3 0x461BCD PUSH1 0xE5 SHL DUP2 MSTORE PUSH1 0x20 PUSH1 0x4 DUP3 ADD MSTORE PUSH1 0x15 PUSH1 0x24 DUP3 ADD MSTORE PUSH21 0x3C31B690383932B1B7B6B834B63290333937BD32B7 PUSH1 0x59 SHL PUSH1 0x44 DUP3 ADD MSTORE PUSH1 0x64 SWAP1 REVERT JUMPDEST POP CALLVALUE PUSH2 0x206 JUMPI DUP1 PUSH1 0x3 NOT CALLDATASIZE ADD SLT PUSH2 0x206 JUMPI PUSH1 0x20 PUSH1 0xFF PUSH1 0x3 SLOAD PUSH1 0xA0 SHR AND PUSH1 0x40 MLOAD SWAP1 ISZERO ISZERO DUP2 MSTORE RETURN JUMPDEST POP CALLVALUE PUSH2 0x206 JUMPI DUP1 PUSH1 0x3 NOT CALLDATASIZE ADD SLT PUSH2 0x206 JUMPI PUSH1 0x2 SLOAD PUSH1 0x40 MLOAD PUSH1 0x1 PUSH1 0x1 PUSH1 0xA0 SHL SUB SWAP1 SWAP2 AND DUP2 MSTORE PUSH1 0x20 SWAP1 RETURN JUMPDEST POP CALLVALUE PUSH2 0x206 JUMPI PUSH1 0x20 CALLDATASIZE PUSH1 0x3 NOT ADD SLT PUSH2 0x206 JUMPI PUSH2 0x1497 PUSH2 0x21E3 JUMP JUMPDEST PUSH1 0x1 SLOAD PUSH1 0x1 PUSH1 0x1 PUSH1 0xA0 SHL SUB AND CALLER SUB PUSH2 0x269 JUMPI PUSH4 0xFFFFFFFF AND DUP1 DUP3 MSTORE PUSH1 0x7 PUSH1 0x20 MSTORE PUSH2 0x14C7 PUSH1 0xFF PUSH1 0x40 DUP5 KECCAK256 SLOAD AND PUSH2 0x2538 JUMP JUMPDEST DUP1 DUP3 MSTORE PUSH1 0x7 PUSH1 0x20 MSTORE DUP2 PUSH1 0x3 PUSH1 0x40 DUP3 KECCAK256 DUP3 DUP2 SSTORE DUP3 PUSH1 0x1 DUP3 ADD PUSH2 0x14E8 DUP2 SLOAD PUSH2 0x22E1 JUMP JUMPDEST DUP1 PUSH2 0x158C JUMPI JUMPDEST POP POP PUSH1 0x2 DUP3 ADD PUSH2 0x14FE DUP2 SLOAD PUSH2 0x22E1 JUMP JUMPDEST DUP1 PUSH2 0x154A JUMPI JUMPDEST POP POP POP ADD SSTORE DUP1 DUP3 MSTORE PUSH1 0x8 PUSH1 0x20 MSTORE PUSH1 0x40 DUP3 KECCAK256 DUP1 SLOAD PUSH1 0x1 PUSH1 0x1 PUSH1 0xA0 SHL SUB NOT AND SWAP1 SSTORE PUSH32 0x79DF5D328757CA456E42D3DC087C02EEDD4CF61D984A6AA526CFAC31F1542DCD DUP3 DUP1 LOG2 DUP1 RETURN JUMPDEST PUSH1 0x1F DUP2 GT PUSH1 0x1 EQ PUSH2 0x1560 JUMPI POP SSTORE JUMPDEST DUP3 CODESIZE DUP1 PUSH2 0x1504 JUMP JUMPDEST DUP2 DUP4 MSTORE PUSH1 0x20 DUP4 KECCAK256 PUSH2 0x157C SWAP2 PUSH1 0x1F ADD PUSH1 0x5 SHR DUP2 ADD SWAP1 PUSH1 0x1 ADD PUSH2 0x26D6 JUMP JUMPDEST DUP1 DUP3 MSTORE DUP2 PUSH1 0x20 DUP2 KECCAK256 SWAP2 SSTORE SSTORE PUSH2 0x1558 JUMP JUMPDEST PUSH1 0x1F DUP2 GT PUSH1 0x1 EQ PUSH2 0x15A2 JUMPI POP SSTORE JUMPDEST DUP3 CODESIZE DUP1 PUSH2 0x14EE JUMP JUMPDEST DUP2 DUP4 MSTORE PUSH1 0x20 DUP4 KECCAK256 PUSH2 0x15BE SWAP2 PUSH1 0x1F ADD PUSH1 0x5 SHR DUP2 ADD SWAP1 PUSH1 0x1 ADD PUSH2 0x26D6 JUMP JUMPDEST DUP1 DUP3 MSTORE DUP2 PUSH1 0x20 DUP2 KECCAK256 SWAP2 SSTORE SSTORE PUSH2 0x159A JUMP JUMPDEST POP CALLVALUE PUSH2 0x206 JUMPI PUSH1 0x20 CALLDATASIZE PUSH1 0x3 NOT ADD SLT PUSH2 0x206 JUMPI PUSH1 0x40 PUSH2 0x140 SWAP2 PUSH1 0x4 CALLDATALOAD DUP2 MSTORE PUSH1 0x5 PUSH1 0x20 MSTORE KECCAK256 PUSH1 0x1 DUP1 PUSH1 0xA0 SHL SUB DUP2 SLOAD AND SWAP1 PUSH1 0x1 DUP1 PUSH1 0xA0 SHL SUB PUSH1 0x1 DUP3 ADD SLOAD AND SWAP1 PUSH2 0x1681 PUSH1 0x2 DUP3 ADD SLOAD PUSH1 0x3 DUP4 ADD SLOAD SWAP1 PUSH1 0x5 PUSH1 0x4 DUP6 ADD SLOAD SWAP5 ADD SLOAD SWAP5 PUSH1 0x40 MLOAD SWAP7 DUP8 MSTORE PUSH1 0x20 DUP8 ADD MSTORE PUSH1 0x1 DUP1 PUSH1 0xA0 SHL SUB DUP2 AND PUSH1 0x40 DUP8 ADD MSTORE PUSH4 0xFFFFFFFF DUP2 PUSH1 0xA0 SHR AND PUSH1 0x60 DUP8 ADD MSTORE DUP1 PUSH1 0xC0 SHR PUSH1 0x2 SIGNEXTEND PUSH1 0x80 DUP8 ADD MSTORE PUSH1 0xD8 SHR PUSH1 0x2 SIGNEXTEND PUSH1 0xA0 DUP7 ADD MSTORE PUSH1 0x1 PUSH1 0x1 PUSH1 0x40 SHL SUB DUP2 AND PUSH1 0xC0 DUP7 ADD MSTORE PUSH1 0xFF PUSH1 0xE0 DUP7 ADD SWAP2 PUSH1 0x40 SHR AND PUSH2 0x2227 JUMP JUMPDEST PUSH2 0x100 DUP4 ADD MSTORE PUSH2 0x120 DUP3 ADD MSTORE RETURN JUMPDEST POP CALLVALUE PUSH2 0x206 JUMPI PUSH1 0x20 CALLDATASIZE PUSH1 0x3 NOT ADD SLT PUSH2 0x206 JUMPI PUSH1 0x20 SWAP1 PUSH1 0x40 SWAP1 PUSH1 0x1 PUSH1 0x1 PUSH1 0xA0 SHL SUB PUSH2 0x16B7 PUSH2 0x21FB JUMP JUMPDEST AND DUP2 MSTORE PUSH1 0x4 DUP4 MSTORE KECCAK256 SLOAD PUSH1 0x40 MLOAD SWAP1 DUP2 MSTORE RETURN JUMPDEST POP CALLVALUE PUSH2 0x206 JUMPI PUSH1 0x40 CALLDATASIZE PUSH1 0x3 NOT ADD SLT PUSH2 0x206 JUMPI PUSH1 0x2 SLOAD PUSH1 0x24 CALLDATALOAD SWAP1 PUSH1 0x4 CALLDATALOAD SWAP1 PUSH1 0x1 PUSH1 0x1 PUSH1 0xA0 SHL SUB AND CALLER SUB PUSH2 0x1868 JUMPI PUSH2 0x16FC PUSH2 0x29F9 JUMP JUMPDEST DUP2 ISZERO PUSH2 0x1859 JUMPI DUP1 DUP4 MSTORE PUSH1 0x5 PUSH1 0x20 MSTORE PUSH1 0x40 DUP4 KECCAK256 SWAP2 PUSH1 0x3 DUP4 ADD PUSH1 0xFF DUP2 SLOAD PUSH1 0x40 SHR AND PUSH1 0x3 DUP2 LT ISZERO PUSH2 0xC2C JUMPI PUSH1 0x1 SUB PUSH2 0x181E JUMPI DUP2 SELFBALANCE LT PUSH2 0x17D9 JUMPI DUP1 SLOAD PUSH1 0xFF PUSH1 0x40 SHL NOT AND PUSH1 0x1 PUSH1 0x41 SHL OR SWAP1 SSTORE DUP3 SLOAD PUSH1 0x1 PUSH1 0x1 PUSH1 0xA0 SHL SUB AND DUP5 MSTORE PUSH1 0x4 PUSH1 0x20 MSTORE PUSH1 0x40 DUP1 DUP6 KECCAK256 DUP1 SLOAD PUSH32 0xA8BC750A5AF603B81D1D73928261812951E56844201C36805845C3EA53E0657C SWAP4 SWAP2 SWAP1 PUSH2 0x178B SWAP1 DUP4 SWAP1 PUSH2 0x26C9 JUMP JUMPDEST SWAP1 SSTORE PUSH1 0x4 PUSH1 0x1 DUP1 PUSH1 0xA0 SHL SUB DUP7 SLOAD AND SWAP6 DUP7 DUP7 PUSH32 0x385FAAC62E36E04554CD60315FC6716EAF7FC15BBA95B3790F4B351DFA10BAD8 PUSH1 0x20 DUP8 MLOAD DUP8 DUP2 MSTORE LOG3 ADD SLOAD DUP3 MLOAD SWAP2 DUP3 MSTORE PUSH1 0x20 DUP3 ADD MSTORE LOG3 PUSH1 0x1 DUP2 SSTORE DUP1 RETURN JUMPDEST PUSH1 0x40 MLOAD PUSH3 0x461BCD PUSH1 0xE5 SHL DUP2 MSTORE PUSH1 0x20 PUSH1 0x4 DUP3 ADD MSTORE PUSH1 0x1D PUSH1 0x24 DUP3 ADD MSTORE PUSH32 0x496E73756666696369656E7420636F6E74726163742062616C616E6365000000 PUSH1 0x44 DUP3 ADD MSTORE PUSH1 0x64 SWAP1 REVERT JUMPDEST PUSH1 0x40 MLOAD PUSH3 0x461BCD PUSH1 0xE5 SHL DUP2 MSTORE PUSH1 0x20 PUSH1 0x4 DUP3 ADD MSTORE PUSH1 0x13 PUSH1 0x24 DUP3 ADD MSTORE PUSH19 0x506F736974696F6E206E6F7420616374697665 PUSH1 0x68 SHL PUSH1 0x44 DUP3 ADD MSTORE PUSH1 0x64 SWAP1 REVERT JUMPDEST PUSH4 0x65E52D51 PUSH1 0xE1 SHL DUP4 MSTORE PUSH1 0x4 DUP4 REVERT JUMPDEST PUSH4 0x1F0853C1 PUSH1 0xE2 SHL DUP4 MSTORE PUSH1 0x4 DUP4 REVERT JUMPDEST POP CALLVALUE PUSH2 0x206 JUMPI DUP1 PUSH1 0x3 NOT CALLDATASIZE ADD SLT PUSH2 0x206 JUMPI PUSH1 0x1 SLOAD PUSH1 0x1 PUSH1 0x1 PUSH1 0xA0 SHL SUB AND CALLER SUB PUSH2 0x1268 JUMPI PUSH1 0x3 DUP1 SLOAD PUSH1 0xFF PUSH1 0xA0 SHL NOT AND SWAP1 SSTORE DUP1 RETURN JUMPDEST POP CALLVALUE PUSH2 0x206 JUMPI PUSH1 0x60 CALLDATASIZE PUSH1 0x3 NOT ADD SLT PUSH2 0x206 JUMPI PUSH2 0x18C4 PUSH2 0x21FB JUMP JUMPDEST PUSH1 0x24 CALLDATALOAD PUSH1 0x3 DUP2 LT ISZERO SWAP1 DUP2 PUSH2 0x108A JUMPI PUSH1 0x44 CALLDATALOAD SWAP3 PUSH1 0x1 DUP1 PUSH1 0xA0 SHL SUB AND DUP5 MSTORE PUSH1 0x6 PUSH1 0x20 MSTORE PUSH1 0x40 DUP5 KECCAK256 SWAP2 DUP5 SWAP3 DUP6 DUP2 SLOAD SWAP1 JUMPDEST DUP2 DUP2 LT DUP1 PUSH2 0x1AED JUMPI JUMPDEST ISZERO PUSH2 0x1972 JUMPI PUSH2 0x1909 DUP2 DUP5 PUSH2 0x24B3 JUMP JUMPDEST SWAP1 SLOAD SWAP1 PUSH1 0x3 SHL SHR DUP9 MSTORE PUSH1 0x5 PUSH1 0x20 MSTORE DUP4 PUSH1 0xFF PUSH1 0x3 PUSH1 0x40 DUP12 KECCAK256 ADD SLOAD PUSH1 0x40 SHR AND SWAP1 PUSH2 0x195E JUMPI PUSH1 0x3 DUP2 LT ISZERO PUSH2 0x195E JUMPI DUP6 EQ PUSH2 0x1949 JUMPI JUMPDEST PUSH2 0x1944 SWAP1 PUSH2 0x26BA JUMP JUMPDEST PUSH2 0x18F1 JUMP JUMPDEST SWAP5 PUSH2 0x1956 PUSH2 0x1944 SWAP2 PUSH2 0x26BA JUMP JUMPDEST SWAP6 SWAP1 POP PUSH2 0x193B JUMP JUMPDEST PUSH4 0x4E487B71 PUSH1 0xE0 SHL DUP10 MSTORE PUSH1 0x21 PUSH1 0x4 MSTORE PUSH1 0x24 DUP10 REVERT JUMPDEST POP SWAP5 POP SWAP2 PUSH2 0x197F DUP5 PUSH2 0x25E8 JUMP JUMPDEST SWAP2 DUP7 SWAP5 DUP8 JUMPDEST DUP8 DUP2 LT DUP1 PUSH2 0x1AE4 JUMPI JUMPDEST ISZERO PUSH2 0x1AD6 JUMPI PUSH2 0x199C DUP2 DUP8 PUSH2 0x24B3 JUMP JUMPDEST SWAP1 SLOAD SWAP1 PUSH1 0x3 SHL SHR DUP10 MSTORE PUSH1 0x5 PUSH1 0x20 MSTORE DUP3 PUSH1 0xFF PUSH1 0x3 PUSH1 0x40 DUP13 KECCAK256 ADD SLOAD PUSH1 0x40 SHR AND SWAP1 PUSH2 0x1AC2 JUMPI PUSH1 0x3 DUP2 LT ISZERO PUSH2 0x1AC2 JUMPI DUP5 EQ PUSH2 0x19DC JUMPI JUMPDEST PUSH2 0x19D7 SWAP1 PUSH2 0x26BA JUMP JUMPDEST PUSH2 0x1984 JUMP JUMPDEST SWAP6 PUSH2 0x1ABA PUSH2 0x19D7 SWAP2 PUSH2 0x19EE DUP10 DUP10 PUSH2 0x24B3 JUMP JUMPDEST SWAP1 SLOAD SWAP1 PUSH1 0x3 SHL SHR DUP12 MSTORE PUSH1 0x5 PUSH1 0x20 MSTORE PUSH1 0x40 DUP12 KECCAK256 PUSH1 0x5 PUSH1 0x40 MLOAD SWAP2 PUSH2 0x1A0F DUP4 PUSH2 0x231B JUMP JUMPDEST PUSH1 0x1 DUP1 PUSH1 0xA0 SHL SUB DUP2 SLOAD AND DUP4 MSTORE PUSH1 0x1 DUP1 PUSH1 0xA0 SHL SUB PUSH1 0x1 DUP3 ADD SLOAD AND PUSH1 0x20 DUP5 ADD MSTORE PUSH1 0x2 DUP2 ADD SLOAD PUSH1 0x1 DUP1 PUSH1 0xA0 SHL SUB DUP2 AND PUSH1 0x40 DUP6 ADD MSTORE PUSH4 0xFFFFFFFF DUP2 PUSH1 0xA0 SHR AND PUSH1 0x60 DUP6 ADD MSTORE DUP1 PUSH1 0xC0 SHR PUSH1 0x2 SIGNEXTEND PUSH1 0x80 DUP6 ADD MSTORE PUSH1 0xD8 SHR PUSH1 0x2 SIGNEXTEND PUSH1 0xA0 DUP5 ADD MSTORE PUSH2 0x1A8C PUSH1 0xFF PUSH1 0x3 DUP4 ADD SLOAD PUSH1 0x1 PUSH1 0x1 PUSH1 0x40 SHL SUB DUP2 AND PUSH1 0xC0 DUP8 ADD MSTORE PUSH1 0x40 SHR AND PUSH1 0xE0 DUP6 ADD PUSH2 0x25C5 JUMP JUMPDEST PUSH1 0x4 DUP2 ADD SLOAD PUSH2 0x100 DUP5 ADD MSTORE ADD SLOAD PUSH2 0x120 DUP3 ADD MSTORE PUSH2 0x1AA9 DUP3 DUP10 PUSH2 0x2638 JUMP JUMPDEST MSTORE PUSH2 0x1AB4 DUP2 DUP9 PUSH2 0x2638 JUMP JUMPDEST POP PUSH2 0x26BA JUMP JUMPDEST SWAP7 SWAP1 POP PUSH2 0x19CE JUMP JUMPDEST PUSH4 0x4E487B71 PUSH1 0xE0 SHL DUP11 MSTORE PUSH1 0x21 PUSH1 0x4 MSTORE PUSH1 0x24 DUP11 REVERT JUMPDEST PUSH1 0x40 MLOAD DUP1 PUSH2 0x3DF DUP8 DUP3 PUSH2 0x246E JUMP JUMPDEST POP DUP2 DUP8 LT PUSH2 0x198D JUMP JUMPDEST POP DUP7 ISZERO DUP1 PUSH2 0x18FA JUMPI POP DUP7 DUP7 LT PUSH2 0x18FA JUMP JUMPDEST POP CALLVALUE PUSH2 0x206 JUMPI PUSH1 0x20 CALLDATASIZE PUSH1 0x3 NOT ADD SLT PUSH2 0x206 JUMPI PUSH1 0x20 SWAP1 PUSH1 0x40 SWAP1 PUSH1 0x1 PUSH1 0x1 PUSH1 0xA0 SHL SUB PUSH2 0x1B26 PUSH2 0x21FB JUMP JUMPDEST AND DUP2 MSTORE PUSH1 0x6 DUP4 MSTORE KECCAK256 SLOAD PUSH1 0x40 MLOAD SWAP1 DUP2 MSTORE RETURN JUMPDEST POP CALLVALUE PUSH2 0x206 JUMPI PUSH1 0x40 CALLDATASIZE PUSH1 0x3 NOT ADD SLT PUSH2 0x206 JUMPI PUSH2 0x1B51 PUSH2 0x21FB JUMP JUMPDEST PUSH1 0x24 CALLDATALOAD DUP3 MSTORE PUSH1 0x5 PUSH1 0x20 MSTORE PUSH1 0x40 DUP3 KECCAK256 DUP1 SLOAD PUSH1 0x1 PUSH1 0x1 PUSH1 0xA0 SHL SUB SWAP3 DUP4 AND SWAP3 AND SWAP2 SWAP1 SWAP2 EQ SWAP1 DUP2 PUSH2 0x1B86 JUMPI JUMPDEST PUSH1 0x20 DUP3 PUSH1 0x40 MLOAD SWAP1 ISZERO ISZERO DUP2 MSTORE RETURN JUMPDEST PUSH1 0xFF SWAP2 POP PUSH1 0x3 ADD SLOAD PUSH1 0x40 SHR AND SWAP1 PUSH1 0x3 DUP3 LT ISZERO PUSH2 0x1BA9 JUMPI POP PUSH1 0x1 PUSH1 0x20 SWAP2 EQ CODESIZE PUSH2 0x1B79 JUMP JUMPDEST PUSH4 0x4E487B71 PUSH1 0xE0 SHL DUP2 MSTORE PUSH1 0x21 PUSH1 0x4 MSTORE PUSH1 0x24 SWAP1 REVERT JUMPDEST POP CALLVALUE PUSH2 0x206 JUMPI PUSH1 0x20 CALLDATASIZE PUSH1 0x3 NOT ADD SLT PUSH2 0x206 JUMPI PUSH1 0x4 CALLDATALOAD PUSH2 0x1BDA PUSH2 0x29F9 JUMP JUMPDEST DUP1 ISZERO PUSH2 0x1C9B JUMPI CALLER DUP3 MSTORE PUSH1 0x4 PUSH1 0x20 MSTORE DUP1 PUSH1 0x40 DUP4 KECCAK256 SLOAD LT PUSH2 0x1C8C JUMPI CALLER DUP3 MSTORE PUSH1 0x4 PUSH1 0x20 MSTORE PUSH1 0x40 DUP3 KECCAK256 PUSH2 0x1C0A DUP3 DUP3 SLOAD PUSH2 0x264C JUMP JUMPDEST SWAP1 SSTORE DUP2 DUP1 DUP1 DUP1 DUP5 CALLER GAS CALL PUSH2 0x1C1C PUSH2 0x268A JUMP JUMPDEST POP ISZERO PUSH2 0x1C55 JUMPI PUSH1 0x40 MLOAD SWAP1 DUP2 MSTORE PUSH32 0x7FCF532C15F0A6DB0BD6D0E038BEA71D30D808C7D98CB3BF7268A95BF5081B65 PUSH1 0x20 CALLER SWAP3 LOG2 PUSH1 0x1 DUP2 SSTORE DUP1 RETURN JUMPDEST PUSH1 0x40 MLOAD PUSH3 0x461BCD PUSH1 0xE5 SHL DUP2 MSTORE PUSH1 0x20 PUSH1 0x4 DUP3 ADD MSTORE PUSH1 0xF PUSH1 0x24 DUP3 ADD MSTORE PUSH15 0x1514905394D1915497D19052531151 PUSH1 0x8A SHL PUSH1 0x44 DUP3 ADD MSTORE PUSH1 0x64 SWAP1 REVERT JUMPDEST PUSH4 0x1E9ACF17 PUSH1 0xE3 SHL DUP3 MSTORE PUSH1 0x4 DUP3 REVERT JUMPDEST PUSH4 0x65E52D51 PUSH1 0xE1 SHL DUP3 MSTORE PUSH1 0x4 DUP3 REVERT JUMPDEST POP CALLVALUE PUSH2 0x206 JUMPI PUSH1 0x20 CALLDATASIZE PUSH1 0x3 NOT ADD SLT PUSH2 0x206 JUMPI PUSH1 0x1 PUSH1 0x1 PUSH1 0xA0 SHL SUB PUSH2 0x1CCC PUSH2 0x21FB JUMP JUMPDEST AND DUP2 MSTORE PUSH1 0x6 PUSH1 0x20 MSTORE PUSH1 0x40 DUP2 KECCAK256 SWAP1 DUP2 SLOAD SWAP1 PUSH2 0x1CE5 DUP3 PUSH2 0x25E8 JUMP JUMPDEST SWAP3 DUP2 JUMPDEST DUP4 DUP2 LT PUSH2 0x1CFD JUMPI PUSH1 0x40 MLOAD DUP1 PUSH2 0x3DF DUP8 DUP3 PUSH2 0x246E JUMP JUMPDEST DUP1 PUSH2 0x1D0A PUSH1 0x1 SWAP3 DUP5 PUSH2 0x24B3 JUMP JUMPDEST SWAP1 SLOAD SWAP1 PUSH1 0x3 SHL SHR DUP5 MSTORE PUSH1 0x5 PUSH1 0x20 MSTORE PUSH1 0x40 DUP5 KECCAK256 PUSH1 0x5 PUSH1 0x40 MLOAD SWAP2 PUSH2 0x1D2B DUP4 PUSH2 0x231B JUMP JUMPDEST DUP5 DUP1 PUSH1 0xA0 SHL SUB DUP2 SLOAD AND DUP4 MSTORE DUP5 DUP1 PUSH1 0xA0 SHL SUB DUP6 DUP3 ADD SLOAD AND PUSH1 0x20 DUP5 ADD MSTORE PUSH1 0x2 DUP2 ADD SLOAD DUP6 DUP1 PUSH1 0xA0 SHL SUB DUP2 AND PUSH1 0x40 DUP6 ADD MSTORE PUSH4 0xFFFFFFFF DUP2 PUSH1 0xA0 SHR AND PUSH1 0x60 DUP6 ADD MSTORE DUP1 PUSH1 0xC0 SHR PUSH1 0x2 SIGNEXTEND PUSH1 0x80 DUP6 ADD MSTORE PUSH1 0xD8 SHR PUSH1 0x2 SIGNEXTEND PUSH1 0xA0 DUP5 ADD MSTORE PUSH2 0x1DA4 PUSH1 0xFF PUSH1 0x3 DUP4 ADD SLOAD PUSH1 0x1 PUSH1 0x1 PUSH1 0x40 SHL SUB DUP2 AND PUSH1 0xC0 DUP8 ADD MSTORE PUSH1 0x40 SHR AND PUSH1 0xE0 DUP6 ADD PUSH2 0x25C5 JUMP JUMPDEST PUSH1 0x4 DUP2 ADD SLOAD PUSH2 0x100 DUP5 ADD MSTORE ADD SLOAD PUSH2 0x120 DUP3 ADD MSTORE PUSH2 0x1DC1 DUP3 DUP9 PUSH2 0x2638 JUMP JUMPDEST MSTORE PUSH2 0x1DCC DUP2 DUP8 PUSH2 0x2638 JUMP JUMPDEST POP ADD PUSH2 0x1CE8 JUMP JUMPDEST POP CALLVALUE PUSH2 0x206 JUMPI PUSH1 0x60 CALLDATASIZE PUSH1 0x3 NOT ADD SLT PUSH2 0x206 JUMPI PUSH1 0x4 CALLDATALOAD PUSH1 0x24 CALLDATALOAD SWAP1 PUSH1 0x44 CALLDATALOAD SWAP2 PUSH16 0xFFFFFFFFFFFFFFFFFFFFFFFFFFFFFFFF DUP4 AND DUP1 SWAP4 SUB PUSH2 0x108A JUMPI PUSH1 0x2 SLOAD PUSH1 0x1 PUSH1 0x1 PUSH1 0xA0 SHL SUB AND CALLER SUB PUSH2 0x1F4B JUMPI PUSH2 0x1E24 PUSH2 0x29F9 JUMP JUMPDEST DUP2 DUP5 MSTORE PUSH1 0x5 PUSH1 0x20 MSTORE PUSH1 0x40 DUP5 KECCAK256 PUSH1 0x3 DUP2 ADD SWAP1 PUSH1 0xFF DUP3 SLOAD PUSH1 0x40 SHR AND PUSH1 0x3 DUP2 LT ISZERO PUSH2 0x1F37 JUMPI PUSH2 0x1EFB JUMPI PUSH1 0x2 DUP2 ADD DUP1 SLOAD PUSH1 0xA0 SHR PUSH4 0xFFFFFFFF AND DUP8 MSTORE PUSH1 0x8 PUSH1 0x20 MSTORE PUSH1 0x40 DUP8 KECCAK256 SLOAD SWAP1 SWAP3 SWAP1 PUSH1 0x1 PUSH1 0x1 PUSH1 0xA0 SHL SUB AND ISZERO ISZERO DUP1 PUSH2 0x1EE6 JUMPI JUMPDEST PUSH2 0x1ED7 JUMPI PUSH1 0x40 SWAP3 DUP5 PUSH1 0x5 PUSH32 0x47BA39D87DF8B4C2663F9D298C92CC07750AD1B1F035A7E9E761028A995C1CEE SWAP7 SWAP5 PUSH4 0xFFFFFFFF SWAP5 PUSH1 0x1 PUSH1 0x40 SHL PUSH1 0xFF PUSH1 0x40 SHL NOT DUP3 SLOAD AND OR SWAP1 SSTORE ADD SSTORE SLOAD PUSH1 0xA0 SHR AND SWAP5 DUP3 MLOAD SWAP2 DUP3 MSTORE PUSH1 0x20 DUP3 ADD MSTORE LOG3 PUSH1 0x1 DUP2 SSTORE DUP1 RETURN JUMPDEST PUSH4 0x62F74295 PUSH1 0xE1 SHL DUP8 MSTORE PUSH1 0x4 DUP8 REVERT JUMPDEST POP PUSH1 0x2 SLOAD PUSH1 0x1 PUSH1 0x1 PUSH1 0xA0 SHL SUB AND CALLER EQ ISZERO PUSH2 0x1E79 JUMP JUMPDEST PUSH1 0x40 MLOAD PUSH3 0x461BCD PUSH1 0xE5 SHL DUP2 MSTORE PUSH1 0x20 PUSH1 0x4 DUP3 ADD MSTORE PUSH1 0x14 PUSH1 0x24 DUP3 ADD MSTORE PUSH20 0x506F736974696F6E206E6F742070656E64696E67 PUSH1 0x60 SHL PUSH1 0x44 DUP3 ADD MSTORE PUSH1 0x64 SWAP1 REVERT JUMPDEST PUSH4 0x4E487B71 PUSH1 0xE0 SHL DUP8 MSTORE PUSH1 0x21 PUSH1 0x4 MSTORE PUSH1 0x24 DUP8 REVERT JUMPDEST PUSH4 0x1F0853C1 PUSH1 0xE2 SHL DUP5 MSTORE PUSH1 0x4 DUP5 REVERT JUMPDEST POP CALLVALUE PUSH2 0x206 JUMPI PUSH1 0x20 CALLDATASIZE PUSH1 0x3 NOT ADD SLT PUSH2 0x206 JUMPI PUSH1 0x40 SWAP1 PUSH4 0xFFFFFFFF PUSH2 0x1F7C PUSH2 0x21E3 JUMP JUMPDEST AND DUP2 MSTORE PUSH1 0x7 PUSH1 0x20 MSTORE KECCAK256 PUSH1 0xFF DUP2 SLOAD AND PUSH2 0x1F96 PUSH1 0x1 DUP4 ADD PUSH2 0x2389 JUMP JUMPDEST SWAP2 PUSH2 0x1FE1 PUSH1 0x1 PUSH1 0x1 PUSH1 0x40 SHL SUB PUSH1 0x3 PUSH2 0x1FB0 PUSH1 0x2 DUP6 ADD PUSH2 0x2389 JUMP JUMPDEST SWAP4 ADD SLOAD AND SWAP2 PUSH2 0x1FD3 PUSH1 0x40 MLOAD SWAP6 DUP7 SWAP6 ISZERO ISZERO DUP7 MSTORE PUSH1 0x80 PUSH1 0x20 DUP8 ADD MSTORE PUSH1 0x80 DUP7 ADD SWAP1 PUSH2 0x242D JUMP JUMPDEST SWAP1 DUP5 DUP3 SUB PUSH1 0x40 DUP7 ADD MSTORE PUSH2 0x242D JUMP JUMPDEST SWAP1 PUSH1 0x60 DUP4 ADD MSTORE SUB SWAP1 RETURN JUMPDEST POP CALLVALUE PUSH2 0x206 JUMPI PUSH1 0x20 CALLDATASIZE PUSH1 0x3 NOT ADD SLT PUSH2 0x206 JUMPI PUSH1 0x4 CALLDATALOAD DUP1 ISZERO ISZERO DUP1 SWAP2 SUB PUSH2 0x108E JUMPI PUSH1 0x1 SLOAD PUSH1 0x1 PUSH1 0x1 PUSH1 0xA0 SHL SUB AND CALLER SUB PUSH2 0x269 JUMPI PUSH1 0x9 DUP1 SLOAD PUSH1 0xFF PUSH1 0xA8 SHL NOT AND PUSH1 0xA8 SWAP3 SWAP1 SWAP3 SHL PUSH1 0xFF PUSH1 0xA8 SHL AND SWAP2 SWAP1 SWAP2 OR SWAP1 SSTORE DUP1 RETURN JUMPDEST POP CALLVALUE PUSH2 0x206 JUMPI PUSH1 0x20 CALLDATASIZE PUSH1 0x3 NOT ADD SLT PUSH2 0x206 JUMPI PUSH1 0x40 PUSH2 0x140 SWAP2 PUSH2 0x205C PUSH2 0x257A JUMP JUMPDEST POP PUSH1 0x4 CALLDATALOAD DUP2 MSTORE PUSH1 0x5 PUSH1 0x20 MSTORE KECCAK256 PUSH1 0x5 PUSH1 0x40 MLOAD SWAP2 PUSH2 0x2077 DUP4 PUSH2 0x231B JUMP JUMPDEST PUSH1 0x1 DUP1 PUSH1 0xA0 SHL SUB DUP2 SLOAD AND DUP4 MSTORE PUSH1 0x1 DUP1 PUSH1 0xA0 SHL SUB PUSH1 0x1 DUP3 ADD SLOAD AND PUSH1 0x20 DUP5 ADD MSTORE PUSH1 0x2 DUP2 ADD SLOAD PUSH1 0x1 DUP1 PUSH1 0xA0 SHL SUB DUP2 AND PUSH1 0x40 DUP6 ADD MSTORE PUSH4 0xFFFFFFFF DUP2 PUSH1 0xA0 SHR AND PUSH1 0x60 DUP6 ADD MSTORE DUP1 PUSH1 0xC0 SHR PUSH1 0x2 SIGNEXTEND PUSH1 0x80 DUP6 ADD MSTORE PUSH1 0xD8 SHR PUSH1 0x2 SIGNEXTEND PUSH1 0xA0 DUP5 ADD MSTORE PUSH2 0x20F4 PUSH1 0xFF PUSH1 0x3 DUP4 ADD SLOAD PUSH1 0x1 PUSH1 0x1 PUSH1 0x40 SHL SUB DUP2 AND PUSH1 0xC0 DUP8 ADD MSTORE PUSH1 0x40 SHR AND PUSH1 0xE0 DUP6 ADD PUSH2 0x25C5 JUMP JUMPDEST PUSH1 0x4 DUP2 ADD SLOAD PUSH2 0x100 DUP5 ADD MSTORE ADD SLOAD PUSH2 0x120 DUP3 ADD MSTORE PUSH2 0x2114 PUSH1 0x40 MLOAD DUP1 SWAP3 PUSH2 0x224A JUMP JUMPDEST RETURN JUMPDEST POP CALLVALUE PUSH2 0x206 JUMPI PUSH1 0x40 CALLDATASIZE PUSH1 0x3 NOT ADD SLT PUSH2 0x206 JUMPI PUSH2 0x2130 PUSH2 0x21E3 JUMP JUMPDEST PUSH1 0x24 CALLDATALOAD PUSH1 0x1 PUSH1 0x1 PUSH1 0xA0 SHL SUB DUP2 AND SWAP2 SWAP1 DUP3 SWAP1 SUB PUSH2 0x9BD JUMPI PUSH1 0x1 SLOAD PUSH1 0x1 PUSH1 0x1 PUSH1 0xA0 SHL SUB AND CALLER SUB PUSH2 0x130E JUMPI PUSH1 0x20 PUSH4 0xFFFFFFFF PUSH32 0xC0648D71480D56E212D7221A29783F9DC7D62231867ED5159F5D1BDB1459B999 SWAP3 AND SWAP3 DUP4 DUP6 MSTORE PUSH1 0x7 DUP3 MSTORE PUSH2 0x219A PUSH1 0xFF PUSH1 0x40 DUP8 KECCAK256 SLOAD AND PUSH2 0x2538 JUMP JUMPDEST DUP4 DUP6 MSTORE PUSH1 0x8 DUP3 MSTORE PUSH1 0x40 DUP1 DUP7 KECCAK256 DUP1 SLOAD PUSH1 0x1 PUSH1 0x1 PUSH1 0xA0 SHL SUB NOT AND DUP4 OR SWAP1 SSTORE MLOAD SWAP1 DUP2 MSTORE LOG2 DUP1 RETURN JUMPDEST SWAP1 POP CALLVALUE PUSH2 0x108E JUMPI DUP2 PUSH1 0x3 NOT CALLDATASIZE ADD SLT PUSH2 0x108E JUMPI PUSH1 0x9 SLOAD PUSH1 0x1 PUSH1 0x1 PUSH1 0xA0 SHL SUB AND DUP2 MSTORE PUSH1 0x20 SWAP1 RETURN JUMPDEST PUSH1 0x4 CALLDATALOAD SWAP1 PUSH4 0xFFFFFFFF DUP3 AND DUP3 SUB PUSH2 0x21F6 JUMPI JUMP JUMPDEST PUSH1 0x0 DUP1 REVERT JUMPDEST PUSH1 0x4 CALLDATALOAD SWAP1 PUSH1 0x1 PUSH1 0x1 PUSH1 0xA0 SHL SUB DUP3 AND DUP3 SUB PUSH2 0x21F6 JUMPI JUMP JUMPDEST PUSH1 0x64 CALLDATALOAD SWAP1 PUSH1 0x1 PUSH1 0x1 PUSH1 0xA0 SHL SUB DUP3 AND DUP3 SUB PUSH2 0x21F6 JUMPI JUMP JUMPDEST SWAP1 PUSH1 0x3 DUP3 LT ISZERO PUSH2 0x2234 JUMPI MSTORE JUMP JUMPDEST PUSH4 0x4E487B71 PUSH1 0xE0 SHL PUSH1 0x0 MSTORE PUSH1 0x21 PUSH1 0x4 MSTORE PUSH1 0x24 PUSH1 0x0 REVERT JUMPDEST PUSH2 0x120 DUP1 SWAP2 PUSH1 0x1 DUP1 PUSH1 0xA0 SHL SUB DUP2 MLOAD AND DUP5 MSTORE PUSH1 0x1 DUP1 PUSH1 0xA0 SHL SUB PUSH1 0x20 DUP3 ADD MLOAD AND PUSH1 0x20 DUP6 ADD MSTORE PUSH1 0x1 DUP1 PUSH1 0xA0 SHL SUB PUSH1 0x40 DUP3 ADD MLOAD AND PUSH1 0x40 DUP6 ADD MSTORE PUSH4 0xFFFFFFFF PUSH1 0x60 DUP3 ADD MLOAD AND PUSH1 0x60 DUP6 ADD MSTORE PUSH1 0x80 DUP2 ADD MLOAD PUSH1 0x2 SIGNEXTEND PUSH1 0x80 DUP6 ADD MSTORE PUSH1 0xA0 DUP2 ADD MLOAD PUSH1 0x2 SIGNEXTEND PUSH1 0xA0 DUP6 ADD MSTORE PUSH1 0x1 PUSH1 0x1 PUSH1 0x40 SHL SUB PUSH1 0xC0 DUP3 ADD MLOAD AND PUSH1 0xC0 DUP6 ADD MSTORE PUSH2 0x22CE PUSH1 0xE0 DUP3 ADD MLOAD PUSH1 0xE0 DUP7 ADD SWAP1 PUSH2 0x2227 JUMP JUMPDEST PUSH2 0x100 DUP2 ADD MLOAD PUSH2 0x100 DUP6 ADD MSTORE ADD MLOAD SWAP2 ADD MSTORE JUMP JUMPDEST SWAP1 PUSH1 0x1 DUP3 DUP2 SHR SWAP3 AND DUP1 ISZERO PUSH2 0x2311 JUMPI JUMPDEST PUSH1 0x20 DUP4 LT EQ PUSH2 0x22FB JUMPI JUMP JUMPDEST PUSH4 0x4E487B71 PUSH1 0xE0 SHL PUSH1 0x0 MSTORE PUSH1 0x22 PUSH1 0x4 MSTORE PUSH1 0x24 PUSH1 0x0 REVERT JUMPDEST SWAP2 PUSH1 0x7F AND SWAP2 PUSH2 0x22F0 JUMP JUMPDEST PUSH2 0x140 DUP2 ADD SWAP1 DUP2 LT PUSH1 0x1 PUSH1 0x1 PUSH1 0x40 SHL SUB DUP3 GT OR PUSH2 0x2337 JUMPI PUSH1 0x40 MSTORE JUMP JUMPDEST PUSH4 0x4E487B71 PUSH1 0xE0 SHL PUSH1 0x0 MSTORE PUSH1 0x41 PUSH1 0x4 MSTORE PUSH1 0x24 PUSH1 0x0 REVERT JUMPDEST PUSH1 0x80 DUP2 ADD SWAP1 DUP2 LT PUSH1 0x1 PUSH1 0x1 PUSH1 0x40 SHL SUB DUP3 GT OR PUSH2 0x2337 JUMPI PUSH1 0x40 MSTORE JUMP JUMPDEST SWAP1 PUSH1 0x1F DUP1 NOT SWAP2 ADD AND DUP2 ADD SWAP1 DUP2 LT PUSH1 0x1 PUSH1 0x1 PUSH1 0x40 SHL SUB DUP3 GT OR PUSH2 0x2337 JUMPI PUSH1 0x40 MSTORE JUMP JUMPDEST SWAP1 PUSH1 0x40 MLOAD SWAP2 DUP3 PUSH1 0x0 DUP3 SLOAD SWAP3 PUSH2 0x239D DUP5 PUSH2 0x22E1 JUMP JUMPDEST DUP1 DUP5 MSTORE SWAP4 PUSH1 0x1 DUP2 AND SWAP1 DUP2 ISZERO PUSH2 0x240B JUMPI POP PUSH1 0x1 EQ PUSH2 0x23C4 JUMPI JUMPDEST POP PUSH2 0x23C2 SWAP3 POP SUB DUP4 PUSH2 0x2368 JUMP JUMPDEST JUMP JUMPDEST SWAP1 POP PUSH1 0x0 SWAP3 SWAP2 SWAP3 MSTORE PUSH1 0x20 PUSH1 0x0 KECCAK256 SWAP1 PUSH1 0x0 SWAP2 JUMPDEST DUP2 DUP4 LT PUSH2 0x23EF JUMPI POP POP SWAP1 PUSH1 0x20 PUSH2 0x23C2 SWAP3 DUP3 ADD ADD CODESIZE PUSH2 0x23B5 JUMP JUMPDEST PUSH1 0x20 SWAP2 SWAP4 POP DUP1 PUSH1 0x1 SWAP2 SLOAD DUP4 DUP6 DUP10 ADD ADD MSTORE ADD SWAP2 ADD SWAP1 SWAP2 DUP5 SWAP3 PUSH2 0x23D6 JUMP JUMPDEST SWAP1 POP PUSH1 0x20 SWAP3 POP PUSH2 0x23C2 SWAP5 SWAP2 POP PUSH1 0xFF NOT AND DUP3 DUP5 ADD MSTORE ISZERO ISZERO PUSH1 0x5 SHL DUP3 ADD ADD CODESIZE PUSH2 0x23B5 JUMP JUMPDEST SWAP2 SWAP1 DUP3 MLOAD SWAP3 DUP4 DUP3 MSTORE PUSH1 0x0 JUMPDEST DUP5 DUP2 LT PUSH2 0x2459 JUMPI POP POP DUP3 PUSH1 0x0 PUSH1 0x20 DUP1 SWAP5 SWAP6 DUP5 ADD ADD MSTORE PUSH1 0x1F DUP1 NOT SWAP2 ADD AND ADD ADD SWAP1 JUMP JUMPDEST DUP1 PUSH1 0x20 DUP1 SWAP3 DUP5 ADD ADD MLOAD DUP3 DUP3 DUP7 ADD ADD MSTORE ADD PUSH2 0x2438 JUMP JUMPDEST PUSH1 0x20 PUSH1 0x40 DUP2 DUP4 ADD SWAP3 DUP3 DUP2 MSTORE DUP5 MLOAD DUP1 SWAP5 MSTORE ADD SWAP3 ADD SWAP1 PUSH1 0x0 JUMPDEST DUP2 DUP2 LT PUSH2 0x2492 JUMPI POP POP POP SWAP1 JUMP JUMPDEST SWAP1 SWAP2 SWAP3 PUSH1 0x20 PUSH2 0x140 DUP3 PUSH2 0x24A8 PUSH1 0x1 SWAP5 DUP9 MLOAD PUSH2 0x224A JUMP JUMPDEST ADD SWAP5 ADD SWAP3 SWAP2 ADD PUSH2 0x2485 JUMP JUMPDEST DUP1 SLOAD DUP3 LT ISZERO PUSH2 0x24CB JUMPI PUSH1 0x0 MSTORE PUSH1 0x20 PUSH1 0x0 KECCAK256 ADD SWAP1 PUSH1 0x0 SWAP1 JUMP JUMPDEST PUSH4 0x4E487B71 PUSH1 0xE0 SHL PUSH1 0x0 MSTORE PUSH1 0x32 PUSH1 0x4 MSTORE PUSH1 0x24 PUSH1 0x0 REVERT JUMPDEST SWAP2 DUP2 PUSH1 0x1F DUP5 ADD SLT ISZERO PUSH2 0x21F6 JUMPI DUP3 CALLDATALOAD SWAP2 PUSH1 0x1 PUSH1 0x1 PUSH1 0x40 SHL SUB DUP4 GT PUSH2 0x21F6 JUMPI PUSH1 0x20 DUP4 DUP2 DUP7 ADD SWAP6 ADD ADD GT PUSH2 0x21F6 JUMPI JUMP JUMPDEST PUSH1 0x60 SWAP1 PUSH1 0x3 NOT ADD SLT PUSH2 0x21F6 JUMPI PUSH1 0x4 CALLDATALOAD PUSH1 0x1 PUSH1 0x1 PUSH1 0xA0 SHL SUB DUP2 AND DUP2 SUB PUSH2 0x21F6 JUMPI SWAP1 PUSH1 0x24 CALLDATALOAD SWAP1 PUSH1 0x44 CALLDATALOAD SWAP1 JUMP JUMPDEST ISZERO PUSH2 0x253F JUMPI JUMP JUMPDEST PUSH1 0x40 MLOAD PUSH3 0x461BCD PUSH1 0xE5 SHL DUP2 MSTORE PUSH1 0x20 PUSH1 0x4 DUP3 ADD MSTORE PUSH1 0x13 PUSH1 0x24 DUP3 ADD MSTORE PUSH19 0x10DA185A5B881B9BDD081CDD5C1C1BDC9D1959 PUSH1 0x6A SHL PUSH1 0x44 DUP3 ADD MSTORE PUSH1 0x64 SWAP1 REVERT JUMPDEST PUSH1 0x40 MLOAD SWAP1 PUSH2 0x2587 DUP3 PUSH2 0x231B JUMP JUMPDEST PUSH1 0x0 PUSH2 0x120 DUP4 DUP3 DUP2 MSTORE DUP3 PUSH1 0x20 DUP3 ADD MSTORE DUP3 PUSH1 0x40 DUP3 ADD MSTORE DUP3 PUSH1 0x60 DUP3 ADD MSTORE DUP3 PUSH1 0x80 DUP3 ADD MSTORE DUP3 PUSH1 0xA0 DUP3 ADD MSTORE DUP3 PUSH1 0xC0 DUP3 ADD MSTORE DUP3 PUSH1 0xE0 DUP3 ADD MSTORE DUP3 PUSH2 0x100 DUP3 ADD MSTORE ADD MSTORE JUMP JUMPDEST PUSH1 0x3 DUP3 LT ISZERO PUSH2 0x2234 JUMPI MSTORE JUMP JUMPDEST PUSH1 0x1 PUSH1 0x1 PUSH1 0x40 SHL SUB DUP2 GT PUSH2 0x2337 JUMPI PUSH1 0x5 SHL PUSH1 0x20 ADD SWAP1 JUMP JUMPDEST SWAP1 PUSH2 0x25F2 DUP3 PUSH2 0x25D1 JUMP JUMPDEST PUSH2 0x25FF PUSH1 0x40 MLOAD SWAP2 DUP3 PUSH2 0x2368 JUMP JUMPDEST DUP3 DUP2 MSTORE DUP1 SWAP3 PUSH2 0x2610 PUSH1 0x1F NOT SWAP2 PUSH2 0x25D1 JUMP JUMPDEST ADD SWAP1 PUSH1 0x0 JUMPDEST DUP3 DUP2 LT PUSH2 0x2621 JUMPI POP POP POP JUMP JUMPDEST PUSH1 0x20 SWAP1 PUSH2 0x262C PUSH2 0x257A JUMP JUMPDEST DUP3 DUP3 DUP6 ADD ADD MSTORE ADD PUSH2 0x2615 JUMP JUMPDEST DUP1 MLOAD DUP3 LT ISZERO PUSH2 0x24CB JUMPI PUSH1 0x20 SWAP2 PUSH1 0x5 SHL ADD ADD SWAP1 JUMP JUMPDEST SWAP2 SWAP1 DUP3 SUB SWAP2 DUP3 GT PUSH2 0x2659 JUMPI JUMP JUMPDEST PUSH4 0x4E487B71 PUSH1 0xE0 SHL PUSH1 0x0 MSTORE PUSH1 0x11 PUSH1 0x4 MSTORE PUSH1 0x24 PUSH1 0x0 REVERT JUMPDEST PUSH1 0x1 PUSH1 0x1 PUSH1 0x40 SHL SUB DUP2 GT PUSH2 0x2337 JUMPI PUSH1 0x1F ADD PUSH1 0x1F NOT AND PUSH1 0x20 ADD SWAP1 JUMP JUMPDEST RETURNDATASIZE ISZERO PUSH2 0x26B5 JUMPI RETURNDATASIZE SWAP1 PUSH2 0x269B DUP3 PUSH2 0x266F JUMP JUMPDEST SWAP2 PUSH2 0x26A9 PUSH1 0x40 MLOAD SWAP4 DUP5 PUSH2 0x2368 JUMP JUMPDEST DUP3 MSTORE RETURNDATASIZE PUSH1 0x0 PUSH1 0x20 DUP5 ADD RETURNDATACOPY JUMP JUMPDEST PUSH1 0x60 SWAP1 JUMP JUMPDEST PUSH1 0x0 NOT DUP2 EQ PUSH2 0x2659 JUMPI PUSH1 0x1 ADD SWAP1 JUMP JUMPDEST SWAP2 SWAP1 DUP3 ADD DUP1 SWAP3 GT PUSH2 0x2659 JUMPI JUMP JUMPDEST DUP2 DUP2 LT PUSH2 0x26E1 JUMPI POP POP JUMP JUMPDEST PUSH1 0x0 DUP2 SSTORE PUSH1 0x1 ADD PUSH2 0x26D6 JUMP JUMPDEST SWAP3 SWAP2 SWAP3 PUSH2 0x26F9 DUP3 PUSH2 0x266F JUMP JUMPDEST SWAP2 PUSH2 0x2707 PUSH1 0x40 MLOAD SWAP4 DUP5 PUSH2 0x2368 JUMP JUMPDEST DUP3 SWAP5 DUP2 DUP5 MSTORE DUP2 DUP4 ADD GT PUSH2 0x21F6 JUMPI DUP3 DUP2 PUSH1 0x20 SWAP4 DUP5 PUSH1 0x0 SWAP7 ADD CALLDATACOPY ADD ADD MSTORE JUMP JUMPDEST SWAP2 SWAP1 PUSH1 0x1F DUP2 GT PUSH2 0x2733 JUMPI POP POP POP JUMP JUMPDEST PUSH2 0x23C2 SWAP3 PUSH1 0x0 MSTORE PUSH1 0x20 PUSH1 0x0 KECCAK256 SWAP1 PUSH1 0x20 PUSH1 0x1F DUP5 ADD PUSH1 0x5 SHR DUP4 ADD SWAP4 LT PUSH2 0x275F JUMPI JUMPDEST PUSH1 0x1F ADD PUSH1 0x5 SHR ADD SWAP1 PUSH2 0x26D6 JUMP JUMPDEST SWAP1 SWAP2 POP DUP2 SWAP1 PUSH2 0x2752 JUMP JUMPDEST SWAP1 DUP1 PUSH1 0x20 SWAP4 SWAP3 DUP2 DUP5 MSTORE DUP5 DUP5 ADD CALLDATACOPY PUSH1 0x0 DUP3 DUP3 ADD DUP5 ADD MSTORE PUSH1 0x1F ADD PUSH1 0x1F NOT AND ADD ADD SWAP1 JUMP JUMPDEST PUSH1 0x1 PUSH1 0x1 PUSH1 0xA0 SHL SUB AND PUSH1 0x0 SWAP1 DUP2 MSTORE PUSH1 0x6 PUSH1 0x20 MSTORE PUSH1 0x40 SWAP1 KECCAK256 DUP1 SLOAD SWAP2 SWAP3 SWAP1 SWAP2 DUP1 DUP5 LT ISZERO PUSH2 0x2839 JUMPI DUP4 PUSH2 0x27B9 SWAP2 PUSH2 0x264C JUMP JUMPDEST SWAP1 DUP2 DUP2 GT ISZERO PUSH2 0x2831 JUMPI POP SWAP1 JUMPDEST PUSH2 0x27CE DUP3 PUSH2 0x25D1 JUMP JUMPDEST SWAP3 PUSH2 0x27DC PUSH1 0x40 MLOAD SWAP5 DUP6 PUSH2 0x2368 JUMP JUMPDEST DUP3 DUP5 MSTORE PUSH1 0x1F NOT PUSH2 0x27EB DUP5 PUSH2 0x25D1 JUMP JUMPDEST ADD CALLDATASIZE PUSH1 0x20 DUP7 ADD CALLDATACOPY PUSH1 0x0 JUMPDEST DUP4 DUP2 LT PUSH2 0x2803 JUMPI POP POP POP POP SWAP1 JUMP JUMPDEST DUP1 PUSH2 0x2819 PUSH2 0x2813 PUSH1 0x1 SWAP4 DUP6 PUSH2 0x26C9 JUMP JUMPDEST DUP6 PUSH2 0x24B3 JUMP JUMPDEST SWAP1 SLOAD SWAP1 PUSH1 0x3 SHL SHR PUSH2 0x282A DUP3 DUP9 PUSH2 0x2638 JUMP JUMPDEST MSTORE ADD PUSH2 0x27F5 JUMP JUMPDEST SWAP1 POP SWAP1 PUSH2 0x27C5 JUMP JUMPDEST POP POP POP POP PUSH1 0x40 MLOAD PUSH2 0x284B PUSH1 0x20 DUP3 PUSH2 0x2368 JUMP JUMPDEST PUSH1 0x0 DUP2 MSTORE PUSH1 0x0 CALLDATASIZE DUP2 CALLDATACOPY SWAP1 JUMP JUMPDEST SWAP3 SWAP1 PUSH2 0x2870 SWAP1 PUSH2 0x287E SWAP6 SWAP4 PUSH1 0x40 DUP7 MSTORE PUSH1 0x40 DUP7 ADD SWAP2 PUSH2 0x2769 JUMP JUMPDEST SWAP3 PUSH1 0x20 DUP2 DUP6 SUB SWAP2 ADD MSTORE PUSH2 0x2769 JUMP JUMPDEST SWAP1 JUMP JUMPDEST PUSH1 0x1 PUSH1 0x1 PUSH1 0xA0 SHL SUB AND PUSH1 0x0 SWAP1 DUP2 MSTORE PUSH1 0x6 PUSH1 0x20 MSTORE PUSH1 0x40 SWAP1 KECCAK256 DUP1 SLOAD SWAP2 SWAP3 SWAP1 SWAP2 DUP1 DUP5 LT ISZERO PUSH2 0x29BA JUMPI DUP4 PUSH2 0x28B0 SWAP2 PUSH2 0x264C JUMP JUMPDEST SWAP1 DUP2 DUP2 GT ISZERO PUSH2 0x29B2 JUMPI POP SWAP1 JUMPDEST PUSH2 0x28C5 DUP3 PUSH2 0x25E8 JUMP JUMPDEST SWAP3 PUSH1 0x0 JUMPDEST DUP4 DUP2 LT PUSH2 0x28D7 JUMPI POP POP POP POP SWAP1 JUMP JUMPDEST DUP1 PUSH2 0x28E7 PUSH2 0x2813 PUSH1 0x1 SWAP4 DUP6 PUSH2 0x26C9 JUMP JUMPDEST SWAP1 SLOAD SWAP1 PUSH1 0x3 SHL SHR PUSH1 0x0 MSTORE PUSH1 0x5 PUSH1 0x20 MSTORE PUSH1 0x40 PUSH1 0x0 KECCAK256 PUSH1 0x5 PUSH1 0x40 MLOAD SWAP2 PUSH2 0x290A DUP4 PUSH2 0x231B JUMP JUMPDEST DUP5 DUP1 PUSH1 0xA0 SHL SUB DUP2 SLOAD AND DUP4 MSTORE DUP5 DUP1 PUSH1 0xA0 SHL SUB DUP6 DUP3 ADD SLOAD AND PUSH1 0x20 DUP5 ADD MSTORE PUSH1 0x2 DUP2 ADD SLOAD DUP6 DUP1 PUSH1 0xA0 SHL SUB DUP2 AND PUSH1 0x40 DUP6 ADD MSTORE PUSH4 0xFFFFFFFF DUP2 PUSH1 0xA0 SHR AND PUSH1 0x60 DUP6 ADD MSTORE DUP1 PUSH1 0xC0 SHR PUSH1 0x2 SIGNEXTEND PUSH1 0x80 DUP6 ADD MSTORE PUSH1 0xD8 SHR PUSH1 0x2 SIGNEXTEND PUSH1 0xA0 DUP5 ADD MSTORE PUSH2 0x2983 PUSH1 0xFF PUSH1 0x3 DUP4 ADD SLOAD PUSH1 0x1 PUSH1 0x1 PUSH1 0x40 SHL SUB DUP2 AND PUSH1 0xC0 DUP8 ADD MSTORE PUSH1 0x40 SHR AND PUSH1 0xE0 DUP6 ADD PUSH2 0x25C5 JUMP JUMPDEST PUSH1 0x4 DUP2 ADD SLOAD PUSH2 0x100 DUP5 ADD MSTORE ADD SLOAD PUSH2 0x120 DUP3 ADD MSTORE PUSH2 0x29A0 DUP3 DUP9 PUSH2 0x2638 JUMP JUMPDEST MSTORE PUSH2 0x29AB DUP2 DUP8 PUSH2 0x2638 JUMP JUMPDEST POP ADD PUSH2 0x28C9 JUMP JUMPDEST SWAP1 POP SWAP1 PUSH2 0x28BC JUMP JUMPDEST POP POP PUSH1 0x40 MLOAD SWAP2 POP PUSH1 0x0 SWAP1 POP PUSH2 0x29D0 PUSH1 0x20 DUP4 PUSH2 0x2368 JUMP JUMPDEST DUP2 MSTORE PUSH1 0x0 DUP1 JUMPDEST DUP2 DUP2 LT PUSH2 0x29E2 JUMPI POP POP SWAP1 JUMP JUMPDEST PUSH1 0x20 SWAP1 PUSH2 0x29ED PUSH2 0x257A JUMP JUMPDEST DUP3 DUP3 DUP7 ADD ADD MSTORE ADD PUSH2 0x29D6 JUMP JUMPDEST PUSH1 0x2 PUSH1 0x0 SLOAD EQ PUSH2 0x2A0A JUMPI PUSH1 0x2 PUSH1 0x0 SSTORE JUMP JUMPDEST PUSH4 0x3EE5AEB5 PUSH1 0xE0 SHL PUSH1 0x0 MSTORE PUSH1 0x4 PUSH1 0x0 REVERT INVALID LOG2 PUSH5 0x6970667358 0x22 SLT KECCAK256 0xD4 MCOPY 0x4B 0xD8 PUSH32 0xBD485125E4F92D3CBE8B2AC75684ED0112E87E670BC7B1D5A9F8AE64736F6C63 NUMBER STOP ADDMOD SHR STOP CALLER "},"methodIdentifiers":{"XCM_PRECOMPILE()":"077120cc","addChain(uint32,bytes,string,address)":"b80fe2f9","admin()":"f851a440","chainExecutors(uint32)":"e98eaaac","confirmExecution(bytes32,bytes32,uint128)":"28e6bdbe","deposit()":"d0e30db0","dispatchInvestment(address,uint32,address,address,uint256,int24,int24,bytes,bytes)":"dd67d25a","emergency()":"caa6fea4","emergencyLiquidatePosition(uint32,bytes32)":"caffc49c","freezeXcmPrecompile()":"9a270acd","getChainConfig(uint32)":"a20b9b77","getPosition(bytes32)":"1928b3cb","getUserBalance(address)":"47734892","getUserPositionCount(address)":"31e8a7ef","getUserPositionIds(address,uint256,uint256)":"d4b39ebb","getUserPositionStats(address)":"e4584c07","getUserPositions(address)":"2a6bc2dd","getUserPositionsByStatus(address,uint8,uint256)":"374aca59","getUserPositionsPage(address,uint256,uint256)":"e006a7aa","isChainSupported(uint32)":"cbaa349e","isPositionActive(address,bytes32)":"2fefe440","operator()":"570ca735","pause()":"8456cb59","paused()":"5c975abb","positions(bytes32)":"514ea4bf","removeChain(uint32)":"55a2d64d","setEmergency(address)":"eb02a115","setOperator(address)":"b3ab15fb","setTestMode(bool)":"1ff1292f","setXcmPrecompile(address)":"5dad35ca","settleLiquidation(bytes32,uint256)":"43d6ca9c","supportedChains(uint32)":"248514dd","testMode()":"cd9ea342","transferAdmin(address)":"75829def","unpause()":"3f4ba83a","updateChainExecutor(uint32,address)":"0d77be69","userBalances(address)":"26224c64","userPositions(address,uint256)":"5e1b4d99","withdraw(uint256)":"2e1a7d4d","xcmPrecompileFrozen()":"9b2c59e6"}}}}}