{"contracts/V1(Current)/XCMProxy.sol":{"XCMProxy":{"abi":[{"inputs":[{"internalType":"address","name":"initialOwner","type":"address"}],"stateMutability":"nonpayable","type":"constructor"},{"inputs":[],"name":"EnforcedPause","type":"error"},{"inputs":[],"name":"ExpectedPause","type":"error"},{"inputs":[{"internalType":"address","name":"owner","type":"address"}],"name":"OwnableInvalidOwner","type":"error"},{"inputs":[{"internalType":"address","name":"account","type":"address"}],"name":"OwnableUnauthorizedAccount","type":"error"},{"inputs":[],"name":"ReentrancyGuardReentrantCall","type":"error"},{"inputs":[{"internalType":"address","name":"token","type":"address"}],"name":"SafeERC20FailedOperation","type":"error"},{"anonymous":false,"inputs":[{"indexed":false,"internalType":"uint32","name":"paraId","type":"uint32"}],"name":"AssetHubParaIdSet","type":"event"},{"anonymous":false,"inputs":[{"indexed":true,"internalType":"address","name":"token","type":"address"},{"indexed":true,"internalType":"address","name":"user","type":"address"},{"indexed":false,"internalType":"uint256","name":"amount","type":"uint256"},{"indexed":false,"internalType":"bytes","name":"investmentParams","type":"bytes"}],"name":"AssetsReceived","type":"event"},{"anonymous":false,"inputs":[{"indexed":true,"internalType":"address","name":"token","type":"address"},{"indexed":true,"internalType":"address","name":"user","type":"address"},{"indexed":false,"internalType":"bytes","name":"destination","type":"bytes"},{"indexed":false,"internalType":"uint256","name":"amount","type":"uint256"},{"indexed":false,"internalType":"uint256","name":"positionId","type":"uint256"}],"name":"AssetsReturned","type":"event"},{"anonymous":false,"inputs":[{"indexed":false,"internalType":"uint64","name":"weight","type":"uint64"}],"name":"DefaultDestWeightSet","type":"event"},{"anonymous":false,"inputs":[{"indexed":false,"internalType":"uint16","name":"bps","type":"uint16"}],"name":"DefaultSlippageSet","type":"event"},{"anonymous":false,"inputs":[{"indexed":true,"internalType":"uint256","name":"positionId","type":"uint256"},{"indexed":false,"internalType":"bytes32","name":"assetHubPositionId","type":"bytes32"},{"indexed":true,"internalType":"address","name":"user","type":"address"},{"indexed":false,"internalType":"address","name":"baseAsset","type":"address"},{"indexed":false,"internalType":"uint256","name":"totalReturned","type":"uint256"}],"name":"LiquidationCompleted","type":"event"},{"anonymous":false,"inputs":[{"indexed":true,"internalType":"address","name":"pool","type":"address"},{"indexed":true,"internalType":"address","name":"recipient","type":"address"},{"indexed":false,"internalType":"int24","name":"bottomTick","type":"int24"},{"indexed":false,"internalType":"int24","name":"topTick","type":"int24"},{"indexed":false,"internalType":"uint128","name":"liquidity","type":"uint128"},{"indexed":false,"internalType":"uint256","name":"amount0","type":"uint256"},{"indexed":false,"internalType":"uint256","name":"amount1","type":"uint256"}],"name":"LiquidityAdded","type":"event"},{"anonymous":false,"inputs":[{"indexed":true,"internalType":"address","name":"operator","type":"address"}],"name":"OperatorUpdated","type":"event"},{"anonymous":false,"inputs":[{"indexed":true,"internalType":"address","name":"previousOwner","type":"address"},{"indexed":true,"internalType":"address","name":"newOwner","type":"address"}],"name":"OwnershipTransferred","type":"event"},{"anonymous":false,"inputs":[{"indexed":false,"internalType":"address","name":"account","type":"address"}],"name":"Paused","type":"event"},{"anonymous":false,"inputs":[{"indexed":true,"internalType":"bytes32","name":"assetHubPositionId","type":"bytes32"},{"indexed":true,"internalType":"address","name":"user","type":"address"},{"indexed":false,"internalType":"uint256","name":"refundAmount","type":"uint256"}],"name":"PendingPositionCancelled","type":"event"},{"anonymous":false,"inputs":[{"indexed":true,"internalType":"bytes32","name":"assetHubPositionId","type":"bytes32"},{"indexed":true,"internalType":"address","name":"user","type":"address"},{"indexed":false,"internalType":"address","name":"token","type":"address"},{"indexed":false,"internalType":"uint256","name":"amount","type":"uint256"},{"indexed":false,"internalType":"address","name":"poolId","type":"address"}],"name":"PendingPositionCreated","type":"event"},{"anonymous":false,"inputs":[{"indexed":true,"internalType":"uint256","name":"positionId","type":"uint256"},{"indexed":true,"internalType":"address","name":"user","type":"address"},{"indexed":false,"internalType":"address","name":"pool","type":"address"},{"indexed":false,"internalType":"address","name":"token0","type":"address"},{"indexed":false,"internalType":"address","name":"token1","type":"address"},{"indexed":false,"internalType":"int24","name":"bottomTick","type":"int24"},{"indexed":false,"internalType":"int24","name":"topTick","type":"int24"},{"indexed":false,"internalType":"uint128","name":"liquidity","type":"uint128"}],"name":"PositionCreated","type":"event"},{"anonymous":false,"inputs":[{"indexed":true,"internalType":"bytes32","name":"assetHubPositionId","type":"bytes32"},{"indexed":true,"internalType":"uint256","name":"localPositionId","type":"uint256"},{"indexed":false,"internalType":"uint256","name":"nfpmTokenId","type":"uint256"},{"indexed":false,"internalType":"uint128","name":"liquidity","type":"uint128"}],"name":"PositionExecuted","type":"event"},{"anonymous":false,"inputs":[{"indexed":true,"internalType":"uint256","name":"positionId","type":"uint256"},{"indexed":true,"internalType":"address","name":"user","type":"address"},{"indexed":false,"internalType":"uint256","name":"amount0","type":"uint256"},{"indexed":false,"internalType":"uint256","name":"amount1","type":"uint256"}],"name":"PositionLiquidated","type":"event"},{"anonymous":false,"inputs":[{"indexed":true,"internalType":"address","name":"tokenIn","type":"address"},{"indexed":true,"internalType":"address","name":"tokenOut","type":"address"},{"indexed":false,"internalType":"uint256","name":"amountIn","type":"uint256"},{"indexed":false,"internalType":"uint256","name":"amountOut","type":"uint256"},{"indexed":false,"internalType":"uint256","name":"positionId","type":"uint256"}],"name":"ProceedsSwapped","type":"event"},{"anonymous":false,"inputs":[{"indexed":true,"internalType":"address","name":"caller","type":"address"}],"name":"TrustedXcmCallerSet","type":"event"},{"anonymous":false,"inputs":[{"indexed":false,"internalType":"address","name":"account","type":"address"}],"name":"Unpaused","type":"event"},{"anonymous":false,"inputs":[{"indexed":true,"internalType":"address","name":"precompile","type":"address"}],"name":"XTokensPrecompileSet","type":"event"},{"anonymous":false,"inputs":[],"name":"XcmConfigFrozen","type":"event"},{"anonymous":false,"inputs":[{"indexed":false,"internalType":"uint32","name":"paraId","type":"uint32"},{"indexed":false,"internalType":"uint16","name":"feeLocation","type":"uint16"},{"indexed":false,"internalType":"uint64","name":"transactRequiredWeightAtMost","type":"uint64"},{"indexed":false,"internalType":"uint256","name":"feeAmount","type":"uint256"},{"indexed":false,"internalType":"uint64","name":"overallWeight","type":"uint64"},{"indexed":false,"internalType":"bool","name":"success","type":"bool"},{"indexed":false,"internalType":"bytes","name":"errorData","type":"bytes"}],"name":"XcmRemoteCallAttempt","type":"event"},{"anonymous":false,"inputs":[{"indexed":true,"internalType":"address","name":"precompile","type":"address"}],"name":"XcmTransactorPrecompileSet","type":"event"},{"anonymous":false,"inputs":[{"indexed":true,"internalType":"address","name":"token","type":"address"},{"indexed":false,"internalType":"bytes","name":"dest","type":"bytes"},{"indexed":false,"internalType":"uint256","name":"amount","type":"uint256"},{"indexed":false,"internalType":"bool","name":"success","type":"bool"},{"indexed":false,"internalType":"bytes","name":"errorData","type":"bytes"}],"name":"XcmTransferAttempt","type":"event"},{"inputs":[{"internalType":"address","name":"token","type":"address"}],"name":"addSupportedToken","outputs":[],"stateMutability":"nonpayable","type":"function"},{"inputs":[],"name":"assetHubParaId","outputs":[{"internalType":"uint32","name":"","type":"uint32"}],"stateMutability":"view","type":"function"},{"inputs":[{"internalType":"bytes32","name":"","type":"bytes32"}],"name":"assetHubPositionToLocalId","outputs":[{"internalType":"uint256","name":"","type":"uint256"}],"stateMutability":"view","type":"function"},{"inputs":[{"internalType":"uint8","name":"palletIndex","type":"uint8"},{"internalType":"uint8","name":"callIndex","type":"uint8"},{"internalType":"bytes","name":"","type":"bytes"}],"name":"buildPalletCallBytes","outputs":[{"internalType":"bytes","name":"","type":"bytes"}],"stateMutability":"pure","type":"function"},{"inputs":[{"internalType":"address","name":"pool","type":"address"},{"internalType":"int24","name":"lowerRangePercent","type":"int24"},{"internalType":"int24","name":"upperRangePercent","type":"int24"}],"name":"calculateTickRange","outputs":[{"internalType":"int24","name":"bottomTick","type":"int24"},{"internalType":"int24","name":"topTick","type":"int24"}],"stateMutability":"view","type":"function"},{"inputs":[{"internalType":"bytes32","name":"assetHubPositionId","type":"bytes32"},{"internalType":"bytes","name":"destination","type":"bytes"}],"name":"cancelPendingPosition","outputs":[],"stateMutability":"nonpayable","type":"function"},{"inputs":[{"internalType":"uint256","name":"positionId","type":"uint256"}],"name":"collectFees","outputs":[{"internalType":"uint256","name":"amount0","type":"uint256"},{"internalType":"uint256","name":"amount1","type":"uint256"}],"stateMutability":"nonpayable","type":"function"},{"inputs":[],"name":"defaultDestWeight","outputs":[{"internalType":"uint64","name":"","type":"uint64"}],"stateMutability":"view","type":"function"},{"inputs":[],"name":"defaultSlippageBps","outputs":[{"internalType":"uint16","name":"","type":"uint16"}],"stateMutability":"view","type":"function"},{"inputs":[{"internalType":"uint256","name":"positionId","type":"uint256"}],"name":"executeFullLiquidation","outputs":[{"internalType":"uint256","name":"amount0","type":"uint256"},{"internalType":"uint256","name":"amount1","type":"uint256"}],"stateMutability":"nonpayable","type":"function"},{"inputs":[{"internalType":"bytes32","name":"assetHubPositionId","type":"bytes32"}],"name":"executePendingInvestment","outputs":[{"internalType":"uint256","name":"localPositionId","type":"uint256"}],"stateMutability":"nonpayable","type":"function"},{"inputs":[],"name":"freezeXcmConfig","outputs":[],"stateMutability":"nonpayable","type":"function"},{"inputs":[],"name":"getActivePositions","outputs":[{"components":[{"internalType":"bytes32","name":"assetHubPositionId","type":"bytes32"},{"internalType":"address","name":"pool","type":"address"},{"internalType":"address","name":"token0","type":"address"},{"internalType":"address","name":"token1","type":"address"},{"internalType":"int24","name":"bottomTick","type":"int24"},{"internalType":"int24","name":"topTick","type":"int24"},{"internalType":"uint128","name":"liquidity","type":"uint128"},{"internalType":"uint256","name":"tokenId","type":"uint256"},{"internalType":"address","name":"owner","type":"address"},{"internalType":"int24","name":"lowerRangePercent","type":"int24"},{"internalType":"int24","name":"upperRangePercent","type":"int24"},{"internalType":"uint256","name":"entryPrice","type":"uint256"},{"internalType":"uint256","name":"timestamp","type":"uint256"},{"internalType":"bool","name":"active","type":"bool"}],"internalType":"struct XCMProxy.Position[]","name":"","type":"tuple[]"}],"stateMutability":"view","type":"function"},{"inputs":[{"internalType":"address","name":"token","type":"address"}],"name":"getBalance","outputs":[{"internalType":"uint256","name":"","type":"uint256"}],"stateMutability":"view","type":"function"},{"inputs":[{"internalType":"address","name":"user","type":"address"}],"name":"getUserPositions","outputs":[{"internalType":"uint256[]","name":"","type":"uint256[]"}],"stateMutability":"view","type":"function"},{"inputs":[{"internalType":"uint256","name":"positionId","type":"uint256"}],"name":"isPositionOutOfRange","outputs":[{"internalType":"bool","name":"outOfRange","type":"bool"},{"internalType":"uint256","name":"currentPrice","type":"uint256"}],"stateMutability":"view","type":"function"},{"inputs":[{"internalType":"uint256","name":"positionId","type":"uint256"},{"internalType":"address","name":"baseAsset","type":"address"},{"internalType":"bytes","name":"destination","type":"bytes"},{"internalType":"uint256","name":"minAmountOut0","type":"uint256"},{"internalType":"uint256","name":"minAmountOut1","type":"uint256"},{"internalType":"uint160","name":"limitSqrtPrice","type":"uint160"},{"internalType":"bytes32","name":"assetHubPositionId","type":"bytes32"}],"name":"liquidateSwapAndReturn","outputs":[],"stateMutability":"nonpayable","type":"function"},{"inputs":[],"name":"nfpmContract","outputs":[{"internalType":"address","name":"","type":"address"}],"stateMutability":"view","type":"function"},{"inputs":[{"internalType":"address","name":"","type":"address"},{"internalType":"address","name":"","type":"address"},{"internalType":"uint256","name":"","type":"uint256"},{"internalType":"bytes","name":"","type":"bytes"}],"name":"onERC721Received","outputs":[{"internalType":"bytes4","name":"","type":"bytes4"}],"stateMutability":"nonpayable","type":"function"},{"inputs":[],"name":"operator","outputs":[{"internalType":"address","name":"","type":"address"}],"stateMutability":"view","type":"function"},{"inputs":[],"name":"owner","outputs":[{"internalType":"address","name":"","type":"address"}],"stateMutability":"view","type":"function"},{"inputs":[],"name":"pause","outputs":[],"stateMutability":"nonpayable","type":"function"},{"inputs":[],"name":"paused","outputs":[{"internalType":"bool","name":"","type":"bool"}],"stateMutability":"view","type":"function"},{"inputs":[{"internalType":"bytes32","name":"","type":"bytes32"}],"name":"pendingPositions","outputs":[{"internalType":"bytes32","name":"assetHubPositionId","type":"bytes32"},{"internalType":"address","name":"token","type":"address"},{"internalType":"address","name":"user","type":"address"},{"internalType":"uint256","name":"amount","type":"uint256"},{"internalType":"address","name":"poolId","type":"address"},{"internalType":"address","name":"baseAsset","type":"address"},{"internalType":"int24","name":"lowerRangePercent","type":"int24"},{"internalType":"int24","name":"upperRangePercent","type":"int24"},{"internalType":"uint16","name":"slippageBps","type":"uint16"},{"internalType":"uint256","name":"timestamp","type":"uint256"},{"internalType":"bool","name":"exists","type":"bool"}],"stateMutability":"view","type":"function"},{"inputs":[],"name":"positionCounter","outputs":[{"internalType":"uint256","name":"","type":"uint256"}],"stateMutability":"view","type":"function"},{"inputs":[{"internalType":"uint256","name":"","type":"uint256"}],"name":"positions","outputs":[{"internalType":"bytes32","name":"assetHubPositionId","type":"bytes32"},{"internalType":"address","name":"pool","type":"address"},{"internalType":"address","name":"token0","type":"address"},{"internalType":"address","name":"token1","type":"address"},{"internalType":"int24","name":"bottomTick","type":"int24"},{"internalType":"int24","name":"topTick","type":"int24"},{"internalType":"uint128","name":"liquidity","type":"uint128"},{"internalType":"uint256","name":"tokenId","type":"uint256"},{"internalType":"address","name":"owner","type":"address"},{"internalType":"int24","name":"lowerRangePercent","type":"int24"},{"internalType":"int24","name":"upperRangePercent","type":"int24"},{"internalType":"uint256","name":"entryPrice","type":"uint256"},{"internalType":"uint256","name":"timestamp","type":"uint256"},{"internalType":"bool","name":"active","type":"bool"}],"stateMutability":"view","type":"function"},{"inputs":[{"internalType":"address","name":"tokenIn","type":"address"},{"internalType":"address","name":"tokenOut","type":"address"},{"internalType":"uint256","name":"amountIn","type":"uint256"},{"internalType":"uint160","name":"limitSqrtPrice","type":"uint160"}],"name":"quoteExactInputSingle","outputs":[{"internalType":"uint256","name":"amountOut","type":"uint256"}],"stateMutability":"nonpayable","type":"function"},{"inputs":[],"name":"quoterContract","outputs":[{"internalType":"address","name":"","type":"address"}],"stateMutability":"view","type":"function"},{"inputs":[{"internalType":"bytes32","name":"assetHubPositionId","type":"bytes32"},{"internalType":"address","name":"token","type":"address"},{"internalType":"address","name":"user","type":"address"},{"internalType":"uint256","name":"amount","type":"uint256"},{"internalType":"bytes","name":"investmentParams","type":"bytes"}],"name":"receiveAssets","outputs":[],"stateMutability":"nonpayable","type":"function"},{"inputs":[{"internalType":"uint16","name":"feeLocation","type":"uint16"},{"internalType":"uint64","name":"transactRequiredWeightAtMost","type":"uint64"},{"internalType":"bytes","name":"call","type":"bytes"},{"internalType":"uint256","name":"feeAmount","type":"uint256"},{"internalType":"uint64","name":"overallWeight","type":"uint64"}],"name":"remoteCallAssetHub","outputs":[],"stateMutability":"nonpayable","type":"function"},{"inputs":[{"internalType":"address","name":"token","type":"address"}],"name":"removeSupportedToken","outputs":[],"stateMutability":"nonpayable","type":"function"},{"inputs":[],"name":"renounceOwnership","outputs":[],"stateMutability":"nonpayable","type":"function"},{"inputs":[{"internalType":"address","name":"token","type":"address"},{"internalType":"address","name":"user","type":"address"},{"internalType":"uint256","name":"amount","type":"uint256"},{"internalType":"bytes","name":"destination","type":"bytes"}],"name":"returnAssets","outputs":[],"stateMutability":"nonpayable","type":"function"},{"inputs":[{"internalType":"uint32","name":"paraId","type":"uint32"}],"name":"setAssetHubParaId","outputs":[],"stateMutability":"nonpayable","type":"function"},{"inputs":[{"internalType":"uint64","name":"weight","type":"uint64"}],"name":"setDefaultDestWeight","outputs":[],"stateMutability":"nonpayable","type":"function"},{"inputs":[{"internalType":"uint16","name":"bps","type":"uint16"}],"name":"setDefaultSlippageBps","outputs":[],"stateMutability":"nonpayable","type":"function"},{"inputs":[{"internalType":"address","name":"quoter","type":"address"},{"internalType":"address","name":"router","type":"address"}],"name":"setIntegrations","outputs":[],"stateMutability":"nonpayable","type":"function"},{"inputs":[{"internalType":"address","name":"nfpm","type":"address"}],"name":"setNFPM","outputs":[],"stateMutability":"nonpayable","type":"function"},{"inputs":[{"internalType":"address","name":"newOperator","type":"address"}],"name":"setOperator","outputs":[],"stateMutability":"nonpayable","type":"function"},{"inputs":[{"internalType":"bool","name":"_testMode","type":"bool"}],"name":"setTestMode","outputs":[],"stateMutability":"nonpayable","type":"function"},{"inputs":[{"internalType":"address","name":"caller","type":"address"}],"name":"setTrustedXcmCaller","outputs":[],"stateMutability":"nonpayable","type":"function"},{"inputs":[{"internalType":"address","name":"precompile","type":"address"}],"name":"setXTokensPrecompile","outputs":[],"stateMutability":"nonpayable","type":"function"},{"inputs":[{"internalType":"address","name":"precompile","type":"address"}],"name":"setXcmTransactorPrecompile","outputs":[],"stateMutability":"nonpayable","type":"function"},{"inputs":[{"internalType":"address","name":"","type":"address"}],"name":"supportedTokens","outputs":[{"internalType":"bool","name":"","type":"bool"}],"stateMutability":"view","type":"function"},{"inputs":[{"internalType":"address","name":"tokenIn","type":"address"},{"internalType":"address","name":"tokenOut","type":"address"},{"internalType":"address","name":"recipient","type":"address"},{"internalType":"uint256","name":"amountIn","type":"uint256"},{"internalType":"uint256","name":"amountOutMinimum","type":"uint256"},{"internalType":"uint160","name":"limitSqrtPrice","type":"uint160"}],"name":"swapExactInputSingle","outputs":[{"internalType":"uint256","name":"amountOut","type":"uint256"}],"stateMutability":"nonpayable","type":"function"},{"inputs":[],"name":"swapRouterContract","outputs":[{"internalType":"address","name":"","type":"address"}],"stateMutability":"view","type":"function"},{"inputs":[],"name":"testMode","outputs":[{"internalType":"bool","name":"","type":"bool"}],"stateMutability":"view","type":"function"},{"inputs":[{"internalType":"address","name":"newOwner","type":"address"}],"name":"transferOwnership","outputs":[],"stateMutability":"nonpayable","type":"function"},{"inputs":[],"name":"trustedXcmCaller","outputs":[{"internalType":"address","name":"","type":"address"}],"stateMutability":"view","type":"function"},{"inputs":[],"name":"unpause","outputs":[],"stateMutability":"nonpayable","type":"function"},{"inputs":[{"internalType":"address","name":"","type":"address"},{"internalType":"uint256","name":"","type":"uint256"}],"name":"userPositions","outputs":[{"internalType":"uint256","name":"","type":"uint256"}],"stateMutability":"view","type":"function"},{"inputs":[],"name":"xTokensPrecompile","outputs":[{"internalType":"address","name":"","type":"address"}],"stateMutability":"view","type":"function"},{"inputs":[],"name":"xcmConfigFrozen","outputs":[{"internalType":"bool","name":"","type":"bool"}],"stateMutability":"view","type":"function"},{"inputs":[],"name":"xcmTransactorPrecompile","outputs":[{"internalType":"address","name":"","type":"address"}],"stateMutability":"view","type":"function"}],"evm":{"bytecode":{"linkReferences":{},"object":"6080346100ff57601f614dde38819003918201601f19168301916001600160401b03831184841017610104578084926020946040528339810103126100ff57516001600160a01b038116908190036100ff5780156100e957600080546001600160a01b0319811683178255604051929182916001600160a01b0316907f8be0079c531659141344cd1fd0a4f28419497f9722a3daafe3b4186f6b6457e09080a3600180556259682f60aa1b600c55600d80546001600160a81b0319169055600e80546001600160a01b0319908116909155600f8054909116919091179055614cc3908161011b8239f35b631e4fbdf760e01b600052600060045260246000fd5b600080fd5b634e487b7160e01b600052604160045260246000fdfe60a080604052600436101561001357600080fd5b600090813560e01c908162cac96c14613d745750806310af06a214613d1057806311b21acf14613ac1578063150b7a0214613a6b5780631ff1292f14613a245780632a6bc2dd146139a95780632d349e51146139315780632d9ebd1d1461380b5780632fe220a4146137e25780633467fc5d146134a55780633e4fba3614612ec65780633f4ba83a14612e5e57806341051ef814612d8557806345ebe8cf14612cbf5780634d0e5db414612c6b5780634d7f9cc914612bf157806354422760146128b3578063570ca7351461288a5780635c975abb146128675780635cb124a8146127d75780635e1b4d99146127805780635fc75ec21461244e57806363d5ab8d14612430578063649ba22c146123db57806366d0bb71146123b157806368c4ac26146123725780636b3f1fdb146122de5780636d69fcaf1461229a578063715018a61461224057806376319190146121ff5780638456cb59146121a45780638da5cb5b1461217d578063966676211461215857806399fbab88146120675780639aa79a8414611fcc5780639fb3b5ab14611f8c578063a23c34a814611904578063a3b45a2a14611851578063b17acdcd146116ed578063b3ab15fb14611685578063b7e33ee3146107fc578063b9c6cce6146105df578063c332bec114610577578063cd9ea34214610551578063d107417214610528578063dfaa9b7014610507578063e178b5dd146104de578063e34fe5131461043c578063e84073f614610413578063f2fde38b1461038d578063f699c43a14610363578063f84144fb1461033a578063f8b2cb4f1461029d5763fee4e4741461027257600080fd5b3461029a578060031936011261029a57600a546040516001600160a01b039091168152602090f35b80fd5b503461029a57602036600319011261029a5760249060206001600160a01b036102c4613d98565b16604051938480926370a0823160e01b82523060048301525afa90811561032e57906102f6575b602090604051908152f35b506020813d602011610326575b8161031060209383613e81565b8101031261032157602090516102eb565b600080fd5b3d9150610303565b604051903d90823e3d90fd5b503461029a578060031936011261029a57600b546040516001600160a01b039091168152602090f35b503461029a578060031936011261029a5760206001600160401b03600c5460a01c16604051908152f35b503461029a57602036600319011261029a576103a7613d98565b6103af614718565b6001600160a01b031680156103ff5781546001600160a01b03198116821783556001600160a01b03167f8be0079c531659141344cd1fd0a4f28419497f9722a3daafe3b4186f6b6457e08380a380f35b631e4fbdf760e01b82526004829052602482fd5b503461029a578060031936011261029a576009546040516001600160a01b039091168152602090f35b503461029a57606036600319011261029a5760043560ff811681036104da5760243560ff811681036104d657604435926001600160401b03841161029a575061048c6104d2933690600401613ebd565b506040516001600160f81b031960f893841b811660208301529190921b166021820152600281526104be602282613e81565b604051918291602083526020830190613f48565b0390f35b8280fd5b5080fd5b503461029a578060031936011261029a57600e546040516001600160a01b039091168152602090f35b503461029a578060031936011261029a576020600c5460e01c604051908152f35b503461029a578060031936011261029a57600d546040516001600160a01b039091168152602090f35b503461029a578060031936011261029a57602060ff600f5460a01c166040519015158152f35b503461029a57602036600319011261029a57610591613d98565b610599614718565b600e80546001600160a01b0319166001600160a01b039290921691821790557fc10a21a67f3b69d3034d57ebbde814014797fdcb1c153f007f47296412e930b58280a280f35b503461029a5760c036600319011261029a576105f9613d98565b81610602613dae565b61060a613dc4565b90606435610616613f04565b9061061f614718565b610627614741565b61062f61475e565b600a546001600160a01b0316956106478715156145f6565b604051636eb1769f60e11b81523060048201526001600160a01b0388811660248301529190911696906020816044818b5afa9081156107f15787916107af575b50916020959391610731959361079f575b50600a546106b19082906001600160a01b03168a61483a565b600a546001600160a01b0316936106c98515156145f6565b604051936106d685613e4a565b8985526001600160a01b039081168886015260408086018a9052918116606086015242608086015260a085019290925260843560c0850152911660e083015251630b3ce3c960e11b8152948593849283919060048301614633565b03925af192831561032e5792610769575b600a54602090849061075d906001600160a01b031685614780565b60018055604051908152f35b91506020823d602011610797575b8161078460209383613e81565b810103126103215790519061075d610742565b3d9150610777565b6107a99089614780565b38610698565b949296505093916020843d6020116107e9575b816107cf60209383613e81565b810103126103215792518795929491939291906020610687565b3d91506107c2565b6040513d89823e3d90fd5b503461029a57602036600319011261029a5761082360018060a01b03600f54163314614076565b61082b614741565b61083361475e565b600435815260076020526040812061085160ff6009830154166140b1565b60018101546005820154600383015460048401546001600160a01b039283169390831692169061088360068601613fda565b60078601546002909601546001600160a01b0316948381141593603088901c61ffff1693929183908287611438575b5050506108c98860181c60020b8960020b88614447565b949093604051630dfe168160e01b81526020816004818c5afa80156112f0578c608052611417575b5060405163d21220a760e01b8152936020856004818c5afa9485156112f0578c956113e6575b508051156113e0578051156113cc5760208101515b9060018151116000146113c5578051600110156113b157604001515b6080516001600160a01b03958616999195168914806113aa575b156113725750506024602082985b6040516370a0823160e01b815230600482015292839182905afa9081156112f0578c91611340575b50106112fb57851595861561123f575b8215918215611187575b600b546001600160a01b03168015611153578815611097575b508215610fd9575b8015610fc85761ffff905b168715610fa6578b905b8315610f7157508b905b60018060a01b03600b5416946040519361016085018581106001600160401b03821117610f5c57928f926101409592608097946101649660405260018060a01b03895116865260018060a01b038c16602087015260408601528b60020b60608601528c60020b8886015260a085015260c084015260e08301526101008201523061012082015242838201528d604051968794859363fe3f3be760e01b855260018060a01b03815116600486015260018060a01b03602082015116602486015260018060a01b036040820151166044860152606081015160020b60648601528781015160020b608486015260a081015160a486015260c081015160c486015260e081015160e486015261010081015161010486015260018060a01b036101208201511661012486015201516101448401525af1958615610f51578a928b97610efc575b5015610edb575b15610ebc575b600654610b4d906143ac565b9788600655888a60405192610b6184613e18565b6004358452896020850152600160a01b60019003608051166040850152600160a01b60019003861660608501528660020b60808501528760020b60a08501526001600160801b03891660c085015260e08401908582526101008501908c825261012086018160020b815261014087019160181c60020b82526101608701936103e885526101808801954287526101a08901976001895281526004602052604090209780518955600160a01b6001900360208201511660018a0190600160a01b60019003166001600160601b0360a01b825416179055600160a01b6001900360408201511660028a0190600160a01b60019003166001600160601b0360a01b82541617905560038901600160a01b60019003600160a01b60019003606084015116166001600160601b0360a01b825416178155608082015160020b610cbe90829081549060a01b62ffffff60a01b169062ffffff60a01b1916179055565b60a0820151815460b89190911b62ffffff60b81b1662ffffff60b81b1990911617905560c001516004890180546001600160801b039092166fffffffffffffffffffffffffffffffff199092169190911790555160058801559151600687018054935160a01b62ffffff60a01b166001600160a01b039092166001600160b81b03199094169390931717825551815460b89190911b62ffffff60b81b1662ffffff60b81b199091161790555160078401555160088301555115159060090190610d92919060ff801983541691151516179055565b868952600560205260408920805490600160401b821015610ea857936001600160801b03938a7f7112c6849012c19915dd63e9b6905b8febad32e176de071fb5b3b3d757d288199894610e2e604060209f610df888869f9c600160c09f9b018155613f1a565b81549060031b9087821b91600019901b191617905560043581526020600890528482822055600435815260206007905220614126565b6040519081528686168e8201527f4379aa5572d39d362eb14a9d4e41f70105f3bea7ce8f3e99fa15f7a4e525767a604060043592a360405195865260018060a01b03608051168c87015260018060a01b0316604086015260020b606085015260020b60808401521660a0820152a360018055604051908152f35b634e487b7160e01b8b52604160045260248bfd5b600b54610ed6906001600160a01b03908116908416614780565b610b41565b600b54608051610ef7916001600160a01b039081169116614780565b610b3b565b925095506080823d608011610f49575b81610f1960809383613e81565b81010312610f455760208251920151916001600160801b0383168303610f4157919538610b34565b8a80fd5b8980fd5b3d9150610f0c565b6040513d8c823e3d90fd5b50634e487b7160e01b8f52604160045260248ffd5b612710036127108111610f9257610f8b61271091866140fd565b04906109f2565b634e487b7160e01b8d52601160045260248dfd5b80612710036127108111610f9257610fc161271091846140fd565b04906109e8565b5061ffff80600e5460a01c166109de565b600b54604051636eb1769f60e11b81523060048201526001600160a01b0391821660248201819052918e9190881690602081604481855afa90811561108c57889391611053575b509261103e93611043575b50600b546001600160a01b03169061483a565b6109d3565b61104d9082614780565b3861102b565b9250506020823d602011611084575b8161106f60209383613e81565b8101031261032157905186919061103e611020565b3d9150611062565b6040513d85823e3d90fd5b604051636eb1769f60e11b81523060048201526001600160a01b0382811660248301526080518f929160209183916044918391165afa91821561032e5791611121575b50611105575b50600b546080516110ff9184916001600160a01b03918216911661483a565b386109cb565b60805161111b91906001600160a01b0316614780565b386110e0565b90506020813d60201161114b575b8161113c60209383613e81565b810103126103215751386110da565b3d915061112f565b60405162461bcd60e51b815260206004820152600c60248201526b13919413481b9bdd081cd95d60a21b6044820152606490fd5b6040516370a0823160e01b81523060048201528c906020816024816001600160a01b038b165afa908115611234578692916111ff575b5010156109b25760405162461bcd60e51b8152602060048201526013602482015272496e73756666696369656e7420746f6b656e3160681b6044820152606490fd5b9150506020813d60201161122c575b8161121b60209383613e81565b8101031261032157849051386111bd565b3d915061120e565b6040513d84823e3d90fd5b6040516370a0823160e01b8152306004820152608051602090829060249082906001600160a01b03165afa80156112f05782918d916112bb575b5010156109a85760405162461bcd60e51b81526020600482015260136024820152720496e73756666696369656e7420746f6b656e3606c1b6044820152606490fd5b9150506020813d6020116112e8575b816112d760209383613e81565b810103126103215781905138611279565b3d91506112ca565b6040513d8e823e3d90fd5b60405162461bcd60e51b815260206004820152601c60248201527f496e73756666696369656e7420737761707065642066756e64696e67000000006044820152606490fd5b90506020813d60201161136a575b8161135b60209383613e81565b81010312610321575138610998565b3d915061134e565b9097906001600160a01b038616821490816113a2575b50611398575b6020602491610970565b909250829061138e565b905038611388565b5080610962565b634e487b7160e01b8d52603260045260248dfd5b508b610948565b634e487b7160e01b8c52603260045260248cfd5b8b61092c565b61140991955060203d602011611410575b6114018183613e81565b8101906146f9565b9338610917565b503d6113f7565b61142f9060203d602011611410576114018183613e81565b608052386108f1565b600a549295506001600160a01b039092169250821561164a57604051636eb1769f60e11b81523060048201526001600160a01b03841660248201528b9290602081604481855afa9081156115f8578491611613575b50938394611603575b50600a546114af9087906001600160a01b03168361483a565b600a54602090611521906001600160a01b03166114cd8115156145f6565b6040516114d981613e4a565b84815285848201528660408201523060608201524260808201528960a08201528660c08201528660e0820152604051968780948193630b3ce3c960e11b835260048301614633565b03925af19283156115f85784936115c1575b50600080516020614c6e8339815191526060849761155b60018060a01b03600a541685614780565b84966040519182528660208301526040820152a31561157c573880806108b2565b60405162461bcd60e51b815260206004820152601c60248201527f5377617020726573756c74656420696e207a65726f206f7574707574000000006044820152606490fd5b935091506020833d6020116115f0575b816115de60209383613e81565b81010312610321578a92519138611533565b3d91506115d1565b6040513d86823e3d90fd5b61160d9082614780565b38611496565b9350506020833d602011611642575b8161162f60209383613e81565b810103126103215791518b92908361148d565b3d9150611622565b60405162461bcd60e51b815260206004820152601360248201527214ddd85c081c9bdd5d195c881b9bdd081cd95d606a1b6044820152606490fd5b503461029a57602036600319011261029a5761169f613d98565b6116a7614718565b600f80546001600160a01b0319166001600160a01b039290921691821790557fb3b3f5f64ab192e4b5fefde1f51ce9733bbdcf831951543b325aebd49cc27ec48280a280f35b503461029a57602036600319011261029a5761171460018060a01b03600f54163314614076565b61171c61475e565b6004358152600460205260056040822061173c60ff600983015416614304565b01548015158061183d575b156118085760406117a7839260018060a01b03600b54169083519061176b82613e66565b81523060208201526001600160801b03848201526001600160801b036060820152835195868094819363fc6f786560e01b8352600483016146bc565b03925af180156117fb5760409282916117cc575b506001805582519182526020820152f35b90506117ee9150823d84116117f4575b6117e68183613e81565b8101906146a6565b386117bb565b503d6117dc565b50604051903d90823e3d90fd5b60405162461bcd60e51b815260206004820152600d60248201526c13919413481b9bdd081d5cd959609a1b6044820152606490fd5b50600b546001600160a01b03161515611747565b503461029a57602036600319011261029a5761186b613dda565b611873614718565b61ffff81169061271082116118d057600e805461ffff60a01b191660a09290921b61ffff60a01b169190911790556040519081527fb32748f11f0a760d3d4770a5c7649c92eb2e1df92dda6f5da9348d28c19d69ae90602090a180f35b60405162461bcd60e51b815260206004820152600c60248201526b0c4e0e640e8dede40d0d2ced60a31b6044820152606490fd5b503461029a5760e036600319011261029a57600435611921613dae565b906044356001600160401b038111611f8857611941903690600401613deb565b909261194b613f04565b61196060018060a01b03600f54163314614076565b611968614741565b61197061475e565b61197b8315156141d4565b8386526004602052604086209261199860ff600986015416614304565b6001600160a01b0383168088526003602052604088205490939060ff1615611f4e57600285015460038601546001600160a01b0391821694918a91166119dd89614873565b9390839781611df8575b505083611ca7575b505050508215611c745760ff600f5460a01c1615611a8f575b50908291606093600080516020614c4e8339815191527f0ae62392ec9c5ab769dc4d2bf163b81444f6d24444ed51eb54691b478634971a96600660018060a01b0391015416988993611a656040519283928a84528a840191613f89565b8660208301528a60408301520390a36040519160c435835260208301526040820152a36001805580f35b600c546001600160a01b0316611aa6811515614196565b604051636eb1769f60e11b81523060048201526001600160a01b0382166024820152602081604481895afa908115610f51578a91611c42575b50611c32575b50600c54611afe9084906001600160a01b03168661483a565b600c5488906060906001600160a01b038116908390823b156104da57878c96936001600160401b03848094611b518b988d6040519a8b9889978896630f84dd7960e21b885260a01c169360048701614216565b03925af19182611c0d575b505096867f3a0b7fddf9c96c10649e612e9a4dc705ae782721ab6a4a7347cf6e0e13b6a1d28682989796611bdf60609b97600080516020614c4e833981519152977f0ae62392ec9c5ab769dc4d2bf163b81444f6d24444ed51eb54691b478634971a9e15600014611c045750611bd0613faa565b905b8b60405195869586614252565b0390a2600c54611bf8906001600160a01b031684614780565b96505050909192611a08565b90506001611bd2565b81929493989796955090611c2091613e81565b610f4557909488929394958a38611b5c565b611c3c9085614780565b38611ae5565b90506020813d602011611c6c575b81611c5d60209383613e81565b81010312610321575138611adf565b3d9150611c50565b60405162461bcd60e51b815260206004820152600b60248201526a6e6f2070726f636565647360a81b6044820152606490fd5b93959293818803611cca5750505090611cbf91614699565b915b388881806119ef565b600a5494969492939192602091611d6791611cfb908a906001600160a01b0316611cf58115156145f6565b87614b60565b600a546040516001600160a01b0390911691611d1682613e4a565b8682528b858301528760408301523060608301524260808301528a60a083015260843560c083015260018060a01b031660e0820152604051968780948193630b3ce3c960e11b835260048301614633565b03925af1908115611ded5787938c92611db5575b5090611d9681600080516020614c6e83398151915293614699565b6040805198895260208901929092529087018a905295606090a3611cc1565b915092506020813d602011611de5575b81611dd260209383613e81565b8101031261032157518692611d96611d7b565b3d9150611dc5565b6040513d8d823e3d90fd5b91979091808a03611e17575090611e0e91614699565b955b38806119e7565b600a54929892859250611e40908a906001600160a01b0316611e3a8115156145f6565b83614b60565b6020611eb360018060a01b03600a5416604051611e5c81613e4a565b8481528381018e9052604080820187905230606083015242608083015260a082018e905260643560c08301526001600160a01b03881660e083015251630b3ce3c960e11b8152958693849283919060048301614633565b03925af18015611f43578c998b938792611ef7575b50604080519182526020820183905281019a909a5298600080516020614c6e83398151915290606090a3611e10565b965092505097506020843d602011611f3b575b81611f1760209383613e81565b81010312610321578a97600080516020614c6e8339815191528a928f965191611ec8565b3d9150611f0a565b6040513d87823e3d90fd5b60405162461bcd60e51b815260206004820152601260248201527118985cd9481b9bdd081cdd5c1c1bdc9d195960721b6044820152606490fd5b8380fd5b503461029a57602036600319011261029a57611fa6613d98565b611fae614718565b60018060a01b03166001600160601b0360a01b600b541617600b5580f35b503461029a57602036600319011261029a576004356001600160401b038116908181036104d6577fb9e8a579e9a0c4e7749fcfd43149d119da9113654e983feb7225f08a6480237091602091612020614718565b61203260ff600d5460a01c1615614027565b600c805467ffffffffffffffff60a01b191660a09290921b67ffffffffffffffff60a01b16919091179055604051908152a180f35b503461029a57602036600319011261029a5760406101c091600435815260046020522080549060018060a01b036001820154169060018060a01b0360028201541660038201546001600160801b0360048401541660058401549060068501549260078601549460ff600960088901549801541697604051998a5260208a0152604089015260018060a01b03811660608901528060a01c60020b608089015260b81c60020b60a088015260c087015260e086015260018060a01b0381166101008601528060a01c60020b61012086015260b81c60020b61014085015261016084015261018083015215156101a0820152f35b503461029a578060031936011261029a57602061ffff600e5460a01c16604051908152f35b503461029a578060031936011261029a57546040516001600160a01b039091168152602090f35b503461029a578060031936011261029a576121bd614718565b6121c5614741565b600160ff1960025416176002557f62e78cea01bee320cd4e420270b5ea74000d11b0c9f74754ebdbfc544b05a2586020604051338152a180f35b503461029a57602036600319011261029a57612219613d98565b612221614718565b6001600160a01b03168152600360205260408120805460ff1916905580f35b503461029a578060031936011261029a57612259614718565b80546001600160a01b03198116825581906001600160a01b03167f8be0079c531659141344cd1fd0a4f28419497f9722a3daafe3b4186f6b6457e08280a380f35b503461029a57602036600319011261029a576122b4613d98565b6122bc614718565b6001600160a01b03168152600360205260408120805460ff1916600117905580f35b503461029a578060031936011261029a576122f7614718565b600d5460ff8160a01c1661233c5760ff60a01b1916600160a01b17600d557f47b12a5127aee56eadd24cea9cdadf65050a7182da93368c3f64508c2eac0d138180a180f35b60405162461bcd60e51b815260206004820152600e60248201526d30b63932b0b23c90333937bd32b760911b6044820152606490fd5b503461029a57602036600319011261029a5760209060ff906040906001600160a01b0361239d613d98565b168152600384522054166040519015158152f35b503461029a57602036600319011261029a5760406020916004358152600883522054604051908152f35b503461029a57606036600319011261029a576123f5613d98565b602435908160020b82036104d657604435928360020b840361029a57604061241e858585614447565b82519160020b825260020b6020820152f35b503461029a578060031936011261029a576020600654604051908152f35b503461029a578060031936011261029a57806001600654905b818111156127455750612479826142df565b916124876040519384613e81565b808352612496601f19916142df565b01835b8181106126d45750508260015b828111156125b9578385604051918291602083016020845282518091526020604085019301915b8181106124db575050500390f35b9193509160206101c06001926101a0875180518352858060a01b03858201511685840152858060a01b036040820151166040840152858060a01b036060820151166060840152608081015160020b608084015260a081015160020b60a08401526001600160801b0360c08201511660c084015260e081015160e0840152858060a01b036101008201511661010084015261012081015160020b61012084015261014081015160020b610140840152610160810151610160840152610180810151610180840152015115156101a08201520194019101918493926124cd565b808552600460205260ff6009604087200154166125df575b6125da906143ac565b6124a6565b906126cc6125da9183875260046020526040872060ff60096040519261260484613e18565b8054845260018101546001600160a01b039081166020860152600280830154821660408701526003830154808316606088015260a081811c830b608089015260b891821c830b8189015260048501546001600160801b031660c0890152600585015460e0890152600685015493841661010089015283901c820b6101208801529190911c900b6101408501526007810154610160850152600881015461018085015201541615156101a08201526126bb82886143bb565b526126c681876143bb565b506143ac565b9190506125d1565b6020906040516126e381613e18565b86815286838201528660408201528660608201528660808201528660a08201528660c08201528660e08201528661010082015286610120820152866101408201528661016082015286610180820152866101a082015282828701015201612499565b808452600460205260ff60096040862001541661276b575b612766906143ac565b612467565b91612778612766916143ac565b92905061275d565b503461029a57604036600319011261029a5761279a613d98565b6001600160a01b031681526005602052604081208054602435929083101561029a5760206127c88484613f1a565b90549060031b1c604051908152f35b503461029a57602036600319011261029a5760043563ffffffff8116908181036104d6577f0251e6f2d5d17a57707f74c15c4a10071ab5b45953476c7c9e3b1b992d9f9dd091602091612828614718565b61283a60ff600d5460a01c1615614027565b600c80546001600160e01b031660e09290921b6001600160e01b031916919091179055604051908152a180f35b503461029a578060031936011261029a57602060ff600254166040519015158152f35b503461029a578060031936011261029a57600f546040516001600160a01b039091168152602090f35b503461029a57608036600319011261029a576128cd613d98565b6128d5613dae565b604435916064356001600160401b038111612bed576128f8903690600401613deb565b612900614718565b612908614741565b61291061475e565b61291b8115156141d4565b6001600160a01b038316808752600360205260408720549094906129419060ff16614289565b6040516370a0823160e01b815230600482015295602087602481895afa968715612be2578897612bae575b5080612ba85750855b8611612b6c57600c546001600160a01b0316612992811515614196565b604051636eb1769f60e11b81523060048201526001600160a01b03821660248201526020816044818a5afa908115612b61578991612b2f575b50612b1f575b50600c546129ea9087906001600160a01b03168761483a565b600c548794906060906001600160a01b038116908790823b156104da578a88936001600160401b03848094612a3d8f9a8d6040519a8b9889978896630f84dd7960e21b885260a01c169360048701614216565b03925af19182612afe575b5050957f3a0b7fddf9c96c10649e612e9a4dc705ae782721ab6a4a7347cf6e0e13b6a1d291600080516020614c4e8339815191529715600014612af55750612a8e613faa565b905b612aa26040519283928c898b86614252565b0390a2600c54612abb906001600160a01b031686614780565b612ad2604051938493606085526060850191613f89565b6020830196909652604082018790526001600160a01b0316940390a36001805580f35b90506001612a90565b819293945090612b0d91613e81565b612b1b579086918938612a48565b8880fd5b612b299086614780565b386129d1565b90506020813d602011612b59575b81612b4a60209383613e81565b810103126103215751386129cb565b3d9150612b3d565b6040513d8b823e3d90fd5b60405162461bcd60e51b8152602060048201526014602482015273696e73756666696369656e742062616c616e636560601b6044820152606490fd5b95612975565b9096506020813d602011612bda575b81612bca60209383613e81565b810103126103215751953861296c565b3d9150612bbd565b6040513d8a823e3d90fd5b8480fd5b503461029a57602036600319011261029a57612c0b613d98565b612c13614718565b612c2560ff600d5460a01c1615614027565b600c80546001600160a01b0319166001600160a01b039290921691821790557f37a5ad90dee0a8eb332155c0562fe000a288bf5e452bc8ec70de3d57d9396a178280a280f35b503461029a57602036600319011261029a57612c9260018060a01b03600f54163314614076565b612c9a614741565b612ca261475e565b6040612caf600435614873565b6001805582519182526020820152f35b503461029a57602036600319011261029a57604061016091600435815260076020522080549060018060a01b036001820154169061ffff60018060a01b03600283015416600383015460018060a01b0360048501541660018060a01b036005860154169160078601549360ff600960088901549801541697604051998a5260208a015260408901526060880152608087015260a08601528060020b60c08601528060181c60020b60e086015260301c166101008401526101208301521515610140820152f35b503461029a57602036600319011261029a576004358152600460205260408120612db560ff600983015416614304565b60018101546040516339db007960e21b81529060c090829060049082906001600160a01b03165afa90811561108c579060039160409491612e29575b5060020b910154908160a01c60020b8112918215612e19575b50825191151582526020820152f35b60b81c60020b8113915038612e0a565b612e4b915060c03d60c011612e57575b612e438183613e81565b810190614346565b50505050905038612df1565b503d612e39565b503461029a578060031936011261029a57612e77614718565b60025460ff811615612eb75760ff19166002557f5db9ee0a495bf2e6ff9c91a7834c1ba4fdd244a5e8aa4e537bd38aeae4b073aa6020604051338152a180f35b638dfc202b60e01b8252600482fd5b503461029a5760a036600319011261029a57612ee0613dae565b612ee8613dc4565b6084356001600160401b038111611f8857612f07903690600401613ebd565b612f0f614741565b612f1761475e565b60ff600f5460a01c168015613492575b801561346b575b15613435576001600160a01b038316845260036020526040842054612f559060ff16614289565b606435156133f0576001600160a01b038216156133b4576004358452600760205260ff60096040862001541661336f57805181019160e08260208501940312612bed57612fa4602083016142cb565b91612fb1604082016142cb565b60608201516001600160401b03811161336b5782019480603f8701121561336b576020860151612fe0816142df565b96612fee6040519889613e81565b818852602080808a019360051b83010101928311610f4557604001905b82821061335b57505050613021608083016142f6565b9061302e60a084016142f6565b9561303b60c085016142cb565b9661304860e08601614067565b916040519361018085018581106001600160401b0382111761334757908c949392916040526004358652602086019660018060a01b038d1688526040870160018060a01b038d1681526060880190606435825260808901928d60018060a01b0316845260a08a019460018060a01b0316855260c08a0195865260020b60e08a015261010089019560020b865261ffff6101208a019716875260406101408a0198428a5260016101608c015260043581526007602052209989518b5560018060a01b0390511660018b019060018060a01b03166001600160601b0360a01b82541617905560018060a01b0390511660028a019060018060a01b03166001600160601b0360a01b82541617905551600389015560018060a01b03905116600488019060018060a01b03166001600160601b0360a01b82541617905560018060a01b03905116600587019060018060a01b03166001600160601b0360a01b825416179055518051906001600160401b03821161334757600160401b82116133475760068701548260068901558d81841061331a575b5050602001600687018d5260208d208d5b838110613306575050505092600992610160928695600761326098019160e08501519162ffffff67ffff0000000000008554925160181b935160301b169316906001600160401b031916179065ffffff00000016171790555160088501550151151591019060ff801983541691151516179055565b604080516064358152602081018290526001600160a01b03938416938716927f88d1bc9b918b502e5c73359c379d28f57bed4b4db835e92bbcc41c5f3bcaf5299282916132af91830190613f48565b0390a3604080516001600160a01b039485168152606435602082015291841690820152911690600435907fd20f7c6f78ae12d412d6d108bf962114c5c8937be16e09d01b3cd00da50abcf690606090a36001805580f35b6001906020845194019381840155016131eb565b906006890182526020822091848301905b828401821061333c579150506131da565b81556001018f61332b565b634e487b7160e01b8d52604160045260248dfd5b815181526020918201910161300b565b8780fd5b60405162461bcd60e51b815260206004820152601860248201527f506f736974696f6e20616c72656164792070656e64696e6700000000000000006044820152606490fd5b60405162461bcd60e51b8152602060048201526014602482015273496e76616c69642075736572206164647265737360601b6044820152606490fd5b60405162461bcd60e51b815260206004820152601d60248201527f416d6f756e74206d7573742062652067726561746572207468616e20300000006044820152606490fd5b60405162461bcd60e51b815260206004820152600e60248201526d1b9bdd08185d5d1a1bdc9a5e995960921b6044820152606490fd5b50600d546001600160a01b03168015159081613488575b50612f2e565b9050331438613482565b5083546001600160a01b03163314612f27565b503461029a57604036600319011261029a576004356024356001600160401b0381116104d6576134d9903690600401613deb565b6134f160018060a09594951b03600f54163314614076565b6134f9614741565b61350161475e565b8184526007602052604084209261351e60ff6009860154166140b1565b60018060a01b0360018501541690600360018060a01b0360028701541695015492848752600760205261355360408820614126565b60ff600f5460a01c1615613597575b50505060207f0732bc6c415e7a220efee5f866e1e91a1335745b97373898ffecfddbc708a3e791604051908152a36001805580f35b600c54929591949093926001600160a01b03166135b5811515614196565b6135c08515156141d4565b604051636eb1769f60e11b81523060048201526001600160a01b03821660248201526020816044818b5afa908115612b615789916137b0575b506137a0575b50600c546136189084906001600160a01b03168861483a565b600c54876001600160a01b038216803b156104da578582916001600160401b03838b966136628e8d6040519a8b9889978896630f84dd7960e21b885260a01c169360048701614216565b03925af1918261378b575b50506137125750506136d4907f3a0b7fddf9c96c10649e612e9a4dc705ae782721ab6a4a7347cf6e0e13b6a1d294956136a4613faa565b906136bc604051968796608088526080880191613f89565b92602086015260408501528382036060850152613f48565b0390a260405162461bcd60e51b81526020600482015260136024820152721610d3481d1c985b9cd9995c8819985a5b1959606a1b6044820152606490fd5b93908095600080516020614c4e833981519152602094937f0732bc6c415e7a220efee5f866e1e91a1335745b97373898ffecfddbc708a3e79661375f60018060a01b03600c541685614780565b613776604051928392606084526060840191613f89565b86888301528b60408301520390a39138613562565b8161379591613e81565b61336b57873861366d565b6137aa9087614780565b386135ff565b90506020813d6020116137da575b816137cb60209383613e81565b810103126103215751386135f9565b3d91506137be565b503461029a578060031936011261029a57600c546040516001600160a01b039091168152602090f35b503461029a57608036600319011261029a57613825613d98565b61382d613dae565b6064356001600160a01b038116929190839003611f88576009546001600160a01b031680156138fb5760408051635702821160e01b81526001600160a01b0394851660048201529290931660248301526044808301869052356064830152608482019390935291829060a490829086905af19081156112345782916138b8575b602082604051908152f35b90506040813d6040116138f3575b816138d360409383613e81565b810103126104da57602091506138ec8282519201614067565b50386138ad565b3d91506138c6565b60405162461bcd60e51b815260206004820152600e60248201526d1c5d5bdd195c881b9bdd081cd95d60921b6044820152606490fd5b503461029a57602036600319011261029a5761394b613d98565b613953614718565b600d549061396760ff8360a01c1615614027565b6001600160a01b03166001600160a01b0319919091168117600d557ff58ff3d0da83a3532175d227f5be91d3c0cfd1a3a9a78309b6d32365f71765db8280a280f35b503461029a57602036600319011261029a576001600160a01b036139cb613d98565b16815260056020526139df60408220613fda565b90604051918291602083016020845282518091526020604085019301915b818110613a0b575050500390f35b82518452859450602093840193909201916001016139fd565b503461029a57602036600319011261029a576004358015158091036104da57613a4b614718565b600f805460ff60a01b191660a09290921b60ff60a01b1691909117905580f35b503461029a57608036600319011261029a57613a85613d98565b50613a8e613dae565b506064356001600160401b0381116104da57613aae903690600401613ebd565b50604051630a85bd0160e11b8152602090f35b503461029a5760a036600319011261029a57613adb613dda565b906024356001600160401b0381168091036104da576044356001600160401b0381116104d657613b0f903690600401613deb565b919093606435906084356001600160401b038116809103613d0c57613b32614718565b613b3a614741565b613b4261475e565b600c5460e01c8015613cd657600e546001600160a01b03168015613c91578793606092823b15610f45579161ffff918a8094613baf6040519e8f96879586946350cbf3fb60e11b86526004860152169d8e60248501528d604485015260c0606485015260c4840191613f89565b8a60848301528860a483015203925af19788613c53575b5090613c3f9392917fa2132af2722fc0b72dd7e1b20df2e6a2ca16dc0e2a95fb807db5c906ca9107da979815600014613c495750613c02613faa565b925b600c5460e01c9560405197889788526020880152604087015260608601526080850152151560a084015260e060c084015260e0830190613f48565b0390a16001805580f35b9260019250613c04565b9087613c867fa2132af2722fc0b72dd7e1b20df2e6a2ca16dc0e2a95fb807db5c906ca9107da99613c3f97969594613e81565b975090919293613bc6565b60405162461bcd60e51b815260206004820152601960248201527f78636d20747820707265636f6d70696c65206e6f7420736574000000000000006044820152606490fd5b60405162461bcd60e51b815260206004820152600e60248201526d1c185c985259081b9bdd081cd95d60921b6044820152606490fd5b8580fd5b503461029a57604036600319011261029a57613d2a613d98565b613d32613dae565b90613d3b614718565b60018060a01b03166001600160601b0360a01b600954161760095560018060a01b03166001600160601b0360a01b600a541617600a5580f35b9050346104da57816003193601126104da5760209060ff600d5460a01c1615158152f35b600435906001600160a01b038216820361032157565b602435906001600160a01b038216820361032157565b604435906001600160a01b038216820361032157565b6004359061ffff8216820361032157565b9181601f84011215610321578235916001600160401b038311610321576020838186019501011161032157565b6101c081019081106001600160401b03821117613e3457604052565b634e487b7160e01b600052604160045260246000fd5b61010081019081106001600160401b03821117613e3457604052565b608081019081106001600160401b03821117613e3457604052565b90601f801991011681019081106001600160401b03821117613e3457604052565b6001600160401b038111613e3457601f01601f191660200190565b81601f8201121561032157803590613ed482613ea2565b92613ee26040519485613e81565b8284526020838301011161032157816000926020809301838601378301015290565b60a435906001600160a01b038216820361032157565b8054821015613f325760005260206000200190600090565b634e487b7160e01b600052603260045260246000fd5b919082519283825260005b848110613f74575050826000602080949584010152601f8019910116010190565b80602080928401015182828601015201613f53565b908060209392818452848401376000828201840152601f01601f1916010190565b3d15613fd5573d90613fbb82613ea2565b91613fc96040519384613e81565b82523d6000602084013e565b606090565b906040519182815491828252602082019060005260206000209260005b81811061400e57505061400c92500383613e81565b565b8454835260019485019487945060209093019201613ff7565b1561402e57565b60405162461bcd60e51b81526020600482015260116024820152703c31b69031b7b73334b390333937bd32b760791b6044820152606490fd5b519061ffff8216820361032157565b1561407d57565b60405162461bcd60e51b815260206004820152600c60248201526b3737ba1037b832b930ba37b960a11b6044820152606490fd5b156140b857565b60405162461bcd60e51b815260206004820152601a60248201527f50656e64696e6720706f736974696f6e206e6f7420666f756e640000000000006044820152606490fd5b8181029291811591840414171561411057565b634e487b7160e01b600052601160045260246000fd5b600081556000600182015560006002820155600060038201556000600482015560006005820155600681018054906000815581614175575b505060098160006007819401558260088201550155565b6000526020600020908101905b8181101561415e5760008155600101614182565b1561419d57565b60405162461bcd60e51b815260206004820152600f60248201526e1e1d1bdad95b9cc81b9bdd081cd95d608a1b6044820152606490fd5b156141db57565b60405162461bcd60e51b815260206004820152601360248201527234b73b30b634b2103232b9ba34b730ba34b7b760691b6044820152606490fd5b93926060936001600160401b039361424b9398979860018060a01b031687526020870152608060408701526080860191613f89565b9416910152565b916142869593949161426c91608085526080850191613f89565b936020830152151560408201526060818403910152613f48565b90565b1561429057565b60405162461bcd60e51b8152602060048201526013602482015272151bdad95b881b9bdd081cdd5c1c1bdc9d1959606a1b6044820152606490fd5b51906001600160a01b038216820361032157565b6001600160401b038111613e345760051b60200190565b51908160020b820361032157565b1561430b57565b60405162461bcd60e51b8152602060048201526013602482015272506f736974696f6e206e6f742061637469766560681b6044820152606490fd5b91908260c09103126103215781516001600160a01b03811681036103215791614371602082016142f6565b9161437e60408301614067565b91606081015160ff81168103610321579160a061439d60808401614067565b92015180151581036103215790565b60001981146141105760010190565b8051821015613f325760209160051b010190565b60649060020b02908160020b91820361411057565b9060020b9060020b0190627fffff198212627fffff83131761411057565b9060020b9081156144145760020b0790565b634e487b7160e01b600052601260045260246000fd5b600291820b910b0390627fffff198212627fffff83131761411057565b9290928360020b6103e719811390816145e5575b816145d8575b501561459d576040516339db007960e21b8152926001600160a01b03919091169060c084600481855afa91821561456757600494600093614573575b50602090604051958680926334324e9f60e21b82525afa9384156145675760009461450d575b506145066144f5614500926144ef6144e86144e261428698999a6143cf565b926143cf565b91866143e4565b946143e4565b926145008782614402565b9061442a565b9482614402565b909293506020813d60201161455f575b8161452a60209383613e81565b81010312610321576145066144f5614286946144ef6144e86144e2614551614500976142f6565b9998505050509250506144c3565b3d915061451d565b6040513d6000823e3d90fd5b60209193506145909060c03d60c011612e5757612e438183613e81565b505050509050929061449d565b60405162461bcd60e51b815260206004820152601360248201527272616e6765206f7574206f6620626f756e647360681b6044820152606490fd5b90508360020b1338614461565b90506103e88460020b13159061445b565b156145fd57565b60405162461bcd60e51b815260206004820152600e60248201526d1c9bdd5d195c881b9bdd081cd95d60921b6044820152606490fd5b81516001600160a01b0390811682526020808401518216908301526040808401518216908301526060808401518216908301526080808401519083015260a0808401519083015260c0808401519083015260e09283015116918101919091526101000190565b9190820180921161411057565b9190826040910312610321576020825192015190565b91909160606001600160801b038160808401958051855260018060a01b036020820151166020860152826040820151166040860152015116910152565b9081602091031261032157516001600160a01b03811681036103215790565b6000546001600160a01b0316330361472c57565b63118cdaa760e01b6000523360045260246000fd5b60ff6002541661474d57565b63d93c066560e01b60005260046000fd5b60026001541461476f576002600155565b633ee5aeb560e01b60005260046000fd5b60405190602060008184019463095ea7b360e01b865260018060a01b031694856024860152816044860152604485526147ba606486613e81565b84519082855af16000513d82614815575b5050156147d757505050565b61481061400c936040519063095ea7b360e01b60208301526024820152600060448201526044815261480a606482613e81565b82614bf2565b614bf2565b90915061483257506001600160a01b0381163b15155b38806147cb565b60011461482b565b60206000604051938285019063095ea7b360e01b825260018060a01b0316958660248701526044860152604485526147ba606486613e81565b60009181835260046020526040832091600983019261489560ff855416614304565b600581019384549081151580614b4c575b15614b0e5760018060a01b03600b541660048401926001600160801b03845416916040519160a083018381106001600160401b03821117614afa57928b6001600160801b039a9b9c959360a493604096875283526020830194855285830182815260608401838152608085019142835288519e8f988997630624e65f60e11b8952516004890152511660248701525160448601525160648501525160848401525af19788156117fb5781968299614ad3575b5088878360406149b660018060a01b03600b5416865483519061497a82613e66565b81523060208201526001600160801b03848201526001600160801b036060820152835194858094819363fc6f786560e01b8352600483016146bc565b03925af1918215611f435785918693614ab0575b508115801590614aa7575b614a85575b5050505060018060a01b03600b54169054813b156104d6578291602483926040519485938492630852cd8d60e31b845260048401525af1801561123457614a75575b505060ff1981541690556001600160801b03198154169055600660018060a01b0391015416907f6f7734c2b603545392ede46279193d0b944bffb5d4c822bb78cd37eb6c2aadc960408051858152876020820152a39190565b81614a7f91613e81565b38614a1c565b614a9d949c50614a9792939a50614699565b97614699565b97388080806149da565b508215156149d5565b909250614acc915060403d6040116117f4576117e68183613e81565b91386149ca565b909850614af091965060403d6040116117f4576117e68183613e81565b9590959738614958565b634e487b7160e01b8c52604160045260248cfd5b60405162461bcd60e51b815260206004820152601660248201527513919413481c1bdcda5d1a5bdb881c995c5d5a5c995960521b6044820152606490fd5b50600b546001600160a01b031615156148a6565b604051636eb1769f60e11b81523060048201526001600160a01b0383166024820152909190602081806044810103816001600160a01b0387165afa90811561456757600091614bbe575b5061400c93614bb891614699565b9161483a565b90506020813d602011614bea575b81614bd960209383613e81565b81010312610321575161400c614baa565b3d9150614bcc565b906000602091828151910182855af115614567576000513d614c4457506001600160a01b0381163b155b614c235750565b635274afe760e01b60009081526001600160a01b0391909116600452602490fd5b60011415614c1c56fe73d40f1f9c0775e6157122394be131c037056bff82d86f1f2f4103e318e1c2d58d2c32089972a3f85b2b5a222cec8188a772bd6df05fbbd6ccd11851df27019da2646970667358221220053adb6aa12e348bb1072e3ebee0ac768cd657299cdd103ea3abd3f8bbb29b3a64736f6c634300081c0033","opcodes":"PUSH1 0x80 CALLVALUE PUSH2 0xFF JUMPI PUSH1 0x1F PUSH2 0x4DDE CODESIZE DUP2 SWAP1 SUB SWAP2 DUP3 ADD PUSH1 0x1F NOT AND DUP4 ADD SWAP2 PUSH1 0x1 PUSH1 0x1 PUSH1 0x40 SHL SUB DUP4 GT DUP5 DUP5 LT OR PUSH2 0x104 JUMPI DUP1 DUP5 SWAP3 PUSH1 0x20 SWAP5 PUSH1 0x40 MSTORE DUP4 CODECOPY DUP2 ADD SUB SLT PUSH2 0xFF JUMPI MLOAD PUSH1 0x1 PUSH1 0x1 PUSH1 0xA0 SHL SUB DUP2 AND SWAP1 DUP2 SWAP1 SUB PUSH2 0xFF JUMPI DUP1 ISZERO PUSH2 0xE9 JUMPI PUSH1 0x0 DUP1 SLOAD PUSH1 0x1 PUSH1 0x1 PUSH1 0xA0 SHL SUB NOT DUP2 AND DUP4 OR DUP3 SSTORE PUSH1 0x40 MLOAD SWAP3 SWAP2 DUP3 SWAP2 PUSH1 0x1 PUSH1 0x1 PUSH1 0xA0 SHL SUB AND SWAP1 PUSH32 0x8BE0079C531659141344CD1FD0A4F28419497F9722A3DAAFE3B4186F6B6457E0 SWAP1 DUP1 LOG3 PUSH1 0x1 DUP1 SSTORE PUSH3 0x59682F PUSH1 0xAA SHL PUSH1 0xC SSTORE PUSH1 0xD DUP1 SLOAD PUSH1 0x1 PUSH1 0x1 PUSH1 0xA8 SHL SUB NOT AND SWAP1 SSTORE PUSH1 0xE DUP1 SLOAD PUSH1 0x1 PUSH1 0x1 PUSH1 0xA0 SHL SUB NOT SWAP1 DUP2 AND SWAP1 SWAP2 SSTORE PUSH1 0xF DUP1 SLOAD SWAP1 SWAP2 AND SWAP2 SWAP1 SWAP2 OR SWAP1 SSTORE PUSH2 0x4CC3 SWAP1 DUP2 PUSH2 0x11B DUP3 CODECOPY RETURN JUMPDEST PUSH4 0x1E4FBDF7 PUSH1 0xE0 SHL PUSH1 0x0 MSTORE PUSH1 0x0 PUSH1 0x4 MSTORE PUSH1 0x24 PUSH1 0x0 REVERT JUMPDEST PUSH1 0x0 DUP1 REVERT JUMPDEST PUSH4 0x4E487B71 PUSH1 0xE0 SHL PUSH1 0x0 MSTORE PUSH1 0x41 PUSH1 0x4 MSTORE PUSH1 0x24 PUSH1 0x0 REVERT INVALID PUSH1 0xA0 DUP1 PUSH1 0x40 MSTORE PUSH1 0x4 CALLDATASIZE LT ISZERO PUSH2 0x13 JUMPI PUSH1 0x0 DUP1 REVERT JUMPDEST PUSH1 0x0 SWAP1 DUP2 CALLDATALOAD PUSH1 0xE0 SHR SWAP1 DUP2 PUSH3 0xCAC96C EQ PUSH2 0x3D74 JUMPI POP DUP1 PUSH4 0x10AF06A2 EQ PUSH2 0x3D10 JUMPI DUP1 PUSH4 0x11B21ACF EQ PUSH2 0x3AC1 JUMPI DUP1 PUSH4 0x150B7A02 EQ PUSH2 0x3A6B JUMPI DUP1 PUSH4 0x1FF1292F EQ PUSH2 0x3A24 JUMPI DUP1 PUSH4 0x2A6BC2DD EQ PUSH2 0x39A9 JUMPI DUP1 PUSH4 0x2D349E51 EQ PUSH2 0x3931 JUMPI DUP1 PUSH4 0x2D9EBD1D EQ PUSH2 0x380B JUMPI DUP1 PUSH4 0x2FE220A4 EQ PUSH2 0x37E2 JUMPI DUP1 PUSH4 0x3467FC5D EQ PUSH2 0x34A5 JUMPI DUP1 PUSH4 0x3E4FBA36 EQ PUSH2 0x2EC6 JUMPI DUP1 PUSH4 0x3F4BA83A EQ PUSH2 0x2E5E JUMPI DUP1 PUSH4 0x41051EF8 EQ PUSH2 0x2D85 JUMPI DUP1 PUSH4 0x45EBE8CF EQ PUSH2 0x2CBF JUMPI DUP1 PUSH4 0x4D0E5DB4 EQ PUSH2 0x2C6B JUMPI DUP1 PUSH4 0x4D7F9CC9 EQ PUSH2 0x2BF1 JUMPI DUP1 PUSH4 0x54422760 EQ PUSH2 0x28B3 JUMPI DUP1 PUSH4 0x570CA735 EQ PUSH2 0x288A JUMPI DUP1 PUSH4 0x5C975ABB EQ PUSH2 0x2867 JUMPI DUP1 PUSH4 0x5CB124A8 EQ PUSH2 0x27D7 JUMPI DUP1 PUSH4 0x5E1B4D99 EQ PUSH2 0x2780 JUMPI DUP1 PUSH4 0x5FC75EC2 EQ PUSH2 0x244E JUMPI DUP1 PUSH4 0x63D5AB8D EQ PUSH2 0x2430 JUMPI DUP1 PUSH4 0x649BA22C EQ PUSH2 0x23DB JUMPI DUP1 PUSH4 0x66D0BB71 EQ PUSH2 0x23B1 JUMPI DUP1 PUSH4 0x68C4AC26 EQ PUSH2 0x2372 JUMPI DUP1 PUSH4 0x6B3F1FDB EQ PUSH2 0x22DE JUMPI DUP1 PUSH4 0x6D69FCAF EQ PUSH2 0x229A JUMPI DUP1 PUSH4 0x715018A6 EQ PUSH2 0x2240 JUMPI DUP1 PUSH4 0x76319190 EQ PUSH2 0x21FF JUMPI DUP1 PUSH4 0x8456CB59 EQ PUSH2 0x21A4 JUMPI DUP1 PUSH4 0x8DA5CB5B EQ PUSH2 0x217D JUMPI DUP1 PUSH4 0x96667621 EQ PUSH2 0x2158 JUMPI DUP1 PUSH4 0x99FBAB88 EQ PUSH2 0x2067 JUMPI DUP1 PUSH4 0x9AA79A84 EQ PUSH2 0x1FCC JUMPI DUP1 PUSH4 0x9FB3B5AB EQ PUSH2 0x1F8C JUMPI DUP1 PUSH4 0xA23C34A8 EQ PUSH2 0x1904 JUMPI DUP1 PUSH4 0xA3B45A2A EQ PUSH2 0x1851 JUMPI DUP1 PUSH4 0xB17ACDCD EQ PUSH2 0x16ED JUMPI DUP1 PUSH4 0xB3AB15FB EQ PUSH2 0x1685 JUMPI DUP1 PUSH4 0xB7E33EE3 EQ PUSH2 0x7FC JUMPI DUP1 PUSH4 0xB9C6CCE6 EQ PUSH2 0x5DF JUMPI DUP1 PUSH4 0xC332BEC1 EQ PUSH2 0x577 JUMPI DUP1 PUSH4 0xCD9EA342 EQ PUSH2 0x551 JUMPI DUP1 PUSH4 0xD1074172 EQ PUSH2 0x528 JUMPI DUP1 PUSH4 0xDFAA9B70 EQ PUSH2 0x507 JUMPI DUP1 PUSH4 0xE178B5DD EQ PUSH2 0x4DE JUMPI DUP1 PUSH4 0xE34FE513 EQ PUSH2 0x43C JUMPI DUP1 PUSH4 0xE84073F6 EQ PUSH2 0x413 JUMPI DUP1 PUSH4 0xF2FDE38B EQ PUSH2 0x38D JUMPI DUP1 PUSH4 0xF699C43A EQ PUSH2 0x363 JUMPI DUP1 PUSH4 0xF84144FB EQ PUSH2 0x33A JUMPI DUP1 PUSH4 0xF8B2CB4F EQ PUSH2 0x29D JUMPI PUSH4 0xFEE4E474 EQ PUSH2 0x272 JUMPI PUSH1 0x0 DUP1 REVERT JUMPDEST CALLVALUE PUSH2 0x29A JUMPI DUP1 PUSH1 0x3 NOT CALLDATASIZE ADD SLT PUSH2 0x29A JUMPI PUSH1 0xA SLOAD PUSH1 0x40 MLOAD PUSH1 0x1 PUSH1 0x1 PUSH1 0xA0 SHL SUB SWAP1 SWAP2 AND DUP2 MSTORE PUSH1 0x20 SWAP1 RETURN JUMPDEST DUP1 REVERT JUMPDEST POP CALLVALUE PUSH2 0x29A JUMPI PUSH1 0x20 CALLDATASIZE PUSH1 0x3 NOT ADD SLT PUSH2 0x29A JUMPI PUSH1 0x24 SWAP1 PUSH1 0x20 PUSH1 0x1 PUSH1 0x1 PUSH1 0xA0 SHL SUB PUSH2 0x2C4 PUSH2 0x3D98 JUMP JUMPDEST AND PUSH1 0x40 MLOAD SWAP4 DUP5 DUP1 SWAP3 PUSH4 0x70A08231 PUSH1 0xE0 SHL DUP3 MSTORE ADDRESS PUSH1 0x4 DUP4 ADD MSTORE GAS STATICCALL SWAP1 DUP2 ISZERO PUSH2 0x32E JUMPI SWAP1 PUSH2 0x2F6 JUMPI JUMPDEST PUSH1 0x20 SWAP1 PUSH1 0x40 MLOAD SWAP1 DUP2 MSTORE RETURN JUMPDEST POP PUSH1 0x20 DUP2 RETURNDATASIZE PUSH1 0x20 GT PUSH2 0x326 JUMPI JUMPDEST DUP2 PUSH2 0x310 PUSH1 0x20 SWAP4 DUP4 PUSH2 0x3E81 JUMP JUMPDEST DUP2 ADD SUB SLT PUSH2 0x321 JUMPI PUSH1 0x20 SWAP1 MLOAD PUSH2 0x2EB JUMP JUMPDEST PUSH1 0x0 DUP1 REVERT JUMPDEST RETURNDATASIZE SWAP2 POP PUSH2 0x303 JUMP JUMPDEST PUSH1 0x40 MLOAD SWAP1 RETURNDATASIZE SWAP1 DUP3 RETURNDATACOPY RETURNDATASIZE SWAP1 REVERT JUMPDEST POP CALLVALUE PUSH2 0x29A JUMPI DUP1 PUSH1 0x3 NOT CALLDATASIZE ADD SLT PUSH2 0x29A JUMPI PUSH1 0xB SLOAD PUSH1 0x40 MLOAD PUSH1 0x1 PUSH1 0x1 PUSH1 0xA0 SHL SUB SWAP1 SWAP2 AND DUP2 MSTORE PUSH1 0x20 SWAP1 RETURN JUMPDEST POP CALLVALUE PUSH2 0x29A JUMPI DUP1 PUSH1 0x3 NOT CALLDATASIZE ADD SLT PUSH2 0x29A JUMPI PUSH1 0x20 PUSH1 0x1 PUSH1 0x1 PUSH1 0x40 SHL SUB PUSH1 0xC SLOAD PUSH1 0xA0 SHR AND PUSH1 0x40 MLOAD SWAP1 DUP2 MSTORE RETURN JUMPDEST POP CALLVALUE PUSH2 0x29A JUMPI PUSH1 0x20 CALLDATASIZE PUSH1 0x3 NOT ADD SLT PUSH2 0x29A JUMPI PUSH2 0x3A7 PUSH2 0x3D98 JUMP JUMPDEST PUSH2 0x3AF PUSH2 0x4718 JUMP JUMPDEST PUSH1 0x1 PUSH1 0x1 PUSH1 0xA0 SHL SUB AND DUP1 ISZERO PUSH2 0x3FF JUMPI DUP2 SLOAD PUSH1 0x1 PUSH1 0x1 PUSH1 0xA0 SHL SUB NOT DUP2 AND DUP3 OR DUP4 SSTORE PUSH1 0x1 PUSH1 0x1 PUSH1 0xA0 SHL SUB AND PUSH32 0x8BE0079C531659141344CD1FD0A4F28419497F9722A3DAAFE3B4186F6B6457E0 DUP4 DUP1 LOG3 DUP1 RETURN JUMPDEST PUSH4 0x1E4FBDF7 PUSH1 0xE0 SHL DUP3 MSTORE PUSH1 0x4 DUP3 SWAP1 MSTORE PUSH1 0x24 DUP3 REVERT JUMPDEST POP CALLVALUE PUSH2 0x29A JUMPI DUP1 PUSH1 0x3 NOT CALLDATASIZE ADD SLT PUSH2 0x29A JUMPI PUSH1 0x9 SLOAD PUSH1 0x40 MLOAD PUSH1 0x1 PUSH1 0x1 PUSH1 0xA0 SHL SUB SWAP1 SWAP2 AND DUP2 MSTORE PUSH1 0x20 SWAP1 RETURN JUMPDEST POP CALLVALUE PUSH2 0x29A JUMPI PUSH1 0x60 CALLDATASIZE PUSH1 0x3 NOT ADD SLT PUSH2 0x29A JUMPI PUSH1 0x4 CALLDATALOAD PUSH1 0xFF DUP2 AND DUP2 SUB PUSH2 0x4DA JUMPI PUSH1 0x24 CALLDATALOAD PUSH1 0xFF DUP2 AND DUP2 SUB PUSH2 0x4D6 JUMPI PUSH1 0x44 CALLDATALOAD SWAP3 PUSH1 0x1 PUSH1 0x1 PUSH1 0x40 SHL SUB DUP5 GT PUSH2 0x29A JUMPI POP PUSH2 0x48C PUSH2 0x4D2 SWAP4 CALLDATASIZE SWAP1 PUSH1 0x4 ADD PUSH2 0x3EBD JUMP JUMPDEST POP PUSH1 0x40 MLOAD PUSH1 0x1 PUSH1 0x1 PUSH1 0xF8 SHL SUB NOT PUSH1 0xF8 SWAP4 DUP5 SHL DUP2 AND PUSH1 0x20 DUP4 ADD MSTORE SWAP2 SWAP1 SWAP3 SHL AND PUSH1 0x21 DUP3 ADD MSTORE PUSH1 0x2 DUP2 MSTORE PUSH2 0x4BE PUSH1 0x22 DUP3 PUSH2 0x3E81 JUMP JUMPDEST PUSH1 0x40 MLOAD SWAP2 DUP3 SWAP2 PUSH1 0x20 DUP4 MSTORE PUSH1 0x20 DUP4 ADD SWAP1 PUSH2 0x3F48 JUMP JUMPDEST SUB SWAP1 RETURN JUMPDEST DUP3 DUP1 REVERT JUMPDEST POP DUP1 REVERT JUMPDEST POP CALLVALUE PUSH2 0x29A JUMPI DUP1 PUSH1 0x3 NOT CALLDATASIZE ADD SLT PUSH2 0x29A JUMPI PUSH1 0xE SLOAD PUSH1 0x40 MLOAD PUSH1 0x1 PUSH1 0x1 PUSH1 0xA0 SHL SUB SWAP1 SWAP2 AND DUP2 MSTORE PUSH1 0x20 SWAP1 RETURN JUMPDEST POP CALLVALUE PUSH2 0x29A JUMPI DUP1 PUSH1 0x3 NOT CALLDATASIZE ADD SLT PUSH2 0x29A JUMPI PUSH1 0x20 PUSH1 0xC SLOAD PUSH1 0xE0 SHR PUSH1 0x40 MLOAD SWAP1 DUP2 MSTORE RETURN JUMPDEST POP CALLVALUE PUSH2 0x29A JUMPI DUP1 PUSH1 0x3 NOT CALLDATASIZE ADD SLT PUSH2 0x29A JUMPI PUSH1 0xD SLOAD PUSH1 0x40 MLOAD PUSH1 0x1 PUSH1 0x1 PUSH1 0xA0 SHL SUB SWAP1 SWAP2 AND DUP2 MSTORE PUSH1 0x20 SWAP1 RETURN JUMPDEST POP CALLVALUE PUSH2 0x29A JUMPI DUP1 PUSH1 0x3 NOT CALLDATASIZE ADD SLT PUSH2 0x29A JUMPI PUSH1 0x20 PUSH1 0xFF PUSH1 0xF SLOAD PUSH1 0xA0 SHR AND PUSH1 0x40 MLOAD SWAP1 ISZERO ISZERO DUP2 MSTORE RETURN JUMPDEST POP CALLVALUE PUSH2 0x29A JUMPI PUSH1 0x20 CALLDATASIZE PUSH1 0x3 NOT ADD SLT PUSH2 0x29A JUMPI PUSH2 0x591 PUSH2 0x3D98 JUMP JUMPDEST PUSH2 0x599 PUSH2 0x4718 JUMP JUMPDEST PUSH1 0xE DUP1 SLOAD PUSH1 0x1 PUSH1 0x1 PUSH1 0xA0 SHL SUB NOT AND PUSH1 0x1 PUSH1 0x1 PUSH1 0xA0 SHL SUB SWAP3 SWAP1 SWAP3 AND SWAP2 DUP3 OR SWAP1 SSTORE PUSH32 0xC10A21A67F3B69D3034D57EBBDE814014797FDCB1C153F007F47296412E930B5 DUP3 DUP1 LOG2 DUP1 RETURN JUMPDEST POP CALLVALUE PUSH2 0x29A JUMPI PUSH1 0xC0 CALLDATASIZE PUSH1 0x3 NOT ADD SLT PUSH2 0x29A JUMPI PUSH2 0x5F9 PUSH2 0x3D98 JUMP JUMPDEST DUP2 PUSH2 0x602 PUSH2 0x3DAE JUMP JUMPDEST PUSH2 0x60A PUSH2 0x3DC4 JUMP JUMPDEST SWAP1 PUSH1 0x64 CALLDATALOAD PUSH2 0x616 PUSH2 0x3F04 JUMP JUMPDEST SWAP1 PUSH2 0x61F PUSH2 0x4718 JUMP JUMPDEST PUSH2 0x627 PUSH2 0x4741 JUMP JUMPDEST PUSH2 0x62F PUSH2 0x475E JUMP JUMPDEST PUSH1 0xA SLOAD PUSH1 0x1 PUSH1 0x1 PUSH1 0xA0 SHL SUB AND SWAP6 PUSH2 0x647 DUP8 ISZERO ISZERO PUSH2 0x45F6 JUMP JUMPDEST PUSH1 0x40 MLOAD PUSH4 0x6EB1769F PUSH1 0xE1 SHL DUP2 MSTORE ADDRESS PUSH1 0x4 DUP3 ADD MSTORE PUSH1 0x1 PUSH1 0x1 PUSH1 0xA0 SHL SUB DUP9 DUP2 AND PUSH1 0x24 DUP4 ADD MSTORE SWAP2 SWAP1 SWAP2 AND SWAP7 SWAP1 PUSH1 0x20 DUP2 PUSH1 0x44 DUP2 DUP12 GAS STATICCALL SWAP1 DUP2 ISZERO PUSH2 0x7F1 JUMPI DUP8 SWAP2 PUSH2 0x7AF JUMPI JUMPDEST POP SWAP2 PUSH1 0x20 SWAP6 SWAP4 SWAP2 PUSH2 0x731 SWAP6 SWAP4 PUSH2 0x79F JUMPI JUMPDEST POP PUSH1 0xA SLOAD PUSH2 0x6B1 SWAP1 DUP3 SWAP1 PUSH1 0x1 PUSH1 0x1 PUSH1 0xA0 SHL SUB AND DUP11 PUSH2 0x483A JUMP JUMPDEST PUSH1 0xA SLOAD PUSH1 0x1 PUSH1 0x1 PUSH1 0xA0 SHL SUB AND SWAP4 PUSH2 0x6C9 DUP6 ISZERO ISZERO PUSH2 0x45F6 JUMP JUMPDEST PUSH1 0x40 MLOAD SWAP4 PUSH2 0x6D6 DUP6 PUSH2 0x3E4A JUMP JUMPDEST DUP10 DUP6 MSTORE PUSH1 0x1 PUSH1 0x1 PUSH1 0xA0 SHL SUB SWAP1 DUP2 AND DUP9 DUP7 ADD MSTORE PUSH1 0x40 DUP1 DUP7 ADD DUP11 SWAP1 MSTORE SWAP2 DUP2 AND PUSH1 0x60 DUP7 ADD MSTORE TIMESTAMP PUSH1 0x80 DUP7 ADD MSTORE PUSH1 0xA0 DUP6 ADD SWAP3 SWAP1 SWAP3 MSTORE PUSH1 0x84 CALLDATALOAD PUSH1 0xC0 DUP6 ADD MSTORE SWAP2 AND PUSH1 0xE0 DUP4 ADD MSTORE MLOAD PUSH4 0xB3CE3C9 PUSH1 0xE1 SHL DUP2 MSTORE SWAP5 DUP6 SWAP4 DUP5 SWAP3 DUP4 SWAP2 SWAP1 PUSH1 0x4 DUP4 ADD PUSH2 0x4633 JUMP JUMPDEST SUB SWAP3 GAS CALL SWAP3 DUP4 ISZERO PUSH2 0x32E JUMPI SWAP3 PUSH2 0x769 JUMPI JUMPDEST PUSH1 0xA SLOAD PUSH1 0x20 SWAP1 DUP5 SWAP1 PUSH2 0x75D SWAP1 PUSH1 0x1 PUSH1 0x1 PUSH1 0xA0 SHL SUB AND DUP6 PUSH2 0x4780 JUMP JUMPDEST PUSH1 0x1 DUP1 SSTORE PUSH1 0x40 MLOAD SWAP1 DUP2 MSTORE RETURN JUMPDEST SWAP2 POP PUSH1 0x20 DUP3 RETURNDATASIZE PUSH1 0x20 GT PUSH2 0x797 JUMPI JUMPDEST DUP2 PUSH2 0x784 PUSH1 0x20 SWAP4 DUP4 PUSH2 0x3E81 JUMP JUMPDEST DUP2 ADD SUB SLT PUSH2 0x321 JUMPI SWAP1 MLOAD SWAP1 PUSH2 0x75D PUSH2 0x742 JUMP JUMPDEST RETURNDATASIZE SWAP2 POP PUSH2 0x777 JUMP JUMPDEST PUSH2 0x7A9 SWAP1 DUP10 PUSH2 0x4780 JUMP JUMPDEST CODESIZE PUSH2 0x698 JUMP JUMPDEST SWAP5 SWAP3 SWAP7 POP POP SWAP4 SWAP2 PUSH1 0x20 DUP5 RETURNDATASIZE PUSH1 0x20 GT PUSH2 0x7E9 JUMPI JUMPDEST DUP2 PUSH2 0x7CF PUSH1 0x20 SWAP4 DUP4 PUSH2 0x3E81 JUMP JUMPDEST DUP2 ADD SUB SLT PUSH2 0x321 JUMPI SWAP3 MLOAD DUP8 SWAP6 SWAP3 SWAP5 SWAP2 SWAP4 SWAP3 SWAP2 SWAP1 PUSH1 0x20 PUSH2 0x687 JUMP JUMPDEST RETURNDATASIZE SWAP2 POP PUSH2 0x7C2 JUMP JUMPDEST PUSH1 0x40 MLOAD RETURNDATASIZE DUP10 DUP3 RETURNDATACOPY RETURNDATASIZE SWAP1 REVERT JUMPDEST POP CALLVALUE PUSH2 0x29A JUMPI PUSH1 0x20 CALLDATASIZE PUSH1 0x3 NOT ADD SLT PUSH2 0x29A JUMPI PUSH2 0x823 PUSH1 0x1 DUP1 PUSH1 0xA0 SHL SUB PUSH1 0xF SLOAD AND CALLER EQ PUSH2 0x4076 JUMP JUMPDEST PUSH2 0x82B PUSH2 0x4741 JUMP JUMPDEST PUSH2 0x833 PUSH2 0x475E JUMP JUMPDEST PUSH1 0x4 CALLDATALOAD DUP2 MSTORE PUSH1 0x7 PUSH1 0x20 MSTORE PUSH1 0x40 DUP2 KECCAK256 PUSH2 0x851 PUSH1 0xFF PUSH1 0x9 DUP4 ADD SLOAD AND PUSH2 0x40B1 JUMP JUMPDEST PUSH1 0x1 DUP2 ADD SLOAD PUSH1 0x5 DUP3 ADD SLOAD PUSH1 0x3 DUP4 ADD SLOAD PUSH1 0x4 DUP5 ADD SLOAD PUSH1 0x1 PUSH1 0x1 PUSH1 0xA0 SHL SUB SWAP3 DUP4 AND SWAP4 SWAP1 DUP4 AND SWAP3 AND SWAP1 PUSH2 0x883 PUSH1 0x6 DUP7 ADD PUSH2 0x3FDA JUMP JUMPDEST PUSH1 0x7 DUP7 ADD SLOAD PUSH1 0x2 SWAP1 SWAP7 ADD SLOAD PUSH1 0x1 PUSH1 0x1 PUSH1 0xA0 SHL SUB AND SWAP5 DUP4 DUP2 EQ ISZERO SWAP4 PUSH1 0x30 DUP9 SWAP1 SHR PUSH2 0xFFFF AND SWAP4 SWAP3 SWAP2 DUP4 SWAP1 DUP3 DUP8 PUSH2 0x1438 JUMPI JUMPDEST POP POP POP PUSH2 0x8C9 DUP9 PUSH1 0x18 SHR PUSH1 0x2 SIGNEXTEND DUP10 PUSH1 0x2 SIGNEXTEND DUP9 PUSH2 0x4447 JUMP JUMPDEST SWAP5 SWAP1 SWAP4 PUSH1 0x40 MLOAD PUSH4 0xDFE1681 PUSH1 0xE0 SHL DUP2 MSTORE PUSH1 0x20 DUP2 PUSH1 0x4 DUP2 DUP13 GAS STATICCALL DUP1 ISZERO PUSH2 0x12F0 JUMPI DUP13 PUSH1 0x80 MSTORE PUSH2 0x1417 JUMPI JUMPDEST POP PUSH1 0x40 MLOAD PUSH4 0xD21220A7 PUSH1 0xE0 SHL DUP2 MSTORE SWAP4 PUSH1 0x20 DUP6 PUSH1 0x4 DUP2 DUP13 GAS STATICCALL SWAP5 DUP6 ISZERO PUSH2 0x12F0 JUMPI DUP13 SWAP6 PUSH2 0x13E6 JUMPI JUMPDEST POP DUP1 MLOAD ISZERO PUSH2 0x13E0 JUMPI DUP1 MLOAD ISZERO PUSH2 0x13CC JUMPI PUSH1 0x20 DUP2 ADD MLOAD JUMPDEST SWAP1 PUSH1 0x1 DUP2 MLOAD GT PUSH1 0x0 EQ PUSH2 0x13C5 JUMPI DUP1 MLOAD PUSH1 0x1 LT ISZERO PUSH2 0x13B1 JUMPI PUSH1 0x40 ADD MLOAD JUMPDEST PUSH1 0x80 MLOAD PUSH1 0x1 PUSH1 0x1 PUSH1 0xA0 SHL SUB SWAP6 DUP7 AND SWAP10 SWAP2 SWAP6 AND DUP10 EQ DUP1 PUSH2 0x13AA JUMPI JUMPDEST ISZERO PUSH2 0x1372 JUMPI POP POP PUSH1 0x24 PUSH1 0x20 DUP3 SWAP9 JUMPDEST PUSH1 0x40 MLOAD PUSH4 0x70A08231 PUSH1 0xE0 SHL DUP2 MSTORE ADDRESS PUSH1 0x4 DUP3 ADD MSTORE SWAP3 DUP4 SWAP2 DUP3 SWAP1 GAS STATICCALL SWAP1 DUP2 ISZERO PUSH2 0x12F0 JUMPI DUP13 SWAP2 PUSH2 0x1340 JUMPI JUMPDEST POP LT PUSH2 0x12FB JUMPI DUP6 ISZERO SWAP6 DUP7 ISZERO PUSH2 0x123F JUMPI JUMPDEST DUP3 ISZERO SWAP2 DUP3 ISZERO PUSH2 0x1187 JUMPI JUMPDEST PUSH1 0xB SLOAD PUSH1 0x1 PUSH1 0x1 PUSH1 0xA0 SHL SUB AND DUP1 ISZERO PUSH2 0x1153 JUMPI DUP9 ISZERO PUSH2 0x1097 JUMPI JUMPDEST POP DUP3 ISZERO PUSH2 0xFD9 JUMPI JUMPDEST DUP1 ISZERO PUSH2 0xFC8 JUMPI PUSH2 0xFFFF SWAP1 JUMPDEST AND DUP8 ISZERO PUSH2 0xFA6 JUMPI DUP12 SWAP1 JUMPDEST DUP4 ISZERO PUSH2 0xF71 JUMPI POP DUP12 SWAP1 JUMPDEST PUSH1 0x1 DUP1 PUSH1 0xA0 SHL SUB PUSH1 0xB SLOAD AND SWAP5 PUSH1 0x40 MLOAD SWAP4 PUSH2 0x160 DUP6 ADD DUP6 DUP2 LT PUSH1 0x1 PUSH1 0x1 PUSH1 0x40 SHL SUB DUP3 GT OR PUSH2 0xF5C JUMPI SWAP3 DUP16 SWAP3 PUSH2 0x140 SWAP6 SWAP3 PUSH1 0x80 SWAP8 SWAP5 PUSH2 0x164 SWAP7 PUSH1 0x40 MSTORE PUSH1 0x1 DUP1 PUSH1 0xA0 SHL SUB DUP10 MLOAD AND DUP7 MSTORE PUSH1 0x1 DUP1 PUSH1 0xA0 SHL SUB DUP13 AND PUSH1 0x20 DUP8 ADD MSTORE PUSH1 0x40 DUP7 ADD MSTORE DUP12 PUSH1 0x2 SIGNEXTEND PUSH1 0x60 DUP7 ADD MSTORE DUP13 PUSH1 0x2 SIGNEXTEND DUP9 DUP7 ADD MSTORE PUSH1 0xA0 DUP6 ADD MSTORE PUSH1 0xC0 DUP5 ADD MSTORE PUSH1 0xE0 DUP4 ADD MSTORE PUSH2 0x100 DUP3 ADD MSTORE ADDRESS PUSH2 0x120 DUP3 ADD MSTORE TIMESTAMP DUP4 DUP3 ADD MSTORE DUP14 PUSH1 0x40 MLOAD SWAP7 DUP8 SWAP5 DUP6 SWAP4 PUSH4 0xFE3F3BE7 PUSH1 0xE0 SHL DUP6 MSTORE PUSH1 0x1 DUP1 PUSH1 0xA0 SHL SUB DUP2 MLOAD AND PUSH1 0x4 DUP7 ADD MSTORE PUSH1 0x1 DUP1 PUSH1 0xA0 SHL SUB PUSH1 0x20 DUP3 ADD MLOAD AND PUSH1 0x24 DUP7 ADD MSTORE PUSH1 0x1 DUP1 PUSH1 0xA0 SHL SUB PUSH1 0x40 DUP3 ADD MLOAD AND PUSH1 0x44 DUP7 ADD MSTORE PUSH1 0x60 DUP2 ADD MLOAD PUSH1 0x2 SIGNEXTEND PUSH1 0x64 DUP7 ADD MSTORE DUP8 DUP2 ADD MLOAD PUSH1 0x2 SIGNEXTEND PUSH1 0x84 DUP7 ADD MSTORE PUSH1 0xA0 DUP2 ADD MLOAD PUSH1 0xA4 DUP7 ADD MSTORE PUSH1 0xC0 DUP2 ADD MLOAD PUSH1 0xC4 DUP7 ADD MSTORE PUSH1 0xE0 DUP2 ADD MLOAD PUSH1 0xE4 DUP7 ADD MSTORE PUSH2 0x100 DUP2 ADD MLOAD PUSH2 0x104 DUP7 ADD MSTORE PUSH1 0x1 DUP1 PUSH1 0xA0 SHL SUB PUSH2 0x120 DUP3 ADD MLOAD AND PUSH2 0x124 DUP7 ADD MSTORE ADD MLOAD PUSH2 0x144 DUP5 ADD MSTORE GAS CALL SWAP6 DUP7 ISZERO PUSH2 0xF51 JUMPI DUP11 SWAP3 DUP12 SWAP8 PUSH2 0xEFC JUMPI JUMPDEST POP ISZERO PUSH2 0xEDB JUMPI JUMPDEST ISZERO PUSH2 0xEBC JUMPI JUMPDEST PUSH1 0x6 SLOAD PUSH2 0xB4D SWAP1 PUSH2 0x43AC JUMP JUMPDEST SWAP8 DUP9 PUSH1 0x6 SSTORE DUP9 DUP11 PUSH1 0x40 MLOAD SWAP3 PUSH2 0xB61 DUP5 PUSH2 0x3E18 JUMP JUMPDEST PUSH1 0x4 CALLDATALOAD DUP5 MSTORE DUP10 PUSH1 0x20 DUP6 ADD MSTORE PUSH1 0x1 PUSH1 0xA0 SHL PUSH1 0x1 SWAP1 SUB PUSH1 0x80 MLOAD AND PUSH1 0x40 DUP6 ADD MSTORE PUSH1 0x1 PUSH1 0xA0 SHL PUSH1 0x1 SWAP1 SUB DUP7 AND PUSH1 0x60 DUP6 ADD MSTORE DUP7 PUSH1 0x2 SIGNEXTEND PUSH1 0x80 DUP6 ADD MSTORE DUP8 PUSH1 0x2 SIGNEXTEND PUSH1 0xA0 DUP6 ADD MSTORE PUSH1 0x1 PUSH1 0x1 PUSH1 0x80 SHL SUB DUP10 AND PUSH1 0xC0 DUP6 ADD MSTORE PUSH1 0xE0 DUP5 ADD SWAP1 DUP6 DUP3 MSTORE PUSH2 0x100 DUP6 ADD SWAP1 DUP13 DUP3 MSTORE PUSH2 0x120 DUP7 ADD DUP2 PUSH1 0x2 SIGNEXTEND DUP2 MSTORE PUSH2 0x140 DUP8 ADD SWAP2 PUSH1 0x18 SHR PUSH1 0x2 SIGNEXTEND DUP3 MSTORE PUSH2 0x160 DUP8 ADD SWAP4 PUSH2 0x3E8 DUP6 MSTORE PUSH2 0x180 DUP9 ADD SWAP6 TIMESTAMP DUP8 MSTORE PUSH2 0x1A0 DUP10 ADD SWAP8 PUSH1 0x1 DUP10 MSTORE DUP2 MSTORE PUSH1 0x4 PUSH1 0x20 MSTORE PUSH1 0x40 SWAP1 KECCAK256 SWAP8 DUP1 MLOAD DUP10 SSTORE PUSH1 0x1 PUSH1 0xA0 SHL PUSH1 0x1 SWAP1 SUB PUSH1 0x20 DUP3 ADD MLOAD AND PUSH1 0x1 DUP11 ADD SWAP1 PUSH1 0x1 PUSH1 0xA0 SHL PUSH1 0x1 SWAP1 SUB AND PUSH1 0x1 PUSH1 0x1 PUSH1 0x60 SHL SUB PUSH1 0xA0 SHL DUP3 SLOAD AND OR SWAP1 SSTORE PUSH1 0x1 PUSH1 0xA0 SHL PUSH1 0x1 SWAP1 SUB PUSH1 0x40 DUP3 ADD MLOAD AND PUSH1 0x2 DUP11 ADD SWAP1 PUSH1 0x1 PUSH1 0xA0 SHL PUSH1 0x1 SWAP1 SUB AND PUSH1 0x1 PUSH1 0x1 PUSH1 0x60 SHL SUB PUSH1 0xA0 SHL DUP3 SLOAD AND OR SWAP1 SSTORE PUSH1 0x3 DUP10 ADD PUSH1 0x1 PUSH1 0xA0 SHL PUSH1 0x1 SWAP1 SUB PUSH1 0x1 PUSH1 0xA0 SHL PUSH1 0x1 SWAP1 SUB PUSH1 0x60 DUP5 ADD MLOAD AND AND PUSH1 0x1 PUSH1 0x1 PUSH1 0x60 SHL SUB PUSH1 0xA0 SHL DUP3 SLOAD AND OR DUP2 SSTORE PUSH1 0x80 DUP3 ADD MLOAD PUSH1 0x2 SIGNEXTEND PUSH2 0xCBE SWAP1 DUP3 SWAP1 DUP2 SLOAD SWAP1 PUSH1 0xA0 SHL PUSH3 0xFFFFFF PUSH1 0xA0 SHL AND SWAP1 PUSH3 0xFFFFFF PUSH1 0xA0 SHL NOT AND OR SWAP1 SSTORE JUMP JUMPDEST PUSH1 0xA0 DUP3 ADD MLOAD DUP2 SLOAD PUSH1 0xB8 SWAP2 SWAP1 SWAP2 SHL PUSH3 0xFFFFFF PUSH1 0xB8 SHL AND PUSH3 0xFFFFFF PUSH1 0xB8 SHL NOT SWAP1 SWAP2 AND OR SWAP1 SSTORE PUSH1 0xC0 ADD MLOAD PUSH1 0x4 DUP10 ADD DUP1 SLOAD PUSH1 0x1 PUSH1 0x1 PUSH1 0x80 SHL SUB SWAP1 SWAP3 AND PUSH16 0xFFFFFFFFFFFFFFFFFFFFFFFFFFFFFFFF NOT SWAP1 SWAP3 AND SWAP2 SWAP1 SWAP2 OR SWAP1 SSTORE MLOAD PUSH1 0x5 DUP9 ADD SSTORE SWAP2 MLOAD PUSH1 0x6 DUP8 ADD DUP1 SLOAD SWAP4 MLOAD PUSH1 0xA0 SHL PUSH3 0xFFFFFF PUSH1 0xA0 SHL AND PUSH1 0x1 PUSH1 0x1 PUSH1 0xA0 SHL SUB SWAP1 SWAP3 AND PUSH1 0x1 PUSH1 0x1 PUSH1 0xB8 SHL SUB NOT SWAP1 SWAP5 AND SWAP4 SWAP1 SWAP4 OR OR DUP3 SSTORE MLOAD DUP2 SLOAD PUSH1 0xB8 SWAP2 SWAP1 SWAP2 SHL PUSH3 0xFFFFFF PUSH1 0xB8 SHL AND PUSH3 0xFFFFFF PUSH1 0xB8 SHL NOT SWAP1 SWAP2 AND OR SWAP1 SSTORE MLOAD PUSH1 0x7 DUP5 ADD SSTORE MLOAD PUSH1 0x8 DUP4 ADD SSTORE MLOAD ISZERO ISZERO SWAP1 PUSH1 0x9 ADD SWAP1 PUSH2 0xD92 SWAP2 SWAP1 PUSH1 0xFF DUP1 NOT DUP4 SLOAD AND SWAP2 ISZERO ISZERO AND OR SWAP1 SSTORE JUMP JUMPDEST DUP7 DUP10 MSTORE PUSH1 0x5 PUSH1 0x20 MSTORE PUSH1 0x40 DUP10 KECCAK256 DUP1 SLOAD SWAP1 PUSH1 0x1 PUSH1 0x40 SHL DUP3 LT ISZERO PUSH2 0xEA8 JUMPI SWAP4 PUSH1 0x1 PUSH1 0x1 PUSH1 0x80 SHL SUB SWAP4 DUP11 PUSH32 0x7112C6849012C19915DD63E9B6905B8FEBAD32E176DE071FB5B3B3D757D28819 SWAP9 SWAP5 PUSH2 0xE2E PUSH1 0x40 PUSH1 0x20 SWAP16 PUSH2 0xDF8 DUP9 DUP7 SWAP16 SWAP13 PUSH1 0x1 PUSH1 0xC0 SWAP16 SWAP12 ADD DUP2 SSTORE PUSH2 0x3F1A JUMP JUMPDEST DUP2 SLOAD SWAP1 PUSH1 0x3 SHL SWAP1 DUP8 DUP3 SHL SWAP2 PUSH1 0x0 NOT SWAP1 SHL NOT AND OR SWAP1 SSTORE PUSH1 0x4 CALLDATALOAD DUP2 MSTORE PUSH1 0x20 PUSH1 0x8 SWAP1 MSTORE DUP5 DUP3 DUP3 KECCAK256 SSTORE PUSH1 0x4 CALLDATALOAD DUP2 MSTORE PUSH1 0x20 PUSH1 0x7 SWAP1 MSTORE KECCAK256 PUSH2 0x4126 JUMP JUMPDEST PUSH1 0x40 MLOAD SWAP1 DUP2 MSTORE DUP7 DUP7 AND DUP15 DUP3 ADD MSTORE PUSH32 0x4379AA5572D39D362EB14A9D4E41F70105F3BEA7CE8F3E99FA15F7A4E525767A PUSH1 0x40 PUSH1 0x4 CALLDATALOAD SWAP3 LOG3 PUSH1 0x40 MLOAD SWAP6 DUP7 MSTORE PUSH1 0x1 DUP1 PUSH1 0xA0 SHL SUB PUSH1 0x80 MLOAD AND DUP13 DUP8 ADD MSTORE PUSH1 0x1 DUP1 PUSH1 0xA0 SHL SUB AND PUSH1 0x40 DUP7 ADD MSTORE PUSH1 0x2 SIGNEXTEND PUSH1 0x60 DUP6 ADD MSTORE PUSH1 0x2 SIGNEXTEND PUSH1 0x80 DUP5 ADD MSTORE AND PUSH1 0xA0 DUP3 ADD MSTORE LOG3 PUSH1 0x1 DUP1 SSTORE PUSH1 0x40 MLOAD SWAP1 DUP2 MSTORE RETURN JUMPDEST PUSH4 0x4E487B71 PUSH1 0xE0 SHL DUP12 MSTORE PUSH1 0x41 PUSH1 0x4 MSTORE PUSH1 0x24 DUP12 REVERT JUMPDEST PUSH1 0xB SLOAD PUSH2 0xED6 SWAP1 PUSH1 0x1 PUSH1 0x1 PUSH1 0xA0 SHL SUB SWAP1 DUP2 AND SWAP1 DUP5 AND PUSH2 0x4780 JUMP JUMPDEST PUSH2 0xB41 JUMP JUMPDEST PUSH1 0xB SLOAD PUSH1 0x80 MLOAD PUSH2 0xEF7 SWAP2 PUSH1 0x1 PUSH1 0x1 PUSH1 0xA0 SHL SUB SWAP1 DUP2 AND SWAP2 AND PUSH2 0x4780 JUMP JUMPDEST PUSH2 0xB3B JUMP JUMPDEST SWAP3 POP SWAP6 POP PUSH1 0x80 DUP3 RETURNDATASIZE PUSH1 0x80 GT PUSH2 0xF49 JUMPI JUMPDEST DUP2 PUSH2 0xF19 PUSH1 0x80 SWAP4 DUP4 PUSH2 0x3E81 JUMP JUMPDEST DUP2 ADD SUB SLT PUSH2 0xF45 JUMPI PUSH1 0x20 DUP3 MLOAD SWAP3 ADD MLOAD SWAP2 PUSH1 0x1 PUSH1 0x1 PUSH1 0x80 SHL SUB DUP4 AND DUP4 SUB PUSH2 0xF41 JUMPI SWAP2 SWAP6 CODESIZE PUSH2 0xB34 JUMP JUMPDEST DUP11 DUP1 REVERT JUMPDEST DUP10 DUP1 REVERT JUMPDEST RETURNDATASIZE SWAP2 POP PUSH2 0xF0C JUMP JUMPDEST PUSH1 0x40 MLOAD RETURNDATASIZE DUP13 DUP3 RETURNDATACOPY RETURNDATASIZE SWAP1 REVERT JUMPDEST POP PUSH4 0x4E487B71 PUSH1 0xE0 SHL DUP16 MSTORE PUSH1 0x41 PUSH1 0x4 MSTORE PUSH1 0x24 DUP16 REVERT JUMPDEST PUSH2 0x2710 SUB PUSH2 0x2710 DUP2 GT PUSH2 0xF92 JUMPI PUSH2 0xF8B PUSH2 0x2710 SWAP2 DUP7 PUSH2 0x40FD JUMP JUMPDEST DIV SWAP1 PUSH2 0x9F2 JUMP JUMPDEST PUSH4 0x4E487B71 PUSH1 0xE0 SHL DUP14 MSTORE PUSH1 0x11 PUSH1 0x4 MSTORE PUSH1 0x24 DUP14 REVERT JUMPDEST DUP1 PUSH2 0x2710 SUB PUSH2 0x2710 DUP2 GT PUSH2 0xF92 JUMPI PUSH2 0xFC1 PUSH2 0x2710 SWAP2 DUP5 PUSH2 0x40FD JUMP JUMPDEST DIV SWAP1 PUSH2 0x9E8 JUMP JUMPDEST POP PUSH2 0xFFFF DUP1 PUSH1 0xE SLOAD PUSH1 0xA0 SHR AND PUSH2 0x9DE JUMP JUMPDEST PUSH1 0xB SLOAD PUSH1 0x40 MLOAD PUSH4 0x6EB1769F PUSH1 0xE1 SHL DUP2 MSTORE ADDRESS PUSH1 0x4 DUP3 ADD MSTORE PUSH1 0x1 PUSH1 0x1 PUSH1 0xA0 SHL SUB SWAP2 DUP3 AND PUSH1 0x24 DUP3 ADD DUP2 SWAP1 MSTORE SWAP2 DUP15 SWAP2 SWAP1 DUP9 AND SWAP1 PUSH1 0x20 DUP2 PUSH1 0x44 DUP2 DUP6 GAS STATICCALL SWAP1 DUP2 ISZERO PUSH2 0x108C JUMPI DUP9 SWAP4 SWAP2 PUSH2 0x1053 JUMPI JUMPDEST POP SWAP3 PUSH2 0x103E SWAP4 PUSH2 0x1043 JUMPI JUMPDEST POP PUSH1 0xB SLOAD PUSH1 0x1 PUSH1 0x1 PUSH1 0xA0 SHL SUB AND SWAP1 PUSH2 0x483A JUMP JUMPDEST PUSH2 0x9D3 JUMP JUMPDEST PUSH2 0x104D SWAP1 DUP3 PUSH2 0x4780 JUMP JUMPDEST CODESIZE PUSH2 0x102B JUMP JUMPDEST SWAP3 POP POP PUSH1 0x20 DUP3 RETURNDATASIZE PUSH1 0x20 GT PUSH2 0x1084 JUMPI JUMPDEST DUP2 PUSH2 0x106F PUSH1 0x20 SWAP4 DUP4 PUSH2 0x3E81 JUMP JUMPDEST DUP2 ADD SUB SLT PUSH2 0x321 JUMPI SWAP1 MLOAD DUP7 SWAP2 SWAP1 PUSH2 0x103E PUSH2 0x1020 JUMP JUMPDEST RETURNDATASIZE SWAP2 POP PUSH2 0x1062 JUMP JUMPDEST PUSH1 0x40 MLOAD RETURNDATASIZE DUP6 DUP3 RETURNDATACOPY RETURNDATASIZE SWAP1 REVERT JUMPDEST PUSH1 0x40 MLOAD PUSH4 0x6EB1769F PUSH1 0xE1 SHL DUP2 MSTORE ADDRESS PUSH1 0x4 DUP3 ADD MSTORE PUSH1 0x1 PUSH1 0x1 PUSH1 0xA0 SHL SUB DUP3 DUP2 AND PUSH1 0x24 DUP4 ADD MSTORE PUSH1 0x80 MLOAD DUP16 SWAP3 SWAP2 PUSH1 0x20 SWAP2 DUP4 SWAP2 PUSH1 0x44 SWAP2 DUP4 SWAP2 AND GAS STATICCALL SWAP2 DUP3 ISZERO PUSH2 0x32E JUMPI SWAP2 PUSH2 0x1121 JUMPI JUMPDEST POP PUSH2 0x1105 JUMPI JUMPDEST POP PUSH1 0xB SLOAD PUSH1 0x80 MLOAD PUSH2 0x10FF SWAP2 DUP5 SWAP2 PUSH1 0x1 PUSH1 0x1 PUSH1 0xA0 SHL SUB SWAP2 DUP3 AND SWAP2 AND PUSH2 0x483A JUMP JUMPDEST CODESIZE PUSH2 0x9CB JUMP JUMPDEST PUSH1 0x80 MLOAD PUSH2 0x111B SWAP2 SWAP1 PUSH1 0x1 PUSH1 0x1 PUSH1 0xA0 SHL SUB AND PUSH2 0x4780 JUMP JUMPDEST CODESIZE PUSH2 0x10E0 JUMP JUMPDEST SWAP1 POP PUSH1 0x20 DUP2 RETURNDATASIZE PUSH1 0x20 GT PUSH2 0x114B JUMPI JUMPDEST DUP2 PUSH2 0x113C PUSH1 0x20 SWAP4 DUP4 PUSH2 0x3E81 JUMP JUMPDEST DUP2 ADD SUB SLT PUSH2 0x321 JUMPI MLOAD CODESIZE PUSH2 0x10DA JUMP JUMPDEST RETURNDATASIZE SWAP2 POP PUSH2 0x112F JUMP JUMPDEST PUSH1 0x40 MLOAD PUSH3 0x461BCD PUSH1 0xE5 SHL DUP2 MSTORE PUSH1 0x20 PUSH1 0x4 DUP3 ADD MSTORE PUSH1 0xC PUSH1 0x24 DUP3 ADD MSTORE PUSH12 0x13919413481B9BDD081CD95D PUSH1 0xA2 SHL PUSH1 0x44 DUP3 ADD MSTORE PUSH1 0x64 SWAP1 REVERT JUMPDEST PUSH1 0x40 MLOAD PUSH4 0x70A08231 PUSH1 0xE0 SHL DUP2 MSTORE ADDRESS PUSH1 0x4 DUP3 ADD MSTORE DUP13 SWAP1 PUSH1 0x20 DUP2 PUSH1 0x24 DUP2 PUSH1 0x1 PUSH1 0x1 PUSH1 0xA0 SHL SUB DUP12 AND GAS STATICCALL SWAP1 DUP2 ISZERO PUSH2 0x1234 JUMPI DUP7 SWAP3 SWAP2 PUSH2 0x11FF JUMPI JUMPDEST POP LT ISZERO PUSH2 0x9B2 JUMPI PUSH1 0x40 MLOAD PUSH3 0x461BCD PUSH1 0xE5 SHL DUP2 MSTORE PUSH1 0x20 PUSH1 0x4 DUP3 ADD MSTORE PUSH1 0x13 PUSH1 0x24 DUP3 ADD MSTORE PUSH19 0x496E73756666696369656E7420746F6B656E31 PUSH1 0x68 SHL PUSH1 0x44 DUP3 ADD MSTORE PUSH1 0x64 SWAP1 REVERT JUMPDEST SWAP2 POP POP PUSH1 0x20 DUP2 RETURNDATASIZE PUSH1 0x20 GT PUSH2 0x122C JUMPI JUMPDEST DUP2 PUSH2 0x121B PUSH1 0x20 SWAP4 DUP4 PUSH2 0x3E81 JUMP JUMPDEST DUP2 ADD SUB SLT PUSH2 0x321 JUMPI DUP5 SWAP1 MLOAD CODESIZE PUSH2 0x11BD JUMP JUMPDEST RETURNDATASIZE SWAP2 POP PUSH2 0x120E JUMP JUMPDEST PUSH1 0x40 MLOAD RETURNDATASIZE DUP5 DUP3 RETURNDATACOPY RETURNDATASIZE SWAP1 REVERT JUMPDEST PUSH1 0x40 MLOAD PUSH4 0x70A08231 PUSH1 0xE0 SHL DUP2 MSTORE ADDRESS PUSH1 0x4 DUP3 ADD MSTORE PUSH1 0x80 MLOAD PUSH1 0x20 SWAP1 DUP3 SWAP1 PUSH1 0x24 SWAP1 DUP3 SWAP1 PUSH1 0x1 PUSH1 0x1 PUSH1 0xA0 SHL SUB AND GAS STATICCALL DUP1 ISZERO PUSH2 0x12F0 JUMPI DUP3 SWAP2 DUP14 SWAP2 PUSH2 0x12BB JUMPI JUMPDEST POP LT ISZERO PUSH2 0x9A8 JUMPI PUSH1 0x40 MLOAD PUSH3 0x461BCD PUSH1 0xE5 SHL DUP2 MSTORE PUSH1 0x20 PUSH1 0x4 DUP3 ADD MSTORE PUSH1 0x13 PUSH1 0x24 DUP3 ADD MSTORE PUSH19 0x496E73756666696369656E7420746F6B656E3 PUSH1 0x6C SHL PUSH1 0x44 DUP3 ADD MSTORE PUSH1 0x64 SWAP1 REVERT JUMPDEST SWAP2 POP POP PUSH1 0x20 DUP2 RETURNDATASIZE PUSH1 0x20 GT PUSH2 0x12E8 JUMPI JUMPDEST DUP2 PUSH2 0x12D7 PUSH1 0x20 SWAP4 DUP4 PUSH2 0x3E81 JUMP JUMPDEST DUP2 ADD SUB SLT PUSH2 0x321 JUMPI DUP2 SWAP1 MLOAD CODESIZE PUSH2 0x1279 JUMP JUMPDEST RETURNDATASIZE SWAP2 POP PUSH2 0x12CA JUMP JUMPDEST PUSH1 0x40 MLOAD RETURNDATASIZE DUP15 DUP3 RETURNDATACOPY RETURNDATASIZE SWAP1 REVERT JUMPDEST PUSH1 0x40 MLOAD PUSH3 0x461BCD PUSH1 0xE5 SHL DUP2 MSTORE PUSH1 0x20 PUSH1 0x4 DUP3 ADD MSTORE PUSH1 0x1C PUSH1 0x24 DUP3 ADD MSTORE PUSH32 0x496E73756666696369656E7420737761707065642066756E64696E6700000000 PUSH1 0x44 DUP3 ADD MSTORE PUSH1 0x64 SWAP1 REVERT JUMPDEST SWAP1 POP PUSH1 0x20 DUP2 RETURNDATASIZE PUSH1 0x20 GT PUSH2 0x136A JUMPI JUMPDEST DUP2 PUSH2 0x135B PUSH1 0x20 SWAP4 DUP4 PUSH2 0x3E81 JUMP JUMPDEST DUP2 ADD SUB SLT PUSH2 0x321 JUMPI MLOAD CODESIZE PUSH2 0x998 JUMP JUMPDEST RETURNDATASIZE SWAP2 POP PUSH2 0x134E JUMP JUMPDEST SWAP1 SWAP8 SWAP1 PUSH1 0x1 PUSH1 0x1 PUSH1 0xA0 SHL SUB DUP7 AND DUP3 EQ SWAP1 DUP2 PUSH2 0x13A2 JUMPI JUMPDEST POP PUSH2 0x1398 JUMPI JUMPDEST PUSH1 0x20 PUSH1 0x24 SWAP2 PUSH2 0x970 JUMP JUMPDEST SWAP1 SWAP3 POP DUP3 SWAP1 PUSH2 0x138E JUMP JUMPDEST SWAP1 POP CODESIZE PUSH2 0x1388 JUMP JUMPDEST POP DUP1 PUSH2 0x962 JUMP JUMPDEST PUSH4 0x4E487B71 PUSH1 0xE0 SHL DUP14 MSTORE PUSH1 0x32 PUSH1 0x4 MSTORE PUSH1 0x24 DUP14 REVERT JUMPDEST POP DUP12 PUSH2 0x948 JUMP JUMPDEST PUSH4 0x4E487B71 PUSH1 0xE0 SHL DUP13 MSTORE PUSH1 0x32 PUSH1 0x4 MSTORE PUSH1 0x24 DUP13 REVERT JUMPDEST DUP12 PUSH2 0x92C JUMP JUMPDEST PUSH2 0x1409 SWAP2 SWAP6 POP PUSH1 0x20 RETURNDATASIZE PUSH1 0x20 GT PUSH2 0x1410 JUMPI JUMPDEST PUSH2 0x1401 DUP2 DUP4 PUSH2 0x3E81 JUMP JUMPDEST DUP2 ADD SWAP1 PUSH2 0x46F9 JUMP JUMPDEST SWAP4 CODESIZE PUSH2 0x917 JUMP JUMPDEST POP RETURNDATASIZE PUSH2 0x13F7 JUMP JUMPDEST PUSH2 0x142F SWAP1 PUSH1 0x20 RETURNDATASIZE PUSH1 0x20 GT PUSH2 0x1410 JUMPI PUSH2 0x1401 DUP2 DUP4 PUSH2 0x3E81 JUMP JUMPDEST PUSH1 0x80 MSTORE CODESIZE PUSH2 0x8F1 JUMP JUMPDEST PUSH1 0xA SLOAD SWAP3 SWAP6 POP PUSH1 0x1 PUSH1 0x1 PUSH1 0xA0 SHL SUB SWAP1 SWAP3 AND SWAP3 POP DUP3 ISZERO PUSH2 0x164A JUMPI PUSH1 0x40 MLOAD PUSH4 0x6EB1769F PUSH1 0xE1 SHL DUP2 MSTORE ADDRESS PUSH1 0x4 DUP3 ADD MSTORE PUSH1 0x1 PUSH1 0x1 PUSH1 0xA0 SHL SUB DUP5 AND PUSH1 0x24 DUP3 ADD MSTORE DUP12 SWAP3 SWAP1 PUSH1 0x20 DUP2 PUSH1 0x44 DUP2 DUP6 GAS STATICCALL SWAP1 DUP2 ISZERO PUSH2 0x15F8 JUMPI DUP5 SWAP2 PUSH2 0x1613 JUMPI JUMPDEST POP SWAP4 DUP4 SWAP5 PUSH2 0x1603 JUMPI JUMPDEST POP PUSH1 0xA SLOAD PUSH2 0x14AF SWAP1 DUP8 SWAP1 PUSH1 0x1 PUSH1 0x1 PUSH1 0xA0 SHL SUB AND DUP4 PUSH2 0x483A JUMP JUMPDEST PUSH1 0xA SLOAD PUSH1 0x20 SWAP1 PUSH2 0x1521 SWAP1 PUSH1 0x1 PUSH1 0x1 PUSH1 0xA0 SHL SUB AND PUSH2 0x14CD DUP2 ISZERO ISZERO PUSH2 0x45F6 JUMP JUMPDEST PUSH1 0x40 MLOAD PUSH2 0x14D9 DUP2 PUSH2 0x3E4A JUMP JUMPDEST DUP5 DUP2 MSTORE DUP6 DUP5 DUP3 ADD MSTORE DUP7 PUSH1 0x40 DUP3 ADD MSTORE ADDRESS PUSH1 0x60 DUP3 ADD MSTORE TIMESTAMP PUSH1 0x80 DUP3 ADD MSTORE DUP10 PUSH1 0xA0 DUP3 ADD MSTORE DUP7 PUSH1 0xC0 DUP3 ADD MSTORE DUP7 PUSH1 0xE0 DUP3 ADD MSTORE PUSH1 0x40 MLOAD SWAP7 DUP8 DUP1 SWAP5 DUP2 SWAP4 PUSH4 0xB3CE3C9 PUSH1 0xE1 SHL DUP4 MSTORE PUSH1 0x4 DUP4 ADD PUSH2 0x4633 JUMP JUMPDEST SUB SWAP3 GAS CALL SWAP3 DUP4 ISZERO PUSH2 0x15F8 JUMPI DUP5 SWAP4 PUSH2 0x15C1 JUMPI JUMPDEST POP PUSH1 0x0 DUP1 MLOAD PUSH1 0x20 PUSH2 0x4C6E DUP4 CODECOPY DUP2 MLOAD SWAP2 MSTORE PUSH1 0x60 DUP5 SWAP8 PUSH2 0x155B PUSH1 0x1 DUP1 PUSH1 0xA0 SHL SUB PUSH1 0xA SLOAD AND DUP6 PUSH2 0x4780 JUMP JUMPDEST DUP5 SWAP7 PUSH1 0x40 MLOAD SWAP2 DUP3 MSTORE DUP7 PUSH1 0x20 DUP4 ADD MSTORE PUSH1 0x40 DUP3 ADD MSTORE LOG3 ISZERO PUSH2 0x157C JUMPI CODESIZE DUP1 DUP1 PUSH2 0x8B2 JUMP JUMPDEST PUSH1 0x40 MLOAD PUSH3 0x461BCD PUSH1 0xE5 SHL DUP2 MSTORE PUSH1 0x20 PUSH1 0x4 DUP3 ADD MSTORE PUSH1 0x1C PUSH1 0x24 DUP3 ADD MSTORE PUSH32 0x5377617020726573756C74656420696E207A65726F206F757470757400000000 PUSH1 0x44 DUP3 ADD MSTORE PUSH1 0x64 SWAP1 REVERT JUMPDEST SWAP4 POP SWAP2 POP PUSH1 0x20 DUP4 RETURNDATASIZE PUSH1 0x20 GT PUSH2 0x15F0 JUMPI JUMPDEST DUP2 PUSH2 0x15DE PUSH1 0x20 SWAP4 DUP4 PUSH2 0x3E81 JUMP JUMPDEST DUP2 ADD SUB SLT PUSH2 0x321 JUMPI DUP11 SWAP3 MLOAD SWAP2 CODESIZE PUSH2 0x1533 JUMP JUMPDEST RETURNDATASIZE SWAP2 POP PUSH2 0x15D1 JUMP JUMPDEST PUSH1 0x40 MLOAD RETURNDATASIZE DUP7 DUP3 RETURNDATACOPY RETURNDATASIZE SWAP1 REVERT JUMPDEST PUSH2 0x160D SWAP1 DUP3 PUSH2 0x4780 JUMP JUMPDEST CODESIZE PUSH2 0x1496 JUMP JUMPDEST SWAP4 POP POP PUSH1 0x20 DUP4 RETURNDATASIZE PUSH1 0x20 GT PUSH2 0x1642 JUMPI JUMPDEST DUP2 PUSH2 0x162F PUSH1 0x20 SWAP4 DUP4 PUSH2 0x3E81 JUMP JUMPDEST DUP2 ADD SUB SLT PUSH2 0x321 JUMPI SWAP2 MLOAD DUP12 SWAP3 SWAP1 DUP4 PUSH2 0x148D JUMP JUMPDEST RETURNDATASIZE SWAP2 POP PUSH2 0x1622 JUMP JUMPDEST PUSH1 0x40 MLOAD PUSH3 0x461BCD PUSH1 0xE5 SHL DUP2 MSTORE PUSH1 0x20 PUSH1 0x4 DUP3 ADD MSTORE PUSH1 0x13 PUSH1 0x24 DUP3 ADD MSTORE PUSH19 0x14DDD85C081C9BDD5D195C881B9BDD081CD95D PUSH1 0x6A SHL PUSH1 0x44 DUP3 ADD MSTORE PUSH1 0x64 SWAP1 REVERT JUMPDEST POP CALLVALUE PUSH2 0x29A JUMPI PUSH1 0x20 CALLDATASIZE PUSH1 0x3 NOT ADD SLT PUSH2 0x29A JUMPI PUSH2 0x169F PUSH2 0x3D98 JUMP JUMPDEST PUSH2 0x16A7 PUSH2 0x4718 JUMP JUMPDEST PUSH1 0xF DUP1 SLOAD PUSH1 0x1 PUSH1 0x1 PUSH1 0xA0 SHL SUB NOT AND PUSH1 0x1 PUSH1 0x1 PUSH1 0xA0 SHL SUB SWAP3 SWAP1 SWAP3 AND SWAP2 DUP3 OR SWAP1 SSTORE PUSH32 0xB3B3F5F64AB192E4B5FEFDE1F51CE9733BBDCF831951543B325AEBD49CC27EC4 DUP3 DUP1 LOG2 DUP1 RETURN JUMPDEST POP CALLVALUE PUSH2 0x29A JUMPI PUSH1 0x20 CALLDATASIZE PUSH1 0x3 NOT ADD SLT PUSH2 0x29A JUMPI PUSH2 0x1714 PUSH1 0x1 DUP1 PUSH1 0xA0 SHL SUB PUSH1 0xF SLOAD AND CALLER EQ PUSH2 0x4076 JUMP JUMPDEST PUSH2 0x171C PUSH2 0x475E JUMP JUMPDEST PUSH1 0x4 CALLDATALOAD DUP2 MSTORE PUSH1 0x4 PUSH1 0x20 MSTORE PUSH1 0x5 PUSH1 0x40 DUP3 KECCAK256 PUSH2 0x173C PUSH1 0xFF PUSH1 0x9 DUP4 ADD SLOAD AND PUSH2 0x4304 JUMP JUMPDEST ADD SLOAD DUP1 ISZERO ISZERO DUP1 PUSH2 0x183D JUMPI JUMPDEST ISZERO PUSH2 0x1808 JUMPI PUSH1 0x40 PUSH2 0x17A7 DUP4 SWAP3 PUSH1 0x1 DUP1 PUSH1 0xA0 SHL SUB PUSH1 0xB SLOAD AND SWAP1 DUP4 MLOAD SWAP1 PUSH2 0x176B DUP3 PUSH2 0x3E66 JUMP JUMPDEST DUP2 MSTORE ADDRESS PUSH1 0x20 DUP3 ADD MSTORE PUSH1 0x1 PUSH1 0x1 PUSH1 0x80 SHL SUB DUP5 DUP3 ADD MSTORE PUSH1 0x1 PUSH1 0x1 PUSH1 0x80 SHL SUB PUSH1 0x60 DUP3 ADD MSTORE DUP4 MLOAD SWAP6 DUP7 DUP1 SWAP5 DUP2 SWAP4 PUSH4 0xFC6F7865 PUSH1 0xE0 SHL DUP4 MSTORE PUSH1 0x4 DUP4 ADD PUSH2 0x46BC JUMP JUMPDEST SUB SWAP3 GAS CALL DUP1 ISZERO PUSH2 0x17FB JUMPI PUSH1 0x40 SWAP3 DUP3 SWAP2 PUSH2 0x17CC JUMPI JUMPDEST POP PUSH1 0x1 DUP1 SSTORE DUP3 MLOAD SWAP2 DUP3 MSTORE PUSH1 0x20 DUP3 ADD MSTORE RETURN JUMPDEST SWAP1 POP PUSH2 0x17EE SWAP2 POP DUP3 RETURNDATASIZE DUP5 GT PUSH2 0x17F4 JUMPI JUMPDEST PUSH2 0x17E6 DUP2 DUP4 PUSH2 0x3E81 JUMP JUMPDEST DUP2 ADD SWAP1 PUSH2 0x46A6 JUMP JUMPDEST CODESIZE PUSH2 0x17BB JUMP JUMPDEST POP RETURNDATASIZE PUSH2 0x17DC JUMP JUMPDEST POP PUSH1 0x40 MLOAD SWAP1 RETURNDATASIZE SWAP1 DUP3 RETURNDATACOPY RETURNDATASIZE SWAP1 REVERT JUMPDEST PUSH1 0x40 MLOAD PUSH3 0x461BCD PUSH1 0xE5 SHL DUP2 MSTORE PUSH1 0x20 PUSH1 0x4 DUP3 ADD MSTORE PUSH1 0xD PUSH1 0x24 DUP3 ADD MSTORE PUSH13 0x13919413481B9BDD081D5CD959 PUSH1 0x9A SHL PUSH1 0x44 DUP3 ADD MSTORE PUSH1 0x64 SWAP1 REVERT JUMPDEST POP PUSH1 0xB SLOAD PUSH1 0x1 PUSH1 0x1 PUSH1 0xA0 SHL SUB AND ISZERO ISZERO PUSH2 0x1747 JUMP JUMPDEST POP CALLVALUE PUSH2 0x29A JUMPI PUSH1 0x20 CALLDATASIZE PUSH1 0x3 NOT ADD SLT PUSH2 0x29A JUMPI PUSH2 0x186B PUSH2 0x3DDA JUMP JUMPDEST PUSH2 0x1873 PUSH2 0x4718 JUMP JUMPDEST PUSH2 0xFFFF DUP2 AND SWAP1 PUSH2 0x2710 DUP3 GT PUSH2 0x18D0 JUMPI PUSH1 0xE DUP1 SLOAD PUSH2 0xFFFF PUSH1 0xA0 SHL NOT AND PUSH1 0xA0 SWAP3 SWAP1 SWAP3 SHL PUSH2 0xFFFF PUSH1 0xA0 SHL AND SWAP2 SWAP1 SWAP2 OR SWAP1 SSTORE PUSH1 0x40 MLOAD SWAP1 DUP2 MSTORE PUSH32 0xB32748F11F0A760D3D4770A5C7649C92EB2E1DF92DDA6F5DA9348D28C19D69AE SWAP1 PUSH1 0x20 SWAP1 LOG1 DUP1 RETURN JUMPDEST PUSH1 0x40 MLOAD PUSH3 0x461BCD PUSH1 0xE5 SHL DUP2 MSTORE PUSH1 0x20 PUSH1 0x4 DUP3 ADD MSTORE PUSH1 0xC PUSH1 0x24 DUP3 ADD MSTORE PUSH12 0xC4E0E640E8DEDE40D0D2CED PUSH1 0xA3 SHL PUSH1 0x44 DUP3 ADD MSTORE PUSH1 0x64 SWAP1 REVERT JUMPDEST POP CALLVALUE PUSH2 0x29A JUMPI PUSH1 0xE0 CALLDATASIZE PUSH1 0x3 NOT ADD SLT PUSH2 0x29A JUMPI PUSH1 0x4 CALLDATALOAD PUSH2 0x1921 PUSH2 0x3DAE JUMP JUMPDEST SWAP1 PUSH1 0x44 CALLDATALOAD PUSH1 0x1 PUSH1 0x1 PUSH1 0x40 SHL SUB DUP2 GT PUSH2 0x1F88 JUMPI PUSH2 0x1941 SWAP1 CALLDATASIZE SWAP1 PUSH1 0x4 ADD PUSH2 0x3DEB JUMP JUMPDEST SWAP1 SWAP3 PUSH2 0x194B PUSH2 0x3F04 JUMP JUMPDEST PUSH2 0x1960 PUSH1 0x1 DUP1 PUSH1 0xA0 SHL SUB PUSH1 0xF SLOAD AND CALLER EQ PUSH2 0x4076 JUMP JUMPDEST PUSH2 0x1968 PUSH2 0x4741 JUMP JUMPDEST PUSH2 0x1970 PUSH2 0x475E JUMP JUMPDEST PUSH2 0x197B DUP4 ISZERO ISZERO PUSH2 0x41D4 JUMP JUMPDEST DUP4 DUP7 MSTORE PUSH1 0x4 PUSH1 0x20 MSTORE PUSH1 0x40 DUP7 KECCAK256 SWAP3 PUSH2 0x1998 PUSH1 0xFF PUSH1 0x9 DUP7 ADD SLOAD AND PUSH2 0x4304 JUMP JUMPDEST PUSH1 0x1 PUSH1 0x1 PUSH1 0xA0 SHL SUB DUP4 AND DUP1 DUP9 MSTORE PUSH1 0x3 PUSH1 0x20 MSTORE PUSH1 0x40 DUP9 KECCAK256 SLOAD SWAP1 SWAP4 SWAP1 PUSH1 0xFF AND ISZERO PUSH2 0x1F4E JUMPI PUSH1 0x2 DUP6 ADD SLOAD PUSH1 0x3 DUP7 ADD SLOAD PUSH1 0x1 PUSH1 0x1 PUSH1 0xA0 SHL SUB SWAP2 DUP3 AND SWAP5 SWAP2 DUP11 SWAP2 AND PUSH2 0x19DD DUP10 PUSH2 0x4873 JUMP JUMPDEST SWAP4 SWAP1 DUP4 SWAP8 DUP2 PUSH2 0x1DF8 JUMPI JUMPDEST POP POP DUP4 PUSH2 0x1CA7 JUMPI JUMPDEST POP POP POP POP DUP3 ISZERO PUSH2 0x1C74 JUMPI PUSH1 0xFF PUSH1 0xF SLOAD PUSH1 0xA0 SHR AND ISZERO PUSH2 0x1A8F JUMPI JUMPDEST POP SWAP1 DUP3 SWAP2 PUSH1 0x60 SWAP4 PUSH1 0x0 DUP1 MLOAD PUSH1 0x20 PUSH2 0x4C4E DUP4 CODECOPY DUP2 MLOAD SWAP2 MSTORE PUSH32 0xAE62392EC9C5AB769DC4D2BF163B81444F6D24444ED51EB54691B478634971A SWAP7 PUSH1 0x6 PUSH1 0x1 DUP1 PUSH1 0xA0 SHL SUB SWAP2 ADD SLOAD AND SWAP9 DUP10 SWAP4 PUSH2 0x1A65 PUSH1 0x40 MLOAD SWAP3 DUP4 SWAP3 DUP11 DUP5 MSTORE DUP11 DUP5 ADD SWAP2 PUSH2 0x3F89 JUMP JUMPDEST DUP7 PUSH1 0x20 DUP4 ADD MSTORE DUP11 PUSH1 0x40 DUP4 ADD MSTORE SUB SWAP1 LOG3 PUSH1 0x40 MLOAD SWAP2 PUSH1 0xC4 CALLDATALOAD DUP4 MSTORE PUSH1 0x20 DUP4 ADD MSTORE PUSH1 0x40 DUP3 ADD MSTORE LOG3 PUSH1 0x1 DUP1 SSTORE DUP1 RETURN JUMPDEST PUSH1 0xC SLOAD PUSH1 0x1 PUSH1 0x1 PUSH1 0xA0 SHL SUB AND PUSH2 0x1AA6 DUP2 ISZERO ISZERO PUSH2 0x4196 JUMP JUMPDEST PUSH1 0x40 MLOAD PUSH4 0x6EB1769F PUSH1 0xE1 SHL DUP2 MSTORE ADDRESS PUSH1 0x4 DUP3 ADD MSTORE PUSH1 0x1 PUSH1 0x1 PUSH1 0xA0 SHL SUB DUP3 AND PUSH1 0x24 DUP3 ADD MSTORE PUSH1 0x20 DUP2 PUSH1 0x44 DUP2 DUP10 GAS STATICCALL SWAP1 DUP2 ISZERO PUSH2 0xF51 JUMPI DUP11 SWAP2 PUSH2 0x1C42 JUMPI JUMPDEST POP PUSH2 0x1C32 JUMPI JUMPDEST POP PUSH1 0xC SLOAD PUSH2 0x1AFE SWAP1 DUP5 SWAP1 PUSH1 0x1 PUSH1 0x1 PUSH1 0xA0 SHL SUB AND DUP7 PUSH2 0x483A JUMP JUMPDEST PUSH1 0xC SLOAD DUP9 SWAP1 PUSH1 0x60 SWAP1 PUSH1 0x1 PUSH1 0x1 PUSH1 0xA0 SHL SUB DUP2 AND SWAP1 DUP4 SWAP1 DUP3 EXTCODESIZE ISZERO PUSH2 0x4DA JUMPI DUP8 DUP13 SWAP7 SWAP4 PUSH1 0x1 PUSH1 0x1 PUSH1 0x40 SHL SUB DUP5 DUP1 SWAP5 PUSH2 0x1B51 DUP12 SWAP9 DUP14 PUSH1 0x40 MLOAD SWAP11 DUP12 SWAP9 DUP10 SWAP8 DUP9 SWAP7 PUSH4 0xF84DD79 PUSH1 0xE2 SHL DUP9 MSTORE PUSH1 0xA0 SHR AND SWAP4 PUSH1 0x4 DUP8 ADD PUSH2 0x4216 JUMP JUMPDEST SUB SWAP3 GAS CALL SWAP2 DUP3 PUSH2 0x1C0D JUMPI JUMPDEST POP POP SWAP7 DUP7 PUSH32 0x3A0B7FDDF9C96C10649E612E9A4DC705AE782721AB6A4A7347CF6E0E13B6A1D2 DUP7 DUP3 SWAP9 SWAP8 SWAP7 PUSH2 0x1BDF PUSH1 0x60 SWAP12 SWAP8 PUSH1 0x0 DUP1 MLOAD PUSH1 0x20 PUSH2 0x4C4E DUP4 CODECOPY DUP2 MLOAD SWAP2 MSTORE SWAP8 PUSH32 0xAE62392EC9C5AB769DC4D2BF163B81444F6D24444ED51EB54691B478634971A SWAP15 ISZERO PUSH1 0x0 EQ PUSH2 0x1C04 JUMPI POP PUSH2 0x1BD0 PUSH2 0x3FAA JUMP JUMPDEST SWAP1 JUMPDEST DUP12 PUSH1 0x40 MLOAD SWAP6 DUP7 SWAP6 DUP7 PUSH2 0x4252 JUMP JUMPDEST SUB SWAP1 LOG2 PUSH1 0xC SLOAD PUSH2 0x1BF8 SWAP1 PUSH1 0x1 PUSH1 0x1 PUSH1 0xA0 SHL SUB AND DUP5 PUSH2 0x4780 JUMP JUMPDEST SWAP7 POP POP POP SWAP1 SWAP2 SWAP3 PUSH2 0x1A08 JUMP JUMPDEST SWAP1 POP PUSH1 0x1 PUSH2 0x1BD2 JUMP JUMPDEST DUP2 SWAP3 SWAP5 SWAP4 SWAP9 SWAP8 SWAP7 SWAP6 POP SWAP1 PUSH2 0x1C20 SWAP2 PUSH2 0x3E81 JUMP JUMPDEST PUSH2 0xF45 JUMPI SWAP1 SWAP5 DUP9 SWAP3 SWAP4 SWAP5 SWAP6 DUP11 CODESIZE PUSH2 0x1B5C JUMP JUMPDEST PUSH2 0x1C3C SWAP1 DUP6 PUSH2 0x4780 JUMP JUMPDEST CODESIZE PUSH2 0x1AE5 JUMP JUMPDEST SWAP1 POP PUSH1 0x20 DUP2 RETURNDATASIZE PUSH1 0x20 GT PUSH2 0x1C6C JUMPI JUMPDEST DUP2 PUSH2 0x1C5D PUSH1 0x20 SWAP4 DUP4 PUSH2 0x3E81 JUMP JUMPDEST DUP2 ADD SUB SLT PUSH2 0x321 JUMPI MLOAD CODESIZE PUSH2 0x1ADF JUMP JUMPDEST RETURNDATASIZE SWAP2 POP PUSH2 0x1C50 JUMP JUMPDEST PUSH1 0x40 MLOAD PUSH3 0x461BCD PUSH1 0xE5 SHL DUP2 MSTORE PUSH1 0x20 PUSH1 0x4 DUP3 ADD MSTORE PUSH1 0xB PUSH1 0x24 DUP3 ADD MSTORE PUSH11 0x6E6F2070726F6365656473 PUSH1 0xA8 SHL PUSH1 0x44 DUP3 ADD MSTORE PUSH1 0x64 SWAP1 REVERT JUMPDEST SWAP4 SWAP6 SWAP3 SWAP4 DUP2 DUP9 SUB PUSH2 0x1CCA JUMPI POP POP POP SWAP1 PUSH2 0x1CBF SWAP2 PUSH2 0x4699 JUMP JUMPDEST SWAP2 JUMPDEST CODESIZE DUP9 DUP2 DUP1 PUSH2 0x19EF JUMP JUMPDEST PUSH1 0xA SLOAD SWAP5 SWAP7 SWAP5 SWAP3 SWAP4 SWAP2 SWAP3 PUSH1 0x20 SWAP2 PUSH2 0x1D67 SWAP2 PUSH2 0x1CFB SWAP1 DUP11 SWAP1 PUSH1 0x1 PUSH1 0x1 PUSH1 0xA0 SHL SUB AND PUSH2 0x1CF5 DUP2 ISZERO ISZERO PUSH2 0x45F6 JUMP JUMPDEST DUP8 PUSH2 0x4B60 JUMP JUMPDEST PUSH1 0xA SLOAD PUSH1 0x40 MLOAD PUSH1 0x1 PUSH1 0x1 PUSH1 0xA0 SHL SUB SWAP1 SWAP2 AND SWAP2 PUSH2 0x1D16 DUP3 PUSH2 0x3E4A JUMP JUMPDEST DUP7 DUP3 MSTORE DUP12 DUP6 DUP4 ADD MSTORE DUP8 PUSH1 0x40 DUP4 ADD MSTORE ADDRESS PUSH1 0x60 DUP4 ADD MSTORE TIMESTAMP PUSH1 0x80 DUP4 ADD MSTORE DUP11 PUSH1 0xA0 DUP4 ADD MSTORE PUSH1 0x84 CALLDATALOAD PUSH1 0xC0 DUP4 ADD MSTORE PUSH1 0x1 DUP1 PUSH1 0xA0 SHL SUB AND PUSH1 0xE0 DUP3 ADD MSTORE PUSH1 0x40 MLOAD SWAP7 DUP8 DUP1 SWAP5 DUP2 SWAP4 PUSH4 0xB3CE3C9 PUSH1 0xE1 SHL DUP4 MSTORE PUSH1 0x4 DUP4 ADD PUSH2 0x4633 JUMP JUMPDEST SUB SWAP3 GAS CALL SWAP1 DUP2 ISZERO PUSH2 0x1DED JUMPI DUP8 SWAP4 DUP13 SWAP3 PUSH2 0x1DB5 JUMPI JUMPDEST POP SWAP1 PUSH2 0x1D96 DUP2 PUSH1 0x0 DUP1 MLOAD PUSH1 0x20 PUSH2 0x4C6E DUP4 CODECOPY DUP2 MLOAD SWAP2 MSTORE SWAP4 PUSH2 0x4699 JUMP JUMPDEST PUSH1 0x40 DUP1 MLOAD SWAP9 DUP10 MSTORE PUSH1 0x20 DUP10 ADD SWAP3 SWAP1 SWAP3 MSTORE SWAP1 DUP8 ADD DUP11 SWAP1 MSTORE SWAP6 PUSH1 0x60 SWAP1 LOG3 PUSH2 0x1CC1 JUMP JUMPDEST SWAP2 POP SWAP3 POP PUSH1 0x20 DUP2 RETURNDATASIZE PUSH1 0x20 GT PUSH2 0x1DE5 JUMPI JUMPDEST DUP2 PUSH2 0x1DD2 PUSH1 0x20 SWAP4 DUP4 PUSH2 0x3E81 JUMP JUMPDEST DUP2 ADD SUB SLT PUSH2 0x321 JUMPI MLOAD DUP7 SWAP3 PUSH2 0x1D96 PUSH2 0x1D7B JUMP JUMPDEST RETURNDATASIZE SWAP2 POP PUSH2 0x1DC5 JUMP JUMPDEST PUSH1 0x40 MLOAD RETURNDATASIZE DUP14 DUP3 RETURNDATACOPY RETURNDATASIZE SWAP1 REVERT JUMPDEST SWAP2 SWAP8 SWAP1 SWAP2 DUP1 DUP11 SUB PUSH2 0x1E17 JUMPI POP SWAP1 PUSH2 0x1E0E SWAP2 PUSH2 0x4699 JUMP JUMPDEST SWAP6 JUMPDEST CODESIZE DUP1 PUSH2 0x19E7 JUMP JUMPDEST PUSH1 0xA SLOAD SWAP3 SWAP9 SWAP3 DUP6 SWAP3 POP PUSH2 0x1E40 SWAP1 DUP11 SWAP1 PUSH1 0x1 PUSH1 0x1 PUSH1 0xA0 SHL SUB AND PUSH2 0x1E3A DUP2 ISZERO ISZERO PUSH2 0x45F6 JUMP JUMPDEST DUP4 PUSH2 0x4B60 JUMP JUMPDEST PUSH1 0x20 PUSH2 0x1EB3 PUSH1 0x1 DUP1 PUSH1 0xA0 SHL SUB PUSH1 0xA SLOAD AND PUSH1 0x40 MLOAD PUSH2 0x1E5C DUP2 PUSH2 0x3E4A JUMP JUMPDEST DUP5 DUP2 MSTORE DUP4 DUP2 ADD DUP15 SWAP1 MSTORE PUSH1 0x40 DUP1 DUP3 ADD DUP8 SWAP1 MSTORE ADDRESS PUSH1 0x60 DUP4 ADD MSTORE TIMESTAMP PUSH1 0x80 DUP4 ADD MSTORE PUSH1 0xA0 DUP3 ADD DUP15 SWAP1 MSTORE PUSH1 0x64 CALLDATALOAD PUSH1 0xC0 DUP4 ADD MSTORE PUSH1 0x1 PUSH1 0x1 PUSH1 0xA0 SHL SUB DUP9 AND PUSH1 0xE0 DUP4 ADD MSTORE MLOAD PUSH4 0xB3CE3C9 PUSH1 0xE1 SHL DUP2 MSTORE SWAP6 DUP7 SWAP4 DUP5 SWAP3 DUP4 SWAP2 SWAP1 PUSH1 0x4 DUP4 ADD PUSH2 0x4633 JUMP JUMPDEST SUB SWAP3 GAS CALL DUP1 ISZERO PUSH2 0x1F43 JUMPI DUP13 SWAP10 DUP12 SWAP4 DUP8 SWAP3 PUSH2 0x1EF7 JUMPI JUMPDEST POP PUSH1 0x40 DUP1 MLOAD SWAP2 DUP3 MSTORE PUSH1 0x20 DUP3 ADD DUP4 SWAP1 MSTORE DUP2 ADD SWAP11 SWAP1 SWAP11 MSTORE SWAP9 PUSH1 0x0 DUP1 MLOAD PUSH1 0x20 PUSH2 0x4C6E DUP4 CODECOPY DUP2 MLOAD SWAP2 MSTORE SWAP1 PUSH1 0x60 SWAP1 LOG3 PUSH2 0x1E10 JUMP JUMPDEST SWAP7 POP SWAP3 POP POP SWAP8 POP PUSH1 0x20 DUP5 RETURNDATASIZE PUSH1 0x20 GT PUSH2 0x1F3B JUMPI JUMPDEST DUP2 PUSH2 0x1F17 PUSH1 0x20 SWAP4 DUP4 PUSH2 0x3E81 JUMP JUMPDEST DUP2 ADD SUB SLT PUSH2 0x321 JUMPI DUP11 SWAP8 PUSH1 0x0 DUP1 MLOAD PUSH1 0x20 PUSH2 0x4C6E DUP4 CODECOPY DUP2 MLOAD SWAP2 MSTORE DUP11 SWAP3 DUP16 SWAP7 MLOAD SWAP2 PUSH2 0x1EC8 JUMP JUMPDEST RETURNDATASIZE SWAP2 POP PUSH2 0x1F0A JUMP JUMPDEST PUSH1 0x40 MLOAD RETURNDATASIZE DUP8 DUP3 RETURNDATACOPY RETURNDATASIZE SWAP1 REVERT JUMPDEST PUSH1 0x40 MLOAD PUSH3 0x461BCD PUSH1 0xE5 SHL DUP2 MSTORE PUSH1 0x20 PUSH1 0x4 DUP3 ADD MSTORE PUSH1 0x12 PUSH1 0x24 DUP3 ADD MSTORE PUSH18 0x18985CD9481B9BDD081CDD5C1C1BDC9D1959 PUSH1 0x72 SHL PUSH1 0x44 DUP3 ADD MSTORE PUSH1 0x64 SWAP1 REVERT JUMPDEST DUP4 DUP1 REVERT JUMPDEST POP CALLVALUE PUSH2 0x29A JUMPI PUSH1 0x20 CALLDATASIZE PUSH1 0x3 NOT ADD SLT PUSH2 0x29A JUMPI PUSH2 0x1FA6 PUSH2 0x3D98 JUMP JUMPDEST PUSH2 0x1FAE PUSH2 0x4718 JUMP JUMPDEST PUSH1 0x1 DUP1 PUSH1 0xA0 SHL SUB AND PUSH1 0x1 PUSH1 0x1 PUSH1 0x60 SHL SUB PUSH1 0xA0 SHL PUSH1 0xB SLOAD AND OR PUSH1 0xB SSTORE DUP1 RETURN JUMPDEST POP CALLVALUE PUSH2 0x29A JUMPI PUSH1 0x20 CALLDATASIZE PUSH1 0x3 NOT ADD SLT PUSH2 0x29A JUMPI PUSH1 0x4 CALLDATALOAD PUSH1 0x1 PUSH1 0x1 PUSH1 0x40 SHL SUB DUP2 AND SWAP1 DUP2 DUP2 SUB PUSH2 0x4D6 JUMPI PUSH32 0xB9E8A579E9A0C4E7749FCFD43149D119DA9113654E983FEB7225F08A64802370 SWAP2 PUSH1 0x20 SWAP2 PUSH2 0x2020 PUSH2 0x4718 JUMP JUMPDEST PUSH2 0x2032 PUSH1 0xFF PUSH1 0xD SLOAD PUSH1 0xA0 SHR AND ISZERO PUSH2 0x4027 JUMP JUMPDEST PUSH1 0xC DUP1 SLOAD PUSH8 0xFFFFFFFFFFFFFFFF PUSH1 0xA0 SHL NOT AND PUSH1 0xA0 SWAP3 SWAP1 SWAP3 SHL PUSH8 0xFFFFFFFFFFFFFFFF PUSH1 0xA0 SHL AND SWAP2 SWAP1 SWAP2 OR SWAP1 SSTORE PUSH1 0x40 MLOAD SWAP1 DUP2 MSTORE LOG1 DUP1 RETURN JUMPDEST POP CALLVALUE PUSH2 0x29A JUMPI PUSH1 0x20 CALLDATASIZE PUSH1 0x3 NOT ADD SLT PUSH2 0x29A JUMPI PUSH1 0x40 PUSH2 0x1C0 SWAP2 PUSH1 0x4 CALLDATALOAD DUP2 MSTORE PUSH1 0x4 PUSH1 0x20 MSTORE KECCAK256 DUP1 SLOAD SWAP1 PUSH1 0x1 DUP1 PUSH1 0xA0 SHL SUB PUSH1 0x1 DUP3 ADD SLOAD AND SWAP1 PUSH1 0x1 DUP1 PUSH1 0xA0 SHL SUB PUSH1 0x2 DUP3 ADD SLOAD AND PUSH1 0x3 DUP3 ADD SLOAD PUSH1 0x1 PUSH1 0x1 PUSH1 0x80 SHL SUB PUSH1 0x4 DUP5 ADD SLOAD AND PUSH1 0x5 DUP5 ADD SLOAD SWAP1 PUSH1 0x6 DUP6 ADD SLOAD SWAP3 PUSH1 0x7 DUP7 ADD SLOAD SWAP5 PUSH1 0xFF PUSH1 0x9 PUSH1 0x8 DUP10 ADD SLOAD SWAP9 ADD SLOAD AND SWAP8 PUSH1 0x40 MLOAD SWAP10 DUP11 MSTORE PUSH1 0x20 DUP11 ADD MSTORE PUSH1 0x40 DUP10 ADD MSTORE PUSH1 0x1 DUP1 PUSH1 0xA0 SHL SUB DUP2 AND PUSH1 0x60 DUP10 ADD MSTORE DUP1 PUSH1 0xA0 SHR PUSH1 0x2 SIGNEXTEND PUSH1 0x80 DUP10 ADD MSTORE PUSH1 0xB8 SHR PUSH1 0x2 SIGNEXTEND PUSH1 0xA0 DUP9 ADD MSTORE PUSH1 0xC0 DUP8 ADD MSTORE PUSH1 0xE0 DUP7 ADD MSTORE PUSH1 0x1 DUP1 PUSH1 0xA0 SHL SUB DUP2 AND PUSH2 0x100 DUP7 ADD MSTORE DUP1 PUSH1 0xA0 SHR PUSH1 0x2 SIGNEXTEND PUSH2 0x120 DUP7 ADD MSTORE PUSH1 0xB8 SHR PUSH1 0x2 SIGNEXTEND PUSH2 0x140 DUP6 ADD MSTORE PUSH2 0x160 DUP5 ADD MSTORE PUSH2 0x180 DUP4 ADD MSTORE ISZERO ISZERO PUSH2 0x1A0 DUP3 ADD MSTORE RETURN JUMPDEST POP CALLVALUE PUSH2 0x29A JUMPI DUP1 PUSH1 0x3 NOT CALLDATASIZE ADD SLT PUSH2 0x29A JUMPI PUSH1 0x20 PUSH2 0xFFFF PUSH1 0xE SLOAD PUSH1 0xA0 SHR AND PUSH1 0x40 MLOAD SWAP1 DUP2 MSTORE RETURN JUMPDEST POP CALLVALUE PUSH2 0x29A JUMPI DUP1 PUSH1 0x3 NOT CALLDATASIZE ADD SLT PUSH2 0x29A JUMPI SLOAD PUSH1 0x40 MLOAD PUSH1 0x1 PUSH1 0x1 PUSH1 0xA0 SHL SUB SWAP1 SWAP2 AND DUP2 MSTORE PUSH1 0x20 SWAP1 RETURN JUMPDEST POP CALLVALUE PUSH2 0x29A JUMPI DUP1 PUSH1 0x3 NOT CALLDATASIZE ADD SLT PUSH2 0x29A JUMPI PUSH2 0x21BD PUSH2 0x4718 JUMP JUMPDEST PUSH2 0x21C5 PUSH2 0x4741 JUMP JUMPDEST PUSH1 0x1 PUSH1 0xFF NOT PUSH1 0x2 SLOAD AND OR PUSH1 0x2 SSTORE PUSH32 0x62E78CEA01BEE320CD4E420270B5EA74000D11B0C9F74754EBDBFC544B05A258 PUSH1 0x20 PUSH1 0x40 MLOAD CALLER DUP2 MSTORE LOG1 DUP1 RETURN JUMPDEST POP CALLVALUE PUSH2 0x29A JUMPI PUSH1 0x20 CALLDATASIZE PUSH1 0x3 NOT ADD SLT PUSH2 0x29A JUMPI PUSH2 0x2219 PUSH2 0x3D98 JUMP JUMPDEST PUSH2 0x2221 PUSH2 0x4718 JUMP JUMPDEST PUSH1 0x1 PUSH1 0x1 PUSH1 0xA0 SHL SUB AND DUP2 MSTORE PUSH1 0x3 PUSH1 0x20 MSTORE PUSH1 0x40 DUP2 KECCAK256 DUP1 SLOAD PUSH1 0xFF NOT AND SWAP1 SSTORE DUP1 RETURN JUMPDEST POP CALLVALUE PUSH2 0x29A JUMPI DUP1 PUSH1 0x3 NOT CALLDATASIZE ADD SLT PUSH2 0x29A JUMPI PUSH2 0x2259 PUSH2 0x4718 JUMP JUMPDEST DUP1 SLOAD PUSH1 0x1 PUSH1 0x1 PUSH1 0xA0 SHL SUB NOT DUP2 AND DUP3 SSTORE DUP2 SWAP1 PUSH1 0x1 PUSH1 0x1 PUSH1 0xA0 SHL SUB AND PUSH32 0x8BE0079C531659141344CD1FD0A4F28419497F9722A3DAAFE3B4186F6B6457E0 DUP3 DUP1 LOG3 DUP1 RETURN JUMPDEST POP CALLVALUE PUSH2 0x29A JUMPI PUSH1 0x20 CALLDATASIZE PUSH1 0x3 NOT ADD SLT PUSH2 0x29A JUMPI PUSH2 0x22B4 PUSH2 0x3D98 JUMP JUMPDEST PUSH2 0x22BC PUSH2 0x4718 JUMP JUMPDEST PUSH1 0x1 PUSH1 0x1 PUSH1 0xA0 SHL SUB AND DUP2 MSTORE PUSH1 0x3 PUSH1 0x20 MSTORE PUSH1 0x40 DUP2 KECCAK256 DUP1 SLOAD PUSH1 0xFF NOT AND PUSH1 0x1 OR SWAP1 SSTORE DUP1 RETURN JUMPDEST POP CALLVALUE PUSH2 0x29A JUMPI DUP1 PUSH1 0x3 NOT CALLDATASIZE ADD SLT PUSH2 0x29A JUMPI PUSH2 0x22F7 PUSH2 0x4718 JUMP JUMPDEST PUSH1 0xD SLOAD PUSH1 0xFF DUP2 PUSH1 0xA0 SHR AND PUSH2 0x233C JUMPI PUSH1 0xFF PUSH1 0xA0 SHL NOT AND PUSH1 0x1 PUSH1 0xA0 SHL OR PUSH1 0xD SSTORE PUSH32 0x47B12A5127AEE56EADD24CEA9CDADF65050A7182DA93368C3F64508C2EAC0D13 DUP2 DUP1 LOG1 DUP1 RETURN JUMPDEST PUSH1 0x40 MLOAD PUSH3 0x461BCD PUSH1 0xE5 SHL DUP2 MSTORE PUSH1 0x20 PUSH1 0x4 DUP3 ADD MSTORE PUSH1 0xE PUSH1 0x24 DUP3 ADD MSTORE PUSH14 0x30B63932B0B23C90333937BD32B7 PUSH1 0x91 SHL PUSH1 0x44 DUP3 ADD MSTORE PUSH1 0x64 SWAP1 REVERT JUMPDEST POP CALLVALUE PUSH2 0x29A JUMPI PUSH1 0x20 CALLDATASIZE PUSH1 0x3 NOT ADD SLT PUSH2 0x29A JUMPI PUSH1 0x20 SWAP1 PUSH1 0xFF SWAP1 PUSH1 0x40 SWAP1 PUSH1 0x1 PUSH1 0x1 PUSH1 0xA0 SHL SUB PUSH2 0x239D PUSH2 0x3D98 JUMP JUMPDEST AND DUP2 MSTORE PUSH1 0x3 DUP5 MSTORE KECCAK256 SLOAD AND PUSH1 0x40 MLOAD SWAP1 ISZERO ISZERO DUP2 MSTORE RETURN JUMPDEST POP CALLVALUE PUSH2 0x29A JUMPI PUSH1 0x20 CALLDATASIZE PUSH1 0x3 NOT ADD SLT PUSH2 0x29A JUMPI PUSH1 0x40 PUSH1 0x20 SWAP2 PUSH1 0x4 CALLDATALOAD DUP2 MSTORE PUSH1 0x8 DUP4 MSTORE KECCAK256 SLOAD PUSH1 0x40 MLOAD SWAP1 DUP2 MSTORE RETURN JUMPDEST POP CALLVALUE PUSH2 0x29A JUMPI PUSH1 0x60 CALLDATASIZE PUSH1 0x3 NOT ADD SLT PUSH2 0x29A JUMPI PUSH2 0x23F5 PUSH2 0x3D98 JUMP JUMPDEST PUSH1 0x24 CALLDATALOAD SWAP1 DUP2 PUSH1 0x2 SIGNEXTEND DUP3 SUB PUSH2 0x4D6 JUMPI PUSH1 0x44 CALLDATALOAD SWAP3 DUP4 PUSH1 0x2 SIGNEXTEND DUP5 SUB PUSH2 0x29A JUMPI PUSH1 0x40 PUSH2 0x241E DUP6 DUP6 DUP6 PUSH2 0x4447 JUMP JUMPDEST DUP3 MLOAD SWAP2 PUSH1 0x2 SIGNEXTEND DUP3 MSTORE PUSH1 0x2 SIGNEXTEND PUSH1 0x20 DUP3 ADD MSTORE RETURN JUMPDEST POP CALLVALUE PUSH2 0x29A JUMPI DUP1 PUSH1 0x3 NOT CALLDATASIZE ADD SLT PUSH2 0x29A JUMPI PUSH1 0x20 PUSH1 0x6 SLOAD PUSH1 0x40 MLOAD SWAP1 DUP2 MSTORE RETURN JUMPDEST POP CALLVALUE PUSH2 0x29A JUMPI DUP1 PUSH1 0x3 NOT CALLDATASIZE ADD SLT PUSH2 0x29A JUMPI DUP1 PUSH1 0x1 PUSH1 0x6 SLOAD SWAP1 JUMPDEST DUP2 DUP2 GT ISZERO PUSH2 0x2745 JUMPI POP PUSH2 0x2479 DUP3 PUSH2 0x42DF JUMP JUMPDEST SWAP2 PUSH2 0x2487 PUSH1 0x40 MLOAD SWAP4 DUP5 PUSH2 0x3E81 JUMP JUMPDEST DUP1 DUP4 MSTORE PUSH2 0x2496 PUSH1 0x1F NOT SWAP2 PUSH2 0x42DF JUMP JUMPDEST ADD DUP4 JUMPDEST DUP2 DUP2 LT PUSH2 0x26D4 JUMPI POP POP DUP3 PUSH1 0x1 JUMPDEST DUP3 DUP2 GT ISZERO PUSH2 0x25B9 JUMPI DUP4 DUP6 PUSH1 0x40 MLOAD SWAP2 DUP3 SWAP2 PUSH1 0x20 DUP4 ADD PUSH1 0x20 DUP5 MSTORE DUP3 MLOAD DUP1 SWAP2 MSTORE PUSH1 0x20 PUSH1 0x40 DUP6 ADD SWAP4 ADD SWAP2 JUMPDEST DUP2 DUP2 LT PUSH2 0x24DB JUMPI POP POP POP SUB SWAP1 RETURN JUMPDEST SWAP2 SWAP4 POP SWAP2 PUSH1 0x20 PUSH2 0x1C0 PUSH1 0x1 SWAP3 PUSH2 0x1A0 DUP8 MLOAD DUP1 MLOAD DUP4 MSTORE DUP6 DUP1 PUSH1 0xA0 SHL SUB DUP6 DUP3 ADD MLOAD AND DUP6 DUP5 ADD MSTORE DUP6 DUP1 PUSH1 0xA0 SHL SUB PUSH1 0x40 DUP3 ADD MLOAD AND PUSH1 0x40 DUP5 ADD MSTORE DUP6 DUP1 PUSH1 0xA0 SHL SUB PUSH1 0x60 DUP3 ADD MLOAD AND PUSH1 0x60 DUP5 ADD MSTORE PUSH1 0x80 DUP2 ADD MLOAD PUSH1 0x2 SIGNEXTEND PUSH1 0x80 DUP5 ADD MSTORE PUSH1 0xA0 DUP2 ADD MLOAD PUSH1 0x2 SIGNEXTEND PUSH1 0xA0 DUP5 ADD MSTORE PUSH1 0x1 PUSH1 0x1 PUSH1 0x80 SHL SUB PUSH1 0xC0 DUP3 ADD MLOAD AND PUSH1 0xC0 DUP5 ADD MSTORE PUSH1 0xE0 DUP2 ADD MLOAD PUSH1 0xE0 DUP5 ADD MSTORE DUP6 DUP1 PUSH1 0xA0 SHL SUB PUSH2 0x100 DUP3 ADD MLOAD AND PUSH2 0x100 DUP5 ADD MSTORE PUSH2 0x120 DUP2 ADD MLOAD PUSH1 0x2 SIGNEXTEND PUSH2 0x120 DUP5 ADD MSTORE PUSH2 0x140 DUP2 ADD MLOAD PUSH1 0x2 SIGNEXTEND PUSH2 0x140 DUP5 ADD MSTORE PUSH2 0x160 DUP2 ADD MLOAD PUSH2 0x160 DUP5 ADD MSTORE PUSH2 0x180 DUP2 ADD MLOAD PUSH2 0x180 DUP5 ADD MSTORE ADD MLOAD ISZERO ISZERO PUSH2 0x1A0 DUP3 ADD MSTORE ADD SWAP5 ADD SWAP2 ADD SWAP2 DUP5 SWAP4 SWAP3 PUSH2 0x24CD JUMP JUMPDEST DUP1 DUP6 MSTORE PUSH1 0x4 PUSH1 0x20 MSTORE PUSH1 0xFF PUSH1 0x9 PUSH1 0x40 DUP8 KECCAK256 ADD SLOAD AND PUSH2 0x25DF JUMPI JUMPDEST PUSH2 0x25DA SWAP1 PUSH2 0x43AC JUMP JUMPDEST PUSH2 0x24A6 JUMP JUMPDEST SWAP1 PUSH2 0x26CC PUSH2 0x25DA SWAP2 DUP4 DUP8 MSTORE PUSH1 0x4 PUSH1 0x20 MSTORE PUSH1 0x40 DUP8 KECCAK256 PUSH1 0xFF PUSH1 0x9 PUSH1 0x40 MLOAD SWAP3 PUSH2 0x2604 DUP5 PUSH2 0x3E18 JUMP JUMPDEST DUP1 SLOAD DUP5 MSTORE PUSH1 0x1 DUP2 ADD SLOAD PUSH1 0x1 PUSH1 0x1 PUSH1 0xA0 SHL SUB SWAP1 DUP2 AND PUSH1 0x20 DUP7 ADD MSTORE PUSH1 0x2 DUP1 DUP4 ADD SLOAD DUP3 AND PUSH1 0x40 DUP8 ADD MSTORE PUSH1 0x3 DUP4 ADD SLOAD DUP1 DUP4 AND PUSH1 0x60 DUP9 ADD MSTORE PUSH1 0xA0 DUP2 DUP2 SHR DUP4 SIGNEXTEND PUSH1 0x80 DUP10 ADD MSTORE PUSH1 0xB8 SWAP2 DUP3 SHR DUP4 SIGNEXTEND DUP2 DUP10 ADD MSTORE PUSH1 0x4 DUP6 ADD SLOAD PUSH1 0x1 PUSH1 0x1 PUSH1 0x80 SHL SUB AND PUSH1 0xC0 DUP10 ADD MSTORE PUSH1 0x5 DUP6 ADD SLOAD PUSH1 0xE0 DUP10 ADD MSTORE PUSH1 0x6 DUP6 ADD SLOAD SWAP4 DUP5 AND PUSH2 0x100 DUP10 ADD MSTORE DUP4 SWAP1 SHR DUP3 SIGNEXTEND PUSH2 0x120 DUP9 ADD MSTORE SWAP2 SWAP1 SWAP2 SHR SWAP1 SIGNEXTEND PUSH2 0x140 DUP6 ADD MSTORE PUSH1 0x7 DUP2 ADD SLOAD PUSH2 0x160 DUP6 ADD MSTORE PUSH1 0x8 DUP2 ADD SLOAD PUSH2 0x180 DUP6 ADD MSTORE ADD SLOAD AND ISZERO ISZERO PUSH2 0x1A0 DUP3 ADD MSTORE PUSH2 0x26BB DUP3 DUP9 PUSH2 0x43BB JUMP JUMPDEST MSTORE PUSH2 0x26C6 DUP2 DUP8 PUSH2 0x43BB JUMP JUMPDEST POP PUSH2 0x43AC JUMP JUMPDEST SWAP2 SWAP1 POP PUSH2 0x25D1 JUMP JUMPDEST PUSH1 0x20 SWAP1 PUSH1 0x40 MLOAD PUSH2 0x26E3 DUP2 PUSH2 0x3E18 JUMP JUMPDEST DUP7 DUP2 MSTORE DUP7 DUP4 DUP3 ADD MSTORE DUP7 PUSH1 0x40 DUP3 ADD MSTORE DUP7 PUSH1 0x60 DUP3 ADD MSTORE DUP7 PUSH1 0x80 DUP3 ADD MSTORE DUP7 PUSH1 0xA0 DUP3 ADD MSTORE DUP7 PUSH1 0xC0 DUP3 ADD MSTORE DUP7 PUSH1 0xE0 DUP3 ADD MSTORE DUP7 PUSH2 0x100 DUP3 ADD MSTORE DUP7 PUSH2 0x120 DUP3 ADD MSTORE DUP7 PUSH2 0x140 DUP3 ADD MSTORE DUP7 PUSH2 0x160 DUP3 ADD MSTORE DUP7 PUSH2 0x180 DUP3 ADD MSTORE DUP7 PUSH2 0x1A0 DUP3 ADD MSTORE DUP3 DUP3 DUP8 ADD ADD MSTORE ADD PUSH2 0x2499 JUMP JUMPDEST DUP1 DUP5 MSTORE PUSH1 0x4 PUSH1 0x20 MSTORE PUSH1 0xFF PUSH1 0x9 PUSH1 0x40 DUP7 KECCAK256 ADD SLOAD AND PUSH2 0x276B JUMPI JUMPDEST PUSH2 0x2766 SWAP1 PUSH2 0x43AC JUMP JUMPDEST PUSH2 0x2467 JUMP JUMPDEST SWAP2 PUSH2 0x2778 PUSH2 0x2766 SWAP2 PUSH2 0x43AC JUMP JUMPDEST SWAP3 SWAP1 POP PUSH2 0x275D JUMP JUMPDEST POP CALLVALUE PUSH2 0x29A JUMPI PUSH1 0x40 CALLDATASIZE PUSH1 0x3 NOT ADD SLT PUSH2 0x29A JUMPI PUSH2 0x279A PUSH2 0x3D98 JUMP JUMPDEST PUSH1 0x1 PUSH1 0x1 PUSH1 0xA0 SHL SUB AND DUP2 MSTORE PUSH1 0x5 PUSH1 0x20 MSTORE PUSH1 0x40 DUP2 KECCAK256 DUP1 SLOAD PUSH1 0x24 CALLDATALOAD SWAP3 SWAP1 DUP4 LT ISZERO PUSH2 0x29A JUMPI PUSH1 0x20 PUSH2 0x27C8 DUP5 DUP5 PUSH2 0x3F1A JUMP JUMPDEST SWAP1 SLOAD SWAP1 PUSH1 0x3 SHL SHR PUSH1 0x40 MLOAD SWAP1 DUP2 MSTORE RETURN JUMPDEST POP CALLVALUE PUSH2 0x29A JUMPI PUSH1 0x20 CALLDATASIZE PUSH1 0x3 NOT ADD SLT PUSH2 0x29A JUMPI PUSH1 0x4 CALLDATALOAD PUSH4 0xFFFFFFFF DUP2 AND SWAP1 DUP2 DUP2 SUB PUSH2 0x4D6 JUMPI PUSH32 0x251E6F2D5D17A57707F74C15C4A10071AB5B45953476C7C9E3B1B992D9F9DD0 SWAP2 PUSH1 0x20 SWAP2 PUSH2 0x2828 PUSH2 0x4718 JUMP JUMPDEST PUSH2 0x283A PUSH1 0xFF PUSH1 0xD SLOAD PUSH1 0xA0 SHR AND ISZERO PUSH2 0x4027 JUMP JUMPDEST PUSH1 0xC DUP1 SLOAD PUSH1 0x1 PUSH1 0x1 PUSH1 0xE0 SHL SUB AND PUSH1 0xE0 SWAP3 SWAP1 SWAP3 SHL PUSH1 0x1 PUSH1 0x1 PUSH1 0xE0 SHL SUB NOT AND SWAP2 SWAP1 SWAP2 OR SWAP1 SSTORE PUSH1 0x40 MLOAD SWAP1 DUP2 MSTORE LOG1 DUP1 RETURN JUMPDEST POP CALLVALUE PUSH2 0x29A JUMPI DUP1 PUSH1 0x3 NOT CALLDATASIZE ADD SLT PUSH2 0x29A JUMPI PUSH1 0x20 PUSH1 0xFF PUSH1 0x2 SLOAD AND PUSH1 0x40 MLOAD SWAP1 ISZERO ISZERO DUP2 MSTORE RETURN JUMPDEST POP CALLVALUE PUSH2 0x29A JUMPI DUP1 PUSH1 0x3 NOT CALLDATASIZE ADD SLT PUSH2 0x29A JUMPI PUSH1 0xF SLOAD PUSH1 0x40 MLOAD PUSH1 0x1 PUSH1 0x1 PUSH1 0xA0 SHL SUB SWAP1 SWAP2 AND DUP2 MSTORE PUSH1 0x20 SWAP1 RETURN JUMPDEST POP CALLVALUE PUSH2 0x29A JUMPI PUSH1 0x80 CALLDATASIZE PUSH1 0x3 NOT ADD SLT PUSH2 0x29A JUMPI PUSH2 0x28CD PUSH2 0x3D98 JUMP JUMPDEST PUSH2 0x28D5 PUSH2 0x3DAE JUMP JUMPDEST PUSH1 0x44 CALLDATALOAD SWAP2 PUSH1 0x64 CALLDATALOAD PUSH1 0x1 PUSH1 0x1 PUSH1 0x40 SHL SUB DUP2 GT PUSH2 0x2BED JUMPI PUSH2 0x28F8 SWAP1 CALLDATASIZE SWAP1 PUSH1 0x4 ADD PUSH2 0x3DEB JUMP JUMPDEST PUSH2 0x2900 PUSH2 0x4718 JUMP JUMPDEST PUSH2 0x2908 PUSH2 0x4741 JUMP JUMPDEST PUSH2 0x2910 PUSH2 0x475E JUMP JUMPDEST PUSH2 0x291B DUP2 ISZERO ISZERO PUSH2 0x41D4 JUMP JUMPDEST PUSH1 0x1 PUSH1 0x1 PUSH1 0xA0 SHL SUB DUP4 AND DUP1 DUP8 MSTORE PUSH1 0x3 PUSH1 0x20 MSTORE PUSH1 0x40 DUP8 KECCAK256 SLOAD SWAP1 SWAP5 SWAP1 PUSH2 0x2941 SWAP1 PUSH1 0xFF AND PUSH2 0x4289 JUMP JUMPDEST PUSH1 0x40 MLOAD PUSH4 0x70A08231 PUSH1 0xE0 SHL DUP2 MSTORE ADDRESS PUSH1 0x4 DUP3 ADD MSTORE SWAP6 PUSH1 0x20 DUP8 PUSH1 0x24 DUP2 DUP10 GAS STATICCALL SWAP7 DUP8 ISZERO PUSH2 0x2BE2 JUMPI DUP9 SWAP8 PUSH2 0x2BAE JUMPI JUMPDEST POP DUP1 PUSH2 0x2BA8 JUMPI POP DUP6 JUMPDEST DUP7 GT PUSH2 0x2B6C JUMPI PUSH1 0xC SLOAD PUSH1 0x1 PUSH1 0x1 PUSH1 0xA0 SHL SUB AND PUSH2 0x2992 DUP2 ISZERO ISZERO PUSH2 0x4196 JUMP JUMPDEST PUSH1 0x40 MLOAD PUSH4 0x6EB1769F PUSH1 0xE1 SHL DUP2 MSTORE ADDRESS PUSH1 0x4 DUP3 ADD MSTORE PUSH1 0x1 PUSH1 0x1 PUSH1 0xA0 SHL SUB DUP3 AND PUSH1 0x24 DUP3 ADD MSTORE PUSH1 0x20 DUP2 PUSH1 0x44 DUP2 DUP11 GAS STATICCALL SWAP1 DUP2 ISZERO PUSH2 0x2B61 JUMPI DUP10 SWAP2 PUSH2 0x2B2F JUMPI JUMPDEST POP PUSH2 0x2B1F JUMPI JUMPDEST POP PUSH1 0xC SLOAD PUSH2 0x29EA SWAP1 DUP8 SWAP1 PUSH1 0x1 PUSH1 0x1 PUSH1 0xA0 SHL SUB AND DUP8 PUSH2 0x483A JUMP JUMPDEST PUSH1 0xC SLOAD DUP8 SWAP5 SWAP1 PUSH1 0x60 SWAP1 PUSH1 0x1 PUSH1 0x1 PUSH1 0xA0 SHL SUB DUP2 AND SWAP1 DUP8 SWAP1 DUP3 EXTCODESIZE ISZERO PUSH2 0x4DA JUMPI DUP11 DUP9 SWAP4 PUSH1 0x1 PUSH1 0x1 PUSH1 0x40 SHL SUB DUP5 DUP1 SWAP5 PUSH2 0x2A3D DUP16 SWAP11 DUP14 PUSH1 0x40 MLOAD SWAP11 DUP12 SWAP9 DUP10 SWAP8 DUP9 SWAP7 PUSH4 0xF84DD79 PUSH1 0xE2 SHL DUP9 MSTORE PUSH1 0xA0 SHR AND SWAP4 PUSH1 0x4 DUP8 ADD PUSH2 0x4216 JUMP JUMPDEST SUB SWAP3 GAS CALL SWAP2 DUP3 PUSH2 0x2AFE JUMPI JUMPDEST POP POP SWAP6 PUSH32 0x3A0B7FDDF9C96C10649E612E9A4DC705AE782721AB6A4A7347CF6E0E13B6A1D2 SWAP2 PUSH1 0x0 DUP1 MLOAD PUSH1 0x20 PUSH2 0x4C4E DUP4 CODECOPY DUP2 MLOAD SWAP2 MSTORE SWAP8 ISZERO PUSH1 0x0 EQ PUSH2 0x2AF5 JUMPI POP PUSH2 0x2A8E PUSH2 0x3FAA JUMP JUMPDEST SWAP1 JUMPDEST PUSH2 0x2AA2 PUSH1 0x40 MLOAD SWAP3 DUP4 SWAP3 DUP13 DUP10 DUP12 DUP7 PUSH2 0x4252 JUMP JUMPDEST SUB SWAP1 LOG2 PUSH1 0xC SLOAD PUSH2 0x2ABB SWAP1 PUSH1 0x1 PUSH1 0x1 PUSH1 0xA0 SHL SUB AND DUP7 PUSH2 0x4780 JUMP JUMPDEST PUSH2 0x2AD2 PUSH1 0x40 MLOAD SWAP4 DUP5 SWAP4 PUSH1 0x60 DUP6 MSTORE PUSH1 0x60 DUP6 ADD SWAP2 PUSH2 0x3F89 JUMP JUMPDEST PUSH1 0x20 DUP4 ADD SWAP7 SWAP1 SWAP7 MSTORE PUSH1 0x40 DUP3 ADD DUP8 SWAP1 MSTORE PUSH1 0x1 PUSH1 0x1 PUSH1 0xA0 SHL SUB AND SWAP5 SUB SWAP1 LOG3 PUSH1 0x1 DUP1 SSTORE DUP1 RETURN JUMPDEST SWAP1 POP PUSH1 0x1 PUSH2 0x2A90 JUMP JUMPDEST DUP2 SWAP3 SWAP4 SWAP5 POP SWAP1 PUSH2 0x2B0D SWAP2 PUSH2 0x3E81 JUMP JUMPDEST PUSH2 0x2B1B JUMPI SWAP1 DUP7 SWAP2 DUP10 CODESIZE PUSH2 0x2A48 JUMP JUMPDEST DUP9 DUP1 REVERT JUMPDEST PUSH2 0x2B29 SWAP1 DUP7 PUSH2 0x4780 JUMP JUMPDEST CODESIZE PUSH2 0x29D1 JUMP JUMPDEST SWAP1 POP PUSH1 0x20 DUP2 RETURNDATASIZE PUSH1 0x20 GT PUSH2 0x2B59 JUMPI JUMPDEST DUP2 PUSH2 0x2B4A PUSH1 0x20 SWAP4 DUP4 PUSH2 0x3E81 JUMP JUMPDEST DUP2 ADD SUB SLT PUSH2 0x321 JUMPI MLOAD CODESIZE PUSH2 0x29CB JUMP JUMPDEST RETURNDATASIZE SWAP2 POP PUSH2 0x2B3D JUMP JUMPDEST PUSH1 0x40 MLOAD RETURNDATASIZE DUP12 DUP3 RETURNDATACOPY RETURNDATASIZE SWAP1 REVERT JUMPDEST PUSH1 0x40 MLOAD PUSH3 0x461BCD PUSH1 0xE5 SHL DUP2 MSTORE PUSH1 0x20 PUSH1 0x4 DUP3 ADD MSTORE PUSH1 0x14 PUSH1 0x24 DUP3 ADD MSTORE PUSH20 0x696E73756666696369656E742062616C616E6365 PUSH1 0x60 SHL PUSH1 0x44 DUP3 ADD MSTORE PUSH1 0x64 SWAP1 REVERT JUMPDEST SWAP6 PUSH2 0x2975 JUMP JUMPDEST SWAP1 SWAP7 POP PUSH1 0x20 DUP2 RETURNDATASIZE PUSH1 0x20 GT PUSH2 0x2BDA JUMPI JUMPDEST DUP2 PUSH2 0x2BCA PUSH1 0x20 SWAP4 DUP4 PUSH2 0x3E81 JUMP JUMPDEST DUP2 ADD SUB SLT PUSH2 0x321 JUMPI MLOAD SWAP6 CODESIZE PUSH2 0x296C JUMP JUMPDEST RETURNDATASIZE SWAP2 POP PUSH2 0x2BBD JUMP JUMPDEST PUSH1 0x40 MLOAD RETURNDATASIZE DUP11 DUP3 RETURNDATACOPY RETURNDATASIZE SWAP1 REVERT JUMPDEST DUP5 DUP1 REVERT JUMPDEST POP CALLVALUE PUSH2 0x29A JUMPI PUSH1 0x20 CALLDATASIZE PUSH1 0x3 NOT ADD SLT PUSH2 0x29A JUMPI PUSH2 0x2C0B PUSH2 0x3D98 JUMP JUMPDEST PUSH2 0x2C13 PUSH2 0x4718 JUMP JUMPDEST PUSH2 0x2C25 PUSH1 0xFF PUSH1 0xD SLOAD PUSH1 0xA0 SHR AND ISZERO PUSH2 0x4027 JUMP JUMPDEST PUSH1 0xC DUP1 SLOAD PUSH1 0x1 PUSH1 0x1 PUSH1 0xA0 SHL SUB NOT AND PUSH1 0x1 PUSH1 0x1 PUSH1 0xA0 SHL SUB SWAP3 SWAP1 SWAP3 AND SWAP2 DUP3 OR SWAP1 SSTORE PUSH32 0x37A5AD90DEE0A8EB332155C0562FE000A288BF5E452BC8EC70DE3D57D9396A17 DUP3 DUP1 LOG2 DUP1 RETURN JUMPDEST POP CALLVALUE PUSH2 0x29A JUMPI PUSH1 0x20 CALLDATASIZE PUSH1 0x3 NOT ADD SLT PUSH2 0x29A JUMPI PUSH2 0x2C92 PUSH1 0x1 DUP1 PUSH1 0xA0 SHL SUB PUSH1 0xF SLOAD AND CALLER EQ PUSH2 0x4076 JUMP JUMPDEST PUSH2 0x2C9A PUSH2 0x4741 JUMP JUMPDEST PUSH2 0x2CA2 PUSH2 0x475E JUMP JUMPDEST PUSH1 0x40 PUSH2 0x2CAF PUSH1 0x4 CALLDATALOAD PUSH2 0x4873 JUMP JUMPDEST PUSH1 0x1 DUP1 SSTORE DUP3 MLOAD SWAP2 DUP3 MSTORE PUSH1 0x20 DUP3 ADD MSTORE RETURN JUMPDEST POP CALLVALUE PUSH2 0x29A JUMPI PUSH1 0x20 CALLDATASIZE PUSH1 0x3 NOT ADD SLT PUSH2 0x29A JUMPI PUSH1 0x40 PUSH2 0x160 SWAP2 PUSH1 0x4 CALLDATALOAD DUP2 MSTORE PUSH1 0x7 PUSH1 0x20 MSTORE KECCAK256 DUP1 SLOAD SWAP1 PUSH1 0x1 DUP1 PUSH1 0xA0 SHL SUB PUSH1 0x1 DUP3 ADD SLOAD AND SWAP1 PUSH2 0xFFFF PUSH1 0x1 DUP1 PUSH1 0xA0 SHL SUB PUSH1 0x2 DUP4 ADD SLOAD AND PUSH1 0x3 DUP4 ADD SLOAD PUSH1 0x1 DUP1 PUSH1 0xA0 SHL SUB PUSH1 0x4 DUP6 ADD SLOAD AND PUSH1 0x1 DUP1 PUSH1 0xA0 SHL SUB PUSH1 0x5 DUP7 ADD SLOAD AND SWAP2 PUSH1 0x7 DUP7 ADD SLOAD SWAP4 PUSH1 0xFF PUSH1 0x9 PUSH1 0x8 DUP10 ADD SLOAD SWAP9 ADD SLOAD AND SWAP8 PUSH1 0x40 MLOAD SWAP10 DUP11 MSTORE PUSH1 0x20 DUP11 ADD MSTORE PUSH1 0x40 DUP10 ADD MSTORE PUSH1 0x60 DUP9 ADD MSTORE PUSH1 0x80 DUP8 ADD MSTORE PUSH1 0xA0 DUP7 ADD MSTORE DUP1 PUSH1 0x2 SIGNEXTEND PUSH1 0xC0 DUP7 ADD MSTORE DUP1 PUSH1 0x18 SHR PUSH1 0x2 SIGNEXTEND PUSH1 0xE0 DUP7 ADD MSTORE PUSH1 0x30 SHR AND PUSH2 0x100 DUP5 ADD MSTORE PUSH2 0x120 DUP4 ADD MSTORE ISZERO ISZERO PUSH2 0x140 DUP3 ADD MSTORE RETURN JUMPDEST POP CALLVALUE PUSH2 0x29A JUMPI PUSH1 0x20 CALLDATASIZE PUSH1 0x3 NOT ADD SLT PUSH2 0x29A JUMPI PUSH1 0x4 CALLDATALOAD DUP2 MSTORE PUSH1 0x4 PUSH1 0x20 MSTORE PUSH1 0x40 DUP2 KECCAK256 PUSH2 0x2DB5 PUSH1 0xFF PUSH1 0x9 DUP4 ADD SLOAD AND PUSH2 0x4304 JUMP JUMPDEST PUSH1 0x1 DUP2 ADD SLOAD PUSH1 0x40 MLOAD PUSH4 0x39DB0079 PUSH1 0xE2 SHL DUP2 MSTORE SWAP1 PUSH1 0xC0 SWAP1 DUP3 SWAP1 PUSH1 0x4 SWAP1 DUP3 SWAP1 PUSH1 0x1 PUSH1 0x1 PUSH1 0xA0 SHL SUB AND GAS STATICCALL SWAP1 DUP2 ISZERO PUSH2 0x108C JUMPI SWAP1 PUSH1 0x3 SWAP2 PUSH1 0x40 SWAP5 SWAP2 PUSH2 0x2E29 JUMPI JUMPDEST POP PUSH1 0x2 SIGNEXTEND SWAP2 ADD SLOAD SWAP1 DUP2 PUSH1 0xA0 SHR PUSH1 0x2 SIGNEXTEND DUP2 SLT SWAP2 DUP3 ISZERO PUSH2 0x2E19 JUMPI JUMPDEST POP DUP3 MLOAD SWAP2 ISZERO ISZERO DUP3 MSTORE PUSH1 0x20 DUP3 ADD MSTORE RETURN JUMPDEST PUSH1 0xB8 SHR PUSH1 0x2 SIGNEXTEND DUP2 SGT SWAP2 POP CODESIZE PUSH2 0x2E0A JUMP JUMPDEST PUSH2 0x2E4B SWAP2 POP PUSH1 0xC0 RETURNDATASIZE PUSH1 0xC0 GT PUSH2 0x2E57 JUMPI JUMPDEST PUSH2 0x2E43 DUP2 DUP4 PUSH2 0x3E81 JUMP JUMPDEST DUP2 ADD SWAP1 PUSH2 0x4346 JUMP JUMPDEST POP POP POP POP SWAP1 POP CODESIZE PUSH2 0x2DF1 JUMP JUMPDEST POP RETURNDATASIZE PUSH2 0x2E39 JUMP JUMPDEST POP CALLVALUE PUSH2 0x29A JUMPI DUP1 PUSH1 0x3 NOT CALLDATASIZE ADD SLT PUSH2 0x29A JUMPI PUSH2 0x2E77 PUSH2 0x4718 JUMP JUMPDEST PUSH1 0x2 SLOAD PUSH1 0xFF DUP2 AND ISZERO PUSH2 0x2EB7 JUMPI PUSH1 0xFF NOT AND PUSH1 0x2 SSTORE PUSH32 0x5DB9EE0A495BF2E6FF9C91A7834C1BA4FDD244A5E8AA4E537BD38AEAE4B073AA PUSH1 0x20 PUSH1 0x40 MLOAD CALLER DUP2 MSTORE LOG1 DUP1 RETURN JUMPDEST PUSH4 0x8DFC202B PUSH1 0xE0 SHL DUP3 MSTORE PUSH1 0x4 DUP3 REVERT JUMPDEST POP CALLVALUE PUSH2 0x29A JUMPI PUSH1 0xA0 CALLDATASIZE PUSH1 0x3 NOT ADD SLT PUSH2 0x29A JUMPI PUSH2 0x2EE0 PUSH2 0x3DAE JUMP JUMPDEST PUSH2 0x2EE8 PUSH2 0x3DC4 JUMP JUMPDEST PUSH1 0x84 CALLDATALOAD PUSH1 0x1 PUSH1 0x1 PUSH1 0x40 SHL SUB DUP2 GT PUSH2 0x1F88 JUMPI PUSH2 0x2F07 SWAP1 CALLDATASIZE SWAP1 PUSH1 0x4 ADD PUSH2 0x3EBD JUMP JUMPDEST PUSH2 0x2F0F PUSH2 0x4741 JUMP JUMPDEST PUSH2 0x2F17 PUSH2 0x475E JUMP JUMPDEST PUSH1 0xFF PUSH1 0xF SLOAD PUSH1 0xA0 SHR AND DUP1 ISZERO PUSH2 0x3492 JUMPI JUMPDEST DUP1 ISZERO PUSH2 0x346B JUMPI JUMPDEST ISZERO PUSH2 0x3435 JUMPI PUSH1 0x1 PUSH1 0x1 PUSH1 0xA0 SHL SUB DUP4 AND DUP5 MSTORE PUSH1 0x3 PUSH1 0x20 MSTORE PUSH1 0x40 DUP5 KECCAK256 SLOAD PUSH2 0x2F55 SWAP1 PUSH1 0xFF AND PUSH2 0x4289 JUMP JUMPDEST PUSH1 0x64 CALLDATALOAD ISZERO PUSH2 0x33F0 JUMPI PUSH1 0x1 PUSH1 0x1 PUSH1 0xA0 SHL SUB DUP3 AND ISZERO PUSH2 0x33B4 JUMPI PUSH1 0x4 CALLDATALOAD DUP5 MSTORE PUSH1 0x7 PUSH1 0x20 MSTORE PUSH1 0xFF PUSH1 0x9 PUSH1 0x40 DUP7 KECCAK256 ADD SLOAD AND PUSH2 0x336F JUMPI DUP1 MLOAD DUP2 ADD SWAP2 PUSH1 0xE0 DUP3 PUSH1 0x20 DUP6 ADD SWAP5 SUB SLT PUSH2 0x2BED JUMPI PUSH2 0x2FA4 PUSH1 0x20 DUP4 ADD PUSH2 0x42CB JUMP JUMPDEST SWAP2 PUSH2 0x2FB1 PUSH1 0x40 DUP3 ADD PUSH2 0x42CB JUMP JUMPDEST PUSH1 0x60 DUP3 ADD MLOAD PUSH1 0x1 PUSH1 0x1 PUSH1 0x40 SHL SUB DUP2 GT PUSH2 0x336B JUMPI DUP3 ADD SWAP5 DUP1 PUSH1 0x3F DUP8 ADD SLT ISZERO PUSH2 0x336B JUMPI PUSH1 0x20 DUP7 ADD MLOAD PUSH2 0x2FE0 DUP2 PUSH2 0x42DF JUMP JUMPDEST SWAP7 PUSH2 0x2FEE PUSH1 0x40 MLOAD SWAP9 DUP10 PUSH2 0x3E81 JUMP JUMPDEST DUP2 DUP9 MSTORE PUSH1 0x20 DUP1 DUP1 DUP11 ADD SWAP4 PUSH1 0x5 SHL DUP4 ADD ADD ADD SWAP3 DUP4 GT PUSH2 0xF45 JUMPI PUSH1 0x40 ADD SWAP1 JUMPDEST DUP3 DUP3 LT PUSH2 0x335B JUMPI POP POP POP PUSH2 0x3021 PUSH1 0x80 DUP4 ADD PUSH2 0x42F6 JUMP JUMPDEST SWAP1 PUSH2 0x302E PUSH1 0xA0 DUP5 ADD PUSH2 0x42F6 JUMP JUMPDEST SWAP6 PUSH2 0x303B PUSH1 0xC0 DUP6 ADD PUSH2 0x42CB JUMP JUMPDEST SWAP7 PUSH2 0x3048 PUSH1 0xE0 DUP7 ADD PUSH2 0x4067 JUMP JUMPDEST SWAP2 PUSH1 0x40 MLOAD SWAP4 PUSH2 0x180 DUP6 ADD DUP6 DUP2 LT PUSH1 0x1 PUSH1 0x1 PUSH1 0x40 SHL SUB DUP3 GT OR PUSH2 0x3347 JUMPI SWAP1 DUP13 SWAP5 SWAP4 SWAP3 SWAP2 PUSH1 0x40 MSTORE PUSH1 0x4 CALLDATALOAD DUP7 MSTORE PUSH1 0x20 DUP7 ADD SWAP7 PUSH1 0x1 DUP1 PUSH1 0xA0 SHL SUB DUP14 AND DUP9 MSTORE PUSH1 0x40 DUP8 ADD PUSH1 0x1 DUP1 PUSH1 0xA0 SHL SUB DUP14 AND DUP2 MSTORE PUSH1 0x60 DUP9 ADD SWAP1 PUSH1 0x64 CALLDATALOAD DUP3 MSTORE PUSH1 0x80 DUP10 ADD SWAP3 DUP14 PUSH1 0x1 DUP1 PUSH1 0xA0 SHL SUB AND DUP5 MSTORE PUSH1 0xA0 DUP11 ADD SWAP5 PUSH1 0x1 DUP1 PUSH1 0xA0 SHL SUB AND DUP6 MSTORE PUSH1 0xC0 DUP11 ADD SWAP6 DUP7 MSTORE PUSH1 0x2 SIGNEXTEND PUSH1 0xE0 DUP11 ADD MSTORE PUSH2 0x100 DUP10 ADD SWAP6 PUSH1 0x2 SIGNEXTEND DUP7 MSTORE PUSH2 0xFFFF PUSH2 0x120 DUP11 ADD SWAP8 AND DUP8 MSTORE PUSH1 0x40 PUSH2 0x140 DUP11 ADD SWAP9 TIMESTAMP DUP11 MSTORE PUSH1 0x1 PUSH2 0x160 DUP13 ADD MSTORE PUSH1 0x4 CALLDATALOAD DUP2 MSTORE PUSH1 0x7 PUSH1 0x20 MSTORE KECCAK256 SWAP10 DUP10 MLOAD DUP12 SSTORE PUSH1 0x1 DUP1 PUSH1 0xA0 SHL SUB SWAP1 MLOAD AND PUSH1 0x1 DUP12 ADD SWAP1 PUSH1 0x1 DUP1 PUSH1 0xA0 SHL SUB AND PUSH1 0x1 PUSH1 0x1 PUSH1 0x60 SHL SUB PUSH1 0xA0 SHL DUP3 SLOAD AND OR SWAP1 SSTORE PUSH1 0x1 DUP1 PUSH1 0xA0 SHL SUB SWAP1 MLOAD AND PUSH1 0x2 DUP11 ADD SWAP1 PUSH1 0x1 DUP1 PUSH1 0xA0 SHL SUB AND PUSH1 0x1 PUSH1 0x1 PUSH1 0x60 SHL SUB PUSH1 0xA0 SHL DUP3 SLOAD AND OR SWAP1 SSTORE MLOAD PUSH1 0x3 DUP10 ADD SSTORE PUSH1 0x1 DUP1 PUSH1 0xA0 SHL SUB SWAP1 MLOAD AND PUSH1 0x4 DUP9 ADD SWAP1 PUSH1 0x1 DUP1 PUSH1 0xA0 SHL SUB AND PUSH1 0x1 PUSH1 0x1 PUSH1 0x60 SHL SUB PUSH1 0xA0 SHL DUP3 SLOAD AND OR SWAP1 SSTORE PUSH1 0x1 DUP1 PUSH1 0xA0 SHL SUB SWAP1 MLOAD AND PUSH1 0x5 DUP8 ADD SWAP1 PUSH1 0x1 DUP1 PUSH1 0xA0 SHL SUB AND PUSH1 0x1 PUSH1 0x1 PUSH1 0x60 SHL SUB PUSH1 0xA0 SHL DUP3 SLOAD AND OR SWAP1 SSTORE MLOAD DUP1 MLOAD SWAP1 PUSH1 0x1 PUSH1 0x1 PUSH1 0x40 SHL SUB DUP3 GT PUSH2 0x3347 JUMPI PUSH1 0x1 PUSH1 0x40 SHL DUP3 GT PUSH2 0x3347 JUMPI PUSH1 0x6 DUP8 ADD SLOAD DUP3 PUSH1 0x6 DUP10 ADD SSTORE DUP14 DUP2 DUP5 LT PUSH2 0x331A JUMPI JUMPDEST POP POP PUSH1 0x20 ADD PUSH1 0x6 DUP8 ADD DUP14 MSTORE PUSH1 0x20 DUP14 KECCAK256 DUP14 JUMPDEST DUP4 DUP2 LT PUSH2 0x3306 JUMPI POP POP POP POP SWAP3 PUSH1 0x9 SWAP3 PUSH2 0x160 SWAP3 DUP7 SWAP6 PUSH1 0x7 PUSH2 0x3260 SWAP9 ADD SWAP2 PUSH1 0xE0 DUP6 ADD MLOAD SWAP2 PUSH3 0xFFFFFF PUSH8 0xFFFF000000000000 DUP6 SLOAD SWAP3 MLOAD PUSH1 0x18 SHL SWAP4 MLOAD PUSH1 0x30 SHL AND SWAP4 AND SWAP1 PUSH1 0x1 PUSH1 0x1 PUSH1 0x40 SHL SUB NOT AND OR SWAP1 PUSH6 0xFFFFFF000000 AND OR OR SWAP1 SSTORE MLOAD PUSH1 0x8 DUP6 ADD SSTORE ADD MLOAD ISZERO ISZERO SWAP2 ADD SWAP1 PUSH1 0xFF DUP1 NOT DUP4 SLOAD AND SWAP2 ISZERO ISZERO AND OR SWAP1 SSTORE JUMP JUMPDEST PUSH1 0x40 DUP1 MLOAD PUSH1 0x64 CALLDATALOAD DUP2 MSTORE PUSH1 0x20 DUP2 ADD DUP3 SWAP1 MSTORE PUSH1 0x1 PUSH1 0x1 PUSH1 0xA0 SHL SUB SWAP4 DUP5 AND SWAP4 DUP8 AND SWAP3 PUSH32 0x88D1BC9B918B502E5C73359C379D28F57BED4B4DB835E92BBCC41C5F3BCAF529 SWAP3 DUP3 SWAP2 PUSH2 0x32AF SWAP2 DUP4 ADD SWAP1 PUSH2 0x3F48 JUMP JUMPDEST SUB SWAP1 LOG3 PUSH1 0x40 DUP1 MLOAD PUSH1 0x1 PUSH1 0x1 PUSH1 0xA0 SHL SUB SWAP5 DUP6 AND DUP2 MSTORE PUSH1 0x64 CALLDATALOAD PUSH1 0x20 DUP3 ADD MSTORE SWAP2 DUP5 AND SWAP1 DUP3 ADD MSTORE SWAP2 AND SWAP1 PUSH1 0x4 CALLDATALOAD SWAP1 PUSH32 0xD20F7C6F78AE12D412D6D108BF962114C5C8937BE16E09D01B3CD00DA50ABCF6 SWAP1 PUSH1 0x60 SWAP1 LOG3 PUSH1 0x1 DUP1 SSTORE DUP1 RETURN JUMPDEST PUSH1 0x1 SWAP1 PUSH1 0x20 DUP5 MLOAD SWAP5 ADD SWAP4 DUP2 DUP5 ADD SSTORE ADD PUSH2 0x31EB JUMP JUMPDEST SWAP1 PUSH1 0x6 DUP10 ADD DUP3 MSTORE PUSH1 0x20 DUP3 KECCAK256 SWAP2 DUP5 DUP4 ADD SWAP1 JUMPDEST DUP3 DUP5 ADD DUP3 LT PUSH2 0x333C JUMPI SWAP2 POP POP PUSH2 0x31DA JUMP JUMPDEST DUP2 SSTORE PUSH1 0x1 ADD DUP16 PUSH2 0x332B JUMP JUMPDEST PUSH4 0x4E487B71 PUSH1 0xE0 SHL DUP14 MSTORE PUSH1 0x41 PUSH1 0x4 MSTORE PUSH1 0x24 DUP14 REVERT JUMPDEST DUP2 MLOAD DUP2 MSTORE PUSH1 0x20 SWAP2 DUP3 ADD SWAP2 ADD PUSH2 0x300B JUMP JUMPDEST DUP8 DUP1 REVERT JUMPDEST PUSH1 0x40 MLOAD PUSH3 0x461BCD PUSH1 0xE5 SHL DUP2 MSTORE PUSH1 0x20 PUSH1 0x4 DUP3 ADD MSTORE PUSH1 0x18 PUSH1 0x24 DUP3 ADD MSTORE PUSH32 0x506F736974696F6E20616C72656164792070656E64696E670000000000000000 PUSH1 0x44 DUP3 ADD MSTORE PUSH1 0x64 SWAP1 REVERT JUMPDEST PUSH1 0x40 MLOAD PUSH3 0x461BCD PUSH1 0xE5 SHL DUP2 MSTORE PUSH1 0x20 PUSH1 0x4 DUP3 ADD MSTORE PUSH1 0x14 PUSH1 0x24 DUP3 ADD MSTORE PUSH20 0x496E76616C696420757365722061646472657373 PUSH1 0x60 SHL PUSH1 0x44 DUP3 ADD MSTORE PUSH1 0x64 SWAP1 REVERT JUMPDEST PUSH1 0x40 MLOAD PUSH3 0x461BCD PUSH1 0xE5 SHL DUP2 MSTORE PUSH1 0x20 PUSH1 0x4 DUP3 ADD MSTORE PUSH1 0x1D PUSH1 0x24 DUP3 ADD MSTORE PUSH32 0x416D6F756E74206D7573742062652067726561746572207468616E2030000000 PUSH1 0x44 DUP3 ADD MSTORE PUSH1 0x64 SWAP1 REVERT JUMPDEST PUSH1 0x40 MLOAD PUSH3 0x461BCD PUSH1 0xE5 SHL DUP2 MSTORE PUSH1 0x20 PUSH1 0x4 DUP3 ADD MSTORE PUSH1 0xE PUSH1 0x24 DUP3 ADD MSTORE PUSH14 0x1B9BDD08185D5D1A1BDC9A5E9959 PUSH1 0x92 SHL PUSH1 0x44 DUP3 ADD MSTORE PUSH1 0x64 SWAP1 REVERT JUMPDEST POP PUSH1 0xD SLOAD PUSH1 0x1 PUSH1 0x1 PUSH1 0xA0 SHL SUB AND DUP1 ISZERO ISZERO SWAP1 DUP2 PUSH2 0x3488 JUMPI JUMPDEST POP PUSH2 0x2F2E JUMP JUMPDEST SWAP1 POP CALLER EQ CODESIZE PUSH2 0x3482 JUMP JUMPDEST POP DUP4 SLOAD PUSH1 0x1 PUSH1 0x1 PUSH1 0xA0 SHL SUB AND CALLER EQ PUSH2 0x2F27 JUMP JUMPDEST POP CALLVALUE PUSH2 0x29A JUMPI PUSH1 0x40 CALLDATASIZE PUSH1 0x3 NOT ADD SLT PUSH2 0x29A JUMPI PUSH1 0x4 CALLDATALOAD PUSH1 0x24 CALLDATALOAD PUSH1 0x1 PUSH1 0x1 PUSH1 0x40 SHL SUB DUP2 GT PUSH2 0x4D6 JUMPI PUSH2 0x34D9 SWAP1 CALLDATASIZE SWAP1 PUSH1 0x4 ADD PUSH2 0x3DEB JUMP JUMPDEST PUSH2 0x34F1 PUSH1 0x1 DUP1 PUSH1 0xA0 SWAP6 SWAP5 SWAP6 SHL SUB PUSH1 0xF SLOAD AND CALLER EQ PUSH2 0x4076 JUMP JUMPDEST PUSH2 0x34F9 PUSH2 0x4741 JUMP JUMPDEST PUSH2 0x3501 PUSH2 0x475E JUMP JUMPDEST DUP2 DUP5 MSTORE PUSH1 0x7 PUSH1 0x20 MSTORE PUSH1 0x40 DUP5 KECCAK256 SWAP3 PUSH2 0x351E PUSH1 0xFF PUSH1 0x9 DUP7 ADD SLOAD AND PUSH2 0x40B1 JUMP JUMPDEST PUSH1 0x1 DUP1 PUSH1 0xA0 SHL SUB PUSH1 0x1 DUP6 ADD SLOAD AND SWAP1 PUSH1 0x3 PUSH1 0x1 DUP1 PUSH1 0xA0 SHL SUB PUSH1 0x2 DUP8 ADD SLOAD AND SWAP6 ADD SLOAD SWAP3 DUP5 DUP8 MSTORE PUSH1 0x7 PUSH1 0x20 MSTORE PUSH2 0x3553 PUSH1 0x40 DUP9 KECCAK256 PUSH2 0x4126 JUMP JUMPDEST PUSH1 0xFF PUSH1 0xF SLOAD PUSH1 0xA0 SHR AND ISZERO PUSH2 0x3597 JUMPI JUMPDEST POP POP POP PUSH1 0x20 PUSH32 0x732BC6C415E7A220EFEE5F866E1E91A1335745B97373898FFECFDDBC708A3E7 SWAP2 PUSH1 0x40 MLOAD SWAP1 DUP2 MSTORE LOG3 PUSH1 0x1 DUP1 SSTORE DUP1 RETURN JUMPDEST PUSH1 0xC SLOAD SWAP3 SWAP6 SWAP2 SWAP5 SWAP1 SWAP4 SWAP3 PUSH1 0x1 PUSH1 0x1 PUSH1 0xA0 SHL SUB AND PUSH2 0x35B5 DUP2 ISZERO ISZERO PUSH2 0x4196 JUMP JUMPDEST PUSH2 0x35C0 DUP6 ISZERO ISZERO PUSH2 0x41D4 JUMP JUMPDEST PUSH1 0x40 MLOAD PUSH4 0x6EB1769F PUSH1 0xE1 SHL DUP2 MSTORE ADDRESS PUSH1 0x4 DUP3 ADD MSTORE PUSH1 0x1 PUSH1 0x1 PUSH1 0xA0 SHL SUB DUP3 AND PUSH1 0x24 DUP3 ADD MSTORE PUSH1 0x20 DUP2 PUSH1 0x44 DUP2 DUP12 GAS STATICCALL SWAP1 DUP2 ISZERO PUSH2 0x2B61 JUMPI DUP10 SWAP2 PUSH2 0x37B0 JUMPI JUMPDEST POP PUSH2 0x37A0 JUMPI JUMPDEST POP PUSH1 0xC SLOAD PUSH2 0x3618 SWAP1 DUP5 SWAP1 PUSH1 0x1 PUSH1 0x1 PUSH1 0xA0 SHL SUB AND DUP9 PUSH2 0x483A JUMP JUMPDEST PUSH1 0xC SLOAD DUP8 PUSH1 0x1 PUSH1 0x1 PUSH1 0xA0 SHL SUB DUP3 AND DUP1 EXTCODESIZE ISZERO PUSH2 0x4DA JUMPI DUP6 DUP3 SWAP2 PUSH1 0x1 PUSH1 0x1 PUSH1 0x40 SHL SUB DUP4 DUP12 SWAP7 PUSH2 0x3662 DUP15 DUP14 PUSH1 0x40 MLOAD SWAP11 DUP12 SWAP9 DUP10 SWAP8 DUP9 SWAP7 PUSH4 0xF84DD79 PUSH1 0xE2 SHL DUP9 MSTORE PUSH1 0xA0 SHR AND SWAP4 PUSH1 0x4 DUP8 ADD PUSH2 0x4216 JUMP JUMPDEST SUB SWAP3 GAS CALL SWAP2 DUP3 PUSH2 0x378B JUMPI JUMPDEST POP POP PUSH2 0x3712 JUMPI POP POP PUSH2 0x36D4 SWAP1 PUSH32 0x3A0B7FDDF9C96C10649E612E9A4DC705AE782721AB6A4A7347CF6E0E13B6A1D2 SWAP5 SWAP6 PUSH2 0x36A4 PUSH2 0x3FAA JUMP JUMPDEST SWAP1 PUSH2 0x36BC PUSH1 0x40 MLOAD SWAP7 DUP8 SWAP7 PUSH1 0x80 DUP9 MSTORE PUSH1 0x80 DUP9 ADD SWAP2 PUSH2 0x3F89 JUMP JUMPDEST SWAP3 PUSH1 0x20 DUP7 ADD MSTORE PUSH1 0x40 DUP6 ADD MSTORE DUP4 DUP3 SUB PUSH1 0x60 DUP6 ADD MSTORE PUSH2 0x3F48 JUMP JUMPDEST SUB SWAP1 LOG2 PUSH1 0x40 MLOAD PUSH3 0x461BCD PUSH1 0xE5 SHL DUP2 MSTORE PUSH1 0x20 PUSH1 0x4 DUP3 ADD MSTORE PUSH1 0x13 PUSH1 0x24 DUP3 ADD MSTORE PUSH19 0x1610D3481D1C985B9CD9995C8819985A5B1959 PUSH1 0x6A SHL PUSH1 0x44 DUP3 ADD MSTORE PUSH1 0x64 SWAP1 REVERT JUMPDEST SWAP4 SWAP1 DUP1 SWAP6 PUSH1 0x0 DUP1 MLOAD PUSH1 0x20 PUSH2 0x4C4E DUP4 CODECOPY DUP2 MLOAD SWAP2 MSTORE PUSH1 0x20 SWAP5 SWAP4 PUSH32 0x732BC6C415E7A220EFEE5F866E1E91A1335745B97373898FFECFDDBC708A3E7 SWAP7 PUSH2 0x375F PUSH1 0x1 DUP1 PUSH1 0xA0 SHL SUB PUSH1 0xC SLOAD AND DUP6 PUSH2 0x4780 JUMP JUMPDEST PUSH2 0x3776 PUSH1 0x40 MLOAD SWAP3 DUP4 SWAP3 PUSH1 0x60 DUP5 MSTORE PUSH1 0x60 DUP5 ADD SWAP2 PUSH2 0x3F89 JUMP JUMPDEST DUP7 DUP9 DUP4 ADD MSTORE DUP12 PUSH1 0x40 DUP4 ADD MSTORE SUB SWAP1 LOG3 SWAP2 CODESIZE PUSH2 0x3562 JUMP JUMPDEST DUP2 PUSH2 0x3795 SWAP2 PUSH2 0x3E81 JUMP JUMPDEST PUSH2 0x336B JUMPI DUP8 CODESIZE PUSH2 0x366D JUMP JUMPDEST PUSH2 0x37AA SWAP1 DUP8 PUSH2 0x4780 JUMP JUMPDEST CODESIZE PUSH2 0x35FF JUMP JUMPDEST SWAP1 POP PUSH1 0x20 DUP2 RETURNDATASIZE PUSH1 0x20 GT PUSH2 0x37DA JUMPI JUMPDEST DUP2 PUSH2 0x37CB PUSH1 0x20 SWAP4 DUP4 PUSH2 0x3E81 JUMP JUMPDEST DUP2 ADD SUB SLT PUSH2 0x321 JUMPI MLOAD CODESIZE PUSH2 0x35F9 JUMP JUMPDEST RETURNDATASIZE SWAP2 POP PUSH2 0x37BE JUMP JUMPDEST POP CALLVALUE PUSH2 0x29A JUMPI DUP1 PUSH1 0x3 NOT CALLDATASIZE ADD SLT PUSH2 0x29A JUMPI PUSH1 0xC SLOAD PUSH1 0x40 MLOAD PUSH1 0x1 PUSH1 0x1 PUSH1 0xA0 SHL SUB SWAP1 SWAP2 AND DUP2 MSTORE PUSH1 0x20 SWAP1 RETURN JUMPDEST POP CALLVALUE PUSH2 0x29A JUMPI PUSH1 0x80 CALLDATASIZE PUSH1 0x3 NOT ADD SLT PUSH2 0x29A JUMPI PUSH2 0x3825 PUSH2 0x3D98 JUMP JUMPDEST PUSH2 0x382D PUSH2 0x3DAE JUMP JUMPDEST PUSH1 0x64 CALLDATALOAD PUSH1 0x1 PUSH1 0x1 PUSH1 0xA0 SHL SUB DUP2 AND SWAP3 SWAP2 SWAP1 DUP4 SWAP1 SUB PUSH2 0x1F88 JUMPI PUSH1 0x9 SLOAD PUSH1 0x1 PUSH1 0x1 PUSH1 0xA0 SHL SUB AND DUP1 ISZERO PUSH2 0x38FB JUMPI PUSH1 0x40 DUP1 MLOAD PUSH4 0x57028211 PUSH1 0xE0 SHL DUP2 MSTORE PUSH1 0x1 PUSH1 0x1 PUSH1 0xA0 SHL SUB SWAP5 DUP6 AND PUSH1 0x4 DUP3 ADD MSTORE SWAP3 SWAP1 SWAP4 AND PUSH1 0x24 DUP4 ADD MSTORE PUSH1 0x44 DUP1 DUP4 ADD DUP7 SWAP1 MSTORE CALLDATALOAD PUSH1 0x64 DUP4 ADD MSTORE PUSH1 0x84 DUP3 ADD SWAP4 SWAP1 SWAP4 MSTORE SWAP2 DUP3 SWAP1 PUSH1 0xA4 SWAP1 DUP3 SWAP1 DUP7 SWAP1 GAS CALL SWAP1 DUP2 ISZERO PUSH2 0x1234 JUMPI DUP3 SWAP2 PUSH2 0x38B8 JUMPI JUMPDEST PUSH1 0x20 DUP3 PUSH1 0x40 MLOAD SWAP1 DUP2 MSTORE RETURN JUMPDEST SWAP1 POP PUSH1 0x40 DUP2 RETURNDATASIZE PUSH1 0x40 GT PUSH2 0x38F3 JUMPI JUMPDEST DUP2 PUSH2 0x38D3 PUSH1 0x40 SWAP4 DUP4 PUSH2 0x3E81 JUMP JUMPDEST DUP2 ADD SUB SLT PUSH2 0x4DA JUMPI PUSH1 0x20 SWAP2 POP PUSH2 0x38EC DUP3 DUP3 MLOAD SWAP3 ADD PUSH2 0x4067 JUMP JUMPDEST POP CODESIZE PUSH2 0x38AD JUMP JUMPDEST RETURNDATASIZE SWAP2 POP PUSH2 0x38C6 JUMP JUMPDEST PUSH1 0x40 MLOAD PUSH3 0x461BCD PUSH1 0xE5 SHL DUP2 MSTORE PUSH1 0x20 PUSH1 0x4 DUP3 ADD MSTORE PUSH1 0xE PUSH1 0x24 DUP3 ADD MSTORE PUSH14 0x1C5D5BDD195C881B9BDD081CD95D PUSH1 0x92 SHL PUSH1 0x44 DUP3 ADD MSTORE PUSH1 0x64 SWAP1 REVERT JUMPDEST POP CALLVALUE PUSH2 0x29A JUMPI PUSH1 0x20 CALLDATASIZE PUSH1 0x3 NOT ADD SLT PUSH2 0x29A JUMPI PUSH2 0x394B PUSH2 0x3D98 JUMP JUMPDEST PUSH2 0x3953 PUSH2 0x4718 JUMP JUMPDEST PUSH1 0xD SLOAD SWAP1 PUSH2 0x3967 PUSH1 0xFF DUP4 PUSH1 0xA0 SHR AND ISZERO PUSH2 0x4027 JUMP JUMPDEST PUSH1 0x1 PUSH1 0x1 PUSH1 0xA0 SHL SUB AND PUSH1 0x1 PUSH1 0x1 PUSH1 0xA0 SHL SUB NOT SWAP2 SWAP1 SWAP2 AND DUP2 OR PUSH1 0xD SSTORE PUSH32 0xF58FF3D0DA83A3532175D227F5BE91D3C0CFD1A3A9A78309B6D32365F71765DB DUP3 DUP1 LOG2 DUP1 RETURN JUMPDEST POP CALLVALUE PUSH2 0x29A JUMPI PUSH1 0x20 CALLDATASIZE PUSH1 0x3 NOT ADD SLT PUSH2 0x29A JUMPI PUSH1 0x1 PUSH1 0x1 PUSH1 0xA0 SHL SUB PUSH2 0x39CB PUSH2 0x3D98 JUMP JUMPDEST AND DUP2 MSTORE PUSH1 0x5 PUSH1 0x20 MSTORE PUSH2 0x39DF PUSH1 0x40 DUP3 KECCAK256 PUSH2 0x3FDA JUMP JUMPDEST SWAP1 PUSH1 0x40 MLOAD SWAP2 DUP3 SWAP2 PUSH1 0x20 DUP4 ADD PUSH1 0x20 DUP5 MSTORE DUP3 MLOAD DUP1 SWAP2 MSTORE PUSH1 0x20 PUSH1 0x40 DUP6 ADD SWAP4 ADD SWAP2 JUMPDEST DUP2 DUP2 LT PUSH2 0x3A0B JUMPI POP POP POP SUB SWAP1 RETURN JUMPDEST DUP3 MLOAD DUP5 MSTORE DUP6 SWAP5 POP PUSH1 0x20 SWAP4 DUP5 ADD SWAP4 SWAP1 SWAP3 ADD SWAP2 PUSH1 0x1 ADD PUSH2 0x39FD JUMP JUMPDEST POP CALLVALUE PUSH2 0x29A JUMPI PUSH1 0x20 CALLDATASIZE PUSH1 0x3 NOT ADD SLT PUSH2 0x29A JUMPI PUSH1 0x4 CALLDATALOAD DUP1 ISZERO ISZERO DUP1 SWAP2 SUB PUSH2 0x4DA JUMPI PUSH2 0x3A4B PUSH2 0x4718 JUMP JUMPDEST PUSH1 0xF DUP1 SLOAD PUSH1 0xFF PUSH1 0xA0 SHL NOT AND PUSH1 0xA0 SWAP3 SWAP1 SWAP3 SHL PUSH1 0xFF PUSH1 0xA0 SHL AND SWAP2 SWAP1 SWAP2 OR SWAP1 SSTORE DUP1 RETURN JUMPDEST POP CALLVALUE PUSH2 0x29A JUMPI PUSH1 0x80 CALLDATASIZE PUSH1 0x3 NOT ADD SLT PUSH2 0x29A JUMPI PUSH2 0x3A85 PUSH2 0x3D98 JUMP JUMPDEST POP PUSH2 0x3A8E PUSH2 0x3DAE JUMP JUMPDEST POP PUSH1 0x64 CALLDATALOAD PUSH1 0x1 PUSH1 0x1 PUSH1 0x40 SHL SUB DUP2 GT PUSH2 0x4DA JUMPI PUSH2 0x3AAE SWAP1 CALLDATASIZE SWAP1 PUSH1 0x4 ADD PUSH2 0x3EBD JUMP JUMPDEST POP PUSH1 0x40 MLOAD PUSH4 0xA85BD01 PUSH1 0xE1 SHL DUP2 MSTORE PUSH1 0x20 SWAP1 RETURN JUMPDEST POP CALLVALUE PUSH2 0x29A JUMPI PUSH1 0xA0 CALLDATASIZE PUSH1 0x3 NOT ADD SLT PUSH2 0x29A JUMPI PUSH2 0x3ADB PUSH2 0x3DDA JUMP JUMPDEST SWAP1 PUSH1 0x24 CALLDATALOAD PUSH1 0x1 PUSH1 0x1 PUSH1 0x40 SHL SUB DUP2 AND DUP1 SWAP2 SUB PUSH2 0x4DA JUMPI PUSH1 0x44 CALLDATALOAD PUSH1 0x1 PUSH1 0x1 PUSH1 0x40 SHL SUB DUP2 GT PUSH2 0x4D6 JUMPI PUSH2 0x3B0F SWAP1 CALLDATASIZE SWAP1 PUSH1 0x4 ADD PUSH2 0x3DEB JUMP JUMPDEST SWAP2 SWAP1 SWAP4 PUSH1 0x64 CALLDATALOAD SWAP1 PUSH1 0x84 CALLDATALOAD PUSH1 0x1 PUSH1 0x1 PUSH1 0x40 SHL SUB DUP2 AND DUP1 SWAP2 SUB PUSH2 0x3D0C JUMPI PUSH2 0x3B32 PUSH2 0x4718 JUMP JUMPDEST PUSH2 0x3B3A PUSH2 0x4741 JUMP JUMPDEST PUSH2 0x3B42 PUSH2 0x475E JUMP JUMPDEST PUSH1 0xC SLOAD PUSH1 0xE0 SHR DUP1 ISZERO PUSH2 0x3CD6 JUMPI PUSH1 0xE SLOAD PUSH1 0x1 PUSH1 0x1 PUSH1 0xA0 SHL SUB AND DUP1 ISZERO PUSH2 0x3C91 JUMPI DUP8 SWAP4 PUSH1 0x60 SWAP3 DUP3 EXTCODESIZE ISZERO PUSH2 0xF45 JUMPI SWAP2 PUSH2 0xFFFF SWAP2 DUP11 DUP1 SWAP5 PUSH2 0x3BAF PUSH1 0x40 MLOAD SWAP15 DUP16 SWAP7 DUP8 SWAP6 DUP7 SWAP5 PUSH4 0x50CBF3FB PUSH1 0xE1 SHL DUP7 MSTORE PUSH1 0x4 DUP7 ADD MSTORE AND SWAP14 DUP15 PUSH1 0x24 DUP6 ADD MSTORE DUP14 PUSH1 0x44 DUP6 ADD MSTORE PUSH1 0xC0 PUSH1 0x64 DUP6 ADD MSTORE PUSH1 0xC4 DUP5 ADD SWAP2 PUSH2 0x3F89 JUMP JUMPDEST DUP11 PUSH1 0x84 DUP4 ADD MSTORE DUP9 PUSH1 0xA4 DUP4 ADD MSTORE SUB SWAP3 GAS CALL SWAP8 DUP9 PUSH2 0x3C53 JUMPI JUMPDEST POP SWAP1 PUSH2 0x3C3F SWAP4 SWAP3 SWAP2 PUSH32 0xA2132AF2722FC0B72DD7E1B20DF2E6A2CA16DC0E2A95FB807DB5C906CA9107DA SWAP8 SWAP9 ISZERO PUSH1 0x0 EQ PUSH2 0x3C49 JUMPI POP PUSH2 0x3C02 PUSH2 0x3FAA JUMP JUMPDEST SWAP3 JUMPDEST PUSH1 0xC SLOAD PUSH1 0xE0 SHR SWAP6 PUSH1 0x40 MLOAD SWAP8 DUP9 SWAP8 DUP9 MSTORE PUSH1 0x20 DUP9 ADD MSTORE PUSH1 0x40 DUP8 ADD MSTORE PUSH1 0x60 DUP7 ADD MSTORE PUSH1 0x80 DUP6 ADD MSTORE ISZERO ISZERO PUSH1 0xA0 DUP5 ADD MSTORE PUSH1 0xE0 PUSH1 0xC0 DUP5 ADD MSTORE PUSH1 0xE0 DUP4 ADD SWAP1 PUSH2 0x3F48 JUMP JUMPDEST SUB SWAP1 LOG1 PUSH1 0x1 DUP1 SSTORE DUP1 RETURN JUMPDEST SWAP3 PUSH1 0x1 SWAP3 POP PUSH2 0x3C04 JUMP JUMPDEST SWAP1 DUP8 PUSH2 0x3C86 PUSH32 0xA2132AF2722FC0B72DD7E1B20DF2E6A2CA16DC0E2A95FB807DB5C906CA9107DA SWAP10 PUSH2 0x3C3F SWAP8 SWAP7 SWAP6 SWAP5 PUSH2 0x3E81 JUMP JUMPDEST SWAP8 POP SWAP1 SWAP2 SWAP3 SWAP4 PUSH2 0x3BC6 JUMP JUMPDEST PUSH1 0x40 MLOAD PUSH3 0x461BCD PUSH1 0xE5 SHL DUP2 MSTORE PUSH1 0x20 PUSH1 0x4 DUP3 ADD MSTORE PUSH1 0x19 PUSH1 0x24 DUP3 ADD MSTORE PUSH32 0x78636D20747820707265636F6D70696C65206E6F742073657400000000000000 PUSH1 0x44 DUP3 ADD MSTORE PUSH1 0x64 SWAP1 REVERT JUMPDEST PUSH1 0x40 MLOAD PUSH3 0x461BCD PUSH1 0xE5 SHL DUP2 MSTORE PUSH1 0x20 PUSH1 0x4 DUP3 ADD MSTORE PUSH1 0xE PUSH1 0x24 DUP3 ADD MSTORE PUSH14 0x1C185C985259081B9BDD081CD95D PUSH1 0x92 SHL PUSH1 0x44 DUP3 ADD MSTORE PUSH1 0x64 SWAP1 REVERT JUMPDEST DUP6 DUP1 REVERT JUMPDEST POP CALLVALUE PUSH2 0x29A JUMPI PUSH1 0x40 CALLDATASIZE PUSH1 0x3 NOT ADD SLT PUSH2 0x29A JUMPI PUSH2 0x3D2A PUSH2 0x3D98 JUMP JUMPDEST PUSH2 0x3D32 PUSH2 0x3DAE JUMP JUMPDEST SWAP1 PUSH2 0x3D3B PUSH2 0x4718 JUMP JUMPDEST PUSH1 0x1 DUP1 PUSH1 0xA0 SHL SUB AND PUSH1 0x1 PUSH1 0x1 PUSH1 0x60 SHL SUB PUSH1 0xA0 SHL PUSH1 0x9 SLOAD AND OR PUSH1 0x9 SSTORE PUSH1 0x1 DUP1 PUSH1 0xA0 SHL SUB AND PUSH1 0x1 PUSH1 0x1 PUSH1 0x60 SHL SUB PUSH1 0xA0 SHL PUSH1 0xA SLOAD AND OR PUSH1 0xA SSTORE DUP1 RETURN JUMPDEST SWAP1 POP CALLVALUE PUSH2 0x4DA JUMPI DUP2 PUSH1 0x3 NOT CALLDATASIZE ADD SLT PUSH2 0x4DA JUMPI PUSH1 0x20 SWAP1 PUSH1 0xFF PUSH1 0xD SLOAD PUSH1 0xA0 SHR AND ISZERO ISZERO DUP2 MSTORE RETURN JUMPDEST PUSH1 0x4 CALLDATALOAD SWAP1 PUSH1 0x1 PUSH1 0x1 PUSH1 0xA0 SHL SUB DUP3 AND DUP3 SUB PUSH2 0x321 JUMPI JUMP JUMPDEST PUSH1 0x24 CALLDATALOAD SWAP1 PUSH1 0x1 PUSH1 0x1 PUSH1 0xA0 SHL SUB DUP3 AND DUP3 SUB PUSH2 0x321 JUMPI JUMP JUMPDEST PUSH1 0x44 CALLDATALOAD SWAP1 PUSH1 0x1 PUSH1 0x1 PUSH1 0xA0 SHL SUB DUP3 AND DUP3 SUB PUSH2 0x321 JUMPI JUMP JUMPDEST PUSH1 0x4 CALLDATALOAD SWAP1 PUSH2 0xFFFF DUP3 AND DUP3 SUB PUSH2 0x321 JUMPI JUMP JUMPDEST SWAP2 DUP2 PUSH1 0x1F DUP5 ADD SLT ISZERO PUSH2 0x321 JUMPI DUP3 CALLDATALOAD SWAP2 PUSH1 0x1 PUSH1 0x1 PUSH1 0x40 SHL SUB DUP4 GT PUSH2 0x321 JUMPI PUSH1 0x20 DUP4 DUP2 DUP7 ADD SWAP6 ADD ADD GT PUSH2 0x321 JUMPI JUMP JUMPDEST PUSH2 0x1C0 DUP2 ADD SWAP1 DUP2 LT PUSH1 0x1 PUSH1 0x1 PUSH1 0x40 SHL SUB DUP3 GT OR PUSH2 0x3E34 JUMPI PUSH1 0x40 MSTORE JUMP JUMPDEST PUSH4 0x4E487B71 PUSH1 0xE0 SHL PUSH1 0x0 MSTORE PUSH1 0x41 PUSH1 0x4 MSTORE PUSH1 0x24 PUSH1 0x0 REVERT JUMPDEST PUSH2 0x100 DUP2 ADD SWAP1 DUP2 LT PUSH1 0x1 PUSH1 0x1 PUSH1 0x40 SHL SUB DUP3 GT OR PUSH2 0x3E34 JUMPI PUSH1 0x40 MSTORE JUMP JUMPDEST PUSH1 0x80 DUP2 ADD SWAP1 DUP2 LT PUSH1 0x1 PUSH1 0x1 PUSH1 0x40 SHL SUB DUP3 GT OR PUSH2 0x3E34 JUMPI PUSH1 0x40 MSTORE JUMP JUMPDEST SWAP1 PUSH1 0x1F DUP1 NOT SWAP2 ADD AND DUP2 ADD SWAP1 DUP2 LT PUSH1 0x1 PUSH1 0x1 PUSH1 0x40 SHL SUB DUP3 GT OR PUSH2 0x3E34 JUMPI PUSH1 0x40 MSTORE JUMP JUMPDEST PUSH1 0x1 PUSH1 0x1 PUSH1 0x40 SHL SUB DUP2 GT PUSH2 0x3E34 JUMPI PUSH1 0x1F ADD PUSH1 0x1F NOT AND PUSH1 0x20 ADD SWAP1 JUMP JUMPDEST DUP2 PUSH1 0x1F DUP3 ADD SLT ISZERO PUSH2 0x321 JUMPI DUP1 CALLDATALOAD SWAP1 PUSH2 0x3ED4 DUP3 PUSH2 0x3EA2 JUMP JUMPDEST SWAP3 PUSH2 0x3EE2 PUSH1 0x40 MLOAD SWAP5 DUP6 PUSH2 0x3E81 JUMP JUMPDEST DUP3 DUP5 MSTORE PUSH1 0x20 DUP4 DUP4 ADD ADD GT PUSH2 0x321 JUMPI DUP2 PUSH1 0x0 SWAP3 PUSH1 0x20 DUP1 SWAP4 ADD DUP4 DUP7 ADD CALLDATACOPY DUP4 ADD ADD MSTORE SWAP1 JUMP JUMPDEST PUSH1 0xA4 CALLDATALOAD SWAP1 PUSH1 0x1 PUSH1 0x1 PUSH1 0xA0 SHL SUB DUP3 AND DUP3 SUB PUSH2 0x321 JUMPI JUMP JUMPDEST DUP1 SLOAD DUP3 LT ISZERO PUSH2 0x3F32 JUMPI PUSH1 0x0 MSTORE PUSH1 0x20 PUSH1 0x0 KECCAK256 ADD SWAP1 PUSH1 0x0 SWAP1 JUMP JUMPDEST PUSH4 0x4E487B71 PUSH1 0xE0 SHL PUSH1 0x0 MSTORE PUSH1 0x32 PUSH1 0x4 MSTORE PUSH1 0x24 PUSH1 0x0 REVERT JUMPDEST SWAP2 SWAP1 DUP3 MLOAD SWAP3 DUP4 DUP3 MSTORE PUSH1 0x0 JUMPDEST DUP5 DUP2 LT PUSH2 0x3F74 JUMPI POP POP DUP3 PUSH1 0x0 PUSH1 0x20 DUP1 SWAP5 SWAP6 DUP5 ADD ADD MSTORE PUSH1 0x1F DUP1 NOT SWAP2 ADD AND ADD ADD SWAP1 JUMP JUMPDEST DUP1 PUSH1 0x20 DUP1 SWAP3 DUP5 ADD ADD MLOAD DUP3 DUP3 DUP7 ADD ADD MSTORE ADD PUSH2 0x3F53 JUMP JUMPDEST SWAP1 DUP1 PUSH1 0x20 SWAP4 SWAP3 DUP2 DUP5 MSTORE DUP5 DUP5 ADD CALLDATACOPY PUSH1 0x0 DUP3 DUP3 ADD DUP5 ADD MSTORE PUSH1 0x1F ADD PUSH1 0x1F NOT AND ADD ADD SWAP1 JUMP JUMPDEST RETURNDATASIZE ISZERO PUSH2 0x3FD5 JUMPI RETURNDATASIZE SWAP1 PUSH2 0x3FBB DUP3 PUSH2 0x3EA2 JUMP JUMPDEST SWAP2 PUSH2 0x3FC9 PUSH1 0x40 MLOAD SWAP4 DUP5 PUSH2 0x3E81 JUMP JUMPDEST DUP3 MSTORE RETURNDATASIZE PUSH1 0x0 PUSH1 0x20 DUP5 ADD RETURNDATACOPY JUMP JUMPDEST PUSH1 0x60 SWAP1 JUMP JUMPDEST SWAP1 PUSH1 0x40 MLOAD SWAP2 DUP3 DUP2 SLOAD SWAP2 DUP3 DUP3 MSTORE PUSH1 0x20 DUP3 ADD SWAP1 PUSH1 0x0 MSTORE PUSH1 0x20 PUSH1 0x0 KECCAK256 SWAP3 PUSH1 0x0 JUMPDEST DUP2 DUP2 LT PUSH2 0x400E JUMPI POP POP PUSH2 0x400C SWAP3 POP SUB DUP4 PUSH2 0x3E81 JUMP JUMPDEST JUMP JUMPDEST DUP5 SLOAD DUP4 MSTORE PUSH1 0x1 SWAP5 DUP6 ADD SWAP5 DUP8 SWAP5 POP PUSH1 0x20 SWAP1 SWAP4 ADD SWAP3 ADD PUSH2 0x3FF7 JUMP JUMPDEST ISZERO PUSH2 0x402E JUMPI JUMP JUMPDEST PUSH1 0x40 MLOAD PUSH3 0x461BCD PUSH1 0xE5 SHL DUP2 MSTORE PUSH1 0x20 PUSH1 0x4 DUP3 ADD MSTORE PUSH1 0x11 PUSH1 0x24 DUP3 ADD MSTORE PUSH17 0x3C31B69031B7B73334B390333937BD32B7 PUSH1 0x79 SHL PUSH1 0x44 DUP3 ADD MSTORE PUSH1 0x64 SWAP1 REVERT JUMPDEST MLOAD SWAP1 PUSH2 0xFFFF DUP3 AND DUP3 SUB PUSH2 0x321 JUMPI JUMP JUMPDEST ISZERO PUSH2 0x407D JUMPI JUMP JUMPDEST PUSH1 0x40 MLOAD PUSH3 0x461BCD PUSH1 0xE5 SHL DUP2 MSTORE PUSH1 0x20 PUSH1 0x4 DUP3 ADD MSTORE PUSH1 0xC PUSH1 0x24 DUP3 ADD MSTORE PUSH12 0x3737BA1037B832B930BA37B9 PUSH1 0xA1 SHL PUSH1 0x44 DUP3 ADD MSTORE PUSH1 0x64 SWAP1 REVERT JUMPDEST ISZERO PUSH2 0x40B8 JUMPI JUMP JUMPDEST PUSH1 0x40 MLOAD PUSH3 0x461BCD PUSH1 0xE5 SHL DUP2 MSTORE PUSH1 0x20 PUSH1 0x4 DUP3 ADD MSTORE PUSH1 0x1A PUSH1 0x24 DUP3 ADD MSTORE PUSH32 0x50656E64696E6720706F736974696F6E206E6F7420666F756E64000000000000 PUSH1 0x44 DUP3 ADD MSTORE PUSH1 0x64 SWAP1 REVERT JUMPDEST DUP2 DUP2 MUL SWAP3 SWAP2 DUP2 ISZERO SWAP2 DUP5 DIV EQ OR ISZERO PUSH2 0x4110 JUMPI JUMP JUMPDEST PUSH4 0x4E487B71 PUSH1 0xE0 SHL PUSH1 0x0 MSTORE PUSH1 0x11 PUSH1 0x4 MSTORE PUSH1 0x24 PUSH1 0x0 REVERT JUMPDEST PUSH1 0x0 DUP2 SSTORE PUSH1 0x0 PUSH1 0x1 DUP3 ADD SSTORE PUSH1 0x0 PUSH1 0x2 DUP3 ADD SSTORE PUSH1 0x0 PUSH1 0x3 DUP3 ADD SSTORE PUSH1 0x0 PUSH1 0x4 DUP3 ADD SSTORE PUSH1 0x0 PUSH1 0x5 DUP3 ADD SSTORE PUSH1 0x6 DUP2 ADD DUP1 SLOAD SWAP1 PUSH1 0x0 DUP2 SSTORE DUP2 PUSH2 0x4175 JUMPI JUMPDEST POP POP PUSH1 0x9 DUP2 PUSH1 0x0 PUSH1 0x7 DUP2 SWAP5 ADD SSTORE DUP3 PUSH1 0x8 DUP3 ADD SSTORE ADD SSTORE JUMP JUMPDEST PUSH1 0x0 MSTORE PUSH1 0x20 PUSH1 0x0 KECCAK256 SWAP1 DUP2 ADD SWAP1 JUMPDEST DUP2 DUP2 LT ISZERO PUSH2 0x415E JUMPI PUSH1 0x0 DUP2 SSTORE PUSH1 0x1 ADD PUSH2 0x4182 JUMP JUMPDEST ISZERO PUSH2 0x419D JUMPI JUMP JUMPDEST PUSH1 0x40 MLOAD PUSH3 0x461BCD PUSH1 0xE5 SHL DUP2 MSTORE PUSH1 0x20 PUSH1 0x4 DUP3 ADD MSTORE PUSH1 0xF PUSH1 0x24 DUP3 ADD MSTORE PUSH15 0x1E1D1BDAD95B9CC81B9BDD081CD95D PUSH1 0x8A SHL PUSH1 0x44 DUP3 ADD MSTORE PUSH1 0x64 SWAP1 REVERT JUMPDEST ISZERO PUSH2 0x41DB JUMPI JUMP JUMPDEST PUSH1 0x40 MLOAD PUSH3 0x461BCD PUSH1 0xE5 SHL DUP2 MSTORE PUSH1 0x20 PUSH1 0x4 DUP3 ADD MSTORE PUSH1 0x13 PUSH1 0x24 DUP3 ADD MSTORE PUSH19 0x34B73B30B634B2103232B9BA34B730BA34B7B7 PUSH1 0x69 SHL PUSH1 0x44 DUP3 ADD MSTORE PUSH1 0x64 SWAP1 REVERT JUMPDEST SWAP4 SWAP3 PUSH1 0x60 SWAP4 PUSH1 0x1 PUSH1 0x1 PUSH1 0x40 SHL SUB SWAP4 PUSH2 0x424B SWAP4 SWAP9 SWAP8 SWAP9 PUSH1 0x1 DUP1 PUSH1 0xA0 SHL SUB AND DUP8 MSTORE PUSH1 0x20 DUP8 ADD MSTORE PUSH1 0x80 PUSH1 0x40 DUP8 ADD MSTORE PUSH1 0x80 DUP7 ADD SWAP2 PUSH2 0x3F89 JUMP JUMPDEST SWAP5 AND SWAP2 ADD MSTORE JUMP JUMPDEST SWAP2 PUSH2 0x4286 SWAP6 SWAP4 SWAP5 SWAP2 PUSH2 0x426C SWAP2 PUSH1 0x80 DUP6 MSTORE PUSH1 0x80 DUP6 ADD SWAP2 PUSH2 0x3F89 JUMP JUMPDEST SWAP4 PUSH1 0x20 DUP4 ADD MSTORE ISZERO ISZERO PUSH1 0x40 DUP3 ADD MSTORE PUSH1 0x60 DUP2 DUP5 SUB SWAP2 ADD MSTORE PUSH2 0x3F48 JUMP JUMPDEST SWAP1 JUMP JUMPDEST ISZERO PUSH2 0x4290 JUMPI JUMP JUMPDEST PUSH1 0x40 MLOAD PUSH3 0x461BCD PUSH1 0xE5 SHL DUP2 MSTORE PUSH1 0x20 PUSH1 0x4 DUP3 ADD MSTORE PUSH1 0x13 PUSH1 0x24 DUP3 ADD MSTORE PUSH19 0x151BDAD95B881B9BDD081CDD5C1C1BDC9D1959 PUSH1 0x6A SHL PUSH1 0x44 DUP3 ADD MSTORE PUSH1 0x64 SWAP1 REVERT JUMPDEST MLOAD SWAP1 PUSH1 0x1 PUSH1 0x1 PUSH1 0xA0 SHL SUB DUP3 AND DUP3 SUB PUSH2 0x321 JUMPI JUMP JUMPDEST PUSH1 0x1 PUSH1 0x1 PUSH1 0x40 SHL SUB DUP2 GT PUSH2 0x3E34 JUMPI PUSH1 0x5 SHL PUSH1 0x20 ADD SWAP1 JUMP JUMPDEST MLOAD SWAP1 DUP2 PUSH1 0x2 SIGNEXTEND DUP3 SUB PUSH2 0x321 JUMPI JUMP JUMPDEST ISZERO PUSH2 0x430B JUMPI JUMP JUMPDEST PUSH1 0x40 MLOAD PUSH3 0x461BCD PUSH1 0xE5 SHL DUP2 MSTORE PUSH1 0x20 PUSH1 0x4 DUP3 ADD MSTORE PUSH1 0x13 PUSH1 0x24 DUP3 ADD MSTORE PUSH19 0x506F736974696F6E206E6F7420616374697665 PUSH1 0x68 SHL PUSH1 0x44 DUP3 ADD MSTORE PUSH1 0x64 SWAP1 REVERT JUMPDEST SWAP2 SWAP1 DUP3 PUSH1 0xC0 SWAP2 SUB SLT PUSH2 0x321 JUMPI DUP2 MLOAD PUSH1 0x1 PUSH1 0x1 PUSH1 0xA0 SHL SUB DUP2 AND DUP2 SUB PUSH2 0x321 JUMPI SWAP2 PUSH2 0x4371 PUSH1 0x20 DUP3 ADD PUSH2 0x42F6 JUMP JUMPDEST SWAP2 PUSH2 0x437E PUSH1 0x40 DUP4 ADD PUSH2 0x4067 JUMP JUMPDEST SWAP2 PUSH1 0x60 DUP2 ADD MLOAD PUSH1 0xFF DUP2 AND DUP2 SUB PUSH2 0x321 JUMPI SWAP2 PUSH1 0xA0 PUSH2 0x439D PUSH1 0x80 DUP5 ADD PUSH2 0x4067 JUMP JUMPDEST SWAP3 ADD MLOAD DUP1 ISZERO ISZERO DUP2 SUB PUSH2 0x321 JUMPI SWAP1 JUMP JUMPDEST PUSH1 0x0 NOT DUP2 EQ PUSH2 0x4110 JUMPI PUSH1 0x1 ADD SWAP1 JUMP JUMPDEST DUP1 MLOAD DUP3 LT ISZERO PUSH2 0x3F32 JUMPI PUSH1 0x20 SWAP2 PUSH1 0x5 SHL ADD ADD SWAP1 JUMP JUMPDEST PUSH1 0x64 SWAP1 PUSH1 0x2 SIGNEXTEND MUL SWAP1 DUP2 PUSH1 0x2 SIGNEXTEND SWAP2 DUP3 SUB PUSH2 0x4110 JUMPI JUMP JUMPDEST SWAP1 PUSH1 0x2 SIGNEXTEND SWAP1 PUSH1 0x2 SIGNEXTEND ADD SWAP1 PUSH3 0x7FFFFF NOT DUP3 SLT PUSH3 0x7FFFFF DUP4 SGT OR PUSH2 0x4110 JUMPI JUMP JUMPDEST SWAP1 PUSH1 0x2 SIGNEXTEND SWAP1 DUP2 ISZERO PUSH2 0x4414 JUMPI PUSH1 0x2 SIGNEXTEND SMOD SWAP1 JUMP JUMPDEST PUSH4 0x4E487B71 PUSH1 0xE0 SHL PUSH1 0x0 MSTORE PUSH1 0x12 PUSH1 0x4 MSTORE PUSH1 0x24 PUSH1 0x0 REVERT JUMPDEST PUSH1 0x2 SWAP2 DUP3 SIGNEXTEND SWAP2 SIGNEXTEND SUB SWAP1 PUSH3 0x7FFFFF NOT DUP3 SLT PUSH3 0x7FFFFF DUP4 SGT OR PUSH2 0x4110 JUMPI JUMP JUMPDEST SWAP3 SWAP1 SWAP3 DUP4 PUSH1 0x2 SIGNEXTEND PUSH2 0x3E7 NOT DUP2 SGT SWAP1 DUP2 PUSH2 0x45E5 JUMPI JUMPDEST DUP2 PUSH2 0x45D8 JUMPI JUMPDEST POP ISZERO PUSH2 0x459D JUMPI PUSH1 0x40 MLOAD PUSH4 0x39DB0079 PUSH1 0xE2 SHL DUP2 MSTORE SWAP3 PUSH1 0x1 PUSH1 0x1 PUSH1 0xA0 SHL SUB SWAP2 SWAP1 SWAP2 AND SWAP1 PUSH1 0xC0 DUP5 PUSH1 0x4 DUP2 DUP6 GAS STATICCALL SWAP2 DUP3 ISZERO PUSH2 0x4567 JUMPI PUSH1 0x4 SWAP5 PUSH1 0x0 SWAP4 PUSH2 0x4573 JUMPI JUMPDEST POP PUSH1 0x20 SWAP1 PUSH1 0x40 MLOAD SWAP6 DUP7 DUP1 SWAP3 PUSH4 0x34324E9F PUSH1 0xE2 SHL DUP3 MSTORE GAS STATICCALL SWAP4 DUP5 ISZERO PUSH2 0x4567 JUMPI PUSH1 0x0 SWAP5 PUSH2 0x450D JUMPI JUMPDEST POP PUSH2 0x4506 PUSH2 0x44F5 PUSH2 0x4500 SWAP3 PUSH2 0x44EF PUSH2 0x44E8 PUSH2 0x44E2 PUSH2 0x4286 SWAP9 SWAP10 SWAP11 PUSH2 0x43CF JUMP JUMPDEST SWAP3 PUSH2 0x43CF JUMP JUMPDEST SWAP2 DUP7 PUSH2 0x43E4 JUMP JUMPDEST SWAP5 PUSH2 0x43E4 JUMP JUMPDEST SWAP3 PUSH2 0x4500 DUP8 DUP3 PUSH2 0x4402 JUMP JUMPDEST SWAP1 PUSH2 0x442A JUMP JUMPDEST SWAP5 DUP3 PUSH2 0x4402 JUMP JUMPDEST SWAP1 SWAP3 SWAP4 POP PUSH1 0x20 DUP2 RETURNDATASIZE PUSH1 0x20 GT PUSH2 0x455F JUMPI JUMPDEST DUP2 PUSH2 0x452A PUSH1 0x20 SWAP4 DUP4 PUSH2 0x3E81 JUMP JUMPDEST DUP2 ADD SUB SLT PUSH2 0x321 JUMPI PUSH2 0x4506 PUSH2 0x44F5 PUSH2 0x4286 SWAP5 PUSH2 0x44EF PUSH2 0x44E8 PUSH2 0x44E2 PUSH2 0x4551 PUSH2 0x4500 SWAP8 PUSH2 0x42F6 JUMP JUMPDEST SWAP10 SWAP9 POP POP POP POP SWAP3 POP POP PUSH2 0x44C3 JUMP JUMPDEST RETURNDATASIZE SWAP2 POP PUSH2 0x451D JUMP JUMPDEST PUSH1 0x40 MLOAD RETURNDATASIZE PUSH1 0x0 DUP3 RETURNDATACOPY RETURNDATASIZE SWAP1 REVERT JUMPDEST PUSH1 0x20 SWAP2 SWAP4 POP PUSH2 0x4590 SWAP1 PUSH1 0xC0 RETURNDATASIZE PUSH1 0xC0 GT PUSH2 0x2E57 JUMPI PUSH2 0x2E43 DUP2 DUP4 PUSH2 0x3E81 JUMP JUMPDEST POP POP POP POP SWAP1 POP SWAP3 SWAP1 PUSH2 0x449D JUMP JUMPDEST PUSH1 0x40 MLOAD PUSH3 0x461BCD PUSH1 0xE5 SHL DUP2 MSTORE PUSH1 0x20 PUSH1 0x4 DUP3 ADD MSTORE PUSH1 0x13 PUSH1 0x24 DUP3 ADD MSTORE PUSH19 0x72616E6765206F7574206F6620626F756E6473 PUSH1 0x68 SHL PUSH1 0x44 DUP3 ADD MSTORE PUSH1 0x64 SWAP1 REVERT JUMPDEST SWAP1 POP DUP4 PUSH1 0x2 SIGNEXTEND SGT CODESIZE PUSH2 0x4461 JUMP JUMPDEST SWAP1 POP PUSH2 0x3E8 DUP5 PUSH1 0x2 SIGNEXTEND SGT ISZERO SWAP1 PUSH2 0x445B JUMP JUMPDEST ISZERO PUSH2 0x45FD JUMPI JUMP JUMPDEST PUSH1 0x40 MLOAD PUSH3 0x461BCD PUSH1 0xE5 SHL DUP2 MSTORE PUSH1 0x20 PUSH1 0x4 DUP3 ADD MSTORE PUSH1 0xE PUSH1 0x24 DUP3 ADD MSTORE PUSH14 0x1C9BDD5D195C881B9BDD081CD95D PUSH1 0x92 SHL PUSH1 0x44 DUP3 ADD MSTORE PUSH1 0x64 SWAP1 REVERT JUMPDEST DUP2 MLOAD PUSH1 0x1 PUSH1 0x1 PUSH1 0xA0 SHL SUB SWAP1 DUP2 AND DUP3 MSTORE PUSH1 0x20 DUP1 DUP5 ADD MLOAD DUP3 AND SWAP1 DUP4 ADD MSTORE PUSH1 0x40 DUP1 DUP5 ADD MLOAD DUP3 AND SWAP1 DUP4 ADD MSTORE PUSH1 0x60 DUP1 DUP5 ADD MLOAD DUP3 AND SWAP1 DUP4 ADD MSTORE PUSH1 0x80 DUP1 DUP5 ADD MLOAD SWAP1 DUP4 ADD MSTORE PUSH1 0xA0 DUP1 DUP5 ADD MLOAD SWAP1 DUP4 ADD MSTORE PUSH1 0xC0 DUP1 DUP5 ADD MLOAD SWAP1 DUP4 ADD MSTORE PUSH1 0xE0 SWAP3 DUP4 ADD MLOAD AND SWAP2 DUP2 ADD SWAP2 SWAP1 SWAP2 MSTORE PUSH2 0x100 ADD SWAP1 JUMP JUMPDEST SWAP2 SWAP1 DUP3 ADD DUP1 SWAP3 GT PUSH2 0x4110 JUMPI JUMP JUMPDEST SWAP2 SWAP1 DUP3 PUSH1 0x40 SWAP2 SUB SLT PUSH2 0x321 JUMPI PUSH1 0x20 DUP3 MLOAD SWAP3 ADD MLOAD SWAP1 JUMP JUMPDEST SWAP2 SWAP1 SWAP2 PUSH1 0x60 PUSH1 0x1 PUSH1 0x1 PUSH1 0x80 SHL SUB DUP2 PUSH1 0x80 DUP5 ADD SWAP6 DUP1 MLOAD DUP6 MSTORE PUSH1 0x1 DUP1 PUSH1 0xA0 SHL SUB PUSH1 0x20 DUP3 ADD MLOAD AND PUSH1 0x20 DUP7 ADD MSTORE DUP3 PUSH1 0x40 DUP3 ADD MLOAD AND PUSH1 0x40 DUP7 ADD MSTORE ADD MLOAD AND SWAP2 ADD MSTORE JUMP JUMPDEST SWAP1 DUP2 PUSH1 0x20 SWAP2 SUB SLT PUSH2 0x321 JUMPI MLOAD PUSH1 0x1 PUSH1 0x1 PUSH1 0xA0 SHL SUB DUP2 AND DUP2 SUB PUSH2 0x321 JUMPI SWAP1 JUMP JUMPDEST PUSH1 0x0 SLOAD PUSH1 0x1 PUSH1 0x1 PUSH1 0xA0 SHL SUB AND CALLER SUB PUSH2 0x472C JUMPI JUMP JUMPDEST PUSH4 0x118CDAA7 PUSH1 0xE0 SHL PUSH1 0x0 MSTORE CALLER PUSH1 0x4 MSTORE PUSH1 0x24 PUSH1 0x0 REVERT JUMPDEST PUSH1 0xFF PUSH1 0x2 SLOAD AND PUSH2 0x474D JUMPI JUMP JUMPDEST PUSH4 0xD93C0665 PUSH1 0xE0 SHL PUSH1 0x0 MSTORE PUSH1 0x4 PUSH1 0x0 REVERT JUMPDEST PUSH1 0x2 PUSH1 0x1 SLOAD EQ PUSH2 0x476F JUMPI PUSH1 0x2 PUSH1 0x1 SSTORE JUMP JUMPDEST PUSH4 0x3EE5AEB5 PUSH1 0xE0 SHL PUSH1 0x0 MSTORE PUSH1 0x4 PUSH1 0x0 REVERT JUMPDEST PUSH1 0x40 MLOAD SWAP1 PUSH1 0x20 PUSH1 0x0 DUP2 DUP5 ADD SWAP5 PUSH4 0x95EA7B3 PUSH1 0xE0 SHL DUP7 MSTORE PUSH1 0x1 DUP1 PUSH1 0xA0 SHL SUB AND SWAP5 DUP6 PUSH1 0x24 DUP7 ADD MSTORE DUP2 PUSH1 0x44 DUP7 ADD MSTORE PUSH1 0x44 DUP6 MSTORE PUSH2 0x47BA PUSH1 0x64 DUP7 PUSH2 0x3E81 JUMP JUMPDEST DUP5 MLOAD SWAP1 DUP3 DUP6 GAS CALL PUSH1 0x0 MLOAD RETURNDATASIZE DUP3 PUSH2 0x4815 JUMPI JUMPDEST POP POP ISZERO PUSH2 0x47D7 JUMPI POP POP POP JUMP JUMPDEST PUSH2 0x4810 PUSH2 0x400C SWAP4 PUSH1 0x40 MLOAD SWAP1 PUSH4 0x95EA7B3 PUSH1 0xE0 SHL PUSH1 0x20 DUP4 ADD MSTORE PUSH1 0x24 DUP3 ADD MSTORE PUSH1 0x0 PUSH1 0x44 DUP3 ADD MSTORE PUSH1 0x44 DUP2 MSTORE PUSH2 0x480A PUSH1 0x64 DUP3 PUSH2 0x3E81 JUMP JUMPDEST DUP3 PUSH2 0x4BF2 JUMP JUMPDEST PUSH2 0x4BF2 JUMP JUMPDEST SWAP1 SWAP2 POP PUSH2 0x4832 JUMPI POP PUSH1 0x1 PUSH1 0x1 PUSH1 0xA0 SHL SUB DUP2 AND EXTCODESIZE ISZERO ISZERO JUMPDEST CODESIZE DUP1 PUSH2 0x47CB JUMP JUMPDEST PUSH1 0x1 EQ PUSH2 0x482B JUMP JUMPDEST PUSH1 0x20 PUSH1 0x0 PUSH1 0x40 MLOAD SWAP4 DUP3 DUP6 ADD SWAP1 PUSH4 0x95EA7B3 PUSH1 0xE0 SHL DUP3 MSTORE PUSH1 0x1 DUP1 PUSH1 0xA0 SHL SUB AND SWAP6 DUP7 PUSH1 0x24 DUP8 ADD MSTORE PUSH1 0x44 DUP7 ADD MSTORE PUSH1 0x44 DUP6 MSTORE PUSH2 0x47BA PUSH1 0x64 DUP7 PUSH2 0x3E81 JUMP JUMPDEST PUSH1 0x0 SWAP2 DUP2 DUP4 MSTORE PUSH1 0x4 PUSH1 0x20 MSTORE PUSH1 0x40 DUP4 KECCAK256 SWAP2 PUSH1 0x9 DUP4 ADD SWAP3 PUSH2 0x4895 PUSH1 0xFF DUP6 SLOAD AND PUSH2 0x4304 JUMP JUMPDEST PUSH1 0x5 DUP2 ADD SWAP4 DUP5 SLOAD SWAP1 DUP2 ISZERO ISZERO DUP1 PUSH2 0x4B4C JUMPI JUMPDEST ISZERO PUSH2 0x4B0E JUMPI PUSH1 0x1 DUP1 PUSH1 0xA0 SHL SUB PUSH1 0xB SLOAD AND PUSH1 0x4 DUP5 ADD SWAP3 PUSH1 0x1 PUSH1 0x1 PUSH1 0x80 SHL SUB DUP5 SLOAD AND SWAP2 PUSH1 0x40 MLOAD SWAP2 PUSH1 0xA0 DUP4 ADD DUP4 DUP2 LT PUSH1 0x1 PUSH1 0x1 PUSH1 0x40 SHL SUB DUP3 GT OR PUSH2 0x4AFA JUMPI SWAP3 DUP12 PUSH1 0x1 PUSH1 0x1 PUSH1 0x80 SHL SUB SWAP11 SWAP12 SWAP13 SWAP6 SWAP4 PUSH1 0xA4 SWAP4 PUSH1 0x40 SWAP7 DUP8 MSTORE DUP4 MSTORE PUSH1 0x20 DUP4 ADD SWAP5 DUP6 MSTORE DUP6 DUP4 ADD DUP3 DUP2 MSTORE PUSH1 0x60 DUP5 ADD DUP4 DUP2 MSTORE PUSH1 0x80 DUP6 ADD SWAP2 TIMESTAMP DUP4 MSTORE DUP9 MLOAD SWAP15 DUP16 SWAP9 DUP10 SWAP8 PUSH4 0x624E65F PUSH1 0xE1 SHL DUP10 MSTORE MLOAD PUSH1 0x4 DUP10 ADD MSTORE MLOAD AND PUSH1 0x24 DUP8 ADD MSTORE MLOAD PUSH1 0x44 DUP7 ADD MSTORE MLOAD PUSH1 0x64 DUP6 ADD MSTORE MLOAD PUSH1 0x84 DUP5 ADD MSTORE GAS CALL SWAP8 DUP9 ISZERO PUSH2 0x17FB JUMPI DUP2 SWAP7 DUP3 SWAP10 PUSH2 0x4AD3 JUMPI JUMPDEST POP DUP9 DUP8 DUP4 PUSH1 0x40 PUSH2 0x49B6 PUSH1 0x1 DUP1 PUSH1 0xA0 SHL SUB PUSH1 0xB SLOAD AND DUP7 SLOAD DUP4 MLOAD SWAP1 PUSH2 0x497A DUP3 PUSH2 0x3E66 JUMP JUMPDEST DUP2 MSTORE ADDRESS PUSH1 0x20 DUP3 ADD MSTORE PUSH1 0x1 PUSH1 0x1 PUSH1 0x80 SHL SUB DUP5 DUP3 ADD MSTORE PUSH1 0x1 PUSH1 0x1 PUSH1 0x80 SHL SUB PUSH1 0x60 DUP3 ADD MSTORE DUP4 MLOAD SWAP5 DUP6 DUP1 SWAP5 DUP2 SWAP4 PUSH4 0xFC6F7865 PUSH1 0xE0 SHL DUP4 MSTORE PUSH1 0x4 DUP4 ADD PUSH2 0x46BC JUMP JUMPDEST SUB SWAP3 GAS CALL SWAP2 DUP3 ISZERO PUSH2 0x1F43 JUMPI DUP6 SWAP2 DUP7 SWAP4 PUSH2 0x4AB0 JUMPI JUMPDEST POP DUP2 ISZERO DUP1 ISZERO SWAP1 PUSH2 0x4AA7 JUMPI JUMPDEST PUSH2 0x4A85 JUMPI JUMPDEST POP POP POP POP PUSH1 0x1 DUP1 PUSH1 0xA0 SHL SUB PUSH1 0xB SLOAD AND SWAP1 SLOAD DUP2 EXTCODESIZE ISZERO PUSH2 0x4D6 JUMPI DUP3 SWAP2 PUSH1 0x24 DUP4 SWAP3 PUSH1 0x40 MLOAD SWAP5 DUP6 SWAP4 DUP5 SWAP3 PUSH4 0x852CD8D PUSH1 0xE3 SHL DUP5 MSTORE PUSH1 0x4 DUP5 ADD MSTORE GAS CALL DUP1 ISZERO PUSH2 0x1234 JUMPI PUSH2 0x4A75 JUMPI JUMPDEST POP POP PUSH1 0xFF NOT DUP2 SLOAD AND SWAP1 SSTORE PUSH1 0x1 PUSH1 0x1 PUSH1 0x80 SHL SUB NOT DUP2 SLOAD AND SWAP1 SSTORE PUSH1 0x6 PUSH1 0x1 DUP1 PUSH1 0xA0 SHL SUB SWAP2 ADD SLOAD AND SWAP1 PUSH32 0x6F7734C2B603545392EDE46279193D0B944BFFB5D4C822BB78CD37EB6C2AADC9 PUSH1 0x40 DUP1 MLOAD DUP6 DUP2 MSTORE DUP8 PUSH1 0x20 DUP3 ADD MSTORE LOG3 SWAP2 SWAP1 JUMP JUMPDEST DUP2 PUSH2 0x4A7F SWAP2 PUSH2 0x3E81 JUMP JUMPDEST CODESIZE PUSH2 0x4A1C JUMP JUMPDEST PUSH2 0x4A9D SWAP5 SWAP13 POP PUSH2 0x4A97 SWAP3 SWAP4 SWAP11 POP PUSH2 0x4699 JUMP JUMPDEST SWAP8 PUSH2 0x4699 JUMP JUMPDEST SWAP8 CODESIZE DUP1 DUP1 DUP1 PUSH2 0x49DA JUMP JUMPDEST POP DUP3 ISZERO ISZERO PUSH2 0x49D5 JUMP JUMPDEST SWAP1 SWAP3 POP PUSH2 0x4ACC SWAP2 POP PUSH1 0x40 RETURNDATASIZE PUSH1 0x40 GT PUSH2 0x17F4 JUMPI PUSH2 0x17E6 DUP2 DUP4 PUSH2 0x3E81 JUMP JUMPDEST SWAP2 CODESIZE PUSH2 0x49CA JUMP JUMPDEST SWAP1 SWAP9 POP PUSH2 0x4AF0 SWAP2 SWAP7 POP PUSH1 0x40 RETURNDATASIZE PUSH1 0x40 GT PUSH2 0x17F4 JUMPI PUSH2 0x17E6 DUP2 DUP4 PUSH2 0x3E81 JUMP JUMPDEST SWAP6 SWAP1 SWAP6 SWAP8 CODESIZE PUSH2 0x4958 JUMP JUMPDEST PUSH4 0x4E487B71 PUSH1 0xE0 SHL DUP13 MSTORE PUSH1 0x41 PUSH1 0x4 MSTORE PUSH1 0x24 DUP13 REVERT JUMPDEST PUSH1 0x40 MLOAD PUSH3 0x461BCD PUSH1 0xE5 SHL DUP2 MSTORE PUSH1 0x20 PUSH1 0x4 DUP3 ADD MSTORE PUSH1 0x16 PUSH1 0x24 DUP3 ADD MSTORE PUSH22 0x13919413481C1BDCDA5D1A5BDB881C995C5D5A5C9959 PUSH1 0x52 SHL PUSH1 0x44 DUP3 ADD MSTORE PUSH1 0x64 SWAP1 REVERT JUMPDEST POP PUSH1 0xB SLOAD PUSH1 0x1 PUSH1 0x1 PUSH1 0xA0 SHL SUB AND ISZERO ISZERO PUSH2 0x48A6 JUMP JUMPDEST PUSH1 0x40 MLOAD PUSH4 0x6EB1769F PUSH1 0xE1 SHL DUP2 MSTORE ADDRESS PUSH1 0x4 DUP3 ADD MSTORE PUSH1 0x1 PUSH1 0x1 PUSH1 0xA0 SHL SUB DUP4 AND PUSH1 0x24 DUP3 ADD MSTORE SWAP1 SWAP2 SWAP1 PUSH1 0x20 DUP2 DUP1 PUSH1 0x44 DUP2 ADD SUB DUP2 PUSH1 0x1 PUSH1 0x1 PUSH1 0xA0 SHL SUB DUP8 AND GAS STATICCALL SWAP1 DUP2 ISZERO PUSH2 0x4567 JUMPI PUSH1 0x0 SWAP2 PUSH2 0x4BBE JUMPI JUMPDEST POP PUSH2 0x400C SWAP4 PUSH2 0x4BB8 SWAP2 PUSH2 0x4699 JUMP JUMPDEST SWAP2 PUSH2 0x483A JUMP JUMPDEST SWAP1 POP PUSH1 0x20 DUP2 RETURNDATASIZE PUSH1 0x20 GT PUSH2 0x4BEA JUMPI JUMPDEST DUP2 PUSH2 0x4BD9 PUSH1 0x20 SWAP4 DUP4 PUSH2 0x3E81 JUMP JUMPDEST DUP2 ADD SUB SLT PUSH2 0x321 JUMPI MLOAD PUSH2 0x400C PUSH2 0x4BAA JUMP JUMPDEST RETURNDATASIZE SWAP2 POP PUSH2 0x4BCC JUMP JUMPDEST SWAP1 PUSH1 0x0 PUSH1 0x20 SWAP2 DUP3 DUP2 MLOAD SWAP2 ADD DUP3 DUP6 GAS CALL ISZERO PUSH2 0x4567 JUMPI PUSH1 0x0 MLOAD RETURNDATASIZE PUSH2 0x4C44 JUMPI POP PUSH1 0x1 PUSH1 0x1 PUSH1 0xA0 SHL SUB DUP2 AND EXTCODESIZE ISZERO JUMPDEST PUSH2 0x4C23 JUMPI POP JUMP JUMPDEST PUSH4 0x5274AFE7 PUSH1 0xE0 SHL PUSH1 0x0 SWAP1 DUP2 MSTORE PUSH1 0x1 PUSH1 0x1 PUSH1 0xA0 SHL SUB SWAP2 SWAP1 SWAP2 AND PUSH1 0x4 MSTORE PUSH1 0x24 SWAP1 REVERT JUMPDEST PUSH1 0x1 EQ ISZERO PUSH2 0x4C1C JUMP INVALID PUSH20 0xD40F1F9C0775E6157122394BE131C037056BFF82 0xD8 PUSH16 0x1F2F4103E318E1C2D58D2C32089972A3 0xF8 JUMPDEST 0x2B GAS 0x22 0x2C 0xEC DUP2 DUP9 0xA7 PUSH19 0xBD6DF05FBBD6CCD11851DF27019DA264697066 PUSH20 0x58221220053ADB6AA12E348BB1072E3EBEE0AC76 DUP13 0xD6 JUMPI 0x29 SWAP13 0xDD LT RETURNDATACOPY LOG3 0xAB 0xD3 0xF8 0xBB 0xB2 SWAP12 GASPRICE PUSH5 0x736F6C6343 STOP ADDMOD SHR STOP CALLER "},"methodIdentifiers":{"addSupportedToken(address)":"6d69fcaf","assetHubParaId()":"dfaa9b70","assetHubPositionToLocalId(bytes32)":"66d0bb71","buildPalletCallBytes(uint8,uint8,bytes)":"e34fe513","calculateTickRange(address,int24,int24)":"649ba22c","cancelPendingPosition(bytes32,bytes)":"3467fc5d","collectFees(uint256)":"b17acdcd","defaultDestWeight()":"f699c43a","defaultSlippageBps()":"96667621","executeFullLiquidation(uint256)":"4d0e5db4","executePendingInvestment(bytes32)":"b7e33ee3","freezeXcmConfig()":"6b3f1fdb","getActivePositions()":"5fc75ec2","getBalance(address)":"f8b2cb4f","getUserPositions(address)":"2a6bc2dd","isPositionOutOfRange(uint256)":"41051ef8","liquidateSwapAndReturn(uint256,address,bytes,uint256,uint256,uint160,bytes32)":"a23c34a8","nfpmContract()":"f84144fb","onERC721Received(address,address,uint256,bytes)":"150b7a02","operator()":"570ca735","owner()":"8da5cb5b","pause()":"8456cb59","paused()":"5c975abb","pendingPositions(bytes32)":"45ebe8cf","positionCounter()":"63d5ab8d","positions(uint256)":"99fbab88","quoteExactInputSingle(address,address,uint256,uint160)":"2d9ebd1d","quoterContract()":"e84073f6","receiveAssets(bytes32,address,address,uint256,bytes)":"3e4fba36","remoteCallAssetHub(uint16,uint64,bytes,uint256,uint64)":"11b21acf","removeSupportedToken(address)":"76319190","renounceOwnership()":"715018a6","returnAssets(address,address,uint256,bytes)":"54422760","setAssetHubParaId(uint32)":"5cb124a8","setDefaultDestWeight(uint64)":"9aa79a84","setDefaultSlippageBps(uint16)":"a3b45a2a","setIntegrations(address,address)":"10af06a2","setNFPM(address)":"9fb3b5ab","setOperator(address)":"b3ab15fb","setTestMode(bool)":"1ff1292f","setTrustedXcmCaller(address)":"2d349e51","setXTokensPrecompile(address)":"4d7f9cc9","setXcmTransactorPrecompile(address)":"c332bec1","supportedTokens(address)":"68c4ac26","swapExactInputSingle(address,address,address,uint256,uint256,uint160)":"b9c6cce6","swapRouterContract()":"fee4e474","testMode()":"cd9ea342","transferOwnership(address)":"f2fde38b","trustedXcmCaller()":"d1074172","unpause()":"3f4ba83a","userPositions(address,uint256)":"5e1b4d99","xTokensPrecompile()":"2fe220a4","xcmConfigFrozen()":"00cac96c","xcmTransactorPrecompile()":"e178b5dd"}}}}}