{"contracts/V1(Current)/XCMProxy.sol":{"XCMProxy":{"abi":[{"inputs":[{"internalType":"address","name":"initialOwner","type":"address"}],"stateMutability":"nonpayable","type":"constructor"},{"inputs":[],"name":"EnforcedPause","type":"error"},{"inputs":[],"name":"ExpectedPause","type":"error"},{"inputs":[{"internalType":"address","name":"owner","type":"address"}],"name":"OwnableInvalidOwner","type":"error"},{"inputs":[{"internalType":"address","name":"account","type":"address"}],"name":"OwnableUnauthorizedAccount","type":"error"},{"inputs":[],"name":"ReentrancyGuardReentrantCall","type":"error"},{"inputs":[{"internalType":"address","name":"token","type":"address"}],"name":"SafeERC20FailedOperation","type":"error"},{"anonymous":false,"inputs":[{"indexed":false,"internalType":"uint32","name":"paraId","type":"uint32"}],"name":"AssetHubParaIdSet","type":"event"},{"anonymous":false,"inputs":[{"indexed":true,"internalType":"address","name":"token","type":"address"},{"indexed":true,"internalType":"address","name":"user","type":"address"},{"indexed":false,"internalType":"uint256","name":"amount","type":"uint256"},{"indexed":false,"internalType":"bytes","name":"investmentParams","type":"bytes"}],"name":"AssetsReceived","type":"event"},{"anonymous":false,"inputs":[{"indexed":true,"internalType":"address","name":"token","type":"address"},{"indexed":true,"internalType":"address","name":"user","type":"address"},{"indexed":false,"internalType":"bytes","name":"destination","type":"bytes"},{"indexed":false,"internalType":"uint256","name":"amount","type":"uint256"},{"indexed":false,"internalType":"uint256","name":"positionId","type":"uint256"}],"name":"AssetsReturned","type":"event"},{"anonymous":false,"inputs":[{"indexed":false,"internalType":"uint64","name":"weight","type":"uint64"}],"name":"DefaultDestWeightSet","type":"event"},{"anonymous":false,"inputs":[{"indexed":false,"internalType":"uint16","name":"bps","type":"uint16"}],"name":"DefaultSlippageSet","type":"event"},{"anonymous":false,"inputs":[{"indexed":true,"internalType":"uint256","name":"positionId","type":"uint256"},{"indexed":false,"internalType":"bytes32","name":"assetHubPositionId","type":"bytes32"},{"indexed":true,"internalType":"address","name":"user","type":"address"},{"indexed":false,"internalType":"address","name":"baseAsset","type":"address"},{"indexed":false,"internalType":"uint256","name":"totalReturned","type":"uint256"}],"name":"LiquidationCompleted","type":"event"},{"anonymous":false,"inputs":[{"indexed":true,"internalType":"address","name":"pool","type":"address"},{"indexed":true,"internalType":"address","name":"recipient","type":"address"},{"indexed":false,"internalType":"int24","name":"bottomTick","type":"int24"},{"indexed":false,"internalType":"int24","name":"topTick","type":"int24"},{"indexed":false,"internalType":"uint128","name":"liquidity","type":"uint128"},{"indexed":false,"internalType":"uint256","name":"amount0","type":"uint256"},{"indexed":false,"internalType":"uint256","name":"amount1","type":"uint256"}],"name":"LiquidityAdded","type":"event"},{"anonymous":false,"inputs":[{"indexed":true,"internalType":"address","name":"operator","type":"address"}],"name":"OperatorUpdated","type":"event"},{"anonymous":false,"inputs":[{"indexed":true,"internalType":"address","name":"previousOwner","type":"address"},{"indexed":true,"internalType":"address","name":"newOwner","type":"address"}],"name":"OwnershipTransferred","type":"event"},{"anonymous":false,"inputs":[{"indexed":false,"internalType":"address","name":"account","type":"address"}],"name":"Paused","type":"event"},{"anonymous":false,"inputs":[{"indexed":true,"internalType":"uint256","name":"positionId","type":"uint256"},{"indexed":true,"internalType":"address","name":"user","type":"address"},{"indexed":false,"internalType":"address","name":"pool","type":"address"},{"indexed":false,"internalType":"address","name":"token0","type":"address"},{"indexed":false,"internalType":"address","name":"token1","type":"address"},{"indexed":false,"internalType":"int24","name":"bottomTick","type":"int24"},{"indexed":false,"internalType":"int24","name":"topTick","type":"int24"},{"indexed":false,"internalType":"uint128","name":"liquidity","type":"uint128"}],"name":"PositionCreated","type":"event"},{"anonymous":false,"inputs":[{"indexed":true,"internalType":"uint256","name":"positionId","type":"uint256"},{"indexed":true,"internalType":"address","name":"user","type":"address"},{"indexed":false,"internalType":"uint256","name":"amount0","type":"uint256"},{"indexed":false,"internalType":"uint256","name":"amount1","type":"uint256"}],"name":"PositionLiquidated","type":"event"},{"anonymous":false,"inputs":[{"indexed":true,"internalType":"address","name":"tokenIn","type":"address"},{"indexed":true,"internalType":"address","name":"tokenOut","type":"address"},{"indexed":false,"internalType":"uint256","name":"amountIn","type":"uint256"},{"indexed":false,"internalType":"uint256","name":"amountOut","type":"uint256"},{"indexed":false,"internalType":"uint256","name":"positionId","type":"uint256"}],"name":"ProceedsSwapped","type":"event"},{"anonymous":false,"inputs":[{"indexed":true,"internalType":"address","name":"caller","type":"address"}],"name":"TrustedXcmCallerSet","type":"event"},{"anonymous":false,"inputs":[{"indexed":false,"internalType":"address","name":"account","type":"address"}],"name":"Unpaused","type":"event"},{"anonymous":false,"inputs":[{"indexed":true,"internalType":"address","name":"precompile","type":"address"}],"name":"XTokensPrecompileSet","type":"event"},{"anonymous":false,"inputs":[],"name":"XcmConfigFrozen","type":"event"},{"anonymous":false,"inputs":[{"indexed":false,"internalType":"uint32","name":"paraId","type":"uint32"},{"indexed":false,"internalType":"uint16","name":"feeLocation","type":"uint16"},{"indexed":false,"internalType":"uint64","name":"transactRequiredWeightAtMost","type":"uint64"},{"indexed":false,"internalType":"uint256","name":"feeAmount","type":"uint256"},{"indexed":false,"internalType":"uint64","name":"overallWeight","type":"uint64"},{"indexed":false,"internalType":"bool","name":"success","type":"bool"},{"indexed":false,"internalType":"bytes","name":"errorData","type":"bytes"}],"name":"XcmRemoteCallAttempt","type":"event"},{"anonymous":false,"inputs":[{"indexed":true,"internalType":"address","name":"precompile","type":"address"}],"name":"XcmTransactorPrecompileSet","type":"event"},{"anonymous":false,"inputs":[{"indexed":true,"internalType":"address","name":"token","type":"address"},{"indexed":false,"internalType":"bytes","name":"dest","type":"bytes"},{"indexed":false,"internalType":"uint256","name":"amount","type":"uint256"},{"indexed":false,"internalType":"bool","name":"success","type":"bool"},{"indexed":false,"internalType":"bytes","name":"errorData","type":"bytes"}],"name":"XcmTransferAttempt","type":"event"},{"inputs":[{"internalType":"address","name":"token","type":"address"}],"name":"addSupportedToken","outputs":[],"stateMutability":"nonpayable","type":"function"},{"inputs":[],"name":"assetHubParaId","outputs":[{"internalType":"uint32","name":"","type":"uint32"}],"stateMutability":"view","type":"function"},{"inputs":[{"internalType":"uint8","name":"palletIndex","type":"uint8"},{"internalType":"uint8","name":"callIndex","type":"uint8"},{"internalType":"bytes","name":"","type":"bytes"}],"name":"buildPalletCallBytes","outputs":[{"internalType":"bytes","name":"","type":"bytes"}],"stateMutability":"pure","type":"function"},{"inputs":[{"internalType":"address","name":"pool","type":"address"},{"internalType":"int24","name":"lowerRangePercent","type":"int24"},{"internalType":"int24","name":"upperRangePercent","type":"int24"}],"name":"calculateTickRange","outputs":[{"internalType":"int24","name":"bottomTick","type":"int24"},{"internalType":"int24","name":"topTick","type":"int24"}],"stateMutability":"view","type":"function"},{"inputs":[{"internalType":"uint256","name":"positionId","type":"uint256"}],"name":"collectFees","outputs":[{"internalType":"uint256","name":"amount0","type":"uint256"},{"internalType":"uint256","name":"amount1","type":"uint256"}],"stateMutability":"nonpayable","type":"function"},{"inputs":[],"name":"defaultDestWeight","outputs":[{"internalType":"uint64","name":"","type":"uint64"}],"stateMutability":"view","type":"function"},{"inputs":[],"name":"defaultSlippageBps","outputs":[{"internalType":"uint16","name":"","type":"uint16"}],"stateMutability":"view","type":"function"},{"inputs":[{"internalType":"uint256","name":"positionId","type":"uint256"}],"name":"executeFullLiquidation","outputs":[{"internalType":"uint256","name":"amount0","type":"uint256"},{"internalType":"uint256","name":"amount1","type":"uint256"}],"stateMutability":"nonpayable","type":"function"},{"inputs":[{"internalType":"address","name":"baseAsset","type":"address"},{"internalType":"uint256[]","name":"amounts","type":"uint256[]"},{"internalType":"address","name":"poolId","type":"address"},{"internalType":"int24","name":"lowerRangePercent","type":"int24"},{"internalType":"int24","name":"upperRangePercent","type":"int24"},{"internalType":"address","name":"positionOwner","type":"address"}],"name":"executeInvestment","outputs":[],"stateMutability":"nonpayable","type":"function"},{"inputs":[],"name":"freezeXcmConfig","outputs":[],"stateMutability":"nonpayable","type":"function"},{"inputs":[],"name":"getActivePositions","outputs":[{"components":[{"internalType":"address","name":"pool","type":"address"},{"internalType":"address","name":"token0","type":"address"},{"internalType":"address","name":"token1","type":"address"},{"internalType":"int24","name":"bottomTick","type":"int24"},{"internalType":"int24","name":"topTick","type":"int24"},{"internalType":"uint128","name":"liquidity","type":"uint128"},{"internalType":"uint256","name":"tokenId","type":"uint256"},{"internalType":"address","name":"owner","type":"address"},{"internalType":"int24","name":"lowerRangePercent","type":"int24"},{"internalType":"int24","name":"upperRangePercent","type":"int24"},{"internalType":"uint256","name":"entryPrice","type":"uint256"},{"internalType":"uint256","name":"timestamp","type":"uint256"},{"internalType":"bool","name":"active","type":"bool"}],"internalType":"struct XCMProxy.Position[]","name":"","type":"tuple[]"}],"stateMutability":"view","type":"function"},{"inputs":[{"internalType":"address","name":"token","type":"address"}],"name":"getBalance","outputs":[{"internalType":"uint256","name":"","type":"uint256"}],"stateMutability":"view","type":"function"},{"inputs":[{"internalType":"address","name":"user","type":"address"}],"name":"getUserPositions","outputs":[{"internalType":"uint256[]","name":"","type":"uint256[]"}],"stateMutability":"view","type":"function"},{"inputs":[{"internalType":"uint256","name":"positionId","type":"uint256"}],"name":"isPositionOutOfRange","outputs":[{"internalType":"bool","name":"outOfRange","type":"bool"},{"internalType":"uint256","name":"currentPrice","type":"uint256"}],"stateMutability":"view","type":"function"},{"inputs":[{"internalType":"uint256","name":"positionId","type":"uint256"},{"internalType":"address","name":"baseAsset","type":"address"},{"internalType":"bytes","name":"destination","type":"bytes"},{"internalType":"uint256","name":"minAmountOut0","type":"uint256"},{"internalType":"uint256","name":"minAmountOut1","type":"uint256"},{"internalType":"uint160","name":"limitSqrtPrice","type":"uint160"},{"internalType":"bytes32","name":"assetHubPositionId","type":"bytes32"}],"name":"liquidateSwapAndReturn","outputs":[],"stateMutability":"nonpayable","type":"function"},{"inputs":[],"name":"nfpmContract","outputs":[{"internalType":"address","name":"","type":"address"}],"stateMutability":"view","type":"function"},{"inputs":[{"internalType":"address","name":"","type":"address"},{"internalType":"address","name":"","type":"address"},{"internalType":"uint256","name":"","type":"uint256"},{"internalType":"bytes","name":"","type":"bytes"}],"name":"onERC721Received","outputs":[{"internalType":"bytes4","name":"","type":"bytes4"}],"stateMutability":"nonpayable","type":"function"},{"inputs":[],"name":"operator","outputs":[{"internalType":"address","name":"","type":"address"}],"stateMutability":"view","type":"function"},{"inputs":[],"name":"owner","outputs":[{"internalType":"address","name":"","type":"address"}],"stateMutability":"view","type":"function"},{"inputs":[],"name":"pause","outputs":[],"stateMutability":"nonpayable","type":"function"},{"inputs":[],"name":"paused","outputs":[{"internalType":"bool","name":"","type":"bool"}],"stateMutability":"view","type":"function"},{"inputs":[],"name":"positionCounter","outputs":[{"internalType":"uint256","name":"","type":"uint256"}],"stateMutability":"view","type":"function"},{"inputs":[{"internalType":"uint256","name":"","type":"uint256"}],"name":"positions","outputs":[{"internalType":"address","name":"pool","type":"address"},{"internalType":"address","name":"token0","type":"address"},{"internalType":"address","name":"token1","type":"address"},{"internalType":"int24","name":"bottomTick","type":"int24"},{"internalType":"int24","name":"topTick","type":"int24"},{"internalType":"uint128","name":"liquidity","type":"uint128"},{"internalType":"uint256","name":"tokenId","type":"uint256"},{"internalType":"address","name":"owner","type":"address"},{"internalType":"int24","name":"lowerRangePercent","type":"int24"},{"internalType":"int24","name":"upperRangePercent","type":"int24"},{"internalType":"uint256","name":"entryPrice","type":"uint256"},{"internalType":"uint256","name":"timestamp","type":"uint256"},{"internalType":"bool","name":"active","type":"bool"}],"stateMutability":"view","type":"function"},{"inputs":[{"internalType":"address","name":"tokenIn","type":"address"},{"internalType":"address","name":"tokenOut","type":"address"},{"internalType":"uint256","name":"amountIn","type":"uint256"},{"internalType":"uint160","name":"limitSqrtPrice","type":"uint160"}],"name":"quoteExactInputSingle","outputs":[{"internalType":"uint256","name":"amountOut","type":"uint256"}],"stateMutability":"nonpayable","type":"function"},{"inputs":[],"name":"quoterContract","outputs":[{"internalType":"address","name":"","type":"address"}],"stateMutability":"view","type":"function"},{"inputs":[{"internalType":"address","name":"token","type":"address"},{"internalType":"address","name":"user","type":"address"},{"internalType":"uint256","name":"amount","type":"uint256"},{"internalType":"bytes","name":"investmentParams","type":"bytes"}],"name":"receiveAssets","outputs":[],"stateMutability":"nonpayable","type":"function"},{"inputs":[{"internalType":"uint16","name":"feeLocation","type":"uint16"},{"internalType":"uint64","name":"transactRequiredWeightAtMost","type":"uint64"},{"internalType":"bytes","name":"call","type":"bytes"},{"internalType":"uint256","name":"feeAmount","type":"uint256"},{"internalType":"uint64","name":"overallWeight","type":"uint64"}],"name":"remoteCallAssetHub","outputs":[],"stateMutability":"nonpayable","type":"function"},{"inputs":[{"internalType":"address","name":"token","type":"address"}],"name":"removeSupportedToken","outputs":[],"stateMutability":"nonpayable","type":"function"},{"inputs":[],"name":"renounceOwnership","outputs":[],"stateMutability":"nonpayable","type":"function"},{"inputs":[{"internalType":"address","name":"token","type":"address"},{"internalType":"address","name":"user","type":"address"},{"internalType":"uint256","name":"amount","type":"uint256"},{"internalType":"bytes","name":"destination","type":"bytes"}],"name":"returnAssets","outputs":[],"stateMutability":"nonpayable","type":"function"},{"inputs":[{"internalType":"uint32","name":"paraId","type":"uint32"}],"name":"setAssetHubParaId","outputs":[],"stateMutability":"nonpayable","type":"function"},{"inputs":[{"internalType":"uint64","name":"weight","type":"uint64"}],"name":"setDefaultDestWeight","outputs":[],"stateMutability":"nonpayable","type":"function"},{"inputs":[{"internalType":"uint16","name":"bps","type":"uint16"}],"name":"setDefaultSlippageBps","outputs":[],"stateMutability":"nonpayable","type":"function"},{"inputs":[{"internalType":"address","name":"quoter","type":"address"},{"internalType":"address","name":"router","type":"address"}],"name":"setIntegrations","outputs":[],"stateMutability":"nonpayable","type":"function"},{"inputs":[{"internalType":"address","name":"nfpm","type":"address"}],"name":"setNFPM","outputs":[],"stateMutability":"nonpayable","type":"function"},{"inputs":[{"internalType":"address","name":"newOperator","type":"address"}],"name":"setOperator","outputs":[],"stateMutability":"nonpayable","type":"function"},{"inputs":[{"internalType":"bool","name":"_testMode","type":"bool"}],"name":"setTestMode","outputs":[],"stateMutability":"nonpayable","type":"function"},{"inputs":[{"internalType":"address","name":"caller","type":"address"}],"name":"setTrustedXcmCaller","outputs":[],"stateMutability":"nonpayable","type":"function"},{"inputs":[{"internalType":"address","name":"precompile","type":"address"}],"name":"setXTokensPrecompile","outputs":[],"stateMutability":"nonpayable","type":"function"},{"inputs":[{"internalType":"address","name":"precompile","type":"address"}],"name":"setXcmTransactorPrecompile","outputs":[],"stateMutability":"nonpayable","type":"function"},{"inputs":[{"internalType":"address","name":"","type":"address"}],"name":"supportedTokens","outputs":[{"internalType":"bool","name":"","type":"bool"}],"stateMutability":"view","type":"function"},{"inputs":[{"internalType":"address","name":"tokenIn","type":"address"},{"internalType":"address","name":"tokenOut","type":"address"},{"internalType":"address","name":"recipient","type":"address"},{"internalType":"uint256","name":"amountIn","type":"uint256"},{"internalType":"uint256","name":"amountOutMinimum","type":"uint256"},{"internalType":"uint160","name":"limitSqrtPrice","type":"uint160"}],"name":"swapExactInputSingle","outputs":[{"internalType":"uint256","name":"amountOut","type":"uint256"}],"stateMutability":"nonpayable","type":"function"},{"inputs":[],"name":"swapRouterContract","outputs":[{"internalType":"address","name":"","type":"address"}],"stateMutability":"view","type":"function"},{"inputs":[],"name":"testMode","outputs":[{"internalType":"bool","name":"","type":"bool"}],"stateMutability":"view","type":"function"},{"inputs":[{"internalType":"address","name":"newOwner","type":"address"}],"name":"transferOwnership","outputs":[],"stateMutability":"nonpayable","type":"function"},{"inputs":[],"name":"trustedXcmCaller","outputs":[{"internalType":"address","name":"","type":"address"}],"stateMutability":"view","type":"function"},{"inputs":[],"name":"unpause","outputs":[],"stateMutability":"nonpayable","type":"function"},{"inputs":[{"internalType":"address","name":"","type":"address"},{"internalType":"uint256","name":"","type":"uint256"}],"name":"userPositions","outputs":[{"internalType":"uint256","name":"","type":"uint256"}],"stateMutability":"view","type":"function"},{"inputs":[],"name":"xTokensPrecompile","outputs":[{"internalType":"address","name":"","type":"address"}],"stateMutability":"view","type":"function"},{"inputs":[],"name":"xcmConfigFrozen","outputs":[{"internalType":"bool","name":"","type":"bool"}],"stateMutability":"view","type":"function"},{"inputs":[],"name":"xcmTransactorPrecompile","outputs":[{"internalType":"address","name":"","type":"address"}],"stateMutability":"view","type":"function"}],"evm":{"bytecode":{"linkReferences":{},"object":"6080346100ff57601f61497f38819003918201601f19168301916001600160401b03831184841017610104578084926020946040528339810103126100ff57516001600160a01b038116908190036100ff5780156100e957600080546001600160a01b0319811683178255604051929182916001600160a01b0316907f8be0079c531659141344cd1fd0a4f28419497f9722a3daafe3b4186f6b6457e09080a3600180556259682f60aa1b600a55600b80546001600160a81b0319169055600c80546001600160a01b0319908116909155600d8054909116919091179055614864908161011b8239f35b631e4fbdf760e01b600052600060045260246000fd5b600080fd5b634e487b7160e01b600052604160045260246000fdfe608080604052600436101561001357600080fd5b600090813560e01c908162cac96c146135df5750806310af06a21461357b57806311b21acf14613330578063150b7a021461330c5780631ff1292f146132c55780632a6bc2dd146132105780632d349e51146131985780632d9ebd1d146130725780632fe220a4146130495780633f4ba83a14612fe157806341051ef814612f015780634d0e5db414612ead5780634d7f9cc914612e335780635442276014612ae7578063570ca73514612abe5780635c975abb14612a9b5780635cb124a814612a0b5780635e1b4d99146129b45780635fc75ec2146126a057806363d5ab8d14612682578063649ba22c1461262d57806368c4ac26146125ee5780636b3f1fdb1461255a5780636d69fcaf14612516578063715018a6146124bc578063763191901461247b5780638456cb59146124205780638da5cb5b146123f957806396667621146123d457806399fbab88146122ef5780639aa79a84146122545780639fb3b5ab14612214578063a23c34a814611b32578063a3b45a2a14611a7f578063b17acdcd1461191b578063b2dc600714610f2b578063b3ab15fb14610ec3578063b9c6cce614610cb2578063c332bec114610c4a578063cd9ea34214610c24578063d107417214610bfb578063d6aec8a914610507578063dfaa9b70146104e6578063e178b5dd146104bd578063e34fe5131461041b578063e84073f6146103f2578063f2fde38b1461036c578063f699c43a14610342578063f84144fb14610319578063f8b2cb4f1461027c5763fee4e4741461025157600080fd5b346102795780600319360112610279576008546040516001600160a01b039091168152602090f35b80fd5b50346102795760203660031901126102795760249060206001600160a01b036102a3613603565b16604051938480926370a0823160e01b82523060048301525afa90811561030d57906102d5575b602090604051908152f35b506020813d602011610305575b816102ef6020938361371e565b8101031261030057602090516102ca565b600080fd5b3d91506102e2565b604051903d90823e3d90fd5b50346102795780600319360112610279576009546040516001600160a01b039091168152602090f35b503461027957806003193601126102795760206001600160401b03600a5460a01c16604051908152f35b503461027957602036600319011261027957610386613603565b61038e61406c565b6001600160a01b031680156103de5781546001600160a01b03198116821783556001600160a01b03167f8be0079c531659141344cd1fd0a4f28419497f9722a3daafe3b4186f6b6457e08380a380f35b631e4fbdf760e01b82526004829052602482fd5b50346102795780600319360112610279576007546040516001600160a01b039091168152602090f35b50346102795760603660031901126102795760043560ff811681036104b95760243560ff811681036104b557604435926001600160401b038411610279575061046b6104b193369060040161375a565b506040516001600160f81b031960f893841b811660208301529190921b1660218201526002815261049d60228261371e565b604051918291602083526020830190613840565b0390f35b8280fd5b5080fd5b5034610279578060031936011261027957600c546040516001600160a01b039091168152602090f35b50346102795780600319360112610279576020600a5460e01c604051908152f35b50346102795760c036600319011261027957610521613603565b6024356001600160401b0381116104b557366023820112156104b55780600401359061054c82613829565b9161055a604051938461371e565b8083526024602084019160051b83010191368311610be757602401905b828210610beb5750505061058961362f565b916064358060020b808203610be757608435928360020b808503610be3576105af613645565b926105b861406c565b6105c0614095565b6105c86140b2565b865115610b9e571215610b69576001600160a01b03821615610b2b576001600160a01b031686526003602052604086205460ff1615610ae65761060c838387613c12565b604051630dfe168160e01b8152956001600160a01b038816949192919089906020896004818a5afa968715610ab9576004998398610ac4575b506020906040519a8b809263d21220a760e01b82525afa988915610ab9578299610a80575b5080518995949392919015610a795761068281613b69565b51905b6001815111600014610a725761069a90613b76565b515b6009546001600160a01b03166106b3811515613ef7565b826109a3575b508015908115806108d6575b836108af5784925b1561088957845b600954604051946001600160a01b0390911691906106f186613702565b8d600160a01b60019003169b8c8752600160a01b6001900316948560208801528860408801528a60020b60608801528b60020b60808801528760a088015260c087015260e0860152610100850152306101208501524261014085015260405180809563fe3f3be760e01b8252600482019061076b91613f77565b0381885a94608095f198891561087e578d948f94879b61082d575b5098887f7112c6849012c19915dd63e9b6905b8febad32e176de071fb5b3b3d757d288199e968e839b9a978f976107e79f9e978f976107d19d9961080f575b506107f1575b50614548565b9760405196879660018060a01b03169a87614013565b0390a36001805580f35b600954610809916001600160a01b03909116906143c1565b386107cb565b600954610827916001600160a01b03909116906143c1565b386107c5565b8d939b508a9998959a9197508c949e96899160803d608011610877575b610854818361371e565b810161085f91613f45565b50509590959d9599935050969e945098999497610786565b503d61084a565b6040513d87823e3d90fd5b6127106108a961ffff6108a281600c5460a01c16614058565b1684613f32565b046106d4565b6127106108cf61ffff6108c881600c5460a01c16614058565b1686613f32565b04926106cd565b600954604051636eb1769f60e11b81523060048201526001600160a01b0391821660248201819052909a90916020918c916044918391165afa8015610998578e9a879161095f575b50610946575b506009546109419083906001600160a01b03908116908c1661447d565b6106c5565b610959906001600160a01b038b166143c1565b38610924565b96505098506020853d602011610990575b8161097d6020938361371e565b81010312610300578c988f95513861091e565b3d9150610970565b6040513d88823e3d90fd5b604051636eb1769f60e11b81523060048201526001600160a01b03821660248201529750602088806044810103816001600160a01b038e165afa8015610a67578c988591610a2e575b50610a15575b50600954610a0f9083906001600160a01b03908116908c1661447d565b386106b9565b610a28906001600160a01b038b166143c1565b386109f2565b94505096506020833d602011610a5f575b81610a4c6020938361371e565b81010312610300578a968d9351386109ec565b3d9150610a3f565b6040513d86823e3d90fd5b508161069c565b8190610685565b610aa79195949392995060203d602011610ab2575b610a9f818361371e565b810190613ed8565b97909192933861066a565b503d610a95565b6040513d84823e3d90fd5b6020919850610adf90823d8411610ab257610a9f818361371e565b9790610645565b60405162461bcd60e51b815260206004820152601860248201527f62617365206173736574206e6f7420737570706f7274656400000000000000006044820152606490fd5b60405162461bcd60e51b815260206004820152601660248201527524b73b30b634b2103837b9b4ba34b7b71037bbb732b960511b6044820152606490fd5b60405162461bcd60e51b815260206004820152600d60248201526c496e76616c69642072616e676560981b6044820152606490fd5b60405162461bcd60e51b815260206004820152601d60248201527f416d6f756e74732061727261792063616e6e6f7420626520656d7074790000006044820152606490fd5b8780fd5b8580fd5b8135815260209182019101610577565b5034610279578060031936011261027957600b546040516001600160a01b039091168152602090f35b5034610279578060031936011261027957602060ff600d5460a01c166040519015158152f35b503461027957602036600319011261027957610c64613603565b610c6c61406c565b600c80546001600160a01b0319166001600160a01b039290921691821790557fc10a21a67f3b69d3034d57ebbde814014797fdcb1c153f007f47296412e930b58280a280f35b50346102795760c036600319011261027957610ccc613603565b81610cd5613619565b610cdd61362f565b90606435610ce9613645565b90610cf261406c565b610cfa614095565b610d026140b2565b6008546001600160a01b031695610d1a871515613dc1565b604051636eb1769f60e11b81523060048201526001600160a01b0388811660248301529190911696906020816044818b5afa908115610eb8578791610e76575b50916020959391610df89593610e66575b50600854610d849082906001600160a01b03168a61447d565b60018060a01b03600854169360405193610d9d856136cb565b8985526001600160a01b039081168886015260408086018a9052918116606086015242608086015260a085019290925260843560c0850152911660e083015251630b3ce3c960e11b8152948593849283919060048301613dfe565b03925af192831561030d5792610e30575b6008546020908490610e24906001600160a01b0316856143c1565b60018055604051908152f35b91506020823d602011610e5e575b81610e4b6020938361371e565b8101031261030057905190610e24610e09565b3d9150610e3e565b610e7090896143c1565b38610d6b565b949296505093916020843d602011610eb0575b81610e966020938361371e565b810103126103005792518795929491939291906020610d5a565b3d9150610e89565b6040513d89823e3d90fd5b503461027957602036600319011261027957610edd613603565b610ee561406c565b600d80546001600160a01b0319166001600160a01b039290921691821790557fb3b3f5f64ab192e4b5fefde1f51ce9733bbdcf831951543b325aebd49cc27ec48280a280f35b503461027957610f3a366137a1565b92610f46929192614095565b610f4e6140b2565b60ff600d5460a01c168015611908575b80156118e1575b156118ab576001600160a01b031680855260036020526040852054909190610f8f9060ff16613a54565b8215611866576001600160a01b0316801561182a57817f88d1bc9b918b502e5c73359c379d28f57bed4b4db835e92bbcc41c5f3bcaf5296040518581526040602082015280610fe16040820189613840565b0390a38251830160e084602083019203126118265761100260208501613ec4565b9161100f60408601613ec4565b9460608101516001600160401b038111610be35781019280603f85011215610be357602084015161103f81613829565b9461104d604051968761371e565b8186526020808088019360051b8301010192831161182257604001905b8282106118125750505061108060808201613963565b61108c60a08301613963565b6110a460e061109d60c08601613ec4565b9401613912565b6001600160a01b0393841698841696909316938690036117dc576110c9818386613c12565b92909660405196630dfe168160e01b88526020886004818a5afa9788156114b6578c986117bb575b5060405163d21220a760e01b81529960208b6004818b5afa9a8b156117b0578d9b61178f575b50815115611787578c61112983613b69565b51925b600181511160001461177b576020611145602492613b76565b51955b6040516370a0823160e01b815230600482015292839182905afa91821561030d5791611749575b50106117045787898b97838f94159586159687611634575b81159081159485611564575b60095486906001600160a01b03168b6111ad821515613ef7565b6114c1575b506113e4575b61ffff8116156113d35761ffff905b1690156113805787915b15611330575086915b600954604051976001600160a01b0390911694906111f789613702565b600160a01b60019003169d8e8952600160a01b6001900316968760208a01528960408a015260020b60608901528c60020b608089015260a088015260c087015260e0860152610100850152306101208501524261014085015260405180809563fe3f3be760e01b8252600482019061126e91613f77565b0381875a94608095f1988915610a67578e958e94869b6112df575b50988d7f7112c6849012c19915dd63e9b6905b8febad32e176de071fb5b3b3d757d288199e98958e8e6112d29a976107e79f9e978f97879f9c9961080f57506107f15750614548565b9760405196879687614013565b8d939b508a9996509d8098958d9b9298959f60803d608011611329575b611306818361371e565b810161131191613f45565b50509590959d95989b505095989e9497919a50611289565b503d6112fc565b939798999a9b5093509350935061271003612710811161136c57938e93838d938f9b9a9998976113658f979161271092613f32565b04916111da565b634e487b7160e01b8f52601160045260248ffd5b939798999a9b50935093509350806127100361271081116113be57938f94938d938f9b9a999897936127108f976113b79086613f32565b04916111d1565b50634e487b7160e01b8f52601160045260248ffd5b5061ffff80600c5460a01c166111c7565b8d60018060a01b031660018060a01b03600954169060405190636eb1769f60e11b825260208280611436863060048401909291602090604083019460018060a01b0316835260018060a01b0316910152565b0381845afa80156114b65787928d9161147d575b50926114689361146d575b506009546001600160a01b03169061447d565b6111b8565b61147790826143c1565b38611455565b9250506020823d6020116114ae575b816114996020938361371e565b8101031261030057905186919061146861144a565b3d915061148c565b6040513d8e823e3d90fd5b604051636eb1769f60e11b81523060048201526001600160a01b0382811660248301528b169250602081604481865afa9283156114b657899289928e95611526575b50611520939461146d57506009546001600160a01b03169061447d565b386111b2565b9250925092506020813d60201161155c575b816115456020938361371e565b810103126103005751918891889190611520611503565b3d9150611538565b6040516370a0823160e01b8152306004820152939d929891975095509190602090829060249082906001600160a01b03165afa908115610ab9578c92916115ff575b50106115ba578f94998e9a8d958f95611193565b60405162461bcd60e51b815260206004820152601960248201527f696e73756666696369656e7420746f6b656e312066756e6473000000000000006044820152606490fd5b9150506020813d60201161162c575b8161161b6020938361371e565b81010312610300578a9051386115a6565b3d915061160e565b6040516370a0823160e01b8152306004820152939b50919590949193509190602090829060249082906001600160a01b03165afa908115610ab9578592916116cf575b501061168a578b978e938b938d93611187565b60405162461bcd60e51b815260206004820152601960248201527f696e73756666696369656e7420746f6b656e302066756e6473000000000000006044820152606490fd5b9150506020813d6020116116fc575b816116eb6020938361371e565b810103126103005783905138611677565b3d91506116de565b60405162461bcd60e51b815260206004820152601960248201527f696e73756666696369656e7420626173652066756e64696e67000000000000006044820152606490fd5b90506020813d602011611773575b816117646020938361371e565b8101031261030057513861116f565b3d9150611757565b50602460208295611148565b8c809261112c565b6117a9919b5060203d602011610ab257610a9f818361371e565b9938611117565b6040513d8f823e3d90fd5b6117d591985060203d602011610ab257610a9f818361371e565b96386110f1565b60405162461bcd60e51b815260206004820152600e60248201526d0c2e6e6cae840dad2e6dac2e8c6d60931b6044820152606490fd5b815181526020918201910161106a565b8980fd5b8480fd5b60405162461bcd60e51b8152602060048201526014602482015273496e76616c69642075736572206164647265737360601b6044820152606490fd5b60405162461bcd60e51b815260206004820152601d60248201527f416d6f756e74206d7573742062652067726561746572207468616e20300000006044820152606490fd5b60405162461bcd60e51b815260206004820152600e60248201526d1b9bdd08185d5d1a1bdc9a5e995960921b6044820152606490fd5b50600b546001600160a01b031680151590816118fe575b50610f65565b90503314386118f8565b5084546001600160a01b03163314610f5e565b50346102795760203660031901126102795761194260018060a01b03600d541633146139d7565b61194a6140b2565b6004358152600460205260046040822061196a60ff600883015416613921565b015480151580611a6b575b15611a365760406119d5839260018060a01b036009541690835190611999826136e7565b81523060208201526001600160801b03848201526001600160801b036060820152835195868094819363fc6f786560e01b835260048301613e87565b03925af18015611a295760409282916119fa575b506001805582519182526020820152f35b9050611a1c9150823d8411611a22575b611a14818361371e565b810190613e71565b386119e9565b503d611a0a565b50604051903d90823e3d90fd5b60405162461bcd60e51b815260206004820152600d60248201526c13919413481b9bdd081d5cd959609a1b6044820152606490fd5b506009546001600160a01b03161515611975565b503461027957602036600319011261027957611a9961365b565b611aa161406c565b61ffff8116906127108211611afe57600c805461ffff60a01b191660a09290921b61ffff60a01b169190911790556040519081527fb32748f11f0a760d3d4770a5c7649c92eb2e1df92dda6f5da9348d28c19d69ae90602090a180f35b60405162461bcd60e51b815260206004820152600c60248201526b0c4e0e640e8dede40d0d2ced60a31b6044820152606490fd5b50346102795760e036600319011261027957600435611b4f613619565b906044356001600160401b03811161221057611b6f90369060040161366c565b9092611b79613645565b611b8e60018060a01b03600d541633146139d7565b611b96614095565b611b9e6140b2565b611ba9831515613a12565b83865260046020526040862092611bc660ff600886015416613921565b6001600160a01b0383168088526003602052604088205490939060ff16156121d657600185015460028601546001600160a01b0391821694918a9116611c0b896140d4565b9390839781612067575b505083611f04575b505050508215611ed15760ff600d5460a01c1615611ccf575b509082916060937f73d40f1f9c0775e6157122394be131c037056bff82d86f1f2f4103e318e1c2d57f0ae62392ec9c5ab769dc4d2bf163b81444f6d24444ed51eb54691b478634971a96600560018060a01b0391015416988993611ca56040519283928a84528a840191613881565b8660208301528a60408301520390a36040519160c435835260208301526040820152a36001805580f35b600a546001600160a01b0316611ce6811515613a96565b604051636eb1769f60e11b81523060048201526001600160a01b0382166024820152602081604481895afa908115611ec6578a91611e94575b50611e84575b50600a54611d3e9084906001600160a01b03168661447d565b600a5488906060906001600160a01b038116908390823b156104b957878c96936001600160401b03848094611d918b988d6040519a8b9889978896630f84dd7960e21b885260a01c169360048701613ad4565b03925af19182611e5f575b505096867f3a0b7fddf9c96c10649e612e9a4dc705ae782721ab6a4a7347cf6e0e13b6a1d28682989796611e3160609b977f73d40f1f9c0775e6157122394be131c037056bff82d86f1f2f4103e318e1c2d5977f0ae62392ec9c5ab769dc4d2bf163b81444f6d24444ed51eb54691b478634971a9e15600014611e565750611e226138a2565b905b8b60405195869586613b10565b0390a2600a54611e4a906001600160a01b0316846143c1565b96505050909192611c36565b90506001611e24565b81929493989796955090611e729161371e565b61182257909488929394958a38611d9c565b611e8e90856143c1565b38611d25565b90506020813d602011611ebe575b81611eaf6020938361371e565b81010312610300575138611d1f565b3d9150611ea2565b6040513d8c823e3d90fd5b60405162461bcd60e51b815260206004820152600b60248201526a6e6f2070726f636565647360a81b6044820152606490fd5b93959293818803611f275750505090611f1c91613e64565b915b38888180611c1d565b60085494969492939192602091611fc491611f58908a906001600160a01b0316611f52811515613dc1565b876144b6565b6008546040516001600160a01b0390911691611f73826136cb565b8682528b858301528760408301523060608301524260808301528a60a083015260843560c083015260018060a01b031660e0820152604051968780948193630b3ce3c960e11b835260048301613dfe565b03925af190811561205c5787938c92612024575b5090612005817f8d2c32089972a3f85b2b5a222cec8188a772bd6df05fbbd6ccd11851df27019d93613e64565b6040805198895260208901929092529087018a905295606090a3611f1e565b915092506020813d602011612054575b816120416020938361371e565b8101031261030057518692612005611fd8565b3d9150612034565b6040513d8d823e3d90fd5b91979091808a0361208657509061207d91613e64565b955b3880611c15565b6008549298928592506120af908a906001600160a01b03166120a9811515613dc1565b836144b6565b602061212260018060a01b03600854166040516120cb816136cb565b8481528381018e9052604080820187905230606083015242608083015260a082018e905260643560c08301526001600160a01b03881660e083015251630b3ce3c960e11b8152958693849283919060048301613dfe565b03925af1801561087e578c998b938792612178575b50604080519182526020820183905281019a909a52987f8d2c32089972a3f85b2b5a222cec8188a772bd6df05fbbd6ccd11851df27019d90606090a361207f565b965092505097506020843d6020116121ce575b816121986020938361371e565b81010312610300578a977f8d2c32089972a3f85b2b5a222cec8188a772bd6df05fbbd6ccd11851df27019d8a928f965191612137565b3d915061218b565b60405162461bcd60e51b815260206004820152601260248201527118985cd9481b9bdd081cdd5c1c1bdc9d195960721b6044820152606490fd5b8380fd5b50346102795760203660031901126102795761222e613603565b61223661406c565b60018060a01b03166001600160601b0360a01b600954161760095580f35b5034610279576020366003190112610279576004356001600160401b038116908181036104b5577fb9e8a579e9a0c4e7749fcfd43149d119da9113654e983feb7225f08a64802370916020916122a861406c565b6122ba60ff600b5460a01c16156138d2565b600a805467ffffffffffffffff60a01b191660a09290921b67ffffffffffffffff60a01b16919091179055604051908152a180f35b50346102795760203660031901126102795760406101a091600435815260046020522060018060a01b038154169060018060a01b036001820154169060028101546001600160801b03600383015416600483015460058401549160068501549360ff600860078801549701541696604051988952602089015260018060a01b03811660408901528060a01c60020b606089015260b81c60020b608088015260a087015260c086015260018060a01b03811660e08601528060a01c60020b61010086015260b81c60020b6101208501526101408401526101608301521515610180820152f35b5034610279578060031936011261027957602061ffff600c5460a01c16604051908152f35b5034610279578060031936011261027957546040516001600160a01b039091168152602090f35b503461027957806003193601126102795761243961406c565b612441614095565b600160ff1960025416176002557f62e78cea01bee320cd4e420270b5ea74000d11b0c9f74754ebdbfc544b05a2586020604051338152a180f35b503461027957602036600319011261027957612495613603565b61249d61406c565b6001600160a01b03168152600360205260408120805460ff1916905580f35b50346102795780600319360112610279576124d561406c565b80546001600160a01b03198116825581906001600160a01b03167f8be0079c531659141344cd1fd0a4f28419497f9722a3daafe3b4186f6b6457e08280a380f35b503461027957602036600319011261027957612530613603565b61253861406c565b6001600160a01b03168152600360205260408120805460ff1916600117905580f35b503461027957806003193601126102795761257361406c565b600b5460ff8160a01c166125b85760ff60a01b1916600160a01b17600b557f47b12a5127aee56eadd24cea9cdadf65050a7182da93368c3f64508c2eac0d138180a180f35b60405162461bcd60e51b815260206004820152600e60248201526d30b63932b0b23c90333937bd32b760911b6044820152606490fd5b50346102795760203660031901126102795760209060ff906040906001600160a01b03612619613603565b168152600384522054166040519015158152f35b503461027957606036600319011261027957612647613603565b602435908160020b82036104b557604435928360020b8403610279576040612670858585613c12565b82519160020b825260020b6020820152f35b50346102795780600319360112610279576020600654604051908152f35b5034610279578060031936011261027957806001600654905b8181111561297957506126cb82613829565b916126d9604051938461371e565b8083526126e8601f1991613829565b01835b81811061290f5750508260015b828111156127ff578385604051918291602083016020845282518091526020604085019301915b81811061272d575050500390f35b9193509160206101a06001926101808751858060a01b038151168352858060a01b03858201511685840152858060a01b036040820151166040840152606081015160020b6060840152608081015160020b60808401526001600160801b0360a08201511660a084015260c081015160c0840152858060a01b0360e08201511660e084015261010081015160020b61010084015261012081015160020b6101208401526101408101516101408401526101608101516101608401520151151561018082015201940191019184939261271f565b808552600460205260ff600860408720015416612825575b61282090613b44565b6126f8565b906129076128209183875260046020526040872060ff60086040519261284a84613699565b80546001600160a01b039081168552600182015481166020860152600280830154808316604088015260a081811c830b606089015260b891821c830b608089015260038501546001600160801b031688820152600485015460c0890152600585015493841660e089015283901c820b6101008801529190911c900b6101208501526006810154610140850152600781015461016085015201541615156101808201526128f68288613b86565b526129018187613b86565b50613b44565b919050612817565b60209060405161291e81613699565b86815286838201528660408201528660608201528660808201528660a08201528660c08201528660e08201528661010082015286610120820152866101408201528661016082015286610180820152828287010152016126eb565b808452600460205260ff60086040862001541661299f575b61299a90613b44565b6126b9565b916129ac61299a91613b44565b929050612991565b5034610279576040366003190112610279576129ce613603565b6001600160a01b03168152600560205260408120805460243592908310156102795760206129fc84846137fb565b90549060031b1c604051908152f35b50346102795760203660031901126102795760043563ffffffff8116908181036104b5577f0251e6f2d5d17a57707f74c15c4a10071ab5b45953476c7c9e3b1b992d9f9dd091602091612a5c61406c565b612a6e60ff600b5460a01c16156138d2565b600a80546001600160e01b031660e09290921b6001600160e01b031916919091179055604051908152a180f35b5034610279578060031936011261027957602060ff600254166040519015158152f35b5034610279578060031936011261027957600d546040516001600160a01b039091168152602090f35b503461027957608036600319011261027957612b01613603565b612b09613619565b604435916064356001600160401b03811161182657612b2c90369060040161366c565b612b3461406c565b612b3c614095565b612b446140b2565b612b4f811515613a12565b6001600160a01b03831680875260036020526040872054909490612b759060ff16613a54565b6040516370a0823160e01b815230600482015295602087602481895afa968715612e28578897612df4575b5080612dee5750855b8611612db257600a546001600160a01b0316612bc6811515613a96565b604051636eb1769f60e11b81523060048201526001600160a01b03821660248201526020816044818a5afa908115612da7578991612d75575b50612d65575b50600a54612c1e9087906001600160a01b03168761447d565b600a548794906060906001600160a01b038116908790823b156104b9578a88936001600160401b03848094612c718f9a8d6040519a8b9889978896630f84dd7960e21b885260a01c169360048701613ad4565b03925af19182612d44575b5050957f3a0b7fddf9c96c10649e612e9a4dc705ae782721ab6a4a7347cf6e0e13b6a1d2917f73d40f1f9c0775e6157122394be131c037056bff82d86f1f2f4103e318e1c2d59715600014612d3b5750612cd46138a2565b905b612ce86040519283928c898b86613b10565b0390a2600a54612d01906001600160a01b0316866143c1565b612d18604051938493606085526060850191613881565b6020830196909652604082018790526001600160a01b0316940390a36001805580f35b90506001612cd6565b819293945090612d539161371e565b612d61579086918938612c7c565b8880fd5b612d6f90866143c1565b38612c05565b90506020813d602011612d9f575b81612d906020938361371e565b81010312610300575138612bff565b3d9150612d83565b6040513d8b823e3d90fd5b60405162461bcd60e51b8152602060048201526014602482015273696e73756666696369656e742062616c616e636560601b6044820152606490fd5b95612ba9565b9096506020813d602011612e20575b81612e106020938361371e565b8101031261030057519538612ba0565b3d9150612e03565b6040513d8a823e3d90fd5b503461027957602036600319011261027957612e4d613603565b612e5561406c565b612e6760ff600b5460a01c16156138d2565b600a80546001600160a01b0319166001600160a01b039290921691821790557f37a5ad90dee0a8eb332155c0562fe000a288bf5e452bc8ec70de3d57d9396a178280a280f35b503461027957602036600319011261027957612ed460018060a01b03600d541633146139d7565b612edc614095565b612ee46140b2565b6040612ef16004356140d4565b6001805582519182526020820152f35b5034610279576020366003190112610279576004358152600460205260408120612f3160ff600883015416613921565b80546040516339db007960e21b81529060c090829060049082906001600160a01b03165afa908115612fd6579060029160409491612fa1575b50810b910154908160a01c60020b8112918215612f91575b50825191151582526020820152f35b60b81c60020b8113915038612f82565b612fc3915060c03d60c011612fcf575b612fbb818361371e565b810190613971565b50505050905038612f6a565b503d612fb1565b6040513d85823e3d90fd5b5034610279578060031936011261027957612ffa61406c565b60025460ff81161561303a5760ff19166002557f5db9ee0a495bf2e6ff9c91a7834c1ba4fdd244a5e8aa4e537bd38aeae4b073aa6020604051338152a180f35b638dfc202b60e01b8252600482fd5b5034610279578060031936011261027957600a546040516001600160a01b039091168152602090f35b50346102795760803660031901126102795761308c613603565b613094613619565b6064356001600160a01b038116929190839003612210576007546001600160a01b031680156131625760408051635702821160e01b81526001600160a01b0394851660048201529290931660248301526044808301869052356064830152608482019390935291829060a490829086905af1908115610ab957829161311f575b602082604051908152f35b90506040813d60401161315a575b8161313a6040938361371e565b810103126104b957602091506131538282519201613912565b5038613114565b3d915061312d565b60405162461bcd60e51b815260206004820152600e60248201526d1c5d5bdd195c881b9bdd081cd95d60921b6044820152606490fd5b5034610279576020366003190112610279576131b2613603565b6131ba61406c565b600b54906131ce60ff8360a01c16156138d2565b6001600160a01b03166001600160a01b0319919091168117600b557ff58ff3d0da83a3532175d227f5be91d3c0cfd1a3a9a78309b6d32365f71765db8280a280f35b5034610279576020366003190112610279576001600160a01b03613232613603565b168152600560205260408120604051908160208254918281520190819285526020852090855b8181106132af575050508261326e91038361371e565b604051928392602084019060208552518091526040840192915b818110613296575050500390f35b8251845285945060209384019390920191600101613288565b8254845260209093019260019283019201613258565b5034610279576020366003190112610279576004358015158091036104b9576132ec61406c565b600d805460ff60a01b191660a09290921b60ff60a01b1691909117905580f35b50346102795761331b366137a1565b505050506020604051630a85bd0160e11b8152f35b50346102795760a03660031901126102795761334a61365b565b906024356001600160401b0381168091036104b9576044356001600160401b0381116104b55761337e90369060040161366c565b919093606435906084356001600160401b038116809103610be7576133a161406c565b6133a9614095565b6133b16140b2565b600a5460e01c801561354557600c546001600160a01b03168015613500578793606092823b15611822579161ffff918a809461341e6040519e8f96879586946350cbf3fb60e11b86526004860152169d8e60248501528d604485015260c0606485015260c4840191613881565b8a60848301528860a483015203925af197886134c2575b50906134ae9392917fa2132af2722fc0b72dd7e1b20df2e6a2ca16dc0e2a95fb807db5c906ca9107da9798156000146134b857506134716138a2565b925b600a5460e01c9560405197889788526020880152604087015260608601526080850152151560a084015260e060c084015260e0830190613840565b0390a16001805580f35b9260019250613473565b90876134f57fa2132af2722fc0b72dd7e1b20df2e6a2ca16dc0e2a95fb807db5c906ca9107da996134ae9796959461371e565b975090919293613435565b60405162461bcd60e51b815260206004820152601960248201527f78636d20747820707265636f6d70696c65206e6f7420736574000000000000006044820152606490fd5b60405162461bcd60e51b815260206004820152600e60248201526d1c185c985259081b9bdd081cd95d60921b6044820152606490fd5b503461027957604036600319011261027957613595613603565b61359d613619565b906135a661406c565b60018060a01b03166001600160601b0360a01b600754161760075560018060a01b03166001600160601b0360a01b600854161760085580f35b9050346104b957816003193601126104b95760209060ff600b5460a01c1615158152f35b600435906001600160a01b038216820361030057565b602435906001600160a01b038216820361030057565b604435906001600160a01b038216820361030057565b60a435906001600160a01b038216820361030057565b6004359061ffff8216820361030057565b9181601f84011215610300578235916001600160401b038311610300576020838186019501011161030057565b6101a081019081106001600160401b038211176136b557604052565b634e487b7160e01b600052604160045260246000fd5b61010081019081106001600160401b038211176136b557604052565b608081019081106001600160401b038211176136b557604052565b61016081019081106001600160401b038211176136b557604052565b90601f801991011681019081106001600160401b038211176136b557604052565b6001600160401b0381116136b557601f01601f191660200190565b81601f82011215610300578035906137718261373f565b9261377f604051948561371e565b8284526020838301011161030057816000926020809301838601378301015290565b906080600319830112610300576004356001600160a01b038116810361030057916024356001600160a01b0381168103610300579160443591606435906001600160401b038211610300576137f89160040161375a565b90565b80548210156138135760005260206000200190600090565b634e487b7160e01b600052603260045260246000fd5b6001600160401b0381116136b55760051b60200190565b919082519283825260005b84811061386c575050826000602080949584010152601f8019910116010190565b8060208092840101518282860101520161384b565b908060209392818452848401376000828201840152601f01601f1916010190565b3d156138cd573d906138b38261373f565b916138c1604051938461371e565b82523d6000602084013e565b606090565b156138d957565b60405162461bcd60e51b81526020600482015260116024820152703c31b69031b7b73334b390333937bd32b760791b6044820152606490fd5b519061ffff8216820361030057565b1561392857565b60405162461bcd60e51b8152602060048201526013602482015272506f736974696f6e206e6f742061637469766560681b6044820152606490fd5b51908160020b820361030057565b91908260c09103126103005781516001600160a01b0381168103610300579161399c60208201613963565b916139a960408301613912565b91606081015160ff81168103610300579160a06139c860808401613912565b92015180151581036103005790565b156139de57565b60405162461bcd60e51b815260206004820152600c60248201526b3737ba1037b832b930ba37b960a11b6044820152606490fd5b15613a1957565b60405162461bcd60e51b815260206004820152601360248201527234b73b30b634b2103232b9ba34b730ba34b7b760691b6044820152606490fd5b15613a5b57565b60405162461bcd60e51b8152602060048201526013602482015272151bdad95b881b9bdd081cdd5c1c1bdc9d1959606a1b6044820152606490fd5b15613a9d57565b60405162461bcd60e51b815260206004820152600f60248201526e1e1d1bdad95b9cc81b9bdd081cd95d608a1b6044820152606490fd5b93926060936001600160401b0393613b099398979860018060a01b031687526020870152608060408701526080860191613881565b9416910152565b916137f895939491613b2a91608085526080850191613881565b936020830152151560408201526060818403910152613840565b6000198114613b535760010190565b634e487b7160e01b600052601160045260246000fd5b8051156138135760200190565b8051600110156138135760400190565b80518210156138135760209160051b010190565b60649060020b02908160020b918203613b5357565b9060020b9060020b0190627fffff198212627fffff831317613b5357565b9060020b908115613bdf5760020b0790565b634e487b7160e01b600052601260045260246000fd5b600291820b910b0390627fffff198212627fffff831317613b5357565b9290928360020b6103e71981139081613db0575b81613da3575b5015613d68576040516339db007960e21b8152926001600160a01b03919091169060c084600481855afa918215613d3257600494600093613d3e575b50602090604051958680926334324e9f60e21b82525afa938415613d3257600094613cd8575b50613cd1613cc0613ccb92613cba613cb3613cad6137f898999a613b9a565b92613b9a565b9186613baf565b94613baf565b92613ccb8782613bcd565b90613bf5565b9482613bcd565b909293506020813d602011613d2a575b81613cf56020938361371e565b8101031261030057613cd1613cc06137f894613cba613cb3613cad613d1c613ccb97613963565b999850505050925050613c8e565b3d9150613ce8565b6040513d6000823e3d90fd5b6020919350613d5b9060c03d60c011612fcf57612fbb818361371e565b5050505090509290613c68565b60405162461bcd60e51b815260206004820152601360248201527272616e6765206f7574206f6620626f756e647360681b6044820152606490fd5b90508360020b1338613c2c565b90506103e88460020b131590613c26565b15613dc857565b60405162461bcd60e51b815260206004820152600e60248201526d1c9bdd5d195c881b9bdd081cd95d60921b6044820152606490fd5b81516001600160a01b0390811682526020808401518216908301526040808401518216908301526060808401518216908301526080808401519083015260a0808401519083015260c0808401519083015260e09283015116918101919091526101000190565b91908201809211613b5357565b9190826040910312610300576020825192015190565b91909160606001600160801b038160808401958051855260018060a01b036020820151166020860152826040820151166040860152015116910152565b51906001600160a01b038216820361030057565b9081602091031261030057516001600160a01b03811681036103005790565b15613efe57565b60405162461bcd60e51b815260206004820152600c60248201526b13919413481b9bdd081cd95d60a21b6044820152606490fd5b81810292918115918404141715613b5357565b91908260809103126103005781519160208101516001600160801b038116810361030057916060604083015192015190565b9190916101408061016083019460018060a01b03815116845260018060a01b03602082015116602085015260018060a01b036040820151166040850152606081015160020b6060850152608081015160020b608085015260a081015160a085015260c081015160c085015260e081015160e085015261010081015161010085015260018060a01b03610120820151166101208501520151910152565b6001600160a01b03918216815291811660208301529091166040820152600291820b606082015291900b60808201526001600160801b0390911660a082015260c00190565b61ffff16612710039061ffff8211613b5357565b6000546001600160a01b0316330361408057565b63118cdaa760e01b6000523360045260246000fd5b60ff600254166140a157565b63d93c066560e01b60005260046000fd5b6002600154146140c3576002600155565b633ee5aeb560e01b60005260046000fd5b6000918183526004602052604083209160088301926140f660ff855416613921565b6004810193845490811515806143ad575b1561436f5760018060a01b036009541660038401926001600160801b03845416916040519160a083018381106001600160401b0382111761435b57928b6001600160801b039a9b9c959360a493604096875283526020830194855285830182815260608401838152608085019142835288519e8f988997630624e65f60e11b8952516004890152511660248701525160448601525160648501525160848401525af1978815611a295781968299614334575b50888783604061421760018060a01b036009541686548351906141db826136e7565b81523060208201526001600160801b03848201526001600160801b036060820152835194858094819363fc6f786560e01b835260048301613e87565b03925af191821561087e5785918693614311575b508115801590614308575b6142e6575b5050505060018060a01b03600954169054813b156104b5578291602483926040519485938492630852cd8d60e31b845260048401525af18015610ab9576142d6575b505060ff1981541690556001600160801b03198154169055600560018060a01b0391015416907f6f7734c2b603545392ede46279193d0b944bffb5d4c822bb78cd37eb6c2aadc960408051858152876020820152a39190565b816142e09161371e565b3861427d565b6142fe949c506142f892939a50613e64565b97613e64565b973880808061423b565b50821515614236565b90925061432d915060403d604011611a2257611a14818361371e565b913861422b565b90985061435191965060403d604011611a2257611a14818361371e565b95909597386141b9565b634e487b7160e01b8c52604160045260248cfd5b60405162461bcd60e51b815260206004820152601660248201527513919413481c1bdcda5d1a5bdb881c995c5d5a5c995960521b6044820152606490fd5b506009546001600160a01b03161515614107565b60405190602060008184019463095ea7b360e01b865260018060a01b031694856024860152816044860152604485526143fb60648661371e565b84519082855af16000513d82614458575b50501561441857505050565b614451614456936040519063095ea7b360e01b60208301526024820152600060448201526044815261444b60648261371e565b826147d3565b6147d3565b565b90915061447557506001600160a01b0381163b15155b388061440c565b60011461446e565b60206000604051938285019063095ea7b360e01b825260018060a01b0316958660248701526044860152604485526143fb60648661371e565b604051636eb1769f60e11b81523060048201526001600160a01b0383166024820152909190602081806044810103816001600160a01b0387165afa908115613d3257600091614514575b506144569361450e91613e64565b9161447d565b90506020813d602011614540575b8161452f6020938361371e565b810103126103005751614456614500565b3d9150614522565b9598919692939790949860065461455e90613b44565b998a9889600655604051986145728a613699565b600160a01b600190031689526020890197600160a01b600190031688526040890190600160a01b60019003168152606089019660020b8752608089019a60020b8b5260a08901916001600160801b0316825260c0890192835260e0890195600160a01b60019003169a8b87526101008a019460020b85526101208a019560020b86526101408a01976103e889526101608b0199428b526101808c019c60018e52600052600460205260406000209b600160a01b6001900390600160a01b60019003905116166001600160601b0360a01b8d5416178c55600160a01b6001900390511660018c0190600160a01b60019003166001600160601b0360a01b82541617905560028b0192600160a01b6001900390600160a01b60019003905116166001600160601b0360a01b8454161783555160020b6146c890839081549060a01b62ffffff60a01b169062ffffff60a01b1916179055565b51815460b89190911b62ffffff60b81b1662ffffff60b81b19909116179055516003880180546001600160801b039092166fffffffffffffffffffffffffffffffff199092169190911790555160048701559151600586018054935160a01b62ffffff60a01b166001600160a01b039092166001600160b81b03199094169390931717825551815460b89190911b62ffffff60b81b1662ffffff60b81b199091161790555160068301555160078201556008019051151560ff198254169060ff16179055600052600560205260406000208054680100000000000000008110156136b5576147bb916001820181556137fb565b81549060031b9083821b91600019901b191617905590565b906000602091828151910182855af115613d32576000513d61482557506001600160a01b0381163b155b6148045750565b635274afe760e01b60009081526001600160a01b0391909116600452602490fd5b600114156147fd56fea2646970667358221220f85d514ab7bfc7501e313fe84f942e841c51483aa7f13c6359aed19e0e1fea4964736f6c634300081c0033","opcodes":"PUSH1 0x80 CALLVALUE PUSH2 0xFF JUMPI PUSH1 0x1F PUSH2 0x497F CODESIZE DUP2 SWAP1 SUB SWAP2 DUP3 ADD PUSH1 0x1F NOT AND DUP4 ADD SWAP2 PUSH1 0x1 PUSH1 0x1 PUSH1 0x40 SHL SUB DUP4 GT DUP5 DUP5 LT OR PUSH2 0x104 JUMPI DUP1 DUP5 SWAP3 PUSH1 0x20 SWAP5 PUSH1 0x40 MSTORE DUP4 CODECOPY DUP2 ADD SUB SLT PUSH2 0xFF JUMPI MLOAD PUSH1 0x1 PUSH1 0x1 PUSH1 0xA0 SHL SUB DUP2 AND SWAP1 DUP2 SWAP1 SUB PUSH2 0xFF JUMPI DUP1 ISZERO PUSH2 0xE9 JUMPI PUSH1 0x0 DUP1 SLOAD PUSH1 0x1 PUSH1 0x1 PUSH1 0xA0 SHL SUB NOT DUP2 AND DUP4 OR DUP3 SSTORE PUSH1 0x40 MLOAD SWAP3 SWAP2 DUP3 SWAP2 PUSH1 0x1 PUSH1 0x1 PUSH1 0xA0 SHL SUB AND SWAP1 PUSH32 0x8BE0079C531659141344CD1FD0A4F28419497F9722A3DAAFE3B4186F6B6457E0 SWAP1 DUP1 LOG3 PUSH1 0x1 DUP1 SSTORE PUSH3 0x59682F PUSH1 0xAA SHL PUSH1 0xA SSTORE PUSH1 0xB DUP1 SLOAD PUSH1 0x1 PUSH1 0x1 PUSH1 0xA8 SHL SUB NOT AND SWAP1 SSTORE PUSH1 0xC DUP1 SLOAD PUSH1 0x1 PUSH1 0x1 PUSH1 0xA0 SHL SUB NOT SWAP1 DUP2 AND SWAP1 SWAP2 SSTORE PUSH1 0xD DUP1 SLOAD SWAP1 SWAP2 AND SWAP2 SWAP1 SWAP2 OR SWAP1 SSTORE PUSH2 0x4864 SWAP1 DUP2 PUSH2 0x11B DUP3 CODECOPY RETURN JUMPDEST PUSH4 0x1E4FBDF7 PUSH1 0xE0 SHL PUSH1 0x0 MSTORE PUSH1 0x0 PUSH1 0x4 MSTORE PUSH1 0x24 PUSH1 0x0 REVERT JUMPDEST PUSH1 0x0 DUP1 REVERT JUMPDEST PUSH4 0x4E487B71 PUSH1 0xE0 SHL PUSH1 0x0 MSTORE PUSH1 0x41 PUSH1 0x4 MSTORE PUSH1 0x24 PUSH1 0x0 REVERT INVALID PUSH1 0x80 DUP1 PUSH1 0x40 MSTORE PUSH1 0x4 CALLDATASIZE LT ISZERO PUSH2 0x13 JUMPI PUSH1 0x0 DUP1 REVERT JUMPDEST PUSH1 0x0 SWAP1 DUP2 CALLDATALOAD PUSH1 0xE0 SHR SWAP1 DUP2 PUSH3 0xCAC96C EQ PUSH2 0x35DF JUMPI POP DUP1 PUSH4 0x10AF06A2 EQ PUSH2 0x357B JUMPI DUP1 PUSH4 0x11B21ACF EQ PUSH2 0x3330 JUMPI DUP1 PUSH4 0x150B7A02 EQ PUSH2 0x330C JUMPI DUP1 PUSH4 0x1FF1292F EQ PUSH2 0x32C5 JUMPI DUP1 PUSH4 0x2A6BC2DD EQ PUSH2 0x3210 JUMPI DUP1 PUSH4 0x2D349E51 EQ PUSH2 0x3198 JUMPI DUP1 PUSH4 0x2D9EBD1D EQ PUSH2 0x3072 JUMPI DUP1 PUSH4 0x2FE220A4 EQ PUSH2 0x3049 JUMPI DUP1 PUSH4 0x3F4BA83A EQ PUSH2 0x2FE1 JUMPI DUP1 PUSH4 0x41051EF8 EQ PUSH2 0x2F01 JUMPI DUP1 PUSH4 0x4D0E5DB4 EQ PUSH2 0x2EAD JUMPI DUP1 PUSH4 0x4D7F9CC9 EQ PUSH2 0x2E33 JUMPI DUP1 PUSH4 0x54422760 EQ PUSH2 0x2AE7 JUMPI DUP1 PUSH4 0x570CA735 EQ PUSH2 0x2ABE JUMPI DUP1 PUSH4 0x5C975ABB EQ PUSH2 0x2A9B JUMPI DUP1 PUSH4 0x5CB124A8 EQ PUSH2 0x2A0B JUMPI DUP1 PUSH4 0x5E1B4D99 EQ PUSH2 0x29B4 JUMPI DUP1 PUSH4 0x5FC75EC2 EQ PUSH2 0x26A0 JUMPI DUP1 PUSH4 0x63D5AB8D EQ PUSH2 0x2682 JUMPI DUP1 PUSH4 0x649BA22C EQ PUSH2 0x262D JUMPI DUP1 PUSH4 0x68C4AC26 EQ PUSH2 0x25EE JUMPI DUP1 PUSH4 0x6B3F1FDB EQ PUSH2 0x255A JUMPI DUP1 PUSH4 0x6D69FCAF EQ PUSH2 0x2516 JUMPI DUP1 PUSH4 0x715018A6 EQ PUSH2 0x24BC JUMPI DUP1 PUSH4 0x76319190 EQ PUSH2 0x247B JUMPI DUP1 PUSH4 0x8456CB59 EQ PUSH2 0x2420 JUMPI DUP1 PUSH4 0x8DA5CB5B EQ PUSH2 0x23F9 JUMPI DUP1 PUSH4 0x96667621 EQ PUSH2 0x23D4 JUMPI DUP1 PUSH4 0x99FBAB88 EQ PUSH2 0x22EF JUMPI DUP1 PUSH4 0x9AA79A84 EQ PUSH2 0x2254 JUMPI DUP1 PUSH4 0x9FB3B5AB EQ PUSH2 0x2214 JUMPI DUP1 PUSH4 0xA23C34A8 EQ PUSH2 0x1B32 JUMPI DUP1 PUSH4 0xA3B45A2A EQ PUSH2 0x1A7F JUMPI DUP1 PUSH4 0xB17ACDCD EQ PUSH2 0x191B JUMPI DUP1 PUSH4 0xB2DC6007 EQ PUSH2 0xF2B JUMPI DUP1 PUSH4 0xB3AB15FB EQ PUSH2 0xEC3 JUMPI DUP1 PUSH4 0xB9C6CCE6 EQ PUSH2 0xCB2 JUMPI DUP1 PUSH4 0xC332BEC1 EQ PUSH2 0xC4A JUMPI DUP1 PUSH4 0xCD9EA342 EQ PUSH2 0xC24 JUMPI DUP1 PUSH4 0xD1074172 EQ PUSH2 0xBFB JUMPI DUP1 PUSH4 0xD6AEC8A9 EQ PUSH2 0x507 JUMPI DUP1 PUSH4 0xDFAA9B70 EQ PUSH2 0x4E6 JUMPI DUP1 PUSH4 0xE178B5DD EQ PUSH2 0x4BD JUMPI DUP1 PUSH4 0xE34FE513 EQ PUSH2 0x41B JUMPI DUP1 PUSH4 0xE84073F6 EQ PUSH2 0x3F2 JUMPI DUP1 PUSH4 0xF2FDE38B EQ PUSH2 0x36C JUMPI DUP1 PUSH4 0xF699C43A EQ PUSH2 0x342 JUMPI DUP1 PUSH4 0xF84144FB EQ PUSH2 0x319 JUMPI DUP1 PUSH4 0xF8B2CB4F EQ PUSH2 0x27C JUMPI PUSH4 0xFEE4E474 EQ PUSH2 0x251 JUMPI PUSH1 0x0 DUP1 REVERT JUMPDEST CALLVALUE PUSH2 0x279 JUMPI DUP1 PUSH1 0x3 NOT CALLDATASIZE ADD SLT PUSH2 0x279 JUMPI PUSH1 0x8 SLOAD PUSH1 0x40 MLOAD PUSH1 0x1 PUSH1 0x1 PUSH1 0xA0 SHL SUB SWAP1 SWAP2 AND DUP2 MSTORE PUSH1 0x20 SWAP1 RETURN JUMPDEST DUP1 REVERT JUMPDEST POP CALLVALUE PUSH2 0x279 JUMPI PUSH1 0x20 CALLDATASIZE PUSH1 0x3 NOT ADD SLT PUSH2 0x279 JUMPI PUSH1 0x24 SWAP1 PUSH1 0x20 PUSH1 0x1 PUSH1 0x1 PUSH1 0xA0 SHL SUB PUSH2 0x2A3 PUSH2 0x3603 JUMP JUMPDEST AND PUSH1 0x40 MLOAD SWAP4 DUP5 DUP1 SWAP3 PUSH4 0x70A08231 PUSH1 0xE0 SHL DUP3 MSTORE ADDRESS PUSH1 0x4 DUP4 ADD MSTORE GAS STATICCALL SWAP1 DUP2 ISZERO PUSH2 0x30D JUMPI SWAP1 PUSH2 0x2D5 JUMPI JUMPDEST PUSH1 0x20 SWAP1 PUSH1 0x40 MLOAD SWAP1 DUP2 MSTORE RETURN JUMPDEST POP PUSH1 0x20 DUP2 RETURNDATASIZE PUSH1 0x20 GT PUSH2 0x305 JUMPI JUMPDEST DUP2 PUSH2 0x2EF PUSH1 0x20 SWAP4 DUP4 PUSH2 0x371E JUMP JUMPDEST DUP2 ADD SUB SLT PUSH2 0x300 JUMPI PUSH1 0x20 SWAP1 MLOAD PUSH2 0x2CA JUMP JUMPDEST PUSH1 0x0 DUP1 REVERT JUMPDEST RETURNDATASIZE SWAP2 POP PUSH2 0x2E2 JUMP JUMPDEST PUSH1 0x40 MLOAD SWAP1 RETURNDATASIZE SWAP1 DUP3 RETURNDATACOPY RETURNDATASIZE SWAP1 REVERT JUMPDEST POP CALLVALUE PUSH2 0x279 JUMPI DUP1 PUSH1 0x3 NOT CALLDATASIZE ADD SLT PUSH2 0x279 JUMPI PUSH1 0x9 SLOAD PUSH1 0x40 MLOAD PUSH1 0x1 PUSH1 0x1 PUSH1 0xA0 SHL SUB SWAP1 SWAP2 AND DUP2 MSTORE PUSH1 0x20 SWAP1 RETURN JUMPDEST POP CALLVALUE PUSH2 0x279 JUMPI DUP1 PUSH1 0x3 NOT CALLDATASIZE ADD SLT PUSH2 0x279 JUMPI PUSH1 0x20 PUSH1 0x1 PUSH1 0x1 PUSH1 0x40 SHL SUB PUSH1 0xA SLOAD PUSH1 0xA0 SHR AND PUSH1 0x40 MLOAD SWAP1 DUP2 MSTORE RETURN JUMPDEST POP CALLVALUE PUSH2 0x279 JUMPI PUSH1 0x20 CALLDATASIZE PUSH1 0x3 NOT ADD SLT PUSH2 0x279 JUMPI PUSH2 0x386 PUSH2 0x3603 JUMP JUMPDEST PUSH2 0x38E PUSH2 0x406C JUMP JUMPDEST PUSH1 0x1 PUSH1 0x1 PUSH1 0xA0 SHL SUB AND DUP1 ISZERO PUSH2 0x3DE JUMPI DUP2 SLOAD PUSH1 0x1 PUSH1 0x1 PUSH1 0xA0 SHL SUB NOT DUP2 AND DUP3 OR DUP4 SSTORE PUSH1 0x1 PUSH1 0x1 PUSH1 0xA0 SHL SUB AND PUSH32 0x8BE0079C531659141344CD1FD0A4F28419497F9722A3DAAFE3B4186F6B6457E0 DUP4 DUP1 LOG3 DUP1 RETURN JUMPDEST PUSH4 0x1E4FBDF7 PUSH1 0xE0 SHL DUP3 MSTORE PUSH1 0x4 DUP3 SWAP1 MSTORE PUSH1 0x24 DUP3 REVERT JUMPDEST POP CALLVALUE PUSH2 0x279 JUMPI DUP1 PUSH1 0x3 NOT CALLDATASIZE ADD SLT PUSH2 0x279 JUMPI PUSH1 0x7 SLOAD PUSH1 0x40 MLOAD PUSH1 0x1 PUSH1 0x1 PUSH1 0xA0 SHL SUB SWAP1 SWAP2 AND DUP2 MSTORE PUSH1 0x20 SWAP1 RETURN JUMPDEST POP CALLVALUE PUSH2 0x279 JUMPI PUSH1 0x60 CALLDATASIZE PUSH1 0x3 NOT ADD SLT PUSH2 0x279 JUMPI PUSH1 0x4 CALLDATALOAD PUSH1 0xFF DUP2 AND DUP2 SUB PUSH2 0x4B9 JUMPI PUSH1 0x24 CALLDATALOAD PUSH1 0xFF DUP2 AND DUP2 SUB PUSH2 0x4B5 JUMPI PUSH1 0x44 CALLDATALOAD SWAP3 PUSH1 0x1 PUSH1 0x1 PUSH1 0x40 SHL SUB DUP5 GT PUSH2 0x279 JUMPI POP PUSH2 0x46B PUSH2 0x4B1 SWAP4 CALLDATASIZE SWAP1 PUSH1 0x4 ADD PUSH2 0x375A JUMP JUMPDEST POP PUSH1 0x40 MLOAD PUSH1 0x1 PUSH1 0x1 PUSH1 0xF8 SHL SUB NOT PUSH1 0xF8 SWAP4 DUP5 SHL DUP2 AND PUSH1 0x20 DUP4 ADD MSTORE SWAP2 SWAP1 SWAP3 SHL AND PUSH1 0x21 DUP3 ADD MSTORE PUSH1 0x2 DUP2 MSTORE PUSH2 0x49D PUSH1 0x22 DUP3 PUSH2 0x371E JUMP JUMPDEST PUSH1 0x40 MLOAD SWAP2 DUP3 SWAP2 PUSH1 0x20 DUP4 MSTORE PUSH1 0x20 DUP4 ADD SWAP1 PUSH2 0x3840 JUMP JUMPDEST SUB SWAP1 RETURN JUMPDEST DUP3 DUP1 REVERT JUMPDEST POP DUP1 REVERT JUMPDEST POP CALLVALUE PUSH2 0x279 JUMPI DUP1 PUSH1 0x3 NOT CALLDATASIZE ADD SLT PUSH2 0x279 JUMPI PUSH1 0xC SLOAD PUSH1 0x40 MLOAD PUSH1 0x1 PUSH1 0x1 PUSH1 0xA0 SHL SUB SWAP1 SWAP2 AND DUP2 MSTORE PUSH1 0x20 SWAP1 RETURN JUMPDEST POP CALLVALUE PUSH2 0x279 JUMPI DUP1 PUSH1 0x3 NOT CALLDATASIZE ADD SLT PUSH2 0x279 JUMPI PUSH1 0x20 PUSH1 0xA SLOAD PUSH1 0xE0 SHR PUSH1 0x40 MLOAD SWAP1 DUP2 MSTORE RETURN JUMPDEST POP CALLVALUE PUSH2 0x279 JUMPI PUSH1 0xC0 CALLDATASIZE PUSH1 0x3 NOT ADD SLT PUSH2 0x279 JUMPI PUSH2 0x521 PUSH2 0x3603 JUMP JUMPDEST PUSH1 0x24 CALLDATALOAD PUSH1 0x1 PUSH1 0x1 PUSH1 0x40 SHL SUB DUP2 GT PUSH2 0x4B5 JUMPI CALLDATASIZE PUSH1 0x23 DUP3 ADD SLT ISZERO PUSH2 0x4B5 JUMPI DUP1 PUSH1 0x4 ADD CALLDATALOAD SWAP1 PUSH2 0x54C DUP3 PUSH2 0x3829 JUMP JUMPDEST SWAP2 PUSH2 0x55A PUSH1 0x40 MLOAD SWAP4 DUP5 PUSH2 0x371E JUMP JUMPDEST DUP1 DUP4 MSTORE PUSH1 0x24 PUSH1 0x20 DUP5 ADD SWAP2 PUSH1 0x5 SHL DUP4 ADD ADD SWAP2 CALLDATASIZE DUP4 GT PUSH2 0xBE7 JUMPI PUSH1 0x24 ADD SWAP1 JUMPDEST DUP3 DUP3 LT PUSH2 0xBEB JUMPI POP POP POP PUSH2 0x589 PUSH2 0x362F JUMP JUMPDEST SWAP2 PUSH1 0x64 CALLDATALOAD DUP1 PUSH1 0x2 SIGNEXTEND DUP1 DUP3 SUB PUSH2 0xBE7 JUMPI PUSH1 0x84 CALLDATALOAD SWAP3 DUP4 PUSH1 0x2 SIGNEXTEND DUP1 DUP6 SUB PUSH2 0xBE3 JUMPI PUSH2 0x5AF PUSH2 0x3645 JUMP JUMPDEST SWAP3 PUSH2 0x5B8 PUSH2 0x406C JUMP JUMPDEST PUSH2 0x5C0 PUSH2 0x4095 JUMP JUMPDEST PUSH2 0x5C8 PUSH2 0x40B2 JUMP JUMPDEST DUP7 MLOAD ISZERO PUSH2 0xB9E JUMPI SLT ISZERO PUSH2 0xB69 JUMPI PUSH1 0x1 PUSH1 0x1 PUSH1 0xA0 SHL SUB DUP3 AND ISZERO PUSH2 0xB2B JUMPI PUSH1 0x1 PUSH1 0x1 PUSH1 0xA0 SHL SUB AND DUP7 MSTORE PUSH1 0x3 PUSH1 0x20 MSTORE PUSH1 0x40 DUP7 KECCAK256 SLOAD PUSH1 0xFF AND ISZERO PUSH2 0xAE6 JUMPI PUSH2 0x60C DUP4 DUP4 DUP8 PUSH2 0x3C12 JUMP JUMPDEST PUSH1 0x40 MLOAD PUSH4 0xDFE1681 PUSH1 0xE0 SHL DUP2 MSTORE SWAP6 PUSH1 0x1 PUSH1 0x1 PUSH1 0xA0 SHL SUB DUP9 AND SWAP5 SWAP2 SWAP3 SWAP2 SWAP1 DUP10 SWAP1 PUSH1 0x20 DUP10 PUSH1 0x4 DUP2 DUP11 GAS STATICCALL SWAP7 DUP8 ISZERO PUSH2 0xAB9 JUMPI PUSH1 0x4 SWAP10 DUP4 SWAP9 PUSH2 0xAC4 JUMPI JUMPDEST POP PUSH1 0x20 SWAP1 PUSH1 0x40 MLOAD SWAP11 DUP12 DUP1 SWAP3 PUSH4 0xD21220A7 PUSH1 0xE0 SHL DUP3 MSTORE GAS STATICCALL SWAP9 DUP10 ISZERO PUSH2 0xAB9 JUMPI DUP3 SWAP10 PUSH2 0xA80 JUMPI JUMPDEST POP DUP1 MLOAD DUP10 SWAP6 SWAP5 SWAP4 SWAP3 SWAP2 SWAP1 ISZERO PUSH2 0xA79 JUMPI PUSH2 0x682 DUP2 PUSH2 0x3B69 JUMP JUMPDEST MLOAD SWAP1 JUMPDEST PUSH1 0x1 DUP2 MLOAD GT PUSH1 0x0 EQ PUSH2 0xA72 JUMPI PUSH2 0x69A SWAP1 PUSH2 0x3B76 JUMP JUMPDEST MLOAD JUMPDEST PUSH1 0x9 SLOAD PUSH1 0x1 PUSH1 0x1 PUSH1 0xA0 SHL SUB AND PUSH2 0x6B3 DUP2 ISZERO ISZERO PUSH2 0x3EF7 JUMP JUMPDEST DUP3 PUSH2 0x9A3 JUMPI JUMPDEST POP DUP1 ISZERO SWAP1 DUP2 ISZERO DUP1 PUSH2 0x8D6 JUMPI JUMPDEST DUP4 PUSH2 0x8AF JUMPI DUP5 SWAP3 JUMPDEST ISZERO PUSH2 0x889 JUMPI DUP5 JUMPDEST PUSH1 0x9 SLOAD PUSH1 0x40 MLOAD SWAP5 PUSH1 0x1 PUSH1 0x1 PUSH1 0xA0 SHL SUB SWAP1 SWAP2 AND SWAP2 SWAP1 PUSH2 0x6F1 DUP7 PUSH2 0x3702 JUMP JUMPDEST DUP14 PUSH1 0x1 PUSH1 0xA0 SHL PUSH1 0x1 SWAP1 SUB AND SWAP12 DUP13 DUP8 MSTORE PUSH1 0x1 PUSH1 0xA0 SHL PUSH1 0x1 SWAP1 SUB AND SWAP5 DUP6 PUSH1 0x20 DUP9 ADD MSTORE DUP9 PUSH1 0x40 DUP9 ADD MSTORE DUP11 PUSH1 0x2 SIGNEXTEND PUSH1 0x60 DUP9 ADD MSTORE DUP12 PUSH1 0x2 SIGNEXTEND PUSH1 0x80 DUP9 ADD MSTORE DUP8 PUSH1 0xA0 DUP9 ADD MSTORE PUSH1 0xC0 DUP8 ADD MSTORE PUSH1 0xE0 DUP7 ADD MSTORE PUSH2 0x100 DUP6 ADD MSTORE ADDRESS PUSH2 0x120 DUP6 ADD MSTORE TIMESTAMP PUSH2 0x140 DUP6 ADD MSTORE PUSH1 0x40 MLOAD DUP1 DUP1 SWAP6 PUSH4 0xFE3F3BE7 PUSH1 0xE0 SHL DUP3 MSTORE PUSH1 0x4 DUP3 ADD SWAP1 PUSH2 0x76B SWAP2 PUSH2 0x3F77 JUMP JUMPDEST SUB DUP2 DUP9 GAS SWAP5 PUSH1 0x80 SWAP6 CALL SWAP9 DUP10 ISZERO PUSH2 0x87E JUMPI DUP14 SWAP5 DUP16 SWAP5 DUP8 SWAP12 PUSH2 0x82D JUMPI JUMPDEST POP SWAP9 DUP9 PUSH32 0x7112C6849012C19915DD63E9B6905B8FEBAD32E176DE071FB5B3B3D757D28819 SWAP15 SWAP7 DUP15 DUP4 SWAP12 SWAP11 SWAP8 DUP16 SWAP8 PUSH2 0x7E7 SWAP16 SWAP15 SWAP8 DUP16 SWAP8 PUSH2 0x7D1 SWAP14 SWAP10 PUSH2 0x80F JUMPI JUMPDEST POP PUSH2 0x7F1 JUMPI JUMPDEST POP PUSH2 0x4548 JUMP JUMPDEST SWAP8 PUSH1 0x40 MLOAD SWAP7 DUP8 SWAP7 PUSH1 0x1 DUP1 PUSH1 0xA0 SHL SUB AND SWAP11 DUP8 PUSH2 0x4013 JUMP JUMPDEST SUB SWAP1 LOG3 PUSH1 0x1 DUP1 SSTORE DUP1 RETURN JUMPDEST PUSH1 0x9 SLOAD PUSH2 0x809 SWAP2 PUSH1 0x1 PUSH1 0x1 PUSH1 0xA0 SHL SUB SWAP1 SWAP2 AND SWAP1 PUSH2 0x43C1 JUMP JUMPDEST CODESIZE PUSH2 0x7CB JUMP JUMPDEST PUSH1 0x9 SLOAD PUSH2 0x827 SWAP2 PUSH1 0x1 PUSH1 0x1 PUSH1 0xA0 SHL SUB SWAP1 SWAP2 AND SWAP1 PUSH2 0x43C1 JUMP JUMPDEST CODESIZE PUSH2 0x7C5 JUMP JUMPDEST DUP14 SWAP4 SWAP12 POP DUP11 SWAP10 SWAP9 SWAP6 SWAP11 SWAP2 SWAP8 POP DUP13 SWAP5 SWAP15 SWAP7 DUP10 SWAP2 PUSH1 0x80 RETURNDATASIZE PUSH1 0x80 GT PUSH2 0x877 JUMPI JUMPDEST PUSH2 0x854 DUP2 DUP4 PUSH2 0x371E JUMP JUMPDEST DUP2 ADD PUSH2 0x85F SWAP2 PUSH2 0x3F45 JUMP JUMPDEST POP POP SWAP6 SWAP1 SWAP6 SWAP14 SWAP6 SWAP10 SWAP4 POP POP SWAP7 SWAP15 SWAP5 POP SWAP9 SWAP10 SWAP5 SWAP8 PUSH2 0x786 JUMP JUMPDEST POP RETURNDATASIZE PUSH2 0x84A JUMP JUMPDEST PUSH1 0x40 MLOAD RETURNDATASIZE DUP8 DUP3 RETURNDATACOPY RETURNDATASIZE SWAP1 REVERT JUMPDEST PUSH2 0x2710 PUSH2 0x8A9 PUSH2 0xFFFF PUSH2 0x8A2 DUP2 PUSH1 0xC SLOAD PUSH1 0xA0 SHR AND PUSH2 0x4058 JUMP JUMPDEST AND DUP5 PUSH2 0x3F32 JUMP JUMPDEST DIV PUSH2 0x6D4 JUMP JUMPDEST PUSH2 0x2710 PUSH2 0x8CF PUSH2 0xFFFF PUSH2 0x8C8 DUP2 PUSH1 0xC SLOAD PUSH1 0xA0 SHR AND PUSH2 0x4058 JUMP JUMPDEST AND DUP7 PUSH2 0x3F32 JUMP JUMPDEST DIV SWAP3 PUSH2 0x6CD JUMP JUMPDEST PUSH1 0x9 SLOAD PUSH1 0x40 MLOAD PUSH4 0x6EB1769F PUSH1 0xE1 SHL DUP2 MSTORE ADDRESS PUSH1 0x4 DUP3 ADD MSTORE PUSH1 0x1 PUSH1 0x1 PUSH1 0xA0 SHL SUB SWAP2 DUP3 AND PUSH1 0x24 DUP3 ADD DUP2 SWAP1 MSTORE SWAP1 SWAP11 SWAP1 SWAP2 PUSH1 0x20 SWAP2 DUP13 SWAP2 PUSH1 0x44 SWAP2 DUP4 SWAP2 AND GAS STATICCALL DUP1 ISZERO PUSH2 0x998 JUMPI DUP15 SWAP11 DUP8 SWAP2 PUSH2 0x95F JUMPI JUMPDEST POP PUSH2 0x946 JUMPI JUMPDEST POP PUSH1 0x9 SLOAD PUSH2 0x941 SWAP1 DUP4 SWAP1 PUSH1 0x1 PUSH1 0x1 PUSH1 0xA0 SHL SUB SWAP1 DUP2 AND SWAP1 DUP13 AND PUSH2 0x447D JUMP JUMPDEST PUSH2 0x6C5 JUMP JUMPDEST PUSH2 0x959 SWAP1 PUSH1 0x1 PUSH1 0x1 PUSH1 0xA0 SHL SUB DUP12 AND PUSH2 0x43C1 JUMP JUMPDEST CODESIZE PUSH2 0x924 JUMP JUMPDEST SWAP7 POP POP SWAP9 POP PUSH1 0x20 DUP6 RETURNDATASIZE PUSH1 0x20 GT PUSH2 0x990 JUMPI JUMPDEST DUP2 PUSH2 0x97D PUSH1 0x20 SWAP4 DUP4 PUSH2 0x371E JUMP JUMPDEST DUP2 ADD SUB SLT PUSH2 0x300 JUMPI DUP13 SWAP9 DUP16 SWAP6 MLOAD CODESIZE PUSH2 0x91E JUMP JUMPDEST RETURNDATASIZE SWAP2 POP PUSH2 0x970 JUMP JUMPDEST PUSH1 0x40 MLOAD RETURNDATASIZE DUP9 DUP3 RETURNDATACOPY RETURNDATASIZE SWAP1 REVERT JUMPDEST PUSH1 0x40 MLOAD PUSH4 0x6EB1769F PUSH1 0xE1 SHL DUP2 MSTORE ADDRESS PUSH1 0x4 DUP3 ADD MSTORE PUSH1 0x1 PUSH1 0x1 PUSH1 0xA0 SHL SUB DUP3 AND PUSH1 0x24 DUP3 ADD MSTORE SWAP8 POP PUSH1 0x20 DUP9 DUP1 PUSH1 0x44 DUP2 ADD SUB DUP2 PUSH1 0x1 PUSH1 0x1 PUSH1 0xA0 SHL SUB DUP15 AND GAS STATICCALL DUP1 ISZERO PUSH2 0xA67 JUMPI DUP13 SWAP9 DUP6 SWAP2 PUSH2 0xA2E JUMPI JUMPDEST POP PUSH2 0xA15 JUMPI JUMPDEST POP PUSH1 0x9 SLOAD PUSH2 0xA0F SWAP1 DUP4 SWAP1 PUSH1 0x1 PUSH1 0x1 PUSH1 0xA0 SHL SUB SWAP1 DUP2 AND SWAP1 DUP13 AND PUSH2 0x447D JUMP JUMPDEST CODESIZE PUSH2 0x6B9 JUMP JUMPDEST PUSH2 0xA28 SWAP1 PUSH1 0x1 PUSH1 0x1 PUSH1 0xA0 SHL SUB DUP12 AND PUSH2 0x43C1 JUMP JUMPDEST CODESIZE PUSH2 0x9F2 JUMP JUMPDEST SWAP5 POP POP SWAP7 POP PUSH1 0x20 DUP4 RETURNDATASIZE PUSH1 0x20 GT PUSH2 0xA5F JUMPI JUMPDEST DUP2 PUSH2 0xA4C PUSH1 0x20 SWAP4 DUP4 PUSH2 0x371E JUMP JUMPDEST DUP2 ADD SUB SLT PUSH2 0x300 JUMPI DUP11 SWAP7 DUP14 SWAP4 MLOAD CODESIZE PUSH2 0x9EC JUMP JUMPDEST RETURNDATASIZE SWAP2 POP PUSH2 0xA3F JUMP JUMPDEST PUSH1 0x40 MLOAD RETURNDATASIZE DUP7 DUP3 RETURNDATACOPY RETURNDATASIZE SWAP1 REVERT JUMPDEST POP DUP2 PUSH2 0x69C JUMP JUMPDEST DUP2 SWAP1 PUSH2 0x685 JUMP JUMPDEST PUSH2 0xAA7 SWAP2 SWAP6 SWAP5 SWAP4 SWAP3 SWAP10 POP PUSH1 0x20 RETURNDATASIZE PUSH1 0x20 GT PUSH2 0xAB2 JUMPI JUMPDEST PUSH2 0xA9F DUP2 DUP4 PUSH2 0x371E JUMP JUMPDEST DUP2 ADD SWAP1 PUSH2 0x3ED8 JUMP JUMPDEST SWAP8 SWAP1 SWAP2 SWAP3 SWAP4 CODESIZE PUSH2 0x66A JUMP JUMPDEST POP RETURNDATASIZE PUSH2 0xA95 JUMP JUMPDEST PUSH1 0x40 MLOAD RETURNDATASIZE DUP5 DUP3 RETURNDATACOPY RETURNDATASIZE SWAP1 REVERT JUMPDEST PUSH1 0x20 SWAP2 SWAP9 POP PUSH2 0xADF SWAP1 DUP3 RETURNDATASIZE DUP5 GT PUSH2 0xAB2 JUMPI PUSH2 0xA9F DUP2 DUP4 PUSH2 0x371E JUMP JUMPDEST SWAP8 SWAP1 PUSH2 0x645 JUMP JUMPDEST PUSH1 0x40 MLOAD PUSH3 0x461BCD PUSH1 0xE5 SHL DUP2 MSTORE PUSH1 0x20 PUSH1 0x4 DUP3 ADD MSTORE PUSH1 0x18 PUSH1 0x24 DUP3 ADD MSTORE PUSH32 0x62617365206173736574206E6F7420737570706F727465640000000000000000 PUSH1 0x44 DUP3 ADD MSTORE PUSH1 0x64 SWAP1 REVERT JUMPDEST PUSH1 0x40 MLOAD PUSH3 0x461BCD PUSH1 0xE5 SHL DUP2 MSTORE PUSH1 0x20 PUSH1 0x4 DUP3 ADD MSTORE PUSH1 0x16 PUSH1 0x24 DUP3 ADD MSTORE PUSH22 0x24B73B30B634B2103837B9B4BA34B7B71037BBB732B9 PUSH1 0x51 SHL PUSH1 0x44 DUP3 ADD MSTORE PUSH1 0x64 SWAP1 REVERT JUMPDEST PUSH1 0x40 MLOAD PUSH3 0x461BCD PUSH1 0xE5 SHL DUP2 MSTORE PUSH1 0x20 PUSH1 0x4 DUP3 ADD MSTORE PUSH1 0xD PUSH1 0x24 DUP3 ADD MSTORE PUSH13 0x496E76616C69642072616E6765 PUSH1 0x98 SHL PUSH1 0x44 DUP3 ADD MSTORE PUSH1 0x64 SWAP1 REVERT JUMPDEST PUSH1 0x40 MLOAD PUSH3 0x461BCD PUSH1 0xE5 SHL DUP2 MSTORE PUSH1 0x20 PUSH1 0x4 DUP3 ADD MSTORE PUSH1 0x1D PUSH1 0x24 DUP3 ADD MSTORE PUSH32 0x416D6F756E74732061727261792063616E6E6F7420626520656D707479000000 PUSH1 0x44 DUP3 ADD MSTORE PUSH1 0x64 SWAP1 REVERT JUMPDEST DUP8 DUP1 REVERT JUMPDEST DUP6 DUP1 REVERT JUMPDEST DUP2 CALLDATALOAD DUP2 MSTORE PUSH1 0x20 SWAP2 DUP3 ADD SWAP2 ADD PUSH2 0x577 JUMP JUMPDEST POP CALLVALUE PUSH2 0x279 JUMPI DUP1 PUSH1 0x3 NOT CALLDATASIZE ADD SLT PUSH2 0x279 JUMPI PUSH1 0xB SLOAD PUSH1 0x40 MLOAD PUSH1 0x1 PUSH1 0x1 PUSH1 0xA0 SHL SUB SWAP1 SWAP2 AND DUP2 MSTORE PUSH1 0x20 SWAP1 RETURN JUMPDEST POP CALLVALUE PUSH2 0x279 JUMPI DUP1 PUSH1 0x3 NOT CALLDATASIZE ADD SLT PUSH2 0x279 JUMPI PUSH1 0x20 PUSH1 0xFF PUSH1 0xD SLOAD PUSH1 0xA0 SHR AND PUSH1 0x40 MLOAD SWAP1 ISZERO ISZERO DUP2 MSTORE RETURN JUMPDEST POP CALLVALUE PUSH2 0x279 JUMPI PUSH1 0x20 CALLDATASIZE PUSH1 0x3 NOT ADD SLT PUSH2 0x279 JUMPI PUSH2 0xC64 PUSH2 0x3603 JUMP JUMPDEST PUSH2 0xC6C PUSH2 0x406C JUMP JUMPDEST PUSH1 0xC DUP1 SLOAD PUSH1 0x1 PUSH1 0x1 PUSH1 0xA0 SHL SUB NOT AND PUSH1 0x1 PUSH1 0x1 PUSH1 0xA0 SHL SUB SWAP3 SWAP1 SWAP3 AND SWAP2 DUP3 OR SWAP1 SSTORE PUSH32 0xC10A21A67F3B69D3034D57EBBDE814014797FDCB1C153F007F47296412E930B5 DUP3 DUP1 LOG2 DUP1 RETURN JUMPDEST POP CALLVALUE PUSH2 0x279 JUMPI PUSH1 0xC0 CALLDATASIZE PUSH1 0x3 NOT ADD SLT PUSH2 0x279 JUMPI PUSH2 0xCCC PUSH2 0x3603 JUMP JUMPDEST DUP2 PUSH2 0xCD5 PUSH2 0x3619 JUMP JUMPDEST PUSH2 0xCDD PUSH2 0x362F JUMP JUMPDEST SWAP1 PUSH1 0x64 CALLDATALOAD PUSH2 0xCE9 PUSH2 0x3645 JUMP JUMPDEST SWAP1 PUSH2 0xCF2 PUSH2 0x406C JUMP JUMPDEST PUSH2 0xCFA PUSH2 0x4095 JUMP JUMPDEST PUSH2 0xD02 PUSH2 0x40B2 JUMP JUMPDEST PUSH1 0x8 SLOAD PUSH1 0x1 PUSH1 0x1 PUSH1 0xA0 SHL SUB AND SWAP6 PUSH2 0xD1A DUP8 ISZERO ISZERO PUSH2 0x3DC1 JUMP JUMPDEST PUSH1 0x40 MLOAD PUSH4 0x6EB1769F PUSH1 0xE1 SHL DUP2 MSTORE ADDRESS PUSH1 0x4 DUP3 ADD MSTORE PUSH1 0x1 PUSH1 0x1 PUSH1 0xA0 SHL SUB DUP9 DUP2 AND PUSH1 0x24 DUP4 ADD MSTORE SWAP2 SWAP1 SWAP2 AND SWAP7 SWAP1 PUSH1 0x20 DUP2 PUSH1 0x44 DUP2 DUP12 GAS STATICCALL SWAP1 DUP2 ISZERO PUSH2 0xEB8 JUMPI DUP8 SWAP2 PUSH2 0xE76 JUMPI JUMPDEST POP SWAP2 PUSH1 0x20 SWAP6 SWAP4 SWAP2 PUSH2 0xDF8 SWAP6 SWAP4 PUSH2 0xE66 JUMPI JUMPDEST POP PUSH1 0x8 SLOAD PUSH2 0xD84 SWAP1 DUP3 SWAP1 PUSH1 0x1 PUSH1 0x1 PUSH1 0xA0 SHL SUB AND DUP11 PUSH2 0x447D JUMP JUMPDEST PUSH1 0x1 DUP1 PUSH1 0xA0 SHL SUB PUSH1 0x8 SLOAD AND SWAP4 PUSH1 0x40 MLOAD SWAP4 PUSH2 0xD9D DUP6 PUSH2 0x36CB JUMP JUMPDEST DUP10 DUP6 MSTORE PUSH1 0x1 PUSH1 0x1 PUSH1 0xA0 SHL SUB SWAP1 DUP2 AND DUP9 DUP7 ADD MSTORE PUSH1 0x40 DUP1 DUP7 ADD DUP11 SWAP1 MSTORE SWAP2 DUP2 AND PUSH1 0x60 DUP7 ADD MSTORE TIMESTAMP PUSH1 0x80 DUP7 ADD MSTORE PUSH1 0xA0 DUP6 ADD SWAP3 SWAP1 SWAP3 MSTORE PUSH1 0x84 CALLDATALOAD PUSH1 0xC0 DUP6 ADD MSTORE SWAP2 AND PUSH1 0xE0 DUP4 ADD MSTORE MLOAD PUSH4 0xB3CE3C9 PUSH1 0xE1 SHL DUP2 MSTORE SWAP5 DUP6 SWAP4 DUP5 SWAP3 DUP4 SWAP2 SWAP1 PUSH1 0x4 DUP4 ADD PUSH2 0x3DFE JUMP JUMPDEST SUB SWAP3 GAS CALL SWAP3 DUP4 ISZERO PUSH2 0x30D JUMPI SWAP3 PUSH2 0xE30 JUMPI JUMPDEST PUSH1 0x8 SLOAD PUSH1 0x20 SWAP1 DUP5 SWAP1 PUSH2 0xE24 SWAP1 PUSH1 0x1 PUSH1 0x1 PUSH1 0xA0 SHL SUB AND DUP6 PUSH2 0x43C1 JUMP JUMPDEST PUSH1 0x1 DUP1 SSTORE PUSH1 0x40 MLOAD SWAP1 DUP2 MSTORE RETURN JUMPDEST SWAP2 POP PUSH1 0x20 DUP3 RETURNDATASIZE PUSH1 0x20 GT PUSH2 0xE5E JUMPI JUMPDEST DUP2 PUSH2 0xE4B PUSH1 0x20 SWAP4 DUP4 PUSH2 0x371E JUMP JUMPDEST DUP2 ADD SUB SLT PUSH2 0x300 JUMPI SWAP1 MLOAD SWAP1 PUSH2 0xE24 PUSH2 0xE09 JUMP JUMPDEST RETURNDATASIZE SWAP2 POP PUSH2 0xE3E JUMP JUMPDEST PUSH2 0xE70 SWAP1 DUP10 PUSH2 0x43C1 JUMP JUMPDEST CODESIZE PUSH2 0xD6B JUMP JUMPDEST SWAP5 SWAP3 SWAP7 POP POP SWAP4 SWAP2 PUSH1 0x20 DUP5 RETURNDATASIZE PUSH1 0x20 GT PUSH2 0xEB0 JUMPI JUMPDEST DUP2 PUSH2 0xE96 PUSH1 0x20 SWAP4 DUP4 PUSH2 0x371E JUMP JUMPDEST DUP2 ADD SUB SLT PUSH2 0x300 JUMPI SWAP3 MLOAD DUP8 SWAP6 SWAP3 SWAP5 SWAP2 SWAP4 SWAP3 SWAP2 SWAP1 PUSH1 0x20 PUSH2 0xD5A JUMP JUMPDEST RETURNDATASIZE SWAP2 POP PUSH2 0xE89 JUMP JUMPDEST PUSH1 0x40 MLOAD RETURNDATASIZE DUP10 DUP3 RETURNDATACOPY RETURNDATASIZE SWAP1 REVERT JUMPDEST POP CALLVALUE PUSH2 0x279 JUMPI PUSH1 0x20 CALLDATASIZE PUSH1 0x3 NOT ADD SLT PUSH2 0x279 JUMPI PUSH2 0xEDD PUSH2 0x3603 JUMP JUMPDEST PUSH2 0xEE5 PUSH2 0x406C JUMP JUMPDEST PUSH1 0xD DUP1 SLOAD PUSH1 0x1 PUSH1 0x1 PUSH1 0xA0 SHL SUB NOT AND PUSH1 0x1 PUSH1 0x1 PUSH1 0xA0 SHL SUB SWAP3 SWAP1 SWAP3 AND SWAP2 DUP3 OR SWAP1 SSTORE PUSH32 0xB3B3F5F64AB192E4B5FEFDE1F51CE9733BBDCF831951543B325AEBD49CC27EC4 DUP3 DUP1 LOG2 DUP1 RETURN JUMPDEST POP CALLVALUE PUSH2 0x279 JUMPI PUSH2 0xF3A CALLDATASIZE PUSH2 0x37A1 JUMP JUMPDEST SWAP3 PUSH2 0xF46 SWAP3 SWAP2 SWAP3 PUSH2 0x4095 JUMP JUMPDEST PUSH2 0xF4E PUSH2 0x40B2 JUMP JUMPDEST PUSH1 0xFF PUSH1 0xD SLOAD PUSH1 0xA0 SHR AND DUP1 ISZERO PUSH2 0x1908 JUMPI JUMPDEST DUP1 ISZERO PUSH2 0x18E1 JUMPI JUMPDEST ISZERO PUSH2 0x18AB JUMPI PUSH1 0x1 PUSH1 0x1 PUSH1 0xA0 SHL SUB AND DUP1 DUP6 MSTORE PUSH1 0x3 PUSH1 0x20 MSTORE PUSH1 0x40 DUP6 KECCAK256 SLOAD SWAP1 SWAP2 SWAP1 PUSH2 0xF8F SWAP1 PUSH1 0xFF AND PUSH2 0x3A54 JUMP JUMPDEST DUP3 ISZERO PUSH2 0x1866 JUMPI PUSH1 0x1 PUSH1 0x1 PUSH1 0xA0 SHL SUB AND DUP1 ISZERO PUSH2 0x182A JUMPI DUP2 PUSH32 0x88D1BC9B918B502E5C73359C379D28F57BED4B4DB835E92BBCC41C5F3BCAF529 PUSH1 0x40 MLOAD DUP6 DUP2 MSTORE PUSH1 0x40 PUSH1 0x20 DUP3 ADD MSTORE DUP1 PUSH2 0xFE1 PUSH1 0x40 DUP3 ADD DUP10 PUSH2 0x3840 JUMP JUMPDEST SUB SWAP1 LOG3 DUP3 MLOAD DUP4 ADD PUSH1 0xE0 DUP5 PUSH1 0x20 DUP4 ADD SWAP3 SUB SLT PUSH2 0x1826 JUMPI PUSH2 0x1002 PUSH1 0x20 DUP6 ADD PUSH2 0x3EC4 JUMP JUMPDEST SWAP2 PUSH2 0x100F PUSH1 0x40 DUP7 ADD PUSH2 0x3EC4 JUMP JUMPDEST SWAP5 PUSH1 0x60 DUP2 ADD MLOAD PUSH1 0x1 PUSH1 0x1 PUSH1 0x40 SHL SUB DUP2 GT PUSH2 0xBE3 JUMPI DUP2 ADD SWAP3 DUP1 PUSH1 0x3F DUP6 ADD SLT ISZERO PUSH2 0xBE3 JUMPI PUSH1 0x20 DUP5 ADD MLOAD PUSH2 0x103F DUP2 PUSH2 0x3829 JUMP JUMPDEST SWAP5 PUSH2 0x104D PUSH1 0x40 MLOAD SWAP7 DUP8 PUSH2 0x371E JUMP JUMPDEST DUP2 DUP7 MSTORE PUSH1 0x20 DUP1 DUP1 DUP9 ADD SWAP4 PUSH1 0x5 SHL DUP4 ADD ADD ADD SWAP3 DUP4 GT PUSH2 0x1822 JUMPI PUSH1 0x40 ADD SWAP1 JUMPDEST DUP3 DUP3 LT PUSH2 0x1812 JUMPI POP POP POP PUSH2 0x1080 PUSH1 0x80 DUP3 ADD PUSH2 0x3963 JUMP JUMPDEST PUSH2 0x108C PUSH1 0xA0 DUP4 ADD PUSH2 0x3963 JUMP JUMPDEST PUSH2 0x10A4 PUSH1 0xE0 PUSH2 0x109D PUSH1 0xC0 DUP7 ADD PUSH2 0x3EC4 JUMP JUMPDEST SWAP5 ADD PUSH2 0x3912 JUMP JUMPDEST PUSH1 0x1 PUSH1 0x1 PUSH1 0xA0 SHL SUB SWAP4 DUP5 AND SWAP9 DUP5 AND SWAP7 SWAP1 SWAP4 AND SWAP4 DUP7 SWAP1 SUB PUSH2 0x17DC JUMPI PUSH2 0x10C9 DUP2 DUP4 DUP7 PUSH2 0x3C12 JUMP JUMPDEST SWAP3 SWAP1 SWAP7 PUSH1 0x40 MLOAD SWAP7 PUSH4 0xDFE1681 PUSH1 0xE0 SHL DUP9 MSTORE PUSH1 0x20 DUP9 PUSH1 0x4 DUP2 DUP11 GAS STATICCALL SWAP8 DUP9 ISZERO PUSH2 0x14B6 JUMPI DUP13 SWAP9 PUSH2 0x17BB JUMPI JUMPDEST POP PUSH1 0x40 MLOAD PUSH4 0xD21220A7 PUSH1 0xE0 SHL DUP2 MSTORE SWAP10 PUSH1 0x20 DUP12 PUSH1 0x4 DUP2 DUP12 GAS STATICCALL SWAP11 DUP12 ISZERO PUSH2 0x17B0 JUMPI DUP14 SWAP12 PUSH2 0x178F JUMPI JUMPDEST POP DUP2 MLOAD ISZERO PUSH2 0x1787 JUMPI DUP13 PUSH2 0x1129 DUP4 PUSH2 0x3B69 JUMP JUMPDEST MLOAD SWAP3 JUMPDEST PUSH1 0x1 DUP2 MLOAD GT PUSH1 0x0 EQ PUSH2 0x177B JUMPI PUSH1 0x20 PUSH2 0x1145 PUSH1 0x24 SWAP3 PUSH2 0x3B76 JUMP JUMPDEST MLOAD SWAP6 JUMPDEST PUSH1 0x40 MLOAD PUSH4 0x70A08231 PUSH1 0xE0 SHL DUP2 MSTORE ADDRESS PUSH1 0x4 DUP3 ADD MSTORE SWAP3 DUP4 SWAP2 DUP3 SWAP1 GAS STATICCALL SWAP2 DUP3 ISZERO PUSH2 0x30D JUMPI SWAP2 PUSH2 0x1749 JUMPI JUMPDEST POP LT PUSH2 0x1704 JUMPI DUP8 DUP10 DUP12 SWAP8 DUP4 DUP16 SWAP5 ISZERO SWAP6 DUP7 ISZERO SWAP7 DUP8 PUSH2 0x1634 JUMPI JUMPDEST DUP2 ISZERO SWAP1 DUP2 ISZERO SWAP5 DUP6 PUSH2 0x1564 JUMPI JUMPDEST PUSH1 0x9 SLOAD DUP7 SWAP1 PUSH1 0x1 PUSH1 0x1 PUSH1 0xA0 SHL SUB AND DUP12 PUSH2 0x11AD DUP3 ISZERO ISZERO PUSH2 0x3EF7 JUMP JUMPDEST PUSH2 0x14C1 JUMPI JUMPDEST POP PUSH2 0x13E4 JUMPI JUMPDEST PUSH2 0xFFFF DUP2 AND ISZERO PUSH2 0x13D3 JUMPI PUSH2 0xFFFF SWAP1 JUMPDEST AND SWAP1 ISZERO PUSH2 0x1380 JUMPI DUP8 SWAP2 JUMPDEST ISZERO PUSH2 0x1330 JUMPI POP DUP7 SWAP2 JUMPDEST PUSH1 0x9 SLOAD PUSH1 0x40 MLOAD SWAP8 PUSH1 0x1 PUSH1 0x1 PUSH1 0xA0 SHL SUB SWAP1 SWAP2 AND SWAP5 SWAP1 PUSH2 0x11F7 DUP10 PUSH2 0x3702 JUMP JUMPDEST PUSH1 0x1 PUSH1 0xA0 SHL PUSH1 0x1 SWAP1 SUB AND SWAP14 DUP15 DUP10 MSTORE PUSH1 0x1 PUSH1 0xA0 SHL PUSH1 0x1 SWAP1 SUB AND SWAP7 DUP8 PUSH1 0x20 DUP11 ADD MSTORE DUP10 PUSH1 0x40 DUP11 ADD MSTORE PUSH1 0x2 SIGNEXTEND PUSH1 0x60 DUP10 ADD MSTORE DUP13 PUSH1 0x2 SIGNEXTEND PUSH1 0x80 DUP10 ADD MSTORE PUSH1 0xA0 DUP9 ADD MSTORE PUSH1 0xC0 DUP8 ADD MSTORE PUSH1 0xE0 DUP7 ADD MSTORE PUSH2 0x100 DUP6 ADD MSTORE ADDRESS PUSH2 0x120 DUP6 ADD MSTORE TIMESTAMP PUSH2 0x140 DUP6 ADD MSTORE PUSH1 0x40 MLOAD DUP1 DUP1 SWAP6 PUSH4 0xFE3F3BE7 PUSH1 0xE0 SHL DUP3 MSTORE PUSH1 0x4 DUP3 ADD SWAP1 PUSH2 0x126E SWAP2 PUSH2 0x3F77 JUMP JUMPDEST SUB DUP2 DUP8 GAS SWAP5 PUSH1 0x80 SWAP6 CALL SWAP9 DUP10 ISZERO PUSH2 0xA67 JUMPI DUP15 SWAP6 DUP15 SWAP5 DUP7 SWAP12 PUSH2 0x12DF JUMPI JUMPDEST POP SWAP9 DUP14 PUSH32 0x7112C6849012C19915DD63E9B6905B8FEBAD32E176DE071FB5B3B3D757D28819 SWAP15 SWAP9 SWAP6 DUP15 DUP15 PUSH2 0x12D2 SWAP11 SWAP8 PUSH2 0x7E7 SWAP16 SWAP15 SWAP8 DUP16 SWAP8 DUP8 SWAP16 SWAP13 SWAP10 PUSH2 0x80F JUMPI POP PUSH2 0x7F1 JUMPI POP PUSH2 0x4548 JUMP JUMPDEST SWAP8 PUSH1 0x40 MLOAD SWAP7 DUP8 SWAP7 DUP8 PUSH2 0x4013 JUMP JUMPDEST DUP14 SWAP4 SWAP12 POP DUP11 SWAP10 SWAP7 POP SWAP14 DUP1 SWAP9 SWAP6 DUP14 SWAP12 SWAP3 SWAP9 SWAP6 SWAP16 PUSH1 0x80 RETURNDATASIZE PUSH1 0x80 GT PUSH2 0x1329 JUMPI JUMPDEST PUSH2 0x1306 DUP2 DUP4 PUSH2 0x371E JUMP JUMPDEST DUP2 ADD PUSH2 0x1311 SWAP2 PUSH2 0x3F45 JUMP JUMPDEST POP POP SWAP6 SWAP1 SWAP6 SWAP14 SWAP6 SWAP9 SWAP12 POP POP SWAP6 SWAP9 SWAP15 SWAP5 SWAP8 SWAP2 SWAP11 POP PUSH2 0x1289 JUMP JUMPDEST POP RETURNDATASIZE PUSH2 0x12FC JUMP JUMPDEST SWAP4 SWAP8 SWAP9 SWAP10 SWAP11 SWAP12 POP SWAP4 POP SWAP4 POP SWAP4 POP PUSH2 0x2710 SUB PUSH2 0x2710 DUP2 GT PUSH2 0x136C JUMPI SWAP4 DUP15 SWAP4 DUP4 DUP14 SWAP4 DUP16 SWAP12 SWAP11 SWAP10 SWAP9 SWAP8 PUSH2 0x1365 DUP16 SWAP8 SWAP2 PUSH2 0x2710 SWAP3 PUSH2 0x3F32 JUMP JUMPDEST DIV SWAP2 PUSH2 0x11DA JUMP JUMPDEST PUSH4 0x4E487B71 PUSH1 0xE0 SHL DUP16 MSTORE PUSH1 0x11 PUSH1 0x4 MSTORE PUSH1 0x24 DUP16 REVERT JUMPDEST SWAP4 SWAP8 SWAP9 SWAP10 SWAP11 SWAP12 POP SWAP4 POP SWAP4 POP SWAP4 POP DUP1 PUSH2 0x2710 SUB PUSH2 0x2710 DUP2 GT PUSH2 0x13BE JUMPI SWAP4 DUP16 SWAP5 SWAP4 DUP14 SWAP4 DUP16 SWAP12 SWAP11 SWAP10 SWAP9 SWAP8 SWAP4 PUSH2 0x2710 DUP16 SWAP8 PUSH2 0x13B7 SWAP1 DUP7 PUSH2 0x3F32 JUMP JUMPDEST DIV SWAP2 PUSH2 0x11D1 JUMP JUMPDEST POP PUSH4 0x4E487B71 PUSH1 0xE0 SHL DUP16 MSTORE PUSH1 0x11 PUSH1 0x4 MSTORE PUSH1 0x24 DUP16 REVERT JUMPDEST POP PUSH2 0xFFFF DUP1 PUSH1 0xC SLOAD PUSH1 0xA0 SHR AND PUSH2 0x11C7 JUMP JUMPDEST DUP14 PUSH1 0x1 DUP1 PUSH1 0xA0 SHL SUB AND PUSH1 0x1 DUP1 PUSH1 0xA0 SHL SUB PUSH1 0x9 SLOAD AND SWAP1 PUSH1 0x40 MLOAD SWAP1 PUSH4 0x6EB1769F PUSH1 0xE1 SHL DUP3 MSTORE PUSH1 0x20 DUP3 DUP1 PUSH2 0x1436 DUP7 ADDRESS PUSH1 0x4 DUP5 ADD SWAP1 SWAP3 SWAP2 PUSH1 0x20 SWAP1 PUSH1 0x40 DUP4 ADD SWAP5 PUSH1 0x1 DUP1 PUSH1 0xA0 SHL SUB AND DUP4 MSTORE PUSH1 0x1 DUP1 PUSH1 0xA0 SHL SUB AND SWAP2 ADD MSTORE JUMP JUMPDEST SUB DUP2 DUP5 GAS STATICCALL DUP1 ISZERO PUSH2 0x14B6 JUMPI DUP8 SWAP3 DUP14 SWAP2 PUSH2 0x147D JUMPI JUMPDEST POP SWAP3 PUSH2 0x1468 SWAP4 PUSH2 0x146D JUMPI JUMPDEST POP PUSH1 0x9 SLOAD PUSH1 0x1 PUSH1 0x1 PUSH1 0xA0 SHL SUB AND SWAP1 PUSH2 0x447D JUMP JUMPDEST PUSH2 0x11B8 JUMP JUMPDEST PUSH2 0x1477 SWAP1 DUP3 PUSH2 0x43C1 JUMP JUMPDEST CODESIZE PUSH2 0x1455 JUMP JUMPDEST SWAP3 POP POP PUSH1 0x20 DUP3 RETURNDATASIZE PUSH1 0x20 GT PUSH2 0x14AE JUMPI JUMPDEST DUP2 PUSH2 0x1499 PUSH1 0x20 SWAP4 DUP4 PUSH2 0x371E JUMP JUMPDEST DUP2 ADD SUB SLT PUSH2 0x300 JUMPI SWAP1 MLOAD DUP7 SWAP2 SWAP1 PUSH2 0x1468 PUSH2 0x144A JUMP JUMPDEST RETURNDATASIZE SWAP2 POP PUSH2 0x148C JUMP JUMPDEST PUSH1 0x40 MLOAD RETURNDATASIZE DUP15 DUP3 RETURNDATACOPY RETURNDATASIZE SWAP1 REVERT JUMPDEST PUSH1 0x40 MLOAD PUSH4 0x6EB1769F PUSH1 0xE1 SHL DUP2 MSTORE ADDRESS PUSH1 0x4 DUP3 ADD MSTORE PUSH1 0x1 PUSH1 0x1 PUSH1 0xA0 SHL SUB DUP3 DUP2 AND PUSH1 0x24 DUP4 ADD MSTORE DUP12 AND SWAP3 POP PUSH1 0x20 DUP2 PUSH1 0x44 DUP2 DUP7 GAS STATICCALL SWAP3 DUP4 ISZERO PUSH2 0x14B6 JUMPI DUP10 SWAP3 DUP10 SWAP3 DUP15 SWAP6 PUSH2 0x1526 JUMPI JUMPDEST POP PUSH2 0x1520 SWAP4 SWAP5 PUSH2 0x146D JUMPI POP PUSH1 0x9 SLOAD PUSH1 0x1 PUSH1 0x1 PUSH1 0xA0 SHL SUB AND SWAP1 PUSH2 0x447D JUMP JUMPDEST CODESIZE PUSH2 0x11B2 JUMP JUMPDEST SWAP3 POP SWAP3 POP SWAP3 POP PUSH1 0x20 DUP2 RETURNDATASIZE PUSH1 0x20 GT PUSH2 0x155C JUMPI JUMPDEST DUP2 PUSH2 0x1545 PUSH1 0x20 SWAP4 DUP4 PUSH2 0x371E JUMP JUMPDEST DUP2 ADD SUB SLT PUSH2 0x300 JUMPI MLOAD SWAP2 DUP9 SWAP2 DUP9 SWAP2 SWAP1 PUSH2 0x1520 PUSH2 0x1503 JUMP JUMPDEST RETURNDATASIZE SWAP2 POP PUSH2 0x1538 JUMP JUMPDEST PUSH1 0x40 MLOAD PUSH4 0x70A08231 PUSH1 0xE0 SHL DUP2 MSTORE ADDRESS PUSH1 0x4 DUP3 ADD MSTORE SWAP4 SWAP14 SWAP3 SWAP9 SWAP2 SWAP8 POP SWAP6 POP SWAP2 SWAP1 PUSH1 0x20 SWAP1 DUP3 SWAP1 PUSH1 0x24 SWAP1 DUP3 SWAP1 PUSH1 0x1 PUSH1 0x1 PUSH1 0xA0 SHL SUB AND GAS STATICCALL SWAP1 DUP2 ISZERO PUSH2 0xAB9 JUMPI DUP13 SWAP3 SWAP2 PUSH2 0x15FF JUMPI JUMPDEST POP LT PUSH2 0x15BA JUMPI DUP16 SWAP5 SWAP10 DUP15 SWAP11 DUP14 SWAP6 DUP16 SWAP6 PUSH2 0x1193 JUMP JUMPDEST PUSH1 0x40 MLOAD PUSH3 0x461BCD PUSH1 0xE5 SHL DUP2 MSTORE PUSH1 0x20 PUSH1 0x4 DUP3 ADD MSTORE PUSH1 0x19 PUSH1 0x24 DUP3 ADD MSTORE PUSH32 0x696E73756666696369656E7420746F6B656E312066756E647300000000000000 PUSH1 0x44 DUP3 ADD MSTORE PUSH1 0x64 SWAP1 REVERT JUMPDEST SWAP2 POP POP PUSH1 0x20 DUP2 RETURNDATASIZE PUSH1 0x20 GT PUSH2 0x162C JUMPI JUMPDEST DUP2 PUSH2 0x161B PUSH1 0x20 SWAP4 DUP4 PUSH2 0x371E JUMP JUMPDEST DUP2 ADD SUB SLT PUSH2 0x300 JUMPI DUP11 SWAP1 MLOAD CODESIZE PUSH2 0x15A6 JUMP JUMPDEST RETURNDATASIZE SWAP2 POP PUSH2 0x160E JUMP JUMPDEST PUSH1 0x40 MLOAD PUSH4 0x70A08231 PUSH1 0xE0 SHL DUP2 MSTORE ADDRESS PUSH1 0x4 DUP3 ADD MSTORE SWAP4 SWAP12 POP SWAP2 SWAP6 SWAP1 SWAP5 SWAP2 SWAP4 POP SWAP2 SWAP1 PUSH1 0x20 SWAP1 DUP3 SWAP1 PUSH1 0x24 SWAP1 DUP3 SWAP1 PUSH1 0x1 PUSH1 0x1 PUSH1 0xA0 SHL SUB AND GAS STATICCALL SWAP1 DUP2 ISZERO PUSH2 0xAB9 JUMPI DUP6 SWAP3 SWAP2 PUSH2 0x16CF JUMPI JUMPDEST POP LT PUSH2 0x168A JUMPI DUP12 SWAP8 DUP15 SWAP4 DUP12 SWAP4 DUP14 SWAP4 PUSH2 0x1187 JUMP JUMPDEST PUSH1 0x40 MLOAD PUSH3 0x461BCD PUSH1 0xE5 SHL DUP2 MSTORE PUSH1 0x20 PUSH1 0x4 DUP3 ADD MSTORE PUSH1 0x19 PUSH1 0x24 DUP3 ADD MSTORE PUSH32 0x696E73756666696369656E7420746F6B656E302066756E647300000000000000 PUSH1 0x44 DUP3 ADD MSTORE PUSH1 0x64 SWAP1 REVERT JUMPDEST SWAP2 POP POP PUSH1 0x20 DUP2 RETURNDATASIZE PUSH1 0x20 GT PUSH2 0x16FC JUMPI JUMPDEST DUP2 PUSH2 0x16EB PUSH1 0x20 SWAP4 DUP4 PUSH2 0x371E JUMP JUMPDEST DUP2 ADD SUB SLT PUSH2 0x300 JUMPI DUP4 SWAP1 MLOAD CODESIZE PUSH2 0x1677 JUMP JUMPDEST RETURNDATASIZE SWAP2 POP PUSH2 0x16DE JUMP JUMPDEST PUSH1 0x40 MLOAD PUSH3 0x461BCD PUSH1 0xE5 SHL DUP2 MSTORE PUSH1 0x20 PUSH1 0x4 DUP3 ADD MSTORE PUSH1 0x19 PUSH1 0x24 DUP3 ADD MSTORE PUSH32 0x696E73756666696369656E7420626173652066756E64696E6700000000000000 PUSH1 0x44 DUP3 ADD MSTORE PUSH1 0x64 SWAP1 REVERT JUMPDEST SWAP1 POP PUSH1 0x20 DUP2 RETURNDATASIZE PUSH1 0x20 GT PUSH2 0x1773 JUMPI JUMPDEST DUP2 PUSH2 0x1764 PUSH1 0x20 SWAP4 DUP4 PUSH2 0x371E JUMP JUMPDEST DUP2 ADD SUB SLT PUSH2 0x300 JUMPI MLOAD CODESIZE PUSH2 0x116F JUMP JUMPDEST RETURNDATASIZE SWAP2 POP PUSH2 0x1757 JUMP JUMPDEST POP PUSH1 0x24 PUSH1 0x20 DUP3 SWAP6 PUSH2 0x1148 JUMP JUMPDEST DUP13 DUP1 SWAP3 PUSH2 0x112C JUMP JUMPDEST PUSH2 0x17A9 SWAP2 SWAP12 POP PUSH1 0x20 RETURNDATASIZE PUSH1 0x20 GT PUSH2 0xAB2 JUMPI PUSH2 0xA9F DUP2 DUP4 PUSH2 0x371E JUMP JUMPDEST SWAP10 CODESIZE PUSH2 0x1117 JUMP JUMPDEST PUSH1 0x40 MLOAD RETURNDATASIZE DUP16 DUP3 RETURNDATACOPY RETURNDATASIZE SWAP1 REVERT JUMPDEST PUSH2 0x17D5 SWAP2 SWAP9 POP PUSH1 0x20 RETURNDATASIZE PUSH1 0x20 GT PUSH2 0xAB2 JUMPI PUSH2 0xA9F DUP2 DUP4 PUSH2 0x371E JUMP JUMPDEST SWAP7 CODESIZE PUSH2 0x10F1 JUMP JUMPDEST PUSH1 0x40 MLOAD PUSH3 0x461BCD PUSH1 0xE5 SHL DUP2 MSTORE PUSH1 0x20 PUSH1 0x4 DUP3 ADD MSTORE PUSH1 0xE PUSH1 0x24 DUP3 ADD MSTORE PUSH14 0xC2E6E6CAE840DAD2E6DAC2E8C6D PUSH1 0x93 SHL PUSH1 0x44 DUP3 ADD MSTORE PUSH1 0x64 SWAP1 REVERT JUMPDEST DUP2 MLOAD DUP2 MSTORE PUSH1 0x20 SWAP2 DUP3 ADD SWAP2 ADD PUSH2 0x106A JUMP JUMPDEST DUP10 DUP1 REVERT JUMPDEST DUP5 DUP1 REVERT JUMPDEST PUSH1 0x40 MLOAD PUSH3 0x461BCD PUSH1 0xE5 SHL DUP2 MSTORE PUSH1 0x20 PUSH1 0x4 DUP3 ADD MSTORE PUSH1 0x14 PUSH1 0x24 DUP3 ADD MSTORE PUSH20 0x496E76616C696420757365722061646472657373 PUSH1 0x60 SHL PUSH1 0x44 DUP3 ADD MSTORE PUSH1 0x64 SWAP1 REVERT JUMPDEST PUSH1 0x40 MLOAD PUSH3 0x461BCD PUSH1 0xE5 SHL DUP2 MSTORE PUSH1 0x20 PUSH1 0x4 DUP3 ADD MSTORE PUSH1 0x1D PUSH1 0x24 DUP3 ADD MSTORE PUSH32 0x416D6F756E74206D7573742062652067726561746572207468616E2030000000 PUSH1 0x44 DUP3 ADD MSTORE PUSH1 0x64 SWAP1 REVERT JUMPDEST PUSH1 0x40 MLOAD PUSH3 0x461BCD PUSH1 0xE5 SHL DUP2 MSTORE PUSH1 0x20 PUSH1 0x4 DUP3 ADD MSTORE PUSH1 0xE PUSH1 0x24 DUP3 ADD MSTORE PUSH14 0x1B9BDD08185D5D1A1BDC9A5E9959 PUSH1 0x92 SHL PUSH1 0x44 DUP3 ADD MSTORE PUSH1 0x64 SWAP1 REVERT JUMPDEST POP PUSH1 0xB SLOAD PUSH1 0x1 PUSH1 0x1 PUSH1 0xA0 SHL SUB AND DUP1 ISZERO ISZERO SWAP1 DUP2 PUSH2 0x18FE JUMPI JUMPDEST POP PUSH2 0xF65 JUMP JUMPDEST SWAP1 POP CALLER EQ CODESIZE PUSH2 0x18F8 JUMP JUMPDEST POP DUP5 SLOAD PUSH1 0x1 PUSH1 0x1 PUSH1 0xA0 SHL SUB AND CALLER EQ PUSH2 0xF5E JUMP JUMPDEST POP CALLVALUE PUSH2 0x279 JUMPI PUSH1 0x20 CALLDATASIZE PUSH1 0x3 NOT ADD SLT PUSH2 0x279 JUMPI PUSH2 0x1942 PUSH1 0x1 DUP1 PUSH1 0xA0 SHL SUB PUSH1 0xD SLOAD AND CALLER EQ PUSH2 0x39D7 JUMP JUMPDEST PUSH2 0x194A PUSH2 0x40B2 JUMP JUMPDEST PUSH1 0x4 CALLDATALOAD DUP2 MSTORE PUSH1 0x4 PUSH1 0x20 MSTORE PUSH1 0x4 PUSH1 0x40 DUP3 KECCAK256 PUSH2 0x196A PUSH1 0xFF PUSH1 0x8 DUP4 ADD SLOAD AND PUSH2 0x3921 JUMP JUMPDEST ADD SLOAD DUP1 ISZERO ISZERO DUP1 PUSH2 0x1A6B JUMPI JUMPDEST ISZERO PUSH2 0x1A36 JUMPI PUSH1 0x40 PUSH2 0x19D5 DUP4 SWAP3 PUSH1 0x1 DUP1 PUSH1 0xA0 SHL SUB PUSH1 0x9 SLOAD AND SWAP1 DUP4 MLOAD SWAP1 PUSH2 0x1999 DUP3 PUSH2 0x36E7 JUMP JUMPDEST DUP2 MSTORE ADDRESS PUSH1 0x20 DUP3 ADD MSTORE PUSH1 0x1 PUSH1 0x1 PUSH1 0x80 SHL SUB DUP5 DUP3 ADD MSTORE PUSH1 0x1 PUSH1 0x1 PUSH1 0x80 SHL SUB PUSH1 0x60 DUP3 ADD MSTORE DUP4 MLOAD SWAP6 DUP7 DUP1 SWAP5 DUP2 SWAP4 PUSH4 0xFC6F7865 PUSH1 0xE0 SHL DUP4 MSTORE PUSH1 0x4 DUP4 ADD PUSH2 0x3E87 JUMP JUMPDEST SUB SWAP3 GAS CALL DUP1 ISZERO PUSH2 0x1A29 JUMPI PUSH1 0x40 SWAP3 DUP3 SWAP2 PUSH2 0x19FA JUMPI JUMPDEST POP PUSH1 0x1 DUP1 SSTORE DUP3 MLOAD SWAP2 DUP3 MSTORE PUSH1 0x20 DUP3 ADD MSTORE RETURN JUMPDEST SWAP1 POP PUSH2 0x1A1C SWAP2 POP DUP3 RETURNDATASIZE DUP5 GT PUSH2 0x1A22 JUMPI JUMPDEST PUSH2 0x1A14 DUP2 DUP4 PUSH2 0x371E JUMP JUMPDEST DUP2 ADD SWAP1 PUSH2 0x3E71 JUMP JUMPDEST CODESIZE PUSH2 0x19E9 JUMP JUMPDEST POP RETURNDATASIZE PUSH2 0x1A0A JUMP JUMPDEST POP PUSH1 0x40 MLOAD SWAP1 RETURNDATASIZE SWAP1 DUP3 RETURNDATACOPY RETURNDATASIZE SWAP1 REVERT JUMPDEST PUSH1 0x40 MLOAD PUSH3 0x461BCD PUSH1 0xE5 SHL DUP2 MSTORE PUSH1 0x20 PUSH1 0x4 DUP3 ADD MSTORE PUSH1 0xD PUSH1 0x24 DUP3 ADD MSTORE PUSH13 0x13919413481B9BDD081D5CD959 PUSH1 0x9A SHL PUSH1 0x44 DUP3 ADD MSTORE PUSH1 0x64 SWAP1 REVERT JUMPDEST POP PUSH1 0x9 SLOAD PUSH1 0x1 PUSH1 0x1 PUSH1 0xA0 SHL SUB AND ISZERO ISZERO PUSH2 0x1975 JUMP JUMPDEST POP CALLVALUE PUSH2 0x279 JUMPI PUSH1 0x20 CALLDATASIZE PUSH1 0x3 NOT ADD SLT PUSH2 0x279 JUMPI PUSH2 0x1A99 PUSH2 0x365B JUMP JUMPDEST PUSH2 0x1AA1 PUSH2 0x406C JUMP JUMPDEST PUSH2 0xFFFF DUP2 AND SWAP1 PUSH2 0x2710 DUP3 GT PUSH2 0x1AFE JUMPI PUSH1 0xC DUP1 SLOAD PUSH2 0xFFFF PUSH1 0xA0 SHL NOT AND PUSH1 0xA0 SWAP3 SWAP1 SWAP3 SHL PUSH2 0xFFFF PUSH1 0xA0 SHL AND SWAP2 SWAP1 SWAP2 OR SWAP1 SSTORE PUSH1 0x40 MLOAD SWAP1 DUP2 MSTORE PUSH32 0xB32748F11F0A760D3D4770A5C7649C92EB2E1DF92DDA6F5DA9348D28C19D69AE SWAP1 PUSH1 0x20 SWAP1 LOG1 DUP1 RETURN JUMPDEST PUSH1 0x40 MLOAD PUSH3 0x461BCD PUSH1 0xE5 SHL DUP2 MSTORE PUSH1 0x20 PUSH1 0x4 DUP3 ADD MSTORE PUSH1 0xC PUSH1 0x24 DUP3 ADD MSTORE PUSH12 0xC4E0E640E8DEDE40D0D2CED PUSH1 0xA3 SHL PUSH1 0x44 DUP3 ADD MSTORE PUSH1 0x64 SWAP1 REVERT JUMPDEST POP CALLVALUE PUSH2 0x279 JUMPI PUSH1 0xE0 CALLDATASIZE PUSH1 0x3 NOT ADD SLT PUSH2 0x279 JUMPI PUSH1 0x4 CALLDATALOAD PUSH2 0x1B4F PUSH2 0x3619 JUMP JUMPDEST SWAP1 PUSH1 0x44 CALLDATALOAD PUSH1 0x1 PUSH1 0x1 PUSH1 0x40 SHL SUB DUP2 GT PUSH2 0x2210 JUMPI PUSH2 0x1B6F SWAP1 CALLDATASIZE SWAP1 PUSH1 0x4 ADD PUSH2 0x366C JUMP JUMPDEST SWAP1 SWAP3 PUSH2 0x1B79 PUSH2 0x3645 JUMP JUMPDEST PUSH2 0x1B8E PUSH1 0x1 DUP1 PUSH1 0xA0 SHL SUB PUSH1 0xD SLOAD AND CALLER EQ PUSH2 0x39D7 JUMP JUMPDEST PUSH2 0x1B96 PUSH2 0x4095 JUMP JUMPDEST PUSH2 0x1B9E PUSH2 0x40B2 JUMP JUMPDEST PUSH2 0x1BA9 DUP4 ISZERO ISZERO PUSH2 0x3A12 JUMP JUMPDEST DUP4 DUP7 MSTORE PUSH1 0x4 PUSH1 0x20 MSTORE PUSH1 0x40 DUP7 KECCAK256 SWAP3 PUSH2 0x1BC6 PUSH1 0xFF PUSH1 0x8 DUP7 ADD SLOAD AND PUSH2 0x3921 JUMP JUMPDEST PUSH1 0x1 PUSH1 0x1 PUSH1 0xA0 SHL SUB DUP4 AND DUP1 DUP9 MSTORE PUSH1 0x3 PUSH1 0x20 MSTORE PUSH1 0x40 DUP9 KECCAK256 SLOAD SWAP1 SWAP4 SWAP1 PUSH1 0xFF AND ISZERO PUSH2 0x21D6 JUMPI PUSH1 0x1 DUP6 ADD SLOAD PUSH1 0x2 DUP7 ADD SLOAD PUSH1 0x1 PUSH1 0x1 PUSH1 0xA0 SHL SUB SWAP2 DUP3 AND SWAP5 SWAP2 DUP11 SWAP2 AND PUSH2 0x1C0B DUP10 PUSH2 0x40D4 JUMP JUMPDEST SWAP4 SWAP1 DUP4 SWAP8 DUP2 PUSH2 0x2067 JUMPI JUMPDEST POP POP DUP4 PUSH2 0x1F04 JUMPI JUMPDEST POP POP POP POP DUP3 ISZERO PUSH2 0x1ED1 JUMPI PUSH1 0xFF PUSH1 0xD SLOAD PUSH1 0xA0 SHR AND ISZERO PUSH2 0x1CCF JUMPI JUMPDEST POP SWAP1 DUP3 SWAP2 PUSH1 0x60 SWAP4 PUSH32 0x73D40F1F9C0775E6157122394BE131C037056BFF82D86F1F2F4103E318E1C2D5 PUSH32 0xAE62392EC9C5AB769DC4D2BF163B81444F6D24444ED51EB54691B478634971A SWAP7 PUSH1 0x5 PUSH1 0x1 DUP1 PUSH1 0xA0 SHL SUB SWAP2 ADD SLOAD AND SWAP9 DUP10 SWAP4 PUSH2 0x1CA5 PUSH1 0x40 MLOAD SWAP3 DUP4 SWAP3 DUP11 DUP5 MSTORE DUP11 DUP5 ADD SWAP2 PUSH2 0x3881 JUMP JUMPDEST DUP7 PUSH1 0x20 DUP4 ADD MSTORE DUP11 PUSH1 0x40 DUP4 ADD MSTORE SUB SWAP1 LOG3 PUSH1 0x40 MLOAD SWAP2 PUSH1 0xC4 CALLDATALOAD DUP4 MSTORE PUSH1 0x20 DUP4 ADD MSTORE PUSH1 0x40 DUP3 ADD MSTORE LOG3 PUSH1 0x1 DUP1 SSTORE DUP1 RETURN JUMPDEST PUSH1 0xA SLOAD PUSH1 0x1 PUSH1 0x1 PUSH1 0xA0 SHL SUB AND PUSH2 0x1CE6 DUP2 ISZERO ISZERO PUSH2 0x3A96 JUMP JUMPDEST PUSH1 0x40 MLOAD PUSH4 0x6EB1769F PUSH1 0xE1 SHL DUP2 MSTORE ADDRESS PUSH1 0x4 DUP3 ADD MSTORE PUSH1 0x1 PUSH1 0x1 PUSH1 0xA0 SHL SUB DUP3 AND PUSH1 0x24 DUP3 ADD MSTORE PUSH1 0x20 DUP2 PUSH1 0x44 DUP2 DUP10 GAS STATICCALL SWAP1 DUP2 ISZERO PUSH2 0x1EC6 JUMPI DUP11 SWAP2 PUSH2 0x1E94 JUMPI JUMPDEST POP PUSH2 0x1E84 JUMPI JUMPDEST POP PUSH1 0xA SLOAD PUSH2 0x1D3E SWAP1 DUP5 SWAP1 PUSH1 0x1 PUSH1 0x1 PUSH1 0xA0 SHL SUB AND DUP7 PUSH2 0x447D JUMP JUMPDEST PUSH1 0xA SLOAD DUP9 SWAP1 PUSH1 0x60 SWAP1 PUSH1 0x1 PUSH1 0x1 PUSH1 0xA0 SHL SUB DUP2 AND SWAP1 DUP4 SWAP1 DUP3 EXTCODESIZE ISZERO PUSH2 0x4B9 JUMPI DUP8 DUP13 SWAP7 SWAP4 PUSH1 0x1 PUSH1 0x1 PUSH1 0x40 SHL SUB DUP5 DUP1 SWAP5 PUSH2 0x1D91 DUP12 SWAP9 DUP14 PUSH1 0x40 MLOAD SWAP11 DUP12 SWAP9 DUP10 SWAP8 DUP9 SWAP7 PUSH4 0xF84DD79 PUSH1 0xE2 SHL DUP9 MSTORE PUSH1 0xA0 SHR AND SWAP4 PUSH1 0x4 DUP8 ADD PUSH2 0x3AD4 JUMP JUMPDEST SUB SWAP3 GAS CALL SWAP2 DUP3 PUSH2 0x1E5F JUMPI JUMPDEST POP POP SWAP7 DUP7 PUSH32 0x3A0B7FDDF9C96C10649E612E9A4DC705AE782721AB6A4A7347CF6E0E13B6A1D2 DUP7 DUP3 SWAP9 SWAP8 SWAP7 PUSH2 0x1E31 PUSH1 0x60 SWAP12 SWAP8 PUSH32 0x73D40F1F9C0775E6157122394BE131C037056BFF82D86F1F2F4103E318E1C2D5 SWAP8 PUSH32 0xAE62392EC9C5AB769DC4D2BF163B81444F6D24444ED51EB54691B478634971A SWAP15 ISZERO PUSH1 0x0 EQ PUSH2 0x1E56 JUMPI POP PUSH2 0x1E22 PUSH2 0x38A2 JUMP JUMPDEST SWAP1 JUMPDEST DUP12 PUSH1 0x40 MLOAD SWAP6 DUP7 SWAP6 DUP7 PUSH2 0x3B10 JUMP JUMPDEST SUB SWAP1 LOG2 PUSH1 0xA SLOAD PUSH2 0x1E4A SWAP1 PUSH1 0x1 PUSH1 0x1 PUSH1 0xA0 SHL SUB AND DUP5 PUSH2 0x43C1 JUMP JUMPDEST SWAP7 POP POP POP SWAP1 SWAP2 SWAP3 PUSH2 0x1C36 JUMP JUMPDEST SWAP1 POP PUSH1 0x1 PUSH2 0x1E24 JUMP JUMPDEST DUP2 SWAP3 SWAP5 SWAP4 SWAP9 SWAP8 SWAP7 SWAP6 POP SWAP1 PUSH2 0x1E72 SWAP2 PUSH2 0x371E JUMP JUMPDEST PUSH2 0x1822 JUMPI SWAP1 SWAP5 DUP9 SWAP3 SWAP4 SWAP5 SWAP6 DUP11 CODESIZE PUSH2 0x1D9C JUMP JUMPDEST PUSH2 0x1E8E SWAP1 DUP6 PUSH2 0x43C1 JUMP JUMPDEST CODESIZE PUSH2 0x1D25 JUMP JUMPDEST SWAP1 POP PUSH1 0x20 DUP2 RETURNDATASIZE PUSH1 0x20 GT PUSH2 0x1EBE JUMPI JUMPDEST DUP2 PUSH2 0x1EAF PUSH1 0x20 SWAP4 DUP4 PUSH2 0x371E JUMP JUMPDEST DUP2 ADD SUB SLT PUSH2 0x300 JUMPI MLOAD CODESIZE PUSH2 0x1D1F JUMP JUMPDEST RETURNDATASIZE SWAP2 POP PUSH2 0x1EA2 JUMP JUMPDEST PUSH1 0x40 MLOAD RETURNDATASIZE DUP13 DUP3 RETURNDATACOPY RETURNDATASIZE SWAP1 REVERT JUMPDEST PUSH1 0x40 MLOAD PUSH3 0x461BCD PUSH1 0xE5 SHL DUP2 MSTORE PUSH1 0x20 PUSH1 0x4 DUP3 ADD MSTORE PUSH1 0xB PUSH1 0x24 DUP3 ADD MSTORE PUSH11 0x6E6F2070726F6365656473 PUSH1 0xA8 SHL PUSH1 0x44 DUP3 ADD MSTORE PUSH1 0x64 SWAP1 REVERT JUMPDEST SWAP4 SWAP6 SWAP3 SWAP4 DUP2 DUP9 SUB PUSH2 0x1F27 JUMPI POP POP POP SWAP1 PUSH2 0x1F1C SWAP2 PUSH2 0x3E64 JUMP JUMPDEST SWAP2 JUMPDEST CODESIZE DUP9 DUP2 DUP1 PUSH2 0x1C1D JUMP JUMPDEST PUSH1 0x8 SLOAD SWAP5 SWAP7 SWAP5 SWAP3 SWAP4 SWAP2 SWAP3 PUSH1 0x20 SWAP2 PUSH2 0x1FC4 SWAP2 PUSH2 0x1F58 SWAP1 DUP11 SWAP1 PUSH1 0x1 PUSH1 0x1 PUSH1 0xA0 SHL SUB AND PUSH2 0x1F52 DUP2 ISZERO ISZERO PUSH2 0x3DC1 JUMP JUMPDEST DUP8 PUSH2 0x44B6 JUMP JUMPDEST PUSH1 0x8 SLOAD PUSH1 0x40 MLOAD PUSH1 0x1 PUSH1 0x1 PUSH1 0xA0 SHL SUB SWAP1 SWAP2 AND SWAP2 PUSH2 0x1F73 DUP3 PUSH2 0x36CB JUMP JUMPDEST DUP7 DUP3 MSTORE DUP12 DUP6 DUP4 ADD MSTORE DUP8 PUSH1 0x40 DUP4 ADD MSTORE ADDRESS PUSH1 0x60 DUP4 ADD MSTORE TIMESTAMP PUSH1 0x80 DUP4 ADD MSTORE DUP11 PUSH1 0xA0 DUP4 ADD MSTORE PUSH1 0x84 CALLDATALOAD PUSH1 0xC0 DUP4 ADD MSTORE PUSH1 0x1 DUP1 PUSH1 0xA0 SHL SUB AND PUSH1 0xE0 DUP3 ADD MSTORE PUSH1 0x40 MLOAD SWAP7 DUP8 DUP1 SWAP5 DUP2 SWAP4 PUSH4 0xB3CE3C9 PUSH1 0xE1 SHL DUP4 MSTORE PUSH1 0x4 DUP4 ADD PUSH2 0x3DFE JUMP JUMPDEST SUB SWAP3 GAS CALL SWAP1 DUP2 ISZERO PUSH2 0x205C JUMPI DUP8 SWAP4 DUP13 SWAP3 PUSH2 0x2024 JUMPI JUMPDEST POP SWAP1 PUSH2 0x2005 DUP2 PUSH32 0x8D2C32089972A3F85B2B5A222CEC8188A772BD6DF05FBBD6CCD11851DF27019D SWAP4 PUSH2 0x3E64 JUMP JUMPDEST PUSH1 0x40 DUP1 MLOAD SWAP9 DUP10 MSTORE PUSH1 0x20 DUP10 ADD SWAP3 SWAP1 SWAP3 MSTORE SWAP1 DUP8 ADD DUP11 SWAP1 MSTORE SWAP6 PUSH1 0x60 SWAP1 LOG3 PUSH2 0x1F1E JUMP JUMPDEST SWAP2 POP SWAP3 POP PUSH1 0x20 DUP2 RETURNDATASIZE PUSH1 0x20 GT PUSH2 0x2054 JUMPI JUMPDEST DUP2 PUSH2 0x2041 PUSH1 0x20 SWAP4 DUP4 PUSH2 0x371E JUMP JUMPDEST DUP2 ADD SUB SLT PUSH2 0x300 JUMPI MLOAD DUP7 SWAP3 PUSH2 0x2005 PUSH2 0x1FD8 JUMP JUMPDEST RETURNDATASIZE SWAP2 POP PUSH2 0x2034 JUMP JUMPDEST PUSH1 0x40 MLOAD RETURNDATASIZE DUP14 DUP3 RETURNDATACOPY RETURNDATASIZE SWAP1 REVERT JUMPDEST SWAP2 SWAP8 SWAP1 SWAP2 DUP1 DUP11 SUB PUSH2 0x2086 JUMPI POP SWAP1 PUSH2 0x207D SWAP2 PUSH2 0x3E64 JUMP JUMPDEST SWAP6 JUMPDEST CODESIZE DUP1 PUSH2 0x1C15 JUMP JUMPDEST PUSH1 0x8 SLOAD SWAP3 SWAP9 SWAP3 DUP6 SWAP3 POP PUSH2 0x20AF SWAP1 DUP11 SWAP1 PUSH1 0x1 PUSH1 0x1 PUSH1 0xA0 SHL SUB AND PUSH2 0x20A9 DUP2 ISZERO ISZERO PUSH2 0x3DC1 JUMP JUMPDEST DUP4 PUSH2 0x44B6 JUMP JUMPDEST PUSH1 0x20 PUSH2 0x2122 PUSH1 0x1 DUP1 PUSH1 0xA0 SHL SUB PUSH1 0x8 SLOAD AND PUSH1 0x40 MLOAD PUSH2 0x20CB DUP2 PUSH2 0x36CB JUMP JUMPDEST DUP5 DUP2 MSTORE DUP4 DUP2 ADD DUP15 SWAP1 MSTORE PUSH1 0x40 DUP1 DUP3 ADD DUP8 SWAP1 MSTORE ADDRESS PUSH1 0x60 DUP4 ADD MSTORE TIMESTAMP PUSH1 0x80 DUP4 ADD MSTORE PUSH1 0xA0 DUP3 ADD DUP15 SWAP1 MSTORE PUSH1 0x64 CALLDATALOAD PUSH1 0xC0 DUP4 ADD MSTORE PUSH1 0x1 PUSH1 0x1 PUSH1 0xA0 SHL SUB DUP9 AND PUSH1 0xE0 DUP4 ADD MSTORE MLOAD PUSH4 0xB3CE3C9 PUSH1 0xE1 SHL DUP2 MSTORE SWAP6 DUP7 SWAP4 DUP5 SWAP3 DUP4 SWAP2 SWAP1 PUSH1 0x4 DUP4 ADD PUSH2 0x3DFE JUMP JUMPDEST SUB SWAP3 GAS CALL DUP1 ISZERO PUSH2 0x87E JUMPI DUP13 SWAP10 DUP12 SWAP4 DUP8 SWAP3 PUSH2 0x2178 JUMPI JUMPDEST POP PUSH1 0x40 DUP1 MLOAD SWAP2 DUP3 MSTORE PUSH1 0x20 DUP3 ADD DUP4 SWAP1 MSTORE DUP2 ADD SWAP11 SWAP1 SWAP11 MSTORE SWAP9 PUSH32 0x8D2C32089972A3F85B2B5A222CEC8188A772BD6DF05FBBD6CCD11851DF27019D SWAP1 PUSH1 0x60 SWAP1 LOG3 PUSH2 0x207F JUMP JUMPDEST SWAP7 POP SWAP3 POP POP SWAP8 POP PUSH1 0x20 DUP5 RETURNDATASIZE PUSH1 0x20 GT PUSH2 0x21CE JUMPI JUMPDEST DUP2 PUSH2 0x2198 PUSH1 0x20 SWAP4 DUP4 PUSH2 0x371E JUMP JUMPDEST DUP2 ADD SUB SLT PUSH2 0x300 JUMPI DUP11 SWAP8 PUSH32 0x8D2C32089972A3F85B2B5A222CEC8188A772BD6DF05FBBD6CCD11851DF27019D DUP11 SWAP3 DUP16 SWAP7 MLOAD SWAP2 PUSH2 0x2137 JUMP JUMPDEST RETURNDATASIZE SWAP2 POP PUSH2 0x218B JUMP JUMPDEST PUSH1 0x40 MLOAD PUSH3 0x461BCD PUSH1 0xE5 SHL DUP2 MSTORE PUSH1 0x20 PUSH1 0x4 DUP3 ADD MSTORE PUSH1 0x12 PUSH1 0x24 DUP3 ADD MSTORE PUSH18 0x18985CD9481B9BDD081CDD5C1C1BDC9D1959 PUSH1 0x72 SHL PUSH1 0x44 DUP3 ADD MSTORE PUSH1 0x64 SWAP1 REVERT JUMPDEST DUP4 DUP1 REVERT JUMPDEST POP CALLVALUE PUSH2 0x279 JUMPI PUSH1 0x20 CALLDATASIZE PUSH1 0x3 NOT ADD SLT PUSH2 0x279 JUMPI PUSH2 0x222E PUSH2 0x3603 JUMP JUMPDEST PUSH2 0x2236 PUSH2 0x406C JUMP JUMPDEST PUSH1 0x1 DUP1 PUSH1 0xA0 SHL SUB AND PUSH1 0x1 PUSH1 0x1 PUSH1 0x60 SHL SUB PUSH1 0xA0 SHL PUSH1 0x9 SLOAD AND OR PUSH1 0x9 SSTORE DUP1 RETURN JUMPDEST POP CALLVALUE PUSH2 0x279 JUMPI PUSH1 0x20 CALLDATASIZE PUSH1 0x3 NOT ADD SLT PUSH2 0x279 JUMPI PUSH1 0x4 CALLDATALOAD PUSH1 0x1 PUSH1 0x1 PUSH1 0x40 SHL SUB DUP2 AND SWAP1 DUP2 DUP2 SUB PUSH2 0x4B5 JUMPI PUSH32 0xB9E8A579E9A0C4E7749FCFD43149D119DA9113654E983FEB7225F08A64802370 SWAP2 PUSH1 0x20 SWAP2 PUSH2 0x22A8 PUSH2 0x406C JUMP JUMPDEST PUSH2 0x22BA PUSH1 0xFF PUSH1 0xB SLOAD PUSH1 0xA0 SHR AND ISZERO PUSH2 0x38D2 JUMP JUMPDEST PUSH1 0xA DUP1 SLOAD PUSH8 0xFFFFFFFFFFFFFFFF PUSH1 0xA0 SHL NOT AND PUSH1 0xA0 SWAP3 SWAP1 SWAP3 SHL PUSH8 0xFFFFFFFFFFFFFFFF PUSH1 0xA0 SHL AND SWAP2 SWAP1 SWAP2 OR SWAP1 SSTORE PUSH1 0x40 MLOAD SWAP1 DUP2 MSTORE LOG1 DUP1 RETURN JUMPDEST POP CALLVALUE PUSH2 0x279 JUMPI PUSH1 0x20 CALLDATASIZE PUSH1 0x3 NOT ADD SLT PUSH2 0x279 JUMPI PUSH1 0x40 PUSH2 0x1A0 SWAP2 PUSH1 0x4 CALLDATALOAD DUP2 MSTORE PUSH1 0x4 PUSH1 0x20 MSTORE KECCAK256 PUSH1 0x1 DUP1 PUSH1 0xA0 SHL SUB DUP2 SLOAD AND SWAP1 PUSH1 0x1 DUP1 PUSH1 0xA0 SHL SUB PUSH1 0x1 DUP3 ADD SLOAD AND SWAP1 PUSH1 0x2 DUP2 ADD SLOAD PUSH1 0x1 PUSH1 0x1 PUSH1 0x80 SHL SUB PUSH1 0x3 DUP4 ADD SLOAD AND PUSH1 0x4 DUP4 ADD SLOAD PUSH1 0x5 DUP5 ADD SLOAD SWAP2 PUSH1 0x6 DUP6 ADD SLOAD SWAP4 PUSH1 0xFF PUSH1 0x8 PUSH1 0x7 DUP9 ADD SLOAD SWAP8 ADD SLOAD AND SWAP7 PUSH1 0x40 MLOAD SWAP9 DUP10 MSTORE PUSH1 0x20 DUP10 ADD MSTORE PUSH1 0x1 DUP1 PUSH1 0xA0 SHL SUB DUP2 AND PUSH1 0x40 DUP10 ADD MSTORE DUP1 PUSH1 0xA0 SHR PUSH1 0x2 SIGNEXTEND PUSH1 0x60 DUP10 ADD MSTORE PUSH1 0xB8 SHR PUSH1 0x2 SIGNEXTEND PUSH1 0x80 DUP9 ADD MSTORE PUSH1 0xA0 DUP8 ADD MSTORE PUSH1 0xC0 DUP7 ADD MSTORE PUSH1 0x1 DUP1 PUSH1 0xA0 SHL SUB DUP2 AND PUSH1 0xE0 DUP7 ADD MSTORE DUP1 PUSH1 0xA0 SHR PUSH1 0x2 SIGNEXTEND PUSH2 0x100 DUP7 ADD MSTORE PUSH1 0xB8 SHR PUSH1 0x2 SIGNEXTEND PUSH2 0x120 DUP6 ADD MSTORE PUSH2 0x140 DUP5 ADD MSTORE PUSH2 0x160 DUP4 ADD MSTORE ISZERO ISZERO PUSH2 0x180 DUP3 ADD MSTORE RETURN JUMPDEST POP CALLVALUE PUSH2 0x279 JUMPI DUP1 PUSH1 0x3 NOT CALLDATASIZE ADD SLT PUSH2 0x279 JUMPI PUSH1 0x20 PUSH2 0xFFFF PUSH1 0xC SLOAD PUSH1 0xA0 SHR AND PUSH1 0x40 MLOAD SWAP1 DUP2 MSTORE RETURN JUMPDEST POP CALLVALUE PUSH2 0x279 JUMPI DUP1 PUSH1 0x3 NOT CALLDATASIZE ADD SLT PUSH2 0x279 JUMPI SLOAD PUSH1 0x40 MLOAD PUSH1 0x1 PUSH1 0x1 PUSH1 0xA0 SHL SUB SWAP1 SWAP2 AND DUP2 MSTORE PUSH1 0x20 SWAP1 RETURN JUMPDEST POP CALLVALUE PUSH2 0x279 JUMPI DUP1 PUSH1 0x3 NOT CALLDATASIZE ADD SLT PUSH2 0x279 JUMPI PUSH2 0x2439 PUSH2 0x406C JUMP JUMPDEST PUSH2 0x2441 PUSH2 0x4095 JUMP JUMPDEST PUSH1 0x1 PUSH1 0xFF NOT PUSH1 0x2 SLOAD AND OR PUSH1 0x2 SSTORE PUSH32 0x62E78CEA01BEE320CD4E420270B5EA74000D11B0C9F74754EBDBFC544B05A258 PUSH1 0x20 PUSH1 0x40 MLOAD CALLER DUP2 MSTORE LOG1 DUP1 RETURN JUMPDEST POP CALLVALUE PUSH2 0x279 JUMPI PUSH1 0x20 CALLDATASIZE PUSH1 0x3 NOT ADD SLT PUSH2 0x279 JUMPI PUSH2 0x2495 PUSH2 0x3603 JUMP JUMPDEST PUSH2 0x249D PUSH2 0x406C JUMP JUMPDEST PUSH1 0x1 PUSH1 0x1 PUSH1 0xA0 SHL SUB AND DUP2 MSTORE PUSH1 0x3 PUSH1 0x20 MSTORE PUSH1 0x40 DUP2 KECCAK256 DUP1 SLOAD PUSH1 0xFF NOT AND SWAP1 SSTORE DUP1 RETURN JUMPDEST POP CALLVALUE PUSH2 0x279 JUMPI DUP1 PUSH1 0x3 NOT CALLDATASIZE ADD SLT PUSH2 0x279 JUMPI PUSH2 0x24D5 PUSH2 0x406C JUMP JUMPDEST DUP1 SLOAD PUSH1 0x1 PUSH1 0x1 PUSH1 0xA0 SHL SUB NOT DUP2 AND DUP3 SSTORE DUP2 SWAP1 PUSH1 0x1 PUSH1 0x1 PUSH1 0xA0 SHL SUB AND PUSH32 0x8BE0079C531659141344CD1FD0A4F28419497F9722A3DAAFE3B4186F6B6457E0 DUP3 DUP1 LOG3 DUP1 RETURN JUMPDEST POP CALLVALUE PUSH2 0x279 JUMPI PUSH1 0x20 CALLDATASIZE PUSH1 0x3 NOT ADD SLT PUSH2 0x279 JUMPI PUSH2 0x2530 PUSH2 0x3603 JUMP JUMPDEST PUSH2 0x2538 PUSH2 0x406C JUMP JUMPDEST PUSH1 0x1 PUSH1 0x1 PUSH1 0xA0 SHL SUB AND DUP2 MSTORE PUSH1 0x3 PUSH1 0x20 MSTORE PUSH1 0x40 DUP2 KECCAK256 DUP1 SLOAD PUSH1 0xFF NOT AND PUSH1 0x1 OR SWAP1 SSTORE DUP1 RETURN JUMPDEST POP CALLVALUE PUSH2 0x279 JUMPI DUP1 PUSH1 0x3 NOT CALLDATASIZE ADD SLT PUSH2 0x279 JUMPI PUSH2 0x2573 PUSH2 0x406C JUMP JUMPDEST PUSH1 0xB SLOAD PUSH1 0xFF DUP2 PUSH1 0xA0 SHR AND PUSH2 0x25B8 JUMPI PUSH1 0xFF PUSH1 0xA0 SHL NOT AND PUSH1 0x1 PUSH1 0xA0 SHL OR PUSH1 0xB SSTORE PUSH32 0x47B12A5127AEE56EADD24CEA9CDADF65050A7182DA93368C3F64508C2EAC0D13 DUP2 DUP1 LOG1 DUP1 RETURN JUMPDEST PUSH1 0x40 MLOAD PUSH3 0x461BCD PUSH1 0xE5 SHL DUP2 MSTORE PUSH1 0x20 PUSH1 0x4 DUP3 ADD MSTORE PUSH1 0xE PUSH1 0x24 DUP3 ADD MSTORE PUSH14 0x30B63932B0B23C90333937BD32B7 PUSH1 0x91 SHL PUSH1 0x44 DUP3 ADD MSTORE PUSH1 0x64 SWAP1 REVERT JUMPDEST POP CALLVALUE PUSH2 0x279 JUMPI PUSH1 0x20 CALLDATASIZE PUSH1 0x3 NOT ADD SLT PUSH2 0x279 JUMPI PUSH1 0x20 SWAP1 PUSH1 0xFF SWAP1 PUSH1 0x40 SWAP1 PUSH1 0x1 PUSH1 0x1 PUSH1 0xA0 SHL SUB PUSH2 0x2619 PUSH2 0x3603 JUMP JUMPDEST AND DUP2 MSTORE PUSH1 0x3 DUP5 MSTORE KECCAK256 SLOAD AND PUSH1 0x40 MLOAD SWAP1 ISZERO ISZERO DUP2 MSTORE RETURN JUMPDEST POP CALLVALUE PUSH2 0x279 JUMPI PUSH1 0x60 CALLDATASIZE PUSH1 0x3 NOT ADD SLT PUSH2 0x279 JUMPI PUSH2 0x2647 PUSH2 0x3603 JUMP JUMPDEST PUSH1 0x24 CALLDATALOAD SWAP1 DUP2 PUSH1 0x2 SIGNEXTEND DUP3 SUB PUSH2 0x4B5 JUMPI PUSH1 0x44 CALLDATALOAD SWAP3 DUP4 PUSH1 0x2 SIGNEXTEND DUP5 SUB PUSH2 0x279 JUMPI PUSH1 0x40 PUSH2 0x2670 DUP6 DUP6 DUP6 PUSH2 0x3C12 JUMP JUMPDEST DUP3 MLOAD SWAP2 PUSH1 0x2 SIGNEXTEND DUP3 MSTORE PUSH1 0x2 SIGNEXTEND PUSH1 0x20 DUP3 ADD MSTORE RETURN JUMPDEST POP CALLVALUE PUSH2 0x279 JUMPI DUP1 PUSH1 0x3 NOT CALLDATASIZE ADD SLT PUSH2 0x279 JUMPI PUSH1 0x20 PUSH1 0x6 SLOAD PUSH1 0x40 MLOAD SWAP1 DUP2 MSTORE RETURN JUMPDEST POP CALLVALUE PUSH2 0x279 JUMPI DUP1 PUSH1 0x3 NOT CALLDATASIZE ADD SLT PUSH2 0x279 JUMPI DUP1 PUSH1 0x1 PUSH1 0x6 SLOAD SWAP1 JUMPDEST DUP2 DUP2 GT ISZERO PUSH2 0x2979 JUMPI POP PUSH2 0x26CB DUP3 PUSH2 0x3829 JUMP JUMPDEST SWAP2 PUSH2 0x26D9 PUSH1 0x40 MLOAD SWAP4 DUP5 PUSH2 0x371E JUMP JUMPDEST DUP1 DUP4 MSTORE PUSH2 0x26E8 PUSH1 0x1F NOT SWAP2 PUSH2 0x3829 JUMP JUMPDEST ADD DUP4 JUMPDEST DUP2 DUP2 LT PUSH2 0x290F JUMPI POP POP DUP3 PUSH1 0x1 JUMPDEST DUP3 DUP2 GT ISZERO PUSH2 0x27FF JUMPI DUP4 DUP6 PUSH1 0x40 MLOAD SWAP2 DUP3 SWAP2 PUSH1 0x20 DUP4 ADD PUSH1 0x20 DUP5 MSTORE DUP3 MLOAD DUP1 SWAP2 MSTORE PUSH1 0x20 PUSH1 0x40 DUP6 ADD SWAP4 ADD SWAP2 JUMPDEST DUP2 DUP2 LT PUSH2 0x272D JUMPI POP POP POP SUB SWAP1 RETURN JUMPDEST SWAP2 SWAP4 POP SWAP2 PUSH1 0x20 PUSH2 0x1A0 PUSH1 0x1 SWAP3 PUSH2 0x180 DUP8 MLOAD DUP6 DUP1 PUSH1 0xA0 SHL SUB DUP2 MLOAD AND DUP4 MSTORE DUP6 DUP1 PUSH1 0xA0 SHL SUB DUP6 DUP3 ADD MLOAD AND DUP6 DUP5 ADD MSTORE DUP6 DUP1 PUSH1 0xA0 SHL SUB PUSH1 0x40 DUP3 ADD MLOAD AND PUSH1 0x40 DUP5 ADD MSTORE PUSH1 0x60 DUP2 ADD MLOAD PUSH1 0x2 SIGNEXTEND PUSH1 0x60 DUP5 ADD MSTORE PUSH1 0x80 DUP2 ADD MLOAD PUSH1 0x2 SIGNEXTEND PUSH1 0x80 DUP5 ADD MSTORE PUSH1 0x1 PUSH1 0x1 PUSH1 0x80 SHL SUB PUSH1 0xA0 DUP3 ADD MLOAD AND PUSH1 0xA0 DUP5 ADD MSTORE PUSH1 0xC0 DUP2 ADD MLOAD PUSH1 0xC0 DUP5 ADD MSTORE DUP6 DUP1 PUSH1 0xA0 SHL SUB PUSH1 0xE0 DUP3 ADD MLOAD AND PUSH1 0xE0 DUP5 ADD MSTORE PUSH2 0x100 DUP2 ADD MLOAD PUSH1 0x2 SIGNEXTEND PUSH2 0x100 DUP5 ADD MSTORE PUSH2 0x120 DUP2 ADD MLOAD PUSH1 0x2 SIGNEXTEND PUSH2 0x120 DUP5 ADD MSTORE PUSH2 0x140 DUP2 ADD MLOAD PUSH2 0x140 DUP5 ADD MSTORE PUSH2 0x160 DUP2 ADD MLOAD PUSH2 0x160 DUP5 ADD MSTORE ADD MLOAD ISZERO ISZERO PUSH2 0x180 DUP3 ADD MSTORE ADD SWAP5 ADD SWAP2 ADD SWAP2 DUP5 SWAP4 SWAP3 PUSH2 0x271F JUMP JUMPDEST DUP1 DUP6 MSTORE PUSH1 0x4 PUSH1 0x20 MSTORE PUSH1 0xFF PUSH1 0x8 PUSH1 0x40 DUP8 KECCAK256 ADD SLOAD AND PUSH2 0x2825 JUMPI JUMPDEST PUSH2 0x2820 SWAP1 PUSH2 0x3B44 JUMP JUMPDEST PUSH2 0x26F8 JUMP JUMPDEST SWAP1 PUSH2 0x2907 PUSH2 0x2820 SWAP2 DUP4 DUP8 MSTORE PUSH1 0x4 PUSH1 0x20 MSTORE PUSH1 0x40 DUP8 KECCAK256 PUSH1 0xFF PUSH1 0x8 PUSH1 0x40 MLOAD SWAP3 PUSH2 0x284A DUP5 PUSH2 0x3699 JUMP JUMPDEST DUP1 SLOAD PUSH1 0x1 PUSH1 0x1 PUSH1 0xA0 SHL SUB SWAP1 DUP2 AND DUP6 MSTORE PUSH1 0x1 DUP3 ADD SLOAD DUP2 AND PUSH1 0x20 DUP7 ADD MSTORE PUSH1 0x2 DUP1 DUP4 ADD SLOAD DUP1 DUP4 AND PUSH1 0x40 DUP9 ADD MSTORE PUSH1 0xA0 DUP2 DUP2 SHR DUP4 SIGNEXTEND PUSH1 0x60 DUP10 ADD MSTORE PUSH1 0xB8 SWAP2 DUP3 SHR DUP4 SIGNEXTEND PUSH1 0x80 DUP10 ADD MSTORE PUSH1 0x3 DUP6 ADD SLOAD PUSH1 0x1 PUSH1 0x1 PUSH1 0x80 SHL SUB AND DUP9 DUP3 ADD MSTORE PUSH1 0x4 DUP6 ADD SLOAD PUSH1 0xC0 DUP10 ADD MSTORE PUSH1 0x5 DUP6 ADD SLOAD SWAP4 DUP5 AND PUSH1 0xE0 DUP10 ADD MSTORE DUP4 SWAP1 SHR DUP3 SIGNEXTEND PUSH2 0x100 DUP9 ADD MSTORE SWAP2 SWAP1 SWAP2 SHR SWAP1 SIGNEXTEND PUSH2 0x120 DUP6 ADD MSTORE PUSH1 0x6 DUP2 ADD SLOAD PUSH2 0x140 DUP6 ADD MSTORE PUSH1 0x7 DUP2 ADD SLOAD PUSH2 0x160 DUP6 ADD MSTORE ADD SLOAD AND ISZERO ISZERO PUSH2 0x180 DUP3 ADD MSTORE PUSH2 0x28F6 DUP3 DUP9 PUSH2 0x3B86 JUMP JUMPDEST MSTORE PUSH2 0x2901 DUP2 DUP8 PUSH2 0x3B86 JUMP JUMPDEST POP PUSH2 0x3B44 JUMP JUMPDEST SWAP2 SWAP1 POP PUSH2 0x2817 JUMP JUMPDEST PUSH1 0x20 SWAP1 PUSH1 0x40 MLOAD PUSH2 0x291E DUP2 PUSH2 0x3699 JUMP JUMPDEST DUP7 DUP2 MSTORE DUP7 DUP4 DUP3 ADD MSTORE DUP7 PUSH1 0x40 DUP3 ADD MSTORE DUP7 PUSH1 0x60 DUP3 ADD MSTORE DUP7 PUSH1 0x80 DUP3 ADD MSTORE DUP7 PUSH1 0xA0 DUP3 ADD MSTORE DUP7 PUSH1 0xC0 DUP3 ADD MSTORE DUP7 PUSH1 0xE0 DUP3 ADD MSTORE DUP7 PUSH2 0x100 DUP3 ADD MSTORE DUP7 PUSH2 0x120 DUP3 ADD MSTORE DUP7 PUSH2 0x140 DUP3 ADD MSTORE DUP7 PUSH2 0x160 DUP3 ADD MSTORE DUP7 PUSH2 0x180 DUP3 ADD MSTORE DUP3 DUP3 DUP8 ADD ADD MSTORE ADD PUSH2 0x26EB JUMP JUMPDEST DUP1 DUP5 MSTORE PUSH1 0x4 PUSH1 0x20 MSTORE PUSH1 0xFF PUSH1 0x8 PUSH1 0x40 DUP7 KECCAK256 ADD SLOAD AND PUSH2 0x299F JUMPI JUMPDEST PUSH2 0x299A SWAP1 PUSH2 0x3B44 JUMP JUMPDEST PUSH2 0x26B9 JUMP JUMPDEST SWAP2 PUSH2 0x29AC PUSH2 0x299A SWAP2 PUSH2 0x3B44 JUMP JUMPDEST SWAP3 SWAP1 POP PUSH2 0x2991 JUMP JUMPDEST POP CALLVALUE PUSH2 0x279 JUMPI PUSH1 0x40 CALLDATASIZE PUSH1 0x3 NOT ADD SLT PUSH2 0x279 JUMPI PUSH2 0x29CE PUSH2 0x3603 JUMP JUMPDEST PUSH1 0x1 PUSH1 0x1 PUSH1 0xA0 SHL SUB AND DUP2 MSTORE PUSH1 0x5 PUSH1 0x20 MSTORE PUSH1 0x40 DUP2 KECCAK256 DUP1 SLOAD PUSH1 0x24 CALLDATALOAD SWAP3 SWAP1 DUP4 LT ISZERO PUSH2 0x279 JUMPI PUSH1 0x20 PUSH2 0x29FC DUP5 DUP5 PUSH2 0x37FB JUMP JUMPDEST SWAP1 SLOAD SWAP1 PUSH1 0x3 SHL SHR PUSH1 0x40 MLOAD SWAP1 DUP2 MSTORE RETURN JUMPDEST POP CALLVALUE PUSH2 0x279 JUMPI PUSH1 0x20 CALLDATASIZE PUSH1 0x3 NOT ADD SLT PUSH2 0x279 JUMPI PUSH1 0x4 CALLDATALOAD PUSH4 0xFFFFFFFF DUP2 AND SWAP1 DUP2 DUP2 SUB PUSH2 0x4B5 JUMPI PUSH32 0x251E6F2D5D17A57707F74C15C4A10071AB5B45953476C7C9E3B1B992D9F9DD0 SWAP2 PUSH1 0x20 SWAP2 PUSH2 0x2A5C PUSH2 0x406C JUMP JUMPDEST PUSH2 0x2A6E PUSH1 0xFF PUSH1 0xB SLOAD PUSH1 0xA0 SHR AND ISZERO PUSH2 0x38D2 JUMP JUMPDEST PUSH1 0xA DUP1 SLOAD PUSH1 0x1 PUSH1 0x1 PUSH1 0xE0 SHL SUB AND PUSH1 0xE0 SWAP3 SWAP1 SWAP3 SHL PUSH1 0x1 PUSH1 0x1 PUSH1 0xE0 SHL SUB NOT AND SWAP2 SWAP1 SWAP2 OR SWAP1 SSTORE PUSH1 0x40 MLOAD SWAP1 DUP2 MSTORE LOG1 DUP1 RETURN JUMPDEST POP CALLVALUE PUSH2 0x279 JUMPI DUP1 PUSH1 0x3 NOT CALLDATASIZE ADD SLT PUSH2 0x279 JUMPI PUSH1 0x20 PUSH1 0xFF PUSH1 0x2 SLOAD AND PUSH1 0x40 MLOAD SWAP1 ISZERO ISZERO DUP2 MSTORE RETURN JUMPDEST POP CALLVALUE PUSH2 0x279 JUMPI DUP1 PUSH1 0x3 NOT CALLDATASIZE ADD SLT PUSH2 0x279 JUMPI PUSH1 0xD SLOAD PUSH1 0x40 MLOAD PUSH1 0x1 PUSH1 0x1 PUSH1 0xA0 SHL SUB SWAP1 SWAP2 AND DUP2 MSTORE PUSH1 0x20 SWAP1 RETURN JUMPDEST POP CALLVALUE PUSH2 0x279 JUMPI PUSH1 0x80 CALLDATASIZE PUSH1 0x3 NOT ADD SLT PUSH2 0x279 JUMPI PUSH2 0x2B01 PUSH2 0x3603 JUMP JUMPDEST PUSH2 0x2B09 PUSH2 0x3619 JUMP JUMPDEST PUSH1 0x44 CALLDATALOAD SWAP2 PUSH1 0x64 CALLDATALOAD PUSH1 0x1 PUSH1 0x1 PUSH1 0x40 SHL SUB DUP2 GT PUSH2 0x1826 JUMPI PUSH2 0x2B2C SWAP1 CALLDATASIZE SWAP1 PUSH1 0x4 ADD PUSH2 0x366C JUMP JUMPDEST PUSH2 0x2B34 PUSH2 0x406C JUMP JUMPDEST PUSH2 0x2B3C PUSH2 0x4095 JUMP JUMPDEST PUSH2 0x2B44 PUSH2 0x40B2 JUMP JUMPDEST PUSH2 0x2B4F DUP2 ISZERO ISZERO PUSH2 0x3A12 JUMP JUMPDEST PUSH1 0x1 PUSH1 0x1 PUSH1 0xA0 SHL SUB DUP4 AND DUP1 DUP8 MSTORE PUSH1 0x3 PUSH1 0x20 MSTORE PUSH1 0x40 DUP8 KECCAK256 SLOAD SWAP1 SWAP5 SWAP1 PUSH2 0x2B75 SWAP1 PUSH1 0xFF AND PUSH2 0x3A54 JUMP JUMPDEST PUSH1 0x40 MLOAD PUSH4 0x70A08231 PUSH1 0xE0 SHL DUP2 MSTORE ADDRESS PUSH1 0x4 DUP3 ADD MSTORE SWAP6 PUSH1 0x20 DUP8 PUSH1 0x24 DUP2 DUP10 GAS STATICCALL SWAP7 DUP8 ISZERO PUSH2 0x2E28 JUMPI DUP9 SWAP8 PUSH2 0x2DF4 JUMPI JUMPDEST POP DUP1 PUSH2 0x2DEE JUMPI POP DUP6 JUMPDEST DUP7 GT PUSH2 0x2DB2 JUMPI PUSH1 0xA SLOAD PUSH1 0x1 PUSH1 0x1 PUSH1 0xA0 SHL SUB AND PUSH2 0x2BC6 DUP2 ISZERO ISZERO PUSH2 0x3A96 JUMP JUMPDEST PUSH1 0x40 MLOAD PUSH4 0x6EB1769F PUSH1 0xE1 SHL DUP2 MSTORE ADDRESS PUSH1 0x4 DUP3 ADD MSTORE PUSH1 0x1 PUSH1 0x1 PUSH1 0xA0 SHL SUB DUP3 AND PUSH1 0x24 DUP3 ADD MSTORE PUSH1 0x20 DUP2 PUSH1 0x44 DUP2 DUP11 GAS STATICCALL SWAP1 DUP2 ISZERO PUSH2 0x2DA7 JUMPI DUP10 SWAP2 PUSH2 0x2D75 JUMPI JUMPDEST POP PUSH2 0x2D65 JUMPI JUMPDEST POP PUSH1 0xA SLOAD PUSH2 0x2C1E SWAP1 DUP8 SWAP1 PUSH1 0x1 PUSH1 0x1 PUSH1 0xA0 SHL SUB AND DUP8 PUSH2 0x447D JUMP JUMPDEST PUSH1 0xA SLOAD DUP8 SWAP5 SWAP1 PUSH1 0x60 SWAP1 PUSH1 0x1 PUSH1 0x1 PUSH1 0xA0 SHL SUB DUP2 AND SWAP1 DUP8 SWAP1 DUP3 EXTCODESIZE ISZERO PUSH2 0x4B9 JUMPI DUP11 DUP9 SWAP4 PUSH1 0x1 PUSH1 0x1 PUSH1 0x40 SHL SUB DUP5 DUP1 SWAP5 PUSH2 0x2C71 DUP16 SWAP11 DUP14 PUSH1 0x40 MLOAD SWAP11 DUP12 SWAP9 DUP10 SWAP8 DUP9 SWAP7 PUSH4 0xF84DD79 PUSH1 0xE2 SHL DUP9 MSTORE PUSH1 0xA0 SHR AND SWAP4 PUSH1 0x4 DUP8 ADD PUSH2 0x3AD4 JUMP JUMPDEST SUB SWAP3 GAS CALL SWAP2 DUP3 PUSH2 0x2D44 JUMPI JUMPDEST POP POP SWAP6 PUSH32 0x3A0B7FDDF9C96C10649E612E9A4DC705AE782721AB6A4A7347CF6E0E13B6A1D2 SWAP2 PUSH32 0x73D40F1F9C0775E6157122394BE131C037056BFF82D86F1F2F4103E318E1C2D5 SWAP8 ISZERO PUSH1 0x0 EQ PUSH2 0x2D3B JUMPI POP PUSH2 0x2CD4 PUSH2 0x38A2 JUMP JUMPDEST SWAP1 JUMPDEST PUSH2 0x2CE8 PUSH1 0x40 MLOAD SWAP3 DUP4 SWAP3 DUP13 DUP10 DUP12 DUP7 PUSH2 0x3B10 JUMP JUMPDEST SUB SWAP1 LOG2 PUSH1 0xA SLOAD PUSH2 0x2D01 SWAP1 PUSH1 0x1 PUSH1 0x1 PUSH1 0xA0 SHL SUB AND DUP7 PUSH2 0x43C1 JUMP JUMPDEST PUSH2 0x2D18 PUSH1 0x40 MLOAD SWAP4 DUP5 SWAP4 PUSH1 0x60 DUP6 MSTORE PUSH1 0x60 DUP6 ADD SWAP2 PUSH2 0x3881 JUMP JUMPDEST PUSH1 0x20 DUP4 ADD SWAP7 SWAP1 SWAP7 MSTORE PUSH1 0x40 DUP3 ADD DUP8 SWAP1 MSTORE PUSH1 0x1 PUSH1 0x1 PUSH1 0xA0 SHL SUB AND SWAP5 SUB SWAP1 LOG3 PUSH1 0x1 DUP1 SSTORE DUP1 RETURN JUMPDEST SWAP1 POP PUSH1 0x1 PUSH2 0x2CD6 JUMP JUMPDEST DUP2 SWAP3 SWAP4 SWAP5 POP SWAP1 PUSH2 0x2D53 SWAP2 PUSH2 0x371E JUMP JUMPDEST PUSH2 0x2D61 JUMPI SWAP1 DUP7 SWAP2 DUP10 CODESIZE PUSH2 0x2C7C JUMP JUMPDEST DUP9 DUP1 REVERT JUMPDEST PUSH2 0x2D6F SWAP1 DUP7 PUSH2 0x43C1 JUMP JUMPDEST CODESIZE PUSH2 0x2C05 JUMP JUMPDEST SWAP1 POP PUSH1 0x20 DUP2 RETURNDATASIZE PUSH1 0x20 GT PUSH2 0x2D9F JUMPI JUMPDEST DUP2 PUSH2 0x2D90 PUSH1 0x20 SWAP4 DUP4 PUSH2 0x371E JUMP JUMPDEST DUP2 ADD SUB SLT PUSH2 0x300 JUMPI MLOAD CODESIZE PUSH2 0x2BFF JUMP JUMPDEST RETURNDATASIZE SWAP2 POP PUSH2 0x2D83 JUMP JUMPDEST PUSH1 0x40 MLOAD RETURNDATASIZE DUP12 DUP3 RETURNDATACOPY RETURNDATASIZE SWAP1 REVERT JUMPDEST PUSH1 0x40 MLOAD PUSH3 0x461BCD PUSH1 0xE5 SHL DUP2 MSTORE PUSH1 0x20 PUSH1 0x4 DUP3 ADD MSTORE PUSH1 0x14 PUSH1 0x24 DUP3 ADD MSTORE PUSH20 0x696E73756666696369656E742062616C616E6365 PUSH1 0x60 SHL PUSH1 0x44 DUP3 ADD MSTORE PUSH1 0x64 SWAP1 REVERT JUMPDEST SWAP6 PUSH2 0x2BA9 JUMP JUMPDEST SWAP1 SWAP7 POP PUSH1 0x20 DUP2 RETURNDATASIZE PUSH1 0x20 GT PUSH2 0x2E20 JUMPI JUMPDEST DUP2 PUSH2 0x2E10 PUSH1 0x20 SWAP4 DUP4 PUSH2 0x371E JUMP JUMPDEST DUP2 ADD SUB SLT PUSH2 0x300 JUMPI MLOAD SWAP6 CODESIZE PUSH2 0x2BA0 JUMP JUMPDEST RETURNDATASIZE SWAP2 POP PUSH2 0x2E03 JUMP JUMPDEST PUSH1 0x40 MLOAD RETURNDATASIZE DUP11 DUP3 RETURNDATACOPY RETURNDATASIZE SWAP1 REVERT JUMPDEST POP CALLVALUE PUSH2 0x279 JUMPI PUSH1 0x20 CALLDATASIZE PUSH1 0x3 NOT ADD SLT PUSH2 0x279 JUMPI PUSH2 0x2E4D PUSH2 0x3603 JUMP JUMPDEST PUSH2 0x2E55 PUSH2 0x406C JUMP JUMPDEST PUSH2 0x2E67 PUSH1 0xFF PUSH1 0xB SLOAD PUSH1 0xA0 SHR AND ISZERO PUSH2 0x38D2 JUMP JUMPDEST PUSH1 0xA DUP1 SLOAD PUSH1 0x1 PUSH1 0x1 PUSH1 0xA0 SHL SUB NOT AND PUSH1 0x1 PUSH1 0x1 PUSH1 0xA0 SHL SUB SWAP3 SWAP1 SWAP3 AND SWAP2 DUP3 OR SWAP1 SSTORE PUSH32 0x37A5AD90DEE0A8EB332155C0562FE000A288BF5E452BC8EC70DE3D57D9396A17 DUP3 DUP1 LOG2 DUP1 RETURN JUMPDEST POP CALLVALUE PUSH2 0x279 JUMPI PUSH1 0x20 CALLDATASIZE PUSH1 0x3 NOT ADD SLT PUSH2 0x279 JUMPI PUSH2 0x2ED4 PUSH1 0x1 DUP1 PUSH1 0xA0 SHL SUB PUSH1 0xD SLOAD AND CALLER EQ PUSH2 0x39D7 JUMP JUMPDEST PUSH2 0x2EDC PUSH2 0x4095 JUMP JUMPDEST PUSH2 0x2EE4 PUSH2 0x40B2 JUMP JUMPDEST PUSH1 0x40 PUSH2 0x2EF1 PUSH1 0x4 CALLDATALOAD PUSH2 0x40D4 JUMP JUMPDEST PUSH1 0x1 DUP1 SSTORE DUP3 MLOAD SWAP2 DUP3 MSTORE PUSH1 0x20 DUP3 ADD MSTORE RETURN JUMPDEST POP CALLVALUE PUSH2 0x279 JUMPI PUSH1 0x20 CALLDATASIZE PUSH1 0x3 NOT ADD SLT PUSH2 0x279 JUMPI PUSH1 0x4 CALLDATALOAD DUP2 MSTORE PUSH1 0x4 PUSH1 0x20 MSTORE PUSH1 0x40 DUP2 KECCAK256 PUSH2 0x2F31 PUSH1 0xFF PUSH1 0x8 DUP4 ADD SLOAD AND PUSH2 0x3921 JUMP JUMPDEST DUP1 SLOAD PUSH1 0x40 MLOAD PUSH4 0x39DB0079 PUSH1 0xE2 SHL DUP2 MSTORE SWAP1 PUSH1 0xC0 SWAP1 DUP3 SWAP1 PUSH1 0x4 SWAP1 DUP3 SWAP1 PUSH1 0x1 PUSH1 0x1 PUSH1 0xA0 SHL SUB AND GAS STATICCALL SWAP1 DUP2 ISZERO PUSH2 0x2FD6 JUMPI SWAP1 PUSH1 0x2 SWAP2 PUSH1 0x40 SWAP5 SWAP2 PUSH2 0x2FA1 JUMPI JUMPDEST POP DUP2 SIGNEXTEND SWAP2 ADD SLOAD SWAP1 DUP2 PUSH1 0xA0 SHR PUSH1 0x2 SIGNEXTEND DUP2 SLT SWAP2 DUP3 ISZERO PUSH2 0x2F91 JUMPI JUMPDEST POP DUP3 MLOAD SWAP2 ISZERO ISZERO DUP3 MSTORE PUSH1 0x20 DUP3 ADD MSTORE RETURN JUMPDEST PUSH1 0xB8 SHR PUSH1 0x2 SIGNEXTEND DUP2 SGT SWAP2 POP CODESIZE PUSH2 0x2F82 JUMP JUMPDEST PUSH2 0x2FC3 SWAP2 POP PUSH1 0xC0 RETURNDATASIZE PUSH1 0xC0 GT PUSH2 0x2FCF JUMPI JUMPDEST PUSH2 0x2FBB DUP2 DUP4 PUSH2 0x371E JUMP JUMPDEST DUP2 ADD SWAP1 PUSH2 0x3971 JUMP JUMPDEST POP POP POP POP SWAP1 POP CODESIZE PUSH2 0x2F6A JUMP JUMPDEST POP RETURNDATASIZE PUSH2 0x2FB1 JUMP JUMPDEST PUSH1 0x40 MLOAD RETURNDATASIZE DUP6 DUP3 RETURNDATACOPY RETURNDATASIZE SWAP1 REVERT JUMPDEST POP CALLVALUE PUSH2 0x279 JUMPI DUP1 PUSH1 0x3 NOT CALLDATASIZE ADD SLT PUSH2 0x279 JUMPI PUSH2 0x2FFA PUSH2 0x406C JUMP JUMPDEST PUSH1 0x2 SLOAD PUSH1 0xFF DUP2 AND ISZERO PUSH2 0x303A JUMPI PUSH1 0xFF NOT AND PUSH1 0x2 SSTORE PUSH32 0x5DB9EE0A495BF2E6FF9C91A7834C1BA4FDD244A5E8AA4E537BD38AEAE4B073AA PUSH1 0x20 PUSH1 0x40 MLOAD CALLER DUP2 MSTORE LOG1 DUP1 RETURN JUMPDEST PUSH4 0x8DFC202B PUSH1 0xE0 SHL DUP3 MSTORE PUSH1 0x4 DUP3 REVERT JUMPDEST POP CALLVALUE PUSH2 0x279 JUMPI DUP1 PUSH1 0x3 NOT CALLDATASIZE ADD SLT PUSH2 0x279 JUMPI PUSH1 0xA SLOAD PUSH1 0x40 MLOAD PUSH1 0x1 PUSH1 0x1 PUSH1 0xA0 SHL SUB SWAP1 SWAP2 AND DUP2 MSTORE PUSH1 0x20 SWAP1 RETURN JUMPDEST POP CALLVALUE PUSH2 0x279 JUMPI PUSH1 0x80 CALLDATASIZE PUSH1 0x3 NOT ADD SLT PUSH2 0x279 JUMPI PUSH2 0x308C PUSH2 0x3603 JUMP JUMPDEST PUSH2 0x3094 PUSH2 0x3619 JUMP JUMPDEST PUSH1 0x64 CALLDATALOAD PUSH1 0x1 PUSH1 0x1 PUSH1 0xA0 SHL SUB DUP2 AND SWAP3 SWAP2 SWAP1 DUP4 SWAP1 SUB PUSH2 0x2210 JUMPI PUSH1 0x7 SLOAD PUSH1 0x1 PUSH1 0x1 PUSH1 0xA0 SHL SUB AND DUP1 ISZERO PUSH2 0x3162 JUMPI PUSH1 0x40 DUP1 MLOAD PUSH4 0x57028211 PUSH1 0xE0 SHL DUP2 MSTORE PUSH1 0x1 PUSH1 0x1 PUSH1 0xA0 SHL SUB SWAP5 DUP6 AND PUSH1 0x4 DUP3 ADD MSTORE SWAP3 SWAP1 SWAP4 AND PUSH1 0x24 DUP4 ADD MSTORE PUSH1 0x44 DUP1 DUP4 ADD DUP7 SWAP1 MSTORE CALLDATALOAD PUSH1 0x64 DUP4 ADD MSTORE PUSH1 0x84 DUP3 ADD SWAP4 SWAP1 SWAP4 MSTORE SWAP2 DUP3 SWAP1 PUSH1 0xA4 SWAP1 DUP3 SWAP1 DUP7 SWAP1 GAS CALL SWAP1 DUP2 ISZERO PUSH2 0xAB9 JUMPI DUP3 SWAP2 PUSH2 0x311F JUMPI JUMPDEST PUSH1 0x20 DUP3 PUSH1 0x40 MLOAD SWAP1 DUP2 MSTORE RETURN JUMPDEST SWAP1 POP PUSH1 0x40 DUP2 RETURNDATASIZE PUSH1 0x40 GT PUSH2 0x315A JUMPI JUMPDEST DUP2 PUSH2 0x313A PUSH1 0x40 SWAP4 DUP4 PUSH2 0x371E JUMP JUMPDEST DUP2 ADD SUB SLT PUSH2 0x4B9 JUMPI PUSH1 0x20 SWAP2 POP PUSH2 0x3153 DUP3 DUP3 MLOAD SWAP3 ADD PUSH2 0x3912 JUMP JUMPDEST POP CODESIZE PUSH2 0x3114 JUMP JUMPDEST RETURNDATASIZE SWAP2 POP PUSH2 0x312D JUMP JUMPDEST PUSH1 0x40 MLOAD PUSH3 0x461BCD PUSH1 0xE5 SHL DUP2 MSTORE PUSH1 0x20 PUSH1 0x4 DUP3 ADD MSTORE PUSH1 0xE PUSH1 0x24 DUP3 ADD MSTORE PUSH14 0x1C5D5BDD195C881B9BDD081CD95D PUSH1 0x92 SHL PUSH1 0x44 DUP3 ADD MSTORE PUSH1 0x64 SWAP1 REVERT JUMPDEST POP CALLVALUE PUSH2 0x279 JUMPI PUSH1 0x20 CALLDATASIZE PUSH1 0x3 NOT ADD SLT PUSH2 0x279 JUMPI PUSH2 0x31B2 PUSH2 0x3603 JUMP JUMPDEST PUSH2 0x31BA PUSH2 0x406C JUMP JUMPDEST PUSH1 0xB SLOAD SWAP1 PUSH2 0x31CE PUSH1 0xFF DUP4 PUSH1 0xA0 SHR AND ISZERO PUSH2 0x38D2 JUMP JUMPDEST PUSH1 0x1 PUSH1 0x1 PUSH1 0xA0 SHL SUB AND PUSH1 0x1 PUSH1 0x1 PUSH1 0xA0 SHL SUB NOT SWAP2 SWAP1 SWAP2 AND DUP2 OR PUSH1 0xB SSTORE PUSH32 0xF58FF3D0DA83A3532175D227F5BE91D3C0CFD1A3A9A78309B6D32365F71765DB DUP3 DUP1 LOG2 DUP1 RETURN JUMPDEST POP CALLVALUE PUSH2 0x279 JUMPI PUSH1 0x20 CALLDATASIZE PUSH1 0x3 NOT ADD SLT PUSH2 0x279 JUMPI PUSH1 0x1 PUSH1 0x1 PUSH1 0xA0 SHL SUB PUSH2 0x3232 PUSH2 0x3603 JUMP JUMPDEST AND DUP2 MSTORE PUSH1 0x5 PUSH1 0x20 MSTORE PUSH1 0x40 DUP2 KECCAK256 PUSH1 0x40 MLOAD SWAP1 DUP2 PUSH1 0x20 DUP3 SLOAD SWAP2 DUP3 DUP2 MSTORE ADD SWAP1 DUP2 SWAP3 DUP6 MSTORE PUSH1 0x20 DUP6 KECCAK256 SWAP1 DUP6 JUMPDEST DUP2 DUP2 LT PUSH2 0x32AF JUMPI POP POP POP DUP3 PUSH2 0x326E SWAP2 SUB DUP4 PUSH2 0x371E JUMP JUMPDEST PUSH1 0x40 MLOAD SWAP3 DUP4 SWAP3 PUSH1 0x20 DUP5 ADD SWAP1 PUSH1 0x20 DUP6 MSTORE MLOAD DUP1 SWAP2 MSTORE PUSH1 0x40 DUP5 ADD SWAP3 SWAP2 JUMPDEST DUP2 DUP2 LT PUSH2 0x3296 JUMPI POP POP POP SUB SWAP1 RETURN JUMPDEST DUP3 MLOAD DUP5 MSTORE DUP6 SWAP5 POP PUSH1 0x20 SWAP4 DUP5 ADD SWAP4 SWAP1 SWAP3 ADD SWAP2 PUSH1 0x1 ADD PUSH2 0x3288 JUMP JUMPDEST DUP3 SLOAD DUP5 MSTORE PUSH1 0x20 SWAP1 SWAP4 ADD SWAP3 PUSH1 0x1 SWAP3 DUP4 ADD SWAP3 ADD PUSH2 0x3258 JUMP JUMPDEST POP CALLVALUE PUSH2 0x279 JUMPI PUSH1 0x20 CALLDATASIZE PUSH1 0x3 NOT ADD SLT PUSH2 0x279 JUMPI PUSH1 0x4 CALLDATALOAD DUP1 ISZERO ISZERO DUP1 SWAP2 SUB PUSH2 0x4B9 JUMPI PUSH2 0x32EC PUSH2 0x406C JUMP JUMPDEST PUSH1 0xD DUP1 SLOAD PUSH1 0xFF PUSH1 0xA0 SHL NOT AND PUSH1 0xA0 SWAP3 SWAP1 SWAP3 SHL PUSH1 0xFF PUSH1 0xA0 SHL AND SWAP2 SWAP1 SWAP2 OR SWAP1 SSTORE DUP1 RETURN JUMPDEST POP CALLVALUE PUSH2 0x279 JUMPI PUSH2 0x331B CALLDATASIZE PUSH2 0x37A1 JUMP JUMPDEST POP POP POP POP PUSH1 0x20 PUSH1 0x40 MLOAD PUSH4 0xA85BD01 PUSH1 0xE1 SHL DUP2 MSTORE RETURN JUMPDEST POP CALLVALUE PUSH2 0x279 JUMPI PUSH1 0xA0 CALLDATASIZE PUSH1 0x3 NOT ADD SLT PUSH2 0x279 JUMPI PUSH2 0x334A PUSH2 0x365B JUMP JUMPDEST SWAP1 PUSH1 0x24 CALLDATALOAD PUSH1 0x1 PUSH1 0x1 PUSH1 0x40 SHL SUB DUP2 AND DUP1 SWAP2 SUB PUSH2 0x4B9 JUMPI PUSH1 0x44 CALLDATALOAD PUSH1 0x1 PUSH1 0x1 PUSH1 0x40 SHL SUB DUP2 GT PUSH2 0x4B5 JUMPI PUSH2 0x337E SWAP1 CALLDATASIZE SWAP1 PUSH1 0x4 ADD PUSH2 0x366C JUMP JUMPDEST SWAP2 SWAP1 SWAP4 PUSH1 0x64 CALLDATALOAD SWAP1 PUSH1 0x84 CALLDATALOAD PUSH1 0x1 PUSH1 0x1 PUSH1 0x40 SHL SUB DUP2 AND DUP1 SWAP2 SUB PUSH2 0xBE7 JUMPI PUSH2 0x33A1 PUSH2 0x406C JUMP JUMPDEST PUSH2 0x33A9 PUSH2 0x4095 JUMP JUMPDEST PUSH2 0x33B1 PUSH2 0x40B2 JUMP JUMPDEST PUSH1 0xA SLOAD PUSH1 0xE0 SHR DUP1 ISZERO PUSH2 0x3545 JUMPI PUSH1 0xC SLOAD PUSH1 0x1 PUSH1 0x1 PUSH1 0xA0 SHL SUB AND DUP1 ISZERO PUSH2 0x3500 JUMPI DUP8 SWAP4 PUSH1 0x60 SWAP3 DUP3 EXTCODESIZE ISZERO PUSH2 0x1822 JUMPI SWAP2 PUSH2 0xFFFF SWAP2 DUP11 DUP1 SWAP5 PUSH2 0x341E PUSH1 0x40 MLOAD SWAP15 DUP16 SWAP7 DUP8 SWAP6 DUP7 SWAP5 PUSH4 0x50CBF3FB PUSH1 0xE1 SHL DUP7 MSTORE PUSH1 0x4 DUP7 ADD MSTORE AND SWAP14 DUP15 PUSH1 0x24 DUP6 ADD MSTORE DUP14 PUSH1 0x44 DUP6 ADD MSTORE PUSH1 0xC0 PUSH1 0x64 DUP6 ADD MSTORE PUSH1 0xC4 DUP5 ADD SWAP2 PUSH2 0x3881 JUMP JUMPDEST DUP11 PUSH1 0x84 DUP4 ADD MSTORE DUP9 PUSH1 0xA4 DUP4 ADD MSTORE SUB SWAP3 GAS CALL SWAP8 DUP9 PUSH2 0x34C2 JUMPI JUMPDEST POP SWAP1 PUSH2 0x34AE SWAP4 SWAP3 SWAP2 PUSH32 0xA2132AF2722FC0B72DD7E1B20DF2E6A2CA16DC0E2A95FB807DB5C906CA9107DA SWAP8 SWAP9 ISZERO PUSH1 0x0 EQ PUSH2 0x34B8 JUMPI POP PUSH2 0x3471 PUSH2 0x38A2 JUMP JUMPDEST SWAP3 JUMPDEST PUSH1 0xA SLOAD PUSH1 0xE0 SHR SWAP6 PUSH1 0x40 MLOAD SWAP8 DUP9 SWAP8 DUP9 MSTORE PUSH1 0x20 DUP9 ADD MSTORE PUSH1 0x40 DUP8 ADD MSTORE PUSH1 0x60 DUP7 ADD MSTORE PUSH1 0x80 DUP6 ADD MSTORE ISZERO ISZERO PUSH1 0xA0 DUP5 ADD MSTORE PUSH1 0xE0 PUSH1 0xC0 DUP5 ADD MSTORE PUSH1 0xE0 DUP4 ADD SWAP1 PUSH2 0x3840 JUMP JUMPDEST SUB SWAP1 LOG1 PUSH1 0x1 DUP1 SSTORE DUP1 RETURN JUMPDEST SWAP3 PUSH1 0x1 SWAP3 POP PUSH2 0x3473 JUMP JUMPDEST SWAP1 DUP8 PUSH2 0x34F5 PUSH32 0xA2132AF2722FC0B72DD7E1B20DF2E6A2CA16DC0E2A95FB807DB5C906CA9107DA SWAP10 PUSH2 0x34AE SWAP8 SWAP7 SWAP6 SWAP5 PUSH2 0x371E JUMP JUMPDEST SWAP8 POP SWAP1 SWAP2 SWAP3 SWAP4 PUSH2 0x3435 JUMP JUMPDEST PUSH1 0x40 MLOAD PUSH3 0x461BCD PUSH1 0xE5 SHL DUP2 MSTORE PUSH1 0x20 PUSH1 0x4 DUP3 ADD MSTORE PUSH1 0x19 PUSH1 0x24 DUP3 ADD MSTORE PUSH32 0x78636D20747820707265636F6D70696C65206E6F742073657400000000000000 PUSH1 0x44 DUP3 ADD MSTORE PUSH1 0x64 SWAP1 REVERT JUMPDEST PUSH1 0x40 MLOAD PUSH3 0x461BCD PUSH1 0xE5 SHL DUP2 MSTORE PUSH1 0x20 PUSH1 0x4 DUP3 ADD MSTORE PUSH1 0xE PUSH1 0x24 DUP3 ADD MSTORE PUSH14 0x1C185C985259081B9BDD081CD95D PUSH1 0x92 SHL PUSH1 0x44 DUP3 ADD MSTORE PUSH1 0x64 SWAP1 REVERT JUMPDEST POP CALLVALUE PUSH2 0x279 JUMPI PUSH1 0x40 CALLDATASIZE PUSH1 0x3 NOT ADD SLT PUSH2 0x279 JUMPI PUSH2 0x3595 PUSH2 0x3603 JUMP JUMPDEST PUSH2 0x359D PUSH2 0x3619 JUMP JUMPDEST SWAP1 PUSH2 0x35A6 PUSH2 0x406C JUMP JUMPDEST PUSH1 0x1 DUP1 PUSH1 0xA0 SHL SUB AND PUSH1 0x1 PUSH1 0x1 PUSH1 0x60 SHL SUB PUSH1 0xA0 SHL PUSH1 0x7 SLOAD AND OR PUSH1 0x7 SSTORE PUSH1 0x1 DUP1 PUSH1 0xA0 SHL SUB AND PUSH1 0x1 PUSH1 0x1 PUSH1 0x60 SHL SUB PUSH1 0xA0 SHL PUSH1 0x8 SLOAD AND OR PUSH1 0x8 SSTORE DUP1 RETURN JUMPDEST SWAP1 POP CALLVALUE PUSH2 0x4B9 JUMPI DUP2 PUSH1 0x3 NOT CALLDATASIZE ADD SLT PUSH2 0x4B9 JUMPI PUSH1 0x20 SWAP1 PUSH1 0xFF PUSH1 0xB SLOAD PUSH1 0xA0 SHR AND ISZERO ISZERO DUP2 MSTORE RETURN JUMPDEST PUSH1 0x4 CALLDATALOAD SWAP1 PUSH1 0x1 PUSH1 0x1 PUSH1 0xA0 SHL SUB DUP3 AND DUP3 SUB PUSH2 0x300 JUMPI JUMP JUMPDEST PUSH1 0x24 CALLDATALOAD SWAP1 PUSH1 0x1 PUSH1 0x1 PUSH1 0xA0 SHL SUB DUP3 AND DUP3 SUB PUSH2 0x300 JUMPI JUMP JUMPDEST PUSH1 0x44 CALLDATALOAD SWAP1 PUSH1 0x1 PUSH1 0x1 PUSH1 0xA0 SHL SUB DUP3 AND DUP3 SUB PUSH2 0x300 JUMPI JUMP JUMPDEST PUSH1 0xA4 CALLDATALOAD SWAP1 PUSH1 0x1 PUSH1 0x1 PUSH1 0xA0 SHL SUB DUP3 AND DUP3 SUB PUSH2 0x300 JUMPI JUMP JUMPDEST PUSH1 0x4 CALLDATALOAD SWAP1 PUSH2 0xFFFF DUP3 AND DUP3 SUB PUSH2 0x300 JUMPI JUMP JUMPDEST SWAP2 DUP2 PUSH1 0x1F DUP5 ADD SLT ISZERO PUSH2 0x300 JUMPI DUP3 CALLDATALOAD SWAP2 PUSH1 0x1 PUSH1 0x1 PUSH1 0x40 SHL SUB DUP4 GT PUSH2 0x300 JUMPI PUSH1 0x20 DUP4 DUP2 DUP7 ADD SWAP6 ADD ADD GT PUSH2 0x300 JUMPI JUMP JUMPDEST PUSH2 0x1A0 DUP2 ADD SWAP1 DUP2 LT PUSH1 0x1 PUSH1 0x1 PUSH1 0x40 SHL SUB DUP3 GT OR PUSH2 0x36B5 JUMPI PUSH1 0x40 MSTORE JUMP JUMPDEST PUSH4 0x4E487B71 PUSH1 0xE0 SHL PUSH1 0x0 MSTORE PUSH1 0x41 PUSH1 0x4 MSTORE PUSH1 0x24 PUSH1 0x0 REVERT JUMPDEST PUSH2 0x100 DUP2 ADD SWAP1 DUP2 LT PUSH1 0x1 PUSH1 0x1 PUSH1 0x40 SHL SUB DUP3 GT OR PUSH2 0x36B5 JUMPI PUSH1 0x40 MSTORE JUMP JUMPDEST PUSH1 0x80 DUP2 ADD SWAP1 DUP2 LT PUSH1 0x1 PUSH1 0x1 PUSH1 0x40 SHL SUB DUP3 GT OR PUSH2 0x36B5 JUMPI PUSH1 0x40 MSTORE JUMP JUMPDEST PUSH2 0x160 DUP2 ADD SWAP1 DUP2 LT PUSH1 0x1 PUSH1 0x1 PUSH1 0x40 SHL SUB DUP3 GT OR PUSH2 0x36B5 JUMPI PUSH1 0x40 MSTORE JUMP JUMPDEST SWAP1 PUSH1 0x1F DUP1 NOT SWAP2 ADD AND DUP2 ADD SWAP1 DUP2 LT PUSH1 0x1 PUSH1 0x1 PUSH1 0x40 SHL SUB DUP3 GT OR PUSH2 0x36B5 JUMPI PUSH1 0x40 MSTORE JUMP JUMPDEST PUSH1 0x1 PUSH1 0x1 PUSH1 0x40 SHL SUB DUP2 GT PUSH2 0x36B5 JUMPI PUSH1 0x1F ADD PUSH1 0x1F NOT AND PUSH1 0x20 ADD SWAP1 JUMP JUMPDEST DUP2 PUSH1 0x1F DUP3 ADD SLT ISZERO PUSH2 0x300 JUMPI DUP1 CALLDATALOAD SWAP1 PUSH2 0x3771 DUP3 PUSH2 0x373F JUMP JUMPDEST SWAP3 PUSH2 0x377F PUSH1 0x40 MLOAD SWAP5 DUP6 PUSH2 0x371E JUMP JUMPDEST DUP3 DUP5 MSTORE PUSH1 0x20 DUP4 DUP4 ADD ADD GT PUSH2 0x300 JUMPI DUP2 PUSH1 0x0 SWAP3 PUSH1 0x20 DUP1 SWAP4 ADD DUP4 DUP7 ADD CALLDATACOPY DUP4 ADD ADD MSTORE SWAP1 JUMP JUMPDEST SWAP1 PUSH1 0x80 PUSH1 0x3 NOT DUP4 ADD SLT PUSH2 0x300 JUMPI PUSH1 0x4 CALLDATALOAD PUSH1 0x1 PUSH1 0x1 PUSH1 0xA0 SHL SUB DUP2 AND DUP2 SUB PUSH2 0x300 JUMPI SWAP2 PUSH1 0x24 CALLDATALOAD PUSH1 0x1 PUSH1 0x1 PUSH1 0xA0 SHL SUB DUP2 AND DUP2 SUB PUSH2 0x300 JUMPI SWAP2 PUSH1 0x44 CALLDATALOAD SWAP2 PUSH1 0x64 CALLDATALOAD SWAP1 PUSH1 0x1 PUSH1 0x1 PUSH1 0x40 SHL SUB DUP3 GT PUSH2 0x300 JUMPI PUSH2 0x37F8 SWAP2 PUSH1 0x4 ADD PUSH2 0x375A JUMP JUMPDEST SWAP1 JUMP JUMPDEST DUP1 SLOAD DUP3 LT ISZERO PUSH2 0x3813 JUMPI PUSH1 0x0 MSTORE PUSH1 0x20 PUSH1 0x0 KECCAK256 ADD SWAP1 PUSH1 0x0 SWAP1 JUMP JUMPDEST PUSH4 0x4E487B71 PUSH1 0xE0 SHL PUSH1 0x0 MSTORE PUSH1 0x32 PUSH1 0x4 MSTORE PUSH1 0x24 PUSH1 0x0 REVERT JUMPDEST PUSH1 0x1 PUSH1 0x1 PUSH1 0x40 SHL SUB DUP2 GT PUSH2 0x36B5 JUMPI PUSH1 0x5 SHL PUSH1 0x20 ADD SWAP1 JUMP JUMPDEST SWAP2 SWAP1 DUP3 MLOAD SWAP3 DUP4 DUP3 MSTORE PUSH1 0x0 JUMPDEST DUP5 DUP2 LT PUSH2 0x386C JUMPI POP POP DUP3 PUSH1 0x0 PUSH1 0x20 DUP1 SWAP5 SWAP6 DUP5 ADD ADD MSTORE PUSH1 0x1F DUP1 NOT SWAP2 ADD AND ADD ADD SWAP1 JUMP JUMPDEST DUP1 PUSH1 0x20 DUP1 SWAP3 DUP5 ADD ADD MLOAD DUP3 DUP3 DUP7 ADD ADD MSTORE ADD PUSH2 0x384B JUMP JUMPDEST SWAP1 DUP1 PUSH1 0x20 SWAP4 SWAP3 DUP2 DUP5 MSTORE DUP5 DUP5 ADD CALLDATACOPY PUSH1 0x0 DUP3 DUP3 ADD DUP5 ADD MSTORE PUSH1 0x1F ADD PUSH1 0x1F NOT AND ADD ADD SWAP1 JUMP JUMPDEST RETURNDATASIZE ISZERO PUSH2 0x38CD JUMPI RETURNDATASIZE SWAP1 PUSH2 0x38B3 DUP3 PUSH2 0x373F JUMP JUMPDEST SWAP2 PUSH2 0x38C1 PUSH1 0x40 MLOAD SWAP4 DUP5 PUSH2 0x371E JUMP JUMPDEST DUP3 MSTORE RETURNDATASIZE PUSH1 0x0 PUSH1 0x20 DUP5 ADD RETURNDATACOPY JUMP JUMPDEST PUSH1 0x60 SWAP1 JUMP JUMPDEST ISZERO PUSH2 0x38D9 JUMPI JUMP JUMPDEST PUSH1 0x40 MLOAD PUSH3 0x461BCD PUSH1 0xE5 SHL DUP2 MSTORE PUSH1 0x20 PUSH1 0x4 DUP3 ADD MSTORE PUSH1 0x11 PUSH1 0x24 DUP3 ADD MSTORE PUSH17 0x3C31B69031B7B73334B390333937BD32B7 PUSH1 0x79 SHL PUSH1 0x44 DUP3 ADD MSTORE PUSH1 0x64 SWAP1 REVERT JUMPDEST MLOAD SWAP1 PUSH2 0xFFFF DUP3 AND DUP3 SUB PUSH2 0x300 JUMPI JUMP JUMPDEST ISZERO PUSH2 0x3928 JUMPI JUMP JUMPDEST PUSH1 0x40 MLOAD PUSH3 0x461BCD PUSH1 0xE5 SHL DUP2 MSTORE PUSH1 0x20 PUSH1 0x4 DUP3 ADD MSTORE PUSH1 0x13 PUSH1 0x24 DUP3 ADD MSTORE PUSH19 0x506F736974696F6E206E6F7420616374697665 PUSH1 0x68 SHL PUSH1 0x44 DUP3 ADD MSTORE PUSH1 0x64 SWAP1 REVERT JUMPDEST MLOAD SWAP1 DUP2 PUSH1 0x2 SIGNEXTEND DUP3 SUB PUSH2 0x300 JUMPI JUMP JUMPDEST SWAP2 SWAP1 DUP3 PUSH1 0xC0 SWAP2 SUB SLT PUSH2 0x300 JUMPI DUP2 MLOAD PUSH1 0x1 PUSH1 0x1 PUSH1 0xA0 SHL SUB DUP2 AND DUP2 SUB PUSH2 0x300 JUMPI SWAP2 PUSH2 0x399C PUSH1 0x20 DUP3 ADD PUSH2 0x3963 JUMP JUMPDEST SWAP2 PUSH2 0x39A9 PUSH1 0x40 DUP4 ADD PUSH2 0x3912 JUMP JUMPDEST SWAP2 PUSH1 0x60 DUP2 ADD MLOAD PUSH1 0xFF DUP2 AND DUP2 SUB PUSH2 0x300 JUMPI SWAP2 PUSH1 0xA0 PUSH2 0x39C8 PUSH1 0x80 DUP5 ADD PUSH2 0x3912 JUMP JUMPDEST SWAP3 ADD MLOAD DUP1 ISZERO ISZERO DUP2 SUB PUSH2 0x300 JUMPI SWAP1 JUMP JUMPDEST ISZERO PUSH2 0x39DE JUMPI JUMP JUMPDEST PUSH1 0x40 MLOAD PUSH3 0x461BCD PUSH1 0xE5 SHL DUP2 MSTORE PUSH1 0x20 PUSH1 0x4 DUP3 ADD MSTORE PUSH1 0xC PUSH1 0x24 DUP3 ADD MSTORE PUSH12 0x3737BA1037B832B930BA37B9 PUSH1 0xA1 SHL PUSH1 0x44 DUP3 ADD MSTORE PUSH1 0x64 SWAP1 REVERT JUMPDEST ISZERO PUSH2 0x3A19 JUMPI JUMP JUMPDEST PUSH1 0x40 MLOAD PUSH3 0x461BCD PUSH1 0xE5 SHL DUP2 MSTORE PUSH1 0x20 PUSH1 0x4 DUP3 ADD MSTORE PUSH1 0x13 PUSH1 0x24 DUP3 ADD MSTORE PUSH19 0x34B73B30B634B2103232B9BA34B730BA34B7B7 PUSH1 0x69 SHL PUSH1 0x44 DUP3 ADD MSTORE PUSH1 0x64 SWAP1 REVERT JUMPDEST ISZERO PUSH2 0x3A5B JUMPI JUMP JUMPDEST PUSH1 0x40 MLOAD PUSH3 0x461BCD PUSH1 0xE5 SHL DUP2 MSTORE PUSH1 0x20 PUSH1 0x4 DUP3 ADD MSTORE PUSH1 0x13 PUSH1 0x24 DUP3 ADD MSTORE PUSH19 0x151BDAD95B881B9BDD081CDD5C1C1BDC9D1959 PUSH1 0x6A SHL PUSH1 0x44 DUP3 ADD MSTORE PUSH1 0x64 SWAP1 REVERT JUMPDEST ISZERO PUSH2 0x3A9D JUMPI JUMP JUMPDEST PUSH1 0x40 MLOAD PUSH3 0x461BCD PUSH1 0xE5 SHL DUP2 MSTORE PUSH1 0x20 PUSH1 0x4 DUP3 ADD MSTORE PUSH1 0xF PUSH1 0x24 DUP3 ADD MSTORE PUSH15 0x1E1D1BDAD95B9CC81B9BDD081CD95D PUSH1 0x8A SHL PUSH1 0x44 DUP3 ADD MSTORE PUSH1 0x64 SWAP1 REVERT JUMPDEST SWAP4 SWAP3 PUSH1 0x60 SWAP4 PUSH1 0x1 PUSH1 0x1 PUSH1 0x40 SHL SUB SWAP4 PUSH2 0x3B09 SWAP4 SWAP9 SWAP8 SWAP9 PUSH1 0x1 DUP1 PUSH1 0xA0 SHL SUB AND DUP8 MSTORE PUSH1 0x20 DUP8 ADD MSTORE PUSH1 0x80 PUSH1 0x40 DUP8 ADD MSTORE PUSH1 0x80 DUP7 ADD SWAP2 PUSH2 0x3881 JUMP JUMPDEST SWAP5 AND SWAP2 ADD MSTORE JUMP JUMPDEST SWAP2 PUSH2 0x37F8 SWAP6 SWAP4 SWAP5 SWAP2 PUSH2 0x3B2A SWAP2 PUSH1 0x80 DUP6 MSTORE PUSH1 0x80 DUP6 ADD SWAP2 PUSH2 0x3881 JUMP JUMPDEST SWAP4 PUSH1 0x20 DUP4 ADD MSTORE ISZERO ISZERO PUSH1 0x40 DUP3 ADD MSTORE PUSH1 0x60 DUP2 DUP5 SUB SWAP2 ADD MSTORE PUSH2 0x3840 JUMP JUMPDEST PUSH1 0x0 NOT DUP2 EQ PUSH2 0x3B53 JUMPI PUSH1 0x1 ADD SWAP1 JUMP JUMPDEST PUSH4 0x4E487B71 PUSH1 0xE0 SHL PUSH1 0x0 MSTORE PUSH1 0x11 PUSH1 0x4 MSTORE PUSH1 0x24 PUSH1 0x0 REVERT JUMPDEST DUP1 MLOAD ISZERO PUSH2 0x3813 JUMPI PUSH1 0x20 ADD SWAP1 JUMP JUMPDEST DUP1 MLOAD PUSH1 0x1 LT ISZERO PUSH2 0x3813 JUMPI PUSH1 0x40 ADD SWAP1 JUMP JUMPDEST DUP1 MLOAD DUP3 LT ISZERO PUSH2 0x3813 JUMPI PUSH1 0x20 SWAP2 PUSH1 0x5 SHL ADD ADD SWAP1 JUMP JUMPDEST PUSH1 0x64 SWAP1 PUSH1 0x2 SIGNEXTEND MUL SWAP1 DUP2 PUSH1 0x2 SIGNEXTEND SWAP2 DUP3 SUB PUSH2 0x3B53 JUMPI JUMP JUMPDEST SWAP1 PUSH1 0x2 SIGNEXTEND SWAP1 PUSH1 0x2 SIGNEXTEND ADD SWAP1 PUSH3 0x7FFFFF NOT DUP3 SLT PUSH3 0x7FFFFF DUP4 SGT OR PUSH2 0x3B53 JUMPI JUMP JUMPDEST SWAP1 PUSH1 0x2 SIGNEXTEND SWAP1 DUP2 ISZERO PUSH2 0x3BDF JUMPI PUSH1 0x2 SIGNEXTEND SMOD SWAP1 JUMP JUMPDEST PUSH4 0x4E487B71 PUSH1 0xE0 SHL PUSH1 0x0 MSTORE PUSH1 0x12 PUSH1 0x4 MSTORE PUSH1 0x24 PUSH1 0x0 REVERT JUMPDEST PUSH1 0x2 SWAP2 DUP3 SIGNEXTEND SWAP2 SIGNEXTEND SUB SWAP1 PUSH3 0x7FFFFF NOT DUP3 SLT PUSH3 0x7FFFFF DUP4 SGT OR PUSH2 0x3B53 JUMPI JUMP JUMPDEST SWAP3 SWAP1 SWAP3 DUP4 PUSH1 0x2 SIGNEXTEND PUSH2 0x3E7 NOT DUP2 SGT SWAP1 DUP2 PUSH2 0x3DB0 JUMPI JUMPDEST DUP2 PUSH2 0x3DA3 JUMPI JUMPDEST POP ISZERO PUSH2 0x3D68 JUMPI PUSH1 0x40 MLOAD PUSH4 0x39DB0079 PUSH1 0xE2 SHL DUP2 MSTORE SWAP3 PUSH1 0x1 PUSH1 0x1 PUSH1 0xA0 SHL SUB SWAP2 SWAP1 SWAP2 AND SWAP1 PUSH1 0xC0 DUP5 PUSH1 0x4 DUP2 DUP6 GAS STATICCALL SWAP2 DUP3 ISZERO PUSH2 0x3D32 JUMPI PUSH1 0x4 SWAP5 PUSH1 0x0 SWAP4 PUSH2 0x3D3E JUMPI JUMPDEST POP PUSH1 0x20 SWAP1 PUSH1 0x40 MLOAD SWAP6 DUP7 DUP1 SWAP3 PUSH4 0x34324E9F PUSH1 0xE2 SHL DUP3 MSTORE GAS STATICCALL SWAP4 DUP5 ISZERO PUSH2 0x3D32 JUMPI PUSH1 0x0 SWAP5 PUSH2 0x3CD8 JUMPI JUMPDEST POP PUSH2 0x3CD1 PUSH2 0x3CC0 PUSH2 0x3CCB SWAP3 PUSH2 0x3CBA PUSH2 0x3CB3 PUSH2 0x3CAD PUSH2 0x37F8 SWAP9 SWAP10 SWAP11 PUSH2 0x3B9A JUMP JUMPDEST SWAP3 PUSH2 0x3B9A JUMP JUMPDEST SWAP2 DUP7 PUSH2 0x3BAF JUMP JUMPDEST SWAP5 PUSH2 0x3BAF JUMP JUMPDEST SWAP3 PUSH2 0x3CCB DUP8 DUP3 PUSH2 0x3BCD JUMP JUMPDEST SWAP1 PUSH2 0x3BF5 JUMP JUMPDEST SWAP5 DUP3 PUSH2 0x3BCD JUMP JUMPDEST SWAP1 SWAP3 SWAP4 POP PUSH1 0x20 DUP2 RETURNDATASIZE PUSH1 0x20 GT PUSH2 0x3D2A JUMPI JUMPDEST DUP2 PUSH2 0x3CF5 PUSH1 0x20 SWAP4 DUP4 PUSH2 0x371E JUMP JUMPDEST DUP2 ADD SUB SLT PUSH2 0x300 JUMPI PUSH2 0x3CD1 PUSH2 0x3CC0 PUSH2 0x37F8 SWAP5 PUSH2 0x3CBA PUSH2 0x3CB3 PUSH2 0x3CAD PUSH2 0x3D1C PUSH2 0x3CCB SWAP8 PUSH2 0x3963 JUMP JUMPDEST SWAP10 SWAP9 POP POP POP POP SWAP3 POP POP PUSH2 0x3C8E JUMP JUMPDEST RETURNDATASIZE SWAP2 POP PUSH2 0x3CE8 JUMP JUMPDEST PUSH1 0x40 MLOAD RETURNDATASIZE PUSH1 0x0 DUP3 RETURNDATACOPY RETURNDATASIZE SWAP1 REVERT JUMPDEST PUSH1 0x20 SWAP2 SWAP4 POP PUSH2 0x3D5B SWAP1 PUSH1 0xC0 RETURNDATASIZE PUSH1 0xC0 GT PUSH2 0x2FCF JUMPI PUSH2 0x2FBB DUP2 DUP4 PUSH2 0x371E JUMP JUMPDEST POP POP POP POP SWAP1 POP SWAP3 SWAP1 PUSH2 0x3C68 JUMP JUMPDEST PUSH1 0x40 MLOAD PUSH3 0x461BCD PUSH1 0xE5 SHL DUP2 MSTORE PUSH1 0x20 PUSH1 0x4 DUP3 ADD MSTORE PUSH1 0x13 PUSH1 0x24 DUP3 ADD MSTORE PUSH19 0x72616E6765206F7574206F6620626F756E6473 PUSH1 0x68 SHL PUSH1 0x44 DUP3 ADD MSTORE PUSH1 0x64 SWAP1 REVERT JUMPDEST SWAP1 POP DUP4 PUSH1 0x2 SIGNEXTEND SGT CODESIZE PUSH2 0x3C2C JUMP JUMPDEST SWAP1 POP PUSH2 0x3E8 DUP5 PUSH1 0x2 SIGNEXTEND SGT ISZERO SWAP1 PUSH2 0x3C26 JUMP JUMPDEST ISZERO PUSH2 0x3DC8 JUMPI JUMP JUMPDEST PUSH1 0x40 MLOAD PUSH3 0x461BCD PUSH1 0xE5 SHL DUP2 MSTORE PUSH1 0x20 PUSH1 0x4 DUP3 ADD MSTORE PUSH1 0xE PUSH1 0x24 DUP3 ADD MSTORE PUSH14 0x1C9BDD5D195C881B9BDD081CD95D PUSH1 0x92 SHL PUSH1 0x44 DUP3 ADD MSTORE PUSH1 0x64 SWAP1 REVERT JUMPDEST DUP2 MLOAD PUSH1 0x1 PUSH1 0x1 PUSH1 0xA0 SHL SUB SWAP1 DUP2 AND DUP3 MSTORE PUSH1 0x20 DUP1 DUP5 ADD MLOAD DUP3 AND SWAP1 DUP4 ADD MSTORE PUSH1 0x40 DUP1 DUP5 ADD MLOAD DUP3 AND SWAP1 DUP4 ADD MSTORE PUSH1 0x60 DUP1 DUP5 ADD MLOAD DUP3 AND SWAP1 DUP4 ADD MSTORE PUSH1 0x80 DUP1 DUP5 ADD MLOAD SWAP1 DUP4 ADD MSTORE PUSH1 0xA0 DUP1 DUP5 ADD MLOAD SWAP1 DUP4 ADD MSTORE PUSH1 0xC0 DUP1 DUP5 ADD MLOAD SWAP1 DUP4 ADD MSTORE PUSH1 0xE0 SWAP3 DUP4 ADD MLOAD AND SWAP2 DUP2 ADD SWAP2 SWAP1 SWAP2 MSTORE PUSH2 0x100 ADD SWAP1 JUMP JUMPDEST SWAP2 SWAP1 DUP3 ADD DUP1 SWAP3 GT PUSH2 0x3B53 JUMPI JUMP JUMPDEST SWAP2 SWAP1 DUP3 PUSH1 0x40 SWAP2 SUB SLT PUSH2 0x300 JUMPI PUSH1 0x20 DUP3 MLOAD SWAP3 ADD MLOAD SWAP1 JUMP JUMPDEST SWAP2 SWAP1 SWAP2 PUSH1 0x60 PUSH1 0x1 PUSH1 0x1 PUSH1 0x80 SHL SUB DUP2 PUSH1 0x80 DUP5 ADD SWAP6 DUP1 MLOAD DUP6 MSTORE PUSH1 0x1 DUP1 PUSH1 0xA0 SHL SUB PUSH1 0x20 DUP3 ADD MLOAD AND PUSH1 0x20 DUP7 ADD MSTORE DUP3 PUSH1 0x40 DUP3 ADD MLOAD AND PUSH1 0x40 DUP7 ADD MSTORE ADD MLOAD AND SWAP2 ADD MSTORE JUMP JUMPDEST MLOAD SWAP1 PUSH1 0x1 PUSH1 0x1 PUSH1 0xA0 SHL SUB DUP3 AND DUP3 SUB PUSH2 0x300 JUMPI JUMP JUMPDEST SWAP1 DUP2 PUSH1 0x20 SWAP2 SUB SLT PUSH2 0x300 JUMPI MLOAD PUSH1 0x1 PUSH1 0x1 PUSH1 0xA0 SHL SUB DUP2 AND DUP2 SUB PUSH2 0x300 JUMPI SWAP1 JUMP JUMPDEST ISZERO PUSH2 0x3EFE JUMPI JUMP JUMPDEST PUSH1 0x40 MLOAD PUSH3 0x461BCD PUSH1 0xE5 SHL DUP2 MSTORE PUSH1 0x20 PUSH1 0x4 DUP3 ADD MSTORE PUSH1 0xC PUSH1 0x24 DUP3 ADD MSTORE PUSH12 0x13919413481B9BDD081CD95D PUSH1 0xA2 SHL PUSH1 0x44 DUP3 ADD MSTORE PUSH1 0x64 SWAP1 REVERT JUMPDEST DUP2 DUP2 MUL SWAP3 SWAP2 DUP2 ISZERO SWAP2 DUP5 DIV EQ OR ISZERO PUSH2 0x3B53 JUMPI JUMP JUMPDEST SWAP2 SWAP1 DUP3 PUSH1 0x80 SWAP2 SUB SLT PUSH2 0x300 JUMPI DUP2 MLOAD SWAP2 PUSH1 0x20 DUP2 ADD MLOAD PUSH1 0x1 PUSH1 0x1 PUSH1 0x80 SHL SUB DUP2 AND DUP2 SUB PUSH2 0x300 JUMPI SWAP2 PUSH1 0x60 PUSH1 0x40 DUP4 ADD MLOAD SWAP3 ADD MLOAD SWAP1 JUMP JUMPDEST SWAP2 SWAP1 SWAP2 PUSH2 0x140 DUP1 PUSH2 0x160 DUP4 ADD SWAP5 PUSH1 0x1 DUP1 PUSH1 0xA0 SHL SUB DUP2 MLOAD AND DUP5 MSTORE PUSH1 0x1 DUP1 PUSH1 0xA0 SHL SUB PUSH1 0x20 DUP3 ADD MLOAD AND PUSH1 0x20 DUP6 ADD MSTORE PUSH1 0x1 DUP1 PUSH1 0xA0 SHL SUB PUSH1 0x40 DUP3 ADD MLOAD AND PUSH1 0x40 DUP6 ADD MSTORE PUSH1 0x60 DUP2 ADD MLOAD PUSH1 0x2 SIGNEXTEND PUSH1 0x60 DUP6 ADD MSTORE PUSH1 0x80 DUP2 ADD MLOAD PUSH1 0x2 SIGNEXTEND PUSH1 0x80 DUP6 ADD MSTORE PUSH1 0xA0 DUP2 ADD MLOAD PUSH1 0xA0 DUP6 ADD MSTORE PUSH1 0xC0 DUP2 ADD MLOAD PUSH1 0xC0 DUP6 ADD MSTORE PUSH1 0xE0 DUP2 ADD MLOAD PUSH1 0xE0 DUP6 ADD MSTORE PUSH2 0x100 DUP2 ADD MLOAD PUSH2 0x100 DUP6 ADD MSTORE PUSH1 0x1 DUP1 PUSH1 0xA0 SHL SUB PUSH2 0x120 DUP3 ADD MLOAD AND PUSH2 0x120 DUP6 ADD MSTORE ADD MLOAD SWAP2 ADD MSTORE JUMP JUMPDEST PUSH1 0x1 PUSH1 0x1 PUSH1 0xA0 SHL SUB SWAP2 DUP3 AND DUP2 MSTORE SWAP2 DUP2 AND PUSH1 0x20 DUP4 ADD MSTORE SWAP1 SWAP2 AND PUSH1 0x40 DUP3 ADD MSTORE PUSH1 0x2 SWAP2 DUP3 SIGNEXTEND PUSH1 0x60 DUP3 ADD MSTORE SWAP2 SWAP1 SIGNEXTEND PUSH1 0x80 DUP3 ADD MSTORE PUSH1 0x1 PUSH1 0x1 PUSH1 0x80 SHL SUB SWAP1 SWAP2 AND PUSH1 0xA0 DUP3 ADD MSTORE PUSH1 0xC0 ADD SWAP1 JUMP JUMPDEST PUSH2 0xFFFF AND PUSH2 0x2710 SUB SWAP1 PUSH2 0xFFFF DUP3 GT PUSH2 0x3B53 JUMPI JUMP JUMPDEST PUSH1 0x0 SLOAD PUSH1 0x1 PUSH1 0x1 PUSH1 0xA0 SHL SUB AND CALLER SUB PUSH2 0x4080 JUMPI JUMP JUMPDEST PUSH4 0x118CDAA7 PUSH1 0xE0 SHL PUSH1 0x0 MSTORE CALLER PUSH1 0x4 MSTORE PUSH1 0x24 PUSH1 0x0 REVERT JUMPDEST PUSH1 0xFF PUSH1 0x2 SLOAD AND PUSH2 0x40A1 JUMPI JUMP JUMPDEST PUSH4 0xD93C0665 PUSH1 0xE0 SHL PUSH1 0x0 MSTORE PUSH1 0x4 PUSH1 0x0 REVERT JUMPDEST PUSH1 0x2 PUSH1 0x1 SLOAD EQ PUSH2 0x40C3 JUMPI PUSH1 0x2 PUSH1 0x1 SSTORE JUMP JUMPDEST PUSH4 0x3EE5AEB5 PUSH1 0xE0 SHL PUSH1 0x0 MSTORE PUSH1 0x4 PUSH1 0x0 REVERT JUMPDEST PUSH1 0x0 SWAP2 DUP2 DUP4 MSTORE PUSH1 0x4 PUSH1 0x20 MSTORE PUSH1 0x40 DUP4 KECCAK256 SWAP2 PUSH1 0x8 DUP4 ADD SWAP3 PUSH2 0x40F6 PUSH1 0xFF DUP6 SLOAD AND PUSH2 0x3921 JUMP JUMPDEST PUSH1 0x4 DUP2 ADD SWAP4 DUP5 SLOAD SWAP1 DUP2 ISZERO ISZERO DUP1 PUSH2 0x43AD JUMPI JUMPDEST ISZERO PUSH2 0x436F JUMPI PUSH1 0x1 DUP1 PUSH1 0xA0 SHL SUB PUSH1 0x9 SLOAD AND PUSH1 0x3 DUP5 ADD SWAP3 PUSH1 0x1 PUSH1 0x1 PUSH1 0x80 SHL SUB DUP5 SLOAD AND SWAP2 PUSH1 0x40 MLOAD SWAP2 PUSH1 0xA0 DUP4 ADD DUP4 DUP2 LT PUSH1 0x1 PUSH1 0x1 PUSH1 0x40 SHL SUB DUP3 GT OR PUSH2 0x435B JUMPI SWAP3 DUP12 PUSH1 0x1 PUSH1 0x1 PUSH1 0x80 SHL SUB SWAP11 SWAP12 SWAP13 SWAP6 SWAP4 PUSH1 0xA4 SWAP4 PUSH1 0x40 SWAP7 DUP8 MSTORE DUP4 MSTORE PUSH1 0x20 DUP4 ADD SWAP5 DUP6 MSTORE DUP6 DUP4 ADD DUP3 DUP2 MSTORE PUSH1 0x60 DUP5 ADD DUP4 DUP2 MSTORE PUSH1 0x80 DUP6 ADD SWAP2 TIMESTAMP DUP4 MSTORE DUP9 MLOAD SWAP15 DUP16 SWAP9 DUP10 SWAP8 PUSH4 0x624E65F PUSH1 0xE1 SHL DUP10 MSTORE MLOAD PUSH1 0x4 DUP10 ADD MSTORE MLOAD AND PUSH1 0x24 DUP8 ADD MSTORE MLOAD PUSH1 0x44 DUP7 ADD MSTORE MLOAD PUSH1 0x64 DUP6 ADD MSTORE MLOAD PUSH1 0x84 DUP5 ADD MSTORE GAS CALL SWAP8 DUP9 ISZERO PUSH2 0x1A29 JUMPI DUP2 SWAP7 DUP3 SWAP10 PUSH2 0x4334 JUMPI JUMPDEST POP DUP9 DUP8 DUP4 PUSH1 0x40 PUSH2 0x4217 PUSH1 0x1 DUP1 PUSH1 0xA0 SHL SUB PUSH1 0x9 SLOAD AND DUP7 SLOAD DUP4 MLOAD SWAP1 PUSH2 0x41DB DUP3 PUSH2 0x36E7 JUMP JUMPDEST DUP2 MSTORE ADDRESS PUSH1 0x20 DUP3 ADD MSTORE PUSH1 0x1 PUSH1 0x1 PUSH1 0x80 SHL SUB DUP5 DUP3 ADD MSTORE PUSH1 0x1 PUSH1 0x1 PUSH1 0x80 SHL SUB PUSH1 0x60 DUP3 ADD MSTORE DUP4 MLOAD SWAP5 DUP6 DUP1 SWAP5 DUP2 SWAP4 PUSH4 0xFC6F7865 PUSH1 0xE0 SHL DUP4 MSTORE PUSH1 0x4 DUP4 ADD PUSH2 0x3E87 JUMP JUMPDEST SUB SWAP3 GAS CALL SWAP2 DUP3 ISZERO PUSH2 0x87E JUMPI DUP6 SWAP2 DUP7 SWAP4 PUSH2 0x4311 JUMPI JUMPDEST POP DUP2 ISZERO DUP1 ISZERO SWAP1 PUSH2 0x4308 JUMPI JUMPDEST PUSH2 0x42E6 JUMPI JUMPDEST POP POP POP POP PUSH1 0x1 DUP1 PUSH1 0xA0 SHL SUB PUSH1 0x9 SLOAD AND SWAP1 SLOAD DUP2 EXTCODESIZE ISZERO PUSH2 0x4B5 JUMPI DUP3 SWAP2 PUSH1 0x24 DUP4 SWAP3 PUSH1 0x40 MLOAD SWAP5 DUP6 SWAP4 DUP5 SWAP3 PUSH4 0x852CD8D PUSH1 0xE3 SHL DUP5 MSTORE PUSH1 0x4 DUP5 ADD MSTORE GAS CALL DUP1 ISZERO PUSH2 0xAB9 JUMPI PUSH2 0x42D6 JUMPI JUMPDEST POP POP PUSH1 0xFF NOT DUP2 SLOAD AND SWAP1 SSTORE PUSH1 0x1 PUSH1 0x1 PUSH1 0x80 SHL SUB NOT DUP2 SLOAD AND SWAP1 SSTORE PUSH1 0x5 PUSH1 0x1 DUP1 PUSH1 0xA0 SHL SUB SWAP2 ADD SLOAD AND SWAP1 PUSH32 0x6F7734C2B603545392EDE46279193D0B944BFFB5D4C822BB78CD37EB6C2AADC9 PUSH1 0x40 DUP1 MLOAD DUP6 DUP2 MSTORE DUP8 PUSH1 0x20 DUP3 ADD MSTORE LOG3 SWAP2 SWAP1 JUMP JUMPDEST DUP2 PUSH2 0x42E0 SWAP2 PUSH2 0x371E JUMP JUMPDEST CODESIZE PUSH2 0x427D JUMP JUMPDEST PUSH2 0x42FE SWAP5 SWAP13 POP PUSH2 0x42F8 SWAP3 SWAP4 SWAP11 POP PUSH2 0x3E64 JUMP JUMPDEST SWAP8 PUSH2 0x3E64 JUMP JUMPDEST SWAP8 CODESIZE DUP1 DUP1 DUP1 PUSH2 0x423B JUMP JUMPDEST POP DUP3 ISZERO ISZERO PUSH2 0x4236 JUMP JUMPDEST SWAP1 SWAP3 POP PUSH2 0x432D SWAP2 POP PUSH1 0x40 RETURNDATASIZE PUSH1 0x40 GT PUSH2 0x1A22 JUMPI PUSH2 0x1A14 DUP2 DUP4 PUSH2 0x371E JUMP JUMPDEST SWAP2 CODESIZE PUSH2 0x422B JUMP JUMPDEST SWAP1 SWAP9 POP PUSH2 0x4351 SWAP2 SWAP7 POP PUSH1 0x40 RETURNDATASIZE PUSH1 0x40 GT PUSH2 0x1A22 JUMPI PUSH2 0x1A14 DUP2 DUP4 PUSH2 0x371E JUMP JUMPDEST SWAP6 SWAP1 SWAP6 SWAP8 CODESIZE PUSH2 0x41B9 JUMP JUMPDEST PUSH4 0x4E487B71 PUSH1 0xE0 SHL DUP13 MSTORE PUSH1 0x41 PUSH1 0x4 MSTORE PUSH1 0x24 DUP13 REVERT JUMPDEST PUSH1 0x40 MLOAD PUSH3 0x461BCD PUSH1 0xE5 SHL DUP2 MSTORE PUSH1 0x20 PUSH1 0x4 DUP3 ADD MSTORE PUSH1 0x16 PUSH1 0x24 DUP3 ADD MSTORE PUSH22 0x13919413481C1BDCDA5D1A5BDB881C995C5D5A5C9959 PUSH1 0x52 SHL PUSH1 0x44 DUP3 ADD MSTORE PUSH1 0x64 SWAP1 REVERT JUMPDEST POP PUSH1 0x9 SLOAD PUSH1 0x1 PUSH1 0x1 PUSH1 0xA0 SHL SUB AND ISZERO ISZERO PUSH2 0x4107 JUMP JUMPDEST PUSH1 0x40 MLOAD SWAP1 PUSH1 0x20 PUSH1 0x0 DUP2 DUP5 ADD SWAP5 PUSH4 0x95EA7B3 PUSH1 0xE0 SHL DUP7 MSTORE PUSH1 0x1 DUP1 PUSH1 0xA0 SHL SUB AND SWAP5 DUP6 PUSH1 0x24 DUP7 ADD MSTORE DUP2 PUSH1 0x44 DUP7 ADD MSTORE PUSH1 0x44 DUP6 MSTORE PUSH2 0x43FB PUSH1 0x64 DUP7 PUSH2 0x371E JUMP JUMPDEST DUP5 MLOAD SWAP1 DUP3 DUP6 GAS CALL PUSH1 0x0 MLOAD RETURNDATASIZE DUP3 PUSH2 0x4458 JUMPI JUMPDEST POP POP ISZERO PUSH2 0x4418 JUMPI POP POP POP JUMP JUMPDEST PUSH2 0x4451 PUSH2 0x4456 SWAP4 PUSH1 0x40 MLOAD SWAP1 PUSH4 0x95EA7B3 PUSH1 0xE0 SHL PUSH1 0x20 DUP4 ADD MSTORE PUSH1 0x24 DUP3 ADD MSTORE PUSH1 0x0 PUSH1 0x44 DUP3 ADD MSTORE PUSH1 0x44 DUP2 MSTORE PUSH2 0x444B PUSH1 0x64 DUP3 PUSH2 0x371E JUMP JUMPDEST DUP3 PUSH2 0x47D3 JUMP JUMPDEST PUSH2 0x47D3 JUMP JUMPDEST JUMP JUMPDEST SWAP1 SWAP2 POP PUSH2 0x4475 JUMPI POP PUSH1 0x1 PUSH1 0x1 PUSH1 0xA0 SHL SUB DUP2 AND EXTCODESIZE ISZERO ISZERO JUMPDEST CODESIZE DUP1 PUSH2 0x440C JUMP JUMPDEST PUSH1 0x1 EQ PUSH2 0x446E JUMP JUMPDEST PUSH1 0x20 PUSH1 0x0 PUSH1 0x40 MLOAD SWAP4 DUP3 DUP6 ADD SWAP1 PUSH4 0x95EA7B3 PUSH1 0xE0 SHL DUP3 MSTORE PUSH1 0x1 DUP1 PUSH1 0xA0 SHL SUB AND SWAP6 DUP7 PUSH1 0x24 DUP8 ADD MSTORE PUSH1 0x44 DUP7 ADD MSTORE PUSH1 0x44 DUP6 MSTORE PUSH2 0x43FB PUSH1 0x64 DUP7 PUSH2 0x371E JUMP JUMPDEST PUSH1 0x40 MLOAD PUSH4 0x6EB1769F PUSH1 0xE1 SHL DUP2 MSTORE ADDRESS PUSH1 0x4 DUP3 ADD MSTORE PUSH1 0x1 PUSH1 0x1 PUSH1 0xA0 SHL SUB DUP4 AND PUSH1 0x24 DUP3 ADD MSTORE SWAP1 SWAP2 SWAP1 PUSH1 0x20 DUP2 DUP1 PUSH1 0x44 DUP2 ADD SUB DUP2 PUSH1 0x1 PUSH1 0x1 PUSH1 0xA0 SHL SUB DUP8 AND GAS STATICCALL SWAP1 DUP2 ISZERO PUSH2 0x3D32 JUMPI PUSH1 0x0 SWAP2 PUSH2 0x4514 JUMPI JUMPDEST POP PUSH2 0x4456 SWAP4 PUSH2 0x450E SWAP2 PUSH2 0x3E64 JUMP JUMPDEST SWAP2 PUSH2 0x447D JUMP JUMPDEST SWAP1 POP PUSH1 0x20 DUP2 RETURNDATASIZE PUSH1 0x20 GT PUSH2 0x4540 JUMPI JUMPDEST DUP2 PUSH2 0x452F PUSH1 0x20 SWAP4 DUP4 PUSH2 0x371E JUMP JUMPDEST DUP2 ADD SUB SLT PUSH2 0x300 JUMPI MLOAD PUSH2 0x4456 PUSH2 0x4500 JUMP JUMPDEST RETURNDATASIZE SWAP2 POP PUSH2 0x4522 JUMP JUMPDEST SWAP6 SWAP9 SWAP2 SWAP7 SWAP3 SWAP4 SWAP8 SWAP1 SWAP5 SWAP9 PUSH1 0x6 SLOAD PUSH2 0x455E SWAP1 PUSH2 0x3B44 JUMP JUMPDEST SWAP10 DUP11 SWAP9 DUP10 PUSH1 0x6 SSTORE PUSH1 0x40 MLOAD SWAP9 PUSH2 0x4572 DUP11 PUSH2 0x3699 JUMP JUMPDEST PUSH1 0x1 PUSH1 0xA0 SHL PUSH1 0x1 SWAP1 SUB AND DUP10 MSTORE PUSH1 0x20 DUP10 ADD SWAP8 PUSH1 0x1 PUSH1 0xA0 SHL PUSH1 0x1 SWAP1 SUB AND DUP9 MSTORE PUSH1 0x40 DUP10 ADD SWAP1 PUSH1 0x1 PUSH1 0xA0 SHL PUSH1 0x1 SWAP1 SUB AND DUP2 MSTORE PUSH1 0x60 DUP10 ADD SWAP7 PUSH1 0x2 SIGNEXTEND DUP8 MSTORE PUSH1 0x80 DUP10 ADD SWAP11 PUSH1 0x2 SIGNEXTEND DUP12 MSTORE PUSH1 0xA0 DUP10 ADD SWAP2 PUSH1 0x1 PUSH1 0x1 PUSH1 0x80 SHL SUB AND DUP3 MSTORE PUSH1 0xC0 DUP10 ADD SWAP3 DUP4 MSTORE PUSH1 0xE0 DUP10 ADD SWAP6 PUSH1 0x1 PUSH1 0xA0 SHL PUSH1 0x1 SWAP1 SUB AND SWAP11 DUP12 DUP8 MSTORE PUSH2 0x100 DUP11 ADD SWAP5 PUSH1 0x2 SIGNEXTEND DUP6 MSTORE PUSH2 0x120 DUP11 ADD SWAP6 PUSH1 0x2 SIGNEXTEND DUP7 MSTORE PUSH2 0x140 DUP11 ADD SWAP8 PUSH2 0x3E8 DUP10 MSTORE PUSH2 0x160 DUP12 ADD SWAP10 TIMESTAMP DUP12 MSTORE PUSH2 0x180 DUP13 ADD SWAP13 PUSH1 0x1 DUP15 MSTORE PUSH1 0x0 MSTORE PUSH1 0x4 PUSH1 0x20 MSTORE PUSH1 0x40 PUSH1 0x0 KECCAK256 SWAP12 PUSH1 0x1 PUSH1 0xA0 SHL PUSH1 0x1 SWAP1 SUB SWAP1 PUSH1 0x1 PUSH1 0xA0 SHL PUSH1 0x1 SWAP1 SUB SWAP1 MLOAD AND AND PUSH1 0x1 PUSH1 0x1 PUSH1 0x60 SHL SUB PUSH1 0xA0 SHL DUP14 SLOAD AND OR DUP13 SSTORE PUSH1 0x1 PUSH1 0xA0 SHL PUSH1 0x1 SWAP1 SUB SWAP1 MLOAD AND PUSH1 0x1 DUP13 ADD SWAP1 PUSH1 0x1 PUSH1 0xA0 SHL PUSH1 0x1 SWAP1 SUB AND PUSH1 0x1 PUSH1 0x1 PUSH1 0x60 SHL SUB PUSH1 0xA0 SHL DUP3 SLOAD AND OR SWAP1 SSTORE PUSH1 0x2 DUP12 ADD SWAP3 PUSH1 0x1 PUSH1 0xA0 SHL PUSH1 0x1 SWAP1 SUB SWAP1 PUSH1 0x1 PUSH1 0xA0 SHL PUSH1 0x1 SWAP1 SUB SWAP1 MLOAD AND AND PUSH1 0x1 PUSH1 0x1 PUSH1 0x60 SHL SUB PUSH1 0xA0 SHL DUP5 SLOAD AND OR DUP4 SSTORE MLOAD PUSH1 0x2 SIGNEXTEND PUSH2 0x46C8 SWAP1 DUP4 SWAP1 DUP2 SLOAD SWAP1 PUSH1 0xA0 SHL PUSH3 0xFFFFFF PUSH1 0xA0 SHL AND SWAP1 PUSH3 0xFFFFFF PUSH1 0xA0 SHL NOT AND OR SWAP1 SSTORE JUMP JUMPDEST MLOAD DUP2 SLOAD PUSH1 0xB8 SWAP2 SWAP1 SWAP2 SHL PUSH3 0xFFFFFF PUSH1 0xB8 SHL AND PUSH3 0xFFFFFF PUSH1 0xB8 SHL NOT SWAP1 SWAP2 AND OR SWAP1 SSTORE MLOAD PUSH1 0x3 DUP9 ADD DUP1 SLOAD PUSH1 0x1 PUSH1 0x1 PUSH1 0x80 SHL SUB SWAP1 SWAP3 AND PUSH16 0xFFFFFFFFFFFFFFFFFFFFFFFFFFFFFFFF NOT SWAP1 SWAP3 AND SWAP2 SWAP1 SWAP2 OR SWAP1 SSTORE MLOAD PUSH1 0x4 DUP8 ADD SSTORE SWAP2 MLOAD PUSH1 0x5 DUP7 ADD DUP1 SLOAD SWAP4 MLOAD PUSH1 0xA0 SHL PUSH3 0xFFFFFF PUSH1 0xA0 SHL AND PUSH1 0x1 PUSH1 0x1 PUSH1 0xA0 SHL SUB SWAP1 SWAP3 AND PUSH1 0x1 PUSH1 0x1 PUSH1 0xB8 SHL SUB NOT SWAP1 SWAP5 AND SWAP4 SWAP1 SWAP4 OR OR DUP3 SSTORE MLOAD DUP2 SLOAD PUSH1 0xB8 SWAP2 SWAP1 SWAP2 SHL PUSH3 0xFFFFFF PUSH1 0xB8 SHL AND PUSH3 0xFFFFFF PUSH1 0xB8 SHL NOT SWAP1 SWAP2 AND OR SWAP1 SSTORE MLOAD PUSH1 0x6 DUP4 ADD SSTORE MLOAD PUSH1 0x7 DUP3 ADD SSTORE PUSH1 0x8 ADD SWAP1 MLOAD ISZERO ISZERO PUSH1 0xFF NOT DUP3 SLOAD AND SWAP1 PUSH1 0xFF AND OR SWAP1 SSTORE PUSH1 0x0 MSTORE PUSH1 0x5 PUSH1 0x20 MSTORE PUSH1 0x40 PUSH1 0x0 KECCAK256 DUP1 SLOAD PUSH9 0x10000000000000000 DUP2 LT ISZERO PUSH2 0x36B5 JUMPI PUSH2 0x47BB SWAP2 PUSH1 0x1 DUP3 ADD DUP2 SSTORE PUSH2 0x37FB JUMP JUMPDEST DUP2 SLOAD SWAP1 PUSH1 0x3 SHL SWAP1 DUP4 DUP3 SHL SWAP2 PUSH1 0x0 NOT SWAP1 SHL NOT AND OR SWAP1 SSTORE SWAP1 JUMP JUMPDEST SWAP1 PUSH1 0x0 PUSH1 0x20 SWAP2 DUP3 DUP2 MLOAD SWAP2 ADD DUP3 DUP6 GAS CALL ISZERO PUSH2 0x3D32 JUMPI PUSH1 0x0 MLOAD RETURNDATASIZE PUSH2 0x4825 JUMPI POP PUSH1 0x1 PUSH1 0x1 PUSH1 0xA0 SHL SUB DUP2 AND EXTCODESIZE ISZERO JUMPDEST PUSH2 0x4804 JUMPI POP JUMP JUMPDEST PUSH4 0x5274AFE7 PUSH1 0xE0 SHL PUSH1 0x0 SWAP1 DUP2 MSTORE PUSH1 0x1 PUSH1 0x1 PUSH1 0xA0 SHL SUB SWAP2 SWAP1 SWAP2 AND PUSH1 0x4 MSTORE PUSH1 0x24 SWAP1 REVERT JUMPDEST PUSH1 0x1 EQ ISZERO PUSH2 0x47FD JUMP INVALID LOG2 PUSH5 0x6970667358 0x22 SLT KECCAK256 0xF8 TSTORE MLOAD BLOBBASEFEE 0xB7 0xBF 0xC7 POP 0x1E BALANCE EXTCODEHASH 0xE8 0x4F SWAP5 0x2E DUP5 SHR MLOAD BASEFEE GASPRICE 0xA7 CALL EXTCODECOPY PUSH4 0x59AED19E 0xE 0x1F 0xEA BLOBHASH PUSH5 0x736F6C6343 STOP ADDMOD SHR STOP CALLER "},"methodIdentifiers":{"addSupportedToken(address)":"6d69fcaf","assetHubParaId()":"dfaa9b70","buildPalletCallBytes(uint8,uint8,bytes)":"e34fe513","calculateTickRange(address,int24,int24)":"649ba22c","collectFees(uint256)":"b17acdcd","defaultDestWeight()":"f699c43a","defaultSlippageBps()":"96667621","executeFullLiquidation(uint256)":"4d0e5db4","executeInvestment(address,uint256[],address,int24,int24,address)":"d6aec8a9","freezeXcmConfig()":"6b3f1fdb","getActivePositions()":"5fc75ec2","getBalance(address)":"f8b2cb4f","getUserPositions(address)":"2a6bc2dd","isPositionOutOfRange(uint256)":"41051ef8","liquidateSwapAndReturn(uint256,address,bytes,uint256,uint256,uint160,bytes32)":"a23c34a8","nfpmContract()":"f84144fb","onERC721Received(address,address,uint256,bytes)":"150b7a02","operator()":"570ca735","owner()":"8da5cb5b","pause()":"8456cb59","paused()":"5c975abb","positionCounter()":"63d5ab8d","positions(uint256)":"99fbab88","quoteExactInputSingle(address,address,uint256,uint160)":"2d9ebd1d","quoterContract()":"e84073f6","receiveAssets(address,address,uint256,bytes)":"b2dc6007","remoteCallAssetHub(uint16,uint64,bytes,uint256,uint64)":"11b21acf","removeSupportedToken(address)":"76319190","renounceOwnership()":"715018a6","returnAssets(address,address,uint256,bytes)":"54422760","setAssetHubParaId(uint32)":"5cb124a8","setDefaultDestWeight(uint64)":"9aa79a84","setDefaultSlippageBps(uint16)":"a3b45a2a","setIntegrations(address,address)":"10af06a2","setNFPM(address)":"9fb3b5ab","setOperator(address)":"b3ab15fb","setTestMode(bool)":"1ff1292f","setTrustedXcmCaller(address)":"2d349e51","setXTokensPrecompile(address)":"4d7f9cc9","setXcmTransactorPrecompile(address)":"c332bec1","supportedTokens(address)":"68c4ac26","swapExactInputSingle(address,address,address,uint256,uint256,uint160)":"b9c6cce6","swapRouterContract()":"fee4e474","testMode()":"cd9ea342","transferOwnership(address)":"f2fde38b","trustedXcmCaller()":"d1074172","unpause()":"3f4ba83a","userPositions(address,uint256)":"5e1b4d99","xTokensPrecompile()":"2fe220a4","xcmConfigFrozen()":"00cac96c","xcmTransactorPrecompile()":"e178b5dd"}}}}}