{"contracts/test/ReentrancyAttacker.sol":{"ReentrancyAttacker":{"abi":[{"inputs":[{"internalType":"address","name":"_vault","type":"address"}],"stateMutability":"nonpayable","type":"constructor"},{"stateMutability":"payable","type":"fallback"},{"inputs":[],"name":"attackCount","outputs":[{"internalType":"uint256","name":"","type":"uint256"}],"stateMutability":"view","type":"function"},{"inputs":[],"name":"attackDeposit","outputs":[],"stateMutability":"payable","type":"function"},{"inputs":[{"internalType":"uint256","name":"amount","type":"uint256"}],"name":"attackWithdraw","outputs":[],"stateMutability":"nonpayable","type":"function"},{"inputs":[],"name":"attacking","outputs":[{"internalType":"bool","name":"","type":"bool"}],"stateMutability":"view","type":"function"},{"inputs":[],"name":"vault","outputs":[{"internalType":"contract IAssetHubVault","name":"","type":"address"}],"stateMutability":"view","type":"function"},{"stateMutability":"payable","type":"receive"}],"evm":{"bytecode":{"linkReferences":{},"object":"608034607357601f61042538819003918201601f19168301916001600160401b03831184841017607857808492602094604052833981010312607357516001600160a01b03811690819003607357600080546001600160a81b031916919091178155600155604051610396908161008f8239f35b600080fd5b634e487b7160e01b600052604160045260246000fdfe6080806040526004361015610182575b50361561001857005b6000805460ff8160a01c1680610176575b61002f57005b600154600019811461016257600101600155662386f26fc10000471015610117575b5080546040516323b9a44960e11b81523060048201526001600160a01b0390911690602081602481855afa90811561010c5783916100d6575b508061009257005b8183923b156100d257602483926040519485938492632e1a7d4d60e01b845260048401525af16100be57005b6100c9828092610328565b6100cf57005b80fd5b5050fd5b90506020813d602011610104575b816100f160209383610328565b8101031261010057513861008a565b8280fd5b3d91506100e4565b6040513d85823e3d90fd5b6001600160a01b031681813b156100cf5780662386f26fc1000092600460405180958193630d0e30db60e41b83525af1610152575b50610051565b61015b91610328565b388161014c565b634e487b7160e01b83526011600452602483fd5b50600360015410610029565b600090813560e01c9081633510e6a0146102b2575080633c0bbcd91461028d578063407c28211461026f5780637d647817146101e85763fbfa77cf0361000f57346100cf57806003193601126100cf57546040516001600160a01b039091168152602090f35b50346100cf5760203660031901126100cf57805460ff60a01b198116600160a01b178255600182905581906001600160a01b0316803b1561026c57818091602460405180948193632e1a7d4d60e01b835260043560048401525af18015610261576102505750f35b8161025a91610328565b6100cf5780f35b6040513d84823e3d90fd5b50fd5b50346100cf57806003193601126100cf576020600154604051908152f35b50346100cf57806003193601126100cf5760ff6020915460a01c166040519015158152f35b90508160031936011261032457815460ff60a01b198116600160a01b178355600183905582906001600160a01b0316803b1561032457826004818493630d0e30db60e41b825234905af18015610317576103095780f35b61031291610328565b388180f35b50604051903d90823e3d90fd5b5080fd5b90601f8019910116810190811067ffffffffffffffff82111761034a57604052565b634e487b7160e01b600052604160045260246000fdfea2646970667358221220cf904f4a91b20b420b37aed940867fda839de8d2cd16872c38aa61aafb11a94c64736f6c634300081c0033","opcodes":"PUSH1 0x80 CALLVALUE PUSH1 0x73 JUMPI PUSH1 0x1F PUSH2 0x425 CODESIZE DUP2 SWAP1 SUB SWAP2 DUP3 ADD PUSH1 0x1F NOT AND DUP4 ADD SWAP2 PUSH1 0x1 PUSH1 0x1 PUSH1 0x40 SHL SUB DUP4 GT DUP5 DUP5 LT OR PUSH1 0x78 JUMPI DUP1 DUP5 SWAP3 PUSH1 0x20 SWAP5 PUSH1 0x40 MSTORE DUP4 CODECOPY DUP2 ADD SUB SLT PUSH1 0x73 JUMPI MLOAD PUSH1 0x1 PUSH1 0x1 PUSH1 0xA0 SHL SUB DUP2 AND SWAP1 DUP2 SWAP1 SUB PUSH1 0x73 JUMPI PUSH1 0x0 DUP1 SLOAD PUSH1 0x1 PUSH1 0x1 PUSH1 0xA8 SHL SUB NOT AND SWAP2 SWAP1 SWAP2 OR DUP2 SSTORE PUSH1 0x1 SSTORE PUSH1 0x40 MLOAD PUSH2 0x396 SWAP1 DUP2 PUSH2 0x8F DUP3 CODECOPY RETURN JUMPDEST PUSH1 0x0 DUP1 REVERT JUMPDEST PUSH4 0x4E487B71 PUSH1 0xE0 SHL PUSH1 0x0 MSTORE PUSH1 0x41 PUSH1 0x4 MSTORE PUSH1 0x24 PUSH1 0x0 REVERT INVALID PUSH1 0x80 DUP1 PUSH1 0x40 MSTORE PUSH1 0x4 CALLDATASIZE LT ISZERO PUSH2 0x182 JUMPI JUMPDEST POP CALLDATASIZE ISZERO PUSH2 0x18 JUMPI STOP JUMPDEST PUSH1 0x0 DUP1 SLOAD PUSH1 0xFF DUP2 PUSH1 0xA0 SHR AND DUP1 PUSH2 0x176 JUMPI JUMPDEST PUSH2 0x2F JUMPI STOP JUMPDEST PUSH1 0x1 SLOAD PUSH1 0x0 NOT DUP2 EQ PUSH2 0x162 JUMPI PUSH1 0x1 ADD PUSH1 0x1 SSTORE PUSH7 0x2386F26FC10000 SELFBALANCE LT ISZERO PUSH2 0x117 JUMPI JUMPDEST POP DUP1 SLOAD PUSH1 0x40 MLOAD PUSH4 0x23B9A449 PUSH1 0xE1 SHL DUP2 MSTORE ADDRESS PUSH1 0x4 DUP3 ADD MSTORE PUSH1 0x1 PUSH1 0x1 PUSH1 0xA0 SHL SUB SWAP1 SWAP2 AND SWAP1 PUSH1 0x20 DUP2 PUSH1 0x24 DUP2 DUP6 GAS STATICCALL SWAP1 DUP2 ISZERO PUSH2 0x10C JUMPI DUP4 SWAP2 PUSH2 0xD6 JUMPI JUMPDEST POP DUP1 PUSH2 0x92 JUMPI STOP JUMPDEST DUP2 DUP4 SWAP3 EXTCODESIZE ISZERO PUSH2 0xD2 JUMPI PUSH1 0x24 DUP4 SWAP3 PUSH1 0x40 MLOAD SWAP5 DUP6 SWAP4 DUP5 SWAP3 PUSH4 0x2E1A7D4D PUSH1 0xE0 SHL DUP5 MSTORE PUSH1 0x4 DUP5 ADD MSTORE GAS CALL PUSH2 0xBE JUMPI STOP JUMPDEST PUSH2 0xC9 DUP3 DUP1 SWAP3 PUSH2 0x328 JUMP JUMPDEST PUSH2 0xCF JUMPI STOP JUMPDEST DUP1 REVERT JUMPDEST POP POP REVERT JUMPDEST SWAP1 POP PUSH1 0x20 DUP2 RETURNDATASIZE PUSH1 0x20 GT PUSH2 0x104 JUMPI JUMPDEST DUP2 PUSH2 0xF1 PUSH1 0x20 SWAP4 DUP4 PUSH2 0x328 JUMP JUMPDEST DUP2 ADD SUB SLT PUSH2 0x100 JUMPI MLOAD CODESIZE PUSH2 0x8A JUMP JUMPDEST DUP3 DUP1 REVERT JUMPDEST RETURNDATASIZE SWAP2 POP PUSH2 0xE4 JUMP JUMPDEST PUSH1 0x40 MLOAD RETURNDATASIZE DUP6 DUP3 RETURNDATACOPY RETURNDATASIZE SWAP1 REVERT JUMPDEST PUSH1 0x1 PUSH1 0x1 PUSH1 0xA0 SHL SUB AND DUP2 DUP2 EXTCODESIZE ISZERO PUSH2 0xCF JUMPI DUP1 PUSH7 0x2386F26FC10000 SWAP3 PUSH1 0x4 PUSH1 0x40 MLOAD DUP1 SWAP6 DUP2 SWAP4 PUSH4 0xD0E30DB PUSH1 0xE4 SHL DUP4 MSTORE GAS CALL PUSH2 0x152 JUMPI JUMPDEST POP PUSH2 0x51 JUMP JUMPDEST PUSH2 0x15B SWAP2 PUSH2 0x328 JUMP JUMPDEST CODESIZE DUP2 PUSH2 0x14C JUMP JUMPDEST PUSH4 0x4E487B71 PUSH1 0xE0 SHL DUP4 MSTORE PUSH1 0x11 PUSH1 0x4 MSTORE PUSH1 0x24 DUP4 REVERT JUMPDEST POP PUSH1 0x3 PUSH1 0x1 SLOAD LT PUSH2 0x29 JUMP JUMPDEST PUSH1 0x0 SWAP1 DUP2 CALLDATALOAD PUSH1 0xE0 SHR SWAP1 DUP2 PUSH4 0x3510E6A0 EQ PUSH2 0x2B2 JUMPI POP DUP1 PUSH4 0x3C0BBCD9 EQ PUSH2 0x28D JUMPI DUP1 PUSH4 0x407C2821 EQ PUSH2 0x26F JUMPI DUP1 PUSH4 0x7D647817 EQ PUSH2 0x1E8 JUMPI PUSH4 0xFBFA77CF SUB PUSH2 0xF JUMPI CALLVALUE PUSH2 0xCF JUMPI DUP1 PUSH1 0x3 NOT CALLDATASIZE ADD SLT PUSH2 0xCF JUMPI SLOAD PUSH1 0x40 MLOAD PUSH1 0x1 PUSH1 0x1 PUSH1 0xA0 SHL SUB SWAP1 SWAP2 AND DUP2 MSTORE PUSH1 0x20 SWAP1 RETURN JUMPDEST POP CALLVALUE PUSH2 0xCF JUMPI PUSH1 0x20 CALLDATASIZE PUSH1 0x3 NOT ADD SLT PUSH2 0xCF JUMPI DUP1 SLOAD PUSH1 0xFF PUSH1 0xA0 SHL NOT DUP2 AND PUSH1 0x1 PUSH1 0xA0 SHL OR DUP3 SSTORE PUSH1 0x1 DUP3 SWAP1 SSTORE DUP2 SWAP1 PUSH1 0x1 PUSH1 0x1 PUSH1 0xA0 SHL SUB AND DUP1 EXTCODESIZE ISZERO PUSH2 0x26C JUMPI DUP2 DUP1 SWAP2 PUSH1 0x24 PUSH1 0x40 MLOAD DUP1 SWAP5 DUP2 SWAP4 PUSH4 0x2E1A7D4D PUSH1 0xE0 SHL DUP4 MSTORE PUSH1 0x4 CALLDATALOAD PUSH1 0x4 DUP5 ADD MSTORE GAS CALL DUP1 ISZERO PUSH2 0x261 JUMPI PUSH2 0x250 JUMPI POP RETURN JUMPDEST DUP2 PUSH2 0x25A SWAP2 PUSH2 0x328 JUMP JUMPDEST PUSH2 0xCF JUMPI DUP1 RETURN JUMPDEST PUSH1 0x40 MLOAD RETURNDATASIZE DUP5 DUP3 RETURNDATACOPY RETURNDATASIZE SWAP1 REVERT JUMPDEST POP REVERT JUMPDEST POP CALLVALUE PUSH2 0xCF JUMPI DUP1 PUSH1 0x3 NOT CALLDATASIZE ADD SLT PUSH2 0xCF JUMPI PUSH1 0x20 PUSH1 0x1 SLOAD PUSH1 0x40 MLOAD SWAP1 DUP2 MSTORE RETURN JUMPDEST POP CALLVALUE PUSH2 0xCF JUMPI DUP1 PUSH1 0x3 NOT CALLDATASIZE ADD SLT PUSH2 0xCF JUMPI PUSH1 0xFF PUSH1 0x20 SWAP2 SLOAD PUSH1 0xA0 SHR AND PUSH1 0x40 MLOAD SWAP1 ISZERO ISZERO DUP2 MSTORE RETURN JUMPDEST SWAP1 POP DUP2 PUSH1 0x3 NOT CALLDATASIZE ADD SLT PUSH2 0x324 JUMPI DUP2 SLOAD PUSH1 0xFF PUSH1 0xA0 SHL NOT DUP2 AND PUSH1 0x1 PUSH1 0xA0 SHL OR DUP4 SSTORE PUSH1 0x1 DUP4 SWAP1 SSTORE DUP3 SWAP1 PUSH1 0x1 PUSH1 0x1 PUSH1 0xA0 SHL SUB AND DUP1 EXTCODESIZE ISZERO PUSH2 0x324 JUMPI DUP3 PUSH1 0x4 DUP2 DUP5 SWAP4 PUSH4 0xD0E30DB PUSH1 0xE4 SHL DUP3 MSTORE CALLVALUE SWAP1 GAS CALL DUP1 ISZERO PUSH2 0x317 JUMPI PUSH2 0x309 JUMPI DUP1 RETURN JUMPDEST PUSH2 0x312 SWAP2 PUSH2 0x328 JUMP JUMPDEST CODESIZE DUP2 DUP1 RETURN JUMPDEST POP PUSH1 0x40 MLOAD SWAP1 RETURNDATASIZE SWAP1 DUP3 RETURNDATACOPY RETURNDATASIZE SWAP1 REVERT JUMPDEST POP DUP1 REVERT JUMPDEST SWAP1 PUSH1 0x1F DUP1 NOT SWAP2 ADD AND DUP2 ADD SWAP1 DUP2 LT PUSH8 0xFFFFFFFFFFFFFFFF DUP3 GT OR PUSH2 0x34A JUMPI PUSH1 0x40 MSTORE JUMP JUMPDEST PUSH4 0x4E487B71 PUSH1 0xE0 SHL PUSH1 0x0 MSTORE PUSH1 0x41 PUSH1 0x4 MSTORE PUSH1 0x24 PUSH1 0x0 REVERT INVALID LOG2 PUSH5 0x6970667358 0x22 SLT KECCAK256 0xCF SWAP1 0x4F BLOBBASEFEE SWAP2 0xB2 SIGNEXTEND TIMESTAMP SIGNEXTEND CALLDATACOPY 0xAE 0xD9 BLOCKHASH DUP7 PUSH32 0xDA839DE8D2CD16872C38AA61AAFB11A94C64736F6C634300081C003300000000 "},"methodIdentifiers":{"attackCount()":"407c2821","attackDeposit()":"3510e6a0","attackWithdraw(uint256)":"7d647817","attacking()":"3c0bbcd9","vault()":"fbfa77cf"}}}}}