{
  "_format": "hh-sol-artifact-1",
  "contractName": "ReentrancyAttacker",
  "sourceName": "contracts/test/ReentrancyAttacker.sol",
  "abi": [
    {
      "inputs": [
        {
          "internalType": "address",
          "name": "_vault",
          "type": "address"
        }
      ],
      "stateMutability": "nonpayable",
      "type": "constructor"
    },
    {
      "stateMutability": "payable",
      "type": "fallback"
    },
    {
      "inputs": [],
      "name": "attackCount",
      "outputs": [
        {
          "internalType": "uint256",
          "name": "",
          "type": "uint256"
        }
      ],
      "stateMutability": "view",
      "type": "function"
    },
    {
      "inputs": [],
      "name": "attackDeposit",
      "outputs": [],
      "stateMutability": "payable",
      "type": "function"
    },
    {
      "inputs": [
        {
          "internalType": "uint256",
          "name": "amount",
          "type": "uint256"
        }
      ],
      "name": "attackWithdraw",
      "outputs": [],
      "stateMutability": "nonpayable",
      "type": "function"
    },
    {
      "inputs": [],
      "name": "attacking",
      "outputs": [
        {
          "internalType": "bool",
          "name": "",
          "type": "bool"
        }
      ],
      "stateMutability": "view",
      "type": "function"
    },
    {
      "inputs": [],
      "name": "vault",
      "outputs": [
        {
          "internalType": "contract IAssetHubVault",
          "name": "",
          "type": "address"
        }
      ],
      "stateMutability": "view",
      "type": "function"
    },
    {
      "stateMutability": "payable",
      "type": "receive"
    }
  ],
  "bytecode": "0x608034607357601f61042538819003918201601f19168301916001600160401b03831184841017607857808492602094604052833981010312607357516001600160a01b03811690819003607357600080546001600160a81b031916919091178155600155604051610396908161008f8239f35b600080fd5b634e487b7160e01b600052604160045260246000fdfe6080806040526004361015610182575b50361561001857005b6000805460ff8160a01c1680610176575b61002f57005b600154600019811461016257600101600155662386f26fc10000471015610117575b5080546040516323b9a44960e11b81523060048201526001600160a01b0390911690602081602481855afa90811561010c5783916100d6575b508061009257005b8183923b156100d257602483926040519485938492632e1a7d4d60e01b845260048401525af16100be57005b6100c9828092610328565b6100cf57005b80fd5b5050fd5b90506020813d602011610104575b816100f160209383610328565b8101031261010057513861008a565b8280fd5b3d91506100e4565b6040513d85823e3d90fd5b6001600160a01b031681813b156100cf5780662386f26fc1000092600460405180958193630d0e30db60e41b83525af1610152575b50610051565b61015b91610328565b388161014c565b634e487b7160e01b83526011600452602483fd5b50600360015410610029565b600090813560e01c9081633510e6a0146102b2575080633c0bbcd91461028d578063407c28211461026f5780637d647817146101e85763fbfa77cf0361000f57346100cf57806003193601126100cf57546040516001600160a01b039091168152602090f35b50346100cf5760203660031901126100cf57805460ff60a01b198116600160a01b178255600182905581906001600160a01b0316803b1561026c57818091602460405180948193632e1a7d4d60e01b835260043560048401525af18015610261576102505750f35b8161025a91610328565b6100cf5780f35b6040513d84823e3d90fd5b50fd5b50346100cf57806003193601126100cf576020600154604051908152f35b50346100cf57806003193601126100cf5760ff6020915460a01c166040519015158152f35b90508160031936011261032457815460ff60a01b198116600160a01b178355600183905582906001600160a01b0316803b1561032457826004818493630d0e30db60e41b825234905af18015610317576103095780f35b61031291610328565b388180f35b50604051903d90823e3d90fd5b5080fd5b90601f8019910116810190811067ffffffffffffffff82111761034a57604052565b634e487b7160e01b600052604160045260246000fdfea2646970667358221220cf904f4a91b20b420b37aed940867fda839de8d2cd16872c38aa61aafb11a94c64736f6c634300081c0033",
  "linkReferences": {},
  "deployedLinkReferences": {}
}