{
  "_format": "hh-sol-artifact-1",
  "contractName": "AssetHubVault",
  "sourceName": "contracts/V1(Current)/AssetHubVault.sol",
  "abi": [
    {
      "inputs": [],
      "stateMutability": "nonpayable",
      "type": "constructor"
    },
    {
      "inputs": [],
      "name": "AmountMismatch",
      "type": "error"
    },
    {
      "inputs": [],
      "name": "AmountZero",
      "type": "error"
    },
    {
      "inputs": [],
      "name": "AssetMismatch",
      "type": "error"
    },
    {
      "inputs": [],
      "name": "ChainIdMismatch",
      "type": "error"
    },
    {
      "inputs": [],
      "name": "InsufficientBalance",
      "type": "error"
    },
    {
      "inputs": [],
      "name": "InvalidRange",
      "type": "error"
    },
    {
      "inputs": [],
      "name": "NotAdmin",
      "type": "error"
    },
    {
      "inputs": [],
      "name": "NotEmergency",
      "type": "error"
    },
    {
      "inputs": [],
      "name": "NotOperator",
      "type": "error"
    },
    {
      "inputs": [],
      "name": "Paused",
      "type": "error"
    },
    {
      "inputs": [],
      "name": "PositionNotActive",
      "type": "error"
    },
    {
      "inputs": [],
      "name": "ReentrancyGuardReentrantCall",
      "type": "error"
    },
    {
      "inputs": [],
      "name": "UnauthorizedXcmCall",
      "type": "error"
    },
    {
      "inputs": [],
      "name": "XcmPrecompileNotSet",
      "type": "error"
    },
    {
      "inputs": [],
      "name": "ZeroAddress",
      "type": "error"
    },
    {
      "anonymous": false,
      "inputs": [
        {
          "indexed": true,
          "internalType": "address",
          "name": "user",
          "type": "address"
        },
        {
          "indexed": false,
          "internalType": "uint256",
          "name": "amount",
          "type": "uint256"
        }
      ],
      "name": "Deposit",
      "type": "event"
    },
    {
      "anonymous": false,
      "inputs": [
        {
          "indexed": true,
          "internalType": "bytes32",
          "name": "positionId",
          "type": "bytes32"
        },
        {
          "indexed": true,
          "internalType": "address",
          "name": "user",
          "type": "address"
        },
        {
          "indexed": false,
          "internalType": "uint32",
          "name": "chainId",
          "type": "uint32"
        },
        {
          "indexed": false,
          "internalType": "address",
          "name": "poolId",
          "type": "address"
        },
        {
          "indexed": false,
          "internalType": "uint256",
          "name": "amount",
          "type": "uint256"
        }
      ],
      "name": "InvestmentInitiated",
      "type": "event"
    },
    {
      "anonymous": false,
      "inputs": [
        {
          "indexed": true,
          "internalType": "bytes32",
          "name": "positionId",
          "type": "bytes32"
        },
        {
          "indexed": true,
          "internalType": "address",
          "name": "user",
          "type": "address"
        },
        {
          "indexed": false,
          "internalType": "uint256",
          "name": "receivedAmount",
          "type": "uint256"
        },
        {
          "indexed": false,
          "internalType": "uint256",
          "name": "expectedAmount",
          "type": "uint256"
        }
      ],
      "name": "LiquidationSettled",
      "type": "event"
    },
    {
      "anonymous": false,
      "inputs": [
        {
          "indexed": true,
          "internalType": "bytes32",
          "name": "positionId",
          "type": "bytes32"
        },
        {
          "indexed": true,
          "internalType": "address",
          "name": "user",
          "type": "address"
        },
        {
          "indexed": false,
          "internalType": "uint256",
          "name": "finalAmount",
          "type": "uint256"
        }
      ],
      "name": "PositionLiquidated",
      "type": "event"
    },
    {
      "anonymous": false,
      "inputs": [
        {
          "indexed": true,
          "internalType": "address",
          "name": "user",
          "type": "address"
        },
        {
          "indexed": false,
          "internalType": "uint256",
          "name": "amount",
          "type": "uint256"
        }
      ],
      "name": "Withdrawal",
      "type": "event"
    },
    {
      "anonymous": false,
      "inputs": [
        {
          "indexed": true,
          "internalType": "bytes32",
          "name": "messageHash",
          "type": "bytes32"
        },
        {
          "indexed": false,
          "internalType": "bytes",
          "name": "destination",
          "type": "bytes"
        },
        {
          "indexed": false,
          "internalType": "bytes",
          "name": "message",
          "type": "bytes"
        }
      ],
      "name": "XCMMessageSent",
      "type": "event"
    },
    {
      "anonymous": false,
      "inputs": [
        {
          "indexed": true,
          "internalType": "address",
          "name": "precompile",
          "type": "address"
        }
      ],
      "name": "XcmPrecompileSet",
      "type": "event"
    },
    {
      "anonymous": false,
      "inputs": [
        {
          "indexed": true,
          "internalType": "bytes32",
          "name": "messageHash",
          "type": "bytes32"
        },
        {
          "indexed": false,
          "internalType": "bytes",
          "name": "destination",
          "type": "bytes"
        },
        {
          "indexed": false,
          "internalType": "bool",
          "name": "success",
          "type": "bool"
        },
        {
          "indexed": false,
          "internalType": "bytes",
          "name": "errorData",
          "type": "bytes"
        }
      ],
      "name": "XcmSendAttempt",
      "type": "event"
    },
    {
      "inputs": [],
      "name": "XCM_PRECOMPILE",
      "outputs": [
        {
          "internalType": "address",
          "name": "",
          "type": "address"
        }
      ],
      "stateMutability": "view",
      "type": "function"
    },
    {
      "inputs": [],
      "name": "admin",
      "outputs": [
        {
          "internalType": "address",
          "name": "",
          "type": "address"
        }
      ],
      "stateMutability": "view",
      "type": "function"
    },
    {
      "inputs": [],
      "name": "deposit",
      "outputs": [],
      "stateMutability": "payable",
      "type": "function"
    },
    {
      "inputs": [
        {
          "internalType": "address",
          "name": "user",
          "type": "address"
        },
        {
          "internalType": "uint32",
          "name": "chainId",
          "type": "uint32"
        },
        {
          "internalType": "address",
          "name": "poolId",
          "type": "address"
        },
        {
          "internalType": "address",
          "name": "baseAsset",
          "type": "address"
        },
        {
          "internalType": "uint256",
          "name": "amount",
          "type": "uint256"
        },
        {
          "internalType": "int24",
          "name": "lowerRangePercent",
          "type": "int24"
        },
        {
          "internalType": "int24",
          "name": "upperRangePercent",
          "type": "int24"
        },
        {
          "internalType": "bytes",
          "name": "destination",
          "type": "bytes"
        },
        {
          "internalType": "bytes",
          "name": "preBuiltXcmMessage",
          "type": "bytes"
        }
      ],
      "name": "dispatchInvestment",
      "outputs": [],
      "stateMutability": "nonpayable",
      "type": "function"
    },
    {
      "inputs": [],
      "name": "emergency",
      "outputs": [
        {
          "internalType": "address",
          "name": "",
          "type": "address"
        }
      ],
      "stateMutability": "view",
      "type": "function"
    },
    {
      "inputs": [
        {
          "internalType": "uint32",
          "name": "chainId",
          "type": "uint32"
        },
        {
          "internalType": "bytes32",
          "name": "positionId",
          "type": "bytes32"
        }
      ],
      "name": "emergencyLiquidatePosition",
      "outputs": [],
      "stateMutability": "nonpayable",
      "type": "function"
    },
    {
      "inputs": [],
      "name": "freezeXcmPrecompile",
      "outputs": [],
      "stateMutability": "nonpayable",
      "type": "function"
    },
    {
      "inputs": [
        {
          "internalType": "bytes32",
          "name": "positionId",
          "type": "bytes32"
        }
      ],
      "name": "getPosition",
      "outputs": [
        {
          "components": [
            {
              "internalType": "address",
              "name": "user",
              "type": "address"
            },
            {
              "internalType": "address",
              "name": "poolId",
              "type": "address"
            },
            {
              "internalType": "address",
              "name": "baseAsset",
              "type": "address"
            },
            {
              "internalType": "uint32",
              "name": "chainId",
              "type": "uint32"
            },
            {
              "internalType": "int24",
              "name": "lowerRangePercent",
              "type": "int24"
            },
            {
              "internalType": "int24",
              "name": "upperRangePercent",
              "type": "int24"
            },
            {
              "internalType": "uint64",
              "name": "timestamp",
              "type": "uint64"
            },
            {
              "internalType": "bool",
              "name": "active",
              "type": "bool"
            },
            {
              "internalType": "uint256",
              "name": "amount",
              "type": "uint256"
            }
          ],
          "internalType": "struct AssetHubVault.Position",
          "name": "",
          "type": "tuple"
        }
      ],
      "stateMutability": "view",
      "type": "function"
    },
    {
      "inputs": [
        {
          "internalType": "address",
          "name": "user",
          "type": "address"
        }
      ],
      "name": "getUserBalance",
      "outputs": [
        {
          "internalType": "uint256",
          "name": "",
          "type": "uint256"
        }
      ],
      "stateMutability": "view",
      "type": "function"
    },
    {
      "inputs": [
        {
          "internalType": "address",
          "name": "user",
          "type": "address"
        }
      ],
      "name": "getUserPositions",
      "outputs": [
        {
          "components": [
            {
              "internalType": "address",
              "name": "user",
              "type": "address"
            },
            {
              "internalType": "address",
              "name": "poolId",
              "type": "address"
            },
            {
              "internalType": "address",
              "name": "baseAsset",
              "type": "address"
            },
            {
              "internalType": "uint32",
              "name": "chainId",
              "type": "uint32"
            },
            {
              "internalType": "int24",
              "name": "lowerRangePercent",
              "type": "int24"
            },
            {
              "internalType": "int24",
              "name": "upperRangePercent",
              "type": "int24"
            },
            {
              "internalType": "uint64",
              "name": "timestamp",
              "type": "uint64"
            },
            {
              "internalType": "bool",
              "name": "active",
              "type": "bool"
            },
            {
              "internalType": "uint256",
              "name": "amount",
              "type": "uint256"
            }
          ],
          "internalType": "struct AssetHubVault.Position[]",
          "name": "",
          "type": "tuple[]"
        }
      ],
      "stateMutability": "view",
      "type": "function"
    },
    {
      "inputs": [
        {
          "internalType": "address",
          "name": "user",
          "type": "address"
        },
        {
          "internalType": "bytes32",
          "name": "positionId",
          "type": "bytes32"
        }
      ],
      "name": "isPositionActive",
      "outputs": [
        {
          "internalType": "bool",
          "name": "",
          "type": "bool"
        }
      ],
      "stateMutability": "view",
      "type": "function"
    },
    {
      "inputs": [],
      "name": "operator",
      "outputs": [
        {
          "internalType": "address",
          "name": "",
          "type": "address"
        }
      ],
      "stateMutability": "view",
      "type": "function"
    },
    {
      "inputs": [],
      "name": "pause",
      "outputs": [],
      "stateMutability": "nonpayable",
      "type": "function"
    },
    {
      "inputs": [],
      "name": "paused",
      "outputs": [
        {
          "internalType": "bool",
          "name": "",
          "type": "bool"
        }
      ],
      "stateMutability": "view",
      "type": "function"
    },
    {
      "inputs": [
        {
          "internalType": "bytes32",
          "name": "",
          "type": "bytes32"
        }
      ],
      "name": "positions",
      "outputs": [
        {
          "internalType": "address",
          "name": "user",
          "type": "address"
        },
        {
          "internalType": "address",
          "name": "poolId",
          "type": "address"
        },
        {
          "internalType": "address",
          "name": "baseAsset",
          "type": "address"
        },
        {
          "internalType": "uint32",
          "name": "chainId",
          "type": "uint32"
        },
        {
          "internalType": "int24",
          "name": "lowerRangePercent",
          "type": "int24"
        },
        {
          "internalType": "int24",
          "name": "upperRangePercent",
          "type": "int24"
        },
        {
          "internalType": "uint64",
          "name": "timestamp",
          "type": "uint64"
        },
        {
          "internalType": "bool",
          "name": "active",
          "type": "bool"
        },
        {
          "internalType": "uint256",
          "name": "amount",
          "type": "uint256"
        }
      ],
      "stateMutability": "view",
      "type": "function"
    },
    {
      "inputs": [
        {
          "internalType": "address",
          "name": "account",
          "type": "address"
        }
      ],
      "name": "setEmergency",
      "outputs": [],
      "stateMutability": "nonpayable",
      "type": "function"
    },
    {
      "inputs": [
        {
          "internalType": "address",
          "name": "account",
          "type": "address"
        }
      ],
      "name": "setOperator",
      "outputs": [],
      "stateMutability": "nonpayable",
      "type": "function"
    },
    {
      "inputs": [
        {
          "internalType": "bool",
          "name": "_testMode",
          "type": "bool"
        }
      ],
      "name": "setTestMode",
      "outputs": [],
      "stateMutability": "nonpayable",
      "type": "function"
    },
    {
      "inputs": [
        {
          "internalType": "address",
          "name": "precompile",
          "type": "address"
        }
      ],
      "name": "setXcmPrecompile",
      "outputs": [],
      "stateMutability": "nonpayable",
      "type": "function"
    },
    {
      "inputs": [
        {
          "internalType": "bytes32",
          "name": "positionId",
          "type": "bytes32"
        }
      ],
      "name": "settleLiquidation",
      "outputs": [],
      "stateMutability": "payable",
      "type": "function"
    },
    {
      "inputs": [],
      "name": "testMode",
      "outputs": [
        {
          "internalType": "bool",
          "name": "",
          "type": "bool"
        }
      ],
      "stateMutability": "view",
      "type": "function"
    },
    {
      "inputs": [
        {
          "internalType": "address",
          "name": "newAdmin",
          "type": "address"
        }
      ],
      "name": "transferAdmin",
      "outputs": [],
      "stateMutability": "nonpayable",
      "type": "function"
    },
    {
      "inputs": [],
      "name": "unpause",
      "outputs": [],
      "stateMutability": "nonpayable",
      "type": "function"
    },
    {
      "inputs": [
        {
          "internalType": "address",
          "name": "",
          "type": "address"
        }
      ],
      "name": "userBalances",
      "outputs": [
        {
          "internalType": "uint256",
          "name": "",
          "type": "uint256"
        }
      ],
      "stateMutability": "view",
      "type": "function"
    },
    {
      "inputs": [
        {
          "internalType": "address",
          "name": "",
          "type": "address"
        },
        {
          "internalType": "uint256",
          "name": "",
          "type": "uint256"
        }
      ],
      "name": "userPositions",
      "outputs": [
        {
          "internalType": "bytes32",
          "name": "",
          "type": "bytes32"
        }
      ],
      "stateMutability": "view",
      "type": "function"
    },
    {
      "inputs": [
        {
          "internalType": "uint256",
          "name": "amount",
          "type": "uint256"
        }
      ],
      "name": "withdraw",
      "outputs": [],
      "stateMutability": "nonpayable",
      "type": "function"
    },
    {
      "inputs": [],
      "name": "xcmPrecompileFrozen",
      "outputs": [
        {
          "internalType": "bool",
          "name": "",
          "type": "bool"
        }
      ],
      "stateMutability": "view",
      "type": "function"
    }
  ],
  "bytecode": "0x608080604052346063576001600081905580546001600160a01b031990811633908117909255600280549091168217905560038054600780546001600160a81b03199081169091551660ff60a01b1990921691909117905561157f90816100698239f35b600080fdfe608080604052600436101561001357600080fd5b600090813560e01c908163077120cc1461127f575080631928b3cb146111b55780631ff1292f1461116457806326224c6414610e1f5780632a6bc2dd14610fca5780632e1a7d4d14610eec5780632fefe44014610e8b5780633f4ba83a14610e585780634773489214610e1f578063514ea4bf14610d70578063570ca73514610d475780635c975abb14610d215780635dad35ca14610c675780635e1b4d9914610c1057806375829def14610ba35780638456cb5914610b6a5780639a270acd14610ae15780639b2c59e614610abb578063b3ab15fb14610a6a578063c4aa43d91461094a578063caa6fea414610921578063caffc49c14610841578063cd9ea3421461081b578063d0e30db0146107a6578063dd67d25a146101e4578063eb02a115146101755763f851a4401461014a57600080fd5b346101725780600319360112610172576001546040516001600160a01b039091168152602090f35b80fd5b50346101725760203660031901126101725761018f611329565b6001546001600160a01b031633036101d5576001600160a01b031680156101c6576001600160601b0360a01b600354161760035580f35b63d92e233d60e01b8252600482fd5b637bfa4b9f60e01b8252600482fd5b503461017257610120366003190112610172576101ff611329565b60243563ffffffff8116908181036107a2576044356001600160a01b038116929083810361079e57606435916001600160a01b038316908184036107085760843560a435968760020b80980361079a5760c4358060020b8091036107965760e4356001600160401b0381116107925761027c903690600401611372565b99909a610104356001600160401b03811161078e5761029f903690600401611372565b600254909b919a906001600160a01b0316330361077f5760ff60035460a01c16610770576001600160a01b038316998a156107605787156107505785851215610740576007546001600160a01b031615610730578f6040818d8b9352600460205220541061072057604051606094851b6bffffffffffffffffffffffff199081166020830190815260e09590951b6001600160e01b031916603483015291851b8216603882015291841b16604c820152428382015291825260049286928f929061036a6080826113d1565b5190209889916040519661037d8861139f565b8c8852602088018981526040890193845260608901908c825260808a0193845260a08a01928352604060c08b01976001600160401b034216895260e08c0197600189526101008d019a8b5281526005602052209960018060a01b039060018060a01b03905116166001600160601b0360a01b8b5416178a5560018060a01b0390511660018a019060018060a01b03166001600160601b0360a01b825416179055600289019360018060a01b039060018060a01b03905116166001600160601b0360a01b85541617845551918354905160c01b62ffffff60c01b16915160d81b62ffffff60d81b169263ffffffff60a01b9060a01b169069ffffffffffffffffffff60a01b191617171790556001600160401b03600386019251166001600160401b031983541617825551151560ff60401b82549160401b169060ff60401b191617905551910155848a52600660205260408a208054906801000000000000000082101561070c579161051a827f9a5b32500137d63609212582c47c2e2486052dab88567f1fbd0637be4f2652a09694600160609795018155611344565b81549060031b9088821b91600019901b1916179055868c52600460205260408c20610546838254611461565b905560405192835260208301526040820152a36007549060ff8260a81c161561056d578580f35b61057683611484565b61058360405191826113d1565b8381526020810190368584011161070857848383378085016020018890525190209486926060906001600160a01b031684813b1561017257604051637f0a3bf960e01b81529182908183816105de8c8b8f8c600486016114fd565b03925af190816106f2575b508791906106c257507f2ba5ade46917c616c9af26a3ce5e85c0dc38796c39d42e9a9b2d930e02c4924861064993949561062161149f565b955b6106346040519283928b88856114fd565b0390a2604051946060865260608601916114dc565b91151560208401528282036040840152805190818352855b8281106106ad57505082828287602080957f2d28a5a2ca6843ac7811dcf16bc72dcea83863fbb74f472becc28dc57a76827a9897010152601f801991011601030190a238808080808580f35b80602080928401015182828701015201610661565b93507f2ba5ade46917c616c9af26a3ce5e85c0dc38796c39d42e9a9b2d930e02c492486106499395600196610623565b98610700818a94939b6113d1565b9890916105e9565b8780fd5b634e487b7160e01b8c52604160045260248cfd5b50631e9acf1760e31b8f5260048ffd5b506395b60d6160e01b8f5260048ffd5b5063561ce9bb60e01b8f5260048ffd5b506365e52d5160e11b8f5260048ffd5b5063d92e233d60e01b8f5260048ffd5b6313d0ff5960e31b8f5260048ffd5b631f0853c160e21b8f5260048ffd5b8d80fd5b8b80fd5b8a80fd5b8980fd5b8580fd5b8380fd5b5080600319360112610172576107ba611527565b341561080c573381526004602052604081206107d73482546114cf565b90556040513481527fe1fffcc4923d04b559f4d29a8bfc6cda04eb5b0d3c460751c2402c5c5cc9109c60203392a26001815580f35b6365e52d5160e11b8152600490fd5b5034610172578060031936011261017257602060ff60075460a81c166040519015158152f35b50346101725760403660031901126101725760043563ffffffff811680910361091d5760035460243591906001600160a01b0316330361090e5781835260056020526040832090600382019081549060ff8260401c16156108ff5763ffffffff600285015460a01c16036108f05760ff60401b1916905560018060a01b03905416907f385faac62e36e04554cd60315fc6716eaf7fc15bba95b3790f4b351dfa10bad86020604051858152a380f35b63a179f8c960e01b8552600485fd5b63a8a168bf60e01b8652600486fd5b6303ca9f4d60e11b8352600483fd5b5080fd5b50346101725780600319360112610172576003546040516001600160a01b039091168152602090f35b50602036600319011261017257600254600435906001600160a01b03163303610a5b57610975611527565b3415610a4c578082526005602052604082209060038201805460ff8160401c1615610a3d5768ff00000000000000001916905581546001600160a01b0316835260046020526040832080546109cb9034906114cf565b90557fa8bc750a5af603b81d1d73928261812951e56844201c36805845c3ea53e0657c6040600460018060a01b038554169485857f385faac62e36e04554cd60315fc6716eaf7fc15bba95b3790f4b351dfa10bad860208651348152a301548151903482526020820152a36001815580f35b63a8a168bf60e01b8552600485fd5b6365e52d5160e11b8252600482fd5b631f0853c160e21b8252600482fd5b503461017257602036600319011261017257610a84611329565b6001546001600160a01b031633036101d5576001600160a01b031680156101c6576001600160601b0360a01b600254161760025580f35b5034610172578060031936011261017257602060ff60075460a01c166040519015158152f35b50346101725780600319360112610172576001546001600160a01b03163303610b5b5760075460ff8160a01c16610b255760ff60a01b1916600160a01b1760075580f35b60405162461bcd60e51b815260206004820152600e60248201526d30b63932b0b23c90333937bd32b760911b6044820152606490fd5b637bfa4b9f60e01b8152600490fd5b50346101725780600319360112610172576001546001600160a01b03163303610b5b576003805460ff60a01b1916600160a01b17905580f35b503461017257602036600319011261017257610bbd611329565b600154906001600160a01b0382163303610c01576001600160a01b0316908115610bf2576001600160a01b0319161760015580f35b63d92e233d60e01b8352600483fd5b637bfa4b9f60e01b8352600483fd5b503461017257604036600319011261017257610c2a611329565b6001600160a01b0316815260066020526040812080546024359290831015610172576020610c588484611344565b90549060031b1c604051908152f35b503461017257602036600319011261017257610c81611329565b6001546001600160a01b031633036101d5576007549060ff8260a01c16610ce4576001600160a01b03166001600160a01b03199190911681176007557f92107fcd833d21c9342d998ceb020ac5d7aaa95136a24b3f7e7a17522b26d0e48280a280f35b60405162461bcd60e51b81526020600482015260156024820152743c31b690383932b1b7b6b834b63290333937bd32b760591b6044820152606490fd5b5034610172578060031936011261017257602060ff60035460a01c166040519015158152f35b50346101725780600319360112610172576002546040516001600160a01b039091168152602090f35b503461017257602036600319011261017257604061012091600435815260056020522060018060a01b038154169060ff60018060a01b036001830154169160028101546004600383015492015493604051958652602086015260018060a01b038116604086015263ffffffff8160a01c1660608601528060c01c60020b608086015260d81c60020b60a08501526001600160401b03811660c085015260401c16151560e0830152610100820152f35b5034610172576020366003190112610172576020906040906001600160a01b03610e47611329565b168152600483522054604051908152f35b50346101725780600319360112610172576001546001600160a01b03163303610b5b576003805460ff60a01b1916905580f35b5034610172576040366003190112610172576020906040610eaa611329565b602435835260058452912080546001600160a01b039283169216919091149081610eda575b506040519015158152f35b60ff91506003015460401c1638610ecf565b503461017257602036600319011261017257600435610f09611527565b8015610a4c57338252600460205280604083205410610fbb57338252600460205260408220610f39828254611461565b90558180808084335af1610f4b61149f565b5015610f84576040519081527f7fcf532c15f0a6db0bd6d0e038bea71d30d808c7d98cb3bf7268a95bf5081b6560203392a26001815580f35b60405162461bcd60e51b815260206004820152600f60248201526e1514905394d1915497d19052531151608a1b6044820152606490fd5b631e9acf1760e31b8252600482fd5b5034610172576020366003190112610172576001600160a01b03610fec611329565b168152600660205260408120805461100381611436565b9161101160405193846113d1565b818352601f1961102083611436565b01845b81811061114d575050835b828110611087578385604051918291602083016020845282518091526020604085019301915b818110611062575050500390f35b9193509160206101208261107960019488516112a4565b019401910191849392611054565b8061109460019284611344565b90549060031b1c86526005602052604086206004604051916110b58361139f565b848060a01b038154168352848060a01b03858201541660208401526002810154858060a01b038116604085015263ffffffff8160a01c1660608501528060c01c60020b608085015260d81c60020b60a084015260ff60038201546001600160401b03811660c086015260401c16151560e0840152015461010082015261113b828761144d565b52611146818661144d565b500161102e565b6020906111586113f2565b82828801015201611023565b50346101725760203660031901126101725760043580151580910361091d576001546001600160a01b031633036101d5576007805460ff60a81b191660a89290921b60ff60a81b1691909117905580f35b5034610172576020366003190112610172576040610120916111d56113f2565b5060043581526005602052206004604051916111f08361139f565b60018060a01b03815416835260018060a01b036001820154166020840152600281015460018060a01b038116604085015263ffffffff8160a01c1660608501528060c01c60020b608085015260d81c60020b60a084015260ff60038201546001600160401b03811660c086015260401c16151560e0840152015461010082015261127d60405180926112a4565bf35b90503461091d578160031936011261091d576007546001600160a01b03168152602090f35b610100809160018060a01b03815116845260018060a01b03602082015116602085015260018060a01b03604082015116604085015263ffffffff6060820151166060850152608081015160020b608085015260a081015160020b60a08501526001600160401b0360c08201511660c085015260e0810151151560e08501520151910152565b600435906001600160a01b038216820361133f57565b600080fd5b805482101561135c5760005260206000200190600090565b634e487b7160e01b600052603260045260246000fd5b9181601f8401121561133f578235916001600160401b03831161133f576020838186019501011161133f57565b61012081019081106001600160401b038211176113bb57604052565b634e487b7160e01b600052604160045260246000fd5b90601f801991011681019081106001600160401b038211176113bb57604052565b604051906113ff8261139f565b6000610100838281528260208201528260408201528260608201528260808201528260a08201528260c08201528260e08201520152565b6001600160401b0381116113bb5760051b60200190565b805182101561135c5760209160051b010190565b9190820391821161146e57565b634e487b7160e01b600052601160045260246000fd5b6001600160401b0381116113bb57601f01601f191660200190565b3d156114ca573d906114b082611484565b916114be60405193846113d1565b82523d6000602084013e565b606090565b9190820180921161146e57565b908060209392818452848401376000828201840152601f01601f1916010190565b92906115169061152495936040865260408601916114dc565b9260208185039101526114dc565b90565b600260005414611538576002600055565b633ee5aeb560e01b60005260046000fdfea2646970667358221220a1647f05ebcdeaa76b6918b1e85ce73cf3f6c81d0a7f31c87af35dfe8d1696b764736f6c634300081c0033",
  "linkReferences": {},
  "deployedLinkReferences": {}
}