{
  "_format": "hh-sol-artifact-1",
  "contractName": "AssetHubVault",
  "sourceName": "contracts/V1(Current)/AssetHubVault.sol",
  "abi": [
    {
      "inputs": [],
      "stateMutability": "nonpayable",
      "type": "constructor"
    },
    {
      "inputs": [],
      "name": "AmountMismatch",
      "type": "error"
    },
    {
      "inputs": [],
      "name": "AmountZero",
      "type": "error"
    },
    {
      "inputs": [],
      "name": "AssetMismatch",
      "type": "error"
    },
    {
      "inputs": [],
      "name": "ChainIdMismatch",
      "type": "error"
    },
    {
      "inputs": [],
      "name": "ChainNotSupported",
      "type": "error"
    },
    {
      "inputs": [],
      "name": "ExecutorNotAuthorized",
      "type": "error"
    },
    {
      "inputs": [],
      "name": "InsufficientBalance",
      "type": "error"
    },
    {
      "inputs": [],
      "name": "InvalidRange",
      "type": "error"
    },
    {
      "inputs": [],
      "name": "NotAdmin",
      "type": "error"
    },
    {
      "inputs": [],
      "name": "NotEmergency",
      "type": "error"
    },
    {
      "inputs": [],
      "name": "NotOperator",
      "type": "error"
    },
    {
      "inputs": [],
      "name": "Paused",
      "type": "error"
    },
    {
      "inputs": [],
      "name": "PositionNotActive",
      "type": "error"
    },
    {
      "inputs": [],
      "name": "ReentrancyGuardReentrantCall",
      "type": "error"
    },
    {
      "inputs": [],
      "name": "UnauthorizedXcmCall",
      "type": "error"
    },
    {
      "inputs": [],
      "name": "XcmPrecompileNotSet",
      "type": "error"
    },
    {
      "inputs": [],
      "name": "ZeroAddress",
      "type": "error"
    },
    {
      "anonymous": false,
      "inputs": [
        {
          "indexed": true,
          "internalType": "uint32",
          "name": "chainId",
          "type": "uint32"
        },
        {
          "indexed": false,
          "internalType": "bytes",
          "name": "xcmDestination",
          "type": "bytes"
        },
        {
          "indexed": false,
          "internalType": "address",
          "name": "executor",
          "type": "address"
        }
      ],
      "name": "ChainAdded",
      "type": "event"
    },
    {
      "anonymous": false,
      "inputs": [
        {
          "indexed": true,
          "internalType": "uint32",
          "name": "chainId",
          "type": "uint32"
        }
      ],
      "name": "ChainRemoved",
      "type": "event"
    },
    {
      "anonymous": false,
      "inputs": [
        {
          "indexed": true,
          "internalType": "address",
          "name": "user",
          "type": "address"
        },
        {
          "indexed": false,
          "internalType": "uint256",
          "name": "amount",
          "type": "uint256"
        }
      ],
      "name": "Deposit",
      "type": "event"
    },
    {
      "anonymous": false,
      "inputs": [
        {
          "indexed": true,
          "internalType": "uint32",
          "name": "chainId",
          "type": "uint32"
        },
        {
          "indexed": false,
          "internalType": "address",
          "name": "executor",
          "type": "address"
        }
      ],
      "name": "ExecutorUpdated",
      "type": "event"
    },
    {
      "anonymous": false,
      "inputs": [
        {
          "indexed": true,
          "internalType": "bytes32",
          "name": "positionId",
          "type": "bytes32"
        },
        {
          "indexed": true,
          "internalType": "address",
          "name": "user",
          "type": "address"
        },
        {
          "indexed": false,
          "internalType": "uint32",
          "name": "chainId",
          "type": "uint32"
        },
        {
          "indexed": false,
          "internalType": "address",
          "name": "poolId",
          "type": "address"
        },
        {
          "indexed": false,
          "internalType": "uint256",
          "name": "amount",
          "type": "uint256"
        }
      ],
      "name": "InvestmentInitiated",
      "type": "event"
    },
    {
      "anonymous": false,
      "inputs": [
        {
          "indexed": true,
          "internalType": "bytes32",
          "name": "positionId",
          "type": "bytes32"
        },
        {
          "indexed": true,
          "internalType": "address",
          "name": "user",
          "type": "address"
        },
        {
          "indexed": false,
          "internalType": "uint256",
          "name": "receivedAmount",
          "type": "uint256"
        },
        {
          "indexed": false,
          "internalType": "uint256",
          "name": "expectedAmount",
          "type": "uint256"
        }
      ],
      "name": "LiquidationSettled",
      "type": "event"
    },
    {
      "anonymous": false,
      "inputs": [
        {
          "indexed": true,
          "internalType": "bytes32",
          "name": "positionId",
          "type": "bytes32"
        },
        {
          "indexed": true,
          "internalType": "uint32",
          "name": "chainId",
          "type": "uint32"
        },
        {
          "indexed": false,
          "internalType": "bytes32",
          "name": "remotePositionId",
          "type": "bytes32"
        },
        {
          "indexed": false,
          "internalType": "uint128",
          "name": "liquidity",
          "type": "uint128"
        }
      ],
      "name": "PositionExecutionConfirmed",
      "type": "event"
    },
    {
      "anonymous": false,
      "inputs": [
        {
          "indexed": true,
          "internalType": "bytes32",
          "name": "positionId",
          "type": "bytes32"
        },
        {
          "indexed": true,
          "internalType": "address",
          "name": "user",
          "type": "address"
        },
        {
          "indexed": false,
          "internalType": "uint256",
          "name": "finalAmount",
          "type": "uint256"
        }
      ],
      "name": "PositionLiquidated",
      "type": "event"
    },
    {
      "anonymous": false,
      "inputs": [
        {
          "indexed": true,
          "internalType": "address",
          "name": "user",
          "type": "address"
        },
        {
          "indexed": false,
          "internalType": "uint256",
          "name": "amount",
          "type": "uint256"
        }
      ],
      "name": "Withdrawal",
      "type": "event"
    },
    {
      "anonymous": false,
      "inputs": [
        {
          "indexed": true,
          "internalType": "bytes32",
          "name": "messageHash",
          "type": "bytes32"
        },
        {
          "indexed": false,
          "internalType": "bytes",
          "name": "destination",
          "type": "bytes"
        },
        {
          "indexed": false,
          "internalType": "bytes",
          "name": "message",
          "type": "bytes"
        }
      ],
      "name": "XCMMessageSent",
      "type": "event"
    },
    {
      "anonymous": false,
      "inputs": [
        {
          "indexed": true,
          "internalType": "address",
          "name": "precompile",
          "type": "address"
        }
      ],
      "name": "XcmPrecompileSet",
      "type": "event"
    },
    {
      "anonymous": false,
      "inputs": [
        {
          "indexed": true,
          "internalType": "bytes32",
          "name": "messageHash",
          "type": "bytes32"
        },
        {
          "indexed": false,
          "internalType": "bytes",
          "name": "destination",
          "type": "bytes"
        },
        {
          "indexed": false,
          "internalType": "bool",
          "name": "success",
          "type": "bool"
        },
        {
          "indexed": false,
          "internalType": "bytes",
          "name": "errorData",
          "type": "bytes"
        }
      ],
      "name": "XcmSendAttempt",
      "type": "event"
    },
    {
      "inputs": [],
      "name": "XCM_PRECOMPILE",
      "outputs": [
        {
          "internalType": "address",
          "name": "",
          "type": "address"
        }
      ],
      "stateMutability": "view",
      "type": "function"
    },
    {
      "inputs": [
        {
          "internalType": "uint32",
          "name": "chainId",
          "type": "uint32"
        },
        {
          "internalType": "bytes",
          "name": "xcmDestination",
          "type": "bytes"
        },
        {
          "internalType": "string",
          "name": "chainName",
          "type": "string"
        },
        {
          "internalType": "address",
          "name": "executor",
          "type": "address"
        }
      ],
      "name": "addChain",
      "outputs": [],
      "stateMutability": "nonpayable",
      "type": "function"
    },
    {
      "inputs": [],
      "name": "admin",
      "outputs": [
        {
          "internalType": "address",
          "name": "",
          "type": "address"
        }
      ],
      "stateMutability": "view",
      "type": "function"
    },
    {
      "inputs": [
        {
          "internalType": "uint32",
          "name": "",
          "type": "uint32"
        }
      ],
      "name": "chainExecutors",
      "outputs": [
        {
          "internalType": "address",
          "name": "",
          "type": "address"
        }
      ],
      "stateMutability": "view",
      "type": "function"
    },
    {
      "inputs": [
        {
          "internalType": "bytes32",
          "name": "positionId",
          "type": "bytes32"
        },
        {
          "internalType": "bytes32",
          "name": "remotePositionId",
          "type": "bytes32"
        },
        {
          "internalType": "uint128",
          "name": "liquidity",
          "type": "uint128"
        }
      ],
      "name": "confirmExecution",
      "outputs": [],
      "stateMutability": "nonpayable",
      "type": "function"
    },
    {
      "inputs": [],
      "name": "deposit",
      "outputs": [],
      "stateMutability": "payable",
      "type": "function"
    },
    {
      "inputs": [
        {
          "internalType": "address",
          "name": "user",
          "type": "address"
        },
        {
          "internalType": "uint32",
          "name": "chainId",
          "type": "uint32"
        },
        {
          "internalType": "address",
          "name": "poolId",
          "type": "address"
        },
        {
          "internalType": "address",
          "name": "baseAsset",
          "type": "address"
        },
        {
          "internalType": "uint256",
          "name": "amount",
          "type": "uint256"
        },
        {
          "internalType": "int24",
          "name": "lowerRangePercent",
          "type": "int24"
        },
        {
          "internalType": "int24",
          "name": "upperRangePercent",
          "type": "int24"
        },
        {
          "internalType": "bytes",
          "name": "destination",
          "type": "bytes"
        },
        {
          "internalType": "bytes",
          "name": "preBuiltXcmMessage",
          "type": "bytes"
        }
      ],
      "name": "dispatchInvestment",
      "outputs": [],
      "stateMutability": "nonpayable",
      "type": "function"
    },
    {
      "inputs": [],
      "name": "emergency",
      "outputs": [
        {
          "internalType": "address",
          "name": "",
          "type": "address"
        }
      ],
      "stateMutability": "view",
      "type": "function"
    },
    {
      "inputs": [
        {
          "internalType": "uint32",
          "name": "chainId",
          "type": "uint32"
        },
        {
          "internalType": "bytes32",
          "name": "positionId",
          "type": "bytes32"
        }
      ],
      "name": "emergencyLiquidatePosition",
      "outputs": [],
      "stateMutability": "payable",
      "type": "function"
    },
    {
      "inputs": [],
      "name": "freezeXcmPrecompile",
      "outputs": [],
      "stateMutability": "nonpayable",
      "type": "function"
    },
    {
      "inputs": [
        {
          "internalType": "uint32",
          "name": "chainId",
          "type": "uint32"
        }
      ],
      "name": "getChainConfig",
      "outputs": [
        {
          "components": [
            {
              "internalType": "bool",
              "name": "supported",
              "type": "bool"
            },
            {
              "internalType": "bytes",
              "name": "xcmDestination",
              "type": "bytes"
            },
            {
              "internalType": "string",
              "name": "chainName",
              "type": "string"
            },
            {
              "internalType": "uint64",
              "name": "timestamp",
              "type": "uint64"
            }
          ],
          "internalType": "struct AssetHubVault.ChainConfig",
          "name": "",
          "type": "tuple"
        }
      ],
      "stateMutability": "view",
      "type": "function"
    },
    {
      "inputs": [
        {
          "internalType": "bytes32",
          "name": "positionId",
          "type": "bytes32"
        }
      ],
      "name": "getPosition",
      "outputs": [
        {
          "components": [
            {
              "internalType": "address",
              "name": "user",
              "type": "address"
            },
            {
              "internalType": "address",
              "name": "poolId",
              "type": "address"
            },
            {
              "internalType": "address",
              "name": "baseAsset",
              "type": "address"
            },
            {
              "internalType": "uint32",
              "name": "chainId",
              "type": "uint32"
            },
            {
              "internalType": "int24",
              "name": "lowerRangePercent",
              "type": "int24"
            },
            {
              "internalType": "int24",
              "name": "upperRangePercent",
              "type": "int24"
            },
            {
              "internalType": "uint64",
              "name": "timestamp",
              "type": "uint64"
            },
            {
              "internalType": "enum AssetHubVault.PositionStatus",
              "name": "status",
              "type": "uint8"
            },
            {
              "internalType": "uint256",
              "name": "amount",
              "type": "uint256"
            },
            {
              "internalType": "bytes32",
              "name": "remotePositionId",
              "type": "bytes32"
            }
          ],
          "internalType": "struct AssetHubVault.Position",
          "name": "",
          "type": "tuple"
        }
      ],
      "stateMutability": "view",
      "type": "function"
    },
    {
      "inputs": [
        {
          "internalType": "address",
          "name": "user",
          "type": "address"
        }
      ],
      "name": "getUserBalance",
      "outputs": [
        {
          "internalType": "uint256",
          "name": "",
          "type": "uint256"
        }
      ],
      "stateMutability": "view",
      "type": "function"
    },
    {
      "inputs": [
        {
          "internalType": "address",
          "name": "user",
          "type": "address"
        }
      ],
      "name": "getUserPositionCount",
      "outputs": [
        {
          "internalType": "uint256",
          "name": "count",
          "type": "uint256"
        }
      ],
      "stateMutability": "view",
      "type": "function"
    },
    {
      "inputs": [
        {
          "internalType": "address",
          "name": "user",
          "type": "address"
        },
        {
          "internalType": "uint256",
          "name": "start",
          "type": "uint256"
        },
        {
          "internalType": "uint256",
          "name": "count",
          "type": "uint256"
        }
      ],
      "name": "getUserPositionIds",
      "outputs": [
        {
          "internalType": "bytes32[]",
          "name": "positionIds",
          "type": "bytes32[]"
        }
      ],
      "stateMutability": "view",
      "type": "function"
    },
    {
      "inputs": [
        {
          "internalType": "address",
          "name": "user",
          "type": "address"
        }
      ],
      "name": "getUserPositionStats",
      "outputs": [
        {
          "internalType": "uint256",
          "name": "total",
          "type": "uint256"
        },
        {
          "internalType": "uint256",
          "name": "pending",
          "type": "uint256"
        },
        {
          "internalType": "uint256",
          "name": "active",
          "type": "uint256"
        },
        {
          "internalType": "uint256",
          "name": "liquidated",
          "type": "uint256"
        }
      ],
      "stateMutability": "view",
      "type": "function"
    },
    {
      "inputs": [
        {
          "internalType": "address",
          "name": "user",
          "type": "address"
        }
      ],
      "name": "getUserPositions",
      "outputs": [
        {
          "components": [
            {
              "internalType": "address",
              "name": "user",
              "type": "address"
            },
            {
              "internalType": "address",
              "name": "poolId",
              "type": "address"
            },
            {
              "internalType": "address",
              "name": "baseAsset",
              "type": "address"
            },
            {
              "internalType": "uint32",
              "name": "chainId",
              "type": "uint32"
            },
            {
              "internalType": "int24",
              "name": "lowerRangePercent",
              "type": "int24"
            },
            {
              "internalType": "int24",
              "name": "upperRangePercent",
              "type": "int24"
            },
            {
              "internalType": "uint64",
              "name": "timestamp",
              "type": "uint64"
            },
            {
              "internalType": "enum AssetHubVault.PositionStatus",
              "name": "status",
              "type": "uint8"
            },
            {
              "internalType": "uint256",
              "name": "amount",
              "type": "uint256"
            },
            {
              "internalType": "bytes32",
              "name": "remotePositionId",
              "type": "bytes32"
            }
          ],
          "internalType": "struct AssetHubVault.Position[]",
          "name": "list",
          "type": "tuple[]"
        }
      ],
      "stateMutability": "view",
      "type": "function"
    },
    {
      "inputs": [
        {
          "internalType": "address",
          "name": "user",
          "type": "address"
        },
        {
          "internalType": "enum AssetHubVault.PositionStatus",
          "name": "status",
          "type": "uint8"
        },
        {
          "internalType": "uint256",
          "name": "maxResults",
          "type": "uint256"
        }
      ],
      "name": "getUserPositionsByStatus",
      "outputs": [
        {
          "components": [
            {
              "internalType": "address",
              "name": "user",
              "type": "address"
            },
            {
              "internalType": "address",
              "name": "poolId",
              "type": "address"
            },
            {
              "internalType": "address",
              "name": "baseAsset",
              "type": "address"
            },
            {
              "internalType": "uint32",
              "name": "chainId",
              "type": "uint32"
            },
            {
              "internalType": "int24",
              "name": "lowerRangePercent",
              "type": "int24"
            },
            {
              "internalType": "int24",
              "name": "upperRangePercent",
              "type": "int24"
            },
            {
              "internalType": "uint64",
              "name": "timestamp",
              "type": "uint64"
            },
            {
              "internalType": "enum AssetHubVault.PositionStatus",
              "name": "status",
              "type": "uint8"
            },
            {
              "internalType": "uint256",
              "name": "amount",
              "type": "uint256"
            },
            {
              "internalType": "bytes32",
              "name": "remotePositionId",
              "type": "bytes32"
            }
          ],
          "internalType": "struct AssetHubVault.Position[]",
          "name": "list",
          "type": "tuple[]"
        }
      ],
      "stateMutability": "view",
      "type": "function"
    },
    {
      "inputs": [
        {
          "internalType": "address",
          "name": "user",
          "type": "address"
        },
        {
          "internalType": "uint256",
          "name": "start",
          "type": "uint256"
        },
        {
          "internalType": "uint256",
          "name": "count",
          "type": "uint256"
        }
      ],
      "name": "getUserPositionsPage",
      "outputs": [
        {
          "components": [
            {
              "internalType": "address",
              "name": "user",
              "type": "address"
            },
            {
              "internalType": "address",
              "name": "poolId",
              "type": "address"
            },
            {
              "internalType": "address",
              "name": "baseAsset",
              "type": "address"
            },
            {
              "internalType": "uint32",
              "name": "chainId",
              "type": "uint32"
            },
            {
              "internalType": "int24",
              "name": "lowerRangePercent",
              "type": "int24"
            },
            {
              "internalType": "int24",
              "name": "upperRangePercent",
              "type": "int24"
            },
            {
              "internalType": "uint64",
              "name": "timestamp",
              "type": "uint64"
            },
            {
              "internalType": "enum AssetHubVault.PositionStatus",
              "name": "status",
              "type": "uint8"
            },
            {
              "internalType": "uint256",
              "name": "amount",
              "type": "uint256"
            },
            {
              "internalType": "bytes32",
              "name": "remotePositionId",
              "type": "bytes32"
            }
          ],
          "internalType": "struct AssetHubVault.Position[]",
          "name": "list",
          "type": "tuple[]"
        }
      ],
      "stateMutability": "view",
      "type": "function"
    },
    {
      "inputs": [
        {
          "internalType": "uint32",
          "name": "chainId",
          "type": "uint32"
        }
      ],
      "name": "isChainSupported",
      "outputs": [
        {
          "internalType": "bool",
          "name": "",
          "type": "bool"
        }
      ],
      "stateMutability": "view",
      "type": "function"
    },
    {
      "inputs": [
        {
          "internalType": "address",
          "name": "user",
          "type": "address"
        },
        {
          "internalType": "bytes32",
          "name": "positionId",
          "type": "bytes32"
        }
      ],
      "name": "isPositionActive",
      "outputs": [
        {
          "internalType": "bool",
          "name": "",
          "type": "bool"
        }
      ],
      "stateMutability": "view",
      "type": "function"
    },
    {
      "inputs": [],
      "name": "operator",
      "outputs": [
        {
          "internalType": "address",
          "name": "",
          "type": "address"
        }
      ],
      "stateMutability": "view",
      "type": "function"
    },
    {
      "inputs": [],
      "name": "pause",
      "outputs": [],
      "stateMutability": "nonpayable",
      "type": "function"
    },
    {
      "inputs": [],
      "name": "paused",
      "outputs": [
        {
          "internalType": "bool",
          "name": "",
          "type": "bool"
        }
      ],
      "stateMutability": "view",
      "type": "function"
    },
    {
      "inputs": [
        {
          "internalType": "bytes32",
          "name": "",
          "type": "bytes32"
        }
      ],
      "name": "positions",
      "outputs": [
        {
          "internalType": "address",
          "name": "user",
          "type": "address"
        },
        {
          "internalType": "address",
          "name": "poolId",
          "type": "address"
        },
        {
          "internalType": "address",
          "name": "baseAsset",
          "type": "address"
        },
        {
          "internalType": "uint32",
          "name": "chainId",
          "type": "uint32"
        },
        {
          "internalType": "int24",
          "name": "lowerRangePercent",
          "type": "int24"
        },
        {
          "internalType": "int24",
          "name": "upperRangePercent",
          "type": "int24"
        },
        {
          "internalType": "uint64",
          "name": "timestamp",
          "type": "uint64"
        },
        {
          "internalType": "enum AssetHubVault.PositionStatus",
          "name": "status",
          "type": "uint8"
        },
        {
          "internalType": "uint256",
          "name": "amount",
          "type": "uint256"
        },
        {
          "internalType": "bytes32",
          "name": "remotePositionId",
          "type": "bytes32"
        }
      ],
      "stateMutability": "view",
      "type": "function"
    },
    {
      "inputs": [
        {
          "internalType": "uint32",
          "name": "chainId",
          "type": "uint32"
        }
      ],
      "name": "removeChain",
      "outputs": [],
      "stateMutability": "nonpayable",
      "type": "function"
    },
    {
      "inputs": [
        {
          "internalType": "address",
          "name": "account",
          "type": "address"
        }
      ],
      "name": "setEmergency",
      "outputs": [],
      "stateMutability": "nonpayable",
      "type": "function"
    },
    {
      "inputs": [
        {
          "internalType": "address",
          "name": "account",
          "type": "address"
        }
      ],
      "name": "setOperator",
      "outputs": [],
      "stateMutability": "nonpayable",
      "type": "function"
    },
    {
      "inputs": [
        {
          "internalType": "bool",
          "name": "_testMode",
          "type": "bool"
        }
      ],
      "name": "setTestMode",
      "outputs": [],
      "stateMutability": "nonpayable",
      "type": "function"
    },
    {
      "inputs": [
        {
          "internalType": "address",
          "name": "precompile",
          "type": "address"
        }
      ],
      "name": "setXcmPrecompile",
      "outputs": [],
      "stateMutability": "nonpayable",
      "type": "function"
    },
    {
      "inputs": [
        {
          "internalType": "bytes32",
          "name": "positionId",
          "type": "bytes32"
        },
        {
          "internalType": "uint256",
          "name": "receivedAmount",
          "type": "uint256"
        }
      ],
      "name": "settleLiquidation",
      "outputs": [],
      "stateMutability": "nonpayable",
      "type": "function"
    },
    {
      "inputs": [
        {
          "internalType": "uint32",
          "name": "",
          "type": "uint32"
        }
      ],
      "name": "supportedChains",
      "outputs": [
        {
          "internalType": "bool",
          "name": "supported",
          "type": "bool"
        },
        {
          "internalType": "bytes",
          "name": "xcmDestination",
          "type": "bytes"
        },
        {
          "internalType": "string",
          "name": "chainName",
          "type": "string"
        },
        {
          "internalType": "uint64",
          "name": "timestamp",
          "type": "uint64"
        }
      ],
      "stateMutability": "view",
      "type": "function"
    },
    {
      "inputs": [],
      "name": "testMode",
      "outputs": [
        {
          "internalType": "bool",
          "name": "",
          "type": "bool"
        }
      ],
      "stateMutability": "view",
      "type": "function"
    },
    {
      "inputs": [
        {
          "internalType": "address",
          "name": "newAdmin",
          "type": "address"
        }
      ],
      "name": "transferAdmin",
      "outputs": [],
      "stateMutability": "nonpayable",
      "type": "function"
    },
    {
      "inputs": [],
      "name": "unpause",
      "outputs": [],
      "stateMutability": "nonpayable",
      "type": "function"
    },
    {
      "inputs": [
        {
          "internalType": "uint32",
          "name": "chainId",
          "type": "uint32"
        },
        {
          "internalType": "address",
          "name": "executor",
          "type": "address"
        }
      ],
      "name": "updateChainExecutor",
      "outputs": [],
      "stateMutability": "nonpayable",
      "type": "function"
    },
    {
      "inputs": [
        {
          "internalType": "address",
          "name": "",
          "type": "address"
        }
      ],
      "name": "userBalances",
      "outputs": [
        {
          "internalType": "uint256",
          "name": "",
          "type": "uint256"
        }
      ],
      "stateMutability": "view",
      "type": "function"
    },
    {
      "inputs": [
        {
          "internalType": "address",
          "name": "",
          "type": "address"
        },
        {
          "internalType": "uint256",
          "name": "",
          "type": "uint256"
        }
      ],
      "name": "userPositions",
      "outputs": [
        {
          "internalType": "bytes32",
          "name": "",
          "type": "bytes32"
        }
      ],
      "stateMutability": "view",
      "type": "function"
    },
    {
      "inputs": [
        {
          "internalType": "uint256",
          "name": "amount",
          "type": "uint256"
        }
      ],
      "name": "withdraw",
      "outputs": [],
      "stateMutability": "nonpayable",
      "type": "function"
    },
    {
      "inputs": [],
      "name": "xcmPrecompileFrozen",
      "outputs": [
        {
          "internalType": "bool",
          "name": "",
          "type": "bool"
        }
      ],
      "stateMutability": "view",
      "type": "function"
    },
    {
      "stateMutability": "payable",
      "type": "receive"
    }
  ],
  "bytecode": "0x60808060405234606c576001600081905580546001600160a01b031990811633908117909255600280549091168217905560038054600980546001600160a81b031990921660ff60a01b19909416939093179091556001600160b01b0319169055612a3b90816100728239f35b600080fdfe608080604052600436101561001d575b50361561001b57600080fd5b005b600090813560e01c908163077120cc146121a8575080630d77be69146121005780631928b3cb146120265780631ff1292f14611fd5578063248514dd14611f4457806326224c641461168f57806328e6bdbe14611dd35780632a6bc2dd14611caa5780632e1a7d4d14611bbd5780632fefe44014611b3757806331e8a7ef14611afe578063374aca59146118aa5780633f4ba83a1461187757806343d6ca9c146116c8578063477348921461168f578063514ea4bf146115ce57806355a2d64d1461147d578063570ca735146114545780635c975abb1461142e5780635dad35ca146113745780635e1b4d991461131d57806375829def146112b05780638456cb59146112775780639a270acd146111ee5780639b2c59e6146111c8578063a20b9b77146110e3578063b3ab15fb14611092578063b80fe2f914610c78578063caa6fea414610c4f578063caffc49c14610af3578063cbaa349e14610ab9578063cd9ea34214610a93578063d0e30db014610a1e578063d4b39ebb146109c1578063dd67d25a146103e3578063e006a7aa146103b8578063e4584c07146102b6578063e98eaaac14610278578063eb02a115146102095763f851a4400361000f57346102065780600319360112610206576001546040516001600160a01b039091168152602090f35b80fd5b5034610206576020366003190112610206576102236121e5565b6001546001600160a01b03163303610269576001600160a01b0316801561025a576001600160601b0360a01b600354161760035580f35b63d92e233d60e01b8252600482fd5b637bfa4b9f60e01b8252600482fd5b50346102065760203660031901126102065760209063ffffffff61029a6121cd565b16815260088252604060018060a01b0391205416604051908152f35b5034610206576020366003190112610206576102d06121e5565b6001600160a01b0316815260066020526040812080549082908190819081905b85821061031457505060809450604051938452602084015260408301526060820152f35b9091610320838361249d565b90549060031b1c8752600560205260ff600360408920015460401c1660038110156103a4578061035f57506103566001916126a4565b925b01906102f0565b929390926001810361037d57506103776001916126a4565b93610358565b909390600214610390575b600190610358565b9361039c6001916126a4565b949050610388565b634e487b7160e01b88526021600452602488fd5b5034610206576103df6103d36103cd366124f8565b9161286b565b60405191829182612458565b0390f35b503461020657610120366003190112610206576103fe6121e5565b906024359163ffffffff83168084036109bd576044356001600160a01b038116908181036109b95761042e6121fb565b916084359360a435948560020b8096036109095760c435928360020b8094036109b55760e4356001600160401b0381116109b1576104709036906004016124cb565b969097610104356001600160401b0381116109ad576104939036906004016124cb565b600254919d909b916001600160a01b0316330361099e5760ff60035460a01c1661098f576001600160a01b0382169889156109805786156109715788841215610962576009546001600160a01b0316156109535760ff60408f8a8152600760205220541615610944578660408f8c8152600460205220541061093557604051606093841b6bffffffffffffffffffffffff199081166020830190815260e09490941b6001600160e01b031916603483015291841b8216603882015285841b909116604c82015242838201529182528c9161056e608082612352565b5190209687926040519461058186612305565b8a86526020860191878352604087019160018060a01b0316825260608701938a85526080880191825260a0880190815260c08801946001600160401b034216865260e089019487865260406101008b01988d8a526101208c019a818c5281526005602052209960018060a01b039060018060a01b03905116166001600160601b0360a01b8b5416178a5560018060a01b0390511660018a019060018060a01b03166001600160601b0360a01b825416179055600289019360018060a01b039060018060a01b03905116166001600160601b0360a01b85541617845551918354905160c01b62ffffff60c01b16915160d81b62ffffff60d81b169263ffffffff60a01b9060a01b169069ffffffffffffffffffff60a01b191617171790556001600160401b038060038701935116166001600160401b03198354161782555160038110156109215790600593929160ff60401b82549160401b169060ff60401b191617905551600484015551910155848952600660205260408920805490600160401b82101561090d5791610740827f9a5b32500137d63609212582c47c2e2486052dab88567f1fbd0637be4f2652a0969460016060979501815561249d565b81549060031b9088821b91600019901b1916179055868b52600460205260408b2061076c838254612636565b905560405192835260208301526040820152a36009549460ff8660a81c1615610793578480f35b61079e3685836126d7565b6020815191012093859660609060018060a01b0316803b1561090957604051637f0a3bf960e01b815290889082908183816107df898b8d8f60048601612841565b03925af190816108c5575b50958097989261088c94927f2d28a5a2ca6843ac7811dcf16bc72dcea83863fbb74f472becc28dc57a76827a981560001461089857507f2ba5ade46917c616c9af26a3ce5e85c0dc38796c39d42e9a9b2d930e02c492489061084a612674565b935b61085d6040519283928a8c85612841565b0390a2610877604051958695606087526060870191612753565b91151560208501528382036040850152612417565b0390a280388080808480f35b9293507f2ba5ade46917c616c9af26a3ce5e85c0dc38796c39d42e9a9b2d930e02c492489060019461084c565b9261088c9492896108fb8a9b7f2d28a5a2ca6843ac7811dcf16bc72dcea83863fbb74f472becc28dc57a76827a9b959d97612352565b9950929450929890966107ea565b8780fd5b634e487b7160e01b8b52604160045260248bfd5b634e487b7160e01b8e52602160045260248efd5b631e9acf1760e31b8e5260048efd5b63f21c9f0760e01b8e5260048efd5b6395b60d6160e01b8e5260048efd5b63561ce9bb60e01b8e5260048efd5b6365e52d5160e11b8e5260048efd5b63d92e233d60e01b8e5260048efd5b6313d0ff5960e31b8d5260048dfd5b631f0853c160e21b8d5260048dfd5b8b80fd5b8980fd5b8880fd5b8480fd5b8280fd5b5034610206576109d96109d3366124f8565b91612774565b90604051918291602083016020845282518091526020604085019301915b818110610a05575050500390f35b82518452859450602093840193909201916001016109f7565b508060031936011261020657610a326129e3565b3415610a8457338152600460205260408120610a4f3482546126b3565b90556040513481527fe1fffcc4923d04b559f4d29a8bfc6cda04eb5b0d3c460751c2402c5c5cc9109c60203392a26001815580f35b6365e52d5160e11b8152600490fd5b5034610206578060031936011261020657602060ff60095460a81c166040519015158152f35b50346102065760203660031901126102065760ff604060209263ffffffff610adf6121cd565b168152600784522054166040519015158152f35b50604036600319011261020657610b086121cd565b60035460243591906001600160a01b03163303610c405781835260056020526040832090600382019060ff825460401c166003811015610c2c57600214610be75763ffffffff80600285015460a01c16911603610bd857805460ff60401b1916600160411b17905534610bae575b60018060a01b03905416907f385faac62e36e04554cd60315fc6716eaf7fc15bba95b3790f4b351dfa10bad86020604051348152a380f35b80546001600160a01b031683526004602052604083208054610bd19034906126b3565b9055610b76565b63a179f8c960e01b8452600484fd5b60405162461bcd60e51b815260206004820152601b60248201527f506f736974696f6e20616c7265616479206c69717569646174656400000000006044820152606490fd5b634e487b7160e01b86526021600452602486fd5b6303ca9f4d60e11b8352600483fd5b50346102065780600319360112610206576003546040516001600160a01b039091168152602090f35b503461020657608036600319011261020657610c926121cd565b906024356001600160401b03811161108e57610cb29036906004016124cb565b92906044356001600160401b03811161108a57610cd39036906004016124cb565b949092610cde6121fb565b6001549091906001600160a01b0316330361107b5763ffffffff1693848652600760205260ff604087205416611036578215610ff157610d4260405191610d2483612337565b60018352610d333686886126d7565b9860208401998a5236916126d7565b966040820197885260608201906001600160401b03421682528688526007602052604088209251151560ff801985541691161783556001830190518051906001600160401b038211610fdd57610da282610d9c85546122cb565b8561270e565b602090601f8311600114610f7a57610dd292918b9183610eca575b50508160011b916000199060031b1c19161790565b90555b6002820197519788516001600160401b038111610f6657610e0081610dfa84546122cb565b8461270e565b6020601f8211600114610ed55792600392610e60836001600160401b03969487958e9f7fed959e830f99a1c8cc3bd5f59d1530c3a0a7e009ee2a0589f702741ddb83ec709e9f92610eca5750508160011b916000199060031b1c19161790565b90555b5116920191166001600160401b031982541617905560018060a01b031680610ea9575b610e9d604051938493604085526040850191612753565b9060208301520390a280f35b84865260086020526040862080546001600160a01b03191682179055610e86565b015190503880610dbd565b828a52808a209a601f1983168b5b818110610f4e5750837fed959e830f99a1c8cc3bd5f59d1530c3a0a7e009ee2a0589f702741ddb83ec709b9c9d6001600160401b03979460039794899760019510610f36575b505050811b019055610e63565b015160001983891b60f8161c19169055388080610f29565b838301518e556001909d019c60209384019301610ee3565b634e487b7160e01b89526041600452602489fd5b838b52818b209190601f1984168c5b818110610fc55750908460019594939210610fac575b505050811b019055610dd5565b015160001960f88460031b161c19169055388080610f9f565b92936020600181928786015181550195019301610f89565b634e487b7160e01b8a52604160045260248afd5b60405162461bcd60e51b815260206004820152601760248201527f496e76616c69642058434d2064657374696e6174696f6e0000000000000000006044820152606490fd5b60405162461bcd60e51b815260206004820152601760248201527f436861696e20616c726561647920737570706f727465640000000000000000006044820152606490fd5b637bfa4b9f60e01b8652600486fd5b8380fd5b5080fd5b5034610206576020366003190112610206576110ac6121e5565b6001546001600160a01b03163303610269576001600160a01b0316801561025a576001600160601b0360a01b600254161760025580f35b50346102065760203660031901126102065760409063ffffffff6111056121cd565b826060855161111381612337565b8281528160208201528187820152015216815260076020522060405161113881612337565b60ff8254161515815261114d60018301612373565b91602082019283526001600160401b036111bc81600361116f60028601612373565b946040870195865201541692606085019384526111a9604051968796602088525115156020880152516080604088015260a0870190612417565b9051858203601f19016060870152612417565b91511660808301520390f35b5034610206578060031936011261020657602060ff60095460a01c166040519015158152f35b50346102065780600319360112610206576001546001600160a01b031633036112685760095460ff8160a01c166112325760ff60a01b1916600160a01b1760095580f35b60405162461bcd60e51b815260206004820152600e60248201526d30b63932b0b23c90333937bd32b760911b6044820152606490fd5b637bfa4b9f60e01b8152600490fd5b50346102065780600319360112610206576001546001600160a01b03163303611268576003805460ff60a01b1916600160a01b17905580f35b5034610206576020366003190112610206576112ca6121e5565b600154906001600160a01b038216330361130e576001600160a01b03169081156112ff576001600160a01b0319161760015580f35b63d92e233d60e01b8352600483fd5b637bfa4b9f60e01b8352600483fd5b5034610206576040366003190112610206576113376121e5565b6001600160a01b0316815260066020526040812080546024359290831015610206576020611365848461249d565b90549060031b1c604051908152f35b50346102065760203660031901126102065761138e6121e5565b6001546001600160a01b03163303610269576009549060ff8260a01c166113f1576001600160a01b03166001600160a01b03199190911681176009557f92107fcd833d21c9342d998ceb020ac5d7aaa95136a24b3f7e7a17522b26d0e48280a280f35b60405162461bcd60e51b81526020600482015260156024820152743c31b690383932b1b7b6b834b63290333937bd32b760591b6044820152606490fd5b5034610206578060031936011261020657602060ff60035460a01c166040519015158152f35b50346102065780600319360112610206576002546040516001600160a01b039091168152602090f35b5034610206576020366003190112610206576114976121cd565b6001546001600160a01b031633036102695763ffffffff1680825260076020526114c760ff604084205416612522565b80825260076020528160036040822082815582600182016114e881546122cb565b8061158c575b5050600282016114fe81546122cb565b8061154a575b505050015580825260086020526040822080546001600160a01b03191690557f79df5d328757ca456e42d3dc087c02eedd4cf61d984a6aa526cfac31f1542dcd8280a280f35b601f81116001146115605750555b823880611504565b8183526020832061157c91601f0160051c8101906001016126c0565b8082528160208120915555611558565b601f81116001146115a25750555b8238806114ee565b818352602083206115be91601f0160051c8101906001016126c0565b808252816020812091555561159a565b503461020657602036600319011261020657604061014091600435815260056020522060018060a01b038154169060018060a01b036001820154169061168160028201546003830154906005600485015494015494604051968752602087015260018060a01b038116604087015263ffffffff8160a01c1660608701528060c01c60020b608087015260d81c60020b60a08601526001600160401b03811660c086015260ff60e086019160401c16612211565b610100830152610120820152f35b5034610206576020366003190112610206576020906040906001600160a01b036116b76121e5565b168152600483522054604051908152f35b50346102065760403660031901126102065760025460243590600435906001600160a01b03163303611868576116fc6129e3565b811561185957808352600560205260408320916003830160ff815460401c166003811015610c2c5760010361181e578147106117d957805460ff60401b1916600160411b17905582546001600160a01b031684526004602052604080852080547fa8bc750a5af603b81d1d73928261812951e56844201c36805845c3ea53e0657c93919061178b9083906126b3565b9055600460018060a01b038654169586867f385faac62e36e04554cd60315fc6716eaf7fc15bba95b3790f4b351dfa10bad860208751878152a3015482519182526020820152a36001815580f35b60405162461bcd60e51b815260206004820152601d60248201527f496e73756666696369656e7420636f6e74726163742062616c616e63650000006044820152606490fd5b60405162461bcd60e51b8152602060048201526013602482015272506f736974696f6e206e6f742061637469766560681b6044820152606490fd5b6365e52d5160e11b8352600483fd5b631f0853c160e21b8352600483fd5b50346102065780600319360112610206576001546001600160a01b03163303611268576003805460ff60a01b1916905580f35b5034610206576060366003190112610206576118c46121e5565b6024356003811015908161108a576044359260018060a01b03168452600660205260408420918492858154905b81811080611aed575b1561197257611909818461249d565b90549060031b1c885260056020528360ff600360408b20015460401c169061195e57600381101561195e578514611949575b611944906126a4565b6118f1565b94611956611944916126a4565b95905061193b565b634e487b7160e01b89526021600452602489fd5b5094509161197f846125d2565b918694875b87811080611ae4575b15611ad65761199c818761249d565b90549060031b1c895260056020528260ff600360408c20015460401c1690611ac2576003811015611ac25784146119dc575b6119d7906126a4565b611984565b95611aba6119d7916119ee898961249d565b90549060031b1c8b52600560205260408b20600560405191611a0f83612305565b60018060a01b03815416835260018060a01b036001820154166020840152600281015460018060a01b038116604085015263ffffffff8160a01c1660608501528060c01c60020b608085015260d81c60020b60a0840152611a8c60ff60038301546001600160401b03811660c087015260401c1660e085016125af565b60048101546101008401520154610120820152611aa98289612622565b52611ab48188612622565b506126a4565b9690506119ce565b634e487b7160e01b8a52602160045260248afd5b604051806103df8782612458565b5081871061198d565b508615806118fa57508686106118fa565b5034610206576020366003190112610206576020906040906001600160a01b03611b266121e5565b168152600683522054604051908152f35b503461020657604036600319011261020657611b516121e5565b602435825260056020526040822080546001600160a01b039283169216919091149081611b86575b6020826040519015158152f35b60ff91506003015460401c16906003821015611ba9575060016020911438611b79565b634e487b7160e01b81526021600452602490fd5b503461020657602036600319011261020657600435611bda6129e3565b8015611c9b57338252600460205280604083205410611c8c57338252600460205260408220611c0a828254612636565b90558180808084335af1611c1c612674565b5015611c55576040519081527f7fcf532c15f0a6db0bd6d0e038bea71d30d808c7d98cb3bf7268a95bf5081b6560203392a26001815580f35b60405162461bcd60e51b815260206004820152600f60248201526e1514905394d1915497d19052531151608a1b6044820152606490fd5b631e9acf1760e31b8252600482fd5b6365e52d5160e11b8252600482fd5b5034610206576020366003190112610206576001600160a01b03611ccc6121e5565b16815260066020526040812090815490611ce5826125d2565b92815b838110611cfd57604051806103df8782612458565b80611d0a6001928461249d565b90549060031b1c8452600560205260408420600560405191611d2b83612305565b848060a01b038154168352848060a01b03858201541660208401526002810154858060a01b038116604085015263ffffffff8160a01c1660608501528060c01c60020b608085015260d81c60020b60a0840152611da460ff60038301546001600160401b03811660c087015260401c1660e085016125af565b60048101546101008401520154610120820152611dc18288612622565b52611dcc8187612622565b5001611ce8565b50346102065760603660031901126102065760043560243590604435916fffffffffffffffffffffffffffffffff831680930361108a57611e126129e3565b8184526005602052604084206003810160ff815460401c166003811015611f3057611ef4576002546001600160a01b03163303611ea7575b9163ffffffff60026040937f47ba39d87df8b4c2663f9d298c92cc07750ad1b1f035a7e9e761028a995c1cee95600160401b60ff60401b19825416179055836005820155015460a01c169482519182526020820152a36001815580f35b600282015460a01c63ffffffff168652600860205260408620546001600160a01b03168015908115611ee9575b5015611e4a576362f7429560e11b8652600486fd5b905033141538611ed4565b60405162461bcd60e51b8152602060048201526014602482015273506f736974696f6e206e6f742070656e64696e6760601b6044820152606490fd5b634e487b7160e01b87526021600452602487fd5b50346102065760203660031901126102065760409063ffffffff611f666121cd565b16815260076020522060ff815416611f8060018301612373565b91611fcb6001600160401b036003611f9a60028501612373565b9301541691611fbd60405195869515158652608060208701526080860190612417565b908482036040860152612417565b9060608301520390f35b50346102065760203660031901126102065760043580151580910361108e576001546001600160a01b03163303610269576009805460ff60a81b191660a89290921b60ff60a81b1691909117905580f35b503461020657602036600319011261020657604061014091612046612564565b50600435815260056020522060056040519161206183612305565b60018060a01b03815416835260018060a01b036001820154166020840152600281015460018060a01b038116604085015263ffffffff8160a01c1660608501528060c01c60020b608085015260d81c60020b60a08401526120de60ff60038301546001600160401b03811660c087015260401c1660e085016125af565b600481015461010084015201546101208201526120fe6040518092612234565bf35b50346102065760403660031901126102065761211a6121cd565b6024356001600160a01b03811691908290036109bd576001546001600160a01b0316330361130e57602063ffffffff7fc0648d71480d56e212d7221a29783f9dc7d62231867ed5159f5d1bdb1459b9999216928385526007825261218460ff604087205416612522565b83855260088252604080862080546001600160a01b0319168317905551908152a280f35b90503461108e578160031936011261108e576009546001600160a01b03168152602090f35b6004359063ffffffff821682036121e057565b600080fd5b600435906001600160a01b03821682036121e057565b606435906001600160a01b03821682036121e057565b90600382101561221e5752565b634e487b7160e01b600052602160045260246000fd5b610120809160018060a01b03815116845260018060a01b03602082015116602085015260018060a01b03604082015116604085015263ffffffff6060820151166060850152608081015160020b608085015260a081015160020b60a08501526001600160401b0360c08201511660c08501526122b860e082015160e0860190612211565b6101008101516101008501520151910152565b90600182811c921680156122fb575b60208310146122e557565b634e487b7160e01b600052602260045260246000fd5b91607f16916122da565b61014081019081106001600160401b0382111761232157604052565b634e487b7160e01b600052604160045260246000fd5b608081019081106001600160401b0382111761232157604052565b90601f801991011681019081106001600160401b0382111761232157604052565b9060405191826000825492612387846122cb565b80845293600181169081156123f557506001146123ae575b506123ac92500383612352565b565b90506000929192526020600020906000915b8183106123d95750509060206123ac928201013861239f565b60209193508060019154838589010152019101909184926123c0565b9050602092506123ac94915060ff191682840152151560051b8201013861239f565b919082519283825260005b848110612443575050826000602080949584010152601f8019910116010190565b80602080928401015182828601015201612422565b602060408183019282815284518094520192019060005b81811061247c5750505090565b9091926020610140826124926001948851612234565b01940192910161246f565b80548210156124b55760005260206000200190600090565b634e487b7160e01b600052603260045260246000fd5b9181601f840112156121e0578235916001600160401b0383116121e057602083818601950101116121e057565b60609060031901126121e0576004356001600160a01b03811681036121e057906024359060443590565b1561252957565b60405162461bcd60e51b815260206004820152601360248201527210da185a5b881b9bdd081cdd5c1c1bdc9d1959606a1b6044820152606490fd5b6040519061257182612305565b6000610120838281528260208201528260408201528260608201528260808201528260a08201528260c08201528260e0820152826101008201520152565b600382101561221e5752565b6001600160401b0381116123215760051b60200190565b906125dc826125bb565b6125e96040519182612352565b82815280926125fa601f19916125bb565b019060005b82811061260b57505050565b602090612616612564565b828285010152016125ff565b80518210156124b55760209160051b010190565b9190820391821161264357565b634e487b7160e01b600052601160045260246000fd5b6001600160401b03811161232157601f01601f191660200190565b3d1561269f573d9061268582612659565b916126936040519384612352565b82523d6000602084013e565b606090565b60001981146126435760010190565b9190820180921161264357565b8181106126cb575050565b600081556001016126c0565b9291926126e382612659565b916126f16040519384612352565b8294818452818301116121e0578281602093846000960137010152565b9190601f811161271d57505050565b6123ac926000526020600020906020601f840160051c83019310612749575b601f0160051c01906126c0565b909150819061273c565b908060209392818452848401376000828201840152601f01601f1916010190565b6001600160a01b031660009081526006602052604090208054919290918084101561282357836127a391612636565b908181111561281b5750905b6127b8826125bb565b926127c66040519485612352565b828452601f196127d5846125bb565b0136602086013760005b8381106127ed575050505090565b806128036127fd600193856126b3565b8561249d565b90549060031b1c6128148288612622565b52016127df565b9050906127af565b50505050604051612835602082612352565b60008152600036813790565b929061285a906128689593604086526040860191612753565b926020818503910152612753565b90565b6001600160a01b03166000908152600660205260409020805491929091808410156129a4578361289a91612636565b908181111561299c5750905b6128af826125d2565b9260005b8381106128c1575050505090565b806128d16127fd600193856126b3565b90549060031b1c600052600560205260406000206005604051916128f483612305565b848060a01b038154168352848060a01b03858201541660208401526002810154858060a01b038116604085015263ffffffff8160a01c1660608501528060c01c60020b608085015260d81c60020b60a084015261296d60ff60038301546001600160401b03811660c087015260401c1660e085016125af565b6004810154610100840152015461012082015261298a8288612622565b526129958187612622565b50016128b3565b9050906128a6565b50506040519150600090506129ba602083612352565b81526000805b8181106129cc57505090565b6020906129d7612564565b828286010152016129c0565b6002600054146129f4576002600055565b633ee5aeb560e01b60005260046000fdfea26469706673582212204aefe732b8a452281f7076fd161b553759f3d4b473c3a72780ddbfaedb17b39b64736f6c634300081c0033",
  "linkReferences": {},
  "deployedLinkReferences": {}
}