{
  "_format": "hh-sol-artifact-1",
  "contractName": "AssetHubVault",
  "sourceName": "contracts/V1(Current)/AssetHubVault.sol",
  "abi": [
    {
      "inputs": [],
      "stateMutability": "nonpayable",
      "type": "constructor"
    },
    {
      "inputs": [],
      "name": "AmountMismatch",
      "type": "error"
    },
    {
      "inputs": [],
      "name": "AmountZero",
      "type": "error"
    },
    {
      "inputs": [],
      "name": "AssetMismatch",
      "type": "error"
    },
    {
      "inputs": [],
      "name": "ChainIdMismatch",
      "type": "error"
    },
    {
      "inputs": [],
      "name": "InsufficientBalance",
      "type": "error"
    },
    {
      "inputs": [],
      "name": "InvalidRange",
      "type": "error"
    },
    {
      "inputs": [],
      "name": "NotAdmin",
      "type": "error"
    },
    {
      "inputs": [],
      "name": "NotEmergency",
      "type": "error"
    },
    {
      "inputs": [],
      "name": "NotOperator",
      "type": "error"
    },
    {
      "inputs": [],
      "name": "Paused",
      "type": "error"
    },
    {
      "inputs": [],
      "name": "PositionNotActive",
      "type": "error"
    },
    {
      "inputs": [],
      "name": "ReentrancyGuardReentrantCall",
      "type": "error"
    },
    {
      "inputs": [],
      "name": "UnauthorizedXcmCall",
      "type": "error"
    },
    {
      "inputs": [],
      "name": "XcmPrecompileNotSet",
      "type": "error"
    },
    {
      "inputs": [],
      "name": "ZeroAddress",
      "type": "error"
    },
    {
      "anonymous": false,
      "inputs": [
        {
          "indexed": true,
          "internalType": "address",
          "name": "user",
          "type": "address"
        },
        {
          "indexed": false,
          "internalType": "uint256",
          "name": "amount",
          "type": "uint256"
        }
      ],
      "name": "Deposit",
      "type": "event"
    },
    {
      "anonymous": false,
      "inputs": [
        {
          "indexed": true,
          "internalType": "bytes32",
          "name": "positionId",
          "type": "bytes32"
        },
        {
          "indexed": true,
          "internalType": "address",
          "name": "user",
          "type": "address"
        },
        {
          "indexed": false,
          "internalType": "uint32",
          "name": "chainId",
          "type": "uint32"
        },
        {
          "indexed": false,
          "internalType": "address",
          "name": "poolId",
          "type": "address"
        },
        {
          "indexed": false,
          "internalType": "uint256",
          "name": "amount",
          "type": "uint256"
        }
      ],
      "name": "InvestmentInitiated",
      "type": "event"
    },
    {
      "anonymous": false,
      "inputs": [
        {
          "indexed": true,
          "internalType": "bytes32",
          "name": "positionId",
          "type": "bytes32"
        },
        {
          "indexed": true,
          "internalType": "address",
          "name": "user",
          "type": "address"
        },
        {
          "indexed": false,
          "internalType": "uint256",
          "name": "receivedAmount",
          "type": "uint256"
        },
        {
          "indexed": false,
          "internalType": "uint256",
          "name": "expectedAmount",
          "type": "uint256"
        }
      ],
      "name": "LiquidationSettled",
      "type": "event"
    },
    {
      "anonymous": false,
      "inputs": [
        {
          "indexed": true,
          "internalType": "bytes32",
          "name": "positionId",
          "type": "bytes32"
        },
        {
          "indexed": true,
          "internalType": "address",
          "name": "user",
          "type": "address"
        },
        {
          "indexed": false,
          "internalType": "uint256",
          "name": "finalAmount",
          "type": "uint256"
        }
      ],
      "name": "PositionLiquidated",
      "type": "event"
    },
    {
      "anonymous": false,
      "inputs": [
        {
          "indexed": true,
          "internalType": "address",
          "name": "user",
          "type": "address"
        },
        {
          "indexed": false,
          "internalType": "uint256",
          "name": "amount",
          "type": "uint256"
        }
      ],
      "name": "Withdrawal",
      "type": "event"
    },
    {
      "anonymous": false,
      "inputs": [
        {
          "indexed": true,
          "internalType": "bytes32",
          "name": "messageHash",
          "type": "bytes32"
        },
        {
          "indexed": false,
          "internalType": "bytes",
          "name": "destination",
          "type": "bytes"
        },
        {
          "indexed": false,
          "internalType": "bytes",
          "name": "message",
          "type": "bytes"
        }
      ],
      "name": "XCMMessageSent",
      "type": "event"
    },
    {
      "anonymous": false,
      "inputs": [
        {
          "indexed": true,
          "internalType": "address",
          "name": "precompile",
          "type": "address"
        }
      ],
      "name": "XcmPrecompileSet",
      "type": "event"
    },
    {
      "anonymous": false,
      "inputs": [
        {
          "indexed": true,
          "internalType": "bytes32",
          "name": "messageHash",
          "type": "bytes32"
        },
        {
          "indexed": false,
          "internalType": "bytes",
          "name": "destination",
          "type": "bytes"
        },
        {
          "indexed": false,
          "internalType": "bool",
          "name": "success",
          "type": "bool"
        },
        {
          "indexed": false,
          "internalType": "bytes",
          "name": "errorData",
          "type": "bytes"
        }
      ],
      "name": "XcmSendAttempt",
      "type": "event"
    },
    {
      "inputs": [],
      "name": "XCM_PRECOMPILE",
      "outputs": [
        {
          "internalType": "address",
          "name": "",
          "type": "address"
        }
      ],
      "stateMutability": "view",
      "type": "function"
    },
    {
      "inputs": [],
      "name": "admin",
      "outputs": [
        {
          "internalType": "address",
          "name": "",
          "type": "address"
        }
      ],
      "stateMutability": "view",
      "type": "function"
    },
    {
      "inputs": [],
      "name": "deposit",
      "outputs": [],
      "stateMutability": "payable",
      "type": "function"
    },
    {
      "inputs": [
        {
          "internalType": "address",
          "name": "user",
          "type": "address"
        },
        {
          "internalType": "uint32",
          "name": "chainId",
          "type": "uint32"
        },
        {
          "internalType": "address",
          "name": "poolId",
          "type": "address"
        },
        {
          "internalType": "address",
          "name": "baseAsset",
          "type": "address"
        },
        {
          "internalType": "uint256",
          "name": "amount",
          "type": "uint256"
        },
        {
          "internalType": "int24",
          "name": "lowerRangePercent",
          "type": "int24"
        },
        {
          "internalType": "int24",
          "name": "upperRangePercent",
          "type": "int24"
        },
        {
          "internalType": "bytes",
          "name": "destination",
          "type": "bytes"
        },
        {
          "internalType": "bytes",
          "name": "preBuiltXcmMessage",
          "type": "bytes"
        }
      ],
      "name": "dispatchInvestment",
      "outputs": [],
      "stateMutability": "nonpayable",
      "type": "function"
    },
    {
      "inputs": [],
      "name": "emergency",
      "outputs": [
        {
          "internalType": "address",
          "name": "",
          "type": "address"
        }
      ],
      "stateMutability": "view",
      "type": "function"
    },
    {
      "inputs": [
        {
          "internalType": "uint32",
          "name": "chainId",
          "type": "uint32"
        },
        {
          "internalType": "bytes32",
          "name": "positionId",
          "type": "bytes32"
        }
      ],
      "name": "emergencyLiquidatePosition",
      "outputs": [],
      "stateMutability": "nonpayable",
      "type": "function"
    },
    {
      "inputs": [],
      "name": "freezeXcmPrecompile",
      "outputs": [],
      "stateMutability": "nonpayable",
      "type": "function"
    },
    {
      "inputs": [
        {
          "internalType": "bytes32",
          "name": "positionId",
          "type": "bytes32"
        }
      ],
      "name": "getPosition",
      "outputs": [
        {
          "components": [
            {
              "internalType": "address",
              "name": "user",
              "type": "address"
            },
            {
              "internalType": "address",
              "name": "poolId",
              "type": "address"
            },
            {
              "internalType": "address",
              "name": "baseAsset",
              "type": "address"
            },
            {
              "internalType": "uint32",
              "name": "chainId",
              "type": "uint32"
            },
            {
              "internalType": "int24",
              "name": "lowerRangePercent",
              "type": "int24"
            },
            {
              "internalType": "int24",
              "name": "upperRangePercent",
              "type": "int24"
            },
            {
              "internalType": "uint64",
              "name": "timestamp",
              "type": "uint64"
            },
            {
              "internalType": "bool",
              "name": "active",
              "type": "bool"
            },
            {
              "internalType": "uint256",
              "name": "amount",
              "type": "uint256"
            }
          ],
          "internalType": "struct AssetHubVault.Position",
          "name": "",
          "type": "tuple"
        }
      ],
      "stateMutability": "view",
      "type": "function"
    },
    {
      "inputs": [
        {
          "internalType": "address",
          "name": "user",
          "type": "address"
        }
      ],
      "name": "getUserBalance",
      "outputs": [
        {
          "internalType": "uint256",
          "name": "",
          "type": "uint256"
        }
      ],
      "stateMutability": "view",
      "type": "function"
    },
    {
      "inputs": [
        {
          "internalType": "address",
          "name": "user",
          "type": "address"
        }
      ],
      "name": "getUserPositions",
      "outputs": [
        {
          "components": [
            {
              "internalType": "address",
              "name": "user",
              "type": "address"
            },
            {
              "internalType": "address",
              "name": "poolId",
              "type": "address"
            },
            {
              "internalType": "address",
              "name": "baseAsset",
              "type": "address"
            },
            {
              "internalType": "uint32",
              "name": "chainId",
              "type": "uint32"
            },
            {
              "internalType": "int24",
              "name": "lowerRangePercent",
              "type": "int24"
            },
            {
              "internalType": "int24",
              "name": "upperRangePercent",
              "type": "int24"
            },
            {
              "internalType": "uint64",
              "name": "timestamp",
              "type": "uint64"
            },
            {
              "internalType": "bool",
              "name": "active",
              "type": "bool"
            },
            {
              "internalType": "uint256",
              "name": "amount",
              "type": "uint256"
            }
          ],
          "internalType": "struct AssetHubVault.Position[]",
          "name": "",
          "type": "tuple[]"
        }
      ],
      "stateMutability": "view",
      "type": "function"
    },
    {
      "inputs": [
        {
          "internalType": "address",
          "name": "user",
          "type": "address"
        },
        {
          "internalType": "bytes32",
          "name": "positionId",
          "type": "bytes32"
        }
      ],
      "name": "isPositionActive",
      "outputs": [
        {
          "internalType": "bool",
          "name": "",
          "type": "bool"
        }
      ],
      "stateMutability": "view",
      "type": "function"
    },
    {
      "inputs": [],
      "name": "operator",
      "outputs": [
        {
          "internalType": "address",
          "name": "",
          "type": "address"
        }
      ],
      "stateMutability": "view",
      "type": "function"
    },
    {
      "inputs": [],
      "name": "pause",
      "outputs": [],
      "stateMutability": "nonpayable",
      "type": "function"
    },
    {
      "inputs": [],
      "name": "paused",
      "outputs": [
        {
          "internalType": "bool",
          "name": "",
          "type": "bool"
        }
      ],
      "stateMutability": "view",
      "type": "function"
    },
    {
      "inputs": [
        {
          "internalType": "bytes32",
          "name": "",
          "type": "bytes32"
        }
      ],
      "name": "positions",
      "outputs": [
        {
          "internalType": "address",
          "name": "user",
          "type": "address"
        },
        {
          "internalType": "address",
          "name": "poolId",
          "type": "address"
        },
        {
          "internalType": "address",
          "name": "baseAsset",
          "type": "address"
        },
        {
          "internalType": "uint32",
          "name": "chainId",
          "type": "uint32"
        },
        {
          "internalType": "int24",
          "name": "lowerRangePercent",
          "type": "int24"
        },
        {
          "internalType": "int24",
          "name": "upperRangePercent",
          "type": "int24"
        },
        {
          "internalType": "uint64",
          "name": "timestamp",
          "type": "uint64"
        },
        {
          "internalType": "bool",
          "name": "active",
          "type": "bool"
        },
        {
          "internalType": "uint256",
          "name": "amount",
          "type": "uint256"
        }
      ],
      "stateMutability": "view",
      "type": "function"
    },
    {
      "inputs": [
        {
          "internalType": "address",
          "name": "account",
          "type": "address"
        }
      ],
      "name": "setEmergency",
      "outputs": [],
      "stateMutability": "nonpayable",
      "type": "function"
    },
    {
      "inputs": [
        {
          "internalType": "address",
          "name": "account",
          "type": "address"
        }
      ],
      "name": "setOperator",
      "outputs": [],
      "stateMutability": "nonpayable",
      "type": "function"
    },
    {
      "inputs": [
        {
          "internalType": "bool",
          "name": "_testMode",
          "type": "bool"
        }
      ],
      "name": "setTestMode",
      "outputs": [],
      "stateMutability": "nonpayable",
      "type": "function"
    },
    {
      "inputs": [
        {
          "internalType": "address",
          "name": "precompile",
          "type": "address"
        }
      ],
      "name": "setXcmPrecompile",
      "outputs": [],
      "stateMutability": "nonpayable",
      "type": "function"
    },
    {
      "inputs": [
        {
          "internalType": "bytes32",
          "name": "positionId",
          "type": "bytes32"
        },
        {
          "internalType": "uint256",
          "name": "receivedAmount",
          "type": "uint256"
        }
      ],
      "name": "settleLiquidation",
      "outputs": [],
      "stateMutability": "nonpayable",
      "type": "function"
    },
    {
      "inputs": [],
      "name": "testMode",
      "outputs": [
        {
          "internalType": "bool",
          "name": "",
          "type": "bool"
        }
      ],
      "stateMutability": "view",
      "type": "function"
    },
    {
      "inputs": [
        {
          "internalType": "address",
          "name": "newAdmin",
          "type": "address"
        }
      ],
      "name": "transferAdmin",
      "outputs": [],
      "stateMutability": "nonpayable",
      "type": "function"
    },
    {
      "inputs": [],
      "name": "unpause",
      "outputs": [],
      "stateMutability": "nonpayable",
      "type": "function"
    },
    {
      "inputs": [
        {
          "internalType": "address",
          "name": "",
          "type": "address"
        }
      ],
      "name": "userBalances",
      "outputs": [
        {
          "internalType": "uint256",
          "name": "",
          "type": "uint256"
        }
      ],
      "stateMutability": "view",
      "type": "function"
    },
    {
      "inputs": [
        {
          "internalType": "address",
          "name": "",
          "type": "address"
        },
        {
          "internalType": "uint256",
          "name": "",
          "type": "uint256"
        }
      ],
      "name": "userPositions",
      "outputs": [
        {
          "internalType": "bytes32",
          "name": "",
          "type": "bytes32"
        }
      ],
      "stateMutability": "view",
      "type": "function"
    },
    {
      "inputs": [
        {
          "internalType": "uint256",
          "name": "amount",
          "type": "uint256"
        }
      ],
      "name": "withdraw",
      "outputs": [],
      "stateMutability": "nonpayable",
      "type": "function"
    },
    {
      "inputs": [],
      "name": "xcmPrecompileFrozen",
      "outputs": [
        {
          "internalType": "bool",
          "name": "",
          "type": "bool"
        }
      ],
      "stateMutability": "view",
      "type": "function"
    }
  ],
  "bytecode": "0x608080604052346063576001600081905580546001600160a01b031990811633908117909255600280549091168217905560038054600780546001600160a81b03199081169091551660ff60a01b199092169190911790556115ce90816100698239f35b600080fdfe608080604052600436101561001357600080fd5b600090813560e01c908163077120cc146112ce575080631928b3cb146112045780631ff1292f146111b357806326224c6414610cff5780632a6bc2dd146110195780632e1a7d4d14610f2c5780632fefe44014610ecb5780633f4ba83a14610e9857806343d6ca9c14610d385780634773489214610cff578063514ea4bf14610c50578063570ca73514610c275780635c975abb14610c015780635dad35ca14610b475780635e1b4d9914610af057806375829def14610a835780638456cb5914610a4a5780639a270acd146109c15780639b2c59e61461099b578063b3ab15fb1461094a578063caa6fea414610921578063caffc49c14610841578063cd9ea3421461081b578063d0e30db0146107a6578063dd67d25a146101e4578063eb02a115146101755763f851a4401461014a57600080fd5b346101725780600319360112610172576001546040516001600160a01b039091168152602090f35b80fd5b50346101725760203660031901126101725761018f611378565b6001546001600160a01b031633036101d5576001600160a01b031680156101c6576001600160601b0360a01b600354161760035580f35b63d92e233d60e01b8252600482fd5b637bfa4b9f60e01b8252600482fd5b503461017257610120366003190112610172576101ff611378565b60243563ffffffff8116908181036107a2576044356001600160a01b038116929083810361079e57606435916001600160a01b038316908184036107085760843560a435968760020b80980361079a5760c4358060020b8091036107965760e4356001600160401b0381116107925761027c9036906004016113c1565b99909a610104356001600160401b03811161078e5761029f9036906004016113c1565b600254909b919a906001600160a01b0316330361077f5760ff60035460a01c16610770576001600160a01b038316998a156107605787156107505785851215610740576007546001600160a01b031615610730578f6040818d8b9352600460205220541061072057604051606094851b6bffffffffffffffffffffffff199081166020830190815260e09590951b6001600160e01b031916603483015291851b8216603882015291841b16604c820152428382015291825260049286928f929061036a608082611420565b5190209889916040519661037d886113ee565b8c8852602088018981526040890193845260608901908c825260808a0193845260a08a01928352604060c08b01976001600160401b034216895260e08c0197600189526101008d019a8b5281526005602052209960018060a01b039060018060a01b03905116166001600160601b0360a01b8b5416178a5560018060a01b0390511660018a019060018060a01b03166001600160601b0360a01b825416179055600289019360018060a01b039060018060a01b03905116166001600160601b0360a01b85541617845551918354905160c01b62ffffff60c01b16915160d81b62ffffff60d81b169263ffffffff60a01b9060a01b169069ffffffffffffffffffff60a01b191617171790556001600160401b03600386019251166001600160401b031983541617825551151560ff60401b82549160401b169060ff60401b191617905551910155848a52600660205260408a208054906801000000000000000082101561070c579161051a827f9a5b32500137d63609212582c47c2e2486052dab88567f1fbd0637be4f2652a09694600160609795018155611393565b81549060031b9088821b91600019901b1916179055868c52600460205260408c206105468382546114b0565b905560405192835260208301526040820152a36007549060ff8260a81c161561056d578580f35b610576836114d3565b6105836040519182611420565b8381526020810190368584011161070857848383378085016020018890525190209486926060906001600160a01b031684813b1561017257604051637f0a3bf960e01b81529182908183816105de8c8b8f8c6004860161154c565b03925af190816106f2575b508791906106c257507f2ba5ade46917c616c9af26a3ce5e85c0dc38796c39d42e9a9b2d930e02c492486106499394956106216114ee565b955b6106346040519283928b888561154c565b0390a26040519460608652606086019161152b565b91151560208401528282036040840152805190818352855b8281106106ad57505082828287602080957f2d28a5a2ca6843ac7811dcf16bc72dcea83863fbb74f472becc28dc57a76827a9897010152601f801991011601030190a238808080808580f35b80602080928401015182828701015201610661565b93507f2ba5ade46917c616c9af26a3ce5e85c0dc38796c39d42e9a9b2d930e02c492486106499395600196610623565b98610700818a94939b611420565b9890916105e9565b8780fd5b634e487b7160e01b8c52604160045260248cfd5b50631e9acf1760e31b8f5260048ffd5b506395b60d6160e01b8f5260048ffd5b5063561ce9bb60e01b8f5260048ffd5b506365e52d5160e11b8f5260048ffd5b5063d92e233d60e01b8f5260048ffd5b6313d0ff5960e31b8f5260048ffd5b631f0853c160e21b8f5260048ffd5b8d80fd5b8b80fd5b8a80fd5b8980fd5b8580fd5b8380fd5b5080600319360112610172576107ba611576565b341561080c573381526004602052604081206107d734825461151e565b90556040513481527fe1fffcc4923d04b559f4d29a8bfc6cda04eb5b0d3c460751c2402c5c5cc9109c60203392a26001815580f35b6365e52d5160e11b8152600490fd5b5034610172578060031936011261017257602060ff60075460a81c166040519015158152f35b50346101725760403660031901126101725760043563ffffffff811680910361091d5760035460243591906001600160a01b0316330361090e5781835260056020526040832090600382019081549060ff8260401c16156108ff5763ffffffff600285015460a01c16036108f05760ff60401b1916905560018060a01b03905416907f385faac62e36e04554cd60315fc6716eaf7fc15bba95b3790f4b351dfa10bad86020604051858152a380f35b63a179f8c960e01b8552600485fd5b63a8a168bf60e01b8652600486fd5b6303ca9f4d60e11b8352600483fd5b5080fd5b50346101725780600319360112610172576003546040516001600160a01b039091168152602090f35b503461017257602036600319011261017257610964611378565b6001546001600160a01b031633036101d5576001600160a01b031680156101c6576001600160601b0360a01b600254161760025580f35b5034610172578060031936011261017257602060ff60075460a01c166040519015158152f35b50346101725780600319360112610172576001546001600160a01b03163303610a3b5760075460ff8160a01c16610a055760ff60a01b1916600160a01b1760075580f35b60405162461bcd60e51b815260206004820152600e60248201526d30b63932b0b23c90333937bd32b760911b6044820152606490fd5b637bfa4b9f60e01b8152600490fd5b50346101725780600319360112610172576001546001600160a01b03163303610a3b576003805460ff60a01b1916600160a01b17905580f35b503461017257602036600319011261017257610a9d611378565b600154906001600160a01b0382163303610ae1576001600160a01b0316908115610ad2576001600160a01b0319161760015580f35b63d92e233d60e01b8352600483fd5b637bfa4b9f60e01b8352600483fd5b503461017257604036600319011261017257610b0a611378565b6001600160a01b0316815260066020526040812080546024359290831015610172576020610b388484611393565b90549060031b1c604051908152f35b503461017257602036600319011261017257610b61611378565b6001546001600160a01b031633036101d5576007549060ff8260a01c16610bc4576001600160a01b03166001600160a01b03199190911681176007557f92107fcd833d21c9342d998ceb020ac5d7aaa95136a24b3f7e7a17522b26d0e48280a280f35b60405162461bcd60e51b81526020600482015260156024820152743c31b690383932b1b7b6b834b63290333937bd32b760591b6044820152606490fd5b5034610172578060031936011261017257602060ff60035460a01c166040519015158152f35b50346101725780600319360112610172576002546040516001600160a01b039091168152602090f35b503461017257602036600319011261017257604061012091600435815260056020522060018060a01b038154169060ff60018060a01b036001830154169160028101546004600383015492015493604051958652602086015260018060a01b038116604086015263ffffffff8160a01c1660608601528060c01c60020b608086015260d81c60020b60a08501526001600160401b03811660c085015260401c16151560e0830152610100820152f35b5034610172576020366003190112610172576020906040906001600160a01b03610d27611378565b168152600483522054604051908152f35b50346101725760403660031901126101725760025460243590600435906001600160a01b03163303610e8957610d6c611576565b8115610e7a5780835260056020526040832091600383019081549060ff8260401c16156108ff57804710610e35577fa8bc750a5af603b81d1d73928261812951e56844201c36805845c3ea53e0657c9260409260ff60401b1916905560018060a01b0385541686526004602052818620610de782825461151e565b9055600460018060a01b038654169586867f385faac62e36e04554cd60315fc6716eaf7fc15bba95b3790f4b351dfa10bad860208751878152a3015482519182526020820152a36001815580f35b60405162461bcd60e51b815260206004820152601d60248201527f496e73756666696369656e7420636f6e74726163742062616c616e63650000006044820152606490fd5b6365e52d5160e11b8352600483fd5b631f0853c160e21b8352600483fd5b50346101725780600319360112610172576001546001600160a01b03163303610a3b576003805460ff60a01b1916905580f35b5034610172576040366003190112610172576020906040610eea611378565b602435835260058452912080546001600160a01b039283169216919091149081610f1a575b506040519015158152f35b60ff91506003015460401c1638610f0f565b503461017257602036600319011261017257600435610f49611576565b801561100a57338252600460205280604083205410610ffb57338252600460205260408220610f798282546114b0565b90558180808084335af1610f8b6114ee565b5015610fc4576040519081527f7fcf532c15f0a6db0bd6d0e038bea71d30d808c7d98cb3bf7268a95bf5081b6560203392a26001815580f35b60405162461bcd60e51b815260206004820152600f60248201526e1514905394d1915497d19052531151608a1b6044820152606490fd5b631e9acf1760e31b8252600482fd5b6365e52d5160e11b8252600482fd5b5034610172576020366003190112610172576001600160a01b0361103b611378565b168152600660205260408120805461105281611485565b916110606040519384611420565b818352601f1961106f83611485565b01845b81811061119c575050835b8281106110d6578385604051918291602083016020845282518091526020604085019301915b8181106110b1575050500390f35b919350916020610120826110c860019488516112f3565b0194019101918493926110a3565b806110e360019284611393565b90549060031b1c8652600560205260408620600460405191611104836113ee565b848060a01b038154168352848060a01b03858201541660208401526002810154858060a01b038116604085015263ffffffff8160a01c1660608501528060c01c60020b608085015260d81c60020b60a084015260ff60038201546001600160401b03811660c086015260401c16151560e0840152015461010082015261118a828761149c565b52611195818661149c565b500161107d565b6020906111a7611441565b82828801015201611072565b50346101725760203660031901126101725760043580151580910361091d576001546001600160a01b031633036101d5576007805460ff60a81b191660a89290921b60ff60a81b1691909117905580f35b503461017257602036600319011261017257604061012091611224611441565b50600435815260056020522060046040519161123f836113ee565b60018060a01b03815416835260018060a01b036001820154166020840152600281015460018060a01b038116604085015263ffffffff8160a01c1660608501528060c01c60020b608085015260d81c60020b60a084015260ff60038201546001600160401b03811660c086015260401c16151560e084015201546101008201526112cc60405180926112f3565bf35b90503461091d578160031936011261091d576007546001600160a01b03168152602090f35b610100809160018060a01b03815116845260018060a01b03602082015116602085015260018060a01b03604082015116604085015263ffffffff6060820151166060850152608081015160020b608085015260a081015160020b60a08501526001600160401b0360c08201511660c085015260e0810151151560e08501520151910152565b600435906001600160a01b038216820361138e57565b600080fd5b80548210156113ab5760005260206000200190600090565b634e487b7160e01b600052603260045260246000fd5b9181601f8401121561138e578235916001600160401b03831161138e576020838186019501011161138e57565b61012081019081106001600160401b0382111761140a57604052565b634e487b7160e01b600052604160045260246000fd5b90601f801991011681019081106001600160401b0382111761140a57604052565b6040519061144e826113ee565b6000610100838281528260208201528260408201528260608201528260808201528260a08201528260c08201528260e08201520152565b6001600160401b03811161140a5760051b60200190565b80518210156113ab5760209160051b010190565b919082039182116114bd57565b634e487b7160e01b600052601160045260246000fd5b6001600160401b03811161140a57601f01601f191660200190565b3d15611519573d906114ff826114d3565b9161150d6040519384611420565b82523d6000602084013e565b606090565b919082018092116114bd57565b908060209392818452848401376000828201840152601f01601f1916010190565b929061156590611573959360408652604086019161152b565b92602081850391015261152b565b90565b600260005414611587576002600055565b633ee5aeb560e01b60005260046000fdfea26469706673582212209400985596a13028bc9bbea8ecbf1f1be0385474da424d178bd79cc8a1ea93c464736f6c634300081c0033",
  "linkReferences": {},
  "deployedLinkReferences": {}
}